{
  "contractName": "BadSingleNFT",
  "abi": [
    {
      "inputs": [
        {
          "internalType": "string",
          "name": "_name",
          "type": "string"
        },
        {
          "internalType": "string",
          "name": "_symbol",
          "type": "string"
        },
        {
          "internalType": "uint256",
          "name": "_supply",
          "type": "uint256"
        },
        {
          "internalType": "uint256",
          "name": "_mintValue",
          "type": "uint256"
        }
      ],
      "stateMutability": "payable",
      "type": "constructor"
    },
    {
      "anonymous": false,
      "inputs": [
        {
          "indexed": true,
          "internalType": "address",
          "name": "owner",
          "type": "address"
        },
        {
          "indexed": true,
          "internalType": "address",
          "name": "approved",
          "type": "address"
        },
        {
          "indexed": true,
          "internalType": "uint256",
          "name": "tokenId",
          "type": "uint256"
        }
      ],
      "name": "Approval",
      "type": "event"
    },
    {
      "anonymous": false,
      "inputs": [
        {
          "indexed": true,
          "internalType": "address",
          "name": "owner",
          "type": "address"
        },
        {
          "indexed": true,
          "internalType": "address",
          "name": "operator",
          "type": "address"
        },
        {
          "indexed": false,
          "internalType": "bool",
          "name": "approved",
          "type": "bool"
        }
      ],
      "name": "ApprovalForAll",
      "type": "event"
    },
    {
      "anonymous": false,
      "inputs": [
        {
          "indexed": true,
          "internalType": "address",
          "name": "from",
          "type": "address"
        },
        {
          "indexed": true,
          "internalType": "address",
          "name": "to",
          "type": "address"
        },
        {
          "indexed": true,
          "internalType": "uint256",
          "name": "tokenId",
          "type": "uint256"
        }
      ],
      "name": "Transfer",
      "type": "event"
    },
    {
      "inputs": [
        {
          "internalType": "address",
          "name": "to",
          "type": "address"
        },
        {
          "internalType": "uint256",
          "name": "tokenId",
          "type": "uint256"
        }
      ],
      "name": "approve",
      "outputs": [],
      "stateMutability": "nonpayable",
      "type": "function"
    },
    {
      "inputs": [],
      "name": "audio",
      "outputs": [
        {
          "internalType": "string",
          "name": "",
          "type": "string"
        }
      ],
      "stateMutability": "view",
      "type": "function"
    },
    {
      "inputs": [
        {
          "internalType": "address",
          "name": "owner",
          "type": "address"
        }
      ],
      "name": "balanceOf",
      "outputs": [
        {
          "internalType": "uint256",
          "name": "",
          "type": "uint256"
        }
      ],
      "stateMutability": "view",
      "type": "function"
    },
    {
      "inputs": [],
      "name": "baseURI",
      "outputs": [
        {
          "internalType": "string",
          "name": "",
          "type": "string"
        }
      ],
      "stateMutability": "view",
      "type": "function"
    },
    {
      "inputs": [],
      "name": "distributor",
      "outputs": [
        {
          "internalType": "address",
          "name": "",
          "type": "address"
        }
      ],
      "stateMutability": "view",
      "type": "function"
    },
    {
      "inputs": [
        {
          "internalType": "uint256",
          "name": "tokenId",
          "type": "uint256"
        }
      ],
      "name": "getApproved",
      "outputs": [
        {
          "internalType": "address",
          "name": "",
          "type": "address"
        }
      ],
      "stateMutability": "view",
      "type": "function"
    },
    {
      "inputs": [],
      "name": "image",
      "outputs": [
        {
          "internalType": "string",
          "name": "",
          "type": "string"
        }
      ],
      "stateMutability": "view",
      "type": "function"
    },
    {
      "inputs": [
        {
          "internalType": "address",
          "name": "owner",
          "type": "address"
        },
        {
          "internalType": "address",
          "name": "operator",
          "type": "address"
        }
      ],
      "name": "isApprovedForAll",
      "outputs": [
        {
          "internalType": "bool",
          "name": "",
          "type": "bool"
        }
      ],
      "stateMutability": "view",
      "type": "function"
    },
    {
      "inputs": [],
      "name": "maxSupply",
      "outputs": [
        {
          "internalType": "uint256",
          "name": "",
          "type": "uint256"
        }
      ],
      "stateMutability": "view",
      "type": "function"
    },
    {
      "inputs": [],
      "name": "mintValue",
      "outputs": [
        {
          "internalType": "uint256",
          "name": "",
          "type": "uint256"
        }
      ],
      "stateMutability": "view",
      "type": "function"
    },
    {
      "inputs": [],
      "name": "model",
      "outputs": [
        {
          "internalType": "string",
          "name": "",
          "type": "string"
        }
      ],
      "stateMutability": "view",
      "type": "function"
    },
    {
      "inputs": [],
      "name": "name",
      "outputs": [
        {
          "internalType": "string",
          "name": "",
          "type": "string"
        }
      ],
      "stateMutability": "view",
      "type": "function"
    },
    {
      "inputs": [
        {
          "internalType": "uint256",
          "name": "tokenId",
          "type": "uint256"
        }
      ],
      "name": "ownerOf",
      "outputs": [
        {
          "internalType": "address",
          "name": "",
          "type": "address"
        }
      ],
      "stateMutability": "view",
      "type": "function"
    },
    {
      "inputs": [
        {
          "internalType": "address",
          "name": "from",
          "type": "address"
        },
        {
          "internalType": "address",
          "name": "to",
          "type": "address"
        },
        {
          "internalType": "uint256",
          "name": "tokenId",
          "type": "uint256"
        }
      ],
      "name": "safeTransferFrom",
      "outputs": [],
      "stateMutability": "nonpayable",
      "type": "function"
    },
    {
      "inputs": [
        {
          "internalType": "address",
          "name": "from",
          "type": "address"
        },
        {
          "internalType": "address",
          "name": "to",
          "type": "address"
        },
        {
          "internalType": "uint256",
          "name": "tokenId",
          "type": "uint256"
        },
        {
          "internalType": "bytes",
          "name": "_data",
          "type": "bytes"
        }
      ],
      "name": "safeTransferFrom",
      "outputs": [],
      "stateMutability": "nonpayable",
      "type": "function"
    },
    {
      "inputs": [
        {
          "internalType": "address",
          "name": "operator",
          "type": "address"
        },
        {
          "internalType": "bool",
          "name": "approved",
          "type": "bool"
        }
      ],
      "name": "setApprovalForAll",
      "outputs": [],
      "stateMutability": "nonpayable",
      "type": "function"
    },
    {
      "inputs": [
        {
          "internalType": "bytes4",
          "name": "interfaceId",
          "type": "bytes4"
        }
      ],
      "name": "supportsInterface",
      "outputs": [
        {
          "internalType": "bool",
          "name": "",
          "type": "bool"
        }
      ],
      "stateMutability": "view",
      "type": "function"
    },
    {
      "inputs": [],
      "name": "symbol",
      "outputs": [
        {
          "internalType": "string",
          "name": "",
          "type": "string"
        }
      ],
      "stateMutability": "view",
      "type": "function"
    },
    {
      "inputs": [
        {
          "internalType": "uint256",
          "name": "index",
          "type": "uint256"
        }
      ],
      "name": "tokenByIndex",
      "outputs": [
        {
          "internalType": "uint256",
          "name": "",
          "type": "uint256"
        }
      ],
      "stateMutability": "view",
      "type": "function"
    },
    {
      "inputs": [
        {
          "internalType": "address",
          "name": "owner",
          "type": "address"
        },
        {
          "internalType": "uint256",
          "name": "index",
          "type": "uint256"
        }
      ],
      "name": "tokenOfOwnerByIndex",
      "outputs": [
        {
          "internalType": "uint256",
          "name": "",
          "type": "uint256"
        }
      ],
      "stateMutability": "view",
      "type": "function"
    },
    {
      "inputs": [
        {
          "internalType": "uint256",
          "name": "tokenId",
          "type": "uint256"
        }
      ],
      "name": "tokenURI",
      "outputs": [
        {
          "internalType": "string",
          "name": "",
          "type": "string"
        }
      ],
      "stateMutability": "view",
      "type": "function"
    },
    {
      "inputs": [],
      "name": "totalSupply",
      "outputs": [
        {
          "internalType": "uint256",
          "name": "",
          "type": "uint256"
        }
      ],
      "stateMutability": "view",
      "type": "function"
    },
    {
      "inputs": [
        {
          "internalType": "address",
          "name": "from",
          "type": "address"
        },
        {
          "internalType": "address",
          "name": "to",
          "type": "address"
        },
        {
          "internalType": "uint256",
          "name": "tokenId",
          "type": "uint256"
        }
      ],
      "name": "transferFrom",
      "outputs": [],
      "stateMutability": "nonpayable",
      "type": "function"
    },
    {
      "inputs": [],
      "name": "video",
      "outputs": [
        {
          "internalType": "string",
          "name": "",
          "type": "string"
        }
      ],
      "stateMutability": "view",
      "type": "function"
    },
    {
      "inputs": [
        {
          "internalType": "address",
          "name": "_distributor",
          "type": "address"
        }
      ],
      "name": "setDistributor",
      "outputs": [],
      "stateMutability": "nonpayable",
      "type": "function"
    },
    {
      "inputs": [
        {
          "internalType": "string",
          "name": "_uri",
          "type": "string"
        },
        {
          "internalType": "bool",
          "name": "_ratioProtocol",
          "type": "bool"
        },
        {
          "internalType": "address",
          "name": "_protocolAddress",
          "type": "address"
        }
      ],
      "name": "setBaseURI",
      "outputs": [],
      "stateMutability": "payable",
      "type": "function"
    },
    {
      "inputs": [
        {
          "internalType": "string",
          "name": "_image",
          "type": "string"
        },
        {
          "internalType": "string",
          "name": "_audio",
          "type": "string"
        },
        {
          "internalType": "string",
          "name": "_video",
          "type": "string"
        },
        {
          "internalType": "string",
          "name": "_model",
          "type": "string"
        }
      ],
      "name": "setSubURIs",
      "outputs": [],
      "stateMutability": "nonpayable",
      "type": "function"
    },
    {
      "inputs": [
        {
          "internalType": "address",
          "name": "_receiver",
          "type": "address"
        }
      ],
      "name": "mint",
      "outputs": [
        {
          "internalType": "uint256",
          "name": "_id",
          "type": "uint256"
        }
      ],
      "stateMutability": "payable",
      "type": "function"
    }
  ],
  "bytecode": "0x6080604052604051620041ac380380620041ac8339818101604052810190620000299190620001fd565b8383816000908051906020019062000043929190620000b8565b5080600190805190602001906200005c929190620000b8565b50505033600a60006101000a81548173ffffffffffffffffffffffffffffffffffffffff021916908373ffffffffffffffffffffffffffffffffffffffff16021790555081601081905550806011819055505050505062000455565b828054620000c6906200034c565b90600052602060002090601f016020900481019282620000ea576000855562000136565b82601f106200010557805160ff191683800117855562000136565b8280016001018555821562000136579182015b828111156200013557825182559160200191906001019062000118565b5b50905062000145919062000149565b5090565b5b80821115620001645760008160009055506001016200014a565b5090565b60006200017f6200017984620002d6565b620002ad565b9050828152602081018484840111156200019e576200019d6200041b565b5b620001ab84828562000316565b509392505050565b600082601f830112620001cb57620001ca62000416565b5b8151620001dd84826020860162000168565b91505092915050565b600081519050620001f7816200043b565b92915050565b600080600080608085870312156200021a576200021962000425565b5b600085015167ffffffffffffffff8111156200023b576200023a62000420565b5b6200024987828801620001b3565b945050602085015167ffffffffffffffff8111156200026d576200026c62000420565b5b6200027b87828801620001b3565b93505060406200028e87828801620001e6565b9250506060620002a187828801620001e6565b91505092959194509250565b6000620002b9620002cc565b9050620002c7828262000382565b919050565b6000604051905090565b600067ffffffffffffffff821115620002f457620002f3620003e7565b5b620002ff826200042a565b9050602081019050919050565b6000819050919050565b60005b838110156200033657808201518184015260208101905062000319565b8381111562000346576000848401525b50505050565b600060028204905060018216806200036557607f821691505b602082108114156200037c576200037b620003b8565b5b50919050565b6200038d826200042a565b810181811067ffffffffffffffff82111715620003af57620003ae620003e7565b5b80604052505050565b7f4e487b7100000000000000000000000000000000000000000000000000000000600052602260045260246000fd5b7f4e487b7100000000000000000000000000000000000000000000000000000000600052604160045260246000fd5b600080fd5b600080fd5b600080fd5b600080fd5b6000601f19601f8301169050919050565b62000446816200030c565b81146200045257600080fd5b50565b613d4780620004656000396000f3fe6080604052600436106101b75760003560e01c80636c0360eb116100ec578063b88d4fde1161008a578063d52b1f5311610064578063d52b1f5314610639578063d5abeb0114610655578063e985e9c514610680578063f3ccaac0146106bd576101b7565b8063b88d4fde146105a8578063bfe10928146105d1578063c87b56dd146105fc576101b7565b806389c77dfe116100c657806389c77dfe1461050057806395d89b411461052b578063a22cb46514610556578063b822fd2c1461057f576101b7565b80636c0360eb1461046f57806370a082311461049a57806375619ab5146104d7576101b7565b806323b872dd1161015957806342842e0e1161013357806342842e0e1461039c5780634f6ccce7146103c55780636352211e146104025780636a6278421461043f576101b7565b806323b872dd1461030b5780632f745c5914610334578063407d223614610371576101b7565b8063095ea7b311610195578063095ea7b3146102615780630ad9d0521461028a57806311b00617146102b557806318160ddd146102e0576101b7565b806301ffc9a7146101bc57806306fdde03146101f9578063081812fc14610224575b600080fd5b3480156101c857600080fd5b506101e360048036038101906101de9190612aec565b6106e8565b6040516101f091906130ad565b60405180910390f35b34801561020557600080fd5b5061020e610762565b60405161021b91906130c8565b60405180910390f35b34801561023057600080fd5b5061024b60048036038101906102469190612c8c565b6107f4565b6040516102589190613046565b60405180910390f35b34801561026d57600080fd5b5061028860048036038101906102839190612aac565b610879565b005b34801561029657600080fd5b5061029f610991565b6040516102ac91906130c8565b60405180910390f35b3480156102c157600080fd5b506102ca610a1f565b6040516102d791906130c8565b60405180910390f35b3480156102ec57600080fd5b506102f5610aad565b604051610302919061334a565b60405180910390f35b34801561031757600080fd5b50610332600480360381019061032d9190612996565b610aba565b005b34801561034057600080fd5b5061035b60048036038101906103569190612aac565b610b1a565b604051610368919061334a565b60405180910390f35b34801561037d57600080fd5b50610386610bbf565b60405161039391906130c8565b60405180910390f35b3480156103a857600080fd5b506103c360048036038101906103be9190612996565b610c4d565b005b3480156103d157600080fd5b506103ec60048036038101906103e79190612c8c565b610c6d565b6040516103f9919061334a565b60405180910390f35b34801561040e57600080fd5b5061042960048036038101906104249190612c8c565b610cde565b6040516104369190613046565b60405180910390f35b61045960048036038101906104549190612929565b610d90565b604051610466919061334a565b60405180910390f35b34801561047b57600080fd5b50610484610e49565b60405161049191906130c8565b60405180910390f35b3480156104a657600080fd5b506104c160048036038101906104bc9190612929565b610ed7565b6040516104ce919061334a565b60405180910390f35b3480156104e357600080fd5b506104fe60048036038101906104f99190612929565b610f8f565b005b34801561050c57600080fd5b50610515611063565b604051610522919061334a565b60405180910390f35b34801561053757600080fd5b50610540611069565b60405161054d91906130c8565b60405180910390f35b34801561056257600080fd5b5061057d60048036038101906105789190612a6c565b6110fb565b005b34801561058b57600080fd5b506105a660048036038101906105a19190612bb5565b611111565b005b3480156105b457600080fd5b506105cf60048036038101906105ca91906129e9565b611203565b005b3480156105dd57600080fd5b506105e6611265565b6040516105f39190613046565b60405180910390f35b34801561060857600080fd5b50610623600480360381019061061e9190612c8c565b61128b565b60405161063091906130c8565b60405180910390f35b610653600480360381019061064e9190612b46565b611332565b005b34801561066157600080fd5b5061066a611446565b604051610677919061334a565b60405180910390f35b34801561068c57600080fd5b506106a760048036038101906106a29190612956565b61144c565b6040516106b491906130ad565b60405180910390f35b3480156106c957600080fd5b506106d26114e0565b6040516106df91906130c8565b60405180910390f35b60007f780e9d63000000000000000000000000000000000000000000000000000000007bffffffffffffffffffffffffffffffffffffffffffffffffffffffff1916827bffffffffffffffffffffffffffffffffffffffffffffffffffffffff1916148061075b575061075a8261156e565b5b9050919050565b606060008054610771906135a0565b80601f016020809104026020016040519081016040528092919081815260200182805461079d906135a0565b80156107ea5780601f106107bf576101008083540402835291602001916107ea565b820191906000526020600020905b8154815290600101906020018083116107cd57829003601f168201915b5050505050905090565b60006107ff82611650565b61083e576040517f08c379a00000000000000000000000000000000000000000000000000000000081526004016108359061324a565b60405180910390fd5b6004600083815260200190815260200160002060009054906101000a900473ffffffffffffffffffffffffffffffffffffffff169050919050565b600061088482610cde565b90508073ffffffffffffffffffffffffffffffffffffffff168373ffffffffffffffffffffffffffffffffffffffff1614156108f5576040517f08c379a00000000000000000000000000000000000000000000000000000000081526004016108ec906132aa565b60405180910390fd5b8073ffffffffffffffffffffffffffffffffffffffff166109146116bc565b73ffffffffffffffffffffffffffffffffffffffff16148061094357506109428161093d6116bc565b61144c565b5b610982576040517f08c379a0000000000000000000000000000000000000000000000000000000008152600401610979906131ca565b60405180910390fd5b61098c83836116c4565b505050565b600f805461099e906135a0565b80601f01602080910402602001604051908101604052809291908181526020018280546109ca906135a0565b8015610a175780601f106109ec57610100808354040283529160200191610a17565b820191906000526020600020905b8154815290600101906020018083116109fa57829003601f168201915b505050505081565b600e8054610a2c906135a0565b80601f0160208091040260200160405190810160405280929190818152602001828054610a58906135a0565b8015610aa55780601f10610a7a57610100808354040283529160200191610aa5565b820191906000526020600020905b815481529060010190602001808311610a8857829003601f168201915b505050505081565b6000600880549050905090565b610acb610ac56116bc565b8261177d565b610b0a576040517f08c379a0000000000000000000000000000000000000000000000000000000008152600401610b01906132ea565b60405180910390fd5b610b1583838361185b565b505050565b6000610b2583610ed7565b8210610b66576040517f08c379a0000000000000000000000000000000000000000000000000000000008152600401610b5d906130ea565b60405180910390fd5b600660008473ffffffffffffffffffffffffffffffffffffffff1673ffffffffffffffffffffffffffffffffffffffff168152602001908152602001600020600083815260200190815260200160002054905092915050565b600d8054610bcc906135a0565b80601f0160208091040260200160405190810160405280929190818152602001828054610bf8906135a0565b8015610c455780601f10610c1a57610100808354040283529160200191610c45565b820191906000526020600020905b815481529060010190602001808311610c2857829003601f168201915b505050505081565b610c6883838360405180602001604052806000815250611203565b505050565b6000610c77610aad565b8210610cb8576040517f08c379a0000000000000000000000000000000000000000000000000000000008152600401610caf9061330a565b60405180910390fd5b60088281548110610ccc57610ccb613739565b5b90600052602060002001549050919050565b6000806002600084815260200190815260200160002060009054906101000a900473ffffffffffffffffffffffffffffffffffffffff169050600073ffffffffffffffffffffffffffffffffffffffff168173ffffffffffffffffffffffffffffffffffffffff161415610d87576040517f08c379a0000000000000000000000000000000000000000000000000000000008152600401610d7e9061320a565b60405180910390fd5b80915050919050565b6000601154341015610dd7576040517f08c379a0000000000000000000000000000000000000000000000000000000008152600401610dce906132ca565b60405180910390fd5b601054610de46012611ac2565b10610e24576040517f08c379a0000000000000000000000000000000000000000000000000000000008152600401610e1b9061326a565b60405180910390fd5b610e2e6012611ad0565b610e386012611ac2565b9050610e448282611ae6565b919050565b600b8054610e56906135a0565b80601f0160208091040260200160405190810160405280929190818152602001828054610e82906135a0565b8015610ecf5780601f10610ea457610100808354040283529160200191610ecf565b820191906000526020600020905b815481529060010190602001808311610eb257829003601f168201915b505050505081565b60008073ffffffffffffffffffffffffffffffffffffffff168273ffffffffffffffffffffffffffffffffffffffff161415610f48576040517f08c379a0000000000000000000000000000000000000000000000000000000008152600401610f3f906131ea565b60405180910390fd5b600360008373ffffffffffffffffffffffffffffffffffffffff1673ffffffffffffffffffffffffffffffffffffffff168152602001908152602001600020549050919050565b3373ffffffffffffffffffffffffffffffffffffffff16600a60009054906101000a900473ffffffffffffffffffffffffffffffffffffffff1673ffffffffffffffffffffffffffffffffffffffff161461101f576040517f08c379a00000000000000000000000000000000000000000000000000000000081526004016110169061332a565b60405180910390fd5b80600a60006101000a81548173ffffffffffffffffffffffffffffffffffffffff021916908373ffffffffffffffffffffffffffffffffffffffff16021790555050565b60115481565b606060018054611078906135a0565b80601f01602080910402602001604051908101604052809291908181526020018280546110a4906135a0565b80156110f15780601f106110c6576101008083540402835291602001916110f1565b820191906000526020600020905b8154815290600101906020018083116110d457829003601f168201915b5050505050905090565b61110d6111066116bc565b8383611b04565b5050565b3373ffffffffffffffffffffffffffffffffffffffff16600a60009054906101000a900473ffffffffffffffffffffffffffffffffffffffff1673ffffffffffffffffffffffffffffffffffffffff16146111a1576040517f08c379a00000000000000000000000000000000000000000000000000000000081526004016111989061332a565b60405180910390fd5b83600c90805190602001906111b792919061273d565b5082600d90805190602001906111ce92919061273d565b5081600e90805190602001906111e592919061273d565b5080600f90805190602001906111fc92919061273d565b5050505050565b61121461120e6116bc565b8361177d565b611253576040517f08c379a000000000000000000000000000000000000000000000000000000000815260040161124a906132ea565b60405180910390fd5b61125f84848484611c71565b50505050565b600a60009054906101000a900473ffffffffffffffffffffffffffffffffffffffff1681565b606061129682611650565b6112d5576040517f08c379a00000000000000000000000000000000000000000000000000000000081526004016112cc9061328a565b60405180910390fd5b60006112df611ccd565b905060008151116112ff576040518060200160405280600081525061132a565b8061130984611d5f565b60405160200161131a929190613022565b6040516020818303038152906040525b915050919050565b3373ffffffffffffffffffffffffffffffffffffffff16600a60009054906101000a900473ffffffffffffffffffffffffffffffffffffffff1673ffffffffffffffffffffffffffffffffffffffff16146113c2576040517f08c379a00000000000000000000000000000000000000000000000000000000081526004016113b99061332a565b60405180910390fd5b82600b90805190602001906113d892919061273d565b508115611441578073ffffffffffffffffffffffffffffffffffffffff166307ec3039346040518263ffffffff1660e01b81526004016000604051808303818588803b15801561142757600080fd5b505af115801561143b573d6000803e3d6000fd5b50505050505b505050565b60105481565b6000600560008473ffffffffffffffffffffffffffffffffffffffff1673ffffffffffffffffffffffffffffffffffffffff16815260200190815260200160002060008373ffffffffffffffffffffffffffffffffffffffff1673ffffffffffffffffffffffffffffffffffffffff16815260200190815260200160002060009054906101000a900460ff16905092915050565b600c80546114ed906135a0565b80601f0160208091040260200160405190810160405280929190818152602001828054611519906135a0565b80156115665780601f1061153b57610100808354040283529160200191611566565b820191906000526020600020905b81548152906001019060200180831161154957829003601f168201915b505050505081565b60007f80ac58cd000000000000000000000000000000000000000000000000000000007bffffffffffffffffffffffffffffffffffffffffffffffffffffffff1916827bffffffffffffffffffffffffffffffffffffffffffffffffffffffff1916148061163957507f5b5e139f000000000000000000000000000000000000000000000000000000007bffffffffffffffffffffffffffffffffffffffffffffffffffffffff1916827bffffffffffffffffffffffffffffffffffffffffffffffffffffffff1916145b80611649575061164882611ec0565b5b9050919050565b60008073ffffffffffffffffffffffffffffffffffffffff166002600084815260200190815260200160002060009054906101000a900473ffffffffffffffffffffffffffffffffffffffff1673ffffffffffffffffffffffffffffffffffffffff1614159050919050565b600033905090565b816004600083815260200190815260200160002060006101000a81548173ffffffffffffffffffffffffffffffffffffffff021916908373ffffffffffffffffffffffffffffffffffffffff160217905550808273ffffffffffffffffffffffffffffffffffffffff1661173783610cde565b73ffffffffffffffffffffffffffffffffffffffff167f8c5be1e5ebec7d5bd14f71427d1e84f3dd0314c0f7b2291e5b200ac8c7c3b92560405160405180910390a45050565b600061178882611650565b6117c7576040517f08c379a00000000000000000000000000000000000000000000000000000000081526004016117be906131aa565b60405180910390fd5b60006117d283610cde565b90508073ffffffffffffffffffffffffffffffffffffffff168473ffffffffffffffffffffffffffffffffffffffff16148061184157508373ffffffffffffffffffffffffffffffffffffffff16611829846107f4565b73ffffffffffffffffffffffffffffffffffffffff16145b806118525750611851818561144c565b5b91505092915050565b8273ffffffffffffffffffffffffffffffffffffffff1661187b82610cde565b73ffffffffffffffffffffffffffffffffffffffff16146118d1576040517f08c379a00000000000000000000000000000000000000000000000000000000081526004016118c89061312a565b60405180910390fd5b600073ffffffffffffffffffffffffffffffffffffffff168273ffffffffffffffffffffffffffffffffffffffff161415611941576040517f08c379a00000000000000000000000000000000000000000000000000000000081526004016119389061316a565b60405180910390fd5b61194c838383611f2a565b6119576000826116c4565b6001600360008573ffffffffffffffffffffffffffffffffffffffff1673ffffffffffffffffffffffffffffffffffffffff16815260200190815260200160002060008282546119a791906134b6565b925050819055506001600360008473ffffffffffffffffffffffffffffffffffffffff1673ffffffffffffffffffffffffffffffffffffffff16815260200190815260200160002060008282546119fe919061342f565b92505081905550816002600083815260200190815260200160002060006101000a81548173ffffffffffffffffffffffffffffffffffffffff021916908373ffffffffffffffffffffffffffffffffffffffff160217905550808273ffffffffffffffffffffffffffffffffffffffff168473ffffffffffffffffffffffffffffffffffffffff167fddf252ad1be2c89b69c2b068fc378daa952ba7f163c4a11628f55a4df523b3ef60405160405180910390a4611abd83838361203e565b505050565b600081600001549050919050565b6001816000016000828254019250508190555050565b611b00828260405180602001604052806000815250612043565b5050565b8173ffffffffffffffffffffffffffffffffffffffff168373ffffffffffffffffffffffffffffffffffffffff161415611b73576040517f08c379a0000000000000000000000000000000000000000000000000000000008152600401611b6a9061318a565b60405180910390fd5b80600560008573ffffffffffffffffffffffffffffffffffffffff1673ffffffffffffffffffffffffffffffffffffffff16815260200190815260200160002060008473ffffffffffffffffffffffffffffffffffffffff1673ffffffffffffffffffffffffffffffffffffffff16815260200190815260200160002060006101000a81548160ff0219169083151502179055508173ffffffffffffffffffffffffffffffffffffffff168373ffffffffffffffffffffffffffffffffffffffff167f17307eab39ab6107e8899845ad3d59bd9653f200f220920489ca2b5937696c3183604051611c6491906130ad565b60405180910390a3505050565b611c7c84848461185b565b611c888484848461209e565b611cc7576040517f08c379a0000000000000000000000000000000000000000000000000000000008152600401611cbe9061310a565b60405180910390fd5b50505050565b6060600b8054611cdc906135a0565b80601f0160208091040260200160405190810160405280929190818152602001828054611d08906135a0565b8015611d555780601f10611d2a57610100808354040283529160200191611d55565b820191906000526020600020905b815481529060010190602001808311611d3857829003601f168201915b5050505050905090565b60606000821415611da7576040518060400160405280600181526020017f30000000000000000000000000000000000000000000000000000000000000008152509050611ebb565b600082905060005b60008214611dd9578080611dc290613603565b915050600a82611dd29190613485565b9150611daf565b60008167ffffffffffffffff811115611df557611df4613768565b5b6040519080825280601f01601f191660200182016040528015611e275781602001600182028036833780820191505090505b5090505b60008514611eb457600182611e4091906134b6565b9150600a85611e4f919061364c565b6030611e5b919061342f565b60f81b818381518110611e7157611e70613739565b5b60200101907effffffffffffffffffffffffffffffffffffffffffffffffffffffffffffff1916908160001a905350600a85611ead9190613485565b9450611e2b565b8093505050505b919050565b60007f01ffc9a7000000000000000000000000000000000000000000000000000000007bffffffffffffffffffffffffffffffffffffffffffffffffffffffff1916827bffffffffffffffffffffffffffffffffffffffffffffffffffffffff1916149050919050565b611f35838383612235565b600073ffffffffffffffffffffffffffffffffffffffff168373ffffffffffffffffffffffffffffffffffffffff161415611f7857611f738161223a565b611fb7565b8173ffffffffffffffffffffffffffffffffffffffff168373ffffffffffffffffffffffffffffffffffffffff1614611fb657611fb58382612283565b5b5b600073ffffffffffffffffffffffffffffffffffffffff168273ffffffffffffffffffffffffffffffffffffffff161415611ffa57611ff5816123f0565b612039565b8273ffffffffffffffffffffffffffffffffffffffff168273ffffffffffffffffffffffffffffffffffffffff16146120385761203782826124c1565b5b5b505050565b505050565b61204d8383612540565b61205a600084848461209e565b612099576040517f08c379a00000000000000000000000000000000000000000000000000000000081526004016120909061310a565b60405180910390fd5b505050565b60006120bf8473ffffffffffffffffffffffffffffffffffffffff1661271a565b15612228578373ffffffffffffffffffffffffffffffffffffffff1663150b7a026120e86116bc565b8786866040518563ffffffff1660e01b815260040161210a9493929190613061565b602060405180830381600087803b15801561212457600080fd5b505af192505050801561215557506040513d601f19601f820116820180604052508101906121529190612b19565b60015b6121d8573d8060008114612185576040519150601f19603f3d011682016040523d82523d6000602084013e61218a565b606091505b506000815114156121d0576040517f08c379a00000000000000000000000000000000000000000000000000000000081526004016121c79061310a565b60405180910390fd5b805181602001fd5b63150b7a0260e01b7bffffffffffffffffffffffffffffffffffffffffffffffffffffffff1916817bffffffffffffffffffffffffffffffffffffffffffffffffffffffff19161491505061222d565b600190505b949350505050565b505050565b6008805490506009600083815260200190815260200160002081905550600881908060018154018082558091505060019003906000526020600020016000909190919091505550565b6000600161229084610ed7565b61229a91906134b6565b905060006007600084815260200190815260200160002054905081811461237f576000600660008673ffffffffffffffffffffffffffffffffffffffff1673ffffffffffffffffffffffffffffffffffffffff168152602001908152602001600020600084815260200190815260200160002054905080600660008773ffffffffffffffffffffffffffffffffffffffff1673ffffffffffffffffffffffffffffffffffffffff168152602001908152602001600020600084815260200190815260200160002081905550816007600083815260200190815260200160002081905550505b6007600084815260200190815260200160002060009055600660008573ffffffffffffffffffffffffffffffffffffffff1673ffffffffffffffffffffffffffffffffffffffff16815260200190815260200160002060008381526020019081526020016000206000905550505050565b6000600160088054905061240491906134b6565b905060006009600084815260200190815260200160002054905060006008838154811061243457612433613739565b5b90600052602060002001549050806008838154811061245657612455613739565b5b9060005260206000200181905550816009600083815260200190815260200160002081905550600960008581526020019081526020016000206000905560088054806124a5576124a461370a565b5b6001900381819060005260206000200160009055905550505050565b60006124cc83610ed7565b905081600660008573ffffffffffffffffffffffffffffffffffffffff1673ffffffffffffffffffffffffffffffffffffffff168152602001908152602001600020600083815260200190815260200160002081905550806007600084815260200190815260200160002081905550505050565b600073ffffffffffffffffffffffffffffffffffffffff168273ffffffffffffffffffffffffffffffffffffffff1614156125b0576040517f08c379a00000000000000000000000000000000000000000000000000000000081526004016125a79061322a565b60405180910390fd5b6125b981611650565b156125f9576040517f08c379a00000000000000000000000000000000000000000000000000000000081526004016125f09061314a565b60405180910390fd5b61260560008383611f2a565b6001600360008473ffffffffffffffffffffffffffffffffffffffff1673ffffffffffffffffffffffffffffffffffffffff1681526020019081526020016000206000828254612655919061342f565b92505081905550816002600083815260200190815260200160002060006101000a81548173ffffffffffffffffffffffffffffffffffffffff021916908373ffffffffffffffffffffffffffffffffffffffff160217905550808273ffffffffffffffffffffffffffffffffffffffff16600073ffffffffffffffffffffffffffffffffffffffff167fddf252ad1be2c89b69c2b068fc378daa952ba7f163c4a11628f55a4df523b3ef60405160405180910390a46127166000838361203e565b5050565b6000808273ffffffffffffffffffffffffffffffffffffffff163b119050919050565b828054612749906135a0565b90600052602060002090601f01602090048101928261276b57600085556127b2565b82601f1061278457805160ff19168380011785556127b2565b828001600101855582156127b2579182015b828111156127b1578251825591602001919060010190612796565b5b5090506127bf91906127c3565b5090565b5b808211156127dc5760008160009055506001016127c4565b5090565b60006127f36127ee8461338a565b613365565b90508281526020810184848401111561280f5761280e61379c565b5b61281a84828561355e565b509392505050565b6000612835612830846133bb565b613365565b9050828152602081018484840111156128515761285061379c565b5b61285c84828561355e565b509392505050565b60008135905061287381613cb5565b92915050565b60008135905061288881613ccc565b92915050565b60008135905061289d81613ce3565b92915050565b6000815190506128b281613ce3565b92915050565b600082601f8301126128cd576128cc613797565b5b81356128dd8482602086016127e0565b91505092915050565b600082601f8301126128fb576128fa613797565b5b813561290b848260208601612822565b91505092915050565b60008135905061292381613cfa565b92915050565b60006020828403121561293f5761293e6137a6565b5b600061294d84828501612864565b91505092915050565b6000806040838503121561296d5761296c6137a6565b5b600061297b85828601612864565b925050602061298c85828601612864565b9150509250929050565b6000806000606084860312156129af576129ae6137a6565b5b60006129bd86828701612864565b93505060206129ce86828701612864565b92505060406129df86828701612914565b9150509250925092565b60008060008060808587031215612a0357612a026137a6565b5b6000612a1187828801612864565b9450506020612a2287828801612864565b9350506040612a3387828801612914565b925050606085013567ffffffffffffffff811115612a5457612a536137a1565b5b612a60878288016128b8565b91505092959194509250565b60008060408385031215612a8357612a826137a6565b5b6000612a9185828601612864565b9250506020612aa285828601612879565b9150509250929050565b60008060408385031215612ac357612ac26137a6565b5b6000612ad185828601612864565b9250506020612ae285828601612914565b9150509250929050565b600060208284031215612b0257612b016137a6565b5b6000612b108482850161288e565b91505092915050565b600060208284031215612b2f57612b2e6137a6565b5b6000612b3d848285016128a3565b91505092915050565b600080600060608486031215612b5f57612b5e6137a6565b5b600084013567ffffffffffffffff811115612b7d57612b7c6137a1565b5b612b89868287016128e6565b9350506020612b9a86828701612879565b9250506040612bab86828701612864565b9150509250925092565b60008060008060808587031215612bcf57612bce6137a6565b5b600085013567ffffffffffffffff811115612bed57612bec6137a1565b5b612bf9878288016128e6565b945050602085013567ffffffffffffffff811115612c1a57612c196137a1565b5b612c26878288016128e6565b935050604085013567ffffffffffffffff811115612c4757612c466137a1565b5b612c53878288016128e6565b925050606085013567ffffffffffffffff811115612c7457612c736137a1565b5b612c80878288016128e6565b91505092959194509250565b600060208284031215612ca257612ca16137a6565b5b6000612cb084828501612914565b91505092915050565b612cc2816134ea565b82525050565b612cd1816134fc565b82525050565b6000612ce2826133ec565b612cec8185613402565b9350612cfc81856020860161356d565b612d05816137ab565b840191505092915050565b6000612d1b826133f7565b612d258185613413565b9350612d3581856020860161356d565b612d3e816137ab565b840191505092915050565b6000612d54826133f7565b612d5e8185613424565b9350612d6e81856020860161356d565b80840191505092915050565b6000612d87602b83613413565b9150612d92826137bc565b604082019050919050565b6000612daa603283613413565b9150612db58261380b565b604082019050919050565b6000612dcd602583613413565b9150612dd88261385a565b604082019050919050565b6000612df0601c83613413565b9150612dfb826138a9565b602082019050919050565b6000612e13602483613413565b9150612e1e826138d2565b604082019050919050565b6000612e36601983613413565b9150612e4182613921565b602082019050919050565b6000612e59602c83613413565b9150612e648261394a565b604082019050919050565b6000612e7c603883613413565b9150612e8782613999565b604082019050919050565b6000612e9f602a83613413565b9150612eaa826139e8565b604082019050919050565b6000612ec2602983613413565b9150612ecd82613a37565b604082019050919050565b6000612ee5602083613413565b9150612ef082613a86565b602082019050919050565b6000612f08602c83613413565b9150612f1382613aaf565b604082019050919050565b6000612f2b601583613413565b9150612f3682613afe565b602082019050919050565b6000612f4e602f83613413565b9150612f5982613b27565b604082019050919050565b6000612f71602183613413565b9150612f7c82613b76565b604082019050919050565b6000612f94601983613413565b9150612f9f82613bc5565b602082019050919050565b6000612fb7603183613413565b9150612fc282613bee565b604082019050919050565b6000612fda602c83613413565b9150612fe582613c3d565b604082019050919050565b6000612ffd601c83613413565b915061300882613c8c565b602082019050919050565b61301c81613554565b82525050565b600061302e8285612d49565b915061303a8284612d49565b91508190509392505050565b600060208201905061305b6000830184612cb9565b92915050565b60006080820190506130766000830187612cb9565b6130836020830186612cb9565b6130906040830185613013565b81810360608301526130a28184612cd7565b905095945050505050565b60006020820190506130c26000830184612cc8565b92915050565b600060208201905081810360008301526130e28184612d10565b905092915050565b6000602082019050818103600083015261310381612d7a565b9050919050565b6000602082019050818103600083015261312381612d9d565b9050919050565b6000602082019050818103600083015261314381612dc0565b9050919050565b6000602082019050818103600083015261316381612de3565b9050919050565b6000602082019050818103600083015261318381612e06565b9050919050565b600060208201905081810360008301526131a381612e29565b9050919050565b600060208201905081810360008301526131c381612e4c565b9050919050565b600060208201905081810360008301526131e381612e6f565b9050919050565b6000602082019050818103600083015261320381612e92565b9050919050565b6000602082019050818103600083015261322381612eb5565b9050919050565b6000602082019050818103600083015261324381612ed8565b9050919050565b6000602082019050818103600083015261326381612efb565b9050919050565b6000602082019050818103600083015261328381612f1e565b9050919050565b600060208201905081810360008301526132a381612f41565b9050919050565b600060208201905081810360008301526132c381612f64565b9050919050565b600060208201905081810360008301526132e381612f87565b9050919050565b6000602082019050818103600083015261330381612faa565b9050919050565b6000602082019050818103600083015261332381612fcd565b9050919050565b6000602082019050818103600083015261334381612ff0565b9050919050565b600060208201905061335f6000830184613013565b92915050565b600061336f613380565b905061337b82826135d2565b919050565b6000604051905090565b600067ffffffffffffffff8211156133a5576133a4613768565b5b6133ae826137ab565b9050602081019050919050565b600067ffffffffffffffff8211156133d6576133d5613768565b5b6133df826137ab565b9050602081019050919050565b600081519050919050565b600081519050919050565b600082825260208201905092915050565b600082825260208201905092915050565b600081905092915050565b600061343a82613554565b915061344583613554565b9250827fffffffffffffffffffffffffffffffffffffffffffffffffffffffffffffffff0382111561347a5761347961367d565b5b828201905092915050565b600061349082613554565b915061349b83613554565b9250826134ab576134aa6136ac565b5b828204905092915050565b60006134c182613554565b91506134cc83613554565b9250828210156134df576134de61367d565b5b828203905092915050565b60006134f582613534565b9050919050565b60008115159050919050565b60007fffffffff0000000000000000000000000000000000000000000000000000000082169050919050565b600073ffffffffffffffffffffffffffffffffffffffff82169050919050565b6000819050919050565b82818337600083830152505050565b60005b8381101561358b578082015181840152602081019050613570565b8381111561359a576000848401525b50505050565b600060028204905060018216806135b857607f821691505b602082108114156135cc576135cb6136db565b5b50919050565b6135db826137ab565b810181811067ffffffffffffffff821117156135fa576135f9613768565b5b80604052505050565b600061360e82613554565b91507fffffffffffffffffffffffffffffffffffffffffffffffffffffffffffffffff8214156136415761364061367d565b5b600182019050919050565b600061365782613554565b915061366283613554565b925082613672576136716136ac565b5b828206905092915050565b7f4e487b7100000000000000000000000000000000000000000000000000000000600052601160045260246000fd5b7f4e487b7100000000000000000000000000000000000000000000000000000000600052601260045260246000fd5b7f4e487b7100000000000000000000000000000000000000000000000000000000600052602260045260246000fd5b7f4e487b7100000000000000000000000000000000000000000000000000000000600052603160045260246000fd5b7f4e487b7100000000000000000000000000000000000000000000000000000000600052603260045260246000fd5b7f4e487b7100000000000000000000000000000000000000000000000000000000600052604160045260246000fd5b600080fd5b600080fd5b600080fd5b600080fd5b6000601f19601f8301169050919050565b7f455243373231456e756d657261626c653a206f776e657220696e646578206f7560008201527f74206f6620626f756e6473000000000000000000000000000000000000000000602082015250565b7f4552433732313a207472616e7366657220746f206e6f6e20455243373231526560008201527f63656976657220696d706c656d656e7465720000000000000000000000000000602082015250565b7f4552433732313a207472616e736665722066726f6d20696e636f72726563742060008201527f6f776e6572000000000000000000000000000000000000000000000000000000602082015250565b7f4552433732313a20746f6b656e20616c7265616479206d696e74656400000000600082015250565b7f4552433732313a207472616e7366657220746f20746865207a65726f2061646460008201527f7265737300000000000000000000000000000000000000000000000000000000602082015250565b7f4552433732313a20617070726f766520746f2063616c6c657200000000000000600082015250565b7f4552433732313a206f70657261746f7220717565727920666f72206e6f6e657860008201527f697374656e7420746f6b656e0000000000000000000000000000000000000000602082015250565b7f4552433732313a20617070726f76652063616c6c6572206973206e6f74206f7760008201527f6e6572206e6f7220617070726f76656420666f7220616c6c0000000000000000602082015250565b7f4552433732313a2062616c616e636520717565727920666f7220746865207a6560008201527f726f206164647265737300000000000000000000000000000000000000000000602082015250565b7f4552433732313a206f776e657220717565727920666f72206e6f6e657869737460008201527f656e7420746f6b656e0000000000000000000000000000000000000000000000602082015250565b7f4552433732313a206d696e7420746f20746865207a65726f2061646472657373600082015250565b7f4552433732313a20617070726f76656420717565727920666f72206e6f6e657860008201527f697374656e7420746f6b656e0000000000000000000000000000000000000000602082015250565b7f4d696e74696e67206861732066696e69736865642e0000000000000000000000600082015250565b7f4552433732314d657461646174613a2055524920717565727920666f72206e6f60008201527f6e6578697374656e7420746f6b656e0000000000000000000000000000000000602082015250565b7f4552433732313a20617070726f76616c20746f2063757272656e74206f776e6560008201527f7200000000000000000000000000000000000000000000000000000000000000602082015250565b7f496e76616c6964206d696e742076616c756520676976656e2e00000000000000600082015250565b7f4552433732313a207472616e736665722063616c6c6572206973206e6f74206f60008201527f776e6572206e6f7220617070726f766564000000000000000000000000000000602082015250565b7f455243373231456e756d657261626c653a20676c6f62616c20696e646578206f60008201527f7574206f6620626f756e64730000000000000000000000000000000000000000602082015250565b7f496e76616c6964206469737472696275746f7220616464726573732e00000000600082015250565b613cbe816134ea565b8114613cc957600080fd5b50565b613cd5816134fc565b8114613ce057600080fd5b50565b613cec81613508565b8114613cf757600080fd5b50565b613d0381613554565b8114613d0e57600080fd5b5056fea264697066735822122082d67603da4a4ddb9a1d38e1ee4ab6bfa449f2f9f12ae4f5d421e253822c500364736f6c63430008050033",
  "immutableReferences": {},
  "source": "// SPDX-License-Identifier: BUSL-1.1\npragma solidity ^0.8.2;\n\nimport \"@openzeppelin/contracts/token/ERC721/extensions/ERC721Enumerable.sol\";\n\nimport \"@openzeppelin/contracts/access/Ownable.sol\";\n\nimport \"@openzeppelin/contracts/utils/Counters.sol\";\n\nimport \"./NFTProtocol.sol\";\n\ncontract BadSingleNFT is ERC721Enumerable{\n\n    using Counters for Counters.Counter;\n\n    // Distributor.\n    address public distributor;\n\n    // URI Variables.\n    string public baseURI;\n\n    string public image;\n\n    string public audio;\n\n    string public video;\n\n    string public model;\n\n    // NFT creation variables.\n    uint public maxSupply;\n\n    uint public mintValue;\n\n    Counters.Counter private tokenIds;\n\n    modifier onlyDistributor(){\n        require(distributor == msg.sender, \"Invalid distributor address.\");\n        _;\n    }\n\n    constructor(string memory _name, string memory _symbol, uint _supply, uint _mintValue)payable ERC721(_name, _symbol){\n        distributor = msg.sender;\n        maxSupply = _supply;\n        mintValue = _mintValue;\n    }\n\n    function _baseURI() internal override view returns (string memory){\n         return baseURI;\n    }\n\n    // Bad function setting distributor post construtor\n    function setDistributor(address _distributor) public onlyDistributor{\n        distributor = _distributor;\n    }\n\n    // Bad function allows for changing baseURI.\n    function setBaseURI(string memory _uri, bool _ratioProtocol, address _protocolAddress)public  payable onlyDistributor{\n        baseURI = _uri;\n        if(_ratioProtocol){\n            NFTProtocol(_protocolAddress).requestVerification{value: msg.value}();\n        }\n    }\n\n    function setSubURIs(string memory _image, string memory _audio, string memory _video, string memory _model) public onlyDistributor{\n        image = _image;\n        audio = _audio;\n        video = _video;\n        model = _model;\n    }\n\n    function mint(address _receiver) public payable returns(uint _id){\n        require(msg.value >= mintValue, \"Invalid mint value given.\");\n        require(tokenIds.current() < maxSupply, \"Minting has finished.\");\n        tokenIds.increment();\n        _id = tokenIds.current();\n        _safeMint(_receiver, _id);\n    }\n\n}",
  "sourcePath": "/home/stephenstb/Ratio/ratio/contracts/NFTProtocol/BadSingleNFT.sol",
  "compiler": {
    "name": "solc",
    "version": "0.8.5+commit.a4f2e591.Emscripten.clang"
  },
  "schemaVersion": "3.3.3",
  "updatedAt": "2022-05-06T21:20:38.555Z",
  "devdoc": {
    "kind": "dev",
    "methods": {
      "approve(address,uint256)": {
        "details": "See {IERC721-approve}."
      },
      "balanceOf(address)": {
        "details": "See {IERC721-balanceOf}."
      },
      "getApproved(uint256)": {
        "details": "See {IERC721-getApproved}."
      },
      "isApprovedForAll(address,address)": {
        "details": "See {IERC721-isApprovedForAll}."
      },
      "name()": {
        "details": "See {IERC721Metadata-name}."
      },
      "ownerOf(uint256)": {
        "details": "See {IERC721-ownerOf}."
      },
      "safeTransferFrom(address,address,uint256)": {
        "details": "See {IERC721-safeTransferFrom}."
      },
      "safeTransferFrom(address,address,uint256,bytes)": {
        "details": "See {IERC721-safeTransferFrom}."
      },
      "setApprovalForAll(address,bool)": {
        "details": "See {IERC721-setApprovalForAll}."
      },
      "supportsInterface(bytes4)": {
        "details": "See {IERC165-supportsInterface}."
      },
      "symbol()": {
        "details": "See {IERC721Metadata-symbol}."
      },
      "tokenByIndex(uint256)": {
        "details": "See {IERC721Enumerable-tokenByIndex}."
      },
      "tokenOfOwnerByIndex(address,uint256)": {
        "details": "See {IERC721Enumerable-tokenOfOwnerByIndex}."
      },
      "tokenURI(uint256)": {
        "details": "See {IERC721Metadata-tokenURI}."
      },
      "totalSupply()": {
        "details": "See {IERC721Enumerable-totalSupply}."
      },
      "transferFrom(address,address,uint256)": {
        "details": "See {IERC721-transferFrom}."
      }
    },
    "version": 1
  },
  "userdoc": {
    "kind": "user",
    "methods": {},
    "version": 1
  }
}