{
  "contractName": "BlockMiner",
  "abi": [
    {
      "inputs": [],
      "stateMutability": "nonpayable",
      "type": "constructor"
    },
    {
      "inputs": [],
      "name": "mine",
      "outputs": [],
      "stateMutability": "nonpayable",
      "type": "function"
    }
  ],
  "bytecode": "0x608060405234801561001057600080fd5b506000808190555060ff806100266000396000f3fe6080604052348015600f57600080fd5b506004361060285760003560e01c806399f4b25114602d575b600080fd5b60336035565b005b6000808154809291906045906056565b9190505550565b6000819050919050565b6000605f82604c565b91507fffffffffffffffffffffffffffffffffffffffffffffffffffffffffffffffff821415608f57608e609a565b5b600182019050919050565b7f4e487b7100000000000000000000000000000000000000000000000000000000600052601160045260246000fdfea2646970667358221220b619d32de8bbada79dd02dd88c1663b468b151bdfe31f5a7f2859b075ed32d9c64736f6c63430008050033",
  "immutableReferences": {},
  "source": "pragma solidity ^0.8.2;\r\n\r\ncontract BlockMiner{\r\n\r\n    uint mined;\r\n    constructor(){\r\n        mined = 0;\r\n    }\r\n\r\n    function mine() public {\r\n        mined++;\r\n    }\r\n}",
  "sourcePath": "/home/stephenstb/Ratio-Labs/ratio-labs/contracts/old_contracts/BlockMiner.sol",
  "compiler": {
    "name": "solc",
    "version": "0.8.5+commit.a4f2e591.Emscripten.clang"
  },
  "schemaVersion": "3.3.3",
  "updatedAt": "2022-06-23T01:08:52.420Z",
  "devdoc": {
    "kind": "dev",
    "methods": {},
    "version": 1
  },
  "userdoc": {
    "kind": "user",
    "methods": {},
    "version": 1
  }
}