{
  "contractName": "BNBCard",
  "abi": [
    {
      "inputs": [
        {
          "internalType": "address",
          "name": "_wbnb",
          "type": "address"
        }
      ],
      "stateMutability": "nonpayable",
      "type": "constructor"
    },
    {
      "anonymous": false,
      "inputs": [
        {
          "indexed": true,
          "internalType": "address",
          "name": "owner",
          "type": "address"
        },
        {
          "indexed": true,
          "internalType": "address",
          "name": "approved",
          "type": "address"
        },
        {
          "indexed": true,
          "internalType": "uint256",
          "name": "tokenId",
          "type": "uint256"
        }
      ],
      "name": "Approval",
      "type": "event"
    },
    {
      "anonymous": false,
      "inputs": [
        {
          "indexed": true,
          "internalType": "address",
          "name": "owner",
          "type": "address"
        },
        {
          "indexed": true,
          "internalType": "address",
          "name": "operator",
          "type": "address"
        },
        {
          "indexed": false,
          "internalType": "bool",
          "name": "approved",
          "type": "bool"
        }
      ],
      "name": "ApprovalForAll",
      "type": "event"
    },
    {
      "anonymous": false,
      "inputs": [
        {
          "indexed": true,
          "internalType": "address",
          "name": "previousOwner",
          "type": "address"
        },
        {
          "indexed": true,
          "internalType": "address",
          "name": "newOwner",
          "type": "address"
        }
      ],
      "name": "OwnershipTransferred",
      "type": "event"
    },
    {
      "anonymous": false,
      "inputs": [
        {
          "indexed": true,
          "internalType": "address",
          "name": "from",
          "type": "address"
        },
        {
          "indexed": true,
          "internalType": "address",
          "name": "to",
          "type": "address"
        },
        {
          "indexed": true,
          "internalType": "uint256",
          "name": "tokenId",
          "type": "uint256"
        }
      ],
      "name": "Transfer",
      "type": "event"
    },
    {
      "inputs": [
        {
          "internalType": "address",
          "name": "to",
          "type": "address"
        },
        {
          "internalType": "uint256",
          "name": "tokenId",
          "type": "uint256"
        }
      ],
      "name": "approve",
      "outputs": [],
      "stateMutability": "nonpayable",
      "type": "function"
    },
    {
      "inputs": [
        {
          "internalType": "address",
          "name": "owner",
          "type": "address"
        }
      ],
      "name": "balanceOf",
      "outputs": [
        {
          "internalType": "uint256",
          "name": "",
          "type": "uint256"
        }
      ],
      "stateMutability": "view",
      "type": "function"
    },
    {
      "inputs": [
        {
          "internalType": "uint256",
          "name": "tokenId",
          "type": "uint256"
        }
      ],
      "name": "getApproved",
      "outputs": [
        {
          "internalType": "address",
          "name": "",
          "type": "address"
        }
      ],
      "stateMutability": "view",
      "type": "function"
    },
    {
      "inputs": [
        {
          "internalType": "address",
          "name": "owner",
          "type": "address"
        },
        {
          "internalType": "address",
          "name": "operator",
          "type": "address"
        }
      ],
      "name": "isApprovedForAll",
      "outputs": [
        {
          "internalType": "bool",
          "name": "",
          "type": "bool"
        }
      ],
      "stateMutability": "view",
      "type": "function"
    },
    {
      "inputs": [],
      "name": "name",
      "outputs": [
        {
          "internalType": "string",
          "name": "",
          "type": "string"
        }
      ],
      "stateMutability": "view",
      "type": "function"
    },
    {
      "inputs": [],
      "name": "owner",
      "outputs": [
        {
          "internalType": "address",
          "name": "",
          "type": "address"
        }
      ],
      "stateMutability": "view",
      "type": "function"
    },
    {
      "inputs": [
        {
          "internalType": "uint256",
          "name": "tokenId",
          "type": "uint256"
        }
      ],
      "name": "ownerOf",
      "outputs": [
        {
          "internalType": "address",
          "name": "",
          "type": "address"
        }
      ],
      "stateMutability": "view",
      "type": "function"
    },
    {
      "inputs": [],
      "name": "renounceOwnership",
      "outputs": [],
      "stateMutability": "nonpayable",
      "type": "function"
    },
    {
      "inputs": [
        {
          "internalType": "address",
          "name": "from",
          "type": "address"
        },
        {
          "internalType": "address",
          "name": "to",
          "type": "address"
        },
        {
          "internalType": "uint256",
          "name": "tokenId",
          "type": "uint256"
        }
      ],
      "name": "safeTransferFrom",
      "outputs": [],
      "stateMutability": "nonpayable",
      "type": "function"
    },
    {
      "inputs": [
        {
          "internalType": "address",
          "name": "from",
          "type": "address"
        },
        {
          "internalType": "address",
          "name": "to",
          "type": "address"
        },
        {
          "internalType": "uint256",
          "name": "tokenId",
          "type": "uint256"
        },
        {
          "internalType": "bytes",
          "name": "_data",
          "type": "bytes"
        }
      ],
      "name": "safeTransferFrom",
      "outputs": [],
      "stateMutability": "nonpayable",
      "type": "function"
    },
    {
      "inputs": [
        {
          "internalType": "address",
          "name": "operator",
          "type": "address"
        },
        {
          "internalType": "bool",
          "name": "approved",
          "type": "bool"
        }
      ],
      "name": "setApprovalForAll",
      "outputs": [],
      "stateMutability": "nonpayable",
      "type": "function"
    },
    {
      "inputs": [],
      "name": "symbol",
      "outputs": [
        {
          "internalType": "string",
          "name": "",
          "type": "string"
        }
      ],
      "stateMutability": "view",
      "type": "function"
    },
    {
      "inputs": [
        {
          "internalType": "uint256",
          "name": "index",
          "type": "uint256"
        }
      ],
      "name": "tokenByIndex",
      "outputs": [
        {
          "internalType": "uint256",
          "name": "",
          "type": "uint256"
        }
      ],
      "stateMutability": "view",
      "type": "function"
    },
    {
      "inputs": [
        {
          "internalType": "address",
          "name": "owner",
          "type": "address"
        },
        {
          "internalType": "uint256",
          "name": "index",
          "type": "uint256"
        }
      ],
      "name": "tokenOfOwnerByIndex",
      "outputs": [
        {
          "internalType": "uint256",
          "name": "",
          "type": "uint256"
        }
      ],
      "stateMutability": "view",
      "type": "function"
    },
    {
      "inputs": [],
      "name": "totalSupply",
      "outputs": [
        {
          "internalType": "uint256",
          "name": "",
          "type": "uint256"
        }
      ],
      "stateMutability": "view",
      "type": "function"
    },
    {
      "inputs": [
        {
          "internalType": "address",
          "name": "from",
          "type": "address"
        },
        {
          "internalType": "address",
          "name": "to",
          "type": "address"
        },
        {
          "internalType": "uint256",
          "name": "tokenId",
          "type": "uint256"
        }
      ],
      "name": "transferFrom",
      "outputs": [],
      "stateMutability": "nonpayable",
      "type": "function"
    },
    {
      "inputs": [
        {
          "internalType": "address",
          "name": "newOwner",
          "type": "address"
        }
      ],
      "name": "transferOwnership",
      "outputs": [],
      "stateMutability": "nonpayable",
      "type": "function"
    },
    {
      "inputs": [
        {
          "internalType": "address",
          "name": "_receiver",
          "type": "address"
        }
      ],
      "name": "mint",
      "outputs": [
        {
          "internalType": "uint256",
          "name": "_id",
          "type": "uint256"
        }
      ],
      "stateMutability": "payable",
      "type": "function"
    },
    {
      "inputs": [
        {
          "internalType": "uint256",
          "name": "_tokenId",
          "type": "uint256"
        }
      ],
      "name": "burn",
      "outputs": [],
      "stateMutability": "nonpayable",
      "type": "function"
    },
    {
      "inputs": [
        {
          "internalType": "bytes4",
          "name": "interfaceId",
          "type": "bytes4"
        }
      ],
      "name": "supportsInterface",
      "outputs": [
        {
          "internalType": "bool",
          "name": "",
          "type": "bool"
        }
      ],
      "stateMutability": "view",
      "type": "function"
    },
    {
      "inputs": [
        {
          "internalType": "uint256",
          "name": "tokenId",
          "type": "uint256"
        }
      ],
      "name": "tokenURI",
      "outputs": [
        {
          "internalType": "string",
          "name": "",
          "type": "string"
        }
      ],
      "stateMutability": "view",
      "type": "function"
    }
  ],
  "bytecode": "0x60806040523480156200001157600080fd5b5060405162003d0c38038062003d0c8339818101604052810190620000379190620002d4565b6040518060400160405280600781526020017f424e4243617264000000000000000000000000000000000000000000000000008152506040518060400160405280600281526020017f42430000000000000000000000000000000000000000000000000000000000008152508160009080519060200190620000bb9291906200020d565b508060019080519060200190620000d49291906200020d565b505050620000f7620000eb6200013f60201b60201c565b6200014760201b60201c565b80600c60006101000a81548173ffffffffffffffffffffffffffffffffffffffff021916908373ffffffffffffffffffffffffffffffffffffffff16021790555050620003be565b600033905090565b6000600b60009054906101000a900473ffffffffffffffffffffffffffffffffffffffff16905081600b60006101000a81548173ffffffffffffffffffffffffffffffffffffffff021916908373ffffffffffffffffffffffffffffffffffffffff1602179055508173ffffffffffffffffffffffffffffffffffffffff168173ffffffffffffffffffffffffffffffffffffffff167f8be0079c531659141344cd1fd0a4f28419497f9722a3daafe3b4186f6b6457e060405160405180910390a35050565b8280546200021b906200033a565b90600052602060002090601f0160209004810192826200023f57600085556200028b565b82601f106200025a57805160ff19168380011785556200028b565b828001600101855582156200028b579182015b828111156200028a5782518255916020019190600101906200026d565b5b5090506200029a91906200029e565b5090565b5b80821115620002b95760008160009055506001016200029f565b5090565b600081519050620002ce81620003a4565b92915050565b600060208284031215620002ed57620002ec6200039f565b5b6000620002fd84828501620002bd565b91505092915050565b600062000313826200031a565b9050919050565b600073ffffffffffffffffffffffffffffffffffffffff82169050919050565b600060028204905060018216806200035357607f821691505b602082108114156200036a576200036962000370565b5b50919050565b7f4e487b7100000000000000000000000000000000000000000000000000000000600052602260045260246000fd5b600080fd5b620003af8162000306565b8114620003bb57600080fd5b50565b61393e80620003ce6000396000f3fe60806040526004361061012a5760003560e01c80636352211e116100ab57806395d89b411161006f57806395d89b4114610409578063a22cb46514610434578063b88d4fde1461045d578063c87b56dd14610486578063e985e9c5146104c3578063f2fde38b146105005761012a565b80636352211e1461031d5780636a6278421461035a57806370a082311461038a578063715018a6146103c75780638da5cb5b146103de5761012a565b806323b872dd116100f257806323b872dd146102285780632f745c591461025157806342842e0e1461028e57806342966c68146102b75780634f6ccce7146102e05761012a565b806301ffc9a71461012f57806306fdde031461016c578063081812fc14610197578063095ea7b3146101d457806318160ddd146101fd575b600080fd5b34801561013b57600080fd5b506101566004803603810190610151919061280e565b610529565b6040516101639190612c89565b60405180910390f35b34801561017857600080fd5b5061018161053b565b60405161018e9190612ca4565b60405180910390f35b3480156101a357600080fd5b506101be60048036038101906101b99190612868565b6105cd565b6040516101cb9190612c22565b60405180910390f35b3480156101e057600080fd5b506101fb60048036038101906101f691906127ce565b610652565b005b34801561020957600080fd5b5061021261076a565b60405161021f9190612f26565b60405180910390f35b34801561023457600080fd5b5061024f600480360381019061024a91906126b8565b610777565b005b34801561025d57600080fd5b50610278600480360381019061027391906127ce565b6107d7565b6040516102859190612f26565b60405180910390f35b34801561029a57600080fd5b506102b560048036038101906102b091906126b8565b61087c565b005b3480156102c357600080fd5b506102de60048036038101906102d99190612868565b61089c565b005b3480156102ec57600080fd5b5061030760048036038101906103029190612868565b610924565b6040516103149190612f26565b60405180910390f35b34801561032957600080fd5b50610344600480360381019061033f9190612868565b610995565b6040516103519190612c22565b60405180910390f35b610374600480360381019061036f919061264b565b610a47565b6040516103819190612f26565b60405180910390f35b34801561039657600080fd5b506103b160048036038101906103ac919061264b565b610aea565b6040516103be9190612f26565b60405180910390f35b3480156103d357600080fd5b506103dc610ba2565b005b3480156103ea57600080fd5b506103f3610c2a565b6040516104009190612c22565b60405180910390f35b34801561041557600080fd5b5061041e610c54565b60405161042b9190612ca4565b60405180910390f35b34801561044057600080fd5b5061045b6004803603810190610456919061278e565b610ce6565b005b34801561046957600080fd5b50610484600480360381019061047f919061270b565b610cfc565b005b34801561049257600080fd5b506104ad60048036038101906104a89190612868565b610d5e565b6040516104ba9190612ca4565b60405180910390f35b3480156104cf57600080fd5b506104ea60048036038101906104e59190612678565b610d70565b6040516104f79190612c89565b60405180910390f35b34801561050c57600080fd5b506105276004803603810190610522919061264b565b610e04565b005b600061053482610efc565b9050919050565b60606000805461054a9061314b565b80601f01602080910402602001604051908101604052809291908181526020018280546105769061314b565b80156105c35780601f10610598576101008083540402835291602001916105c3565b820191906000526020600020905b8154815290600101906020018083116105a657829003601f168201915b5050505050905090565b60006105d882610f76565b610617576040517f08c379a000000000000000000000000000000000000000000000000000000000815260040161060e90612e66565b60405180910390fd5b6004600083815260200190815260200160002060009054906101000a900473ffffffffffffffffffffffffffffffffffffffff169050919050565b600061065d82610995565b90508073ffffffffffffffffffffffffffffffffffffffff168373ffffffffffffffffffffffffffffffffffffffff1614156106ce576040517f08c379a00000000000000000000000000000000000000000000000000000000081526004016106c590612ec6565b60405180910390fd5b8073ffffffffffffffffffffffffffffffffffffffff166106ed610fe2565b73ffffffffffffffffffffffffffffffffffffffff16148061071c575061071b81610716610fe2565b610d70565b5b61075b576040517f08c379a000000000000000000000000000000000000000000000000000000000815260040161075290612dc6565b60405180910390fd5b6107658383610fea565b505050565b6000600980549050905090565b610788610782610fe2565b826110a3565b6107c7576040517f08c379a00000000000000000000000000000000000000000000000000000000081526004016107be90612ee6565b60405180910390fd5b6107d2838383611181565b505050565b60006107e283610aea565b8210610823576040517f08c379a000000000000000000000000000000000000000000000000000000000815260040161081a90612cc6565b60405180910390fd5b600760008473ffffffffffffffffffffffffffffffffffffffff1673ffffffffffffffffffffffffffffffffffffffff168152602001908152602001600020600083815260200190815260200160002054905092915050565b61089783838360405180602001604052806000815250610cfc565b505050565b6108a4610fe2565b73ffffffffffffffffffffffffffffffffffffffff166108c2610c2a565b73ffffffffffffffffffffffffffffffffffffffff1614610918576040517f08c379a000000000000000000000000000000000000000000000000000000000815260040161090f90612e86565b60405180910390fd5b610921816113e8565b50565b600061092e61076a565b821061096f576040517f08c379a000000000000000000000000000000000000000000000000000000000815260040161096690612f06565b60405180910390fd5b60098281548110610983576109826132e4565b5b90600052602060002001549050919050565b6000806002600084815260200190815260200160002060009054906101000a900473ffffffffffffffffffffffffffffffffffffffff169050600073ffffffffffffffffffffffffffffffffffffffff168173ffffffffffffffffffffffffffffffffffffffff161415610a3e576040517f08c379a0000000000000000000000000000000000000000000000000000000008152600401610a3590612e06565b60405180910390fd5b80915050919050565b6000610a51610fe2565b73ffffffffffffffffffffffffffffffffffffffff16610a6f610c2a565b73ffffffffffffffffffffffffffffffffffffffff1614610ac5576040517f08c379a0000000000000000000000000000000000000000000000000000000008152600401610abc90612e86565b60405180910390fd5b610acf600d6113f4565b610ad9600d61140a565b9050610ae58282611418565b919050565b60008073ffffffffffffffffffffffffffffffffffffffff168273ffffffffffffffffffffffffffffffffffffffff161415610b5b576040517f08c379a0000000000000000000000000000000000000000000000000000000008152600401610b5290612de6565b60405180910390fd5b600360008373ffffffffffffffffffffffffffffffffffffffff1673ffffffffffffffffffffffffffffffffffffffff168152602001908152602001600020549050919050565b610baa610fe2565b73ffffffffffffffffffffffffffffffffffffffff16610bc8610c2a565b73ffffffffffffffffffffffffffffffffffffffff1614610c1e576040517f08c379a0000000000000000000000000000000000000000000000000000000008152600401610c1590612e86565b60405180910390fd5b610c286000611436565b565b6000600b60009054906101000a900473ffffffffffffffffffffffffffffffffffffffff16905090565b606060018054610c639061314b565b80601f0160208091040260200160405190810160405280929190818152602001828054610c8f9061314b565b8015610cdc5780601f10610cb157610100808354040283529160200191610cdc565b820191906000526020600020905b815481529060010190602001808311610cbf57829003601f168201915b5050505050905090565b610cf8610cf1610fe2565b83836114fc565b5050565b610d0d610d07610fe2565b836110a3565b610d4c576040517f08c379a0000000000000000000000000000000000000000000000000000000008152600401610d4390612ee6565b60405180910390fd5b610d5884848484611669565b50505050565b6060610d69826116c5565b9050919050565b6000600560008473ffffffffffffffffffffffffffffffffffffffff1673ffffffffffffffffffffffffffffffffffffffff16815260200190815260200160002060008373ffffffffffffffffffffffffffffffffffffffff1673ffffffffffffffffffffffffffffffffffffffff16815260200190815260200160002060009054906101000a900460ff16905092915050565b610e0c610fe2565b73ffffffffffffffffffffffffffffffffffffffff16610e2a610c2a565b73ffffffffffffffffffffffffffffffffffffffff1614610e80576040517f08c379a0000000000000000000000000000000000000000000000000000000008152600401610e7790612e86565b60405180910390fd5b600073ffffffffffffffffffffffffffffffffffffffff168173ffffffffffffffffffffffffffffffffffffffff161415610ef0576040517f08c379a0000000000000000000000000000000000000000000000000000000008152600401610ee790612d06565b60405180910390fd5b610ef981611436565b50565b60007f780e9d63000000000000000000000000000000000000000000000000000000007bffffffffffffffffffffffffffffffffffffffffffffffffffffffff1916827bffffffffffffffffffffffffffffffffffffffffffffffffffffffff19161480610f6f5750610f6e82611817565b5b9050919050565b60008073ffffffffffffffffffffffffffffffffffffffff166002600084815260200190815260200160002060009054906101000a900473ffffffffffffffffffffffffffffffffffffffff1673ffffffffffffffffffffffffffffffffffffffff1614159050919050565b600033905090565b816004600083815260200190815260200160002060006101000a81548173ffffffffffffffffffffffffffffffffffffffff021916908373ffffffffffffffffffffffffffffffffffffffff160217905550808273ffffffffffffffffffffffffffffffffffffffff1661105d83610995565b73ffffffffffffffffffffffffffffffffffffffff167f8c5be1e5ebec7d5bd14f71427d1e84f3dd0314c0f7b2291e5b200ac8c7c3b92560405160405180910390a45050565b60006110ae82610f76565b6110ed576040517f08c379a00000000000000000000000000000000000000000000000000000000081526004016110e490612da6565b60405180910390fd5b60006110f883610995565b90508073ffffffffffffffffffffffffffffffffffffffff168473ffffffffffffffffffffffffffffffffffffffff16148061113a57506111398185610d70565b5b8061117857508373ffffffffffffffffffffffffffffffffffffffff16611160846105cd565b73ffffffffffffffffffffffffffffffffffffffff16145b91505092915050565b8273ffffffffffffffffffffffffffffffffffffffff166111a182610995565b73ffffffffffffffffffffffffffffffffffffffff16146111f7576040517f08c379a00000000000000000000000000000000000000000000000000000000081526004016111ee90612d26565b60405180910390fd5b600073ffffffffffffffffffffffffffffffffffffffff168273ffffffffffffffffffffffffffffffffffffffff161415611267576040517f08c379a000000000000000000000000000000000000000000000000000000000815260040161125e90612d66565b60405180910390fd5b6112728383836118f9565b61127d600082610fea565b6001600360008573ffffffffffffffffffffffffffffffffffffffff1673ffffffffffffffffffffffffffffffffffffffff16815260200190815260200160002060008282546112cd9190613061565b925050819055506001600360008473ffffffffffffffffffffffffffffffffffffffff1673ffffffffffffffffffffffffffffffffffffffff16815260200190815260200160002060008282546113249190612fda565b92505081905550816002600083815260200190815260200160002060006101000a81548173ffffffffffffffffffffffffffffffffffffffff021916908373ffffffffffffffffffffffffffffffffffffffff160217905550808273ffffffffffffffffffffffffffffffffffffffff168473ffffffffffffffffffffffffffffffffffffffff167fddf252ad1be2c89b69c2b068fc378daa952ba7f163c4a11628f55a4df523b3ef60405160405180910390a46113e3838383611909565b505050565b6113f18161190e565b50565b6001816000016000828254019250508190555050565b600081600001549050919050565b611432828260405180602001604052806000815250611961565b5050565b6000600b60009054906101000a900473ffffffffffffffffffffffffffffffffffffffff16905081600b60006101000a81548173ffffffffffffffffffffffffffffffffffffffff021916908373ffffffffffffffffffffffffffffffffffffffff1602179055508173ffffffffffffffffffffffffffffffffffffffff168173ffffffffffffffffffffffffffffffffffffffff167f8be0079c531659141344cd1fd0a4f28419497f9722a3daafe3b4186f6b6457e060405160405180910390a35050565b8173ffffffffffffffffffffffffffffffffffffffff168373ffffffffffffffffffffffffffffffffffffffff16141561156b576040517f08c379a000000000000000000000000000000000000000000000000000000000815260040161156290612d86565b60405180910390fd5b80600560008573ffffffffffffffffffffffffffffffffffffffff1673ffffffffffffffffffffffffffffffffffffffff16815260200190815260200160002060008473ffffffffffffffffffffffffffffffffffffffff1673ffffffffffffffffffffffffffffffffffffffff16815260200190815260200160002060006101000a81548160ff0219169083151502179055508173ffffffffffffffffffffffffffffffffffffffff168373ffffffffffffffffffffffffffffffffffffffff167f17307eab39ab6107e8899845ad3d59bd9653f200f220920489ca2b5937696c318360405161165c9190612c89565b60405180910390a3505050565b611674848484611181565b611680848484846119bc565b6116bf576040517f08c379a00000000000000000000000000000000000000000000000000000000081526004016116b690612ce6565b60405180910390fd5b50505050565b60606116d082610f76565b61170f576040517f08c379a000000000000000000000000000000000000000000000000000000000815260040161170690612e46565b60405180910390fd5b600060066000848152602001908152602001600020805461172f9061314b565b80601f016020809104026020016040519081016040528092919081815260200182805461175b9061314b565b80156117a85780601f1061177d576101008083540402835291602001916117a8565b820191906000526020600020905b81548152906001019060200180831161178b57829003601f168201915b5050505050905060006117b9611b53565b90506000815114156117cf578192505050611812565b6000825111156118045780826040516020016117ec929190612bfe565b60405160208183030381529060405292505050611812565b61180d84611b6a565b925050505b919050565b60007f80ac58cd000000000000000000000000000000000000000000000000000000007bffffffffffffffffffffffffffffffffffffffffffffffffffffffff1916827bffffffffffffffffffffffffffffffffffffffffffffffffffffffff191614806118e257507f5b5e139f000000000000000000000000000000000000000000000000000000007bffffffffffffffffffffffffffffffffffffffffffffffffffffffff1916827bffffffffffffffffffffffffffffffffffffffffffffffffffffffff1916145b806118f257506118f182611c11565b5b9050919050565b611904838383611c7b565b505050565b505050565b61191781611d8f565b60006006600083815260200190815260200160002080546119379061314b565b90501461195e5760066000828152602001908152602001600020600061195d9190612515565b5b50565b61196b8383611eac565b61197860008484846119bc565b6119b7576040517f08c379a00000000000000000000000000000000000000000000000000000000081526004016119ae90612ce6565b60405180910390fd5b505050565b60006119dd8473ffffffffffffffffffffffffffffffffffffffff16612086565b15611b46578373ffffffffffffffffffffffffffffffffffffffff1663150b7a02611a06610fe2565b8786866040518563ffffffff1660e01b8152600401611a289493929190612c3d565b602060405180830381600087803b158015611a4257600080fd5b505af1925050508015611a7357506040513d601f19601f82011682018060405250810190611a70919061283b565b60015b611af6573d8060008114611aa3576040519150601f19603f3d011682016040523d82523d6000602084013e611aa8565b606091505b50600081511415611aee576040517f08c379a0000000000000000000000000000000000000000000000000000000008152600401611ae590612ce6565b60405180910390fd5b805181602001fd5b63150b7a0260e01b7bffffffffffffffffffffffffffffffffffffffffffffffffffffffff1916817bffffffffffffffffffffffffffffffffffffffffffffffffffffffff191614915050611b4b565b600190505b949350505050565b606060405180602001604052806000815250905090565b6060611b7582610f76565b611bb4576040517f08c379a0000000000000000000000000000000000000000000000000000000008152600401611bab90612ea6565b60405180910390fd5b6000611bbe611b53565b90506000815111611bde5760405180602001604052806000815250611c09565b80611be8846120a9565b604051602001611bf9929190612bfe565b6040516020818303038152906040525b915050919050565b60007f01ffc9a7000000000000000000000000000000000000000000000000000000007bffffffffffffffffffffffffffffffffffffffffffffffffffffffff1916827bffffffffffffffffffffffffffffffffffffffffffffffffffffffff1916149050919050565b611c8683838361220a565b600073ffffffffffffffffffffffffffffffffffffffff168373ffffffffffffffffffffffffffffffffffffffff161415611cc957611cc48161220f565b611d08565b8173ffffffffffffffffffffffffffffffffffffffff168373ffffffffffffffffffffffffffffffffffffffff1614611d0757611d068382612258565b5b5b600073ffffffffffffffffffffffffffffffffffffffff168273ffffffffffffffffffffffffffffffffffffffff161415611d4b57611d46816123c5565b611d8a565b8273ffffffffffffffffffffffffffffffffffffffff168273ffffffffffffffffffffffffffffffffffffffff1614611d8957611d888282612496565b5b5b505050565b6000611d9a82610995565b9050611da8816000846118f9565b611db3600083610fea565b6001600360008373ffffffffffffffffffffffffffffffffffffffff1673ffffffffffffffffffffffffffffffffffffffff1681526020019081526020016000206000828254611e039190613061565b925050819055506002600083815260200190815260200160002060006101000a81549073ffffffffffffffffffffffffffffffffffffffff021916905581600073ffffffffffffffffffffffffffffffffffffffff168273ffffffffffffffffffffffffffffffffffffffff167fddf252ad1be2c89b69c2b068fc378daa952ba7f163c4a11628f55a4df523b3ef60405160405180910390a4611ea881600084611909565b5050565b600073ffffffffffffffffffffffffffffffffffffffff168273ffffffffffffffffffffffffffffffffffffffff161415611f1c576040517f08c379a0000000000000000000000000000000000000000000000000000000008152600401611f1390612e26565b60405180910390fd5b611f2581610f76565b15611f65576040517f08c379a0000000000000000000000000000000000000000000000000000000008152600401611f5c90612d46565b60405180910390fd5b611f71600083836118f9565b6001600360008473ffffffffffffffffffffffffffffffffffffffff1673ffffffffffffffffffffffffffffffffffffffff1681526020019081526020016000206000828254611fc19190612fda565b92505081905550816002600083815260200190815260200160002060006101000a81548173ffffffffffffffffffffffffffffffffffffffff021916908373ffffffffffffffffffffffffffffffffffffffff160217905550808273ffffffffffffffffffffffffffffffffffffffff16600073ffffffffffffffffffffffffffffffffffffffff167fddf252ad1be2c89b69c2b068fc378daa952ba7f163c4a11628f55a4df523b3ef60405160405180910390a461208260008383611909565b5050565b6000808273ffffffffffffffffffffffffffffffffffffffff163b119050919050565b606060008214156120f1576040518060400160405280600181526020017f30000000000000000000000000000000000000000000000000000000000000008152509050612205565b600082905060005b6000821461212357808061210c906131ae565b915050600a8261211c9190613030565b91506120f9565b60008167ffffffffffffffff81111561213f5761213e613313565b5b6040519080825280601f01601f1916602001820160405280156121715781602001600182028036833780820191505090505b5090505b600085146121fe5760018261218a9190613061565b9150600a8561219991906131f7565b60306121a59190612fda565b60f81b8183815181106121bb576121ba6132e4565b5b60200101907effffffffffffffffffffffffffffffffffffffffffffffffffffffffffffff1916908160001a905350600a856121f79190613030565b9450612175565b8093505050505b919050565b505050565b600980549050600a600083815260200190815260200160002081905550600981908060018154018082558091505060019003906000526020600020016000909190919091505550565b6000600161226584610aea565b61226f9190613061565b9050600060086000848152602001908152602001600020549050818114612354576000600760008673ffffffffffffffffffffffffffffffffffffffff1673ffffffffffffffffffffffffffffffffffffffff168152602001908152602001600020600084815260200190815260200160002054905080600760008773ffffffffffffffffffffffffffffffffffffffff1673ffffffffffffffffffffffffffffffffffffffff168152602001908152602001600020600084815260200190815260200160002081905550816008600083815260200190815260200160002081905550505b6008600084815260200190815260200160002060009055600760008573ffffffffffffffffffffffffffffffffffffffff1673ffffffffffffffffffffffffffffffffffffffff16815260200190815260200160002060008381526020019081526020016000206000905550505050565b600060016009805490506123d99190613061565b90506000600a6000848152602001908152602001600020549050600060098381548110612409576124086132e4565b5b90600052602060002001549050806009838154811061242b5761242a6132e4565b5b906000526020600020018190555081600a600083815260200190815260200160002081905550600a600085815260200190815260200160002060009055600980548061247a576124796132b5565b5b6001900381819060005260206000200160009055905550505050565b60006124a183610aea565b905081600760008573ffffffffffffffffffffffffffffffffffffffff1673ffffffffffffffffffffffffffffffffffffffff168152602001908152602001600020600083815260200190815260200160002081905550806008600084815260200190815260200160002081905550505050565b5080546125219061314b565b6000825580601f106125335750612552565b601f0160209004906000526020600020908101906125519190612555565b5b50565b5b8082111561256e576000816000905550600101612556565b5090565b600061258561258084612f66565b612f41565b9050828152602081018484840111156125a1576125a0613347565b5b6125ac848285613109565b509392505050565b6000813590506125c3816138ac565b92915050565b6000813590506125d8816138c3565b92915050565b6000813590506125ed816138da565b92915050565b600081519050612602816138da565b92915050565b600082601f83011261261d5761261c613342565b5b813561262d848260208601612572565b91505092915050565b600081359050612645816138f1565b92915050565b60006020828403121561266157612660613351565b5b600061266f848285016125b4565b91505092915050565b6000806040838503121561268f5761268e613351565b5b600061269d858286016125b4565b92505060206126ae858286016125b4565b9150509250929050565b6000806000606084860312156126d1576126d0613351565b5b60006126df868287016125b4565b93505060206126f0868287016125b4565b925050604061270186828701612636565b9150509250925092565b6000806000806080858703121561272557612724613351565b5b6000612733878288016125b4565b9450506020612744878288016125b4565b935050604061275587828801612636565b925050606085013567ffffffffffffffff8111156127765761277561334c565b5b61278287828801612608565b91505092959194509250565b600080604083850312156127a5576127a4613351565b5b60006127b3858286016125b4565b92505060206127c4858286016125c9565b9150509250929050565b600080604083850312156127e5576127e4613351565b5b60006127f3858286016125b4565b925050602061280485828601612636565b9150509250929050565b60006020828403121561282457612823613351565b5b6000612832848285016125de565b91505092915050565b60006020828403121561285157612850613351565b5b600061285f848285016125f3565b91505092915050565b60006020828403121561287e5761287d613351565b5b600061288c84828501612636565b91505092915050565b61289e81613095565b82525050565b6128ad816130a7565b82525050565b60006128be82612f97565b6128c88185612fad565b93506128d8818560208601613118565b6128e181613356565b840191505092915050565b60006128f782612fa2565b6129018185612fbe565b9350612911818560208601613118565b61291a81613356565b840191505092915050565b600061293082612fa2565b61293a8185612fcf565b935061294a818560208601613118565b80840191505092915050565b6000612963602b83612fbe565b915061296e82613367565b604082019050919050565b6000612986603283612fbe565b9150612991826133b6565b604082019050919050565b60006129a9602683612fbe565b91506129b482613405565b604082019050919050565b60006129cc602583612fbe565b91506129d782613454565b604082019050919050565b60006129ef601c83612fbe565b91506129fa826134a3565b602082019050919050565b6000612a12602483612fbe565b9150612a1d826134cc565b604082019050919050565b6000612a35601983612fbe565b9150612a408261351b565b602082019050919050565b6000612a58602c83612fbe565b9150612a6382613544565b604082019050919050565b6000612a7b603883612fbe565b9150612a8682613593565b604082019050919050565b6000612a9e602a83612fbe565b9150612aa9826135e2565b604082019050919050565b6000612ac1602983612fbe565b9150612acc82613631565b604082019050919050565b6000612ae4602083612fbe565b9150612aef82613680565b602082019050919050565b6000612b07603183612fbe565b9150612b12826136a9565b604082019050919050565b6000612b2a602c83612fbe565b9150612b35826136f8565b604082019050919050565b6000612b4d602083612fbe565b9150612b5882613747565b602082019050919050565b6000612b70602f83612fbe565b9150612b7b82613770565b604082019050919050565b6000612b93602183612fbe565b9150612b9e826137bf565b604082019050919050565b6000612bb6603183612fbe565b9150612bc18261380e565b604082019050919050565b6000612bd9602c83612fbe565b9150612be48261385d565b604082019050919050565b612bf8816130ff565b82525050565b6000612c0a8285612925565b9150612c168284612925565b91508190509392505050565b6000602082019050612c376000830184612895565b92915050565b6000608082019050612c526000830187612895565b612c5f6020830186612895565b612c6c6040830185612bef565b8181036060830152612c7e81846128b3565b905095945050505050565b6000602082019050612c9e60008301846128a4565b92915050565b60006020820190508181036000830152612cbe81846128ec565b905092915050565b60006020820190508181036000830152612cdf81612956565b9050919050565b60006020820190508181036000830152612cff81612979565b9050919050565b60006020820190508181036000830152612d1f8161299c565b9050919050565b60006020820190508181036000830152612d3f816129bf565b9050919050565b60006020820190508181036000830152612d5f816129e2565b9050919050565b60006020820190508181036000830152612d7f81612a05565b9050919050565b60006020820190508181036000830152612d9f81612a28565b9050919050565b60006020820190508181036000830152612dbf81612a4b565b9050919050565b60006020820190508181036000830152612ddf81612a6e565b9050919050565b60006020820190508181036000830152612dff81612a91565b9050919050565b60006020820190508181036000830152612e1f81612ab4565b9050919050565b60006020820190508181036000830152612e3f81612ad7565b9050919050565b60006020820190508181036000830152612e5f81612afa565b9050919050565b60006020820190508181036000830152612e7f81612b1d565b9050919050565b60006020820190508181036000830152612e9f81612b40565b9050919050565b60006020820190508181036000830152612ebf81612b63565b9050919050565b60006020820190508181036000830152612edf81612b86565b9050919050565b60006020820190508181036000830152612eff81612ba9565b9050919050565b60006020820190508181036000830152612f1f81612bcc565b9050919050565b6000602082019050612f3b6000830184612bef565b92915050565b6000612f4b612f5c565b9050612f57828261317d565b919050565b6000604051905090565b600067ffffffffffffffff821115612f8157612f80613313565b5b612f8a82613356565b9050602081019050919050565b600081519050919050565b600081519050919050565b600082825260208201905092915050565b600082825260208201905092915050565b600081905092915050565b6000612fe5826130ff565b9150612ff0836130ff565b9250827fffffffffffffffffffffffffffffffffffffffffffffffffffffffffffffffff0382111561302557613024613228565b5b828201905092915050565b600061303b826130ff565b9150613046836130ff565b92508261305657613055613257565b5b828204905092915050565b600061306c826130ff565b9150613077836130ff565b92508282101561308a57613089613228565b5b828203905092915050565b60006130a0826130df565b9050919050565b60008115159050919050565b60007fffffffff0000000000000000000000000000000000000000000000000000000082169050919050565b600073ffffffffffffffffffffffffffffffffffffffff82169050919050565b6000819050919050565b82818337600083830152505050565b60005b8381101561313657808201518184015260208101905061311b565b83811115613145576000848401525b50505050565b6000600282049050600182168061316357607f821691505b6020821081141561317757613176613286565b5b50919050565b61318682613356565b810181811067ffffffffffffffff821117156131a5576131a4613313565b5b80604052505050565b60006131b9826130ff565b91507fffffffffffffffffffffffffffffffffffffffffffffffffffffffffffffffff8214156131ec576131eb613228565b5b600182019050919050565b6000613202826130ff565b915061320d836130ff565b92508261321d5761321c613257565b5b828206905092915050565b7f4e487b7100000000000000000000000000000000000000000000000000000000600052601160045260246000fd5b7f4e487b7100000000000000000000000000000000000000000000000000000000600052601260045260246000fd5b7f4e487b7100000000000000000000000000000000000000000000000000000000600052602260045260246000fd5b7f4e487b7100000000000000000000000000000000000000000000000000000000600052603160045260246000fd5b7f4e487b7100000000000000000000000000000000000000000000000000000000600052603260045260246000fd5b7f4e487b7100000000000000000000000000000000000000000000000000000000600052604160045260246000fd5b600080fd5b600080fd5b600080fd5b600080fd5b6000601f19601f8301169050919050565b7f455243373231456e756d657261626c653a206f776e657220696e646578206f7560008201527f74206f6620626f756e6473000000000000000000000000000000000000000000602082015250565b7f4552433732313a207472616e7366657220746f206e6f6e20455243373231526560008201527f63656976657220696d706c656d656e7465720000000000000000000000000000602082015250565b7f4f776e61626c653a206e6577206f776e657220697320746865207a65726f206160008201527f6464726573730000000000000000000000000000000000000000000000000000602082015250565b7f4552433732313a207472616e736665722066726f6d20696e636f72726563742060008201527f6f776e6572000000000000000000000000000000000000000000000000000000602082015250565b7f4552433732313a20746f6b656e20616c7265616479206d696e74656400000000600082015250565b7f4552433732313a207472616e7366657220746f20746865207a65726f2061646460008201527f7265737300000000000000000000000000000000000000000000000000000000602082015250565b7f4552433732313a20617070726f766520746f2063616c6c657200000000000000600082015250565b7f4552433732313a206f70657261746f7220717565727920666f72206e6f6e657860008201527f697374656e7420746f6b656e0000000000000000000000000000000000000000602082015250565b7f4552433732313a20617070726f76652063616c6c6572206973206e6f74206f7760008201527f6e6572206e6f7220617070726f76656420666f7220616c6c0000000000000000602082015250565b7f4552433732313a2062616c616e636520717565727920666f7220746865207a6560008201527f726f206164647265737300000000000000000000000000000000000000000000602082015250565b7f4552433732313a206f776e657220717565727920666f72206e6f6e657869737460008201527f656e7420746f6b656e0000000000000000000000000000000000000000000000602082015250565b7f4552433732313a206d696e7420746f20746865207a65726f2061646472657373600082015250565b7f45524337323155524953746f726167653a2055524920717565727920666f722060008201527f6e6f6e6578697374656e7420746f6b656e000000000000000000000000000000602082015250565b7f4552433732313a20617070726f76656420717565727920666f72206e6f6e657860008201527f697374656e7420746f6b656e0000000000000000000000000000000000000000602082015250565b7f4f776e61626c653a2063616c6c6572206973206e6f7420746865206f776e6572600082015250565b7f4552433732314d657461646174613a2055524920717565727920666f72206e6f60008201527f6e6578697374656e7420746f6b656e0000000000000000000000000000000000602082015250565b7f4552433732313a20617070726f76616c20746f2063757272656e74206f776e6560008201527f7200000000000000000000000000000000000000000000000000000000000000602082015250565b7f4552433732313a207472616e736665722063616c6c6572206973206e6f74206f60008201527f776e6572206e6f7220617070726f766564000000000000000000000000000000602082015250565b7f455243373231456e756d657261626c653a20676c6f62616c20696e646578206f60008201527f7574206f6620626f756e64730000000000000000000000000000000000000000602082015250565b6138b581613095565b81146138c057600080fd5b50565b6138cc816130a7565b81146138d757600080fd5b50565b6138e3816130b3565b81146138ee57600080fd5b50565b6138fa816130ff565b811461390557600080fd5b5056fea26469706673582212204c08d1f524f76946bc182a9c0e6ec04f7d72767c8e92a2d75d114b5950b67a0a64736f6c63430008050033",
  "immutableReferences": {},
  "source": "pragma solidity ^0.8.2;\r\n\r\nimport \"@openzeppelin/contracts/token/ERC721/ERC721.sol\";\r\n\r\nimport \"@openzeppelin/contracts/access/Ownable.sol\";\r\n\r\nimport \"@openzeppelin/contracts/token/ERC721/extensions/ERC721URIStorage.sol\";\r\nimport \"@openzeppelin/contracts/utils/Counters.sol\";\r\nimport \"@openzeppelin/contracts/token/ERC721/extensions/ERC721Enumerable.sol\";\r\n\r\nimport \"../WrappedTokens/WBNB.sol\";\r\n\r\nimport \"../Interfaces/Mintable.sol\";\r\n\r\ncontract BNBCard is ERC721URIStorage, ERC721Enumerable, Mintable, Ownable{\r\n\r\n    WBNB wBnb;\r\n\r\n    using Counters for Counters.Counter;\r\n    Counters.Counter private tokenIds;\r\n\r\n    constructor(address _wbnb)ERC721(\"BNBCard\", \"BC\"){\r\n        wBnb = WBNB(_wbnb);\r\n    }\r\n\r\n    function mint(address _receiver) external override payable onlyOwner returns(uint _id){\r\n        tokenIds.increment();\r\n        _id = tokenIds.current();\r\n        _safeMint(_receiver, _id);\r\n    }\r\n\r\n    function burn(uint _tokenId) external override onlyOwner{\r\n        _burn(_tokenId);\r\n    }\r\n\r\n    function _burn(uint _tokenId) internal override(ERC721, ERC721URIStorage){\r\n        super._burn(_tokenId);\r\n    }\r\n\r\n    function _beforeTokenTransfer(address from, address to, uint tokenId) internal override(ERC721, ERC721Enumerable){\r\n        super._beforeTokenTransfer(from, to, tokenId);\r\n    }\r\n\r\n    function supportsInterface(bytes4 interfaceId) public view override(ERC721, ERC721Enumerable) returns(bool){\r\n        return super.supportsInterface(interfaceId);\r\n    }\r\n\r\n     function tokenURI(uint256 tokenId) public view override(ERC721, ERC721URIStorage) returns (string memory){\r\n        return super.tokenURI(tokenId);\r\n    }\r\n}",
  "sourcePath": "/home/stephenstb/Ratio-Labs/ratio-labs/contracts/CryptoGame/NFTMints/BNBCard.sol",
  "compiler": {
    "name": "solc",
    "version": "0.8.5+commit.a4f2e591.Emscripten.clang"
  },
  "schemaVersion": "3.3.3",
  "updatedAt": "2022-06-23T01:08:52.275Z",
  "devdoc": {
    "kind": "dev",
    "methods": {
      "approve(address,uint256)": {
        "details": "See {IERC721-approve}."
      },
      "balanceOf(address)": {
        "details": "See {IERC721-balanceOf}."
      },
      "getApproved(uint256)": {
        "details": "See {IERC721-getApproved}."
      },
      "isApprovedForAll(address,address)": {
        "details": "See {IERC721-isApprovedForAll}."
      },
      "name()": {
        "details": "See {IERC721Metadata-name}."
      },
      "owner()": {
        "details": "Returns the address of the current owner."
      },
      "ownerOf(uint256)": {
        "details": "See {IERC721-ownerOf}."
      },
      "renounceOwnership()": {
        "details": "Leaves the contract without owner. It will not be possible to call `onlyOwner` functions anymore. Can only be called by the current owner. NOTE: Renouncing ownership will leave the contract without an owner, thereby removing any functionality that is only available to the owner."
      },
      "safeTransferFrom(address,address,uint256)": {
        "details": "See {IERC721-safeTransferFrom}."
      },
      "safeTransferFrom(address,address,uint256,bytes)": {
        "details": "See {IERC721-safeTransferFrom}."
      },
      "setApprovalForAll(address,bool)": {
        "details": "See {IERC721-setApprovalForAll}."
      },
      "symbol()": {
        "details": "See {IERC721Metadata-symbol}."
      },
      "tokenByIndex(uint256)": {
        "details": "See {IERC721Enumerable-tokenByIndex}."
      },
      "tokenOfOwnerByIndex(address,uint256)": {
        "details": "See {IERC721Enumerable-tokenOfOwnerByIndex}."
      },
      "totalSupply()": {
        "details": "See {IERC721Enumerable-totalSupply}."
      },
      "transferFrom(address,address,uint256)": {
        "details": "See {IERC721-transferFrom}."
      },
      "transferOwnership(address)": {
        "details": "Transfers ownership of the contract to a new account (`newOwner`). Can only be called by the current owner."
      }
    },
    "version": 1
  },
  "userdoc": {
    "kind": "user",
    "methods": {},
    "version": 1
  }
}