{
  "contractName": "BNBCard",
  "abi": [
    {
      "inputs": [
        {
          "internalType": "address",
          "name": "_wbnb",
          "type": "address"
        }
      ],
      "stateMutability": "nonpayable",
      "type": "constructor"
    },
    {
      "anonymous": false,
      "inputs": [
        {
          "indexed": true,
          "internalType": "address",
          "name": "owner",
          "type": "address"
        },
        {
          "indexed": true,
          "internalType": "address",
          "name": "approved",
          "type": "address"
        },
        {
          "indexed": true,
          "internalType": "uint256",
          "name": "tokenId",
          "type": "uint256"
        }
      ],
      "name": "Approval",
      "type": "event"
    },
    {
      "anonymous": false,
      "inputs": [
        {
          "indexed": true,
          "internalType": "address",
          "name": "owner",
          "type": "address"
        },
        {
          "indexed": true,
          "internalType": "address",
          "name": "operator",
          "type": "address"
        },
        {
          "indexed": false,
          "internalType": "bool",
          "name": "approved",
          "type": "bool"
        }
      ],
      "name": "ApprovalForAll",
      "type": "event"
    },
    {
      "anonymous": false,
      "inputs": [
        {
          "indexed": true,
          "internalType": "address",
          "name": "previousOwner",
          "type": "address"
        },
        {
          "indexed": true,
          "internalType": "address",
          "name": "newOwner",
          "type": "address"
        }
      ],
      "name": "OwnershipTransferred",
      "type": "event"
    },
    {
      "anonymous": false,
      "inputs": [
        {
          "indexed": true,
          "internalType": "address",
          "name": "from",
          "type": "address"
        },
        {
          "indexed": true,
          "internalType": "address",
          "name": "to",
          "type": "address"
        },
        {
          "indexed": true,
          "internalType": "uint256",
          "name": "tokenId",
          "type": "uint256"
        }
      ],
      "name": "Transfer",
      "type": "event"
    },
    {
      "inputs": [
        {
          "internalType": "address",
          "name": "to",
          "type": "address"
        },
        {
          "internalType": "uint256",
          "name": "tokenId",
          "type": "uint256"
        }
      ],
      "name": "approve",
      "outputs": [],
      "stateMutability": "nonpayable",
      "type": "function"
    },
    {
      "inputs": [
        {
          "internalType": "address",
          "name": "owner",
          "type": "address"
        }
      ],
      "name": "balanceOf",
      "outputs": [
        {
          "internalType": "uint256",
          "name": "",
          "type": "uint256"
        }
      ],
      "stateMutability": "view",
      "type": "function"
    },
    {
      "inputs": [
        {
          "internalType": "uint256",
          "name": "tokenId",
          "type": "uint256"
        }
      ],
      "name": "getApproved",
      "outputs": [
        {
          "internalType": "address",
          "name": "",
          "type": "address"
        }
      ],
      "stateMutability": "view",
      "type": "function"
    },
    {
      "inputs": [
        {
          "internalType": "address",
          "name": "owner",
          "type": "address"
        },
        {
          "internalType": "address",
          "name": "operator",
          "type": "address"
        }
      ],
      "name": "isApprovedForAll",
      "outputs": [
        {
          "internalType": "bool",
          "name": "",
          "type": "bool"
        }
      ],
      "stateMutability": "view",
      "type": "function"
    },
    {
      "inputs": [],
      "name": "name",
      "outputs": [
        {
          "internalType": "string",
          "name": "",
          "type": "string"
        }
      ],
      "stateMutability": "view",
      "type": "function"
    },
    {
      "inputs": [],
      "name": "owner",
      "outputs": [
        {
          "internalType": "address",
          "name": "",
          "type": "address"
        }
      ],
      "stateMutability": "view",
      "type": "function"
    },
    {
      "inputs": [
        {
          "internalType": "uint256",
          "name": "tokenId",
          "type": "uint256"
        }
      ],
      "name": "ownerOf",
      "outputs": [
        {
          "internalType": "address",
          "name": "",
          "type": "address"
        }
      ],
      "stateMutability": "view",
      "type": "function"
    },
    {
      "inputs": [],
      "name": "renounceOwnership",
      "outputs": [],
      "stateMutability": "nonpayable",
      "type": "function"
    },
    {
      "inputs": [
        {
          "internalType": "address",
          "name": "from",
          "type": "address"
        },
        {
          "internalType": "address",
          "name": "to",
          "type": "address"
        },
        {
          "internalType": "uint256",
          "name": "tokenId",
          "type": "uint256"
        }
      ],
      "name": "safeTransferFrom",
      "outputs": [],
      "stateMutability": "nonpayable",
      "type": "function"
    },
    {
      "inputs": [
        {
          "internalType": "address",
          "name": "from",
          "type": "address"
        },
        {
          "internalType": "address",
          "name": "to",
          "type": "address"
        },
        {
          "internalType": "uint256",
          "name": "tokenId",
          "type": "uint256"
        },
        {
          "internalType": "bytes",
          "name": "_data",
          "type": "bytes"
        }
      ],
      "name": "safeTransferFrom",
      "outputs": [],
      "stateMutability": "nonpayable",
      "type": "function"
    },
    {
      "inputs": [
        {
          "internalType": "address",
          "name": "operator",
          "type": "address"
        },
        {
          "internalType": "bool",
          "name": "approved",
          "type": "bool"
        }
      ],
      "name": "setApprovalForAll",
      "outputs": [],
      "stateMutability": "nonpayable",
      "type": "function"
    },
    {
      "inputs": [],
      "name": "symbol",
      "outputs": [
        {
          "internalType": "string",
          "name": "",
          "type": "string"
        }
      ],
      "stateMutability": "view",
      "type": "function"
    },
    {
      "inputs": [
        {
          "internalType": "uint256",
          "name": "index",
          "type": "uint256"
        }
      ],
      "name": "tokenByIndex",
      "outputs": [
        {
          "internalType": "uint256",
          "name": "",
          "type": "uint256"
        }
      ],
      "stateMutability": "view",
      "type": "function"
    },
    {
      "inputs": [
        {
          "internalType": "address",
          "name": "owner",
          "type": "address"
        },
        {
          "internalType": "uint256",
          "name": "index",
          "type": "uint256"
        }
      ],
      "name": "tokenOfOwnerByIndex",
      "outputs": [
        {
          "internalType": "uint256",
          "name": "",
          "type": "uint256"
        }
      ],
      "stateMutability": "view",
      "type": "function"
    },
    {
      "inputs": [],
      "name": "totalSupply",
      "outputs": [
        {
          "internalType": "uint256",
          "name": "",
          "type": "uint256"
        }
      ],
      "stateMutability": "view",
      "type": "function"
    },
    {
      "inputs": [
        {
          "internalType": "address",
          "name": "from",
          "type": "address"
        },
        {
          "internalType": "address",
          "name": "to",
          "type": "address"
        },
        {
          "internalType": "uint256",
          "name": "tokenId",
          "type": "uint256"
        }
      ],
      "name": "transferFrom",
      "outputs": [],
      "stateMutability": "nonpayable",
      "type": "function"
    },
    {
      "inputs": [
        {
          "internalType": "address",
          "name": "newOwner",
          "type": "address"
        }
      ],
      "name": "transferOwnership",
      "outputs": [],
      "stateMutability": "nonpayable",
      "type": "function"
    },
    {
      "inputs": [
        {
          "internalType": "address",
          "name": "_receiver",
          "type": "address"
        }
      ],
      "name": "mint",
      "outputs": [
        {
          "internalType": "uint256",
          "name": "_id",
          "type": "uint256"
        }
      ],
      "stateMutability": "nonpayable",
      "type": "function"
    },
    {
      "inputs": [
        {
          "internalType": "uint256",
          "name": "_tokenId",
          "type": "uint256"
        }
      ],
      "name": "burn",
      "outputs": [],
      "stateMutability": "nonpayable",
      "type": "function"
    },
    {
      "inputs": [
        {
          "internalType": "bytes4",
          "name": "interfaceId",
          "type": "bytes4"
        }
      ],
      "name": "supportsInterface",
      "outputs": [
        {
          "internalType": "bool",
          "name": "",
          "type": "bool"
        }
      ],
      "stateMutability": "view",
      "type": "function"
    },
    {
      "inputs": [
        {
          "internalType": "uint256",
          "name": "tokenId",
          "type": "uint256"
        }
      ],
      "name": "tokenURI",
      "outputs": [
        {
          "internalType": "string",
          "name": "",
          "type": "string"
        }
      ],
      "stateMutability": "view",
      "type": "function"
    }
  ],
  "bytecode": "0x60806040523480156200001157600080fd5b5060405162003bdb38038062003bdb8339818101604052810190620000379190620002d4565b6040518060400160405280600781526020017f424e4243617264000000000000000000000000000000000000000000000000008152506040518060400160405280600281526020017f42430000000000000000000000000000000000000000000000000000000000008152508160009080519060200190620000bb9291906200020d565b508060019080519060200190620000d49291906200020d565b505050620000f7620000eb6200013f60201b60201c565b6200014760201b60201c565b80600c60006101000a81548173ffffffffffffffffffffffffffffffffffffffff021916908373ffffffffffffffffffffffffffffffffffffffff16021790555050620003be565b600033905090565b6000600b60009054906101000a900473ffffffffffffffffffffffffffffffffffffffff16905081600b60006101000a81548173ffffffffffffffffffffffffffffffffffffffff021916908373ffffffffffffffffffffffffffffffffffffffff1602179055508173ffffffffffffffffffffffffffffffffffffffff168173ffffffffffffffffffffffffffffffffffffffff167f8be0079c531659141344cd1fd0a4f28419497f9722a3daafe3b4186f6b6457e060405160405180910390a35050565b8280546200021b906200033a565b90600052602060002090601f0160209004810192826200023f57600085556200028b565b82601f106200025a57805160ff19168380011785556200028b565b828001600101855582156200028b579182015b828111156200028a5782518255916020019190600101906200026d565b5b5090506200029a91906200029e565b5090565b5b80821115620002b95760008160009055506001016200029f565b5090565b600081519050620002ce81620003a4565b92915050565b600060208284031215620002ed57620002ec6200039f565b5b6000620002fd84828501620002bd565b91505092915050565b600062000313826200031a565b9050919050565b600073ffffffffffffffffffffffffffffffffffffffff82169050919050565b600060028204905060018216806200035357607f821691505b602082108114156200036a576200036962000370565b5b50919050565b7f4e487b7100000000000000000000000000000000000000000000000000000000600052602260045260246000fd5b600080fd5b620003af8162000306565b8114620003bb57600080fd5b50565b61380d80620003ce6000396000f3fe608060405234801561001057600080fd5b50600436106101375760003560e01c80636352211e116100b857806395d89b411161007c57806395d89b4114610360578063a22cb4651461037e578063b88d4fde1461039a578063c87b56dd146103b6578063e985e9c5146103e6578063f2fde38b1461041657610137565b80636352211e146102a85780636a627842146102d857806370a0823114610308578063715018a6146103385780638da5cb5b1461034257610137565b806323b872dd116100ff57806323b872dd146101f45780632f745c591461021057806342842e0e1461024057806342966c681461025c5780634f6ccce71461027857610137565b806301ffc9a71461013c57806306fdde031461016c578063081812fc1461018a578063095ea7b3146101ba57806318160ddd146101d6575b600080fd5b610156600480360381019061015191906126dd565b610432565b6040516101639190612b58565b60405180910390f35b610174610444565b6040516101819190612b73565b60405180910390f35b6101a4600480360381019061019f9190612737565b6104d6565b6040516101b19190612af1565b60405180910390f35b6101d460048036038101906101cf919061269d565b61055b565b005b6101de610673565b6040516101eb9190612df5565b60405180910390f35b61020e60048036038101906102099190612587565b610680565b005b61022a6004803603810190610225919061269d565b6106e0565b6040516102379190612df5565b60405180910390f35b61025a60048036038101906102559190612587565b610785565b005b61027660048036038101906102719190612737565b6107a5565b005b610292600480360381019061028d9190612737565b61082d565b60405161029f9190612df5565b60405180910390f35b6102c260048036038101906102bd9190612737565b61089e565b6040516102cf9190612af1565b60405180910390f35b6102f260048036038101906102ed919061251a565b610950565b6040516102ff9190612df5565b60405180910390f35b610322600480360381019061031d919061251a565b6109f3565b60405161032f9190612df5565b60405180910390f35b610340610aab565b005b61034a610b33565b6040516103579190612af1565b60405180910390f35b610368610b5d565b6040516103759190612b73565b60405180910390f35b6103986004803603810190610393919061265d565b610bef565b005b6103b460048036038101906103af91906125da565b610d70565b005b6103d060048036038101906103cb9190612737565b610dd2565b6040516103dd9190612b73565b60405180910390f35b61040060048036038101906103fb9190612547565b610de4565b60405161040d9190612b58565b60405180910390f35b610430600480360381019061042b919061251a565b610e78565b005b600061043d82610f70565b9050919050565b6060600080546104539061301a565b80601f016020809104026020016040519081016040528092919081815260200182805461047f9061301a565b80156104cc5780601f106104a1576101008083540402835291602001916104cc565b820191906000526020600020905b8154815290600101906020018083116104af57829003601f168201915b5050505050905090565b60006104e182610fea565b610520576040517f08c379a000000000000000000000000000000000000000000000000000000000815260040161051790612d15565b60405180910390fd5b6004600083815260200190815260200160002060009054906101000a900473ffffffffffffffffffffffffffffffffffffffff169050919050565b60006105668261089e565b90508073ffffffffffffffffffffffffffffffffffffffff168373ffffffffffffffffffffffffffffffffffffffff1614156105d7576040517f08c379a00000000000000000000000000000000000000000000000000000000081526004016105ce90612d95565b60405180910390fd5b8073ffffffffffffffffffffffffffffffffffffffff166105f6611056565b73ffffffffffffffffffffffffffffffffffffffff16148061062557506106248161061f611056565b610de4565b5b610664576040517f08c379a000000000000000000000000000000000000000000000000000000000815260040161065b90612c75565b60405180910390fd5b61066e838361105e565b505050565b6000600980549050905090565b61069161068b611056565b82611117565b6106d0576040517f08c379a00000000000000000000000000000000000000000000000000000000081526004016106c790612db5565b60405180910390fd5b6106db8383836111f5565b505050565b60006106eb836109f3565b821061072c576040517f08c379a000000000000000000000000000000000000000000000000000000000815260040161072390612b95565b60405180910390fd5b600760008473ffffffffffffffffffffffffffffffffffffffff1673ffffffffffffffffffffffffffffffffffffffff168152602001908152602001600020600083815260200190815260200160002054905092915050565b6107a083838360405180602001604052806000815250610d70565b505050565b6107ad611056565b73ffffffffffffffffffffffffffffffffffffffff166107cb610b33565b73ffffffffffffffffffffffffffffffffffffffff1614610821576040517f08c379a000000000000000000000000000000000000000000000000000000000815260040161081890612d35565b60405180910390fd5b61082a81611451565b50565b6000610837610673565b8210610878576040517f08c379a000000000000000000000000000000000000000000000000000000000815260040161086f90612dd5565b60405180910390fd5b6009828154811061088c5761088b6131b3565b5b90600052602060002001549050919050565b6000806002600084815260200190815260200160002060009054906101000a900473ffffffffffffffffffffffffffffffffffffffff169050600073ffffffffffffffffffffffffffffffffffffffff168173ffffffffffffffffffffffffffffffffffffffff161415610947576040517f08c379a000000000000000000000000000000000000000000000000000000000815260040161093e90612cb5565b60405180910390fd5b80915050919050565b600061095a611056565b73ffffffffffffffffffffffffffffffffffffffff16610978610b33565b73ffffffffffffffffffffffffffffffffffffffff16146109ce576040517f08c379a00000000000000000000000000000000000000000000000000000000081526004016109c590612d35565b60405180910390fd5b6109d8600d61145d565b6109e2600d611473565b90506109ee8282611481565b919050565b60008073ffffffffffffffffffffffffffffffffffffffff168273ffffffffffffffffffffffffffffffffffffffff161415610a64576040517f08c379a0000000000000000000000000000000000000000000000000000000008152600401610a5b90612c95565b60405180910390fd5b600360008373ffffffffffffffffffffffffffffffffffffffff1673ffffffffffffffffffffffffffffffffffffffff168152602001908152602001600020549050919050565b610ab3611056565b73ffffffffffffffffffffffffffffffffffffffff16610ad1610b33565b73ffffffffffffffffffffffffffffffffffffffff1614610b27576040517f08c379a0000000000000000000000000000000000000000000000000000000008152600401610b1e90612d35565b60405180910390fd5b610b31600061149f565b565b6000600b60009054906101000a900473ffffffffffffffffffffffffffffffffffffffff16905090565b606060018054610b6c9061301a565b80601f0160208091040260200160405190810160405280929190818152602001828054610b989061301a565b8015610be55780601f10610bba57610100808354040283529160200191610be5565b820191906000526020600020905b815481529060010190602001808311610bc857829003601f168201915b5050505050905090565b610bf7611056565b73ffffffffffffffffffffffffffffffffffffffff168273ffffffffffffffffffffffffffffffffffffffff161415610c65576040517f08c379a0000000000000000000000000000000000000000000000000000000008152600401610c5c90612c35565b60405180910390fd5b8060056000610c72611056565b73ffffffffffffffffffffffffffffffffffffffff1673ffffffffffffffffffffffffffffffffffffffff16815260200190815260200160002060008473ffffffffffffffffffffffffffffffffffffffff1673ffffffffffffffffffffffffffffffffffffffff16815260200190815260200160002060006101000a81548160ff0219169083151502179055508173ffffffffffffffffffffffffffffffffffffffff16610d1f611056565b73ffffffffffffffffffffffffffffffffffffffff167f17307eab39ab6107e8899845ad3d59bd9653f200f220920489ca2b5937696c3183604051610d649190612b58565b60405180910390a35050565b610d81610d7b611056565b83611117565b610dc0576040517f08c379a0000000000000000000000000000000000000000000000000000000008152600401610db790612db5565b60405180910390fd5b610dcc84848484611565565b50505050565b6060610ddd826115c1565b9050919050565b6000600560008473ffffffffffffffffffffffffffffffffffffffff1673ffffffffffffffffffffffffffffffffffffffff16815260200190815260200160002060008373ffffffffffffffffffffffffffffffffffffffff1673ffffffffffffffffffffffffffffffffffffffff16815260200190815260200160002060009054906101000a900460ff16905092915050565b610e80611056565b73ffffffffffffffffffffffffffffffffffffffff16610e9e610b33565b73ffffffffffffffffffffffffffffffffffffffff1614610ef4576040517f08c379a0000000000000000000000000000000000000000000000000000000008152600401610eeb90612d35565b60405180910390fd5b600073ffffffffffffffffffffffffffffffffffffffff168173ffffffffffffffffffffffffffffffffffffffff161415610f64576040517f08c379a0000000000000000000000000000000000000000000000000000000008152600401610f5b90612bd5565b60405180910390fd5b610f6d8161149f565b50565b60007f780e9d63000000000000000000000000000000000000000000000000000000007bffffffffffffffffffffffffffffffffffffffffffffffffffffffff1916827bffffffffffffffffffffffffffffffffffffffffffffffffffffffff19161480610fe35750610fe282611713565b5b9050919050565b60008073ffffffffffffffffffffffffffffffffffffffff166002600084815260200190815260200160002060009054906101000a900473ffffffffffffffffffffffffffffffffffffffff1673ffffffffffffffffffffffffffffffffffffffff1614159050919050565b600033905090565b816004600083815260200190815260200160002060006101000a81548173ffffffffffffffffffffffffffffffffffffffff021916908373ffffffffffffffffffffffffffffffffffffffff160217905550808273ffffffffffffffffffffffffffffffffffffffff166110d18361089e565b73ffffffffffffffffffffffffffffffffffffffff167f8c5be1e5ebec7d5bd14f71427d1e84f3dd0314c0f7b2291e5b200ac8c7c3b92560405160405180910390a45050565b600061112282610fea565b611161576040517f08c379a000000000000000000000000000000000000000000000000000000000815260040161115890612c55565b60405180910390fd5b600061116c8361089e565b90508073ffffffffffffffffffffffffffffffffffffffff168473ffffffffffffffffffffffffffffffffffffffff1614806111db57508373ffffffffffffffffffffffffffffffffffffffff166111c3846104d6565b73ffffffffffffffffffffffffffffffffffffffff16145b806111ec57506111eb8185610de4565b5b91505092915050565b8273ffffffffffffffffffffffffffffffffffffffff166112158261089e565b73ffffffffffffffffffffffffffffffffffffffff161461126b576040517f08c379a000000000000000000000000000000000000000000000000000000000815260040161126290612d55565b60405180910390fd5b600073ffffffffffffffffffffffffffffffffffffffff168273ffffffffffffffffffffffffffffffffffffffff1614156112db576040517f08c379a00000000000000000000000000000000000000000000000000000000081526004016112d290612c15565b60405180910390fd5b6112e68383836117f5565b6112f160008261105e565b6001600360008573ffffffffffffffffffffffffffffffffffffffff1673ffffffffffffffffffffffffffffffffffffffff16815260200190815260200160002060008282546113419190612f30565b925050819055506001600360008473ffffffffffffffffffffffffffffffffffffffff1673ffffffffffffffffffffffffffffffffffffffff16815260200190815260200160002060008282546113989190612ea9565b92505081905550816002600083815260200190815260200160002060006101000a81548173ffffffffffffffffffffffffffffffffffffffff021916908373ffffffffffffffffffffffffffffffffffffffff160217905550808273ffffffffffffffffffffffffffffffffffffffff168473ffffffffffffffffffffffffffffffffffffffff167fddf252ad1be2c89b69c2b068fc378daa952ba7f163c4a11628f55a4df523b3ef60405160405180910390a4505050565b61145a81611805565b50565b6001816000016000828254019250508190555050565b600081600001549050919050565b61149b828260405180602001604052806000815250611858565b5050565b6000600b60009054906101000a900473ffffffffffffffffffffffffffffffffffffffff16905081600b60006101000a81548173ffffffffffffffffffffffffffffffffffffffff021916908373ffffffffffffffffffffffffffffffffffffffff1602179055508173ffffffffffffffffffffffffffffffffffffffff168173ffffffffffffffffffffffffffffffffffffffff167f8be0079c531659141344cd1fd0a4f28419497f9722a3daafe3b4186f6b6457e060405160405180910390a35050565b6115708484846111f5565b61157c848484846118b3565b6115bb576040517f08c379a00000000000000000000000000000000000000000000000000000000081526004016115b290612bb5565b60405180910390fd5b50505050565b60606115cc82610fea565b61160b576040517f08c379a000000000000000000000000000000000000000000000000000000000815260040161160290612cf5565b60405180910390fd5b600060066000848152602001908152602001600020805461162b9061301a565b80601f01602080910402602001604051908101604052809291908181526020018280546116579061301a565b80156116a45780601f10611679576101008083540402835291602001916116a4565b820191906000526020600020905b81548152906001019060200180831161168757829003601f168201915b5050505050905060006116b5611a4a565b90506000815114156116cb57819250505061170e565b6000825111156117005780826040516020016116e8929190612acd565b6040516020818303038152906040529250505061170e565b61170984611a61565b925050505b919050565b60007f80ac58cd000000000000000000000000000000000000000000000000000000007bffffffffffffffffffffffffffffffffffffffffffffffffffffffff1916827bffffffffffffffffffffffffffffffffffffffffffffffffffffffff191614806117de57507f5b5e139f000000000000000000000000000000000000000000000000000000007bffffffffffffffffffffffffffffffffffffffffffffffffffffffff1916827bffffffffffffffffffffffffffffffffffffffffffffffffffffffff1916145b806117ee57506117ed82611b08565b5b9050919050565b611800838383611b72565b505050565b61180e81611c86565b600060066000838152602001908152602001600020805461182e9061301a565b9050146118555760066000828152602001908152602001600020600061185491906123e4565b5b50565b6118628383611d97565b61186f60008484846118b3565b6118ae576040517f08c379a00000000000000000000000000000000000000000000000000000000081526004016118a590612bb5565b60405180910390fd5b505050565b60006118d48473ffffffffffffffffffffffffffffffffffffffff16611f65565b15611a3d578373ffffffffffffffffffffffffffffffffffffffff1663150b7a026118fd611056565b8786866040518563ffffffff1660e01b815260040161191f9493929190612b0c565b602060405180830381600087803b15801561193957600080fd5b505af192505050801561196a57506040513d601f19601f82011682018060405250810190611967919061270a565b60015b6119ed573d806000811461199a576040519150601f19603f3d011682016040523d82523d6000602084013e61199f565b606091505b506000815114156119e5576040517f08c379a00000000000000000000000000000000000000000000000000000000081526004016119dc90612bb5565b60405180910390fd5b805181602001fd5b63150b7a0260e01b7bffffffffffffffffffffffffffffffffffffffffffffffffffffffff1916817bffffffffffffffffffffffffffffffffffffffffffffffffffffffff191614915050611a42565b600190505b949350505050565b606060405180602001604052806000815250905090565b6060611a6c82610fea565b611aab576040517f08c379a0000000000000000000000000000000000000000000000000000000008152600401611aa290612d75565b60405180910390fd5b6000611ab5611a4a565b90506000815111611ad55760405180602001604052806000815250611b00565b80611adf84611f78565b604051602001611af0929190612acd565b6040516020818303038152906040525b915050919050565b60007f01ffc9a7000000000000000000000000000000000000000000000000000000007bffffffffffffffffffffffffffffffffffffffffffffffffffffffff1916827bffffffffffffffffffffffffffffffffffffffffffffffffffffffff1916149050919050565b611b7d8383836120d9565b600073ffffffffffffffffffffffffffffffffffffffff168373ffffffffffffffffffffffffffffffffffffffff161415611bc057611bbb816120de565b611bff565b8173ffffffffffffffffffffffffffffffffffffffff168373ffffffffffffffffffffffffffffffffffffffff1614611bfe57611bfd8382612127565b5b5b600073ffffffffffffffffffffffffffffffffffffffff168273ffffffffffffffffffffffffffffffffffffffff161415611c4257611c3d81612294565b611c81565b8273ffffffffffffffffffffffffffffffffffffffff168273ffffffffffffffffffffffffffffffffffffffff1614611c8057611c7f8282612365565b5b5b505050565b6000611c918261089e565b9050611c9f816000846117f5565b611caa60008361105e565b6001600360008373ffffffffffffffffffffffffffffffffffffffff1673ffffffffffffffffffffffffffffffffffffffff1681526020019081526020016000206000828254611cfa9190612f30565b925050819055506002600083815260200190815260200160002060006101000a81549073ffffffffffffffffffffffffffffffffffffffff021916905581600073ffffffffffffffffffffffffffffffffffffffff168273ffffffffffffffffffffffffffffffffffffffff167fddf252ad1be2c89b69c2b068fc378daa952ba7f163c4a11628f55a4df523b3ef60405160405180910390a45050565b600073ffffffffffffffffffffffffffffffffffffffff168273ffffffffffffffffffffffffffffffffffffffff161415611e07576040517f08c379a0000000000000000000000000000000000000000000000000000000008152600401611dfe90612cd5565b60405180910390fd5b611e1081610fea565b15611e50576040517f08c379a0000000000000000000000000000000000000000000000000000000008152600401611e4790612bf5565b60405180910390fd5b611e5c600083836117f5565b6001600360008473ffffffffffffffffffffffffffffffffffffffff1673ffffffffffffffffffffffffffffffffffffffff1681526020019081526020016000206000828254611eac9190612ea9565b92505081905550816002600083815260200190815260200160002060006101000a81548173ffffffffffffffffffffffffffffffffffffffff021916908373ffffffffffffffffffffffffffffffffffffffff160217905550808273ffffffffffffffffffffffffffffffffffffffff16600073ffffffffffffffffffffffffffffffffffffffff167fddf252ad1be2c89b69c2b068fc378daa952ba7f163c4a11628f55a4df523b3ef60405160405180910390a45050565b600080823b905060008111915050919050565b60606000821415611fc0576040518060400160405280600181526020017f300000000000000000000000000000000000000000000000000000000000000081525090506120d4565b600082905060005b60008214611ff2578080611fdb9061307d565b915050600a82611feb9190612eff565b9150611fc8565b60008167ffffffffffffffff81111561200e5761200d6131e2565b5b6040519080825280601f01601f1916602001820160405280156120405781602001600182028036833780820191505090505b5090505b600085146120cd576001826120599190612f30565b9150600a8561206891906130c6565b60306120749190612ea9565b60f81b81838151811061208a576120896131b3565b5b60200101907effffffffffffffffffffffffffffffffffffffffffffffffffffffffffffff1916908160001a905350600a856120c69190612eff565b9450612044565b8093505050505b919050565b505050565b600980549050600a600083815260200190815260200160002081905550600981908060018154018082558091505060019003906000526020600020016000909190919091505550565b60006001612134846109f3565b61213e9190612f30565b9050600060086000848152602001908152602001600020549050818114612223576000600760008673ffffffffffffffffffffffffffffffffffffffff1673ffffffffffffffffffffffffffffffffffffffff168152602001908152602001600020600084815260200190815260200160002054905080600760008773ffffffffffffffffffffffffffffffffffffffff1673ffffffffffffffffffffffffffffffffffffffff168152602001908152602001600020600084815260200190815260200160002081905550816008600083815260200190815260200160002081905550505b6008600084815260200190815260200160002060009055600760008573ffffffffffffffffffffffffffffffffffffffff1673ffffffffffffffffffffffffffffffffffffffff16815260200190815260200160002060008381526020019081526020016000206000905550505050565b600060016009805490506122a89190612f30565b90506000600a60008481526020019081526020016000205490506000600983815481106122d8576122d76131b3565b5b9060005260206000200154905080600983815481106122fa576122f96131b3565b5b906000526020600020018190555081600a600083815260200190815260200160002081905550600a600085815260200190815260200160002060009055600980548061234957612348613184565b5b6001900381819060005260206000200160009055905550505050565b6000612370836109f3565b905081600760008573ffffffffffffffffffffffffffffffffffffffff1673ffffffffffffffffffffffffffffffffffffffff168152602001908152602001600020600083815260200190815260200160002081905550806008600084815260200190815260200160002081905550505050565b5080546123f09061301a565b6000825580601f106124025750612421565b601f0160209004906000526020600020908101906124209190612424565b5b50565b5b8082111561243d576000816000905550600101612425565b5090565b600061245461244f84612e35565b612e10565b9050828152602081018484840111156124705761246f613216565b5b61247b848285612fd8565b509392505050565b6000813590506124928161377b565b92915050565b6000813590506124a781613792565b92915050565b6000813590506124bc816137a9565b92915050565b6000815190506124d1816137a9565b92915050565b600082601f8301126124ec576124eb613211565b5b81356124fc848260208601612441565b91505092915050565b600081359050612514816137c0565b92915050565b6000602082840312156125305761252f613220565b5b600061253e84828501612483565b91505092915050565b6000806040838503121561255e5761255d613220565b5b600061256c85828601612483565b925050602061257d85828601612483565b9150509250929050565b6000806000606084860312156125a05761259f613220565b5b60006125ae86828701612483565b93505060206125bf86828701612483565b92505060406125d086828701612505565b9150509250925092565b600080600080608085870312156125f4576125f3613220565b5b600061260287828801612483565b945050602061261387828801612483565b935050604061262487828801612505565b925050606085013567ffffffffffffffff8111156126455761264461321b565b5b612651878288016124d7565b91505092959194509250565b6000806040838503121561267457612673613220565b5b600061268285828601612483565b925050602061269385828601612498565b9150509250929050565b600080604083850312156126b4576126b3613220565b5b60006126c285828601612483565b92505060206126d385828601612505565b9150509250929050565b6000602082840312156126f3576126f2613220565b5b6000612701848285016124ad565b91505092915050565b6000602082840312156127205761271f613220565b5b600061272e848285016124c2565b91505092915050565b60006020828403121561274d5761274c613220565b5b600061275b84828501612505565b91505092915050565b61276d81612f64565b82525050565b61277c81612f76565b82525050565b600061278d82612e66565b6127978185612e7c565b93506127a7818560208601612fe7565b6127b081613225565b840191505092915050565b60006127c682612e71565b6127d08185612e8d565b93506127e0818560208601612fe7565b6127e981613225565b840191505092915050565b60006127ff82612e71565b6128098185612e9e565b9350612819818560208601612fe7565b80840191505092915050565b6000612832602b83612e8d565b915061283d82613236565b604082019050919050565b6000612855603283612e8d565b915061286082613285565b604082019050919050565b6000612878602683612e8d565b9150612883826132d4565b604082019050919050565b600061289b601c83612e8d565b91506128a682613323565b602082019050919050565b60006128be602483612e8d565b91506128c98261334c565b604082019050919050565b60006128e1601983612e8d565b91506128ec8261339b565b602082019050919050565b6000612904602c83612e8d565b915061290f826133c4565b604082019050919050565b6000612927603883612e8d565b915061293282613413565b604082019050919050565b600061294a602a83612e8d565b915061295582613462565b604082019050919050565b600061296d602983612e8d565b9150612978826134b1565b604082019050919050565b6000612990602083612e8d565b915061299b82613500565b602082019050919050565b60006129b3603183612e8d565b91506129be82613529565b604082019050919050565b60006129d6602c83612e8d565b91506129e182613578565b604082019050919050565b60006129f9602083612e8d565b9150612a04826135c7565b602082019050919050565b6000612a1c602983612e8d565b9150612a27826135f0565b604082019050919050565b6000612a3f602f83612e8d565b9150612a4a8261363f565b604082019050919050565b6000612a62602183612e8d565b9150612a6d8261368e565b604082019050919050565b6000612a85603183612e8d565b9150612a90826136dd565b604082019050919050565b6000612aa8602c83612e8d565b9150612ab38261372c565b604082019050919050565b612ac781612fce565b82525050565b6000612ad982856127f4565b9150612ae582846127f4565b91508190509392505050565b6000602082019050612b066000830184612764565b92915050565b6000608082019050612b216000830187612764565b612b2e6020830186612764565b612b3b6040830185612abe565b8181036060830152612b4d8184612782565b905095945050505050565b6000602082019050612b6d6000830184612773565b92915050565b60006020820190508181036000830152612b8d81846127bb565b905092915050565b60006020820190508181036000830152612bae81612825565b9050919050565b60006020820190508181036000830152612bce81612848565b9050919050565b60006020820190508181036000830152612bee8161286b565b9050919050565b60006020820190508181036000830152612c0e8161288e565b9050919050565b60006020820190508181036000830152612c2e816128b1565b9050919050565b60006020820190508181036000830152612c4e816128d4565b9050919050565b60006020820190508181036000830152612c6e816128f7565b9050919050565b60006020820190508181036000830152612c8e8161291a565b9050919050565b60006020820190508181036000830152612cae8161293d565b9050919050565b60006020820190508181036000830152612cce81612960565b9050919050565b60006020820190508181036000830152612cee81612983565b9050919050565b60006020820190508181036000830152612d0e816129a6565b9050919050565b60006020820190508181036000830152612d2e816129c9565b9050919050565b60006020820190508181036000830152612d4e816129ec565b9050919050565b60006020820190508181036000830152612d6e81612a0f565b9050919050565b60006020820190508181036000830152612d8e81612a32565b9050919050565b60006020820190508181036000830152612dae81612a55565b9050919050565b60006020820190508181036000830152612dce81612a78565b9050919050565b60006020820190508181036000830152612dee81612a9b565b9050919050565b6000602082019050612e0a6000830184612abe565b92915050565b6000612e1a612e2b565b9050612e26828261304c565b919050565b6000604051905090565b600067ffffffffffffffff821115612e5057612e4f6131e2565b5b612e5982613225565b9050602081019050919050565b600081519050919050565b600081519050919050565b600082825260208201905092915050565b600082825260208201905092915050565b600081905092915050565b6000612eb482612fce565b9150612ebf83612fce565b9250827fffffffffffffffffffffffffffffffffffffffffffffffffffffffffffffffff03821115612ef457612ef36130f7565b5b828201905092915050565b6000612f0a82612fce565b9150612f1583612fce565b925082612f2557612f24613126565b5b828204905092915050565b6000612f3b82612fce565b9150612f4683612fce565b925082821015612f5957612f586130f7565b5b828203905092915050565b6000612f6f82612fae565b9050919050565b60008115159050919050565b60007fffffffff0000000000000000000000000000000000000000000000000000000082169050919050565b600073ffffffffffffffffffffffffffffffffffffffff82169050919050565b6000819050919050565b82818337600083830152505050565b60005b83811015613005578082015181840152602081019050612fea565b83811115613014576000848401525b50505050565b6000600282049050600182168061303257607f821691505b6020821081141561304657613045613155565b5b50919050565b61305582613225565b810181811067ffffffffffffffff82111715613074576130736131e2565b5b80604052505050565b600061308882612fce565b91507fffffffffffffffffffffffffffffffffffffffffffffffffffffffffffffffff8214156130bb576130ba6130f7565b5b600182019050919050565b60006130d182612fce565b91506130dc83612fce565b9250826130ec576130eb613126565b5b828206905092915050565b7f4e487b7100000000000000000000000000000000000000000000000000000000600052601160045260246000fd5b7f4e487b7100000000000000000000000000000000000000000000000000000000600052601260045260246000fd5b7f4e487b7100000000000000000000000000000000000000000000000000000000600052602260045260246000fd5b7f4e487b7100000000000000000000000000000000000000000000000000000000600052603160045260246000fd5b7f4e487b7100000000000000000000000000000000000000000000000000000000600052603260045260246000fd5b7f4e487b7100000000000000000000000000000000000000000000000000000000600052604160045260246000fd5b600080fd5b600080fd5b600080fd5b600080fd5b6000601f19601f8301169050919050565b7f455243373231456e756d657261626c653a206f776e657220696e646578206f7560008201527f74206f6620626f756e6473000000000000000000000000000000000000000000602082015250565b7f4552433732313a207472616e7366657220746f206e6f6e20455243373231526560008201527f63656976657220696d706c656d656e7465720000000000000000000000000000602082015250565b7f4f776e61626c653a206e6577206f776e657220697320746865207a65726f206160008201527f6464726573730000000000000000000000000000000000000000000000000000602082015250565b7f4552433732313a20746f6b656e20616c7265616479206d696e74656400000000600082015250565b7f4552433732313a207472616e7366657220746f20746865207a65726f2061646460008201527f7265737300000000000000000000000000000000000000000000000000000000602082015250565b7f4552433732313a20617070726f766520746f2063616c6c657200000000000000600082015250565b7f4552433732313a206f70657261746f7220717565727920666f72206e6f6e657860008201527f697374656e7420746f6b656e0000000000000000000000000000000000000000602082015250565b7f4552433732313a20617070726f76652063616c6c6572206973206e6f74206f7760008201527f6e6572206e6f7220617070726f76656420666f7220616c6c0000000000000000602082015250565b7f4552433732313a2062616c616e636520717565727920666f7220746865207a6560008201527f726f206164647265737300000000000000000000000000000000000000000000602082015250565b7f4552433732313a206f776e657220717565727920666f72206e6f6e657869737460008201527f656e7420746f6b656e0000000000000000000000000000000000000000000000602082015250565b7f4552433732313a206d696e7420746f20746865207a65726f2061646472657373600082015250565b7f45524337323155524953746f726167653a2055524920717565727920666f722060008201527f6e6f6e6578697374656e7420746f6b656e000000000000000000000000000000602082015250565b7f4552433732313a20617070726f76656420717565727920666f72206e6f6e657860008201527f697374656e7420746f6b656e0000000000000000000000000000000000000000602082015250565b7f4f776e61626c653a2063616c6c6572206973206e6f7420746865206f776e6572600082015250565b7f4552433732313a207472616e73666572206f6620746f6b656e2074686174206960008201527f73206e6f74206f776e0000000000000000000000000000000000000000000000602082015250565b7f4552433732314d657461646174613a2055524920717565727920666f72206e6f60008201527f6e6578697374656e7420746f6b656e0000000000000000000000000000000000602082015250565b7f4552433732313a20617070726f76616c20746f2063757272656e74206f776e6560008201527f7200000000000000000000000000000000000000000000000000000000000000602082015250565b7f4552433732313a207472616e736665722063616c6c6572206973206e6f74206f60008201527f776e6572206e6f7220617070726f766564000000000000000000000000000000602082015250565b7f455243373231456e756d657261626c653a20676c6f62616c20696e646578206f60008201527f7574206f6620626f756e64730000000000000000000000000000000000000000602082015250565b61378481612f64565b811461378f57600080fd5b50565b61379b81612f76565b81146137a657600080fd5b50565b6137b281612f82565b81146137bd57600080fd5b50565b6137c981612fce565b81146137d457600080fd5b5056fea264697066735822122036efe28d8b6d4974b5fc01a30a5a45826c4e0e1c9dfdef591b5a467cbe584d3664736f6c63430008050033",
  "immutableReferences": {},
  "source": "pragma solidity ^0.8.2;\r\n\r\nimport \"@openzeppelin/contracts/token/ERC721/ERC721.sol\";\r\n\r\nimport \"@openzeppelin/contracts/access/Ownable.sol\";\r\n\r\nimport \"@openzeppelin/contracts/token/ERC721/extensions/ERC721URIStorage.sol\";\r\nimport \"@openzeppelin/contracts/utils/Counters.sol\";\r\nimport \"@openzeppelin/contracts/token/ERC721/extensions/ERC721Enumerable.sol\";\r\n\r\nimport \"../WrappedTokens/WBNB.sol\";\r\n\r\nimport \"../Interfaces/Mintable.sol\";\r\n\r\ncontract BNBCard is ERC721URIStorage, ERC721Enumerable, Mintable, Ownable{\r\n\r\n    WBNB wBnb;\r\n\r\n    using Counters for Counters.Counter;\r\n    Counters.Counter private tokenIds;\r\n\r\n    constructor(address _wbnb)ERC721(\"BNBCard\", \"BC\"){\r\n        wBnb = WBNB(_wbnb);\r\n    }\r\n\r\n    function mint(address _receiver) external override onlyOwner returns(uint _id){\r\n        tokenIds.increment();\r\n        _id = tokenIds.current();\r\n        _safeMint(_receiver, _id);\r\n    }\r\n\r\n    function burn(uint _tokenId) external override onlyOwner{\r\n        _burn(_tokenId);\r\n    }\r\n\r\n    function _burn(uint _tokenId) internal override(ERC721, ERC721URIStorage){\r\n        super._burn(_tokenId);\r\n    }\r\n\r\n    function _beforeTokenTransfer(address from, address to, uint tokenId) internal override(ERC721, ERC721Enumerable){\r\n        super._beforeTokenTransfer(from, to, tokenId);\r\n    }\r\n\r\n    function supportsInterface(bytes4 interfaceId) public view override(ERC721, ERC721Enumerable) returns(bool){\r\n        return super.supportsInterface(interfaceId);\r\n    }\r\n\r\n     function tokenURI(uint256 tokenId) public view override(ERC721, ERC721URIStorage) returns (string memory){\r\n        return super.tokenURI(tokenId);\r\n    }\r\n}",
  "sourcePath": "/home/stephenstb/Ratio/ratio/contracts/cryptoGame/NFTMints/BNBCard.sol",
  "compiler": {
    "name": "solc",
    "version": "0.8.5+commit.a4f2e591.Emscripten.clang"
  },
  "schemaVersion": "3.4.3",
  "updatedAt": "2022-03-18T21:34:02.767Z",
  "devdoc": {
    "kind": "dev",
    "methods": {
      "approve(address,uint256)": {
        "details": "See {IERC721-approve}."
      },
      "balanceOf(address)": {
        "details": "See {IERC721-balanceOf}."
      },
      "getApproved(uint256)": {
        "details": "See {IERC721-getApproved}."
      },
      "isApprovedForAll(address,address)": {
        "details": "See {IERC721-isApprovedForAll}."
      },
      "name()": {
        "details": "See {IERC721Metadata-name}."
      },
      "owner()": {
        "details": "Returns the address of the current owner."
      },
      "ownerOf(uint256)": {
        "details": "See {IERC721-ownerOf}."
      },
      "renounceOwnership()": {
        "details": "Leaves the contract without owner. It will not be possible to call `onlyOwner` functions anymore. Can only be called by the current owner. NOTE: Renouncing ownership will leave the contract without an owner, thereby removing any functionality that is only available to the owner."
      },
      "safeTransferFrom(address,address,uint256)": {
        "details": "See {IERC721-safeTransferFrom}."
      },
      "safeTransferFrom(address,address,uint256,bytes)": {
        "details": "See {IERC721-safeTransferFrom}."
      },
      "setApprovalForAll(address,bool)": {
        "details": "See {IERC721-setApprovalForAll}."
      },
      "symbol()": {
        "details": "See {IERC721Metadata-symbol}."
      },
      "tokenByIndex(uint256)": {
        "details": "See {IERC721Enumerable-tokenByIndex}."
      },
      "tokenOfOwnerByIndex(address,uint256)": {
        "details": "See {IERC721Enumerable-tokenOfOwnerByIndex}."
      },
      "totalSupply()": {
        "details": "See {IERC721Enumerable-totalSupply}."
      },
      "transferFrom(address,address,uint256)": {
        "details": "See {IERC721-transferFrom}."
      },
      "transferOwnership(address)": {
        "details": "Transfers ownership of the contract to a new account (`newOwner`). Can only be called by the current owner."
      }
    },
    "version": 1
  },
  "userdoc": {
    "kind": "user",
    "methods": {},
    "version": 1
  }
}