{
  "contractName": "CryptoMonkeys",
  "abi": [
    {
      "inputs": [
        {
          "internalType": "contract IERC20",
          "name": "_CryptoGame",
          "type": "address"
        },
        {
          "internalType": "contract NFTProtocol",
          "name": "_nftProtocol",
          "type": "address"
        },
        {
          "internalType": "uint256",
          "name": "_mintCost",
          "type": "uint256"
        }
      ],
      "stateMutability": "nonpayable",
      "type": "constructor"
    },
    {
      "anonymous": false,
      "inputs": [
        {
          "indexed": true,
          "internalType": "address",
          "name": "previousOwner",
          "type": "address"
        },
        {
          "indexed": true,
          "internalType": "address",
          "name": "newOwner",
          "type": "address"
        }
      ],
      "name": "OwnershipTransferred",
      "type": "event"
    },
    {
      "anonymous": false,
      "inputs": [
        {
          "indexed": false,
          "internalType": "address",
          "name": "_minter",
          "type": "address"
        },
        {
          "indexed": false,
          "internalType": "uint256",
          "name": "_id",
          "type": "uint256"
        }
      ],
      "name": "mintRequest",
      "type": "event"
    },
    {
      "inputs": [],
      "name": "CryptoGame",
      "outputs": [
        {
          "internalType": "contract IERC20",
          "name": "",
          "type": "address"
        }
      ],
      "stateMutability": "view",
      "type": "function"
    },
    {
      "inputs": [],
      "name": "mintCost",
      "outputs": [
        {
          "internalType": "uint256",
          "name": "",
          "type": "uint256"
        }
      ],
      "stateMutability": "view",
      "type": "function"
    },
    {
      "inputs": [],
      "name": "owner",
      "outputs": [
        {
          "internalType": "address",
          "name": "",
          "type": "address"
        }
      ],
      "stateMutability": "view",
      "type": "function"
    },
    {
      "inputs": [],
      "name": "renounceOwnership",
      "outputs": [],
      "stateMutability": "nonpayable",
      "type": "function"
    },
    {
      "inputs": [
        {
          "internalType": "address",
          "name": "newOwner",
          "type": "address"
        }
      ],
      "name": "transferOwnership",
      "outputs": [],
      "stateMutability": "nonpayable",
      "type": "function"
    },
    {
      "inputs": [
        {
          "internalType": "address",
          "name": "_receiver",
          "type": "address"
        }
      ],
      "name": "mint",
      "outputs": [
        {
          "internalType": "uint256",
          "name": "_id",
          "type": "uint256"
        }
      ],
      "stateMutability": "payable",
      "type": "function"
    },
    {
      "inputs": [
        {
          "internalType": "address[]",
          "name": "_monkeys",
          "type": "address[]"
        }
      ],
      "name": "mapMonkeys",
      "outputs": [],
      "stateMutability": "nonpayable",
      "type": "function"
    },
    {
      "inputs": [
        {
          "internalType": "uint256[2]",
          "name": "_publicKey",
          "type": "uint256[2]"
        },
        {
          "internalType": "uint256[4]",
          "name": "_proof",
          "type": "uint256[4]"
        },
        {
          "internalType": "bytes",
          "name": "_message",
          "type": "bytes"
        }
      ],
      "name": "functionUsingVRF",
      "outputs": [
        {
          "internalType": "bool",
          "name": "",
          "type": "bool"
        }
      ],
      "stateMutability": "pure",
      "type": "function"
    },
    {
      "inputs": [
        {
          "internalType": "bytes",
          "name": "_proof",
          "type": "bytes"
        }
      ],
      "name": "decodeProof",
      "outputs": [
        {
          "internalType": "uint256[4]",
          "name": "_decodedProof",
          "type": "uint256[4]"
        }
      ],
      "stateMutability": "pure",
      "type": "function"
    }
  ],
  "bytecode": "0x60a06040523480156200001157600080fd5b5060405162003374380380620033748339818101604052810190620000379190620001fb565b620000576200004b620000ea60201b60201c565b620000f260201b60201c565b806080818152505082600260006101000a81548173ffffffffffffffffffffffffffffffffffffffff021916908373ffffffffffffffffffffffffffffffffffffffff16021790555081600360006101000a81548173ffffffffffffffffffffffffffffffffffffffff021916908373ffffffffffffffffffffffffffffffffffffffff16021790555050505062000310565b600033905090565b60008060009054906101000a900473ffffffffffffffffffffffffffffffffffffffff169050816000806101000a81548173ffffffffffffffffffffffffffffffffffffffff021916908373ffffffffffffffffffffffffffffffffffffffff1602179055508173ffffffffffffffffffffffffffffffffffffffff168173ffffffffffffffffffffffffffffffffffffffff167f8be0079c531659141344cd1fd0a4f28419497f9722a3daafe3b4186f6b6457e060405160405180910390a35050565b600081519050620001c781620002c2565b92915050565b600081519050620001de81620002dc565b92915050565b600081519050620001f581620002f6565b92915050565b600080600060608486031215620002175762000216620002bd565b5b60006200022786828701620001b6565b93505060206200023a86828701620001cd565b92505060406200024d86828701620001e4565b9150509250925092565b6000620002648262000293565b9050919050565b6000620002788262000257565b9050919050565b60006200028c8262000257565b9050919050565b600073ffffffffffffffffffffffffffffffffffffffff82169050919050565b6000819050919050565b600080fd5b620002cd816200026b565b8114620002d957600080fd5b50565b620002e7816200027f565b8114620002f357600080fd5b50565b6200030181620002b3565b81146200030d57600080fd5b50565b60805161303a6200033a600039600081816102230152818161045401526107e2015261303a6000f3fe6080604052600436106100865760003560e01c8063b093236311610059578063b093236314610128578063b4595d0a14610151578063bdb4b8481461018e578063c9d4ef1f146101b9578063f2fde38b146101f657610086565b80636a6278421461008b578063715018a6146100bb5780638da5cb5b146100d2578063a2169be9146100fd575b600080fd5b6100a560048036038101906100a0919061212f565b61021f565b6040516100b291906128a1565b60405180910390f35b3480156100c757600080fd5b506100d0610538565b005b3480156100de57600080fd5b506100e76105c0565b6040516100f4919061266c565b60405180910390f35b34801561010957600080fd5b506101126105e9565b60405161011f9190612746565b60405180910390f35b34801561013457600080fd5b5061014f600480360381019061014a919061215c565b61060f565b005b34801561015d57600080fd5b50610178600480360381019061017391906121a5565b6107ca565b604051610185919061272b565b60405180910390f35b34801561019a57600080fd5b506101a36107e0565b6040516101b091906128a1565b60405180910390f35b3480156101c557600080fd5b506101e060048036038101906101db919061226e565b610804565b6040516101ed9190612710565b60405180910390f35b34801561020257600080fd5b5061021d6004803603810190610218919061212f565b61081c565b005b60007f0000000000000000000000000000000000000000000000000000000000000000600260009054906101000a900473ffffffffffffffffffffffffffffffffffffffff1673ffffffffffffffffffffffffffffffffffffffff1663dd62ed3e33306040518363ffffffff1660e01b815260040161029f929190612687565b60206040518083038186803b1580156102b757600080fd5b505afa1580156102cb573d6000803e3d6000fd5b505050506040513d601f19601f820116820180604052508101906102ef91906122b7565b1015610330576040517f08c379a0000000000000000000000000000000000000000000000000000000008152600401610327906127a1565b60405180910390fd5b600360009054906101000a900473ffffffffffffffffffffffffffffffffffffffff1673ffffffffffffffffffffffffffffffffffffffff16634436fda76040518163ffffffff1660e01b815260040160206040518083038186803b15801561039857600080fd5b505afa1580156103ac573d6000803e3d6000fd5b505050506040513d601f19601f820116820180604052508101906103d091906122b7565b341015610412576040517f08c379a000000000000000000000000000000000000000000000000000000000815260040161040990612821565b60405180910390fd5b600260009054906101000a900473ffffffffffffffffffffffffffffffffffffffff1673ffffffffffffffffffffffffffffffffffffffff166323b872dd33307f00000000000000000000000000000000000000000000000000000000000000006040518463ffffffff1660e01b8152600401610491939291906126b0565b602060405180830381600087803b1580156104ab57600080fd5b505af11580156104bf573d6000803e3d6000fd5b505050506040513d601f19601f820116820180604052508101906104e39190612214565b506104ee6001610914565b6104f8600161092a565b90507f9a65797c5fb07ca1e2f01465d068b01010959f13876ca8c5014ffc93d4c58013828260405161052b9291906126e7565b60405180910390a1919050565b610540610938565b73ffffffffffffffffffffffffffffffffffffffff1661055e6105c0565b73ffffffffffffffffffffffffffffffffffffffff16146105b4576040517f08c379a00000000000000000000000000000000000000000000000000000000081526004016105ab90612841565b60405180910390fd5b6105be6000610940565b565b60008060009054906101000a900473ffffffffffffffffffffffffffffffffffffffff16905090565b600260009054906101000a900473ffffffffffffffffffffffffffffffffffffffff1681565b610617610938565b73ffffffffffffffffffffffffffffffffffffffff166106356105c0565b73ffffffffffffffffffffffffffffffffffffffff161461068b576040517f08c379a000000000000000000000000000000000000000000000000000000000815260040161068290612841565b60405180910390fd5b60005b81518110156107c6576004600082815260200190815260200160002060009054906101000a900473ffffffffffffffffffffffffffffffffffffffff16600460008484815181106106e2576106e1612d07565b5b602002602001015173ffffffffffffffffffffffffffffffffffffffff1663af640d0f6040518163ffffffff1660e01b815260040160206040518083038186803b15801561072f57600080fd5b505afa158015610743573d6000803e3d6000fd5b505050506040513d601f19601f8201168201806040525081019061076791906122b7565b815260200190815260200160002060006101000a81548173ffffffffffffffffffffffffffffffffffffffff021916908373ffffffffffffffffffffffffffffffffffffffff16021790555080806107be90612be9565b91505061068e565b5050565b60006107d7848484610a04565b90509392505050565b7f000000000000000000000000000000000000000000000000000000000000000081565b61080c611e72565b61081582610bc5565b9050919050565b610824610938565b73ffffffffffffffffffffffffffffffffffffffff166108426105c0565b73ffffffffffffffffffffffffffffffffffffffff1614610898576040517f08c379a000000000000000000000000000000000000000000000000000000000815260040161088f90612841565b60405180910390fd5b600073ffffffffffffffffffffffffffffffffffffffff168173ffffffffffffffffffffffffffffffffffffffff161415610908576040517f08c379a00000000000000000000000000000000000000000000000000000000081526004016108ff90612781565b60405180910390fd5b61091181610940565b50565b6001816000016000828254019250508190555050565b600081600001549050919050565b600033905090565b60008060009054906101000a900473ffffffffffffffffffffffffffffffffffffffff169050816000806101000a81548173ffffffffffffffffffffffffffffffffffffffff021916908373ffffffffffffffffffffffffffffffffffffffff1602179055508173ffffffffffffffffffffffffffffffffffffffff168173ffffffffffffffffffffffffffffffffffffffff167f8be0079c531659141344cd1fd0a4f28419497f9722a3daafe3b4186f6b6457e060405160405180910390a35050565b6000806000610a138685610c80565b91509150600080610ac887600360048110610a3157610a30612d07565b5b60200201517f79be667ef9dcbbac55a06295ce870b07029bfcdb2dce28d959f2815b16f817987f483ada7726a3c4655da4fbfc0e1108a8fd17b448a68554199c47d08ffb10d4b88a600260048110610a8c57610a8b612d07565b5b60200201518c600060028110610aa557610aa4612d07565b5b60200201518d600160028110610abe57610abd612d07565b5b6020020151610e21565b91509150600080610b3d89600360048110610ae657610ae5612d07565b5b602002015187878c600260048110610b0157610b00612d07565b5b60200201518d600060048110610b1a57610b19612d07565b5b60200201518e600160048110610b3357610b32612d07565b5b6020020151610e21565b915091506000610b8387878c600060048110610b5c57610b5b612d07565b5b60200201518d600160048110610b7557610b74612d07565b5b602002015189898989610e95565b905089600260048110610b9957610b98612d07565b5b60200201518160801c6fffffffffffffffffffffffffffffffff16149750505050505050509392505050565b610bcd611e72565b6051825114610c11576040517f08c379a0000000000000000000000000000000000000000000000000000000008152600401610c0890612761565b60405180910390fd5b600080600080600186015193506021860151925060318601519150605186015190506000610c3f8585610f63565b90506040518060800160405280858152602001828152602001846fffffffffffffffffffffffffffffffff1681526020018381525095505050505050919050565b600080600060fe6001610cc387600060028110610ca057610c9f612d07565b5b602002015188600160028110610cb957610cb8612d07565b5b6020020151610f9c565b86604051602001610cd794939291906125c6565b604051602081830303815290604052905060005b6101008160ff161015610dde57600060028383604051602001610d0f929190612572565b604051602081830303815290604052604051610d2b919061255b565b602060405180830381855afa158015610d48573d6000803e3d6000fd5b5050506040513d601f19601f82011682018060405250810190610d6b9190612241565b905060008160001c90506000610d82600283610f63565b9050610db38282600060077ffffffffffffffffffffffffffffffffffffffffffffffffffffffffefffffc2f610fe6565b15610dc8578181965096505050505050610e1a565b5050508080610dd690612c32565b915050610ceb565b506040517f08c379a0000000000000000000000000000000000000000000000000000000008152600401610e1190612801565b60405180910390fd5b9250929050565b600080600080610e328a8a8a6110b4565b91509150600080610e448989896110b4565b91509150600080610e7a8686868660007ffffffffffffffffffffffffffffffffffffffffffffffffffffffffefffffc2f6110f1565b91509150818197509750505050505050965096945050505050565b60008060fe6002610ea68c8c610f9c565b610eb08b8b610f9c565b610eba8a8a610f9c565b610ec48989610f9c565b604051602001610ed99695949392919061260c565b60405160208183030381529060405290506000600282604051610efc919061255b565b602060405180830381855afa158015610f19573d6000803e3d6000fd5b5050506040513d601f19601f82011682018060405250810190610f3c9190612241565b90506000604051826000820152600081015191505080935050505098975050505050505050565b6000610f948383600060077ffffffffffffffffffffffffffffffffffffffffffffffffffffffffefffffc2f611125565b905092915050565b60606000600283610fad9190612c78565b6002610fb991906129de565b90508084604051602001610fce92919061259a565b60405160208183030381529060405291505092915050565b60008560001480610ff75750818610155b806110025750846000145b8061100d5750818510155b1561101b57600090506110ab565b6000828061102c5761102b612cd8565b5b86870990506000838061104257611041612cd8565b5b88858061105257611051612cd8565b5b8a8b090990506000861461108657838061106f5761106e612cd8565b5b848061107e5761107d612cd8565b5b878a09820890505b600085146110a357838061109d5761109c612cd8565b5b85820890505b808214925050505b95945050505050565b6000806110e585858560007ffffffffffffffffffffffffffffffffffffffffffffffffffffffffefffffc2f611240565b91509150935093915050565b60008060008061110288888761127a565b915091506111148a8a84848a8a6112a1565b935093505050965096945050505050565b600060028660ff16148061113c575060038660ff16145b61117b576040517f08c379a0000000000000000000000000000000000000000000000000000000008152600401611172906127c1565b60405180910390fd5b6000828061118c5761118b612cd8565b5b838061119b5761119a612cd8565b5b8585806111ab576111aa612cd8565b5b888a090884806111be576111bd612cd8565b5b85806111cd576111cc612cd8565b5b898a0989090890506111f88160046001866111e891906129de565b6111f29190612a34565b85611336565b905060008060028960ff168461120e91906129de565b6112189190612c78565b1461122e5781846112299190612abf565b611230565b815b9050809250505095945050505050565b60008060008060006112578a8a8a60018b8b611431565b925092509250611269838383896114d1565b945094505050509550959350505050565b6000808483858561128b9190612abf565b6112959190612c78565b91509150935093915050565b6000806000806000888b14156112f957600086806112c2576112c1612cd8565b5b898c0814156112da576000809450945050505061132b565b6112e88b8b60018a8a611548565b809350819450829550505050611317565b61130a8b8b60018c8c60018c611707565b8093508194508295505050505b611323838383896114d1565b945094505050505b965096945050505050565b60008082141561137b576040517f08c379a000000000000000000000000000000000000000000000000000000000815260040161137290612861565b60405180910390fd5b600084141561138d576000905061142a565b600083141561139f576001905061142a565b60006001905060007f800000000000000000000000000000000000000000000000000000000000000090505b600081111561142457838186161515870a85848509099150836002820486161515870a85848509099150836004820486161515870a85848509099150836008820486161515870a858485090991506010810490506113cb565b81925050505b9392505050565b60008060008089141561144c578787879250925092506114c5565b60008990506000806000600190505b600084146114b7576000600185161461148a5761147d8383838f8f8f8e611707565b8093508194508295505050505b6002846114979190612a34565b93506114a68c8c8c8c8c611548565b809c50819d50829e5050505061145b565b828282965096509650505050505b96509650969350505050565b60008060006114e08585611d86565b9050600084806114f3576114f2612cd8565b5b82830990506000858061150957611508612cd8565b5b828a0990506000868061151f5761151e612cd8565b5b878061152e5761152d612cd8565b5b8486098a0990508181955095505050505094509492505050565b600080600080861415611563578787879250925092506116fc565b6000848061157457611573612cd8565b5b898a0990506000858061158a57611589612cd8565b5b898a099050600086806115a05761159f612cd8565b5b898a099050600087806115b6576115b5612cd8565b5b88806115c5576115c4612cd8565b5b848e096004099050600088806115de576115dd612cd8565b5b89806115ed576115ec612cd8565b5b8a806115fc576115fb612cd8565b5b8586098c098a806116105761160f612cd8565b5b87600309089050888061162657611625612cd8565b5b898061163557611634612cd8565b5b8384088a6116439190612abf565b8a8061165257611651612cd8565b5b838409089450888061166757611666612cd8565b5b898061167657611675612cd8565b5b8a8061168557611684612cd8565b5b8687096008098a6116969190612abf565b8a806116a5576116a4612cd8565b5b8b806116b4576116b3612cd8565b5b888d6116c09190612abf565b8608840908935088806116d6576116d5612cd8565b5b89806116e5576116e4612cd8565b5b8c8e09600209925084848497509750975050505050505b955095509592505050565b6000806000808a14801561171b5750600089145b1561172e57868686925092509250611d79565b60008714801561173e5750600086145b1561175157898989925092509250611d79565b611759611e72565b848061176857611767612cd8565b5b898a098160006004811061177f5761177e612d07565b5b602002018181525050848061179757611796612cd8565b5b816000600481106117ab576117aa612d07565b5b60200201518a09816001600481106117c6576117c5612d07565b5b60200201818152505084806117de576117dd612cd8565b5b868709816002600481106117f5576117f4612d07565b5b602002018181525050848061180d5761180c612cd8565b5b8160026004811061182157611820612d07565b5b602002015187098160036004811061183c5761183b612d07565b5b6020020181815250506040518060800160405280868061185f5761185e612cd8565b5b8360026004811061187357611872612d07565b5b60200201518e098152602001868061188e5761188d612cd8565b5b836003600481106118a2576118a1612d07565b5b60200201518d09815260200186806118bd576118bc612cd8565b5b836000600481106118d1576118d0612d07565b5b60200201518b09815260200186806118ec576118eb612cd8565b5b83600160048110611900576118ff612d07565b5b60200201518a098152509050806002600481106119205761191f612d07565b5b60200201518160006004811061193957611938612d07565b5b602002015114158061197b57508060036004811061195a57611959612d07565b5b60200201518160016004811061197357611972612d07565b5b602002015114155b6119ba576040517f08c379a00000000000000000000000000000000000000000000000000000000081526004016119b1906127e1565b60405180910390fd5b6119c2611e72565b85806119d1576119d0612cd8565b5b826000600481106119e5576119e4612d07565b5b6020020151876119f59190612abf565b83600260048110611a0957611a08612d07565b5b60200201510881600060048110611a2357611a22612d07565b5b6020020181815250508580611a3b57611a3a612cd8565b5b82600160048110611a4f57611a4e612d07565b5b602002015187611a5f9190612abf565b83600360048110611a7357611a72612d07565b5b60200201510881600160048110611a8d57611a8c612d07565b5b6020020181815250508580611aa557611aa4612cd8565b5b81600060048110611ab957611ab8612d07565b5b602002015182600060048110611ad257611ad1612d07565b5b60200201510981600260048110611aec57611aeb612d07565b5b6020020181815250508580611b0457611b03612cd8565b5b81600060048110611b1857611b17612d07565b5b602002015182600260048110611b3157611b30612d07565b5b60200201510981600360048110611b4b57611b4a612d07565b5b60200201818152505060008680611b6557611b64612cd8565b5b82600360048110611b7957611b78612d07565b5b602002015188611b899190612abf565b8880611b9857611b97612cd8565b5b84600160048110611bac57611bab612d07565b5b602002015185600160048110611bc557611bc4612d07565b5b6020020151090890508680611bdd57611bdc612cd8565b5b8780611bec57611beb612cd8565b5b8880611bfb57611bfa612cd8565b5b84600260048110611c0f57611c0e612d07565b5b602002015186600060048110611c2857611c27612d07565b5b60200201510960020988611c3c9190612abf565b8208905060008780611c5157611c50612cd8565b5b8880611c6057611c5f612cd8565b5b838a611c6c9190612abf565b8a80611c7b57611c7a612cd8565b5b86600260048110611c8f57611c8e612d07565b5b602002015188600060048110611ca857611ca7612d07565b5b6020020151090884600160048110611cc357611cc2612d07565b5b60200201510990508780611cda57611cd9612cd8565b5b8880611ce957611ce8612cd8565b5b84600360048110611cfd57611cfc612d07565b5b602002015186600160048110611d1657611d15612d07565b5b60200201510989611d279190612abf565b8208905060008880611d3c57611d3b612cd8565b5b8980611d4b57611d4a612cd8565b5b8b8f0985600060048110611d6257611d61612d07565b5b602002015109905082828297509750975050505050505b9750975097945050505050565b6000808314158015611d985750818314155b8015611da5575060008214155b611de4576040517f08c379a0000000000000000000000000000000000000000000000000000000008152600401611ddb90612881565b60405180910390fd5b60008060019050600084905060005b60008714611e65578682611e079190612a34565b9050828680611e1957611e18612cd8565b5b8780611e2857611e27612cd8565b5b85840988611e369190612abf565b86088094508195505050868782611e4d9190612a65565b83611e589190612abf565b8098508193505050611df3565b8394505050505092915050565b6040518060800160405280600490602082028036833780820191505090505090565b6000611ea7611ea2846128e1565b6128bc565b90508083825260208201905082856020860282011115611eca57611ec9612d6a565b5b60005b85811015611efa5781611ee08882612014565b845260208401935060208301925050600181019050611ecd565b5050509392505050565b6000611f17611f128461290d565b6128bc565b90508082856020860282011115611f3157611f30612d6a565b5b60005b85811015611f615781611f478882612105565b845260208401935060208301925050600181019050611f34565b5050509392505050565b6000611f7e611f7984612933565b6128bc565b90508082856020860282011115611f9857611f97612d6a565b5b60005b85811015611fc85781611fae8882612105565b845260208401935060208301925050600181019050611f9b565b5050509392505050565b6000611fe5611fe084612959565b6128bc565b90508281526020810184848401111561200157612000612d6f565b5b61200c848285612b76565b509392505050565b60008135905061202381612fa8565b92915050565b600082601f83011261203e5761203d612d65565b5b813561204e848260208601611e94565b91505092915050565b600082601f83011261206c5761206b612d65565b5b6002612079848285611f04565b91505092915050565b600082601f83011261209757612096612d65565b5b60046120a4848285611f6b565b91505092915050565b6000815190506120bc81612fbf565b92915050565b6000815190506120d181612fd6565b92915050565b600082601f8301126120ec576120eb612d65565b5b81356120fc848260208601611fd2565b91505092915050565b60008135905061211481612fed565b92915050565b60008151905061212981612fed565b92915050565b60006020828403121561214557612144612d79565b5b600061215384828501612014565b91505092915050565b60006020828403121561217257612171612d79565b5b600082013567ffffffffffffffff8111156121905761218f612d74565b5b61219c84828501612029565b91505092915050565b600080600060e084860312156121be576121bd612d79565b5b60006121cc86828701612057565b93505060406121dd86828701612082565b92505060c084013567ffffffffffffffff8111156121fe576121fd612d74565b5b61220a868287016120d7565b9150509250925092565b60006020828403121561222a57612229612d79565b5b6000612238848285016120ad565b91505092915050565b60006020828403121561225757612256612d79565b5b6000612265848285016120c2565b91505092915050565b60006020828403121561228457612283612d79565b5b600082013567ffffffffffffffff8111156122a2576122a1612d74565b5b6122ae848285016120d7565b91505092915050565b6000602082840312156122cd576122cc612d79565b5b60006122db8482850161211a565b91505092915050565b60006122f0838361250f565b60208301905092915050565b61230581612af3565b82525050565b61231481612994565b61231e81846129b7565b92506123298261298a565b8060005b8381101561235a57815161234187826122e4565b965061234c836129aa565b92505060018101905061232d565b505050505050565b61236b81612b05565b82525050565b600061237c8261299f565b61238681856129c2565b9350612396818560208601612b85565b80840191505092915050565b6123ab81612b52565b82525050565b60006123be6013836129cd565b91506123c982612d9c565b602082019050919050565b60006123e16026836129cd565b91506123ec82612dc5565b604082019050919050565b60006124046024836129cd565b915061240f82612e14565b604082019050919050565b60006124276022836129cd565b915061243282612e63565b604082019050919050565b600061244a601e836129cd565b915061245582612eb2565b602082019050919050565b600061246d6018836129cd565b915061247882612edb565b602082019050919050565b6000612490601c836129cd565b915061249b82612f04565b602082019050919050565b60006124b36020836129cd565b91506124be82612f2d565b602082019050919050565b60006124d6600f836129cd565b91506124e182612f56565b602082019050919050565b60006124f9600e836129cd565b915061250482612f7f565b602082019050919050565b61251881612b3b565b82525050565b61252781612b3b565b82525050565b61253e61253982612b3b565b612c5c565b82525050565b61255561255082612b45565b612c66565b82525050565b60006125678284612371565b915081905092915050565b600061257e8285612371565b915061258a8284612544565b6001820191508190509392505050565b60006125a68285612544565b6001820191506125b6828461252d565b6020820191508190509392505050565b60006125d28287612544565b6001820191506125e28286612544565b6001820191506125f28285612371565b91506125fe8284612371565b915081905095945050505050565b60006126188289612544565b6001820191506126288288612544565b6001820191506126388287612371565b91506126448286612371565b91506126508285612371565b915061265c8284612371565b9150819050979650505050505050565b600060208201905061268160008301846122fc565b92915050565b600060408201905061269c60008301856122fc565b6126a960208301846122fc565b9392505050565b60006060820190506126c560008301866122fc565b6126d260208301856122fc565b6126df604083018461251e565b949350505050565b60006040820190506126fc60008301856122fc565b612709602083018461251e565b9392505050565b6000608082019050612725600083018461230b565b92915050565b60006020820190506127406000830184612362565b92915050565b600060208201905061275b60008301846123a2565b92915050565b6000602082019050818103600083015261277a816123b1565b9050919050565b6000602082019050818103600083015261279a816123d4565b9050919050565b600060208201905081810360008301526127ba816123f7565b9050919050565b600060208201905081810360008301526127da8161241a565b9050919050565b600060208201905081810360008301526127fa8161243d565b9050919050565b6000602082019050818103600083015261281a81612460565b9050919050565b6000602082019050818103600083015261283a81612483565b9050919050565b6000602082019050818103600083015261285a816124a6565b9050919050565b6000602082019050818103600083015261287a816124c9565b9050919050565b6000602082019050818103600083015261289a816124ec565b9050919050565b60006020820190506128b6600083018461251e565b92915050565b60006128c66128d7565b90506128d28282612bb8565b919050565b6000604051905090565b600067ffffffffffffffff8211156128fc576128fb612d36565b5b602082029050602081019050919050565b600067ffffffffffffffff82111561292857612927612d36565b5b602082029050919050565b600067ffffffffffffffff82111561294e5761294d612d36565b5b602082029050919050565b600067ffffffffffffffff82111561297457612973612d36565b5b61297d82612d7e565b9050602081019050919050565b6000819050919050565b600060049050919050565b600081519050919050565b6000602082019050919050565b600081905092915050565b600081905092915050565b600082825260208201905092915050565b60006129e982612b3b565b91506129f483612b3b565b9250827fffffffffffffffffffffffffffffffffffffffffffffffffffffffffffffffff03821115612a2957612a28612ca9565b5b828201905092915050565b6000612a3f82612b3b565b9150612a4a83612b3b565b925082612a5a57612a59612cd8565b5b828204905092915050565b6000612a7082612b3b565b9150612a7b83612b3b565b9250817fffffffffffffffffffffffffffffffffffffffffffffffffffffffffffffffff0483118215151615612ab457612ab3612ca9565b5b828202905092915050565b6000612aca82612b3b565b9150612ad583612b3b565b925082821015612ae857612ae7612ca9565b5b828203905092915050565b6000612afe82612b1b565b9050919050565b60008115159050919050565b6000819050919050565b600073ffffffffffffffffffffffffffffffffffffffff82169050919050565b6000819050919050565b600060ff82169050919050565b6000612b5d82612b64565b9050919050565b6000612b6f82612b1b565b9050919050565b82818337600083830152505050565b60005b83811015612ba3578082015181840152602081019050612b88565b83811115612bb2576000848401525b50505050565b612bc182612d7e565b810181811067ffffffffffffffff82111715612be057612bdf612d36565b5b80604052505050565b6000612bf482612b3b565b91507fffffffffffffffffffffffffffffffffffffffffffffffffffffffffffffffff821415612c2757612c26612ca9565b5b600182019050919050565b6000612c3d82612b45565b915060ff821415612c5157612c50612ca9565b5b600182019050919050565b6000819050919050565b6000612c7182612d8f565b9050919050565b6000612c8382612b3b565b9150612c8e83612b3b565b925082612c9e57612c9d612cd8565b5b828206905092915050565b7f4e487b7100000000000000000000000000000000000000000000000000000000600052601160045260246000fd5b7f4e487b7100000000000000000000000000000000000000000000000000000000600052601260045260246000fd5b7f4e487b7100000000000000000000000000000000000000000000000000000000600052603260045260246000fd5b7f4e487b7100000000000000000000000000000000000000000000000000000000600052604160045260246000fd5b600080fd5b600080fd5b600080fd5b600080fd5b600080fd5b6000601f19601f8301169050919050565b60008160f81b9050919050565b7f4d616c666f726d6564205652462070726f6f6600000000000000000000000000600082015250565b7f4f776e61626c653a206e6577206f776e657220697320746865207a65726f206160008201527f6464726573730000000000000000000000000000000000000000000000000000602082015250565b7f496e76616c69642043727970746f2047616d6520546f6b656e20416c6c6f776160008201527f6e63652e00000000000000000000000000000000000000000000000000000000602082015250565b7f496e76616c696420636f6d7072657373656420454320706f696e74207072656660008201527f6978000000000000000000000000000000000000000000000000000000000000602082015250565b7f557365206a6163446f75626c652066756e6374696f6e20696e73746561640000600082015250565b7f4e6f2076616c696420706f696e742077617320666f756e640000000000000000600082015250565b7f496e76616c696420526571756573742056616c756520476976656e2e00000000600082015250565b7f4f776e61626c653a2063616c6c6572206973206e6f7420746865206f776e6572600082015250565b7f4d6f64756c7573206973207a65726f0000000000000000000000000000000000600082015250565b7f496e76616c6964206e756d626572000000000000000000000000000000000000600082015250565b612fb181612af3565b8114612fbc57600080fd5b50565b612fc881612b05565b8114612fd357600080fd5b50565b612fdf81612b11565b8114612fea57600080fd5b50565b612ff681612b3b565b811461300157600080fd5b5056fea26469706673582212200b5e1fac8e73ed8ef0f599022652f1ed407039ea471f8ab2cecab71e4aae544264736f6c63430008050033",
  "immutableReferences": {
    "61": [
      {
        "length": 32,
        "start": 547
      },
      {
        "length": 32,
        "start": 1108
      },
      {
        "length": 32,
        "start": 2018
      }
    ]
  },
  "source": "pragma solidity ^0.8.5;\n\nimport \"@openzeppelin/contracts/access/Ownable.sol\";\n\nimport \"@openzeppelin/contracts/token/ERC20/IERC20.sol\";\n\nimport \"../../NFTProtocol/NFTProtocol.sol\";\n\nimport \"./CryptoMonkey.sol\";\n\nimport \"vrf-solidity/contracts/VRF.sol\";\n\nimport \"@openzeppelin/contracts/utils/Counters.sol\";\n\ncontract CryptoMonkeys is Ownable{\n\n    using Counters for Counters.Counter;\n\n    event mintRequest(address _minter, uint _id);\n\n    Counters.Counter private tokenIds;\n\n    uint public immutable mintCost;\n\n    IERC20 public CryptoGame;\n\n    NFTProtocol nftProtocol;\n\n    mapping(uint => address) monkeys;\n\n    constructor(IERC20 _CryptoGame, NFTProtocol _nftProtocol,  uint _mintCost){\n        mintCost = _mintCost;\n        CryptoGame = _CryptoGame;\n        nftProtocol = _nftProtocol;\n    }\n\n    function mint(address _receiver) external payable returns(uint _id){\n        require(CryptoGame.allowance(msg.sender, address(this)) >= mintCost, \"Invalid Crypto Game Token Allowance.\");\n        require(msg.value >= nftProtocol.getMinimumRequestValue(), \"Invalid Request Value Given.\");\n        CryptoGame.transferFrom(msg.sender, address(this), mintCost);\n\n        tokenIds.increment();\n        _id = tokenIds.current();\n\n        emit mintRequest(_receiver, _id);\n    }\n\n    function mapMonkeys(address[] memory _monkeys) external onlyOwner{\n        for(uint i = 0 ; i < _monkeys.length; i++){\n            monkeys[CryptoMonkey(_monkeys[i]).id()] = monkeys[i];\n        }\n    }\n    \n    function functionUsingVRF(\n    uint256[2] memory  _publicKey,\n    uint256[4] memory  _proof,\n    bytes memory _message)\n    public pure returns (bool)\n    {\n        return VRF.verify(_publicKey, _proof, _message);\n    }\n\n    function decodeProof(bytes memory _proof) external pure returns(uint[4] memory _decodedProof){\n        return VRF.decodeProof(_proof);\n    }\n\n}",
  "sourcePath": "/home/stephenstb/Ratio-Labs/ratio-labsV0/contracts/CryptoGame/CryptoMonkeys/CryptoMonkeys.sol",
  "compiler": {
    "name": "solc",
    "version": "0.8.5+commit.a4f2e591.Emscripten.clang"
  },
  "schemaVersion": "3.3.3",
  "updatedAt": "2022-07-17T06:49:50.652Z",
  "devdoc": {
    "kind": "dev",
    "methods": {
      "owner()": {
        "details": "Returns the address of the current owner."
      },
      "renounceOwnership()": {
        "details": "Leaves the contract without owner. It will not be possible to call `onlyOwner` functions anymore. Can only be called by the current owner. NOTE: Renouncing ownership will leave the contract without an owner, thereby removing any functionality that is only available to the owner."
      },
      "transferOwnership(address)": {
        "details": "Transfers ownership of the contract to a new account (`newOwner`). Can only be called by the current owner."
      }
    },
    "version": 1
  },
  "userdoc": {
    "kind": "user",
    "methods": {},
    "version": 1
  }
}