{
  "contractName": "CryptoMonkey",
  "abi": [
    {
      "inputs": [
        {
          "internalType": "string",
          "name": "_name",
          "type": "string"
        },
        {
          "internalType": "string",
          "name": "_symbol",
          "type": "string"
        },
        {
          "internalType": "uint256",
          "name": "_id",
          "type": "uint256"
        },
        {
          "internalType": "address",
          "name": "_reciever",
          "type": "address"
        }
      ],
      "stateMutability": "nonpayable",
      "type": "constructor"
    },
    {
      "anonymous": false,
      "inputs": [
        {
          "indexed": true,
          "internalType": "address",
          "name": "owner",
          "type": "address"
        },
        {
          "indexed": true,
          "internalType": "address",
          "name": "approved",
          "type": "address"
        },
        {
          "indexed": true,
          "internalType": "uint256",
          "name": "tokenId",
          "type": "uint256"
        }
      ],
      "name": "Approval",
      "type": "event"
    },
    {
      "anonymous": false,
      "inputs": [
        {
          "indexed": true,
          "internalType": "address",
          "name": "owner",
          "type": "address"
        },
        {
          "indexed": true,
          "internalType": "address",
          "name": "operator",
          "type": "address"
        },
        {
          "indexed": false,
          "internalType": "bool",
          "name": "approved",
          "type": "bool"
        }
      ],
      "name": "ApprovalForAll",
      "type": "event"
    },
    {
      "anonymous": false,
      "inputs": [
        {
          "indexed": true,
          "internalType": "address",
          "name": "from",
          "type": "address"
        },
        {
          "indexed": true,
          "internalType": "address",
          "name": "to",
          "type": "address"
        },
        {
          "indexed": true,
          "internalType": "uint256",
          "name": "tokenId",
          "type": "uint256"
        }
      ],
      "name": "Transfer",
      "type": "event"
    },
    {
      "inputs": [
        {
          "internalType": "address",
          "name": "to",
          "type": "address"
        },
        {
          "internalType": "uint256",
          "name": "tokenId",
          "type": "uint256"
        }
      ],
      "name": "approve",
      "outputs": [],
      "stateMutability": "nonpayable",
      "type": "function"
    },
    {
      "inputs": [],
      "name": "audio",
      "outputs": [
        {
          "internalType": "string",
          "name": "",
          "type": "string"
        }
      ],
      "stateMutability": "view",
      "type": "function"
    },
    {
      "inputs": [
        {
          "internalType": "address",
          "name": "owner",
          "type": "address"
        }
      ],
      "name": "balanceOf",
      "outputs": [
        {
          "internalType": "uint256",
          "name": "",
          "type": "uint256"
        }
      ],
      "stateMutability": "view",
      "type": "function"
    },
    {
      "inputs": [],
      "name": "baseURI",
      "outputs": [
        {
          "internalType": "string",
          "name": "",
          "type": "string"
        }
      ],
      "stateMutability": "view",
      "type": "function"
    },
    {
      "inputs": [
        {
          "internalType": "uint256",
          "name": "_tokenId",
          "type": "uint256"
        }
      ],
      "name": "burn",
      "outputs": [],
      "stateMutability": "nonpayable",
      "type": "function"
    },
    {
      "inputs": [],
      "name": "burnValue",
      "outputs": [
        {
          "internalType": "uint256",
          "name": "",
          "type": "uint256"
        }
      ],
      "stateMutability": "view",
      "type": "function"
    },
    {
      "inputs": [],
      "name": "burnable",
      "outputs": [
        {
          "internalType": "bool",
          "name": "",
          "type": "bool"
        }
      ],
      "stateMutability": "view",
      "type": "function"
    },
    {
      "inputs": [],
      "name": "claim",
      "outputs": [],
      "stateMutability": "nonpayable",
      "type": "function"
    },
    {
      "inputs": [],
      "name": "claimValue",
      "outputs": [
        {
          "internalType": "uint256",
          "name": "",
          "type": "uint256"
        }
      ],
      "stateMutability": "view",
      "type": "function"
    },
    {
      "inputs": [],
      "name": "distributor",
      "outputs": [
        {
          "internalType": "address",
          "name": "",
          "type": "address"
        }
      ],
      "stateMutability": "view",
      "type": "function"
    },
    {
      "inputs": [
        {
          "internalType": "uint256",
          "name": "tokenId",
          "type": "uint256"
        }
      ],
      "name": "getApproved",
      "outputs": [
        {
          "internalType": "address",
          "name": "",
          "type": "address"
        }
      ],
      "stateMutability": "view",
      "type": "function"
    },
    {
      "inputs": [],
      "name": "id",
      "outputs": [
        {
          "internalType": "uint256",
          "name": "",
          "type": "uint256"
        }
      ],
      "stateMutability": "view",
      "type": "function"
    },
    {
      "inputs": [],
      "name": "image",
      "outputs": [
        {
          "internalType": "string",
          "name": "",
          "type": "string"
        }
      ],
      "stateMutability": "view",
      "type": "function"
    },
    {
      "inputs": [],
      "name": "info",
      "outputs": [
        {
          "components": [
            {
              "internalType": "address",
              "name": "_distributor",
              "type": "address"
            },
            {
              "internalType": "string",
              "name": "_name",
              "type": "string"
            },
            {
              "internalType": "string",
              "name": "_base",
              "type": "string"
            },
            {
              "internalType": "string",
              "name": "_image",
              "type": "string"
            },
            {
              "internalType": "string",
              "name": "_audio",
              "type": "string"
            },
            {
              "internalType": "string",
              "name": "_video",
              "type": "string"
            },
            {
              "internalType": "string",
              "name": "_model",
              "type": "string"
            },
            {
              "internalType": "uint256",
              "name": "_mintValue",
              "type": "uint256"
            },
            {
              "internalType": "uint256",
              "name": "_maxSupply",
              "type": "uint256"
            },
            {
              "internalType": "uint256",
              "name": "_minted",
              "type": "uint256"
            },
            {
              "internalType": "uint256",
              "name": "_claimValue",
              "type": "uint256"
            },
            {
              "internalType": "uint256",
              "name": "_unclaimed",
              "type": "uint256"
            },
            {
              "internalType": "bool",
              "name": "_burnable",
              "type": "bool"
            },
            {
              "internalType": "uint256",
              "name": "_burnValue",
              "type": "uint256"
            }
          ],
          "internalType": "struct RatioSingleNFT.infoStruct",
          "name": "_info",
          "type": "tuple"
        }
      ],
      "stateMutability": "view",
      "type": "function"
    },
    {
      "inputs": [
        {
          "internalType": "address",
          "name": "owner",
          "type": "address"
        },
        {
          "internalType": "address",
          "name": "operator",
          "type": "address"
        }
      ],
      "name": "isApprovedForAll",
      "outputs": [
        {
          "internalType": "bool",
          "name": "",
          "type": "bool"
        }
      ],
      "stateMutability": "view",
      "type": "function"
    },
    {
      "inputs": [],
      "name": "maxSupply",
      "outputs": [
        {
          "internalType": "uint256",
          "name": "",
          "type": "uint256"
        }
      ],
      "stateMutability": "view",
      "type": "function"
    },
    {
      "inputs": [
        {
          "internalType": "address",
          "name": "_receiver",
          "type": "address"
        }
      ],
      "name": "mint",
      "outputs": [
        {
          "internalType": "uint256",
          "name": "_id",
          "type": "uint256"
        }
      ],
      "stateMutability": "payable",
      "type": "function"
    },
    {
      "inputs": [],
      "name": "mintValue",
      "outputs": [
        {
          "internalType": "uint256",
          "name": "",
          "type": "uint256"
        }
      ],
      "stateMutability": "view",
      "type": "function"
    },
    {
      "inputs": [],
      "name": "model",
      "outputs": [
        {
          "internalType": "string",
          "name": "",
          "type": "string"
        }
      ],
      "stateMutability": "view",
      "type": "function"
    },
    {
      "inputs": [],
      "name": "name",
      "outputs": [
        {
          "internalType": "string",
          "name": "",
          "type": "string"
        }
      ],
      "stateMutability": "view",
      "type": "function"
    },
    {
      "inputs": [
        {
          "internalType": "uint256",
          "name": "tokenId",
          "type": "uint256"
        }
      ],
      "name": "ownerOf",
      "outputs": [
        {
          "internalType": "address",
          "name": "",
          "type": "address"
        }
      ],
      "stateMutability": "view",
      "type": "function"
    },
    {
      "inputs": [
        {
          "internalType": "address",
          "name": "from",
          "type": "address"
        },
        {
          "internalType": "address",
          "name": "to",
          "type": "address"
        },
        {
          "internalType": "uint256",
          "name": "tokenId",
          "type": "uint256"
        }
      ],
      "name": "safeTransferFrom",
      "outputs": [],
      "stateMutability": "nonpayable",
      "type": "function"
    },
    {
      "inputs": [
        {
          "internalType": "address",
          "name": "from",
          "type": "address"
        },
        {
          "internalType": "address",
          "name": "to",
          "type": "address"
        },
        {
          "internalType": "uint256",
          "name": "tokenId",
          "type": "uint256"
        },
        {
          "internalType": "bytes",
          "name": "_data",
          "type": "bytes"
        }
      ],
      "name": "safeTransferFrom",
      "outputs": [],
      "stateMutability": "nonpayable",
      "type": "function"
    },
    {
      "inputs": [
        {
          "internalType": "address",
          "name": "operator",
          "type": "address"
        },
        {
          "internalType": "bool",
          "name": "approved",
          "type": "bool"
        }
      ],
      "name": "setApprovalForAll",
      "outputs": [],
      "stateMutability": "nonpayable",
      "type": "function"
    },
    {
      "inputs": [
        {
          "internalType": "string",
          "name": "_uri",
          "type": "string"
        },
        {
          "internalType": "bool",
          "name": "_ratioProtocol",
          "type": "bool"
        },
        {
          "internalType": "address",
          "name": "_protocolAddress",
          "type": "address"
        }
      ],
      "name": "setBaseURI",
      "outputs": [],
      "stateMutability": "payable",
      "type": "function"
    },
    {
      "inputs": [
        {
          "internalType": "string",
          "name": "_image",
          "type": "string"
        },
        {
          "internalType": "string",
          "name": "_audio",
          "type": "string"
        },
        {
          "internalType": "string",
          "name": "_video",
          "type": "string"
        },
        {
          "internalType": "string",
          "name": "_model",
          "type": "string"
        }
      ],
      "name": "setSubURIs",
      "outputs": [],
      "stateMutability": "nonpayable",
      "type": "function"
    },
    {
      "inputs": [
        {
          "internalType": "bytes4",
          "name": "interfaceId",
          "type": "bytes4"
        }
      ],
      "name": "supportsInterface",
      "outputs": [
        {
          "internalType": "bool",
          "name": "",
          "type": "bool"
        }
      ],
      "stateMutability": "view",
      "type": "function"
    },
    {
      "inputs": [],
      "name": "symbol",
      "outputs": [
        {
          "internalType": "string",
          "name": "",
          "type": "string"
        }
      ],
      "stateMutability": "view",
      "type": "function"
    },
    {
      "inputs": [
        {
          "internalType": "uint256",
          "name": "index",
          "type": "uint256"
        }
      ],
      "name": "tokenByIndex",
      "outputs": [
        {
          "internalType": "uint256",
          "name": "",
          "type": "uint256"
        }
      ],
      "stateMutability": "view",
      "type": "function"
    },
    {
      "inputs": [
        {
          "internalType": "address",
          "name": "owner",
          "type": "address"
        },
        {
          "internalType": "uint256",
          "name": "index",
          "type": "uint256"
        }
      ],
      "name": "tokenOfOwnerByIndex",
      "outputs": [
        {
          "internalType": "uint256",
          "name": "",
          "type": "uint256"
        }
      ],
      "stateMutability": "view",
      "type": "function"
    },
    {
      "inputs": [
        {
          "internalType": "uint256",
          "name": "tokenId",
          "type": "uint256"
        }
      ],
      "name": "tokenURI",
      "outputs": [
        {
          "internalType": "string",
          "name": "",
          "type": "string"
        }
      ],
      "stateMutability": "view",
      "type": "function"
    },
    {
      "inputs": [],
      "name": "totalSupply",
      "outputs": [
        {
          "internalType": "uint256",
          "name": "",
          "type": "uint256"
        }
      ],
      "stateMutability": "view",
      "type": "function"
    },
    {
      "inputs": [
        {
          "internalType": "address",
          "name": "from",
          "type": "address"
        },
        {
          "internalType": "address",
          "name": "to",
          "type": "address"
        },
        {
          "internalType": "uint256",
          "name": "tokenId",
          "type": "uint256"
        }
      ],
      "name": "transferFrom",
      "outputs": [],
      "stateMutability": "nonpayable",
      "type": "function"
    },
    {
      "inputs": [],
      "name": "unclaimed",
      "outputs": [
        {
          "internalType": "uint256",
          "name": "",
          "type": "uint256"
        }
      ],
      "stateMutability": "view",
      "type": "function"
    },
    {
      "inputs": [],
      "name": "video",
      "outputs": [
        {
          "internalType": "string",
          "name": "",
          "type": "string"
        }
      ],
      "stateMutability": "view",
      "type": "function"
    }
  ],
  "bytecode": "0x6101606040526000601060006101000a81548160ff0219169083151502179055506000601060016101000a81548160ff0219169083151502179055503480156200004857600080fd5b5060405162005f6938038062005f6983398181016040528101906200006e919062000d19565b838360016000806000858581600090805190602001906200009192919062000b74565b508060019080519060200190620000aa92919062000b74565b50505082821115620000bb57600080fd5b3373ffffffffffffffffffffffffffffffffffffffff1660808173ffffffffffffffffffffffffffffffffffffffff1660601b815250508360a081815250508260c081815250508160e0818152505080151561012081151560f81b8152505081836200012891906200108d565b61010081815250505050505050508161014081815250506200015181836200015b60201b60201c565b5050505062001422565b6200017d8282604051806020016040528060008152506200018160201b60201c565b5050565b620001938383620001ef60201b60201c565b620001a86000848484620003e960201b60201c565b620001ea576040517f08c379a0000000000000000000000000000000000000000000000000000000008152600401620001e19062000f1c565b60405180910390fd5b505050565b600073ffffffffffffffffffffffffffffffffffffffff168273ffffffffffffffffffffffffffffffffffffffff16141562000262576040517f08c379a0000000000000000000000000000000000000000000000000000000008152600401620002599062000f82565b60405180910390fd5b6200027381620005a360201b60201c565b15620002b6576040517f08c379a0000000000000000000000000000000000000000000000000000000008152600401620002ad9062000f3e565b60405180910390fd5b620002ca600083836200060f60201b60201c565b6001600360008473ffffffffffffffffffffffffffffffffffffffff1673ffffffffffffffffffffffffffffffffffffffff16815260200190815260200160002060008282546200031c919062001030565b92505081905550816002600083815260200190815260200160002060006101000a81548173ffffffffffffffffffffffffffffffffffffffff021916908373ffffffffffffffffffffffffffffffffffffffff160217905550808273ffffffffffffffffffffffffffffffffffffffff16600073ffffffffffffffffffffffffffffffffffffffff167fddf252ad1be2c89b69c2b068fc378daa952ba7f163c4a11628f55a4df523b3ef60405160405180910390a4620003e5600083836200075660201b60201c565b5050565b6000620004178473ffffffffffffffffffffffffffffffffffffffff166200075b60201b62001ef21760201c565b1562000596578373ffffffffffffffffffffffffffffffffffffffff1663150b7a02620004496200077e60201b60201c565b8786866040518563ffffffff1660e01b81526004016200046d949392919062000ec8565b602060405180830381600087803b1580156200048857600080fd5b505af1925050508015620004bc57506040513d601f19601f82011682018060405250810190620004b9919062000ce7565b60015b62000545573d8060008114620004ef576040519150601f19603f3d011682016040523d82523d6000602084013e620004f4565b606091505b506000815114156200053d576040517f08c379a0000000000000000000000000000000000000000000000000000000008152600401620005349062000f1c565b60405180910390fd5b805181602001fd5b63150b7a0260e01b7bffffffffffffffffffffffffffffffffffffffffffffffffffffffff1916817bffffffffffffffffffffffffffffffffffffffffffffffffffffffff1916149150506200059b565b600190505b949350505050565b60008073ffffffffffffffffffffffffffffffffffffffff166002600084815260200190815260200160002060009054906101000a900473ffffffffffffffffffffffffffffffffffffffff1673ffffffffffffffffffffffffffffffffffffffff1614159050919050565b620006278383836200078660201b62001f151760201c565b600073ffffffffffffffffffffffffffffffffffffffff168373ffffffffffffffffffffffffffffffffffffffff16141562000674576200066e816200078b60201b60201c565b620006bc565b8173ffffffffffffffffffffffffffffffffffffffff168373ffffffffffffffffffffffffffffffffffffffff1614620006bb57620006ba8382620007d460201b60201c565b5b5b600073ffffffffffffffffffffffffffffffffffffffff168273ffffffffffffffffffffffffffffffffffffffff161415620007095762000703816200095160201b60201c565b62000751565b8273ffffffffffffffffffffffffffffffffffffffff168273ffffffffffffffffffffffffffffffffffffffff161462000750576200074f828262000a2d60201b60201c565b5b5b505050565b505050565b6000808273ffffffffffffffffffffffffffffffffffffffff163b119050919050565b600033905090565b505050565b6008805490506009600083815260200190815260200160002081905550600881908060018154018082558091505060019003906000526020600020016000909190919091505550565b60006001620007ee8462000ab960201b620017a31760201c565b620007fa91906200108d565b9050600060076000848152602001908152602001600020549050818114620008e0576000600660008673ffffffffffffffffffffffffffffffffffffffff1673ffffffffffffffffffffffffffffffffffffffff168152602001908152602001600020600084815260200190815260200160002054905080600660008773ffffffffffffffffffffffffffffffffffffffff1673ffffffffffffffffffffffffffffffffffffffff168152602001908152602001600020600084815260200190815260200160002081905550816007600083815260200190815260200160002081905550505b6007600084815260200190815260200160002060009055600660008573ffffffffffffffffffffffffffffffffffffffff1673ffffffffffffffffffffffffffffffffffffffff16815260200190815260200160002060008381526020019081526020016000206000905550505050565b600060016008805490506200096791906200108d565b90506000600960008481526020019081526020016000205490506000600883815481106200099a576200099962001261565b5b906000526020600020015490508060088381548110620009bf57620009be62001261565b5b90600052602060002001819055508160096000838152602001908152602001600020819055506009600085815260200190815260200160002060009055600880548062000a115762000a1062001232565b5b6001900381819060005260206000200160009055905550505050565b600062000a458362000ab960201b620017a31760201c565b905081600660008573ffffffffffffffffffffffffffffffffffffffff1673ffffffffffffffffffffffffffffffffffffffff168152602001908152602001600020600083815260200190815260200160002081905550806007600084815260200190815260200160002081905550505050565b60008073ffffffffffffffffffffffffffffffffffffffff168273ffffffffffffffffffffffffffffffffffffffff16141562000b2d576040517f08c379a000000000000000000000000000000000000000000000000000000000815260040162000b249062000f60565b60405180910390fd5b600360008373ffffffffffffffffffffffffffffffffffffffff1673ffffffffffffffffffffffffffffffffffffffff168152602001908152602001600020549050919050565b82805462000b829062001168565b90600052602060002090601f01602090048101928262000ba6576000855562000bf2565b82601f1062000bc157805160ff191683800117855562000bf2565b8280016001018555821562000bf2579182015b8281111562000bf157825182559160200191906001019062000bd4565b5b50905062000c01919062000c05565b5090565b5b8082111562000c2057600081600090555060010162000c06565b5090565b600062000c3b62000c358462000fcd565b62000fa4565b90508281526020810184848401111562000c5a5762000c59620012c4565b5b62000c6784828562001132565b509392505050565b60008151905062000c8081620013d4565b92915050565b60008151905062000c9781620013ee565b92915050565b600082601f83011262000cb55762000cb4620012bf565b5b815162000cc784826020860162000c24565b91505092915050565b60008151905062000ce18162001408565b92915050565b60006020828403121562000d005762000cff620012ce565b5b600062000d108482850162000c86565b91505092915050565b6000806000806080858703121562000d365762000d35620012ce565b5b600085015167ffffffffffffffff81111562000d575762000d56620012c9565b5b62000d658782880162000c9d565b945050602085015167ffffffffffffffff81111562000d895762000d88620012c9565b5b62000d978782880162000c9d565b935050604062000daa8782880162000cd0565b925050606062000dbd8782880162000c6f565b91505092959194509250565b62000dd481620010c8565b82525050565b600062000de78262001003565b62000df381856200100e565b935062000e0581856020860162001132565b62000e1081620012d3565b840191505092915050565b600062000e2a6032836200101f565b915062000e3782620012e4565b604082019050919050565b600062000e51601c836200101f565b915062000e5e8262001333565b602082019050919050565b600062000e78602a836200101f565b915062000e85826200135c565b604082019050919050565b600062000e9f6020836200101f565b915062000eac82620013ab565b602082019050919050565b62000ec28162001128565b82525050565b600060808201905062000edf600083018762000dc9565b62000eee602083018662000dc9565b62000efd604083018562000eb7565b818103606083015262000f11818462000dda565b905095945050505050565b6000602082019050818103600083015262000f378162000e1b565b9050919050565b6000602082019050818103600083015262000f598162000e42565b9050919050565b6000602082019050818103600083015262000f7b8162000e69565b9050919050565b6000602082019050818103600083015262000f9d8162000e90565b9050919050565b600062000fb062000fc3565b905062000fbe82826200119e565b919050565b6000604051905090565b600067ffffffffffffffff82111562000feb5762000fea62001290565b5b62000ff682620012d3565b9050602081019050919050565b600081519050919050565b600082825260208201905092915050565b600082825260208201905092915050565b60006200103d8262001128565b91506200104a8362001128565b9250827fffffffffffffffffffffffffffffffffffffffffffffffffffffffffffffffff03821115620010825762001081620011d4565b5b828201905092915050565b60006200109a8262001128565b9150620010a78362001128565b925082821015620010bd57620010bc620011d4565b5b828203905092915050565b6000620010d58262001108565b9050919050565b60007fffffffff0000000000000000000000000000000000000000000000000000000082169050919050565b600073ffffffffffffffffffffffffffffffffffffffff82169050919050565b6000819050919050565b60005b838110156200115257808201518184015260208101905062001135565b8381111562001162576000848401525b50505050565b600060028204905060018216806200118157607f821691505b6020821081141562001198576200119762001203565b5b50919050565b620011a982620012d3565b810181811067ffffffffffffffff82111715620011cb57620011ca62001290565b5b80604052505050565b7f4e487b7100000000000000000000000000000000000000000000000000000000600052601160045260246000fd5b7f4e487b7100000000000000000000000000000000000000000000000000000000600052602260045260246000fd5b7f4e487b7100000000000000000000000000000000000000000000000000000000600052603160045260246000fd5b7f4e487b7100000000000000000000000000000000000000000000000000000000600052603260045260246000fd5b7f4e487b7100000000000000000000000000000000000000000000000000000000600052604160045260246000fd5b600080fd5b600080fd5b600080fd5b600080fd5b6000601f19601f8301169050919050565b7f4552433732313a207472616e7366657220746f206e6f6e20455243373231526560008201527f63656976657220696d706c656d656e7465720000000000000000000000000000602082015250565b7f4552433732313a20746f6b656e20616c7265616479206d696e74656400000000600082015250565b7f4552433732313a2062616c616e636520717565727920666f7220746865207a6560008201527f726f206164647265737300000000000000000000000000000000000000000000602082015250565b7f4552433732313a206d696e7420746f20746865207a65726f2061646472657373600082015250565b620013df81620010c8565b8114620013eb57600080fd5b50565b620013f981620010dc565b81146200140557600080fd5b50565b620014138162001128565b81146200141f57600080fd5b50565b60805160601c60a05160c05160e051610100516101205160f81c61014051614a7d620014ec60003960006119710152600081816110dd015281816111dc01526119130152600081816111050152818161129f01526115420152600081816110af0152818161137f015261194d0152600081816110540152818161156e015261185d01526000818161107a0152818161166f0152611dae015260008181610d3b01528181611306015281816113b5015281816119ac01528181611bae0152611c420152614a7d6000f3fe6080604052600436106102045760003560e01c8063669416b811610118578063af640d0f116100a0578063c87b56dd1161006f578063c87b56dd14610762578063d52b1f531461079f578063d5abeb01146107bb578063e985e9c5146107e6578063f3ccaac01461082357610204565b8063af640d0f146106ba578063b822fd2c146106e5578063b88d4fde1461070e578063bfe109281461073757610204565b806389c77dfe116100e757806389c77dfe146105e557806395d89b4114610610578063a07c7ce41461063b578063a22cb46514610666578063ae686b5a1461068f57610204565b8063669416b8146105225780636a6278421461054d5780636c0360eb1461057d57806370a08231146105a857610204565b80632f745c591161019b57806342966c681161016a57806342966c681461043d5780634e71d92d146104665780634f6ccce71461047d5780636352211e146104ba57806365cb14bc146104f757610204565b80632f745c5914610381578063370158ea146103be578063407d2236146103e957806342842e0e1461041457610204565b80630ad9d052116101d75780630ad9d052146102d757806311b006171461030257806318160ddd1461032d57806323b872dd1461035857610204565b806301ffc9a71461020957806306fdde0314610246578063081812fc14610271578063095ea7b3146102ae575b600080fd5b34801561021557600080fd5b50610230600480360381019061022b91906134b3565b61084e565b60405161023d9190613c85565b60405180910390f35b34801561025257600080fd5b5061025b6108c8565b6040516102689190613ca0565b60405180910390f35b34801561027d57600080fd5b5061029860048036038101906102939190613653565b61095a565b6040516102a59190613c1e565b60405180910390f35b3480156102ba57600080fd5b506102d560048036038101906102d09190613473565b6109df565b005b3480156102e357600080fd5b506102ec610af7565b6040516102f99190613ca0565b60405180910390f35b34801561030e57600080fd5b50610317610b85565b6040516103249190613ca0565b60405180910390f35b34801561033957600080fd5b50610342610c13565b60405161034f9190613fe4565b60405180910390f35b34801561036457600080fd5b5061037f600480360381019061037a919061335d565b610c20565b005b34801561038d57600080fd5b506103a860048036038101906103a39190613473565b610c80565b6040516103b59190613fe4565b60405180910390f35b3480156103ca57600080fd5b506103d3610d25565b6040516103e09190613fc2565b60405180910390f35b3480156103f557600080fd5b506103fe61112c565b60405161040b9190613ca0565b60405180910390f35b34801561042057600080fd5b5061043b6004803603810190610436919061335d565b6111ba565b005b34801561044957600080fd5b50610464600480360381019061045f9190613653565b6111da565b005b34801561047257600080fd5b5061047b6112ed565b005b34801561048957600080fd5b506104a4600480360381019061049f9190613653565b61141d565b6040516104b19190613fe4565b60405180910390f35b3480156104c657600080fd5b506104e160048036038101906104dc9190613653565b61148e565b6040516104ee9190613c1e565b60405180910390f35b34801561050357600080fd5b5061050c611540565b6040516105199190613fe4565b60405180910390f35b34801561052e57600080fd5b50610537611564565b6040516105449190613fe4565b60405180910390f35b610567600480360381019061056291906132f0565b61156a565b6040516105749190613fe4565b60405180910390f35b34801561058957600080fd5b50610592611715565b60405161059f9190613ca0565b60405180910390f35b3480156105b457600080fd5b506105cf60048036038101906105ca91906132f0565b6117a3565b6040516105dc9190613fe4565b60405180910390f35b3480156105f157600080fd5b506105fa61185b565b6040516106079190613fe4565b60405180910390f35b34801561061c57600080fd5b5061062561187f565b6040516106329190613ca0565b60405180910390f35b34801561064757600080fd5b50610650611911565b60405161065d9190613c85565b60405180910390f35b34801561067257600080fd5b5061068d60048036038101906106889190613433565b611935565b005b34801561069b57600080fd5b506106a461194b565b6040516106b19190613fe4565b60405180910390f35b3480156106c657600080fd5b506106cf61196f565b6040516106dc9190613fe4565b60405180910390f35b3480156106f157600080fd5b5061070c6004803603810190610707919061357c565b611993565b005b34801561071a57600080fd5b50610735600480360381019061073091906133b0565b611b4a565b005b34801561074357600080fd5b5061074c611bac565b6040516107599190613c1e565b60405180910390f35b34801561076e57600080fd5b5061078960048036038101906107849190613653565b611bd0565b6040516107969190613ca0565b60405180910390f35b6107b960048036038101906107b4919061350d565b611c29565b005b3480156107c757600080fd5b506107d0611dac565b6040516107dd9190613fe4565b60405180910390f35b3480156107f257600080fd5b5061080d6004803603810190610808919061331d565b611dd0565b60405161081a9190613c85565b60405180910390f35b34801561082f57600080fd5b50610838611e64565b6040516108459190613ca0565b60405180910390f35b60007f780e9d63000000000000000000000000000000000000000000000000000000007bffffffffffffffffffffffffffffffffffffffffffffffffffffffff1916827bffffffffffffffffffffffffffffffffffffffffffffffffffffffff191614806108c157506108c082611f1a565b5b9050919050565b6060600080546108d790614269565b80601f016020809104026020016040519081016040528092919081815260200182805461090390614269565b80156109505780601f1061092557610100808354040283529160200191610950565b820191906000526020600020905b81548152906001019060200180831161093357829003601f168201915b5050505050905090565b600061096582611ffc565b6109a4576040517f08c379a000000000000000000000000000000000000000000000000000000000815260040161099b90613e82565b60405180910390fd5b6004600083815260200190815260200160002060009054906101000a900473ffffffffffffffffffffffffffffffffffffffff169050919050565b60006109ea8261148e565b90508073ffffffffffffffffffffffffffffffffffffffff168373ffffffffffffffffffffffffffffffffffffffff161415610a5b576040517f08c379a0000000000000000000000000000000000000000000000000000000008152600401610a5290613ee2565b60405180910390fd5b8073ffffffffffffffffffffffffffffffffffffffff16610a7a612068565b73ffffffffffffffffffffffffffffffffffffffff161480610aa95750610aa881610aa3612068565b611dd0565b5b610ae8576040517f08c379a0000000000000000000000000000000000000000000000000000000008152600401610adf90613de2565b60405180910390fd5b610af28383612070565b505050565b600f8054610b0490614269565b80601f0160208091040260200160405190810160405280929190818152602001828054610b3090614269565b8015610b7d5780601f10610b5257610100808354040283529160200191610b7d565b820191906000526020600020905b815481529060010190602001808311610b6057829003601f168201915b505050505081565b600e8054610b9290614269565b80601f0160208091040260200160405190810160405280929190818152602001828054610bbe90614269565b8015610c0b5780601f10610be057610100808354040283529160200191610c0b565b820191906000526020600020905b815481529060010190602001808311610bee57829003601f168201915b505050505081565b6000600880549050905090565b610c31610c2b612068565b82612129565b610c70576040517f08c379a0000000000000000000000000000000000000000000000000000000008152600401610c6790613f22565b60405180910390fd5b610c7b838383612207565b505050565b6000610c8b836117a3565b8210610ccc576040517f08c379a0000000000000000000000000000000000000000000000000000000008152600401610cc390613ce2565b60405180910390fd5b600660008473ffffffffffffffffffffffffffffffffffffffff1673ffffffffffffffffffffffffffffffffffffffff168152602001908152602001600020600083815260200190815260200160002054905092915050565b610d2d61307d565b604051806101c001604052807f000000000000000000000000000000000000000000000000000000000000000073ffffffffffffffffffffffffffffffffffffffff168152602001610d7d6108c8565b8152602001600b8054610d8f90614269565b80601f0160208091040260200160405190810160405280929190818152602001828054610dbb90614269565b8015610e085780601f10610ddd57610100808354040283529160200191610e08565b820191906000526020600020905b815481529060010190602001808311610deb57829003601f168201915b50505050508152602001600c8054610e1f90614269565b80601f0160208091040260200160405190810160405280929190818152602001828054610e4b90614269565b8015610e985780601f10610e6d57610100808354040283529160200191610e98565b820191906000526020600020905b815481529060010190602001808311610e7b57829003601f168201915b50505050508152602001600d8054610eaf90614269565b80601f0160208091040260200160405190810160405280929190818152602001828054610edb90614269565b8015610f285780601f10610efd57610100808354040283529160200191610f28565b820191906000526020600020905b815481529060010190602001808311610f0b57829003601f168201915b50505050508152602001600e8054610f3f90614269565b80601f0160208091040260200160405190810160405280929190818152602001828054610f6b90614269565b8015610fb85780601f10610f8d57610100808354040283529160200191610fb8565b820191906000526020600020905b815481529060010190602001808311610f9b57829003601f168201915b50505050508152602001600f8054610fcf90614269565b80601f0160208091040260200160405190810160405280929190818152602001828054610ffb90614269565b80156110485780601f1061101d57610100808354040283529160200191611048565b820191906000526020600020905b81548152906001019060200180831161102b57829003601f168201915b505050505081526020017f000000000000000000000000000000000000000000000000000000000000000081526020017f000000000000000000000000000000000000000000000000000000000000000081526020016110a8601161246e565b81526020017f00000000000000000000000000000000000000000000000000000000000000008152602001600a5481526020017f0000000000000000000000000000000000000000000000000000000000000000151581526020017f0000000000000000000000000000000000000000000000000000000000000000815250905090565b600d805461113990614269565b80601f016020809104026020016040519081016040528092919081815260200182805461116590614269565b80156111b25780601f10611187576101008083540402835291602001916111b2565b820191906000526020600020905b81548152906001019060200180831161119557829003601f168201915b505050505081565b6111d583838360405180602001604052806000815250611b4a565b505050565b7f000000000000000000000000000000000000000000000000000000000000000061123a576040517f08c379a000000000000000000000000000000000000000000000000000000000815260040161123190613f82565b60405180910390fd5b3373ffffffffffffffffffffffffffffffffffffffff1661125a8261148e565b73ffffffffffffffffffffffffffffffffffffffff161461127a57600080fd5b6112838161247c565b3373ffffffffffffffffffffffffffffffffffffffff166108fc7f00000000000000000000000000000000000000000000000000000000000000009081150290604051600060405180830381858888f193505050501580156112e9573d6000803e3d6000fd5b5050565b3373ffffffffffffffffffffffffffffffffffffffff167f000000000000000000000000000000000000000000000000000000000000000073ffffffffffffffffffffffffffffffffffffffff161461137b576040517f08c379a000000000000000000000000000000000000000000000000000000000815260040161137290613fa2565b60405180910390fd5b60007f0000000000000000000000000000000000000000000000000000000000000000600a546113ab9190614125565b9050600a600090557f000000000000000000000000000000000000000000000000000000000000000073ffffffffffffffffffffffffffffffffffffffff166108fc829081150290604051600060405180830381858888f19350505050158015611419573d6000803e3d6000fd5b5050565b6000611427610c13565b8210611468576040517f08c379a000000000000000000000000000000000000000000000000000000000815260040161145f90613f42565b60405180910390fd5b6008828154811061147c5761147b6143a2565b5b90600052602060002001549050919050565b6000806002600084815260200190815260200160002060009054906101000a900473ffffffffffffffffffffffffffffffffffffffff169050600073ffffffffffffffffffffffffffffffffffffffff168173ffffffffffffffffffffffffffffffffffffffff161415611537576040517f08c379a000000000000000000000000000000000000000000000000000000000815260040161152e90613e22565b60405180910390fd5b80915050919050565b7f000000000000000000000000000000000000000000000000000000000000000081565b600a5481565b60007f00000000000000000000000000000000000000000000000000000000000000003410156115cf576040517f08c379a00000000000000000000000000000000000000000000000000000000081526004016115c690613f02565b60405180910390fd5b601060009054906101000a900460ff1661161e576040517f08c379a000000000000000000000000000000000000000000000000000000000815260040161161590613e62565b60405180910390fd5b601060019054906101000a900460ff1661166d576040517f08c379a000000000000000000000000000000000000000000000000000000000815260040161166490613e62565b60405180910390fd5b7f0000000000000000000000000000000000000000000000000000000000000000611698601161246e565b106116d8576040517f08c379a00000000000000000000000000000000000000000000000000000000081526004016116cf90613ea2565b60405180910390fd5b600a60008154809291906116eb906142cc565b91905055506116fa6011612599565b611704601161246e565b905061171082826125af565b919050565b600b805461172290614269565b80601f016020809104026020016040519081016040528092919081815260200182805461174e90614269565b801561179b5780601f106117705761010080835404028352916020019161179b565b820191906000526020600020905b81548152906001019060200180831161177e57829003601f168201915b505050505081565b60008073ffffffffffffffffffffffffffffffffffffffff168273ffffffffffffffffffffffffffffffffffffffff161415611814576040517f08c379a000000000000000000000000000000000000000000000000000000000815260040161180b90613e02565b60405180910390fd5b600360008373ffffffffffffffffffffffffffffffffffffffff1673ffffffffffffffffffffffffffffffffffffffff168152602001908152602001600020549050919050565b7f000000000000000000000000000000000000000000000000000000000000000081565b60606001805461188e90614269565b80601f01602080910402602001604051908101604052809291908181526020018280546118ba90614269565b80156119075780601f106118dc57610100808354040283529160200191611907565b820191906000526020600020905b8154815290600101906020018083116118ea57829003601f168201915b5050505050905090565b7f000000000000000000000000000000000000000000000000000000000000000081565b611947611940612068565b83836125cd565b5050565b7f000000000000000000000000000000000000000000000000000000000000000081565b7f000000000000000000000000000000000000000000000000000000000000000081565b3373ffffffffffffffffffffffffffffffffffffffff167f000000000000000000000000000000000000000000000000000000000000000073ffffffffffffffffffffffffffffffffffffffff1614611a21576040517f08c379a0000000000000000000000000000000000000000000000000000000008152600401611a1890613fa2565b60405180910390fd5b60011515601060009054906101000a900460ff16151514611a77576040517f08c379a0000000000000000000000000000000000000000000000000000000008152600401611a6e90613da2565b60405180910390fd5b60001515601060019054906101000a900460ff16151514611acd576040517f08c379a0000000000000000000000000000000000000000000000000000000008152600401611ac490613cc2565b60405180910390fd5b83600c9080519060200190611ae3929190613104565b5082600d9080519060200190611afa929190613104565b5081600e9080519060200190611b11929190613104565b5080600f9080519060200190611b28929190613104565b506001601060016101000a81548160ff02191690831515021790555050505050565b611b5b611b55612068565b83612129565b611b9a576040517f08c379a0000000000000000000000000000000000000000000000000000000008152600401611b9190613f22565b60405180910390fd5b611ba68484848461273a565b50505050565b7f000000000000000000000000000000000000000000000000000000000000000081565b6060611bdb82611ffc565b611c1a576040517f08c379a0000000000000000000000000000000000000000000000000000000008152600401611c1190613ec2565b60405180910390fd5b611c22612796565b9050919050565b3373ffffffffffffffffffffffffffffffffffffffff167f000000000000000000000000000000000000000000000000000000000000000073ffffffffffffffffffffffffffffffffffffffff1614611cb7576040517f08c379a0000000000000000000000000000000000000000000000000000000008152600401611cae90613fa2565b60405180910390fd5b60001515601060009054906101000a900460ff16151514611d0d576040517f08c379a0000000000000000000000000000000000000000000000000000000008152600401611d0490613f62565b60405180910390fd5b82600b9080519060200190611d23929190613104565b508115611d8c578073ffffffffffffffffffffffffffffffffffffffff166307ec3039346040518263ffffffff1660e01b81526004016000604051808303818588803b158015611d7257600080fd5b505af1158015611d86573d6000803e3d6000fd5b50505050505b6001601060006101000a81548160ff021916908315150217905550505050565b7f000000000000000000000000000000000000000000000000000000000000000081565b6000600560008473ffffffffffffffffffffffffffffffffffffffff1673ffffffffffffffffffffffffffffffffffffffff16815260200190815260200160002060008373ffffffffffffffffffffffffffffffffffffffff1673ffffffffffffffffffffffffffffffffffffffff16815260200190815260200160002060009054906101000a900460ff16905092915050565b600c8054611e7190614269565b80601f0160208091040260200160405190810160405280929190818152602001828054611e9d90614269565b8015611eea5780601f10611ebf57610100808354040283529160200191611eea565b820191906000526020600020905b815481529060010190602001808311611ecd57829003601f168201915b505050505081565b6000808273ffffffffffffffffffffffffffffffffffffffff163b119050919050565b505050565b60007f80ac58cd000000000000000000000000000000000000000000000000000000007bffffffffffffffffffffffffffffffffffffffffffffffffffffffff1916827bffffffffffffffffffffffffffffffffffffffffffffffffffffffff19161480611fe557507f5b5e139f000000000000000000000000000000000000000000000000000000007bffffffffffffffffffffffffffffffffffffffffffffffffffffffff1916827bffffffffffffffffffffffffffffffffffffffffffffffffffffffff1916145b80611ff55750611ff482612828565b5b9050919050565b60008073ffffffffffffffffffffffffffffffffffffffff166002600084815260200190815260200160002060009054906101000a900473ffffffffffffffffffffffffffffffffffffffff1673ffffffffffffffffffffffffffffffffffffffff1614159050919050565b600033905090565b816004600083815260200190815260200160002060006101000a81548173ffffffffffffffffffffffffffffffffffffffff021916908373ffffffffffffffffffffffffffffffffffffffff160217905550808273ffffffffffffffffffffffffffffffffffffffff166120e38361148e565b73ffffffffffffffffffffffffffffffffffffffff167f8c5be1e5ebec7d5bd14f71427d1e84f3dd0314c0f7b2291e5b200ac8c7c3b92560405160405180910390a45050565b600061213482611ffc565b612173576040517f08c379a000000000000000000000000000000000000000000000000000000000815260040161216a90613dc2565b60405180910390fd5b600061217e8361148e565b90508073ffffffffffffffffffffffffffffffffffffffff168473ffffffffffffffffffffffffffffffffffffffff1614806121c057506121bf8185611dd0565b5b806121fe57508373ffffffffffffffffffffffffffffffffffffffff166121e68461095a565b73ffffffffffffffffffffffffffffffffffffffff16145b91505092915050565b8273ffffffffffffffffffffffffffffffffffffffff166122278261148e565b73ffffffffffffffffffffffffffffffffffffffff161461227d576040517f08c379a000000000000000000000000000000000000000000000000000000000815260040161227490613d22565b60405180910390fd5b600073ffffffffffffffffffffffffffffffffffffffff168273ffffffffffffffffffffffffffffffffffffffff1614156122ed576040517f08c379a00000000000000000000000000000000000000000000000000000000081526004016122e490613d62565b60405180910390fd5b6122f8838383612892565b612303600082612070565b6001600360008573ffffffffffffffffffffffffffffffffffffffff1673ffffffffffffffffffffffffffffffffffffffff1681526020019081526020016000206000828254612353919061417f565b925050819055506001600360008473ffffffffffffffffffffffffffffffffffffffff1673ffffffffffffffffffffffffffffffffffffffff16815260200190815260200160002060008282546123aa91906140cf565b92505081905550816002600083815260200190815260200160002060006101000a81548173ffffffffffffffffffffffffffffffffffffffff021916908373ffffffffffffffffffffffffffffffffffffffff160217905550808273ffffffffffffffffffffffffffffffffffffffff168473ffffffffffffffffffffffffffffffffffffffff167fddf252ad1be2c89b69c2b068fc378daa952ba7f163c4a11628f55a4df523b3ef60405160405180910390a46124698383836129a6565b505050565b600081600001549050919050565b60006124878261148e565b905061249581600084612892565b6124a0600083612070565b6001600360008373ffffffffffffffffffffffffffffffffffffffff1673ffffffffffffffffffffffffffffffffffffffff16815260200190815260200160002060008282546124f0919061417f565b925050819055506002600083815260200190815260200160002060006101000a81549073ffffffffffffffffffffffffffffffffffffffff021916905581600073ffffffffffffffffffffffffffffffffffffffff168273ffffffffffffffffffffffffffffffffffffffff167fddf252ad1be2c89b69c2b068fc378daa952ba7f163c4a11628f55a4df523b3ef60405160405180910390a4612595816000846129a6565b5050565b6001816000016000828254019250508190555050565b6125c98282604051806020016040528060008152506129ab565b5050565b8173ffffffffffffffffffffffffffffffffffffffff168373ffffffffffffffffffffffffffffffffffffffff16141561263c576040517f08c379a000000000000000000000000000000000000000000000000000000000815260040161263390613d82565b60405180910390fd5b80600560008573ffffffffffffffffffffffffffffffffffffffff1673ffffffffffffffffffffffffffffffffffffffff16815260200190815260200160002060008473ffffffffffffffffffffffffffffffffffffffff1673ffffffffffffffffffffffffffffffffffffffff16815260200190815260200160002060006101000a81548160ff0219169083151502179055508173ffffffffffffffffffffffffffffffffffffffff168373ffffffffffffffffffffffffffffffffffffffff167f17307eab39ab6107e8899845ad3d59bd9653f200f220920489ca2b5937696c318360405161272d9190613c85565b60405180910390a3505050565b612745848484612207565b61275184848484612a06565b612790576040517f08c379a000000000000000000000000000000000000000000000000000000000815260040161278790613d02565b60405180910390fd5b50505050565b6060600b80546127a590614269565b80601f01602080910402602001604051908101604052809291908181526020018280546127d190614269565b801561281e5780601f106127f35761010080835404028352916020019161281e565b820191906000526020600020905b81548152906001019060200180831161280157829003601f168201915b5050505050905090565b60007f01ffc9a7000000000000000000000000000000000000000000000000000000007bffffffffffffffffffffffffffffffffffffffffffffffffffffffff1916827bffffffffffffffffffffffffffffffffffffffffffffffffffffffff1916149050919050565b61289d838383611f15565b600073ffffffffffffffffffffffffffffffffffffffff168373ffffffffffffffffffffffffffffffffffffffff1614156128e0576128db81612b9d565b61291f565b8173ffffffffffffffffffffffffffffffffffffffff168373ffffffffffffffffffffffffffffffffffffffff161461291e5761291d8382612be6565b5b5b600073ffffffffffffffffffffffffffffffffffffffff168273ffffffffffffffffffffffffffffffffffffffff1614156129625761295d81612d53565b6129a1565b8273ffffffffffffffffffffffffffffffffffffffff168273ffffffffffffffffffffffffffffffffffffffff16146129a05761299f8282612e24565b5b5b505050565b505050565b6129b58383612ea3565b6129c26000848484612a06565b612a01576040517f08c379a00000000000000000000000000000000000000000000000000000000081526004016129f890613d02565b60405180910390fd5b505050565b6000612a278473ffffffffffffffffffffffffffffffffffffffff16611ef2565b15612b90578373ffffffffffffffffffffffffffffffffffffffff1663150b7a02612a50612068565b8786866040518563ffffffff1660e01b8152600401612a729493929190613c39565b602060405180830381600087803b158015612a8c57600080fd5b505af1925050508015612abd57506040513d601f19601f82011682018060405250810190612aba91906134e0565b60015b612b40573d8060008114612aed576040519150601f19603f3d011682016040523d82523d6000602084013e612af2565b606091505b50600081511415612b38576040517f08c379a0000000000000000000000000000000000000000000000000000000008152600401612b2f90613d02565b60405180910390fd5b805181602001fd5b63150b7a0260e01b7bffffffffffffffffffffffffffffffffffffffffffffffffffffffff1916817bffffffffffffffffffffffffffffffffffffffffffffffffffffffff191614915050612b95565b600190505b949350505050565b6008805490506009600083815260200190815260200160002081905550600881908060018154018082558091505060019003906000526020600020016000909190919091505550565b60006001612bf3846117a3565b612bfd919061417f565b9050600060076000848152602001908152602001600020549050818114612ce2576000600660008673ffffffffffffffffffffffffffffffffffffffff1673ffffffffffffffffffffffffffffffffffffffff168152602001908152602001600020600084815260200190815260200160002054905080600660008773ffffffffffffffffffffffffffffffffffffffff1673ffffffffffffffffffffffffffffffffffffffff168152602001908152602001600020600084815260200190815260200160002081905550816007600083815260200190815260200160002081905550505b6007600084815260200190815260200160002060009055600660008573ffffffffffffffffffffffffffffffffffffffff1673ffffffffffffffffffffffffffffffffffffffff16815260200190815260200160002060008381526020019081526020016000206000905550505050565b60006001600880549050612d67919061417f565b9050600060096000848152602001908152602001600020549050600060088381548110612d9757612d966143a2565b5b906000526020600020015490508060088381548110612db957612db86143a2565b5b906000526020600020018190555081600960008381526020019081526020016000208190555060096000858152602001908152602001600020600090556008805480612e0857612e07614373565b5b6001900381819060005260206000200160009055905550505050565b6000612e2f836117a3565b905081600660008573ffffffffffffffffffffffffffffffffffffffff1673ffffffffffffffffffffffffffffffffffffffff168152602001908152602001600020600083815260200190815260200160002081905550806007600084815260200190815260200160002081905550505050565b600073ffffffffffffffffffffffffffffffffffffffff168273ffffffffffffffffffffffffffffffffffffffff161415612f13576040517f08c379a0000000000000000000000000000000000000000000000000000000008152600401612f0a90613e42565b60405180910390fd5b612f1c81611ffc565b15612f5c576040517f08c379a0000000000000000000000000000000000000000000000000000000008152600401612f5390613d42565b60405180910390fd5b612f6860008383612892565b6001600360008473ffffffffffffffffffffffffffffffffffffffff1673ffffffffffffffffffffffffffffffffffffffff1681526020019081526020016000206000828254612fb891906140cf565b92505081905550816002600083815260200190815260200160002060006101000a81548173ffffffffffffffffffffffffffffffffffffffff021916908373ffffffffffffffffffffffffffffffffffffffff160217905550808273ffffffffffffffffffffffffffffffffffffffff16600073ffffffffffffffffffffffffffffffffffffffff167fddf252ad1be2c89b69c2b068fc378daa952ba7f163c4a11628f55a4df523b3ef60405160405180910390a4613079600083836129a6565b5050565b604051806101c00160405280600073ffffffffffffffffffffffffffffffffffffffff1681526020016060815260200160608152602001606081526020016060815260200160608152602001606081526020016000815260200160008152602001600081526020016000815260200160008152602001600015158152602001600081525090565b82805461311090614269565b90600052602060002090601f0160209004810192826131325760008555613179565b82601f1061314b57805160ff1916838001178555613179565b82800160010185558215613179579182015b8281111561317857825182559160200191906001019061315d565b5b509050613186919061318a565b5090565b5b808211156131a357600081600090555060010161318b565b5090565b60006131ba6131b584614024565b613fff565b9050828152602081018484840111156131d6576131d5614405565b5b6131e1848285614227565b509392505050565b60006131fc6131f784614055565b613fff565b90508281526020810184848401111561321857613217614405565b5b613223848285614227565b509392505050565b60008135905061323a816149eb565b92915050565b60008135905061324f81614a02565b92915050565b60008135905061326481614a19565b92915050565b60008151905061327981614a19565b92915050565b600082601f83011261329457613293614400565b5b81356132a48482602086016131a7565b91505092915050565b600082601f8301126132c2576132c1614400565b5b81356132d28482602086016131e9565b91505092915050565b6000813590506132ea81614a30565b92915050565b6000602082840312156133065761330561440f565b5b60006133148482850161322b565b91505092915050565b600080604083850312156133345761333361440f565b5b60006133428582860161322b565b92505060206133538582860161322b565b9150509250929050565b6000806000606084860312156133765761337561440f565b5b60006133848682870161322b565b93505060206133958682870161322b565b92505060406133a6868287016132db565b9150509250925092565b600080600080608085870312156133ca576133c961440f565b5b60006133d88782880161322b565b94505060206133e98782880161322b565b93505060406133fa878288016132db565b925050606085013567ffffffffffffffff81111561341b5761341a61440a565b5b6134278782880161327f565b91505092959194509250565b6000806040838503121561344a5761344961440f565b5b60006134588582860161322b565b925050602061346985828601613240565b9150509250929050565b6000806040838503121561348a5761348961440f565b5b60006134988582860161322b565b92505060206134a9858286016132db565b9150509250929050565b6000602082840312156134c9576134c861440f565b5b60006134d784828501613255565b91505092915050565b6000602082840312156134f6576134f561440f565b5b60006135048482850161326a565b91505092915050565b6000806000606084860312156135265761352561440f565b5b600084013567ffffffffffffffff8111156135445761354361440a565b5b613550868287016132ad565b935050602061356186828701613240565b92505060406135728682870161322b565b9150509250925092565b600080600080608085870312156135965761359561440f565b5b600085013567ffffffffffffffff8111156135b4576135b361440a565b5b6135c0878288016132ad565b945050602085013567ffffffffffffffff8111156135e1576135e061440a565b5b6135ed878288016132ad565b935050604085013567ffffffffffffffff81111561360e5761360d61440a565b5b61361a878288016132ad565b925050606085013567ffffffffffffffff81111561363b5761363a61440a565b5b613647878288016132ad565b91505092959194509250565b6000602082840312156136695761366861440f565b5b6000613677848285016132db565b91505092915050565b613689816141b3565b82525050565b613698816141b3565b82525050565b6136a7816141c5565b82525050565b6136b6816141c5565b82525050565b60006136c782614086565b6136d1818561409c565b93506136e1818560208601614236565b6136ea81614414565b840191505092915050565b600061370082614091565b61370a81856140ad565b935061371a818560208601614236565b61372381614414565b840191505092915050565b600061373982614091565b61374381856140be565b9350613753818560208601614236565b61375c81614414565b840191505092915050565b6000613774601f836140be565b915061377f82614425565b602082019050919050565b6000613797602b836140be565b91506137a28261444e565b604082019050919050565b60006137ba6032836140be565b91506137c58261449d565b604082019050919050565b60006137dd6025836140be565b91506137e8826144ec565b604082019050919050565b6000613800601c836140be565b915061380b8261453b565b602082019050919050565b60006138236024836140be565b915061382e82614564565b604082019050919050565b60006138466019836140be565b9150613851826145b3565b602082019050919050565b6000613869601a836140be565b9150613874826145dc565b602082019050919050565b600061388c602c836140be565b915061389782614605565b604082019050919050565b60006138af6038836140be565b91506138ba82614654565b604082019050919050565b60006138d2602a836140be565b91506138dd826146a3565b604082019050919050565b60006138f56029836140be565b9150613900826146f2565b604082019050919050565b60006139186020836140be565b915061392382614741565b602082019050919050565b600061393b6017836140be565b91506139468261476a565b602082019050919050565b600061395e602c836140be565b915061396982614793565b604082019050919050565b60006139816015836140be565b915061398c826147e2565b602082019050919050565b60006139a4602f836140be565b91506139af8261480b565b604082019050919050565b60006139c76021836140be565b91506139d28261485a565b604082019050919050565b60006139ea6019836140be565b91506139f5826148a9565b602082019050919050565b6000613a0d6031836140be565b9150613a18826148d2565b604082019050919050565b6000613a30602c836140be565b9150613a3b82614921565b604082019050919050565b6000613a53601e836140be565b9150613a5e82614970565b602082019050919050565b6000613a766019836140be565b9150613a8182614999565b602082019050919050565b6000613a99601c836140be565b9150613aa4826149c2565b602082019050919050565b60006101c083016000830151613ac86000860182613680565b5060208301518482036020860152613ae082826136f5565b91505060408301518482036040860152613afa82826136f5565b91505060608301518482036060860152613b1482826136f5565b91505060808301518482036080860152613b2e82826136f5565b91505060a083015184820360a0860152613b4882826136f5565b91505060c083015184820360c0860152613b6282826136f5565b91505060e0830151613b7760e0860182613c00565b50610100830151613b8c610100860182613c00565b50610120830151613ba1610120860182613c00565b50610140830151613bb6610140860182613c00565b50610160830151613bcb610160860182613c00565b50610180830151613be061018086018261369e565b506101a0830151613bf56101a0860182613c00565b508091505092915050565b613c098161421d565b82525050565b613c188161421d565b82525050565b6000602082019050613c33600083018461368f565b92915050565b6000608082019050613c4e600083018761368f565b613c5b602083018661368f565b613c686040830185613c0f565b8181036060830152613c7a81846136bc565b905095945050505050565b6000602082019050613c9a60008301846136ad565b92915050565b60006020820190508181036000830152613cba818461372e565b905092915050565b60006020820190508181036000830152613cdb81613767565b9050919050565b60006020820190508181036000830152613cfb8161378a565b9050919050565b60006020820190508181036000830152613d1b816137ad565b9050919050565b60006020820190508181036000830152613d3b816137d0565b9050919050565b60006020820190508181036000830152613d5b816137f3565b9050919050565b60006020820190508181036000830152613d7b81613816565b9050919050565b60006020820190508181036000830152613d9b81613839565b9050919050565b60006020820190508181036000830152613dbb8161385c565b9050919050565b60006020820190508181036000830152613ddb8161387f565b9050919050565b60006020820190508181036000830152613dfb816138a2565b9050919050565b60006020820190508181036000830152613e1b816138c5565b9050919050565b60006020820190508181036000830152613e3b816138e8565b9050919050565b60006020820190508181036000830152613e5b8161390b565b9050919050565b60006020820190508181036000830152613e7b8161392e565b9050919050565b60006020820190508181036000830152613e9b81613951565b9050919050565b60006020820190508181036000830152613ebb81613974565b9050919050565b60006020820190508181036000830152613edb81613997565b9050919050565b60006020820190508181036000830152613efb816139ba565b9050919050565b60006020820190508181036000830152613f1b816139dd565b9050919050565b60006020820190508181036000830152613f3b81613a00565b9050919050565b60006020820190508181036000830152613f5b81613a23565b9050919050565b60006020820190508181036000830152613f7b81613a46565b9050919050565b60006020820190508181036000830152613f9b81613a69565b9050919050565b60006020820190508181036000830152613fbb81613a8c565b9050919050565b60006020820190508181036000830152613fdc8184613aaf565b905092915050565b6000602082019050613ff96000830184613c0f565b92915050565b600061400961401a565b9050614015828261429b565b919050565b6000604051905090565b600067ffffffffffffffff82111561403f5761403e6143d1565b5b61404882614414565b9050602081019050919050565b600067ffffffffffffffff8211156140705761406f6143d1565b5b61407982614414565b9050602081019050919050565b600081519050919050565b600081519050919050565b600082825260208201905092915050565b600082825260208201905092915050565b600082825260208201905092915050565b60006140da8261421d565b91506140e58361421d565b9250827fffffffffffffffffffffffffffffffffffffffffffffffffffffffffffffffff0382111561411a57614119614315565b5b828201905092915050565b60006141308261421d565b915061413b8361421d565b9250817fffffffffffffffffffffffffffffffffffffffffffffffffffffffffffffffff048311821515161561417457614173614315565b5b828202905092915050565b600061418a8261421d565b91506141958361421d565b9250828210156141a8576141a7614315565b5b828203905092915050565b60006141be826141fd565b9050919050565b60008115159050919050565b60007fffffffff0000000000000000000000000000000000000000000000000000000082169050919050565b600073ffffffffffffffffffffffffffffffffffffffff82169050919050565b6000819050919050565b82818337600083830152505050565b60005b83811015614254578082015181840152602081019050614239565b83811115614263576000848401525b50505050565b6000600282049050600182168061428157607f821691505b6020821081141561429557614294614344565b5b50919050565b6142a482614414565b810181811067ffffffffffffffff821117156142c3576142c26143d1565b5b80604052505050565b60006142d78261421d565b91507fffffffffffffffffffffffffffffffffffffffffffffffffffffffffffffffff82141561430a57614309614315565b5b600182019050919050565b7f4e487b7100000000000000000000000000000000000000000000000000000000600052601160045260246000fd5b7f4e487b7100000000000000000000000000000000000000000000000000000000600052602260045260246000fd5b7f4e487b7100000000000000000000000000000000000000000000000000000000600052603160045260246000fd5b7f4e487b7100000000000000000000000000000000000000000000000000000000600052603260045260246000fd5b7f4e487b7100000000000000000000000000000000000000000000000000000000600052604160045260246000fd5b600080fd5b600080fd5b600080fd5b600080fd5b6000601f19601f8301169050919050565b7f5375622055524973206861766520616c7265616479206265656e207365742e00600082015250565b7f455243373231456e756d657261626c653a206f776e657220696e646578206f7560008201527f74206f6620626f756e6473000000000000000000000000000000000000000000602082015250565b7f4552433732313a207472616e7366657220746f206e6f6e20455243373231526560008201527f63656976657220696d706c656d656e7465720000000000000000000000000000602082015250565b7f4552433732313a207472616e736665722066726f6d20696e636f72726563742060008201527f6f776e6572000000000000000000000000000000000000000000000000000000602082015250565b7f4552433732313a20746f6b656e20616c7265616479206d696e74656400000000600082015250565b7f4552433732313a207472616e7366657220746f20746865207a65726f2061646460008201527f7265737300000000000000000000000000000000000000000000000000000000602082015250565b7f4552433732313a20617070726f766520746f2063616c6c657200000000000000600082015250565b7f426173652055524920686173206e6f74206265656e207365742e000000000000600082015250565b7f4552433732313a206f70657261746f7220717565727920666f72206e6f6e657860008201527f697374656e7420746f6b656e0000000000000000000000000000000000000000602082015250565b7f4552433732313a20617070726f76652063616c6c6572206973206e6f74206f7760008201527f6e6572206e6f7220617070726f76656420666f7220616c6c0000000000000000602082015250565b7f4552433732313a2062616c616e636520717565727920666f7220746865207a6560008201527f726f206164647265737300000000000000000000000000000000000000000000602082015250565b7f4552433732313a206f776e657220717565727920666f72206e6f6e657869737460008201527f656e7420746f6b656e0000000000000000000000000000000000000000000000602082015250565b7f4552433732313a206d696e7420746f20746865207a65726f2061646472657373600082015250565b7f4e4654206973206e6f7420696e697469616c697a65642e000000000000000000600082015250565b7f4552433732313a20617070726f76656420717565727920666f72206e6f6e657860008201527f697374656e7420746f6b656e0000000000000000000000000000000000000000602082015250565b7f4d696e74696e67206861732066696e69736865642e0000000000000000000000600082015250565b7f4552433732314d657461646174613a2055524920717565727920666f72206e6f60008201527f6e6578697374656e7420746f6b656e0000000000000000000000000000000000602082015250565b7f4552433732313a20617070726f76616c20746f2063757272656e74206f776e6560008201527f7200000000000000000000000000000000000000000000000000000000000000602082015250565b7f496e76616c6964206d696e742076616c756520676976656e2e00000000000000600082015250565b7f4552433732313a207472616e736665722063616c6c6572206973206e6f74206f60008201527f776e6572206e6f7220617070726f766564000000000000000000000000000000602082015250565b7f455243373231456e756d657261626c653a20676c6f62616c20696e646578206f60008201527f7574206f6620626f756e64730000000000000000000000000000000000000000602082015250565b7f42617365205552492068617320616c7265616479206265656e207365742e0000600082015250565b7f54686973204e4654206973206e6f74206275726e61626c652e00000000000000600082015250565b7f496e76616c6964206469737472696275746f7220616464726573732e00000000600082015250565b6149f4816141b3565b81146149ff57600080fd5b50565b614a0b816141c5565b8114614a1657600080fd5b50565b614a22816141d1565b8114614a2d57600080fd5b50565b614a398161421d565b8114614a4457600080fd5b5056fea2646970667358221220759ec1dbf76bc5b5ea0bf56ff6647e842555d266ba585a09cb3b477c085907e064736f6c63430008050033",
  "immutableReferences": {
    "6": [
      {
        "length": 32,
        "start": 6513
      }
    ],
    "1118": [
      {
        "length": 32,
        "start": 3387
      },
      {
        "length": 32,
        "start": 4870
      },
      {
        "length": 32,
        "start": 5045
      },
      {
        "length": 32,
        "start": 6572
      },
      {
        "length": 32,
        "start": 7086
      },
      {
        "length": 32,
        "start": 7234
      }
    ],
    "1120": [
      {
        "length": 32,
        "start": 4218
      },
      {
        "length": 32,
        "start": 5743
      },
      {
        "length": 32,
        "start": 7598
      }
    ],
    "1122": [
      {
        "length": 32,
        "start": 4180
      },
      {
        "length": 32,
        "start": 5486
      },
      {
        "length": 32,
        "start": 6237
      }
    ],
    "1124": [
      {
        "length": 32,
        "start": 4271
      },
      {
        "length": 32,
        "start": 4991
      },
      {
        "length": 32,
        "start": 6477
      }
    ],
    "1126": [
      {
        "length": 32,
        "start": 4357
      },
      {
        "length": 32,
        "start": 4767
      },
      {
        "length": 32,
        "start": 5442
      }
    ],
    "1128": [
      {
        "length": 32,
        "start": 4317
      },
      {
        "length": 32,
        "start": 4572
      },
      {
        "length": 32,
        "start": 6419
      }
    ]
  },
  "source": "// SPDX-License-Identifier: BUSL-1.1\npragma solidity ^0.8.5;\n\nimport \"../../NFTProtocol/RatioSingleNFT.sol\";\n\ncontract CryptoMonkey is RatioSingleNFT{\n\n    uint public immutable id;\n\n    constructor(string memory _name, string memory _symbol, uint _id, address _reciever)RatioSingleNFT(_name, _symbol, 1, 0, 0, false){\n        id = _id;\n        _safeMint(_reciever, _id);\n    }\n    \n}",
  "sourcePath": "/home/stephenstb/Ratio-Labs/ratio-labsV0/contracts/CryptoGame/CryptoMonkeys/CryptoMonkey.sol",
  "compiler": {
    "name": "solc",
    "version": "0.8.5+commit.a4f2e591.Emscripten.clang"
  },
  "schemaVersion": "3.3.3",
  "updatedAt": "2022-07-16T04:01:37.939Z",
  "devdoc": {
    "kind": "dev",
    "methods": {
      "approve(address,uint256)": {
        "details": "See {IERC721-approve}."
      },
      "balanceOf(address)": {
        "details": "See {IERC721-balanceOf}."
      },
      "getApproved(uint256)": {
        "details": "See {IERC721-getApproved}."
      },
      "isApprovedForAll(address,address)": {
        "details": "See {IERC721-isApprovedForAll}."
      },
      "name()": {
        "details": "See {IERC721Metadata-name}."
      },
      "ownerOf(uint256)": {
        "details": "See {IERC721-ownerOf}."
      },
      "safeTransferFrom(address,address,uint256)": {
        "details": "See {IERC721-safeTransferFrom}."
      },
      "safeTransferFrom(address,address,uint256,bytes)": {
        "details": "See {IERC721-safeTransferFrom}."
      },
      "setApprovalForAll(address,bool)": {
        "details": "See {IERC721-setApprovalForAll}."
      },
      "supportsInterface(bytes4)": {
        "details": "See {IERC165-supportsInterface}."
      },
      "symbol()": {
        "details": "See {IERC721Metadata-symbol}."
      },
      "tokenByIndex(uint256)": {
        "details": "See {IERC721Enumerable-tokenByIndex}."
      },
      "tokenOfOwnerByIndex(address,uint256)": {
        "details": "See {IERC721Enumerable-tokenOfOwnerByIndex}."
      },
      "tokenURI(uint256)": {
        "details": "See {IERC721Metadata-tokenURI}."
      },
      "totalSupply()": {
        "details": "See {IERC721Enumerable-totalSupply}."
      },
      "transferFrom(address,address,uint256)": {
        "details": "See {IERC721-transferFrom}."
      }
    },
    "version": 1
  },
  "userdoc": {
    "kind": "user",
    "methods": {},
    "version": 1
  }
}