{
  "contractName": "Governed",
  "abi": [
    {
      "inputs": [
        {
          "internalType": "address",
          "name": "_ratio",
          "type": "address"
        },
        {
          "internalType": "string",
          "name": "_name",
          "type": "string"
        },
        {
          "internalType": "uint256",
          "name": "_allocation",
          "type": "uint256"
        },
        {
          "internalType": "uint256",
          "name": "_duration",
          "type": "uint256"
        }
      ],
      "stateMutability": "nonpayable",
      "type": "constructor"
    },
    {
      "inputs": [],
      "name": "allocation",
      "outputs": [
        {
          "internalType": "uint256",
          "name": "",
          "type": "uint256"
        }
      ],
      "stateMutability": "view",
      "type": "function"
    },
    {
      "inputs": [],
      "name": "approval",
      "outputs": [
        {
          "internalType": "uint256",
          "name": "",
          "type": "uint256"
        }
      ],
      "stateMutability": "view",
      "type": "function"
    },
    {
      "inputs": [],
      "name": "duration",
      "outputs": [
        {
          "internalType": "uint256",
          "name": "",
          "type": "uint256"
        }
      ],
      "stateMutability": "view",
      "type": "function"
    },
    {
      "inputs": [],
      "name": "epoch",
      "outputs": [
        {
          "internalType": "uint256",
          "name": "",
          "type": "uint256"
        }
      ],
      "stateMutability": "view",
      "type": "function"
    },
    {
      "inputs": [],
      "name": "name",
      "outputs": [
        {
          "internalType": "string",
          "name": "",
          "type": "string"
        }
      ],
      "stateMutability": "view",
      "type": "function"
    },
    {
      "inputs": [],
      "name": "ratio",
      "outputs": [
        {
          "internalType": "contract Ratio",
          "name": "",
          "type": "address"
        }
      ],
      "stateMutability": "view",
      "type": "function"
    },
    {
      "inputs": [],
      "name": "removal",
      "outputs": [
        {
          "internalType": "uint256",
          "name": "",
          "type": "uint256"
        }
      ],
      "stateMutability": "view",
      "type": "function"
    },
    {
      "inputs": [
        {
          "internalType": "bytes4",
          "name": "interfaceId",
          "type": "bytes4"
        }
      ],
      "name": "supportsInterface",
      "outputs": [
        {
          "internalType": "bool",
          "name": "",
          "type": "bool"
        }
      ],
      "stateMutability": "view",
      "type": "function"
    },
    {
      "inputs": [
        {
          "internalType": "uint256",
          "name": "_allocation",
          "type": "uint256"
        }
      ],
      "name": "setAllocation",
      "outputs": [],
      "stateMutability": "nonpayable",
      "type": "function"
    },
    {
      "inputs": [
        {
          "internalType": "uint256",
          "name": "_approval",
          "type": "uint256"
        }
      ],
      "name": "setApproval",
      "outputs": [],
      "stateMutability": "nonpayable",
      "type": "function"
    },
    {
      "inputs": [
        {
          "internalType": "uint256",
          "name": "_removal",
          "type": "uint256"
        }
      ],
      "name": "setRemoval",
      "outputs": [],
      "stateMutability": "nonpayable",
      "type": "function"
    },
    {
      "inputs": [
        {
          "internalType": "uint256",
          "name": "_epoch",
          "type": "uint256"
        }
      ],
      "name": "setEpoch",
      "outputs": [],
      "stateMutability": "nonpayable",
      "type": "function"
    },
    {
      "inputs": [
        {
          "internalType": "uint256",
          "name": "_duration",
          "type": "uint256"
        }
      ],
      "name": "setDuration",
      "outputs": [],
      "stateMutability": "nonpayable",
      "type": "function"
    }
  ],
  "bytecode": "0x60806040523480156200001157600080fd5b50604051620010e9380380620010e983398181016040528101906200003791906200033f565b620000687f01ffc9a7000000000000000000000000000000000000000000000000000000006200010b60201b60201c565b620000997fbe0a4afe000000000000000000000000000000000000000000000000000000006200010b60201b60201c565b83600160006101000a81548173ffffffffffffffffffffffffffffffffffffffff021916908373ffffffffffffffffffffffffffffffffffffffff1602179055508260029080519060200190620000f2929190620001e3565b5081600381905550806004819055505050505062000649565b63ffffffff60e01b817bffffffffffffffffffffffffffffffffffffffffffffffffffffffff1916141562000177576040517f08c379a00000000000000000000000000000000000000000000000000000000081526004016200016e90620003f7565b60405180910390fd5b6001600080837bffffffffffffffffffffffffffffffffffffffffffffffffffffffff19167bffffffffffffffffffffffffffffffffffffffffffffffffffffffff1916815260200190815260200160002060006101000a81548160ff02191690831515021790555050565b828054620001f190620004fd565b90600052602060002090601f01602090048101928262000215576000855562000261565b82601f106200023057805160ff191683800117855562000261565b8280016001018555821562000261579182015b828111156200026057825182559160200191906001019062000243565b5b50905062000270919062000274565b5090565b5b808211156200028f57600081600090555060010162000275565b5090565b6000620002aa620002a48462000442565b62000419565b905082815260208101848484011115620002c957620002c8620005cc565b5b620002d6848285620004c7565b509392505050565b600081519050620002ef8162000615565b92915050565b600082601f8301126200030d576200030c620005c7565b5b81516200031f84826020860162000293565b91505092915050565b60008151905062000339816200062f565b92915050565b600080600080608085870312156200035c576200035b620005d6565b5b60006200036c87828801620002de565b945050602085015167ffffffffffffffff81111562000390576200038f620005d1565b5b6200039e87828801620002f5565b9350506040620003b18782880162000328565b9250506060620003c48782880162000328565b91505092959194509250565b6000620003df601c8362000478565b9150620003ec82620005ec565b602082019050919050565b600060208201905081810360008301526200041281620003d0565b9050919050565b60006200042562000438565b905062000433828262000533565b919050565b6000604051905090565b600067ffffffffffffffff82111562000460576200045f62000598565b5b6200046b82620005db565b9050602081019050919050565b600082825260208201905092915050565b600062000496826200049d565b9050919050565b600073ffffffffffffffffffffffffffffffffffffffff82169050919050565b6000819050919050565b60005b83811015620004e7578082015181840152602081019050620004ca565b83811115620004f7576000848401525b50505050565b600060028204905060018216806200051657607f821691505b602082108114156200052d576200052c62000569565b5b50919050565b6200053e82620005db565b810181811067ffffffffffffffff8211171562000560576200055f62000598565b5b80604052505050565b7f4e487b7100000000000000000000000000000000000000000000000000000000600052602260045260246000fd5b7f4e487b7100000000000000000000000000000000000000000000000000000000600052604160045260246000fd5b600080fd5b600080fd5b600080fd5b600080fd5b6000601f19601f8301169050919050565b7f4552433136353a20696e76616c696420696e7465726661636520696400000000600082015250565b620006208162000489565b81146200062c57600080fd5b50565b6200063a81620004bd565b81146200064657600080fd5b50565b610a9080620006596000396000f3fe608060405234801561001057600080fd5b50600436106100cf5760003560e01c806339788bc81161008c578063900cf0cf11610066578063900cf0cf146101f057806397541c321461020e578063f6be71d11461022a578063f8d3dea014610246576100cf565b806339788bc81461019657806371ca337d146101b457806388a17bde146101d2576100cf565b806301ffc9a7146100d457806306fdde03146101045780630ceb2cef146101225780630f941d561461013e5780630fb5a6b41461015c5780632bd8d5521461017a575b600080fd5b6100ee60048036038101906100e99190610741565b610262565b6040516100fb9190610824565b60405180910390f35b61010c6102d9565b604051610119919061085a565b60405180910390f35b61013c6004803603810190610137919061076e565b610367565b005b610146610401565b604051610153919061089c565b60405180910390f35b610164610407565b604051610171919061089c565b60405180910390f35b610194600480360381019061018f919061076e565b61040d565b005b61019e6104a7565b6040516101ab919061089c565b60405180910390f35b6101bc6104ad565b6040516101c9919061083f565b60405180910390f35b6101da6104d3565b6040516101e7919061089c565b60405180910390f35b6101f86104d9565b604051610205919061089c565b60405180910390f35b6102286004803603810190610223919061076e565b6104df565b005b610244600480360381019061023f919061076e565b610579565b005b610260600480360381019061025b919061076e565b610613565b005b600061026d826106ad565b806102d25750600080837bffffffffffffffffffffffffffffffffffffffffffffffffffffffff19167bffffffffffffffffffffffffffffffffffffffffffffffffffffffff1916815260200190815260200160002060009054906101000a900460ff165b9050919050565b600280546102e69061098c565b80601f01602080910402602001604051908101604052809291908181526020018280546103129061098c565b801561035f5780601f106103345761010080835404028352916020019161035f565b820191906000526020600020905b81548152906001019060200180831161034257829003601f168201915b505050505081565b600160009054906101000a900473ffffffffffffffffffffffffffffffffffffffff1673ffffffffffffffffffffffffffffffffffffffff163373ffffffffffffffffffffffffffffffffffffffff16146103f7576040517f08c379a00000000000000000000000000000000000000000000000000000000081526004016103ee9061087c565b60405180910390fd5b8060078190555050565b60065481565b60045481565b600160009054906101000a900473ffffffffffffffffffffffffffffffffffffffff1673ffffffffffffffffffffffffffffffffffffffff163373ffffffffffffffffffffffffffffffffffffffff161461049d576040517f08c379a00000000000000000000000000000000000000000000000000000000081526004016104949061087c565b60405180910390fd5b8060038190555050565b60055481565b600160009054906101000a900473ffffffffffffffffffffffffffffffffffffffff1681565b60035481565b60075481565b600160009054906101000a900473ffffffffffffffffffffffffffffffffffffffff1673ffffffffffffffffffffffffffffffffffffffff163373ffffffffffffffffffffffffffffffffffffffff161461056f576040517f08c379a00000000000000000000000000000000000000000000000000000000081526004016105669061087c565b60405180910390fd5b8060058190555050565b600160009054906101000a900473ffffffffffffffffffffffffffffffffffffffff1673ffffffffffffffffffffffffffffffffffffffff163373ffffffffffffffffffffffffffffffffffffffff1614610609576040517f08c379a00000000000000000000000000000000000000000000000000000000081526004016106009061087c565b60405180910390fd5b8060048190555050565b600160009054906101000a900473ffffffffffffffffffffffffffffffffffffffff1673ffffffffffffffffffffffffffffffffffffffff163373ffffffffffffffffffffffffffffffffffffffff16146106a3576040517f08c379a000000000000000000000000000000000000000000000000000000000815260040161069a9061087c565b60405180910390fd5b8060068190555050565b60007f01ffc9a7000000000000000000000000000000000000000000000000000000007bffffffffffffffffffffffffffffffffffffffffffffffffffffffff1916827bffffffffffffffffffffffffffffffffffffffffffffffffffffffff1916149050919050565b60008135905061072681610a2c565b92915050565b60008135905061073b81610a43565b92915050565b600060208284031215610757576107566109ed565b5b600061076584828501610717565b91505092915050565b600060208284031215610784576107836109ed565b5b60006107928482850161072c565b91505092915050565b6107a4816108d3565b82525050565b6107b381610935565b82525050565b60006107c4826108b7565b6107ce81856108c2565b93506107de818560208601610959565b6107e7816109f2565b840191505092915050565b60006107ff6018836108c2565b915061080a82610a03565b602082019050919050565b61081e8161092b565b82525050565b6000602082019050610839600083018461079b565b92915050565b600060208201905061085460008301846107aa565b92915050565b6000602082019050818103600083015261087481846107b9565b905092915050565b60006020820190508181036000830152610895816107f2565b9050919050565b60006020820190506108b16000830184610815565b92915050565b600081519050919050565b600082825260208201905092915050565b60008115159050919050565b60007fffffffff0000000000000000000000000000000000000000000000000000000082169050919050565b600073ffffffffffffffffffffffffffffffffffffffff82169050919050565b6000819050919050565b600061094082610947565b9050919050565b60006109528261090b565b9050919050565b60005b8381101561097757808201518184015260208101905061095c565b83811115610986576000848401525b50505050565b600060028204905060018216806109a457607f821691505b602082108114156109b8576109b76109be565b5b50919050565b7f4e487b7100000000000000000000000000000000000000000000000000000000600052602260045260246000fd5b600080fd5b6000601f19601f8301169050919050565b7f4d7573742062652063616c6c656420627920726174696f2e0000000000000000600082015250565b610a35816108df565b8114610a4057600080fd5b50565b610a4c8161092b565b8114610a5757600080fd5b5056fea26469706673582212208ab0fe5c498b812bbcf2e751a733542fa1c5a53be2c59f2bf4b3cfce744fe66364736f6c63430008050033",
  "immutableReferences": {},
  "source": "pragma solidity ^0.8.0;\r\n\r\nimport \"../old_contracts/Ratio.sol\";\r\n\r\nimport \"../interfaces/IGoverned.sol\";\r\n\r\nimport \"@openzeppelin/contracts/utils/introspection/IERC165.sol\";\r\n\r\nimport \"@openzeppelin/contracts/utils/introspection/ERC165Storage.sol\";\r\n\r\n\r\n// Contract to aid in adherance to the Ratio governance protocol.\r\ncontract Governed is IGoverned, ERC165Storage{\r\n\r\n    // Ratio contract.\r\n    Ratio public ratio;\r\n\r\n    // name of the contract.\r\n    string public name;\r\n\r\n    // allocation given to the contract.\r\n    uint public allocation;\r\n\r\n    // coin distribution duration given to the contract.\r\n    uint public duration;\r\n\r\n    // approval rating given to the contract.\r\n    uint public approval;\r\n\r\n    // removal rating given to the contract.\r\n    uint public removal;\r\n\r\n    // the epoch that the governed contract was proposed.\r\n    uint public epoch;\r\n\r\n    // modifier to determine if sender is the ratio contract.\r\n    modifier isRatio{\r\n        require(msg.sender == address(ratio), \"Must be called by ratio.\");\r\n        _;\r\n    }\r\n\r\n    /* Gonverned Constructor\r\n    * @params\r\n    *\r\n    */\r\n    constructor(address _ratio, string memory _name, uint _allocation, uint _duration){\r\n        _registerInterface(type(IERC165).interfaceId);\r\n        _registerInterface(type(IGoverned).interfaceId);\r\n        ratio = Ratio(_ratio);\r\n        name = _name;\r\n        allocation = _allocation;\r\n        duration = _duration;\r\n    }\r\n\r\n    // Calls the ratio mint function on behalf of the governed contract.\r\n    function mint(address _reciever, uint _amount) internal{\r\n        ratio.mint(_reciever, _amount);\r\n    }\r\n\r\n    // Sets the allocation of the governed contract.\r\n    function setAllocation(uint _allocation) external override isRatio{\r\n        allocation  = _allocation;\r\n    }\r\n    \r\n    // Sets the aproval threshold of the contract.\r\n    function setApproval(uint _approval) external override isRatio{\r\n        approval = _approval;\r\n    }\r\n\r\n    // Set the removal threshold of the contract.\r\n    function setRemoval(uint _removal) external override isRatio{\r\n        removal = _removal;\r\n    }\r\n\r\n    // Sets the epoch upon proposal.\r\n    function setEpoch(uint _epoch) external override isRatio{\r\n        epoch = _epoch;\r\n    }\r\n\r\n    // Set the coin distribution duration.\r\n    function setDuration(uint _duration) external override isRatio{\r\n        duration = _duration;\r\n    }\r\n\r\n}",
  "sourcePath": "/home/stephenstb/Ratio-Labs/ratio-labsV0/contracts/core/Governed.sol",
  "compiler": {
    "name": "solc",
    "version": "0.8.5+commit.a4f2e591.Emscripten.clang"
  },
  "schemaVersion": "3.3.3",
  "updatedAt": "2022-07-15T04:56:39.330Z",
  "devdoc": {
    "kind": "dev",
    "methods": {
      "supportsInterface(bytes4)": {
        "details": "See {IERC165-supportsInterface}."
      }
    },
    "version": 1
  },
  "userdoc": {
    "kind": "user",
    "methods": {},
    "version": 1
  }
}