{
  "contractName": "MockGovernor",
  "abi": [
    {
      "inputs": [
        {
          "internalType": "contract ERC20Votes",
          "name": "_token",
          "type": "address"
        }
      ],
      "stateMutability": "nonpayable",
      "type": "constructor"
    },
    {
      "anonymous": false,
      "inputs": [
        {
          "indexed": false,
          "internalType": "uint256",
          "name": "proposalId",
          "type": "uint256"
        }
      ],
      "name": "ProposalCanceled",
      "type": "event"
    },
    {
      "anonymous": false,
      "inputs": [
        {
          "indexed": false,
          "internalType": "uint256",
          "name": "proposalId",
          "type": "uint256"
        },
        {
          "indexed": false,
          "internalType": "address",
          "name": "proposer",
          "type": "address"
        },
        {
          "indexed": false,
          "internalType": "address[]",
          "name": "targets",
          "type": "address[]"
        },
        {
          "indexed": false,
          "internalType": "uint256[]",
          "name": "values",
          "type": "uint256[]"
        },
        {
          "indexed": false,
          "internalType": "string[]",
          "name": "signatures",
          "type": "string[]"
        },
        {
          "indexed": false,
          "internalType": "bytes[]",
          "name": "calldatas",
          "type": "bytes[]"
        },
        {
          "indexed": false,
          "internalType": "uint256",
          "name": "startBlock",
          "type": "uint256"
        },
        {
          "indexed": false,
          "internalType": "uint256",
          "name": "endBlock",
          "type": "uint256"
        },
        {
          "indexed": false,
          "internalType": "string",
          "name": "description",
          "type": "string"
        }
      ],
      "name": "ProposalCreated",
      "type": "event"
    },
    {
      "anonymous": false,
      "inputs": [
        {
          "indexed": false,
          "internalType": "uint256",
          "name": "proposalId",
          "type": "uint256"
        }
      ],
      "name": "ProposalExecuted",
      "type": "event"
    },
    {
      "anonymous": false,
      "inputs": [
        {
          "indexed": false,
          "internalType": "uint256",
          "name": "oldQuorumNumerator",
          "type": "uint256"
        },
        {
          "indexed": false,
          "internalType": "uint256",
          "name": "newQuorumNumerator",
          "type": "uint256"
        }
      ],
      "name": "QuorumNumeratorUpdated",
      "type": "event"
    },
    {
      "anonymous": false,
      "inputs": [
        {
          "indexed": true,
          "internalType": "address",
          "name": "voter",
          "type": "address"
        },
        {
          "indexed": false,
          "internalType": "uint256",
          "name": "proposalId",
          "type": "uint256"
        },
        {
          "indexed": false,
          "internalType": "uint8",
          "name": "support",
          "type": "uint8"
        },
        {
          "indexed": false,
          "internalType": "uint256",
          "name": "weight",
          "type": "uint256"
        },
        {
          "indexed": false,
          "internalType": "string",
          "name": "reason",
          "type": "string"
        }
      ],
      "name": "VoteCast",
      "type": "event"
    },
    {
      "inputs": [],
      "name": "BALLOT_TYPEHASH",
      "outputs": [
        {
          "internalType": "bytes32",
          "name": "",
          "type": "bytes32"
        }
      ],
      "stateMutability": "view",
      "type": "function"
    },
    {
      "inputs": [],
      "name": "COUNTING_MODE",
      "outputs": [
        {
          "internalType": "string",
          "name": "",
          "type": "string"
        }
      ],
      "stateMutability": "pure",
      "type": "function"
    },
    {
      "inputs": [
        {
          "internalType": "uint256",
          "name": "proposalId",
          "type": "uint256"
        },
        {
          "internalType": "uint8",
          "name": "support",
          "type": "uint8"
        }
      ],
      "name": "castVote",
      "outputs": [
        {
          "internalType": "uint256",
          "name": "",
          "type": "uint256"
        }
      ],
      "stateMutability": "nonpayable",
      "type": "function"
    },
    {
      "inputs": [
        {
          "internalType": "uint256",
          "name": "proposalId",
          "type": "uint256"
        },
        {
          "internalType": "uint8",
          "name": "support",
          "type": "uint8"
        },
        {
          "internalType": "uint8",
          "name": "v",
          "type": "uint8"
        },
        {
          "internalType": "bytes32",
          "name": "r",
          "type": "bytes32"
        },
        {
          "internalType": "bytes32",
          "name": "s",
          "type": "bytes32"
        }
      ],
      "name": "castVoteBySig",
      "outputs": [
        {
          "internalType": "uint256",
          "name": "",
          "type": "uint256"
        }
      ],
      "stateMutability": "nonpayable",
      "type": "function"
    },
    {
      "inputs": [
        {
          "internalType": "uint256",
          "name": "proposalId",
          "type": "uint256"
        },
        {
          "internalType": "uint8",
          "name": "support",
          "type": "uint8"
        },
        {
          "internalType": "string",
          "name": "reason",
          "type": "string"
        }
      ],
      "name": "castVoteWithReason",
      "outputs": [
        {
          "internalType": "uint256",
          "name": "",
          "type": "uint256"
        }
      ],
      "stateMutability": "nonpayable",
      "type": "function"
    },
    {
      "inputs": [
        {
          "internalType": "address[]",
          "name": "targets",
          "type": "address[]"
        },
        {
          "internalType": "uint256[]",
          "name": "values",
          "type": "uint256[]"
        },
        {
          "internalType": "bytes[]",
          "name": "calldatas",
          "type": "bytes[]"
        },
        {
          "internalType": "bytes32",
          "name": "descriptionHash",
          "type": "bytes32"
        }
      ],
      "name": "execute",
      "outputs": [
        {
          "internalType": "uint256",
          "name": "",
          "type": "uint256"
        }
      ],
      "stateMutability": "payable",
      "type": "function"
    },
    {
      "inputs": [
        {
          "internalType": "address",
          "name": "account",
          "type": "address"
        },
        {
          "internalType": "uint256",
          "name": "blockNumber",
          "type": "uint256"
        }
      ],
      "name": "getVotes",
      "outputs": [
        {
          "internalType": "uint256",
          "name": "",
          "type": "uint256"
        }
      ],
      "stateMutability": "view",
      "type": "function"
    },
    {
      "inputs": [
        {
          "internalType": "uint256",
          "name": "proposalId",
          "type": "uint256"
        },
        {
          "internalType": "address",
          "name": "account",
          "type": "address"
        }
      ],
      "name": "hasVoted",
      "outputs": [
        {
          "internalType": "bool",
          "name": "",
          "type": "bool"
        }
      ],
      "stateMutability": "view",
      "type": "function"
    },
    {
      "inputs": [
        {
          "internalType": "address[]",
          "name": "targets",
          "type": "address[]"
        },
        {
          "internalType": "uint256[]",
          "name": "values",
          "type": "uint256[]"
        },
        {
          "internalType": "bytes[]",
          "name": "calldatas",
          "type": "bytes[]"
        },
        {
          "internalType": "bytes32",
          "name": "descriptionHash",
          "type": "bytes32"
        }
      ],
      "name": "hashProposal",
      "outputs": [
        {
          "internalType": "uint256",
          "name": "",
          "type": "uint256"
        }
      ],
      "stateMutability": "pure",
      "type": "function"
    },
    {
      "inputs": [],
      "name": "name",
      "outputs": [
        {
          "internalType": "string",
          "name": "",
          "type": "string"
        }
      ],
      "stateMutability": "view",
      "type": "function"
    },
    {
      "inputs": [
        {
          "internalType": "uint256",
          "name": "proposalId",
          "type": "uint256"
        }
      ],
      "name": "proposalDeadline",
      "outputs": [
        {
          "internalType": "uint256",
          "name": "",
          "type": "uint256"
        }
      ],
      "stateMutability": "view",
      "type": "function"
    },
    {
      "inputs": [
        {
          "internalType": "uint256",
          "name": "proposalId",
          "type": "uint256"
        }
      ],
      "name": "proposalSnapshot",
      "outputs": [
        {
          "internalType": "uint256",
          "name": "",
          "type": "uint256"
        }
      ],
      "stateMutability": "view",
      "type": "function"
    },
    {
      "inputs": [
        {
          "internalType": "uint256",
          "name": "proposalId",
          "type": "uint256"
        }
      ],
      "name": "proposalVotes",
      "outputs": [
        {
          "internalType": "uint256",
          "name": "againstVotes",
          "type": "uint256"
        },
        {
          "internalType": "uint256",
          "name": "forVotes",
          "type": "uint256"
        },
        {
          "internalType": "uint256",
          "name": "abstainVotes",
          "type": "uint256"
        }
      ],
      "stateMutability": "view",
      "type": "function"
    },
    {
      "inputs": [
        {
          "internalType": "address[]",
          "name": "targets",
          "type": "address[]"
        },
        {
          "internalType": "uint256[]",
          "name": "values",
          "type": "uint256[]"
        },
        {
          "internalType": "bytes[]",
          "name": "calldatas",
          "type": "bytes[]"
        },
        {
          "internalType": "string",
          "name": "description",
          "type": "string"
        }
      ],
      "name": "propose",
      "outputs": [
        {
          "internalType": "uint256",
          "name": "",
          "type": "uint256"
        }
      ],
      "stateMutability": "nonpayable",
      "type": "function"
    },
    {
      "inputs": [
        {
          "internalType": "uint256",
          "name": "blockNumber",
          "type": "uint256"
        }
      ],
      "name": "quorum",
      "outputs": [
        {
          "internalType": "uint256",
          "name": "",
          "type": "uint256"
        }
      ],
      "stateMutability": "view",
      "type": "function"
    },
    {
      "inputs": [],
      "name": "quorumDenominator",
      "outputs": [
        {
          "internalType": "uint256",
          "name": "",
          "type": "uint256"
        }
      ],
      "stateMutability": "view",
      "type": "function"
    },
    {
      "inputs": [],
      "name": "quorumNumerator",
      "outputs": [
        {
          "internalType": "uint256",
          "name": "",
          "type": "uint256"
        }
      ],
      "stateMutability": "view",
      "type": "function"
    },
    {
      "inputs": [
        {
          "internalType": "uint256",
          "name": "proposalId",
          "type": "uint256"
        }
      ],
      "name": "state",
      "outputs": [
        {
          "internalType": "enum IGovernor.ProposalState",
          "name": "",
          "type": "uint8"
        }
      ],
      "stateMutability": "view",
      "type": "function"
    },
    {
      "inputs": [
        {
          "internalType": "bytes4",
          "name": "interfaceId",
          "type": "bytes4"
        }
      ],
      "name": "supportsInterface",
      "outputs": [
        {
          "internalType": "bool",
          "name": "",
          "type": "bool"
        }
      ],
      "stateMutability": "view",
      "type": "function"
    },
    {
      "inputs": [],
      "name": "token",
      "outputs": [
        {
          "internalType": "contract ERC20Votes",
          "name": "",
          "type": "address"
        }
      ],
      "stateMutability": "view",
      "type": "function"
    },
    {
      "inputs": [
        {
          "internalType": "uint256",
          "name": "newQuorumNumerator",
          "type": "uint256"
        }
      ],
      "name": "updateQuorumNumerator",
      "outputs": [],
      "stateMutability": "nonpayable",
      "type": "function"
    },
    {
      "inputs": [],
      "name": "version",
      "outputs": [
        {
          "internalType": "string",
          "name": "",
          "type": "string"
        }
      ],
      "stateMutability": "view",
      "type": "function"
    },
    {
      "inputs": [],
      "name": "votingDelay",
      "outputs": [
        {
          "internalType": "uint256",
          "name": "",
          "type": "uint256"
        }
      ],
      "stateMutability": "pure",
      "type": "function"
    },
    {
      "inputs": [],
      "name": "votingPeriod",
      "outputs": [
        {
          "internalType": "uint256",
          "name": "",
          "type": "uint256"
        }
      ],
      "stateMutability": "pure",
      "type": "function"
    }
  ],
  "bytecode": "0x6101406040523480156200001257600080fd5b506040516200434038038062004340833981810160405281019062000038919062000356565b6004816040518060400160405280600c81526020017f4d6f636b476f7665726e6f72000000000000000000000000000000000000000081525080620000826200016b60201b60201c565b60008280519060200120905060008280519060200120905060007f8b73c3c69bb8fe3d512ecc4cf759cc79239f7b179b0ffacaa9a75d522b39400f90508260c081815250508160e081815250504660a08181525050620000ea818484620001a860201b60201c565b6080818152505080610100818152505050505050508060009080519060200190620001179291906200028f565b50508073ffffffffffffffffffffffffffffffffffffffff166101208173ffffffffffffffffffffffffffffffffffffffff1660601b81525050506200016381620001e460201b60201c565b5050620005f4565b60606040518060400160405280600181526020017f3100000000000000000000000000000000000000000000000000000000000000815250905090565b60008383834630604051602001620001c5959493929190620003e2565b6040516020818303038152906040528051906020012090509392505050565b620001f46200028660201b60201c565b81111562000239576040517f08c379a000000000000000000000000000000000000000000000000000000000815260040162000230906200043f565b60405180910390fd5b60006002549050816002819055507f0553476bf02ef2726e8ce5ced78d63e26e602e4a2257b1f559418e24b463399781836040516200027a92919062000461565b60405180910390a15050565b60006064905090565b8280546200029d90620004fb565b90600052602060002090601f016020900481019282620002c157600085556200030d565b82601f10620002dc57805160ff19168380011785556200030d565b828001600101855582156200030d579182015b828111156200030c578251825591602001919060010190620002ef565b5b5090506200031c919062000320565b5090565b5b808211156200033b57600081600090555060010162000321565b5090565b6000815190506200035081620005da565b92915050565b6000602082840312156200036f576200036e62000560565b5b60006200037f848285016200033f565b91505092915050565b62000393816200049f565b82525050565b620003a481620004b3565b82525050565b6000620003b96043836200048e565b9150620003c68262000565565b606082019050919050565b620003dc81620004f1565b82525050565b600060a082019050620003f9600083018862000399565b62000408602083018762000399565b62000417604083018662000399565b620004266060830185620003d1565b62000435608083018462000388565b9695505050505050565b600060208201905081810360008301526200045a81620003aa565b9050919050565b6000604082019050620004786000830185620003d1565b620004876020830184620003d1565b9392505050565b600082825260208201905092915050565b6000620004ac82620004d1565b9050919050565b6000819050919050565b6000620004ca826200049f565b9050919050565b600073ffffffffffffffffffffffffffffffffffffffff82169050919050565b6000819050919050565b600060028204905060018216806200051457607f821691505b602082108114156200052b576200052a62000531565b5b50919050565b7f4e487b7100000000000000000000000000000000000000000000000000000000600052602260045260246000fd5b600080fd5b7f476f7665726e6f72566f74657351756f72756d4672616374696f6e3a2071756f60008201527f72756d4e756d657261746f72206f7665722071756f72756d44656e6f6d696e6160208201527f746f720000000000000000000000000000000000000000000000000000000000604082015250565b620005e581620004bd565b8114620005f157600080fd5b50565b60805160a05160c05160e051610100516101205160601c613ceb620006556000396000818161111c015281816111e101526112a5015260006118a2015260006118e4015260006118c30152600061184f015260006118770152613ceb6000f3fe60806040526004361061014b5760003560e01c806356781388116100b6578063c59057e41161006f578063c59057e41461050f578063dd4e2ba51461054c578063deaaa7cc14610577578063eb9019d4146105a2578063f8ce560a146105df578063fc0c546a1461061c5761014b565b806356781388146103c55780637b3c71d3146104025780637d5e81e21461043f57806397c3d3341461047c578063a7713a70146104a7578063c01f9e37146104d25761014b565b80633932abb1116101085780633932abb1146102795780633bccf4fd146102a45780633e4f49e6146102e1578063438596321461031e578063544ffc9c1461035b57806354fd4d501461039a5761014b565b806301ffc9a71461015057806302a251a31461018d57806306f3f9e6146101b857806306fdde03146101e15780632656227d1461020c5780632d63f6931461023c575b600080fd5b34801561015c57600080fd5b50610177600480360381019061017291906123fb565b610647565b6040516101849190612c79565b60405180910390f35b34801561019957600080fd5b506101a26106c1565b6040516101af9190612fb6565b60405180910390f35b3480156101c457600080fd5b506101df60048036038101906101da9190612428565b6106cb565b005b3480156101ed57600080fd5b506101f6610753565b6040516102039190612db4565b60405180910390f35b61022660048036038101906102219190612269565b6107e5565b6040516102339190612fb6565b60405180910390f35b34801561024857600080fd5b50610263600480360381019061025e9190612428565b610918565b6040516102709190612fb6565b60405180910390f35b34801561028557600080fd5b5061028e610986565b60405161029b9190612fb6565b60405180910390f35b3480156102b057600080fd5b506102cb60048036038101906102c69190612576565b610990565b6040516102d89190612fb6565b60405180910390f35b3480156102ed57600080fd5b5061030860048036038101906103039190612428565b610a1a565b6040516103159190612d99565b60405180910390f35b34801561032a57600080fd5b5061034560048036038101906103409190612482565b610be1565b6040516103529190612c79565b60405180910390f35b34801561036757600080fd5b50610382600480360381019061037d9190612428565b610c4c565b604051610391939291906130aa565b60405180910390f35b3480156103a657600080fd5b506103af610c84565b6040516103bc9190612db4565b60405180910390f35b3480156103d157600080fd5b506103ec60048036038101906103e791906124c2565b610cc1565b6040516103f99190612fb6565b60405180910390f35b34801561040e57600080fd5b5061042960048036038101906104249190612502565b610cf2565b6040516104369190612fb6565b60405180910390f35b34801561044b57600080fd5b5061046660048036038101906104619190612324565b610d5a565b6040516104739190612fb6565b60405180910390f35b34801561048857600080fd5b50610491610ffa565b60405161049e9190612fb6565b60405180910390f35b3480156104b357600080fd5b506104bc611003565b6040516104c99190612fb6565b60405180910390f35b3480156104de57600080fd5b506104f960048036038101906104f49190612428565b61100d565b6040516105069190612fb6565b60405180910390f35b34801561051b57600080fd5b5061053660048036038101906105319190612269565b61107b565b6040516105439190612fb6565b60405180910390f35b34801561055857600080fd5b506105616110b7565b60405161056e9190612db4565b60405180910390f35b34801561058357600080fd5b5061058c6110f4565b6040516105999190612c94565b60405180910390f35b3480156105ae57600080fd5b506105c960048036038101906105c49190612229565b611118565b6040516105d69190612fb6565b60405180910390f35b3480156105eb57600080fd5b5061060660048036038101906106019190612428565b6111cd565b6040516106139190612fb6565b60405180910390f35b34801561062857600080fd5b506106316112a3565b60405161063e9190612d7e565b60405180910390f35b60007fbf26d897000000000000000000000000000000000000000000000000000000007bffffffffffffffffffffffffffffffffffffffffffffffffffffffff1916827bffffffffffffffffffffffffffffffffffffffffffffffffffffffff191614806106ba57506106b9826112c7565b5b9050919050565b600061b3cb905090565b6106d3611331565b73ffffffffffffffffffffffffffffffffffffffff166106f1611339565b73ffffffffffffffffffffffffffffffffffffffff1614610747576040517f08c379a000000000000000000000000000000000000000000000000000000000815260040161073e90612df6565b60405180910390fd5b61075081611341565b50565b606060008054610762906135d6565b80601f016020809104026020016040519081016040528092919081815260200182805461078e906135d6565b80156107db5780601f106107b0576101008083540402835291602001916107db565b820191906000526020600020905b8154815290600101906020018083116107be57829003601f168201915b5050505050905090565b6000806107f48686868661107b565b9050600061080182610a1a565b905060046007811115610817576108166136ea565b5b81600781111561082a576108296136ea565b5b148061085a575060056007811115610845576108446136ea565b5b816007811115610858576108576136ea565b5b145b610899576040517f08c379a000000000000000000000000000000000000000000000000000000000815260040161089090612f36565b60405180910390fd5b600180600084815260200190815260200160002060020160006101000a81548160ff0219169083151502179055507f712ae1383f79ac853f8d882153778e0260ef8f03b504e2866e0593e04d2b291f826040516108f69190612fb6565b60405180910390a161090b82888888886113d6565b8192505050949350505050565b6000610975600160008481526020019081526020016000206000016040518060200160405290816000820160009054906101000a900467ffffffffffffffff1667ffffffffffffffff1667ffffffffffffffff16815250506114e5565b67ffffffffffffffff169050919050565b60006119af905090565b6000806109f16109e97f150214d74d59b7d1e90c73fc22ef3d991dd0a76b046543d4d80ab92d2a50328f89896040516020016109ce93929190612d02565b604051602081830303815290604052805190602001206114f3565b86868661150d565b9050610a0e87828860405180602001604052806000815250611538565b91505095945050505050565b60008060016000848152602001908152602001600020604051806080016040529081600082016040518060200160405290816000820160009054906101000a900467ffffffffffffffff1667ffffffffffffffff1667ffffffffffffffff16815250508152602001600182016040518060200160405290816000820160009054906101000a900467ffffffffffffffff1667ffffffffffffffff1667ffffffffffffffff168152505081526020016002820160009054906101000a900460ff161515151581526020016002820160019054906101000a900460ff1615151515815250509050806040015115610b13576007915050610bdc565b806060015115610b27576002915050610bdc565b610b34816000015161168c565b15610b43576000915050610bdc565b610b50816020015161168c565b15610b5f576001915050610bdc565b610b6c81602001516116a6565b15610ba157610b7a836116d2565b8015610b8b5750610b8a83611719565b5b610b96576003610b99565b60045b915050610bdc565b6040517f08c379a0000000000000000000000000000000000000000000000000000000008152600401610bd390612f56565b60405180910390fd5b919050565b60006003600084815260200190815260200160002060030160008373ffffffffffffffffffffffffffffffffffffffff1673ffffffffffffffffffffffffffffffffffffffff16815260200190815260200160002060009054906101000a900460ff16905092915050565b600080600080600360008681526020019081526020016000209050806000015481600101548260020154935093509350509193909250565b60606040518060400160405280600181526020017f3100000000000000000000000000000000000000000000000000000000000000815250905090565b600080610ccc611339565b9050610ce984828560405180602001604052806000815250611538565b91505092915050565b600080610cfd611339565b9050610d4f86828787878080601f016020809104026020016040519081016040528093929190818152602001838380828437600081840152601f19601f82011690508083019250505050505050611538565b915050949350505050565b600080610d70868686868051906020012061107b565b90508451865114610db6576040517f08c379a0000000000000000000000000000000000000000000000000000000008152600401610dad90612e56565b60405180910390fd5b8351865114610dfa576040517f08c379a0000000000000000000000000000000000000000000000000000000008152600401610df190612e56565b60405180910390fd5b6000865111610e3e576040517f08c379a0000000000000000000000000000000000000000000000000000000008152600401610e3590612ed6565b60405180910390fd5b6000600160008381526020019081526020016000209050610e9e816000016040518060200160405290816000820160009054906101000a900467ffffffffffffffff1667ffffffffffffffff1667ffffffffffffffff1681525050611744565b610edd576040517f08c379a0000000000000000000000000000000000000000000000000000000008152600401610ed490612f96565b60405180910390fd5b6000610eef610eea610986565b61175e565b610ef84361175e565b610f0291906133d1565b90506000610f16610f116106c1565b61175e565b82610f2191906133d1565b9050610f3982846000016117b590919063ffffffff16565b610f4f81846001016117b590919063ffffffff16565b7f7d84a6263ae0d98d3329bd7b46bb4e8d6f98cd35a7adb45c274c8b7fd5ebd5e084610f79611339565b8b8b8d5167ffffffffffffffff811115610f9657610f95613777565b5b604051908082528060200260200182016040528015610fc957816020015b6060815260200190600190039081610fb45790505b508c88888e604051610fe399989796959493929190612fd1565b60405180910390a183945050505050949350505050565b60006064905090565b6000600254905090565b600061106a600160008481526020019081526020016000206001016040518060200160405290816000820160009054906101000a900467ffffffffffffffff1667ffffffffffffffff1667ffffffffffffffff16815250506114e5565b67ffffffffffffffff169050919050565b6000848484846040516020016110949493929190612c1f565b6040516020818303038152906040528051906020012060001c9050949350505050565b60606040518060400160405280602081526020017f737570706f72743d627261766f2671756f72756d3d666f722c6162737461696e815250905090565b7f150214d74d59b7d1e90c73fc22ef3d991dd0a76b046543d4d80ab92d2a50328f81565b60007f000000000000000000000000000000000000000000000000000000000000000073ffffffffffffffffffffffffffffffffffffffff16633a46b1a884846040518363ffffffff1660e01b8152600401611175929190612bf6565b60206040518083038186803b15801561118d57600080fd5b505afa1580156111a1573d6000803e3d6000fd5b505050506040513d601f19601f820116820180604052508101906111c59190612455565b905092915050565b60006111d7610ffa565b6111df611003565b7f000000000000000000000000000000000000000000000000000000000000000073ffffffffffffffffffffffffffffffffffffffff16638e539e8c856040518263ffffffff1660e01b81526004016112389190612fb6565b60206040518083038186803b15801561125057600080fd5b505afa158015611264573d6000803e3d6000fd5b505050506040513d601f19601f820116820180604052508101906112889190612455565b6112929190613440565b61129c919061340f565b9050919050565b7f000000000000000000000000000000000000000000000000000000000000000081565b60007f01ffc9a7000000000000000000000000000000000000000000000000000000007bffffffffffffffffffffffffffffffffffffffffffffffffffffffff1916827bffffffffffffffffffffffffffffffffffffffffffffffffffffffff1916149050919050565b600030905090565b600033905090565b611349610ffa565b81111561138b576040517f08c379a000000000000000000000000000000000000000000000000000000000815260040161138290612e16565b60405180910390fd5b60006002549050816002819055507f0553476bf02ef2726e8ce5ced78d63e26e602e4a2257b1f559418e24b463399781836040516113ca929190613081565b60405180910390a15050565b6000604051806060016040528060278152602001613c8f60279139905060005b85518110156114dc5760008087838151811061141557611414613748565b5b602002602001015173ffffffffffffffffffffffffffffffffffffffff1687848151811061144657611445613748565b5b602002602001015187858151811061146157611460613748565b5b60200260200101516040516114769190612ba8565b60006040518083038185875af1925050503d80600081146114b3576040519150601f19603f3d011682016040523d82523d6000602084013e6114b8565b606091505b50915091506114c88282866117e4565b505050806114d590613639565b90506113f6565b50505050505050565b600081600001519050919050565b600061150661150061184b565b8361190e565b9050919050565b600080600061151e87878787611941565b9150915061152b81611a4e565b8192505050949350505050565b60008060016000878152602001908152602001600020905060016007811115611564576115636136ea565b5b61156d87610a1a565b600781111561157f5761157e6136ea565b5b146115bf576040517f08c379a00000000000000000000000000000000000000000000000000000000081526004016115b690612eb6565b60405180910390fd5b600061161d8661160e846000016040518060200160405290816000820160009054906101000a900467ffffffffffffffff1667ffffffffffffffff1667ffffffffffffffff16815250506114e5565b67ffffffffffffffff16611118565b905061162b87878784611c23565b8573ffffffffffffffffffffffffffffffffffffffff167fb8e138887d0aa13bab447e82de9d5c1777041ecd21ca36ba824ff1e6c07ddda48887848860405161167794939291906130e1565b60405180910390a28092505050949350505050565b600043826000015167ffffffffffffffff16119050919050565b60006116b182611e29565b80156116cb575043826000015167ffffffffffffffff1611155b9050919050565b600080600360008481526020019081526020016000209050806002015481600101546116fe919061337b565b61170f61170a85610918565b6111cd565b1115915050919050565b6000806003600084815260200190815260200160002090508060000154816001015411915050919050565b600080826000015167ffffffffffffffff16149050919050565b600067ffffffffffffffff80168211156117ad576040517f08c379a00000000000000000000000000000000000000000000000000000000081526004016117a490612f16565b60405180910390fd5b819050919050565b808260000160006101000a81548167ffffffffffffffff021916908367ffffffffffffffff1602179055505050565b606083156117f457829050611844565b6000835111156118075782518084602001fd5b816040517f08c379a000000000000000000000000000000000000000000000000000000000815260040161183b9190612db4565b60405180910390fd5b9392505050565b60007f000000000000000000000000000000000000000000000000000000000000000046141561189d577f0000000000000000000000000000000000000000000000000000000000000000905061190b565b6119087f00000000000000000000000000000000000000000000000000000000000000007f00000000000000000000000000000000000000000000000000000000000000007f0000000000000000000000000000000000000000000000000000000000000000611e43565b90505b90565b60008282604051602001611923929190612bbf565b60405160208183030381529060405280519060200120905092915050565b6000807f7fffffffffffffffffffffffffffffff5d576e7357a4501ddfe92f46681b20a08360001c111561197c576000600391509150611a45565b601b8560ff16141580156119945750601c8560ff1614155b156119a6576000600491509150611a45565b6000600187878787604051600081526020016040526040516119cb9493929190612d39565b6020604051602081039080840390855afa1580156119ed573d6000803e3d6000fd5b505050602060405103519050600073ffffffffffffffffffffffffffffffffffffffff168173ffffffffffffffffffffffffffffffffffffffff161415611a3c57600060019250925050611a45565b80600092509250505b94509492505050565b60006004811115611a6257611a616136ea565b5b816004811115611a7557611a746136ea565b5b1415611a8057611c20565b60016004811115611a9457611a936136ea565b5b816004811115611aa757611aa66136ea565b5b1415611ae8576040517f08c379a0000000000000000000000000000000000000000000000000000000008152600401611adf90612dd6565b60405180910390fd5b60026004811115611afc57611afb6136ea565b5b816004811115611b0f57611b0e6136ea565b5b1415611b50576040517f08c379a0000000000000000000000000000000000000000000000000000000008152600401611b4790612e36565b60405180910390fd5b60036004811115611b6457611b636136ea565b5b816004811115611b7757611b766136ea565b5b1415611bb8576040517f08c379a0000000000000000000000000000000000000000000000000000000008152600401611baf90612e76565b60405180910390fd5b600480811115611bcb57611bca6136ea565b5b816004811115611bde57611bdd6136ea565b5b1415611c1f576040517f08c379a0000000000000000000000000000000000000000000000000000000008152600401611c1690612ef6565b60405180910390fd5b5b50565b60006003600086815260200190815260200160002090508060030160008573ffffffffffffffffffffffffffffffffffffffff1673ffffffffffffffffffffffffffffffffffffffff16815260200190815260200160002060009054906101000a900460ff1615611cc9576040517f08c379a0000000000000000000000000000000000000000000000000000000008152600401611cc090612e96565b60405180910390fd5b60018160030160008673ffffffffffffffffffffffffffffffffffffffff1673ffffffffffffffffffffffffffffffffffffffff16815260200190815260200160002060006101000a81548160ff02191690831515021790555060006002811115611d3757611d366136ea565b5b60ff168360ff161415611d645781816000016000828254611d58919061337b565b92505081905550611e22565b60016002811115611d7857611d776136ea565b5b60ff168360ff161415611da55781816001016000828254611d99919061337b565b92505081905550611e21565b600280811115611db857611db76136ea565b5b60ff168360ff161415611de55781816002016000828254611dd9919061337b565b92505081905550611e20565b6040517f08c379a0000000000000000000000000000000000000000000000000000000008152600401611e1790612f76565b60405180910390fd5b5b5b5050505050565b600080826000015167ffffffffffffffff16119050919050565b60008383834630604051602001611e5e959493929190612caf565b6040516020818303038152906040528051906020012090509392505050565b6000611e90611e8b84613152565b61312d565b90508083825260208201905082856020860282011115611eb357611eb26137b0565b5b60005b85811015611ee35781611ec9888261206f565b845260208401935060208301925050600181019050611eb6565b5050509392505050565b6000611f00611efb8461317e565b61312d565b90508083825260208201905082856020860282011115611f2357611f226137b0565b5b60005b85811015611f7157813567ffffffffffffffff811115611f4957611f486137ab565b5b808601611f568982612138565b85526020850194506020840193505050600181019050611f26565b5050509392505050565b6000611f8e611f89846131aa565b61312d565b90508083825260208201905082856020860282011115611fb157611fb06137b0565b5b60005b85811015611fe15781611fc788826121ea565b845260208401935060208301925050600181019050611fb4565b5050509392505050565b6000611ffe611ff9846131d6565b61312d565b90508281526020810184848401111561201a576120196137b5565b5b612025848285613594565b509392505050565b600061204061203b84613207565b61312d565b90508281526020810184848401111561205c5761205b6137b5565b5b612067848285613594565b509392505050565b60008135905061207e81613c1b565b92915050565b600082601f830112612099576120986137ab565b5b81356120a9848260208601611e7d565b91505092915050565b600082601f8301126120c7576120c66137ab565b5b81356120d7848260208601611eed565b91505092915050565b600082601f8301126120f5576120f46137ab565b5b8135612105848260208601611f7b565b91505092915050565b60008135905061211d81613c32565b92915050565b60008135905061213281613c49565b92915050565b600082601f83011261214d5761214c6137ab565b5b813561215d848260208601611feb565b91505092915050565b60008083601f84011261217c5761217b6137ab565b5b8235905067ffffffffffffffff811115612199576121986137a6565b5b6020830191508360018202830111156121b5576121b46137b0565b5b9250929050565b600082601f8301126121d1576121d06137ab565b5b81356121e184826020860161202d565b91505092915050565b6000813590506121f981613c60565b92915050565b60008151905061220e81613c60565b92915050565b60008135905061222381613c77565b92915050565b600080604083850312156122405761223f6137bf565b5b600061224e8582860161206f565b925050602061225f858286016121ea565b9150509250929050565b60008060008060808587031215612283576122826137bf565b5b600085013567ffffffffffffffff8111156122a1576122a06137ba565b5b6122ad87828801612084565b945050602085013567ffffffffffffffff8111156122ce576122cd6137ba565b5b6122da878288016120e0565b935050604085013567ffffffffffffffff8111156122fb576122fa6137ba565b5b612307878288016120b2565b92505060606123188782880161210e565b91505092959194509250565b6000806000806080858703121561233e5761233d6137bf565b5b600085013567ffffffffffffffff81111561235c5761235b6137ba565b5b61236887828801612084565b945050602085013567ffffffffffffffff811115612389576123886137ba565b5b612395878288016120e0565b935050604085013567ffffffffffffffff8111156123b6576123b56137ba565b5b6123c2878288016120b2565b925050606085013567ffffffffffffffff8111156123e3576123e26137ba565b5b6123ef878288016121bc565b91505092959194509250565b600060208284031215612411576124106137bf565b5b600061241f84828501612123565b91505092915050565b60006020828403121561243e5761243d6137bf565b5b600061244c848285016121ea565b91505092915050565b60006020828403121561246b5761246a6137bf565b5b6000612479848285016121ff565b91505092915050565b60008060408385031215612499576124986137bf565b5b60006124a7858286016121ea565b92505060206124b88582860161206f565b9150509250929050565b600080604083850312156124d9576124d86137bf565b5b60006124e7858286016121ea565b92505060206124f885828601612214565b9150509250929050565b6000806000806060858703121561251c5761251b6137bf565b5b600061252a878288016121ea565b945050602061253b87828801612214565b935050604085013567ffffffffffffffff81111561255c5761255b6137ba565b5b61256887828801612166565b925092505092959194509250565b600080600080600060a08688031215612592576125916137bf565b5b60006125a0888289016121ea565b95505060206125b188828901612214565b94505060406125c288828901612214565b93505060606125d38882890161210e565b92505060806125e48882890161210e565b9150509295509295909350565b60006125fd8383612649565b60208301905092915050565b60006126158383612842565b905092915050565b600061262983836128ca565b905092915050565b600061263d8383612b6c565b60208301905092915050565b6126528161349a565b82525050565b6126618161349a565b82525050565b600061267282613278565b61267c81856132ee565b935061268783613238565b8060005b838110156126b857815161269f88826125f1565b97506126aa836132ba565b92505060018101905061268b565b5085935050505092915050565b60006126d082613283565b6126da81856132ff565b9350836020820285016126ec85613248565b8060005b8581101561272857848403895281516127098582612609565b9450612714836132c7565b925060208a019950506001810190506126f0565b50829750879550505050505092915050565b60006127458261328e565b61274f8185613310565b93508360208202850161276185613258565b8060005b8581101561279d578484038952815161277e858261261d565b9450612789836132d4565b925060208a01995050600181019050612765565b50829750879550505050505092915050565b60006127ba82613299565b6127c48185613321565b93506127cf83613268565b8060005b838110156128005781516127e78882612631565b97506127f2836132e1565b9250506001810190506127d3565b5085935050505092915050565b612816816134ac565b82525050565b612825816134b8565b82525050565b61283c612837826134b8565b613682565b82525050565b600061284d826132a4565b6128578185613332565b93506128678185602086016135a3565b612870816137c4565b840191505092915050565b6000612886826132a4565b6128908185613343565b93506128a08185602086016135a3565b80840191505092915050565b6128b58161354c565b82525050565b6128c481613570565b82525050565b60006128d5826132af565b6128df818561334e565b93506128ef8185602086016135a3565b6128f8816137c4565b840191505092915050565b600061290e826132af565b612918818561335f565b93506129288185602086016135a3565b612931816137c4565b840191505092915050565b600061294960188361335f565b9150612954826137d5565b602082019050919050565b600061296c60188361335f565b9150612977826137fe565b602082019050919050565b600061298f60438361335f565b915061299a82613827565b606082019050919050565b60006129b2601f8361335f565b91506129bd8261389c565b602082019050919050565b60006129d5600283613370565b91506129e0826138c5565b600282019050919050565b60006129f860218361335f565b9150612a03826138ee565b604082019050919050565b6000612a1b60228361335f565b9150612a268261393d565b604082019050919050565b6000612a3e60278361335f565b9150612a498261398c565b604082019050919050565b6000612a6160238361335f565b9150612a6c826139db565b604082019050919050565b6000612a8460188361335f565b9150612a8f82613a2a565b602082019050919050565b6000612aa760228361335f565b9150612ab282613a53565b604082019050919050565b6000612aca60268361335f565b9150612ad582613aa2565b604082019050919050565b6000612aed60218361335f565b9150612af882613af1565b604082019050919050565b6000612b10601d8361335f565b9150612b1b82613b40565b602082019050919050565b6000612b3360358361335f565b9150612b3e82613b69565b604082019050919050565b6000612b5660218361335f565b9150612b6182613bb8565b604082019050919050565b612b7581613521565b82525050565b612b8481613521565b82525050565b612b9381613582565b82525050565b612ba28161353f565b82525050565b6000612bb4828461287b565b915081905092915050565b6000612bca826129c8565b9150612bd6828561282b565b602082019150612be6828461282b565b6020820191508190509392505050565b6000604082019050612c0b6000830185612658565b612c186020830184612b7b565b9392505050565b60006080820190508181036000830152612c398187612667565b90508181036020830152612c4d81866127af565b90508181036040830152612c6181856126c5565b9050612c70606083018461281c565b95945050505050565b6000602082019050612c8e600083018461280d565b92915050565b6000602082019050612ca9600083018461281c565b92915050565b600060a082019050612cc4600083018861281c565b612cd1602083018761281c565b612cde604083018661281c565b612ceb6060830185612b7b565b612cf86080830184612658565b9695505050505050565b6000606082019050612d17600083018661281c565b612d246020830185612b7b565b612d316040830184612b99565b949350505050565b6000608082019050612d4e600083018761281c565b612d5b6020830186612b99565b612d68604083018561281c565b612d75606083018461281c565b95945050505050565b6000602082019050612d9360008301846128ac565b92915050565b6000602082019050612dae60008301846128bb565b92915050565b60006020820190508181036000830152612dce8184612903565b905092915050565b60006020820190508181036000830152612def8161293c565b9050919050565b60006020820190508181036000830152612e0f8161295f565b9050919050565b60006020820190508181036000830152612e2f81612982565b9050919050565b60006020820190508181036000830152612e4f816129a5565b9050919050565b60006020820190508181036000830152612e6f816129eb565b9050919050565b60006020820190508181036000830152612e8f81612a0e565b9050919050565b60006020820190508181036000830152612eaf81612a31565b9050919050565b60006020820190508181036000830152612ecf81612a54565b9050919050565b60006020820190508181036000830152612eef81612a77565b9050919050565b60006020820190508181036000830152612f0f81612a9a565b9050919050565b60006020820190508181036000830152612f2f81612abd565b9050919050565b60006020820190508181036000830152612f4f81612ae0565b9050919050565b60006020820190508181036000830152612f6f81612b03565b9050919050565b60006020820190508181036000830152612f8f81612b26565b9050919050565b60006020820190508181036000830152612faf81612b49565b9050919050565b6000602082019050612fcb6000830184612b7b565b92915050565b600061012082019050612fe7600083018c612b7b565b612ff4602083018b612658565b8181036040830152613006818a612667565b9050818103606083015261301a81896127af565b9050818103608083015261302e818861273a565b905081810360a083015261304281876126c5565b905061305160c0830186612b8a565b61305e60e0830185612b8a565b8181036101008301526130718184612903565b90509a9950505050505050505050565b60006040820190506130966000830185612b7b565b6130a36020830184612b7b565b9392505050565b60006060820190506130bf6000830186612b7b565b6130cc6020830185612b7b565b6130d96040830184612b7b565b949350505050565b60006080820190506130f66000830187612b7b565b6131036020830186612b99565b6131106040830185612b7b565b81810360608301526131228184612903565b905095945050505050565b6000613137613148565b90506131438282613608565b919050565b6000604051905090565b600067ffffffffffffffff82111561316d5761316c613777565b5b602082029050602081019050919050565b600067ffffffffffffffff82111561319957613198613777565b5b602082029050602081019050919050565b600067ffffffffffffffff8211156131c5576131c4613777565b5b602082029050602081019050919050565b600067ffffffffffffffff8211156131f1576131f0613777565b5b6131fa826137c4565b9050602081019050919050565b600067ffffffffffffffff82111561322257613221613777565b5b61322b826137c4565b9050602081019050919050565b6000819050602082019050919050565b6000819050602082019050919050565b6000819050602082019050919050565b6000819050602082019050919050565b600081519050919050565b600081519050919050565b600081519050919050565b600081519050919050565b600081519050919050565b600081519050919050565b6000602082019050919050565b6000602082019050919050565b6000602082019050919050565b6000602082019050919050565b600082825260208201905092915050565b600082825260208201905092915050565b600082825260208201905092915050565b600082825260208201905092915050565b600082825260208201905092915050565b600081905092915050565b600082825260208201905092915050565b600082825260208201905092915050565b600081905092915050565b600061338682613521565b915061339183613521565b9250827fffffffffffffffffffffffffffffffffffffffffffffffffffffffffffffffff038211156133c6576133c561368c565b5b828201905092915050565b60006133dc8261352b565b91506133e78361352b565b92508267ffffffffffffffff038211156134045761340361368c565b5b828201905092915050565b600061341a82613521565b915061342583613521565b925082613435576134346136bb565b5b828204905092915050565b600061344b82613521565b915061345683613521565b9250817fffffffffffffffffffffffffffffffffffffffffffffffffffffffffffffffff048311821515161561348f5761348e61368c565b5b828202905092915050565b60006134a582613501565b9050919050565b60008115159050919050565b6000819050919050565b60007fffffffff0000000000000000000000000000000000000000000000000000000082169050919050565b60008190506134fc82613c07565b919050565b600073ffffffffffffffffffffffffffffffffffffffff82169050919050565b6000819050919050565b600067ffffffffffffffff82169050919050565b600060ff82169050919050565b60006135578261355e565b9050919050565b600061356982613501565b9050919050565b600061357b826134ee565b9050919050565b600061358d8261352b565b9050919050565b82818337600083830152505050565b60005b838110156135c15780820151818401526020810190506135a6565b838111156135d0576000848401525b50505050565b600060028204905060018216806135ee57607f821691505b6020821081141561360257613601613719565b5b50919050565b613611826137c4565b810181811067ffffffffffffffff821117156136305761362f613777565b5b80604052505050565b600061364482613521565b91507fffffffffffffffffffffffffffffffffffffffffffffffffffffffffffffffff8214156136775761367661368c565b5b600182019050919050565b6000819050919050565b7f4e487b7100000000000000000000000000000000000000000000000000000000600052601160045260246000fd5b7f4e487b7100000000000000000000000000000000000000000000000000000000600052601260045260246000fd5b7f4e487b7100000000000000000000000000000000000000000000000000000000600052602160045260246000fd5b7f4e487b7100000000000000000000000000000000000000000000000000000000600052602260045260246000fd5b7f4e487b7100000000000000000000000000000000000000000000000000000000600052603260045260246000fd5b7f4e487b7100000000000000000000000000000000000000000000000000000000600052604160045260246000fd5b600080fd5b600080fd5b600080fd5b600080fd5b600080fd5b600080fd5b6000601f19601f8301169050919050565b7f45434453413a20696e76616c6964207369676e61747572650000000000000000600082015250565b7f476f7665726e6f723a206f6e6c79476f7665726e616e63650000000000000000600082015250565b7f476f7665726e6f72566f74657351756f72756d4672616374696f6e3a2071756f60008201527f72756d4e756d657261746f72206f7665722071756f72756d44656e6f6d696e6160208201527f746f720000000000000000000000000000000000000000000000000000000000604082015250565b7f45434453413a20696e76616c6964207369676e6174757265206c656e67746800600082015250565b7f1901000000000000000000000000000000000000000000000000000000000000600082015250565b7f476f7665726e6f723a20696e76616c69642070726f706f73616c206c656e677460008201527f6800000000000000000000000000000000000000000000000000000000000000602082015250565b7f45434453413a20696e76616c6964207369676e6174757265202773272076616c60008201527f7565000000000000000000000000000000000000000000000000000000000000602082015250565b7f476f7665726e6f72566f74696e6753696d706c653a20766f746520616c72656160008201527f6479206361737400000000000000000000000000000000000000000000000000602082015250565b7f476f7665726e6f723a20766f7465206e6f742063757272656e746c792061637460008201527f6976650000000000000000000000000000000000000000000000000000000000602082015250565b7f476f7665726e6f723a20656d7074792070726f706f73616c0000000000000000600082015250565b7f45434453413a20696e76616c6964207369676e6174757265202776272076616c60008201527f7565000000000000000000000000000000000000000000000000000000000000602082015250565b7f53616665436173743a2076616c756520646f65736e27742066697420696e203660008201527f3420626974730000000000000000000000000000000000000000000000000000602082015250565b7f476f7665726e6f723a2070726f706f73616c206e6f742073756363657373667560008201527f6c00000000000000000000000000000000000000000000000000000000000000602082015250565b7f476f7665726e6f723a20756e6b6e6f776e2070726f706f73616c206964000000600082015250565b7f476f7665726e6f72566f74696e6753696d706c653a20696e76616c696420766160008201527f6c756520666f7220656e756d20566f7465547970650000000000000000000000602082015250565b7f476f7665726e6f723a2070726f706f73616c20616c726561647920657869737460008201527f7300000000000000000000000000000000000000000000000000000000000000602082015250565b60088110613c1857613c176136ea565b5b50565b613c248161349a565b8114613c2f57600080fd5b50565b613c3b816134b8565b8114613c4657600080fd5b50565b613c52816134c2565b8114613c5d57600080fd5b50565b613c6981613521565b8114613c7457600080fd5b50565b613c808161353f565b8114613c8b57600080fd5b5056fe476f7665726e6f723a2063616c6c20726576657274656420776974686f7574206d657373616765a2646970667358221220ffaced9947f0876c380c1e6cfd3815bd609f00f5c064135f4aabfdfa4b765b7364736f6c63430008050033",
  "immutableReferences": {
    "3881": [
      {
        "length": 32,
        "start": 4380
      },
      {
        "length": 32,
        "start": 4577
      },
      {
        "length": 32,
        "start": 4773
      }
    ],
    "8434": [
      {
        "length": 32,
        "start": 6263
      }
    ],
    "8436": [
      {
        "length": 32,
        "start": 6223
      }
    ],
    "8438": [
      {
        "length": 32,
        "start": 6339
      }
    ],
    "8440": [
      {
        "length": 32,
        "start": 6372
      }
    ],
    "8442": [
      {
        "length": 32,
        "start": 6306
      }
    ]
  },
  "source": "pragma solidity ^0.8.2;\r\n\r\nimport \"@openzeppelin/contracts/governance/Governor.sol\";\r\n\r\nimport \"@openzeppelin/contracts/governance/extensions/GovernorVotes.sol\";\r\n\r\nimport \"@openzeppelin/contracts/governance/extensions/GovernorVotesQuorumFraction.sol\";\r\n\r\nimport \"@openzeppelin/contracts/governance/extensions/GovernorCountingSimple.sol\";\r\n\r\nimport \"@openzeppelin/contracts/governance/compatibility/GovernorCompatibilityBravo.sol\";\r\n\r\ncontract MockGovernor is Governor, GovernorVotes, GovernorVotesQuorumFraction, GovernorCountingSimple{\r\n    \r\n    constructor(ERC20Votes _token) Governor(\"MockGovernor\") GovernorVotes(_token) GovernorVotesQuorumFraction(4){\r\n\r\n    }\r\n\r\n    function votingDelay() public pure override returns(uint){\r\n        return 6575;\r\n    }\r\n\r\n    function votingPeriod() public pure override returns(uint){\r\n        return 46027;\r\n    }\r\n\r\n\r\n}",
  "sourcePath": "/home/stephenstb/Ratio/ratio/contracts/MockGovernor.sol",
  "compiler": {
    "name": "solc",
    "version": "0.8.5+commit.a4f2e591.Emscripten.clang"
  },
  "schemaVersion": "3.4.3",
  "updatedAt": "2022-03-18T21:34:02.666Z",
  "devdoc": {
    "kind": "dev",
    "methods": {
      "COUNTING_MODE()": {
        "details": "See {IGovernor-COUNTING_MODE}."
      },
      "castVote(uint256,uint8)": {
        "details": "See {IGovernor-castVote}."
      },
      "castVoteBySig(uint256,uint8,uint8,bytes32,bytes32)": {
        "details": "See {IGovernor-castVoteBySig}."
      },
      "castVoteWithReason(uint256,uint8,string)": {
        "details": "See {IGovernor-castVoteWithReason}."
      },
      "execute(address[],uint256[],bytes[],bytes32)": {
        "details": "See {IGovernor-execute}."
      },
      "hasVoted(uint256,address)": {
        "details": "See {IGovernor-hasVoted}."
      },
      "hashProposal(address[],uint256[],bytes[],bytes32)": {
        "details": "See {IGovernor-hashProposal}. The proposal id is produced by hashing the RLC encoded `targets` array, the `values` array, the `calldatas` array and the descriptionHash (bytes32 which itself is the keccak256 hash of the description string). This proposal id can be produced from the proposal data which is part of the {ProposalCreated} event. It can even be computed in advance, before the proposal is submitted. Note that the chainId and the governor address are not part of the proposal id computation. Consequently, the same proposal (with same operation and same description) will have the same id if submitted on multiple governors accross multiple networks. This also means that in order to execute the same operation twice (on the same governor) the proposer will have to change the description in order to avoid proposal id conflicts."
      },
      "name()": {
        "details": "See {IGovernor-name}."
      },
      "proposalDeadline(uint256)": {
        "details": "See {IGovernor-proposalDeadline}."
      },
      "proposalSnapshot(uint256)": {
        "details": "See {IGovernor-proposalSnapshot}."
      },
      "proposalVotes(uint256)": {
        "details": "Accessor to the internal vote counts."
      },
      "propose(address[],uint256[],bytes[],string)": {
        "details": "See {IGovernor-propose}."
      },
      "quorum(uint256)": {
        "details": "Minimum number of cast voted required for a proposal to be successful. Note: The `blockNumber` parameter corresponds to the snaphot used for counting vote. This allows to scale the quroum depending on values such as the totalSupply of a token at this block (see {ERC20Votes})."
      },
      "state(uint256)": {
        "details": "See {IGovernor-state}."
      },
      "supportsInterface(bytes4)": {
        "details": "See {IERC165-supportsInterface}."
      },
      "version()": {
        "details": "See {IGovernor-version}."
      },
      "votingDelay()": {
        "details": "delay, in number of block, between the proposal is created and the vote starts. This can be increassed to leave time for users to buy voting power, of delegate it, before the voting of a proposal starts."
      },
      "votingPeriod()": {
        "details": "delay, in number of blocks, between the vote start and vote ends. Note: the {votingDelay} can delay the start of the vote. This must be considered when setting the voting duration compared to the voting delay."
      }
    },
    "version": 1
  },
  "userdoc": {
    "kind": "user",
    "methods": {
      "getVotes(address,uint256)": {
        "notice": "Read the voting weight from the token's built in snapshot mechanism (see {IGovernor-getVotes})."
      },
      "quorum(uint256)": {
        "notice": "module:user-config"
      },
      "votingDelay()": {
        "notice": "module:user-config"
      },
      "votingPeriod()": {
        "notice": "module:user-config"
      }
    },
    "version": 1
  }
}