{
  "contractName": "MockGovernor",
  "abi": [
    {
      "inputs": [
        {
          "internalType": "contract ERC20Votes",
          "name": "_token",
          "type": "address"
        }
      ],
      "stateMutability": "nonpayable",
      "type": "constructor"
    },
    {
      "inputs": [],
      "name": "Empty",
      "type": "error"
    },
    {
      "anonymous": false,
      "inputs": [
        {
          "indexed": false,
          "internalType": "uint256",
          "name": "proposalId",
          "type": "uint256"
        }
      ],
      "name": "ProposalCanceled",
      "type": "event"
    },
    {
      "anonymous": false,
      "inputs": [
        {
          "indexed": false,
          "internalType": "uint256",
          "name": "proposalId",
          "type": "uint256"
        },
        {
          "indexed": false,
          "internalType": "address",
          "name": "proposer",
          "type": "address"
        },
        {
          "indexed": false,
          "internalType": "address[]",
          "name": "targets",
          "type": "address[]"
        },
        {
          "indexed": false,
          "internalType": "uint256[]",
          "name": "values",
          "type": "uint256[]"
        },
        {
          "indexed": false,
          "internalType": "string[]",
          "name": "signatures",
          "type": "string[]"
        },
        {
          "indexed": false,
          "internalType": "bytes[]",
          "name": "calldatas",
          "type": "bytes[]"
        },
        {
          "indexed": false,
          "internalType": "uint256",
          "name": "startBlock",
          "type": "uint256"
        },
        {
          "indexed": false,
          "internalType": "uint256",
          "name": "endBlock",
          "type": "uint256"
        },
        {
          "indexed": false,
          "internalType": "string",
          "name": "description",
          "type": "string"
        }
      ],
      "name": "ProposalCreated",
      "type": "event"
    },
    {
      "anonymous": false,
      "inputs": [
        {
          "indexed": false,
          "internalType": "uint256",
          "name": "proposalId",
          "type": "uint256"
        }
      ],
      "name": "ProposalExecuted",
      "type": "event"
    },
    {
      "anonymous": false,
      "inputs": [
        {
          "indexed": false,
          "internalType": "uint256",
          "name": "oldQuorumNumerator",
          "type": "uint256"
        },
        {
          "indexed": false,
          "internalType": "uint256",
          "name": "newQuorumNumerator",
          "type": "uint256"
        }
      ],
      "name": "QuorumNumeratorUpdated",
      "type": "event"
    },
    {
      "anonymous": false,
      "inputs": [
        {
          "indexed": true,
          "internalType": "address",
          "name": "voter",
          "type": "address"
        },
        {
          "indexed": false,
          "internalType": "uint256",
          "name": "proposalId",
          "type": "uint256"
        },
        {
          "indexed": false,
          "internalType": "uint8",
          "name": "support",
          "type": "uint8"
        },
        {
          "indexed": false,
          "internalType": "uint256",
          "name": "weight",
          "type": "uint256"
        },
        {
          "indexed": false,
          "internalType": "string",
          "name": "reason",
          "type": "string"
        }
      ],
      "name": "VoteCast",
      "type": "event"
    },
    {
      "anonymous": false,
      "inputs": [
        {
          "indexed": true,
          "internalType": "address",
          "name": "voter",
          "type": "address"
        },
        {
          "indexed": false,
          "internalType": "uint256",
          "name": "proposalId",
          "type": "uint256"
        },
        {
          "indexed": false,
          "internalType": "uint8",
          "name": "support",
          "type": "uint8"
        },
        {
          "indexed": false,
          "internalType": "uint256",
          "name": "weight",
          "type": "uint256"
        },
        {
          "indexed": false,
          "internalType": "string",
          "name": "reason",
          "type": "string"
        },
        {
          "indexed": false,
          "internalType": "bytes",
          "name": "params",
          "type": "bytes"
        }
      ],
      "name": "VoteCastWithParams",
      "type": "event"
    },
    {
      "inputs": [],
      "name": "BALLOT_TYPEHASH",
      "outputs": [
        {
          "internalType": "bytes32",
          "name": "",
          "type": "bytes32"
        }
      ],
      "stateMutability": "view",
      "type": "function"
    },
    {
      "inputs": [],
      "name": "COUNTING_MODE",
      "outputs": [
        {
          "internalType": "string",
          "name": "",
          "type": "string"
        }
      ],
      "stateMutability": "pure",
      "type": "function"
    },
    {
      "inputs": [],
      "name": "EXTENDED_BALLOT_TYPEHASH",
      "outputs": [
        {
          "internalType": "bytes32",
          "name": "",
          "type": "bytes32"
        }
      ],
      "stateMutability": "view",
      "type": "function"
    },
    {
      "inputs": [
        {
          "internalType": "uint256",
          "name": "proposalId",
          "type": "uint256"
        },
        {
          "internalType": "uint8",
          "name": "support",
          "type": "uint8"
        }
      ],
      "name": "castVote",
      "outputs": [
        {
          "internalType": "uint256",
          "name": "",
          "type": "uint256"
        }
      ],
      "stateMutability": "nonpayable",
      "type": "function"
    },
    {
      "inputs": [
        {
          "internalType": "uint256",
          "name": "proposalId",
          "type": "uint256"
        },
        {
          "internalType": "uint8",
          "name": "support",
          "type": "uint8"
        },
        {
          "internalType": "uint8",
          "name": "v",
          "type": "uint8"
        },
        {
          "internalType": "bytes32",
          "name": "r",
          "type": "bytes32"
        },
        {
          "internalType": "bytes32",
          "name": "s",
          "type": "bytes32"
        }
      ],
      "name": "castVoteBySig",
      "outputs": [
        {
          "internalType": "uint256",
          "name": "",
          "type": "uint256"
        }
      ],
      "stateMutability": "nonpayable",
      "type": "function"
    },
    {
      "inputs": [
        {
          "internalType": "uint256",
          "name": "proposalId",
          "type": "uint256"
        },
        {
          "internalType": "uint8",
          "name": "support",
          "type": "uint8"
        },
        {
          "internalType": "string",
          "name": "reason",
          "type": "string"
        }
      ],
      "name": "castVoteWithReason",
      "outputs": [
        {
          "internalType": "uint256",
          "name": "",
          "type": "uint256"
        }
      ],
      "stateMutability": "nonpayable",
      "type": "function"
    },
    {
      "inputs": [
        {
          "internalType": "uint256",
          "name": "proposalId",
          "type": "uint256"
        },
        {
          "internalType": "uint8",
          "name": "support",
          "type": "uint8"
        },
        {
          "internalType": "string",
          "name": "reason",
          "type": "string"
        },
        {
          "internalType": "bytes",
          "name": "params",
          "type": "bytes"
        }
      ],
      "name": "castVoteWithReasonAndParams",
      "outputs": [
        {
          "internalType": "uint256",
          "name": "",
          "type": "uint256"
        }
      ],
      "stateMutability": "nonpayable",
      "type": "function"
    },
    {
      "inputs": [
        {
          "internalType": "uint256",
          "name": "proposalId",
          "type": "uint256"
        },
        {
          "internalType": "uint8",
          "name": "support",
          "type": "uint8"
        },
        {
          "internalType": "string",
          "name": "reason",
          "type": "string"
        },
        {
          "internalType": "bytes",
          "name": "params",
          "type": "bytes"
        },
        {
          "internalType": "uint8",
          "name": "v",
          "type": "uint8"
        },
        {
          "internalType": "bytes32",
          "name": "r",
          "type": "bytes32"
        },
        {
          "internalType": "bytes32",
          "name": "s",
          "type": "bytes32"
        }
      ],
      "name": "castVoteWithReasonAndParamsBySig",
      "outputs": [
        {
          "internalType": "uint256",
          "name": "",
          "type": "uint256"
        }
      ],
      "stateMutability": "nonpayable",
      "type": "function"
    },
    {
      "inputs": [
        {
          "internalType": "address[]",
          "name": "targets",
          "type": "address[]"
        },
        {
          "internalType": "uint256[]",
          "name": "values",
          "type": "uint256[]"
        },
        {
          "internalType": "bytes[]",
          "name": "calldatas",
          "type": "bytes[]"
        },
        {
          "internalType": "bytes32",
          "name": "descriptionHash",
          "type": "bytes32"
        }
      ],
      "name": "execute",
      "outputs": [
        {
          "internalType": "uint256",
          "name": "",
          "type": "uint256"
        }
      ],
      "stateMutability": "payable",
      "type": "function"
    },
    {
      "inputs": [
        {
          "internalType": "address",
          "name": "account",
          "type": "address"
        },
        {
          "internalType": "uint256",
          "name": "blockNumber",
          "type": "uint256"
        }
      ],
      "name": "getVotes",
      "outputs": [
        {
          "internalType": "uint256",
          "name": "",
          "type": "uint256"
        }
      ],
      "stateMutability": "view",
      "type": "function"
    },
    {
      "inputs": [
        {
          "internalType": "address",
          "name": "account",
          "type": "address"
        },
        {
          "internalType": "uint256",
          "name": "blockNumber",
          "type": "uint256"
        },
        {
          "internalType": "bytes",
          "name": "params",
          "type": "bytes"
        }
      ],
      "name": "getVotesWithParams",
      "outputs": [
        {
          "internalType": "uint256",
          "name": "",
          "type": "uint256"
        }
      ],
      "stateMutability": "view",
      "type": "function"
    },
    {
      "inputs": [
        {
          "internalType": "uint256",
          "name": "proposalId",
          "type": "uint256"
        },
        {
          "internalType": "address",
          "name": "account",
          "type": "address"
        }
      ],
      "name": "hasVoted",
      "outputs": [
        {
          "internalType": "bool",
          "name": "",
          "type": "bool"
        }
      ],
      "stateMutability": "view",
      "type": "function"
    },
    {
      "inputs": [
        {
          "internalType": "address[]",
          "name": "targets",
          "type": "address[]"
        },
        {
          "internalType": "uint256[]",
          "name": "values",
          "type": "uint256[]"
        },
        {
          "internalType": "bytes[]",
          "name": "calldatas",
          "type": "bytes[]"
        },
        {
          "internalType": "bytes32",
          "name": "descriptionHash",
          "type": "bytes32"
        }
      ],
      "name": "hashProposal",
      "outputs": [
        {
          "internalType": "uint256",
          "name": "",
          "type": "uint256"
        }
      ],
      "stateMutability": "pure",
      "type": "function"
    },
    {
      "inputs": [],
      "name": "name",
      "outputs": [
        {
          "internalType": "string",
          "name": "",
          "type": "string"
        }
      ],
      "stateMutability": "view",
      "type": "function"
    },
    {
      "inputs": [
        {
          "internalType": "address",
          "name": "",
          "type": "address"
        },
        {
          "internalType": "address",
          "name": "",
          "type": "address"
        },
        {
          "internalType": "uint256[]",
          "name": "",
          "type": "uint256[]"
        },
        {
          "internalType": "uint256[]",
          "name": "",
          "type": "uint256[]"
        },
        {
          "internalType": "bytes",
          "name": "",
          "type": "bytes"
        }
      ],
      "name": "onERC1155BatchReceived",
      "outputs": [
        {
          "internalType": "bytes4",
          "name": "",
          "type": "bytes4"
        }
      ],
      "stateMutability": "nonpayable",
      "type": "function"
    },
    {
      "inputs": [
        {
          "internalType": "address",
          "name": "",
          "type": "address"
        },
        {
          "internalType": "address",
          "name": "",
          "type": "address"
        },
        {
          "internalType": "uint256",
          "name": "",
          "type": "uint256"
        },
        {
          "internalType": "uint256",
          "name": "",
          "type": "uint256"
        },
        {
          "internalType": "bytes",
          "name": "",
          "type": "bytes"
        }
      ],
      "name": "onERC1155Received",
      "outputs": [
        {
          "internalType": "bytes4",
          "name": "",
          "type": "bytes4"
        }
      ],
      "stateMutability": "nonpayable",
      "type": "function"
    },
    {
      "inputs": [
        {
          "internalType": "address",
          "name": "",
          "type": "address"
        },
        {
          "internalType": "address",
          "name": "",
          "type": "address"
        },
        {
          "internalType": "uint256",
          "name": "",
          "type": "uint256"
        },
        {
          "internalType": "bytes",
          "name": "",
          "type": "bytes"
        }
      ],
      "name": "onERC721Received",
      "outputs": [
        {
          "internalType": "bytes4",
          "name": "",
          "type": "bytes4"
        }
      ],
      "stateMutability": "nonpayable",
      "type": "function"
    },
    {
      "inputs": [
        {
          "internalType": "uint256",
          "name": "proposalId",
          "type": "uint256"
        }
      ],
      "name": "proposalDeadline",
      "outputs": [
        {
          "internalType": "uint256",
          "name": "",
          "type": "uint256"
        }
      ],
      "stateMutability": "view",
      "type": "function"
    },
    {
      "inputs": [
        {
          "internalType": "uint256",
          "name": "proposalId",
          "type": "uint256"
        }
      ],
      "name": "proposalSnapshot",
      "outputs": [
        {
          "internalType": "uint256",
          "name": "",
          "type": "uint256"
        }
      ],
      "stateMutability": "view",
      "type": "function"
    },
    {
      "inputs": [],
      "name": "proposalThreshold",
      "outputs": [
        {
          "internalType": "uint256",
          "name": "",
          "type": "uint256"
        }
      ],
      "stateMutability": "view",
      "type": "function"
    },
    {
      "inputs": [
        {
          "internalType": "uint256",
          "name": "proposalId",
          "type": "uint256"
        }
      ],
      "name": "proposalVotes",
      "outputs": [
        {
          "internalType": "uint256",
          "name": "againstVotes",
          "type": "uint256"
        },
        {
          "internalType": "uint256",
          "name": "forVotes",
          "type": "uint256"
        },
        {
          "internalType": "uint256",
          "name": "abstainVotes",
          "type": "uint256"
        }
      ],
      "stateMutability": "view",
      "type": "function"
    },
    {
      "inputs": [
        {
          "internalType": "address[]",
          "name": "targets",
          "type": "address[]"
        },
        {
          "internalType": "uint256[]",
          "name": "values",
          "type": "uint256[]"
        },
        {
          "internalType": "bytes[]",
          "name": "calldatas",
          "type": "bytes[]"
        },
        {
          "internalType": "string",
          "name": "description",
          "type": "string"
        }
      ],
      "name": "propose",
      "outputs": [
        {
          "internalType": "uint256",
          "name": "",
          "type": "uint256"
        }
      ],
      "stateMutability": "nonpayable",
      "type": "function"
    },
    {
      "inputs": [
        {
          "internalType": "uint256",
          "name": "blockNumber",
          "type": "uint256"
        }
      ],
      "name": "quorum",
      "outputs": [
        {
          "internalType": "uint256",
          "name": "",
          "type": "uint256"
        }
      ],
      "stateMutability": "view",
      "type": "function"
    },
    {
      "inputs": [],
      "name": "quorumDenominator",
      "outputs": [
        {
          "internalType": "uint256",
          "name": "",
          "type": "uint256"
        }
      ],
      "stateMutability": "view",
      "type": "function"
    },
    {
      "inputs": [],
      "name": "quorumNumerator",
      "outputs": [
        {
          "internalType": "uint256",
          "name": "",
          "type": "uint256"
        }
      ],
      "stateMutability": "view",
      "type": "function"
    },
    {
      "inputs": [
        {
          "internalType": "address",
          "name": "target",
          "type": "address"
        },
        {
          "internalType": "uint256",
          "name": "value",
          "type": "uint256"
        },
        {
          "internalType": "bytes",
          "name": "data",
          "type": "bytes"
        }
      ],
      "name": "relay",
      "outputs": [],
      "stateMutability": "nonpayable",
      "type": "function"
    },
    {
      "inputs": [
        {
          "internalType": "uint256",
          "name": "proposalId",
          "type": "uint256"
        }
      ],
      "name": "state",
      "outputs": [
        {
          "internalType": "enum IGovernor.ProposalState",
          "name": "",
          "type": "uint8"
        }
      ],
      "stateMutability": "view",
      "type": "function"
    },
    {
      "inputs": [
        {
          "internalType": "bytes4",
          "name": "interfaceId",
          "type": "bytes4"
        }
      ],
      "name": "supportsInterface",
      "outputs": [
        {
          "internalType": "bool",
          "name": "",
          "type": "bool"
        }
      ],
      "stateMutability": "view",
      "type": "function"
    },
    {
      "inputs": [],
      "name": "token",
      "outputs": [
        {
          "internalType": "contract IVotes",
          "name": "",
          "type": "address"
        }
      ],
      "stateMutability": "view",
      "type": "function"
    },
    {
      "inputs": [
        {
          "internalType": "uint256",
          "name": "newQuorumNumerator",
          "type": "uint256"
        }
      ],
      "name": "updateQuorumNumerator",
      "outputs": [],
      "stateMutability": "nonpayable",
      "type": "function"
    },
    {
      "inputs": [],
      "name": "version",
      "outputs": [
        {
          "internalType": "string",
          "name": "",
          "type": "string"
        }
      ],
      "stateMutability": "view",
      "type": "function"
    },
    {
      "stateMutability": "payable",
      "type": "receive"
    },
    {
      "inputs": [],
      "name": "votingDelay",
      "outputs": [
        {
          "internalType": "uint256",
          "name": "",
          "type": "uint256"
        }
      ],
      "stateMutability": "pure",
      "type": "function"
    },
    {
      "inputs": [],
      "name": "votingPeriod",
      "outputs": [
        {
          "internalType": "uint256",
          "name": "",
          "type": "uint256"
        }
      ],
      "stateMutability": "pure",
      "type": "function"
    }
  ],
  "bytecode": "0x6101606040523480156200001257600080fd5b506040516200580c3803806200580c83398181016040528101906200003891906200038e565b6004816040518060400160405280600c81526020017f4d6f636b476f7665726e6f7200000000000000000000000000000000000000008152508062000082620001a360201b60201c565b60008280519060200120905060008280519060200120905060007f8b73c3c69bb8fe3d512ecc4cf759cc79239f7b179b0ffacaa9a75d522b39400f90508260e081815250508161010081815250504660a08181525050620000eb818484620001e060201b60201c565b608081815250503073ffffffffffffffffffffffffffffffffffffffff1660c08173ffffffffffffffffffffffffffffffffffffffff1660601b81525050806101208181525050505050505080600090805190602001906200014f929190620002c7565b50508073ffffffffffffffffffffffffffffffffffffffff166101408173ffffffffffffffffffffffffffffffffffffffff1660601b81525050506200019b816200021c60201b60201c565b50506200062c565b60606040518060400160405280600181526020017f3100000000000000000000000000000000000000000000000000000000000000815250905090565b60008383834630604051602001620001fd9594939291906200041a565b6040516020818303038152906040528051906020012090509392505050565b6200022c620002be60201b60201c565b81111562000271576040517f08c379a0000000000000000000000000000000000000000000000000000000008152600401620002689062000477565b60405180910390fd5b60006004549050816004819055507f0553476bf02ef2726e8ce5ced78d63e26e602e4a2257b1f559418e24b46339978183604051620002b292919062000499565b60405180910390a15050565b60006064905090565b828054620002d59062000533565b90600052602060002090601f016020900481019282620002f9576000855562000345565b82601f106200031457805160ff191683800117855562000345565b8280016001018555821562000345579182015b828111156200034457825182559160200191906001019062000327565b5b50905062000354919062000358565b5090565b5b808211156200037357600081600090555060010162000359565b5090565b600081519050620003888162000612565b92915050565b600060208284031215620003a757620003a662000598565b5b6000620003b78482850162000377565b91505092915050565b620003cb81620004d7565b82525050565b620003dc81620004eb565b82525050565b6000620003f1604383620004c6565b9150620003fe826200059d565b606082019050919050565b620004148162000529565b82525050565b600060a082019050620004316000830188620003d1565b620004406020830187620003d1565b6200044f6040830186620003d1565b6200045e606083018562000409565b6200046d6080830184620003c0565b9695505050505050565b600060208201905081810360008301526200049281620003e2565b9050919050565b6000604082019050620004b0600083018562000409565b620004bf602083018462000409565b9392505050565b600082825260208201905092915050565b6000620004e48262000509565b9050919050565b6000819050919050565b60006200050282620004d7565b9050919050565b600073ffffffffffffffffffffffffffffffffffffffff82169050919050565b6000819050919050565b600060028204905060018216806200054c57607f821691505b6020821081141562000563576200056262000569565b5b50919050565b7f4e487b7100000000000000000000000000000000000000000000000000000000600052602260045260246000fd5b600080fd5b7f476f7665726e6f72566f74657351756f72756d4672616374696f6e3a2071756f60008201527f72756d4e756d657261746f72206f7665722071756f72756d44656e6f6d696e6160208201527f746f720000000000000000000000000000000000000000000000000000000000604082015250565b6200061d81620004f5565b81146200062957600080fd5b50565b60805160a05160c05160601c60e05161010051610120516101405160601c6151716200069b6000396000818161186a0152818161192e01526120d40152600061227a015260006122bc0152600061229b015260006121d0015260006122260152600061224f01526151716000f3fe6080604052600436106101f25760003560e01c80635f398a141161010d578063c01f9e37116100a0578063deaaa7cc1161006f578063deaaa7cc14610814578063eb9019d41461083f578063f23a6e611461087c578063f8ce560a146108b9578063fc0c546a146108f657610238565b8063c01f9e3714610746578063c28bc2fa14610783578063c59057e4146107ac578063dd4e2ba5146107e957610238565b80639a802a6d116100dc5780639a802a6d14610676578063a7713a70146106b3578063b58131b0146106de578063bc197c811461070957610238565b80635f398a14146105945780637b3c71d3146105d15780637d5e81e21461060e57806397c3d3341461064b57610238565b80632fe3e26111610185578063438596321161015457806343859632146104b0578063544ffc9c146104ed57806354fd4d501461052c578063567813881461055757610238565b80632fe3e261146103e05780633932abb11461040b5780633bccf4fd146104365780633e4f49e61461047357610238565b806306fdde03116101c157806306fdde031461030b578063150b7a02146103365780632656227d146103735780632d63f693146103a357610238565b806301ffc9a71461023d57806302a251a31461027a57806303420181146102a557806306f3f9e6146102e257610238565b36610238573073ffffffffffffffffffffffffffffffffffffffff16610216610921565b73ffffffffffffffffffffffffffffffffffffffff161461023657600080fd5b005b600080fd5b34801561024957600080fd5b50610264600480360381019061025f91906133ac565b610929565b6040516102719190613e9b565b60405180910390f35b34801561028657600080fd5b5061028f610a8e565b60405161029c91906142a6565b60405180910390f35b3480156102b157600080fd5b506102cc60048036038101906102c791906135cb565b610a98565b6040516102d991906142a6565b60405180910390f35b3480156102ee57600080fd5b50610309600480360381019061030491906133d9565b610b7d565b005b34801561031757600080fd5b50610320610c79565b60405161032d9190614044565b60405180910390f35b34801561034257600080fd5b5061035d60048036038101906103589190612fdd565b610d0b565b60405161036a9190613ff3565b60405180910390f35b61038d6004803603810190610388919061321a565b610d1f565b60405161039a91906142a6565b60405180910390f35b3480156103af57600080fd5b506103ca60048036038101906103c591906133d9565b610e6c565b6040516103d791906142a6565b60405180910390f35b3480156103ec57600080fd5b506103f5610eda565b6040516104029190613eb6565b60405180910390f35b34801561041757600080fd5b50610420610efe565b60405161042d91906142a6565b60405180910390f35b34801561044257600080fd5b5061045d600480360381019061045891906136a9565b610f08565b60405161046a91906142a6565b60405180910390f35b34801561047f57600080fd5b5061049a600480360381019061049591906133d9565b610f92565b6040516104a79190614029565b60405180910390f35b3480156104bc57600080fd5b506104d760048036038101906104d29190613433565b6110a7565b6040516104e49190613e9b565b60405180910390f35b3480156104f957600080fd5b50610514600480360381019061050f91906133d9565b611112565b6040516105239392919061439a565b60405180910390f35b34801561053857600080fd5b5061054161114a565b60405161054e9190614044565b60405180910390f35b34801561056357600080fd5b5061057e60048036038101906105799190613473565b611187565b60405161058b91906142a6565b60405180910390f35b3480156105a057600080fd5b506105bb60048036038101906105b69190613527565b6111b8565b6040516105c891906142a6565b60405180910390f35b3480156105dd57600080fd5b506105f860048036038101906105f391906134b3565b611222565b60405161060591906142a6565b60405180910390f35b34801561061a57600080fd5b50610635600480360381019061063091906132d5565b61128a565b60405161064291906142a6565b60405180910390f35b34801561065757600080fd5b50610660611591565b60405161066d91906142a6565b60405180910390f35b34801561068257600080fd5b5061069d600480360381019061069891906131ab565b61159a565b6040516106aa91906142a6565b60405180910390f35b3480156106bf57600080fd5b506106c86115b0565b6040516106d591906142a6565b60405180910390f35b3480156106ea57600080fd5b506106f36115ba565b60405161070091906142a6565b60405180910390f35b34801561071557600080fd5b50610730600480360381019061072b9190612f0e565b6115bf565b60405161073d9190613ff3565b60405180910390f35b34801561075257600080fd5b5061076d600480360381019061076891906133d9565b6115d4565b60405161077a91906142a6565b60405180910390f35b34801561078f57600080fd5b506107aa60048036038101906107a59190613137565b611642565b005b3480156107b857600080fd5b506107d360048036038101906107ce919061321a565b611788565b6040516107e091906142a6565b60405180910390f35b3480156107f557600080fd5b506107fe6117c4565b60405161080b9190614044565b60405180910390f35b34801561082057600080fd5b50610829611801565b6040516108369190613eb6565b60405180910390f35b34801561084b57600080fd5b50610866600480360381019061086191906130f7565b611825565b60405161087391906142a6565b60405180910390f35b34801561088857600080fd5b506108a3600480360381019061089e9190613060565b611841565b6040516108b09190613ff3565b60405180910390f35b3480156108c557600080fd5b506108e060048036038101906108db91906133d9565b611856565b6040516108ed91906142a6565b60405180910390f35b34801561090257600080fd5b5061090b61192c565b604051610918919061400e565b60405180910390f35b600030905090565b6000639a802a6d60e01b630342018160e01b635f398a1460e01b7f79dd796f000000000000000000000000000000000000000000000000000000001818187bffffffffffffffffffffffffffffffffffffffffffffffffffffffff1916827bffffffffffffffffffffffffffffffffffffffffffffffffffffffff19161480610a0f57507f79dd796f000000000000000000000000000000000000000000000000000000007bffffffffffffffffffffffffffffffffffffffffffffffffffffffff1916827bffffffffffffffffffffffffffffffffffffffffffffffffffffffff1916145b80610a7757507f4e2312e0000000000000000000000000000000000000000000000000000000007bffffffffffffffffffffffffffffffffffffffffffffffffffffffff1916827bffffffffffffffffffffffffffffffffffffffffffffffffffffffff1916145b80610a875750610a8682611950565b5b9050919050565b600061b3cb905090565b600080610b1b610b137fb3b3f3b703cd84ce352197dcff232b1b5d3cfb2025ce47cf04742d0651f1af888c8c8c8c604051610ad4929190613db1565b60405180910390208b80519060200120604051602001610af8959493929190613f5b565b604051602081830303815290604052805190602001206119ba565b8686866119d4565b9050610b6e8a828b8b8b8080601f016020809104026020016040519081016040528093929190818152602001838380828437600081840152601f19601f820116905080830192505050505050508a6119ff565b91505098975050505050505050565b610b85610921565b73ffffffffffffffffffffffffffffffffffffffff16610ba3611bbc565b73ffffffffffffffffffffffffffffffffffffffff1614610bf9576040517f08c379a0000000000000000000000000000000000000000000000000000000008152600401610bf090614086565b60405180910390fd5b3073ffffffffffffffffffffffffffffffffffffffff16610c18610921565b73ffffffffffffffffffffffffffffffffffffffff1614610c6d576000610c3d611bc4565b604051610c4b929190613db1565b604051809103902090505b80610c616002611bd1565b14610c6b57610c56565b505b610c7681611cad565b50565b606060008054610c889061496c565b80601f0160208091040260200160405190810160405280929190818152602001828054610cb49061496c565b8015610d015780601f10610cd657610100808354040283529160200191610d01565b820191906000526020600020905b815481529060010190602001808311610ce457829003601f168201915b5050505050905090565b600063150b7a0260e01b9050949350505050565b600080610d2e86868686611788565b90506000610d3b82610f92565b905060046007811115610d5157610d50614a80565b5b816007811115610d6457610d63614a80565b5b1480610d94575060056007811115610d7f57610d7e614a80565b5b816007811115610d9257610d91614a80565b5b145b610dd3576040517f08c379a0000000000000000000000000000000000000000000000000000000008152600401610dca906141e6565b60405180910390fd5b600180600084815260200190815260200160002060020160006101000a81548160ff0219169083151502179055507f712ae1383f79ac853f8d882153778e0260ef8f03b504e2866e0593e04d2b291f82604051610e3091906142a6565b60405180910390a1610e458288888888611d42565b610e528288888888611e26565b610e5f8288888888611f35565b8192505050949350505050565b6000610ec9600160008481526020019081526020016000206000016040518060200160405290816000820160009054906101000a900467ffffffffffffffff1667ffffffffffffffff1667ffffffffffffffff1681525050611f90565b67ffffffffffffffff169050919050565b7fb3b3f3b703cd84ce352197dcff232b1b5d3cfb2025ce47cf04742d0651f1af8881565b60006119af905090565b600080610f69610f617f150214d74d59b7d1e90c73fc22ef3d991dd0a76b046543d4d80ab92d2a50328f8989604051602001610f4693929190613f24565b604051602081830303815290604052805190602001206119ba565b8686866119d4565b9050610f8687828860405180602001604052806000815250611f9e565b91505095945050505050565b6000806001600084815260200190815260200160002090508060020160009054906101000a900460ff1615610fcb5760079150506110a2565b8060020160019054906101000a900460ff1615610fec5760029150506110a2565b6000610ff784610e6c565b9050600081141561103d576040517f08c379a000000000000000000000000000000000000000000000000000000000815260040161103490614206565b60405180910390fd5b43811061104f576000925050506110a2565b600061105a856115d4565b905043811061106f57600193505050506110a2565b61107885611fbe565b8015611089575061108885612005565b5b1561109a57600493505050506110a2565b600393505050505b919050565b60006005600084815260200190815260200160002060030160008373ffffffffffffffffffffffffffffffffffffffff1673ffffffffffffffffffffffffffffffffffffffff16815260200190815260200160002060009054906101000a900460ff16905092915050565b600080600080600560008681526020019081526020016000209050806000015481600101548260020154935093509350509193909250565b60606040518060400160405280600181526020017f3100000000000000000000000000000000000000000000000000000000000000815250905090565b600080611192611bbc565b90506111af84828560405180602001604052806000815250611f9e565b91505092915050565b6000806111c3611bbc565b905061121687828888888080601f016020809104026020016040519081016040528093929190818152602001838380828437600081840152601f19601f82011690508083019250505050505050876119ff565b91505095945050505050565b60008061122d611bbc565b905061127f86828787878080601f016020809104026020016040519081016040528093929190818152602001838380828437600081840152601f19601f82011690508083019250505050505050611f9e565b915050949350505050565b60006112946115ba565b6112b161129f611bbc565b6001436112ac91906147fc565b611825565b10156112f2576040517f08c379a00000000000000000000000000000000000000000000000000000000081526004016112e990614286565b60405180910390fd5b60006113078686868680519060200120611788565b9050845186511461134d576040517f08c379a0000000000000000000000000000000000000000000000000000000008152600401611344906140e6565b60405180910390fd5b8351865114611391576040517f08c379a0000000000000000000000000000000000000000000000000000000008152600401611388906140e6565b60405180910390fd5b60008651116113d5576040517f08c379a00000000000000000000000000000000000000000000000000000000081526004016113cc90614186565b60405180910390fd5b6000600160008381526020019081526020016000209050611435816000016040518060200160405290816000820160009054906101000a900467ffffffffffffffff1667ffffffffffffffff1667ffffffffffffffff1681525050612030565b611474576040517f08c379a000000000000000000000000000000000000000000000000000000000815260040161146b90614246565b60405180910390fd5b6000611486611481610efe565b61204a565b61148f4361204a565b6114999190614733565b905060006114ad6114a8610a8e565b61204a565b826114b89190614733565b90506114d082846000016120a190919063ffffffff16565b6114e681846001016120a190919063ffffffff16565b7f7d84a6263ae0d98d3329bd7b46bb4e8d6f98cd35a7adb45c274c8b7fd5ebd5e084611510611bbc565b8b8b8d5167ffffffffffffffff81111561152d5761152c614b0d565b5b60405190808252806020026020018201604052801561156057816020015b606081526020019060019003908161154b5790505b508c88888e60405161157a999897969594939291906142c1565b60405180910390a183945050505050949350505050565b60006064905090565b60006115a78484846120d0565b90509392505050565b6000600454905090565b600090565b600063bc197c8160e01b905095945050505050565b6000611631600160008481526020019081526020016000206001016040518060200160405290816000820160009054906101000a900467ffffffffffffffff1667ffffffffffffffff1667ffffffffffffffff1681525050611f90565b67ffffffffffffffff169050919050565b61164a610921565b73ffffffffffffffffffffffffffffffffffffffff16611668611bbc565b73ffffffffffffffffffffffffffffffffffffffff16146116be576040517f08c379a00000000000000000000000000000000000000000000000000000000081526004016116b590614086565b60405180910390fd5b3073ffffffffffffffffffffffffffffffffffffffff166116dd610921565b73ffffffffffffffffffffffffffffffffffffffff1614611732576000611702611bc4565b604051611710929190613db1565b604051809103902090505b806117266002611bd1565b146117305761171b565b505b6117818483838080601f016020809104026020016040519081016040528093929190818152602001838380828437600081840152601f19601f8201169050808301925050505050505085612186565b5050505050565b6000848484846040516020016117a19493929190613e41565b6040516020818303038152906040528051906020012060001c9050949350505050565b60606040518060400160405280602081526020017f737570706f72743d627261766f2671756f72756d3d666f722c6162737461696e815250905090565b7f150214d74d59b7d1e90c73fc22ef3d991dd0a76b046543d4d80ab92d2a50328f81565b600061183983836118346121b5565b6120d0565b905092915050565b600063f23a6e6160e01b905095945050505050565b6000611860611591565b6118686115b0565b7f000000000000000000000000000000000000000000000000000000000000000073ffffffffffffffffffffffffffffffffffffffff16638e539e8c856040518263ffffffff1660e01b81526004016118c191906142a6565b60206040518083038186803b1580156118d957600080fd5b505afa1580156118ed573d6000803e3d6000fd5b505050506040513d601f19601f820116820180604052508101906119119190613406565b61191b91906147a2565b6119259190614771565b9050919050565b7f000000000000000000000000000000000000000000000000000000000000000081565b60007f01ffc9a7000000000000000000000000000000000000000000000000000000007bffffffffffffffffffffffffffffffffffffffffffffffffffffffff1916827bffffffffffffffffffffffffffffffffffffffffffffffffffffffff1916149050919050565b60006119cd6119c76121cc565b836122e6565b9050919050565b60008060006119e587878787612319565b915091506119f281612426565b8192505050949350505050565b60008060016000888152602001908152602001600020905060016007811115611a2b57611a2a614a80565b5b611a3488610f92565b6007811115611a4657611a45614a80565b5b14611a86576040517f08c379a0000000000000000000000000000000000000000000000000000000008152600401611a7d90614166565b60405180910390fd5b6000611ae587611ad5846000016040518060200160405290816000820160009054906101000a900467ffffffffffffffff1667ffffffffffffffff1667ffffffffffffffff1681525050611f90565b67ffffffffffffffff16866120d0565b9050611af488888884886125fb565b600084511415611b57578673ffffffffffffffffffffffffffffffffffffffff167fb8e138887d0aa13bab447e82de9d5c1777041ecd21ca36ba824ff1e6c07ddda489888489604051611b4a94939291906143d1565b60405180910390a2611bae565b8673ffffffffffffffffffffffffffffffffffffffff167fe2babfbac5889a709b63bb7f598b324e08bc5a4fb9ec647fb3cbc9ec07eb87128988848989604051611ba595949392919061441d565b60405180910390a25b809250505095945050505050565b600033905090565b3660008036915091509091565b6000611bdc82612802565b15611c13576040517f3db2a12a00000000000000000000000000000000000000000000000000000000815260040160405180910390fd5b60008260000160009054906101000a9004600f0b905082600101600082600f0b600f0b815260200190815260200160002054915082600101600082600f0b600f0b815260200190815260200160002060009055600181018360000160006101000a8154816fffffffffffffffffffffffffffffffff0219169083600f0b6fffffffffffffffffffffffffffffffff16021790555050919050565b611cb5611591565b811115611cf7576040517f08c379a0000000000000000000000000000000000000000000000000000000008152600401611cee906140a6565b60405180910390fd5b60006004549050816004819055507f0553476bf02ef2726e8ce5ced78d63e26e602e4a2257b1f559418e24b46339978183604051611d36929190614371565b60405180910390a15050565b3073ffffffffffffffffffffffffffffffffffffffff16611d61610921565b73ffffffffffffffffffffffffffffffffffffffff1614611e1f5760005b8451811015611e1d573073ffffffffffffffffffffffffffffffffffffffff16858281518110611db257611db1614ade565b5b602002602001015173ffffffffffffffffffffffffffffffffffffffff161415611e0c57611e0b838281518110611dec57611deb614ade565b5b602002602001015180519060200120600261283790919063ffffffff16565b5b80611e16906149cf565b9050611d7f565b505b5050505050565b60006040518060600160405280602781526020016150ec60279139905060005b8551811015611f2c57600080878381518110611e6557611e64614ade565b5b602002602001015173ffffffffffffffffffffffffffffffffffffffff16878481518110611e9657611e95614ade565b5b6020026020010151878581518110611eb157611eb0614ade565b5b6020026020010151604051611ec69190613dca565b60006040518083038185875af1925050503d8060008114611f03576040519150601f19603f3d011682016040523d82523d6000602084013e611f08565b606091505b5091509150611f188282866128b3565b50505080611f25906149cf565b9050611e46565b50505050505050565b3073ffffffffffffffffffffffffffffffffffffffff16611f54610921565b73ffffffffffffffffffffffffffffffffffffffff1614611f8957611f796002612802565b611f8857611f87600261291a565b5b5b5050505050565b600081600001519050919050565b6000611fb485858585611faf6121b5565b6119ff565b9050949350505050565b60008060056000848152602001908152602001600020905080600201548160010154611fea91906146dd565b611ffb611ff685610e6c565b611856565b1115915050919050565b6000806005600084815260200190815260200160002090508060000154816001015411915050919050565b600080826000015167ffffffffffffffff16149050919050565b600067ffffffffffffffff8016821115612099576040517f08c379a0000000000000000000000000000000000000000000000000000000008152600401612090906141c6565b60405180910390fd5b819050919050565b808260000160006101000a81548167ffffffffffffffff021916908367ffffffffffffffff1602179055505050565b60007f000000000000000000000000000000000000000000000000000000000000000073ffffffffffffffffffffffffffffffffffffffff16633a46b1a885856040518363ffffffff1660e01b815260040161212d929190613e18565b60206040518083038186803b15801561214557600080fd5b505afa158015612159573d6000803e3d6000fd5b505050506040513d601f19601f8201168201806040525081019061217d9190613406565b90509392505050565b60606121ac8484846040518060600160405280602981526020016151136029913961299b565b90509392505050565b606060405180602001604052806000815250905090565b60007f000000000000000000000000000000000000000000000000000000000000000073ffffffffffffffffffffffffffffffffffffffff163073ffffffffffffffffffffffffffffffffffffffff1614801561224857507f000000000000000000000000000000000000000000000000000000000000000046145b15612275577f000000000000000000000000000000000000000000000000000000000000000090506122e3565b6122e07f00000000000000000000000000000000000000000000000000000000000000007f00000000000000000000000000000000000000000000000000000000000000007f0000000000000000000000000000000000000000000000000000000000000000612aaf565b90505b90565b600082826040516020016122fb929190613de1565b60405160208183030381529060405280519060200120905092915050565b6000807f7fffffffffffffffffffffffffffffff5d576e7357a4501ddfe92f46681b20a08360001c111561235457600060039150915061241d565b601b8560ff161415801561236c5750601c8560ff1614155b1561237e57600060049150915061241d565b6000600187878787604051600081526020016040526040516123a39493929190613fae565b6020604051602081039080840390855afa1580156123c5573d6000803e3d6000fd5b505050602060405103519050600073ffffffffffffffffffffffffffffffffffffffff168173ffffffffffffffffffffffffffffffffffffffff1614156124145760006001925092505061241d565b80600092509250505b94509492505050565b6000600481111561243a57612439614a80565b5b81600481111561244d5761244c614a80565b5b1415612458576125f8565b6001600481111561246c5761246b614a80565b5b81600481111561247f5761247e614a80565b5b14156124c0576040517f08c379a00000000000000000000000000000000000000000000000000000000081526004016124b790614066565b60405180910390fd5b600260048111156124d4576124d3614a80565b5b8160048111156124e7576124e6614a80565b5b1415612528576040517f08c379a000000000000000000000000000000000000000000000000000000000815260040161251f906140c6565b60405180910390fd5b6003600481111561253c5761253b614a80565b5b81600481111561254f5761254e614a80565b5b1415612590576040517f08c379a000000000000000000000000000000000000000000000000000000000815260040161258790614106565b60405180910390fd5b6004808111156125a3576125a2614a80565b5b8160048111156125b6576125b5614a80565b5b14156125f7576040517f08c379a00000000000000000000000000000000000000000000000000000000081526004016125ee906141a6565b60405180910390fd5b5b50565b60006005600087815260200190815260200160002090508060030160008673ffffffffffffffffffffffffffffffffffffffff1673ffffffffffffffffffffffffffffffffffffffff16815260200190815260200160002060009054906101000a900460ff16156126a1576040517f08c379a000000000000000000000000000000000000000000000000000000000815260040161269890614126565b60405180910390fd5b60018160030160008773ffffffffffffffffffffffffffffffffffffffff1673ffffffffffffffffffffffffffffffffffffffff16815260200190815260200160002060006101000a81548160ff0219169083151502179055506000600281111561270f5761270e614a80565b5b60ff168460ff16141561273c578281600001600082825461273091906146dd565b925050819055506127fa565b600160028111156127505761274f614a80565b5b60ff168460ff16141561277d578281600101600082825461277191906146dd565b925050819055506127f9565b6002808111156127905761278f614a80565b5b60ff168460ff1614156127bd57828160020160008282546127b191906146dd565b925050819055506127f8565b6040517f08c379a00000000000000000000000000000000000000000000000000000000081526004016127ef90614226565b60405180910390fd5b5b5b505050505050565b60008160000160009054906101000a9004600f0b600f0b8260000160109054906101000a9004600f0b600f0b13159050919050565b60008260000160109054906101000a9004600f0b90508183600101600083600f0b600f0b815260200190815260200160002081905550600181018360000160106101000a8154816fffffffffffffffffffffffffffffffff0219169083600f0b6fffffffffffffffffffffffffffffffff160217905550505050565b606083156128c357829050612913565b6000835111156128d65782518084602001fd5b816040517f08c379a000000000000000000000000000000000000000000000000000000000815260040161290a9190614044565b60405180910390fd5b9392505050565b60008160000160006101000a8154816fffffffffffffffffffffffffffffffff0219169083600f0b6fffffffffffffffffffffffffffffffff16021790555060008160000160106101000a8154816fffffffffffffffffffffffffffffffff0219169083600f0b6fffffffffffffffffffffffffffffffff16021790555050565b6060824710156129e0576040517f08c379a00000000000000000000000000000000000000000000000000000000081526004016129d790614146565b60405180910390fd5b6129e985612ae9565b612a28576040517f08c379a0000000000000000000000000000000000000000000000000000000008152600401612a1f90614266565b60405180910390fd5b6000808673ffffffffffffffffffffffffffffffffffffffff168587604051612a519190613dca565b60006040518083038185875af1925050503d8060008114612a8e576040519150601f19603f3d011682016040523d82523d6000602084013e612a93565b606091505b5091509150612aa38282866128b3565b92505050949350505050565b60008383834630604051602001612aca959493929190613ed1565b6040516020818303038152906040528051906020012090509392505050565b6000808273ffffffffffffffffffffffffffffffffffffffff163b119050919050565b6000612b1f612b1a846144a3565b61447e565b90508083825260208201905082856020860282011115612b4257612b41614b46565b5b60005b85811015612b725781612b588882612cfe565b845260208401935060208301925050600181019050612b45565b5050509392505050565b6000612b8f612b8a846144cf565b61447e565b90508083825260208201905082856020860282011115612bb257612bb1614b46565b5b60005b85811015612c0057813567ffffffffffffffff811115612bd857612bd7614b41565b5b808601612be58982612e1d565b85526020850194506020840193505050600181019050612bb5565b5050509392505050565b6000612c1d612c18846144fb565b61447e565b90508083825260208201905082856020860282011115612c4057612c3f614b46565b5b60005b85811015612c705781612c568882612ecf565b845260208401935060208301925050600181019050612c43565b5050509392505050565b6000612c8d612c8884614527565b61447e565b905082815260208101848484011115612ca957612ca8614b4b565b5b612cb484828561492a565b509392505050565b6000612ccf612cca84614558565b61447e565b905082815260208101848484011115612ceb57612cea614b4b565b5b612cf684828561492a565b509392505050565b600081359050612d0d81615078565b92915050565b600082601f830112612d2857612d27614b41565b5b8135612d38848260208601612b0c565b91505092915050565b600082601f830112612d5657612d55614b41565b5b8135612d66848260208601612b7c565b91505092915050565b600082601f830112612d8457612d83614b41565b5b8135612d94848260208601612c0a565b91505092915050565b600081359050612dac8161508f565b92915050565b600081359050612dc1816150a6565b92915050565b60008083601f840112612ddd57612ddc614b41565b5b8235905067ffffffffffffffff811115612dfa57612df9614b3c565b5b602083019150836001820283011115612e1657612e15614b46565b5b9250929050565b600082601f830112612e3257612e31614b41565b5b8135612e42848260208601612c7a565b91505092915050565b60008083601f840112612e6157612e60614b41565b5b8235905067ffffffffffffffff811115612e7e57612e7d614b3c565b5b602083019150836001820283011115612e9a57612e99614b46565b5b9250929050565b600082601f830112612eb657612eb5614b41565b5b8135612ec6848260208601612cbc565b91505092915050565b600081359050612ede816150bd565b92915050565b600081519050612ef3816150bd565b92915050565b600081359050612f08816150d4565b92915050565b600080600080600060a08688031215612f2a57612f29614b55565b5b6000612f3888828901612cfe565b9550506020612f4988828901612cfe565b945050604086013567ffffffffffffffff811115612f6a57612f69614b50565b5b612f7688828901612d6f565b935050606086013567ffffffffffffffff811115612f9757612f96614b50565b5b612fa388828901612d6f565b925050608086013567ffffffffffffffff811115612fc457612fc3614b50565b5b612fd088828901612e1d565b9150509295509295909350565b60008060008060808587031215612ff757612ff6614b55565b5b600061300587828801612cfe565b945050602061301687828801612cfe565b935050604061302787828801612ecf565b925050606085013567ffffffffffffffff81111561304857613047614b50565b5b61305487828801612e1d565b91505092959194509250565b600080600080600060a0868803121561307c5761307b614b55565b5b600061308a88828901612cfe565b955050602061309b88828901612cfe565b94505060406130ac88828901612ecf565b93505060606130bd88828901612ecf565b925050608086013567ffffffffffffffff8111156130de576130dd614b50565b5b6130ea88828901612e1d565b9150509295509295909350565b6000806040838503121561310e5761310d614b55565b5b600061311c85828601612cfe565b925050602061312d85828601612ecf565b9150509250929050565b6000806000806060858703121561315157613150614b55565b5b600061315f87828801612cfe565b945050602061317087828801612ecf565b935050604085013567ffffffffffffffff81111561319157613190614b50565b5b61319d87828801612dc7565b925092505092959194509250565b6000806000606084860312156131c4576131c3614b55565b5b60006131d286828701612cfe565b93505060206131e386828701612ecf565b925050604084013567ffffffffffffffff81111561320457613203614b50565b5b61321086828701612e1d565b9150509250925092565b6000806000806080858703121561323457613233614b55565b5b600085013567ffffffffffffffff81111561325257613251614b50565b5b61325e87828801612d13565b945050602085013567ffffffffffffffff81111561327f5761327e614b50565b5b61328b87828801612d6f565b935050604085013567ffffffffffffffff8111156132ac576132ab614b50565b5b6132b887828801612d41565b92505060606132c987828801612d9d565b91505092959194509250565b600080600080608085870312156132ef576132ee614b55565b5b600085013567ffffffffffffffff81111561330d5761330c614b50565b5b61331987828801612d13565b945050602085013567ffffffffffffffff81111561333a57613339614b50565b5b61334687828801612d6f565b935050604085013567ffffffffffffffff81111561336757613366614b50565b5b61337387828801612d41565b925050606085013567ffffffffffffffff81111561339457613393614b50565b5b6133a087828801612ea1565b91505092959194509250565b6000602082840312156133c2576133c1614b55565b5b60006133d084828501612db2565b91505092915050565b6000602082840312156133ef576133ee614b55565b5b60006133fd84828501612ecf565b91505092915050565b60006020828403121561341c5761341b614b55565b5b600061342a84828501612ee4565b91505092915050565b6000806040838503121561344a57613449614b55565b5b600061345885828601612ecf565b925050602061346985828601612cfe565b9150509250929050565b6000806040838503121561348a57613489614b55565b5b600061349885828601612ecf565b92505060206134a985828601612ef9565b9150509250929050565b600080600080606085870312156134cd576134cc614b55565b5b60006134db87828801612ecf565b94505060206134ec87828801612ef9565b935050604085013567ffffffffffffffff81111561350d5761350c614b50565b5b61351987828801612e4b565b925092505092959194509250565b60008060008060006080868803121561354357613542614b55565b5b600061355188828901612ecf565b955050602061356288828901612ef9565b945050604086013567ffffffffffffffff81111561358357613582614b50565b5b61358f88828901612e4b565b9350935050606086013567ffffffffffffffff8111156135b2576135b1614b50565b5b6135be88828901612e1d565b9150509295509295909350565b60008060008060008060008060e0898b0312156135eb576135ea614b55565b5b60006135f98b828c01612ecf565b985050602061360a8b828c01612ef9565b975050604089013567ffffffffffffffff81111561362b5761362a614b50565b5b6136378b828c01612e4b565b9650965050606089013567ffffffffffffffff81111561365a57613659614b50565b5b6136668b828c01612e1d565b94505060806136778b828c01612ef9565b93505060a06136888b828c01612d9d565b92505060c06136998b828c01612d9d565b9150509295985092959890939650565b600080600080600060a086880312156136c5576136c4614b55565b5b60006136d388828901612ecf565b95505060206136e488828901612ef9565b94505060406136f588828901612ef9565b935050606061370688828901612d9d565b925050608061371788828901612d9d565b9150509295509295909350565b6000613730838361377c565b60208301905092915050565b600061374883836139a9565b905092915050565b600061375c8383613a6a565b905092915050565b60006137708383613d75565b60208301905092915050565b61378581614830565b82525050565b61379481614830565b82525050565b60006137a5826145c9565b6137af818561463f565b93506137ba83614589565b8060005b838110156137eb5781516137d28882613724565b97506137dd8361460b565b9250506001810190506137be565b5085935050505092915050565b6000613803826145d4565b61380d8185614650565b93508360208202850161381f85614599565b8060005b8581101561385b578484038952815161383c858261373c565b945061384783614618565b925060208a01995050600181019050613823565b50829750879550505050505092915050565b6000613878826145df565b6138828185614661565b935083602082028501613894856145a9565b8060005b858110156138d057848403895281516138b18582613750565b94506138bc83614625565b925060208a01995050600181019050613898565b50829750879550505050505092915050565b60006138ed826145ea565b6138f78185614672565b9350613902836145b9565b8060005b8381101561393357815161391a8882613764565b975061392583614632565b925050600181019050613906565b5085935050505092915050565b61394981614842565b82525050565b6139588161484e565b82525050565b61396f61396a8261484e565b614a18565b82525050565b61397e81614858565b82525050565b600061399083856146a5565b935061399d83858461492a565b82840190509392505050565b60006139b4826145f5565b6139be8185614683565b93506139ce818560208601614939565b6139d781614b5a565b840191505092915050565b60006139ed826145f5565b6139f78185614694565b9350613a07818560208601614939565b613a1081614b5a565b840191505092915050565b6000613a26826145f5565b613a3081856146a5565b9350613a40818560208601614939565b80840191505092915050565b613a55816148e2565b82525050565b613a6481614906565b82525050565b6000613a7582614600565b613a7f81856146b0565b9350613a8f818560208601614939565b613a9881614b5a565b840191505092915050565b6000613aae82614600565b613ab881856146c1565b9350613ac8818560208601614939565b613ad181614b5a565b840191505092915050565b6000613ae96018836146c1565b9150613af482614b6b565b602082019050919050565b6000613b0c6018836146c1565b9150613b1782614b94565b602082019050919050565b6000613b2f6043836146c1565b9150613b3a82614bbd565b606082019050919050565b6000613b52601f836146c1565b9150613b5d82614c32565b602082019050919050565b6000613b756002836146d2565b9150613b8082614c5b565b600282019050919050565b6000613b986021836146c1565b9150613ba382614c84565b604082019050919050565b6000613bbb6022836146c1565b9150613bc682614cd3565b604082019050919050565b6000613bde6027836146c1565b9150613be982614d22565b604082019050919050565b6000613c016026836146c1565b9150613c0c82614d71565b604082019050919050565b6000613c246023836146c1565b9150613c2f82614dc0565b604082019050919050565b6000613c476018836146c1565b9150613c5282614e0f565b602082019050919050565b6000613c6a6022836146c1565b9150613c7582614e38565b604082019050919050565b6000613c8d6026836146c1565b9150613c9882614e87565b604082019050919050565b6000613cb06021836146c1565b9150613cbb82614ed6565b604082019050919050565b6000613cd3601d836146c1565b9150613cde82614f25565b602082019050919050565b6000613cf66035836146c1565b9150613d0182614f4e565b604082019050919050565b6000613d196021836146c1565b9150613d2482614f9d565b604082019050919050565b6000613d3c601d836146c1565b9150613d4782614fec565b602082019050919050565b6000613d5f6031836146c1565b9150613d6a82615015565b604082019050919050565b613d7e816148b7565b82525050565b613d8d816148b7565b82525050565b613d9c81614918565b82525050565b613dab816148d5565b82525050565b6000613dbe828486613984565b91508190509392505050565b6000613dd68284613a1b565b915081905092915050565b6000613dec82613b68565b9150613df8828561395e565b602082019150613e08828461395e565b6020820191508190509392505050565b6000604082019050613e2d600083018561378b565b613e3a6020830184613d84565b9392505050565b60006080820190508181036000830152613e5b818761379a565b90508181036020830152613e6f81866138e2565b90508181036040830152613e8381856137f8565b9050613e92606083018461394f565b95945050505050565b6000602082019050613eb06000830184613940565b92915050565b6000602082019050613ecb600083018461394f565b92915050565b600060a082019050613ee6600083018861394f565b613ef3602083018761394f565b613f00604083018661394f565b613f0d6060830185613d84565b613f1a608083018461378b565b9695505050505050565b6000606082019050613f39600083018661394f565b613f466020830185613d84565b613f536040830184613da2565b949350505050565b600060a082019050613f70600083018861394f565b613f7d6020830187613d84565b613f8a6040830186613da2565b613f97606083018561394f565b613fa4608083018461394f565b9695505050505050565b6000608082019050613fc3600083018761394f565b613fd06020830186613da2565b613fdd604083018561394f565b613fea606083018461394f565b95945050505050565b60006020820190506140086000830184613975565b92915050565b60006020820190506140236000830184613a4c565b92915050565b600060208201905061403e6000830184613a5b565b92915050565b6000602082019050818103600083015261405e8184613aa3565b905092915050565b6000602082019050818103600083015261407f81613adc565b9050919050565b6000602082019050818103600083015261409f81613aff565b9050919050565b600060208201905081810360008301526140bf81613b22565b9050919050565b600060208201905081810360008301526140df81613b45565b9050919050565b600060208201905081810360008301526140ff81613b8b565b9050919050565b6000602082019050818103600083015261411f81613bae565b9050919050565b6000602082019050818103600083015261413f81613bd1565b9050919050565b6000602082019050818103600083015261415f81613bf4565b9050919050565b6000602082019050818103600083015261417f81613c17565b9050919050565b6000602082019050818103600083015261419f81613c3a565b9050919050565b600060208201905081810360008301526141bf81613c5d565b9050919050565b600060208201905081810360008301526141df81613c80565b9050919050565b600060208201905081810360008301526141ff81613ca3565b9050919050565b6000602082019050818103600083015261421f81613cc6565b9050919050565b6000602082019050818103600083015261423f81613ce9565b9050919050565b6000602082019050818103600083015261425f81613d0c565b9050919050565b6000602082019050818103600083015261427f81613d2f565b9050919050565b6000602082019050818103600083015261429f81613d52565b9050919050565b60006020820190506142bb6000830184613d84565b92915050565b6000610120820190506142d7600083018c613d84565b6142e4602083018b61378b565b81810360408301526142f6818a61379a565b9050818103606083015261430a81896138e2565b9050818103608083015261431e818861386d565b905081810360a083015261433281876137f8565b905061434160c0830186613d93565b61434e60e0830185613d93565b8181036101008301526143618184613aa3565b90509a9950505050505050505050565b60006040820190506143866000830185613d84565b6143936020830184613d84565b9392505050565b60006060820190506143af6000830186613d84565b6143bc6020830185613d84565b6143c96040830184613d84565b949350505050565b60006080820190506143e66000830187613d84565b6143f36020830186613da2565b6144006040830185613d84565b81810360608301526144128184613aa3565b905095945050505050565b600060a0820190506144326000830188613d84565b61443f6020830187613da2565b61444c6040830186613d84565b818103606083015261445e8185613aa3565b9050818103608083015261447281846139e2565b90509695505050505050565b6000614488614499565b9050614494828261499e565b919050565b6000604051905090565b600067ffffffffffffffff8211156144be576144bd614b0d565b5b602082029050602081019050919050565b600067ffffffffffffffff8211156144ea576144e9614b0d565b5b602082029050602081019050919050565b600067ffffffffffffffff82111561451657614515614b0d565b5b602082029050602081019050919050565b600067ffffffffffffffff82111561454257614541614b0d565b5b61454b82614b5a565b9050602081019050919050565b600067ffffffffffffffff82111561457357614572614b0d565b5b61457c82614b5a565b9050602081019050919050565b6000819050602082019050919050565b6000819050602082019050919050565b6000819050602082019050919050565b6000819050602082019050919050565b600081519050919050565b600081519050919050565b600081519050919050565b600081519050919050565b600081519050919050565b600081519050919050565b6000602082019050919050565b6000602082019050919050565b6000602082019050919050565b6000602082019050919050565b600082825260208201905092915050565b600082825260208201905092915050565b600082825260208201905092915050565b600082825260208201905092915050565b600082825260208201905092915050565b600082825260208201905092915050565b600081905092915050565b600082825260208201905092915050565b600082825260208201905092915050565b600081905092915050565b60006146e8826148b7565b91506146f3836148b7565b9250827fffffffffffffffffffffffffffffffffffffffffffffffffffffffffffffffff0382111561472857614727614a22565b5b828201905092915050565b600061473e826148c1565b9150614749836148c1565b92508267ffffffffffffffff0382111561476657614765614a22565b5b828201905092915050565b600061477c826148b7565b9150614787836148b7565b92508261479757614796614a51565b5b828204905092915050565b60006147ad826148b7565b91506147b8836148b7565b9250817fffffffffffffffffffffffffffffffffffffffffffffffffffffffffffffffff04831182151516156147f1576147f0614a22565b5b828202905092915050565b6000614807826148b7565b9150614812836148b7565b92508282101561482557614824614a22565b5b828203905092915050565b600061483b82614897565b9050919050565b60008115159050919050565b6000819050919050565b60007fffffffff0000000000000000000000000000000000000000000000000000000082169050919050565b600081905061489282615064565b919050565b600073ffffffffffffffffffffffffffffffffffffffff82169050919050565b6000819050919050565b600067ffffffffffffffff82169050919050565b600060ff82169050919050565b60006148ed826148f4565b9050919050565b60006148ff82614897565b9050919050565b600061491182614884565b9050919050565b6000614923826148c1565b9050919050565b82818337600083830152505050565b60005b8381101561495757808201518184015260208101905061493c565b83811115614966576000848401525b50505050565b6000600282049050600182168061498457607f821691505b6020821081141561499857614997614aaf565b5b50919050565b6149a782614b5a565b810181811067ffffffffffffffff821117156149c6576149c5614b0d565b5b80604052505050565b60006149da826148b7565b91507fffffffffffffffffffffffffffffffffffffffffffffffffffffffffffffffff821415614a0d57614a0c614a22565b5b600182019050919050565b6000819050919050565b7f4e487b7100000000000000000000000000000000000000000000000000000000600052601160045260246000fd5b7f4e487b7100000000000000000000000000000000000000000000000000000000600052601260045260246000fd5b7f4e487b7100000000000000000000000000000000000000000000000000000000600052602160045260246000fd5b7f4e487b7100000000000000000000000000000000000000000000000000000000600052602260045260246000fd5b7f4e487b7100000000000000000000000000000000000000000000000000000000600052603260045260246000fd5b7f4e487b7100000000000000000000000000000000000000000000000000000000600052604160045260246000fd5b600080fd5b600080fd5b600080fd5b600080fd5b600080fd5b600080fd5b6000601f19601f8301169050919050565b7f45434453413a20696e76616c6964207369676e61747572650000000000000000600082015250565b7f476f7665726e6f723a206f6e6c79476f7665726e616e63650000000000000000600082015250565b7f476f7665726e6f72566f74657351756f72756d4672616374696f6e3a2071756f60008201527f72756d4e756d657261746f72206f7665722071756f72756d44656e6f6d696e6160208201527f746f720000000000000000000000000000000000000000000000000000000000604082015250565b7f45434453413a20696e76616c6964207369676e6174757265206c656e67746800600082015250565b7f1901000000000000000000000000000000000000000000000000000000000000600082015250565b7f476f7665726e6f723a20696e76616c69642070726f706f73616c206c656e677460008201527f6800000000000000000000000000000000000000000000000000000000000000602082015250565b7f45434453413a20696e76616c6964207369676e6174757265202773272076616c60008201527f7565000000000000000000000000000000000000000000000000000000000000602082015250565b7f476f7665726e6f72566f74696e6753696d706c653a20766f746520616c72656160008201527f6479206361737400000000000000000000000000000000000000000000000000602082015250565b7f416464726573733a20696e73756666696369656e742062616c616e636520666f60008201527f722063616c6c0000000000000000000000000000000000000000000000000000602082015250565b7f476f7665726e6f723a20766f7465206e6f742063757272656e746c792061637460008201527f6976650000000000000000000000000000000000000000000000000000000000602082015250565b7f476f7665726e6f723a20656d7074792070726f706f73616c0000000000000000600082015250565b7f45434453413a20696e76616c6964207369676e6174757265202776272076616c60008201527f7565000000000000000000000000000000000000000000000000000000000000602082015250565b7f53616665436173743a2076616c756520646f65736e27742066697420696e203660008201527f3420626974730000000000000000000000000000000000000000000000000000602082015250565b7f476f7665726e6f723a2070726f706f73616c206e6f742073756363657373667560008201527f6c00000000000000000000000000000000000000000000000000000000000000602082015250565b7f476f7665726e6f723a20756e6b6e6f776e2070726f706f73616c206964000000600082015250565b7f476f7665726e6f72566f74696e6753696d706c653a20696e76616c696420766160008201527f6c756520666f7220656e756d20566f7465547970650000000000000000000000602082015250565b7f476f7665726e6f723a2070726f706f73616c20616c726561647920657869737460008201527f7300000000000000000000000000000000000000000000000000000000000000602082015250565b7f416464726573733a2063616c6c20746f206e6f6e2d636f6e7472616374000000600082015250565b7f476f7665726e6f723a2070726f706f73657220766f7465732062656c6f77207060008201527f726f706f73616c207468726573686f6c64000000000000000000000000000000602082015250565b6008811061507557615074614a80565b5b50565b61508181614830565b811461508c57600080fd5b50565b6150988161484e565b81146150a357600080fd5b50565b6150af81614858565b81146150ba57600080fd5b50565b6150c6816148b7565b81146150d157600080fd5b50565b6150dd816148d5565b81146150e857600080fd5b5056fe476f7665726e6f723a2063616c6c20726576657274656420776974686f7574206d657373616765416464726573733a206c6f772d6c6576656c2063616c6c20776974682076616c7565206661696c6564a264697066735822122042bc1345bca1366da6ff8e58d31e57db8b216f107df5b30cacced3987a3959c864736f6c63430008050033",
  "immutableReferences": {
    "9758": [
      {
        "length": 32,
        "start": 6250
      },
      {
        "length": 32,
        "start": 6446
      },
      {
        "length": 32,
        "start": 8404
      }
    ],
    "14653": [
      {
        "length": 32,
        "start": 8783
      }
    ],
    "14655": [
      {
        "length": 32,
        "start": 8742
      }
    ],
    "14657": [
      {
        "length": 32,
        "start": 8656
      }
    ],
    "14659": [
      {
        "length": 32,
        "start": 8859
      }
    ],
    "14661": [
      {
        "length": 32,
        "start": 8892
      }
    ],
    "14663": [
      {
        "length": 32,
        "start": 8826
      }
    ]
  },
  "source": "pragma solidity ^0.8.2;\r\n\r\nimport \"@openzeppelin/contracts/governance/Governor.sol\";\r\n\r\nimport \"@openzeppelin/contracts/governance/extensions/GovernorVotes.sol\";\r\n\r\nimport \"@openzeppelin/contracts/governance/extensions/GovernorVotesQuorumFraction.sol\";\r\n\r\nimport \"@openzeppelin/contracts/governance/extensions/GovernorCountingSimple.sol\";\r\n\r\nimport \"@openzeppelin/contracts/governance/compatibility/GovernorCompatibilityBravo.sol\";\r\n\r\nimport \"@openzeppelin/contracts/token/ERC20/extensions/ERC20Votes.sol\";\r\n\r\ncontract MockGovernor is Governor, GovernorVotes, GovernorVotesQuorumFraction, GovernorCountingSimple{\r\n    \r\n    constructor(ERC20Votes _token) Governor(\"MockGovernor\") GovernorVotes(_token) GovernorVotesQuorumFraction(4){\r\n\r\n    }\r\n\r\n    function votingDelay() public pure override returns(uint){\r\n        return 6575;\r\n    }\r\n\r\n    function votingPeriod() public pure override returns(uint){\r\n        return 46027;\r\n    }\r\n\r\n\r\n}",
  "sourcePath": "/home/stephenstb/Ratio-Labs/ratio-labs/contracts/old_contracts/MockGovernor.sol",
  "compiler": {
    "name": "solc",
    "version": "0.8.5+commit.a4f2e591.Emscripten.clang"
  },
  "schemaVersion": "3.3.3",
  "updatedAt": "2022-06-23T01:08:52.427Z",
  "devdoc": {
    "errors": {
      "Empty()": [
        {
          "details": "An operation (e.g. {front}) couldn't be completed due to the queue being empty."
        }
      ]
    },
    "kind": "dev",
    "methods": {
      "COUNTING_MODE()": {
        "details": "See {IGovernor-COUNTING_MODE}."
      },
      "castVote(uint256,uint8)": {
        "details": "See {IGovernor-castVote}."
      },
      "castVoteBySig(uint256,uint8,uint8,bytes32,bytes32)": {
        "details": "See {IGovernor-castVoteBySig}."
      },
      "castVoteWithReason(uint256,uint8,string)": {
        "details": "See {IGovernor-castVoteWithReason}."
      },
      "castVoteWithReasonAndParams(uint256,uint8,string,bytes)": {
        "details": "See {IGovernor-castVoteWithReasonAndParams}."
      },
      "castVoteWithReasonAndParamsBySig(uint256,uint8,string,bytes,uint8,bytes32,bytes32)": {
        "details": "See {IGovernor-castVoteWithReasonAndParamsBySig}."
      },
      "execute(address[],uint256[],bytes[],bytes32)": {
        "details": "See {IGovernor-execute}."
      },
      "getVotes(address,uint256)": {
        "details": "See {IGovernor-getVotes}."
      },
      "getVotesWithParams(address,uint256,bytes)": {
        "details": "See {IGovernor-getVotesWithParams}."
      },
      "hasVoted(uint256,address)": {
        "details": "See {IGovernor-hasVoted}."
      },
      "hashProposal(address[],uint256[],bytes[],bytes32)": {
        "details": "See {IGovernor-hashProposal}. The proposal id is produced by hashing the RLC encoded `targets` array, the `values` array, the `calldatas` array and the descriptionHash (bytes32 which itself is the keccak256 hash of the description string). This proposal id can be produced from the proposal data which is part of the {ProposalCreated} event. It can even be computed in advance, before the proposal is submitted. Note that the chainId and the governor address are not part of the proposal id computation. Consequently, the same proposal (with same operation and same description) will have the same id if submitted on multiple governors across multiple networks. This also means that in order to execute the same operation twice (on the same governor) the proposer will have to change the description in order to avoid proposal id conflicts."
      },
      "name()": {
        "details": "See {IGovernor-name}."
      },
      "onERC1155BatchReceived(address,address,uint256[],uint256[],bytes)": {
        "details": "See {IERC1155Receiver-onERC1155BatchReceived}."
      },
      "onERC1155Received(address,address,uint256,uint256,bytes)": {
        "details": "See {IERC1155Receiver-onERC1155Received}."
      },
      "onERC721Received(address,address,uint256,bytes)": {
        "details": "See {IERC721Receiver-onERC721Received}."
      },
      "proposalDeadline(uint256)": {
        "details": "See {IGovernor-proposalDeadline}."
      },
      "proposalSnapshot(uint256)": {
        "details": "See {IGovernor-proposalSnapshot}."
      },
      "proposalThreshold()": {
        "details": "Part of the Governor Bravo's interface: _\"The number of votes required in order for a voter to become a proposer\"_."
      },
      "proposalVotes(uint256)": {
        "details": "Accessor to the internal vote counts."
      },
      "propose(address[],uint256[],bytes[],string)": {
        "details": "See {IGovernor-propose}."
      },
      "quorum(uint256)": {
        "details": "Returns the quorum for a block number, in terms of number of votes: `supply * numerator / denominator`."
      },
      "quorumDenominator()": {
        "details": "Returns the quorum denominator. Defaults to 100, but may be overridden."
      },
      "quorumNumerator()": {
        "details": "Returns the current quorum numerator. See {quorumDenominator}."
      },
      "relay(address,uint256,bytes)": {
        "details": "Relays a transaction or function call to an arbitrary target. In cases where the governance executor is some contract other than the governor itself, like when using a timelock, this function can be invoked in a governance proposal to recover tokens or Ether that was sent to the governor contract by mistake. Note that if the executor is simply the governor itself, use of `relay` is redundant."
      },
      "state(uint256)": {
        "details": "See {IGovernor-state}."
      },
      "supportsInterface(bytes4)": {
        "details": "See {IERC165-supportsInterface}."
      },
      "updateQuorumNumerator(uint256)": {
        "details": "Changes the quorum numerator. Emits a {QuorumNumeratorUpdated} event. Requirements: - Must be called through a governance proposal. - New numerator must be smaller or equal to the denominator."
      },
      "version()": {
        "details": "See {IGovernor-version}."
      },
      "votingDelay()": {
        "details": "Delay, in number of block, between the proposal is created and the vote starts. This can be increassed to leave time for users to buy voting power, of delegate it, before the voting of a proposal starts."
      },
      "votingPeriod()": {
        "details": "Delay, in number of blocks, between the vote start and vote ends. NOTE: The {votingDelay} can delay the start of the vote. This must be considered when setting the voting duration compared to the voting delay."
      }
    },
    "version": 1
  },
  "userdoc": {
    "kind": "user",
    "methods": {
      "votingDelay()": {
        "notice": "module:user-config"
      },
      "votingPeriod()": {
        "notice": "module:user-config"
      }
    },
    "version": 1
  }
}