{
  "contractName": "MyGovernor",
  "abi": [
    {
      "inputs": [
        {
          "internalType": "contract ERC20Votes",
          "name": "_token",
          "type": "address"
        },
        {
          "internalType": "contract TimelockController",
          "name": "_timelock",
          "type": "address"
        }
      ],
      "stateMutability": "nonpayable",
      "type": "constructor"
    },
    {
      "anonymous": false,
      "inputs": [
        {
          "indexed": false,
          "internalType": "uint256",
          "name": "proposalId",
          "type": "uint256"
        }
      ],
      "name": "ProposalCanceled",
      "type": "event"
    },
    {
      "anonymous": false,
      "inputs": [
        {
          "indexed": false,
          "internalType": "uint256",
          "name": "proposalId",
          "type": "uint256"
        },
        {
          "indexed": false,
          "internalType": "address",
          "name": "proposer",
          "type": "address"
        },
        {
          "indexed": false,
          "internalType": "address[]",
          "name": "targets",
          "type": "address[]"
        },
        {
          "indexed": false,
          "internalType": "uint256[]",
          "name": "values",
          "type": "uint256[]"
        },
        {
          "indexed": false,
          "internalType": "string[]",
          "name": "signatures",
          "type": "string[]"
        },
        {
          "indexed": false,
          "internalType": "bytes[]",
          "name": "calldatas",
          "type": "bytes[]"
        },
        {
          "indexed": false,
          "internalType": "uint256",
          "name": "startBlock",
          "type": "uint256"
        },
        {
          "indexed": false,
          "internalType": "uint256",
          "name": "endBlock",
          "type": "uint256"
        },
        {
          "indexed": false,
          "internalType": "string",
          "name": "description",
          "type": "string"
        }
      ],
      "name": "ProposalCreated",
      "type": "event"
    },
    {
      "anonymous": false,
      "inputs": [
        {
          "indexed": false,
          "internalType": "uint256",
          "name": "proposalId",
          "type": "uint256"
        }
      ],
      "name": "ProposalExecuted",
      "type": "event"
    },
    {
      "anonymous": false,
      "inputs": [
        {
          "indexed": false,
          "internalType": "uint256",
          "name": "proposalId",
          "type": "uint256"
        },
        {
          "indexed": false,
          "internalType": "uint256",
          "name": "eta",
          "type": "uint256"
        }
      ],
      "name": "ProposalQueued",
      "type": "event"
    },
    {
      "anonymous": false,
      "inputs": [
        {
          "indexed": false,
          "internalType": "uint256",
          "name": "oldQuorumNumerator",
          "type": "uint256"
        },
        {
          "indexed": false,
          "internalType": "uint256",
          "name": "newQuorumNumerator",
          "type": "uint256"
        }
      ],
      "name": "QuorumNumeratorUpdated",
      "type": "event"
    },
    {
      "anonymous": false,
      "inputs": [
        {
          "indexed": false,
          "internalType": "address",
          "name": "oldTimelock",
          "type": "address"
        },
        {
          "indexed": false,
          "internalType": "address",
          "name": "newTimelock",
          "type": "address"
        }
      ],
      "name": "TimelockChange",
      "type": "event"
    },
    {
      "anonymous": false,
      "inputs": [
        {
          "indexed": true,
          "internalType": "address",
          "name": "voter",
          "type": "address"
        },
        {
          "indexed": false,
          "internalType": "uint256",
          "name": "proposalId",
          "type": "uint256"
        },
        {
          "indexed": false,
          "internalType": "uint8",
          "name": "support",
          "type": "uint8"
        },
        {
          "indexed": false,
          "internalType": "uint256",
          "name": "weight",
          "type": "uint256"
        },
        {
          "indexed": false,
          "internalType": "string",
          "name": "reason",
          "type": "string"
        }
      ],
      "name": "VoteCast",
      "type": "event"
    },
    {
      "inputs": [],
      "name": "BALLOT_TYPEHASH",
      "outputs": [
        {
          "internalType": "bytes32",
          "name": "",
          "type": "bytes32"
        }
      ],
      "stateMutability": "view",
      "type": "function"
    },
    {
      "inputs": [],
      "name": "COUNTING_MODE",
      "outputs": [
        {
          "internalType": "string",
          "name": "",
          "type": "string"
        }
      ],
      "stateMutability": "pure",
      "type": "function"
    },
    {
      "inputs": [
        {
          "internalType": "uint256",
          "name": "proposalId",
          "type": "uint256"
        }
      ],
      "name": "cancel",
      "outputs": [],
      "stateMutability": "nonpayable",
      "type": "function"
    },
    {
      "inputs": [
        {
          "internalType": "uint256",
          "name": "proposalId",
          "type": "uint256"
        },
        {
          "internalType": "uint8",
          "name": "support",
          "type": "uint8"
        }
      ],
      "name": "castVote",
      "outputs": [
        {
          "internalType": "uint256",
          "name": "",
          "type": "uint256"
        }
      ],
      "stateMutability": "nonpayable",
      "type": "function"
    },
    {
      "inputs": [
        {
          "internalType": "uint256",
          "name": "proposalId",
          "type": "uint256"
        },
        {
          "internalType": "uint8",
          "name": "support",
          "type": "uint8"
        },
        {
          "internalType": "uint8",
          "name": "v",
          "type": "uint8"
        },
        {
          "internalType": "bytes32",
          "name": "r",
          "type": "bytes32"
        },
        {
          "internalType": "bytes32",
          "name": "s",
          "type": "bytes32"
        }
      ],
      "name": "castVoteBySig",
      "outputs": [
        {
          "internalType": "uint256",
          "name": "",
          "type": "uint256"
        }
      ],
      "stateMutability": "nonpayable",
      "type": "function"
    },
    {
      "inputs": [
        {
          "internalType": "uint256",
          "name": "proposalId",
          "type": "uint256"
        },
        {
          "internalType": "uint8",
          "name": "support",
          "type": "uint8"
        },
        {
          "internalType": "string",
          "name": "reason",
          "type": "string"
        }
      ],
      "name": "castVoteWithReason",
      "outputs": [
        {
          "internalType": "uint256",
          "name": "",
          "type": "uint256"
        }
      ],
      "stateMutability": "nonpayable",
      "type": "function"
    },
    {
      "inputs": [
        {
          "internalType": "address[]",
          "name": "targets",
          "type": "address[]"
        },
        {
          "internalType": "uint256[]",
          "name": "values",
          "type": "uint256[]"
        },
        {
          "internalType": "bytes[]",
          "name": "calldatas",
          "type": "bytes[]"
        },
        {
          "internalType": "bytes32",
          "name": "descriptionHash",
          "type": "bytes32"
        }
      ],
      "name": "execute",
      "outputs": [
        {
          "internalType": "uint256",
          "name": "",
          "type": "uint256"
        }
      ],
      "stateMutability": "payable",
      "type": "function"
    },
    {
      "inputs": [
        {
          "internalType": "uint256",
          "name": "proposalId",
          "type": "uint256"
        }
      ],
      "name": "execute",
      "outputs": [],
      "stateMutability": "payable",
      "type": "function"
    },
    {
      "inputs": [
        {
          "internalType": "uint256",
          "name": "proposalId",
          "type": "uint256"
        }
      ],
      "name": "getActions",
      "outputs": [
        {
          "internalType": "address[]",
          "name": "targets",
          "type": "address[]"
        },
        {
          "internalType": "uint256[]",
          "name": "values",
          "type": "uint256[]"
        },
        {
          "internalType": "string[]",
          "name": "signatures",
          "type": "string[]"
        },
        {
          "internalType": "bytes[]",
          "name": "calldatas",
          "type": "bytes[]"
        }
      ],
      "stateMutability": "view",
      "type": "function"
    },
    {
      "inputs": [
        {
          "internalType": "uint256",
          "name": "proposalId",
          "type": "uint256"
        },
        {
          "internalType": "address",
          "name": "voter",
          "type": "address"
        }
      ],
      "name": "getReceipt",
      "outputs": [
        {
          "components": [
            {
              "internalType": "bool",
              "name": "hasVoted",
              "type": "bool"
            },
            {
              "internalType": "uint8",
              "name": "support",
              "type": "uint8"
            },
            {
              "internalType": "uint96",
              "name": "votes",
              "type": "uint96"
            }
          ],
          "internalType": "struct IGovernorCompatibilityBravo.Receipt",
          "name": "",
          "type": "tuple"
        }
      ],
      "stateMutability": "view",
      "type": "function"
    },
    {
      "inputs": [
        {
          "internalType": "uint256",
          "name": "proposalId",
          "type": "uint256"
        },
        {
          "internalType": "address",
          "name": "account",
          "type": "address"
        }
      ],
      "name": "hasVoted",
      "outputs": [
        {
          "internalType": "bool",
          "name": "",
          "type": "bool"
        }
      ],
      "stateMutability": "view",
      "type": "function"
    },
    {
      "inputs": [
        {
          "internalType": "address[]",
          "name": "targets",
          "type": "address[]"
        },
        {
          "internalType": "uint256[]",
          "name": "values",
          "type": "uint256[]"
        },
        {
          "internalType": "bytes[]",
          "name": "calldatas",
          "type": "bytes[]"
        },
        {
          "internalType": "bytes32",
          "name": "descriptionHash",
          "type": "bytes32"
        }
      ],
      "name": "hashProposal",
      "outputs": [
        {
          "internalType": "uint256",
          "name": "",
          "type": "uint256"
        }
      ],
      "stateMutability": "pure",
      "type": "function"
    },
    {
      "inputs": [],
      "name": "name",
      "outputs": [
        {
          "internalType": "string",
          "name": "",
          "type": "string"
        }
      ],
      "stateMutability": "view",
      "type": "function"
    },
    {
      "inputs": [
        {
          "internalType": "uint256",
          "name": "proposalId",
          "type": "uint256"
        }
      ],
      "name": "proposalDeadline",
      "outputs": [
        {
          "internalType": "uint256",
          "name": "",
          "type": "uint256"
        }
      ],
      "stateMutability": "view",
      "type": "function"
    },
    {
      "inputs": [
        {
          "internalType": "uint256",
          "name": "proposalId",
          "type": "uint256"
        }
      ],
      "name": "proposalEta",
      "outputs": [
        {
          "internalType": "uint256",
          "name": "",
          "type": "uint256"
        }
      ],
      "stateMutability": "view",
      "type": "function"
    },
    {
      "inputs": [
        {
          "internalType": "uint256",
          "name": "proposalId",
          "type": "uint256"
        }
      ],
      "name": "proposalSnapshot",
      "outputs": [
        {
          "internalType": "uint256",
          "name": "",
          "type": "uint256"
        }
      ],
      "stateMutability": "view",
      "type": "function"
    },
    {
      "inputs": [
        {
          "internalType": "uint256",
          "name": "proposalId",
          "type": "uint256"
        }
      ],
      "name": "proposals",
      "outputs": [
        {
          "internalType": "uint256",
          "name": "id",
          "type": "uint256"
        },
        {
          "internalType": "address",
          "name": "proposer",
          "type": "address"
        },
        {
          "internalType": "uint256",
          "name": "eta",
          "type": "uint256"
        },
        {
          "internalType": "uint256",
          "name": "startBlock",
          "type": "uint256"
        },
        {
          "internalType": "uint256",
          "name": "endBlock",
          "type": "uint256"
        },
        {
          "internalType": "uint256",
          "name": "forVotes",
          "type": "uint256"
        },
        {
          "internalType": "uint256",
          "name": "againstVotes",
          "type": "uint256"
        },
        {
          "internalType": "uint256",
          "name": "abstainVotes",
          "type": "uint256"
        },
        {
          "internalType": "bool",
          "name": "canceled",
          "type": "bool"
        },
        {
          "internalType": "bool",
          "name": "executed",
          "type": "bool"
        }
      ],
      "stateMutability": "view",
      "type": "function"
    },
    {
      "inputs": [
        {
          "internalType": "address[]",
          "name": "targets",
          "type": "address[]"
        },
        {
          "internalType": "uint256[]",
          "name": "values",
          "type": "uint256[]"
        },
        {
          "internalType": "bytes[]",
          "name": "calldatas",
          "type": "bytes[]"
        },
        {
          "internalType": "bytes32",
          "name": "descriptionHash",
          "type": "bytes32"
        }
      ],
      "name": "queue",
      "outputs": [
        {
          "internalType": "uint256",
          "name": "",
          "type": "uint256"
        }
      ],
      "stateMutability": "nonpayable",
      "type": "function"
    },
    {
      "inputs": [
        {
          "internalType": "uint256",
          "name": "proposalId",
          "type": "uint256"
        }
      ],
      "name": "queue",
      "outputs": [],
      "stateMutability": "nonpayable",
      "type": "function"
    },
    {
      "inputs": [],
      "name": "quorumDenominator",
      "outputs": [
        {
          "internalType": "uint256",
          "name": "",
          "type": "uint256"
        }
      ],
      "stateMutability": "view",
      "type": "function"
    },
    {
      "inputs": [],
      "name": "quorumNumerator",
      "outputs": [
        {
          "internalType": "uint256",
          "name": "",
          "type": "uint256"
        }
      ],
      "stateMutability": "view",
      "type": "function"
    },
    {
      "inputs": [],
      "name": "quorumVotes",
      "outputs": [
        {
          "internalType": "uint256",
          "name": "",
          "type": "uint256"
        }
      ],
      "stateMutability": "view",
      "type": "function"
    },
    {
      "inputs": [],
      "name": "timelock",
      "outputs": [
        {
          "internalType": "address",
          "name": "",
          "type": "address"
        }
      ],
      "stateMutability": "view",
      "type": "function"
    },
    {
      "inputs": [],
      "name": "token",
      "outputs": [
        {
          "internalType": "contract ERC20Votes",
          "name": "",
          "type": "address"
        }
      ],
      "stateMutability": "view",
      "type": "function"
    },
    {
      "inputs": [
        {
          "internalType": "uint256",
          "name": "newQuorumNumerator",
          "type": "uint256"
        }
      ],
      "name": "updateQuorumNumerator",
      "outputs": [],
      "stateMutability": "nonpayable",
      "type": "function"
    },
    {
      "inputs": [
        {
          "internalType": "contract TimelockController",
          "name": "newTimelock",
          "type": "address"
        }
      ],
      "name": "updateTimelock",
      "outputs": [],
      "stateMutability": "nonpayable",
      "type": "function"
    },
    {
      "inputs": [],
      "name": "version",
      "outputs": [
        {
          "internalType": "string",
          "name": "",
          "type": "string"
        }
      ],
      "stateMutability": "view",
      "type": "function"
    },
    {
      "inputs": [],
      "name": "votingDelay",
      "outputs": [
        {
          "internalType": "uint256",
          "name": "",
          "type": "uint256"
        }
      ],
      "stateMutability": "pure",
      "type": "function"
    },
    {
      "inputs": [],
      "name": "votingPeriod",
      "outputs": [
        {
          "internalType": "uint256",
          "name": "",
          "type": "uint256"
        }
      ],
      "stateMutability": "pure",
      "type": "function"
    },
    {
      "inputs": [],
      "name": "proposalThreshold",
      "outputs": [
        {
          "internalType": "uint256",
          "name": "",
          "type": "uint256"
        }
      ],
      "stateMutability": "pure",
      "type": "function"
    },
    {
      "inputs": [
        {
          "internalType": "uint256",
          "name": "blockNumber",
          "type": "uint256"
        }
      ],
      "name": "quorum",
      "outputs": [
        {
          "internalType": "uint256",
          "name": "",
          "type": "uint256"
        }
      ],
      "stateMutability": "view",
      "type": "function"
    },
    {
      "inputs": [
        {
          "internalType": "address",
          "name": "account",
          "type": "address"
        },
        {
          "internalType": "uint256",
          "name": "blockNumber",
          "type": "uint256"
        }
      ],
      "name": "getVotes",
      "outputs": [
        {
          "internalType": "uint256",
          "name": "",
          "type": "uint256"
        }
      ],
      "stateMutability": "view",
      "type": "function"
    },
    {
      "inputs": [
        {
          "internalType": "uint256",
          "name": "proposalId",
          "type": "uint256"
        }
      ],
      "name": "state",
      "outputs": [
        {
          "internalType": "enum IGovernor.ProposalState",
          "name": "",
          "type": "uint8"
        }
      ],
      "stateMutability": "view",
      "type": "function"
    },
    {
      "inputs": [
        {
          "internalType": "address[]",
          "name": "targets",
          "type": "address[]"
        },
        {
          "internalType": "uint256[]",
          "name": "values",
          "type": "uint256[]"
        },
        {
          "internalType": "bytes[]",
          "name": "calldatas",
          "type": "bytes[]"
        },
        {
          "internalType": "string",
          "name": "description",
          "type": "string"
        }
      ],
      "name": "propose",
      "outputs": [
        {
          "internalType": "uint256",
          "name": "",
          "type": "uint256"
        }
      ],
      "stateMutability": "nonpayable",
      "type": "function"
    },
    {
      "inputs": [
        {
          "internalType": "address[]",
          "name": "targets",
          "type": "address[]"
        },
        {
          "internalType": "uint256[]",
          "name": "values",
          "type": "uint256[]"
        },
        {
          "internalType": "string[]",
          "name": "signatures",
          "type": "string[]"
        },
        {
          "internalType": "bytes[]",
          "name": "calldatas",
          "type": "bytes[]"
        },
        {
          "internalType": "string",
          "name": "description",
          "type": "string"
        }
      ],
      "name": "propose",
      "outputs": [
        {
          "internalType": "uint256",
          "name": "",
          "type": "uint256"
        }
      ],
      "stateMutability": "nonpayable",
      "type": "function"
    },
    {
      "inputs": [
        {
          "internalType": "bytes4",
          "name": "interfaceId",
          "type": "bytes4"
        }
      ],
      "name": "supportsInterface",
      "outputs": [
        {
          "internalType": "bool",
          "name": "",
          "type": "bool"
        }
      ],
      "stateMutability": "view",
      "type": "function"
    }
  ],
  "bytecode": "0x6101406040523480156200001257600080fd5b5060405162006e8c38038062006e8c833981810160405281019062000038919062000422565b806004836040518060400160405280600a81526020017f4d79476f7665726e6f720000000000000000000000000000000000000000000081525080620000836200017f60201b60201c565b60008280519060200120905060008280519060200120905060007f8b73c3c69bb8fe3d512ecc4cf759cc79239f7b179b0ffacaa9a75d522b39400f90508260c081815250508160e081815250504660a08181525050620000eb818484620001bc60201b60201c565b60808181525050806101008181525050505050505080600090805190602001906200011892919062000344565b50508073ffffffffffffffffffffffffffffffffffffffff166101208173ffffffffffffffffffffffffffffffffffffffff1660601b81525050506200016481620001f860201b60201c565b5062000176816200029a60201b60201c565b50505062000744565b60606040518060400160405280600181526020017f3100000000000000000000000000000000000000000000000000000000000000815250905090565b60008383834630604051602001620001d9959493929190620004f0565b6040516020818303038152906040528051906020012090509392505050565b620002086200033b60201b60201c565b8111156200024d576040517f08c379a000000000000000000000000000000000000000000000000000000000815260040162000244906200054d565b60405180910390fd5b60006003549050816003819055507f0553476bf02ef2726e8ce5ced78d63e26e602e4a2257b1f559418e24b463399781836040516200028e9291906200056f565b60405180910390a15050565b7f08f74ea46ef7894f65eabfb5e6e695de773a000b47c529ab559178069b226401600460009054906101000a900473ffffffffffffffffffffffffffffffffffffffff1682604051620002ef929190620004c3565b60405180910390a180600460006101000a81548173ffffffffffffffffffffffffffffffffffffffff021916908373ffffffffffffffffffffffffffffffffffffffff16021790555050565b60006064905090565b828054620003529062000631565b90600052602060002090601f016020900481019282620003765760008555620003c2565b82601f106200039157805160ff1916838001178555620003c2565b82800160010185558215620003c2579182015b82811115620003c1578251825591602001919060010190620003a4565b5b509050620003d19190620003d5565b5090565b5b80821115620003f0576000816000905550600101620003d6565b5090565b600081519050620004058162000710565b92915050565b6000815190506200041c816200072a565b92915050565b600080604083850312156200043c576200043b62000696565b5b60006200044c85828601620003f4565b92505060206200045f858286016200040b565b9150509250929050565b6200047481620005ad565b82525050565b6200048581620005d5565b82525050565b60006200049a6043836200059c565b9150620004a7826200069b565b606082019050919050565b620004bd8162000627565b82525050565b6000604082019050620004da600083018562000469565b620004e9602083018462000469565b9392505050565b600060a0820190506200050760008301886200047a565b6200051660208301876200047a565b6200052560408301866200047a565b620005346060830185620004b2565b62000543608083018462000469565b9695505050505050565b6000602082019050818103600083015262000568816200048b565b9050919050565b6000604082019050620005866000830185620004b2565b620005956020830184620004b2565b9392505050565b600082825260208201905092915050565b6000620005ba8262000607565b9050919050565b6000620005ce8262000607565b9050919050565b6000819050919050565b6000620005ec82620005ad565b9050919050565b60006200060082620005c1565b9050919050565b600073ffffffffffffffffffffffffffffffffffffffff82169050919050565b6000819050919050565b600060028204905060018216806200064a57607f821691505b6020821081141562000661576200066062000667565b5b50919050565b7f4e487b7100000000000000000000000000000000000000000000000000000000600052602260045260246000fd5b600080fd5b7f476f7665726e6f72566f74657351756f72756d4672616374696f6e3a2071756f60008201527f72756d4e756d657261746f72206f7665722071756f72756d44656e6f6d696e6160208201527f746f720000000000000000000000000000000000000000000000000000000000604082015250565b6200071b81620005df565b81146200072757600080fd5b50565b6200073581620005f3565b81146200074157600080fd5b50565b60805160a05160c05160e051610100516101205160601c6166e7620007a560003960008181611f1e015281816129e10152612aa601526000612d0101526000612d4301526000612d2201526000612cae01526000612cd601526166e76000f3fe60806040526004361061020f5760003560e01c80637d5e81e211610118578063da95691a116100a0578063e23a9a521161006f578063e23a9a5214610860578063eb9019d41461089d578063f8ce560a146108da578063fc0c546a14610917578063fe0d94c1146109425761020f565b8063da95691a146107a4578063dd4e2ba5146107e1578063ddf0b0091461080c578063deaaa7cc146108355761020f565b8063ab58fb8e116100e7578063ab58fb8e14610697578063b58131b0146106d4578063c01f9e37146106ff578063c59057e41461073c578063d33219b4146107795761020f565b80637d5e81e2146105db57806397c3d33414610618578063a7713a7014610643578063a890c9101461066e5761020f565b8063328dd9821161019b57806340e58ee51161016a57806340e58ee5146104d057806343859632146104f957806354fd4d501461053657806356781388146105615780637b3c71d31461059e5761020f565b8063328dd982146103eb5780633932abb11461042b5780633bccf4fd146104565780633e4f49e6146104935761020f565b806306fdde03116101e257806306fdde03146102eb578063160cbed71461031657806324bc1a64146103535780632656227d1461037e5780632d63f693146103ae5761020f565b8063013cf08b1461021457806301ffc9a71461025a57806302a251a31461029757806306f3f9e6146102c2575b600080fd5b34801561022057600080fd5b5061023b60048036038101906102369190614826565b61095e565b6040516102519a99989796959493929190615802565b60405180910390f35b34801561026657600080fd5b50610281600480360381019061027c91906147cc565b610a53565b60405161028e919061533d565b60405180910390f35b3480156102a357600080fd5b506102ac610a65565b6040516102b99190615737565b60405180910390f35b3480156102ce57600080fd5b506102e960048036038101906102e49190614826565b610a6f565b005b3480156102f757600080fd5b50610300610af7565b60405161030d919061549a565b60405180910390f35b34801561032257600080fd5b5061033d600480360381019061033891906144d9565b610b89565b60405161034a9190615737565b60405180910390f35b34801561035f57600080fd5b50610368610e61565b6040516103759190615737565b60405180910390f35b610398600480360381019061039391906144d9565b610e7d565b6040516103a59190615737565b60405180910390f35b3480156103ba57600080fd5b506103d560048036038101906103d09190614826565b610fb0565b6040516103e29190615737565b60405180910390f35b3480156103f757600080fd5b50610412600480360381019061040d9190614826565b61101e565b60405161042294939291906152dc565b60405180910390f35b34801561043757600080fd5b506104406112db565b60405161044d9190615737565b60405180910390f35b34801561046257600080fd5b5061047d60048036038101906104789190614974565b6112e5565b60405161048a9190615737565b60405180910390f35b34801561049f57600080fd5b506104ba60048036038101906104b59190614826565b61136f565b6040516104c7919061547f565b60405180910390f35b3480156104dc57600080fd5b506104f760048036038101906104f29190614826565b611381565b005b34801561050557600080fd5b50610520600480360381019061051b9190614880565b611719565b60405161052d919061533d565b60405180910390f35b34801561054257600080fd5b5061054b611787565b604051610558919061549a565b60405180910390f35b34801561056d57600080fd5b50610588600480360381019061058391906148c0565b6117c4565b6040516105959190615737565b60405180910390f35b3480156105aa57600080fd5b506105c560048036038101906105c09190614900565b6117f5565b6040516105d29190615737565b60405180910390f35b3480156105e757600080fd5b5061060260048036038101906105fd9190614594565b61185d565b60405161060f9190615737565b60405180910390f35b34801561062457600080fd5b5061062d611875565b60405161063a9190615737565b60405180910390f35b34801561064f57600080fd5b5061065861187e565b6040516106659190615737565b60405180910390f35b34801561067a57600080fd5b50610695600480360381019061069091906147f9565b611888565b005b3480156106a357600080fd5b506106be60048036038101906106b99190614826565b611910565b6040516106cb9190615737565b60405180910390f35b3480156106e057600080fd5b506106e96119ec565b6040516106f69190615737565b60405180910390f35b34801561070b57600080fd5b5061072660048036038101906107219190614826565b6119f1565b6040516107339190615737565b60405180910390f35b34801561074857600080fd5b50610763600480360381019061075e91906144d9565b611a5f565b6040516107709190615737565b60405180910390f35b34801561078557600080fd5b5061078e611a9b565b60405161079b9190615137565b60405180910390f35b3480156107b057600080fd5b506107cb60048036038101906107c6919061466b565b611ac5565b6040516107d89190615737565b60405180910390f35b3480156107ed57600080fd5b506107f6611afc565b604051610803919061549a565b60405180910390f35b34801561081857600080fd5b50610833600480360381019061082e9190614826565b611b39565b005b34801561084157600080fd5b5061084a611dee565b6040516108579190615358565b60405180910390f35b34801561086c57600080fd5b5061088760048036038101906108829190614880565b611e12565b604051610894919061571c565b60405180910390f35b3480156108a957600080fd5b506108c460048036038101906108bf9190614499565b611ef6565b6040516108d19190615737565b60405180910390f35b3480156108e657600080fd5b5061090160048036038101906108fc9190614826565b611f0a565b60405161090e9190615737565b60405180910390f35b34801561092357600080fd5b5061092c611f1c565b6040516109399190615464565b60405180910390f35b61095c60048036038101906109579190614826565b611f40565b005b6000806000806000806000806000808a99506109798b611910565b97506109848b610fb0565b965061098f8b6119f1565b95506000600260008d815260200190815260200160002090508060000160009054906101000a900473ffffffffffffffffffffffffffffffffffffffff16995080600501549550806006015494508060070154935060006109ef8d61136f565b905060026007811115610a0557610a04615f96565b5b816007811115610a1857610a17615f96565b5b149350600780811115610a2e57610a2d615f96565b5b816007811115610a4157610a40615f96565b5b14925050509193959799509193959799565b6000610a5e826121f5565b9050919050565b600061b3cb905090565b610a7761226f565b73ffffffffffffffffffffffffffffffffffffffff16610a9561227e565b73ffffffffffffffffffffffffffffffffffffffff1614610aeb576040517f08c379a0000000000000000000000000000000000000000000000000000000008152600401610ae2906154dc565b60405180910390fd5b610af481612286565b50565b606060008054610b0690615e82565b80601f0160208091040260200160405190810160405280929190818152602001828054610b3290615e82565b8015610b7f5780601f10610b5457610100808354040283529160200191610b7f565b820191906000526020600020905b815481529060010190602001808311610b6257829003601f168201915b5050505050905090565b600080610b9886868686611a5f565b905060046007811115610bae57610bad615f96565b5b610bb78261136f565b6007811115610bc957610bc8615f96565b5b14610c09576040517f08c379a0000000000000000000000000000000000000000000000000000000008152600401610c009061565c565b60405180910390fd5b6000600460009054906101000a900473ffffffffffffffffffffffffffffffffffffffff1673ffffffffffffffffffffffffffffffffffffffff1663f27a0c926040518163ffffffff1660e01b815260040160206040518083038186803b158015610c7357600080fd5b505afa158015610c87573d6000803e3d6000fd5b505050506040513d601f19601f82011682018060405250810190610cab9190614853565b9050600460009054906101000a900473ffffffffffffffffffffffffffffffffffffffff1673ffffffffffffffffffffffffffffffffffffffff1663b1c5f4278888886000896040518663ffffffff1660e01b8152600401610d119594939291906151fe565b60206040518083038186803b158015610d2957600080fd5b505afa158015610d3d573d6000803e3d6000fd5b505050506040513d601f19601f82011682018060405250810190610d61919061479f565b6005600084815260200190815260200160002081905550600460009054906101000a900473ffffffffffffffffffffffffffffffffffffffff1673ffffffffffffffffffffffffffffffffffffffff16638f2a0bb0888888600089876040518763ffffffff1660e01b8152600401610dde96959493929190615266565b600060405180830381600087803b158015610df857600080fd5b505af1158015610e0c573d6000803e3d6000fd5b505050507f9a2e42fd6722813d69113e7d0079d3d940171428df7373df9c7f7617cfda2892828242610e3e9190615b93565b604051610e4c92919061589e565b60405180910390a18192505050949350505050565b6000610e78600143610e739190615cb2565b611f0a565b905090565b600080610e8c86868686611a5f565b90506000610e998261136f565b905060046007811115610eaf57610eae615f96565b5b816007811115610ec257610ec1615f96565b5b1480610ef2575060056007811115610edd57610edc615f96565b5b816007811115610ef057610eef615f96565b5b145b610f31576040517f08c379a0000000000000000000000000000000000000000000000000000000008152600401610f289061565c565b60405180910390fd5b600180600084815260200190815260200160002060020160006101000a81548160ff0219169083151502179055507f712ae1383f79ac853f8d882153778e0260ef8f03b504e2866e0593e04d2b291f82604051610f8e9190615737565b60405180910390a1610fa3828888888861231b565b8192505050949350505050565b600061100d600160008481526020019081526020016000206000016040518060200160405290816000820160009054906101000a900467ffffffffffffffff1667ffffffffffffffff1667ffffffffffffffff168152505061232f565b67ffffffffffffffff169050919050565b606080606080600060026000878152602001908152602001600020905080600101816002018260030183600401838054806020026020016040519081016040528092919081815260200182805480156110cc57602002820191906000526020600020905b8160009054906101000a900473ffffffffffffffffffffffffffffffffffffffff1673ffffffffffffffffffffffffffffffffffffffff1681526020019060010190808311611082575b505050505093508280548060200260200160405190810160405280929190818152602001828054801561111e57602002820191906000526020600020905b81548152602001906001019080831161110a575b5050505050925081805480602002602001604051908101604052809291908181526020016000905b828210156111f257838290600052602060002001805461116590615e82565b80601f016020809104026020016040519081016040528092919081815260200182805461119190615e82565b80156111de5780601f106111b3576101008083540402835291602001916111de565b820191906000526020600020905b8154815290600101906020018083116111c157829003601f168201915b505050505081526020019060010190611146565b50505050915080805480602002602001604051908101604052809291908181526020016000905b828210156112c557838290600052602060002001805461123890615e82565b80601f016020809104026020016040519081016040528092919081815260200182805461126490615e82565b80156112b15780601f10611286576101008083540402835291602001916112b1565b820191906000526020600020905b81548152906001019060200180831161129457829003601f168201915b505050505081526020019060010190611219565b5050505090509450945094509450509193509193565b60006119af905090565b60008061134661133e7f150214d74d59b7d1e90c73fc22ef3d991dd0a76b046543d4d80ab92d2a50328f8989604051602001611323939291906153c6565b6040516020818303038152906040528051906020012061233d565b868686612357565b905061136387828860405180602001604052806000815250612382565b91505095945050505050565b600061137a826124d6565b9050919050565b60006002600083815260200190815260200160002090508060000160009054906101000a900473ffffffffffffffffffffffffffffffffffffffff1673ffffffffffffffffffffffffffffffffffffffff166113db61227e565b73ffffffffffffffffffffffffffffffffffffffff16148061143c57506114006119ec565b61143a8260000160009054906101000a900473ffffffffffffffffffffffffffffffffffffffff166001436114359190615cb2565b611ef6565b105b61147b576040517f08c379a0000000000000000000000000000000000000000000000000000000008152600401611472906156dc565b60405180910390fd5b6117148160010180548060200260200160405190810160405280929190818152602001828054801561150257602002820191906000526020600020905b8160009054906101000a900473ffffffffffffffffffffffffffffffffffffffff1673ffffffffffffffffffffffffffffffffffffffff16815260200190600101908083116114b8575b50505050508260020180548060200260200160405190810160405280929190818152602001828054801561155557602002820191906000526020600020905b815481526020019060010190808311611541575b505050505061170a84600301805480602002602001604051908101604052809291908181526020016000905b8282101561162d5783829060005260206000200180546115a090615e82565b80601f01602080910402602001604051908101604052809291908181526020018280546115cc90615e82565b80156116195780601f106115ee57610100808354040283529160200191611619565b820191906000526020600020905b8154815290600101906020018083116115fc57829003601f168201915b505050505081526020019060010190611581565b5050505085600401805480602002602001604051908101604052809291908181526020016000905b8282101561170157838290600052602060002001805461167490615e82565b80601f01602080910402602001604051908101604052809291908181526020018280546116a090615e82565b80156116ed5780601f106116c2576101008083540402835291602001916116ed565b820191906000526020600020905b8154815290600101906020018083116116d057829003601f168201915b505050505081526020019060010190611655565b5050505061260d565b84600901546127a4565b505050565b60006002600084815260200190815260200160002060080160008373ffffffffffffffffffffffffffffffffffffffff1673ffffffffffffffffffffffffffffffffffffffff16815260200190815260200160002060000160009054906101000a900460ff16905092915050565b60606040518060400160405280600181526020017f3100000000000000000000000000000000000000000000000000000000000000815250905090565b6000806117cf61227e565b90506117ec84828560405180602001604052806000815250612382565b91505092915050565b60008061180061227e565b905061185286828787878080601f016020809104026020016040519081016040528093929190818152602001838380828437600081840152601f19601f82011690508083019250505050505050612382565b915050949350505050565b600061186b858585856127bc565b9050949350505050565b60006064905090565b6000600354905090565b61189061226f565b73ffffffffffffffffffffffffffffffffffffffff166118ae61227e565b73ffffffffffffffffffffffffffffffffffffffff1614611904576040517f08c379a00000000000000000000000000000000000000000000000000000000081526004016118fb906154dc565b60405180910390fd5b61190d81612837565b50565b600080600460009054906101000a900473ffffffffffffffffffffffffffffffffffffffff1673ffffffffffffffffffffffffffffffffffffffff1663d45c443560056000868152602001908152602001600020546040518263ffffffff1660e01b81526004016119819190615358565b60206040518083038186803b15801561199957600080fd5b505afa1580156119ad573d6000803e3d6000fd5b505050506040513d601f19601f820116820180604052508101906119d19190614853565b9050600181146119e157806119e4565b60005b915050919050565b600090565b6000611a4e600160008481526020019081526020016000206001016040518060200160405290816000820160009054906101000a900467ffffffffffffffff1667ffffffffffffffff1667ffffffffffffffff168152505061232f565b67ffffffffffffffff169050919050565b600084848484604051602001611a7894939291906151a4565b6040516020818303038152906040528051906020012060001c9050949350505050565b6000600460009054906101000a900473ffffffffffffffffffffffffffffffffffffffff16905090565b6000611adc611ad261227e565b87878787876128d6565b611af18686611aeb878761260d565b8561185d565b905095945050505050565b60606040518060400160405280601a81526020017f737570706f72743d627261766f2671756f72756d3d627261766f000000000000815250905090565b6000600260008381526020019081526020016000209050611de981600101805480602002602001604051908101604052809291908181526020018280548015611bd757602002820191906000526020600020905b8160009054906101000a900473ffffffffffffffffffffffffffffffffffffffff1673ffffffffffffffffffffffffffffffffffffffff1681526020019060010190808311611b8d575b505050505082600201805480602002602001604051908101604052809291908181526020018280548015611c2a57602002820191906000526020600020905b815481526020019060010190808311611c16575b5050505050611ddf84600301805480602002602001604051908101604052809291908181526020016000905b82821015611d02578382906000526020600020018054611c7590615e82565b80601f0160208091040260200160405190810160405280929190818152602001828054611ca190615e82565b8015611cee5780601f10611cc357610100808354040283529160200191611cee565b820191906000526020600020905b815481529060010190602001808311611cd157829003601f168201915b505050505081526020019060010190611c56565b5050505085600401805480602002602001604051908101604052809291908181526020016000905b82821015611dd6578382906000526020600020018054611d4990615e82565b80601f0160208091040260200160405190810160405280929190818152602001828054611d7590615e82565b8015611dc25780601f10611d9757610100808354040283529160200191611dc2565b820191906000526020600020905b815481529060010190602001808311611da557829003601f168201915b505050505081526020019060010190611d2a565b5050505061260d565b8460090154610b89565b505050565b7f150214d74d59b7d1e90c73fc22ef3d991dd0a76b046543d4d80ab92d2a50328f81565b611e1a613c36565b6002600084815260200190815260200160002060080160008373ffffffffffffffffffffffffffffffffffffffff1673ffffffffffffffffffffffffffffffffffffffff1681526020019081526020016000206040518060600160405290816000820160009054906101000a900460ff161515151581526020016000820160019054906101000a900460ff1660ff1660ff1681526020016000820160029054906101000a90046bffffffffffffffffffffffff166bffffffffffffffffffffffff166bffffffffffffffffffffffff1681525050905092915050565b6000611f0283836129dd565b905092915050565b6000611f1582612a92565b9050919050565b7f000000000000000000000000000000000000000000000000000000000000000081565b60006002600083815260200190815260200160002090506121f081600101805480602002602001604051908101604052809291908181526020018280548015611fde57602002820191906000526020600020905b8160009054906101000a900473ffffffffffffffffffffffffffffffffffffffff1673ffffffffffffffffffffffffffffffffffffffff1681526020019060010190808311611f94575b50505050508260020180548060200260200160405190810160405280929190818152602001828054801561203157602002820191906000526020600020905b81548152602001906001019080831161201d575b50505050506121e684600301805480602002602001604051908101604052809291908181526020016000905b8282101561210957838290600052602060002001805461207c90615e82565b80601f01602080910402602001604051908101604052809291908181526020018280546120a890615e82565b80156120f55780601f106120ca576101008083540402835291602001916120f5565b820191906000526020600020905b8154815290600101906020018083116120d857829003601f168201915b50505050508152602001906001019061205d565b5050505085600401805480602002602001604051908101604052809291908181526020016000905b828210156121dd57838290600052602060002001805461215090615e82565b80601f016020809104026020016040519081016040528092919081815260200182805461217c90615e82565b80156121c95780601f1061219e576101008083540402835291602001916121c9565b820191906000526020600020905b8154815290600101906020018083116121ac57829003601f168201915b505050505081526020019060010190612131565b5050505061260d565b8460090154610e7d565b505050565b60007f6e665ced000000000000000000000000000000000000000000000000000000007bffffffffffffffffffffffffffffffffffffffffffffffffffffffff1916827bffffffffffffffffffffffffffffffffffffffffffffffffffffffff19161480612268575061226782612b68565b5b9050919050565b6000612279612be2565b905090565b600033905090565b61228e611875565b8111156122d0576040517f08c379a00000000000000000000000000000000000000000000000000000000081526004016122c7906154fc565b60405180910390fd5b60006003549050816003819055507f0553476bf02ef2726e8ce5ced78d63e26e602e4a2257b1f559418e24b4633997818360405161230f92919061589e565b60405180910390a15050565b6123288585858585612c0c565b5050505050565b600081600001519050919050565b600061235061234a612caa565b83612d6d565b9050919050565b600080600061236887878787612da0565b9150915061237581612ead565b8192505050949350505050565b600080600160008781526020019081526020016000209050600160078111156123ae576123ad615f96565b5b6123b78761136f565b60078111156123c9576123c8615f96565b5b14612409576040517f08c379a0000000000000000000000000000000000000000000000000000000008152600401612400906155bc565b60405180910390fd5b600061246786612458846000016040518060200160405290816000820160009054906101000a900467ffffffffffffffff1667ffffffffffffffff1667ffffffffffffffff168152505061232f565b67ffffffffffffffff16611ef6565b905061247587878784613082565b8573ffffffffffffffffffffffffffffffffffffffff167fb8e138887d0aa13bab447e82de9d5c1777041ecd21ca36ba824ff1e6c07ddda4888784886040516124c194939291906158c7565b60405180910390a28092505050949350505050565b6000806124e2836132ac565b9050600460078111156124f8576124f7615f96565b5b81600781111561250b5761250a615f96565b5b146125195780915050612608565b6000600560008581526020019081526020016000205490506000801b811415612546578192505050612608565b600460009054906101000a900473ffffffffffffffffffffffffffffffffffffffff1673ffffffffffffffffffffffffffffffffffffffff16632ab0f529826040518263ffffffff1660e01b81526004016125a19190615358565b60206040518083038186803b1580156125b957600080fd5b505afa1580156125cd573d6000803e3d6000fd5b505050506040513d601f19601f820116820180604052508101906125f19190614772565b1561260157600792505050612608565b6005925050505b919050565b60606000825167ffffffffffffffff81111561262c5761262b616023565b5b60405190808252806020026020018201604052801561265f57816020015b606081526020019060019003908161264a5790505b50905060005b845181101561279957600085828151811061268357612682615ff4565b5b6020026020010151511461274e578481815181106126a4576126a3615ff4565b5b60200260200101518482815181106126bf576126be615ff4565b5b60200260200101516040516024016126d79190615442565b604051602081830303815290604052906040516126f491906150e9565b60405180910390207bffffffffffffffffffffffffffffffffffffffffffffffffffffffff19166020820180517bffffffffffffffffffffffffffffffffffffffffffffffffffffffff838183161783525050505061276a565b83818151811061276157612760615ff4565b5b60200260200101515b82828151811061277d5761277c615ff4565b5b60200260200101819052508061279290615ee5565b9050612665565b508091505092915050565b60006127b285858585613473565b9050949350505050565b60006128216127c961227e565b8686865167ffffffffffffffff8111156127e6576127e5616023565b5b60405190808252806020026020018201604052801561281957816020015b60608152602001906001900390816128045790505b5087876128d6565b61282d85858585613565565b9050949350505050565b7f08f74ea46ef7894f65eabfb5e6e695de773a000b47c529ab559178069b226401600460009054906101000a900473ffffffffffffffffffffffffffffffffffffffff168260405161288a929190615152565b60405180910390a180600460006101000a81548173ffffffffffffffffffffffffffffffffffffffff021916908373ffffffffffffffffffffffffffffffffffffffff16021790555050565b60008180519060200120905060006128f987876128f3888861260d565b85611a5f565b905060006002600083815260200190815260200160002090506000801b816009015414156129d257888160000160006101000a81548173ffffffffffffffffffffffffffffffffffffffff021916908373ffffffffffffffffffffffffffffffffffffffff1602179055508781600101908051906020019061297c929190613c6a565b5086816002019080519060200190612995929190613cf4565b50858160030190805190602001906129ae929190613d41565b50848160040190805190602001906129c7929190613da1565b508281600901819055505b505050505050505050565b60007f000000000000000000000000000000000000000000000000000000000000000073ffffffffffffffffffffffffffffffffffffffff16633a46b1a884846040518363ffffffff1660e01b8152600401612a3a92919061517b565b60206040518083038186803b158015612a5257600080fd5b505afa158015612a66573d6000803e3d6000fd5b505050506040513d601f19601f82011682018060405250810190612a8a9190614853565b905092915050565b6000612a9c611875565b612aa461187e565b7f000000000000000000000000000000000000000000000000000000000000000073ffffffffffffffffffffffffffffffffffffffff16638e539e8c856040518263ffffffff1660e01b8152600401612afd9190615737565b60206040518083038186803b158015612b1557600080fd5b505afa158015612b29573d6000803e3d6000fd5b505050506040513d601f19601f82011682018060405250810190612b4d9190614853565b612b579190615c58565b612b619190615c27565b9050919050565b60007fbf26d897000000000000000000000000000000000000000000000000000000007bffffffffffffffffffffffffffffffffffffffffffffffffffffffff1916827bffffffffffffffffffffffffffffffffffffffffffffffffffffffff19161480612bdb5750612bda826135dc565b5b9050919050565b6000600460009054906101000a900473ffffffffffffffffffffffffffffffffffffffff16905090565b600460009054906101000a900473ffffffffffffffffffffffffffffffffffffffff1673ffffffffffffffffffffffffffffffffffffffff1663e38335e5348686866000876040518763ffffffff1660e01b8152600401612c719594939291906151fe565b6000604051808303818588803b158015612c8a57600080fd5b505af1158015612c9e573d6000803e3d6000fd5b50505050505050505050565b60007f0000000000000000000000000000000000000000000000000000000000000000461415612cfc577f00000000000000000000000000000000000000000000000000000000000000009050612d6a565b612d677f00000000000000000000000000000000000000000000000000000000000000007f00000000000000000000000000000000000000000000000000000000000000007f0000000000000000000000000000000000000000000000000000000000000000613646565b90505b90565b60008282604051602001612d82929190615100565b60405160208183030381529060405280519060200120905092915050565b6000807f7fffffffffffffffffffffffffffffff5d576e7357a4501ddfe92f46681b20a08360001c1115612ddb576000600391509150612ea4565b601b8560ff1614158015612df35750601c8560ff1614155b15612e05576000600491509150612ea4565b600060018787878760405160008152602001604052604051612e2a94939291906153fd565b6020604051602081039080840390855afa158015612e4c573d6000803e3d6000fd5b505050602060405103519050600073ffffffffffffffffffffffffffffffffffffffff168173ffffffffffffffffffffffffffffffffffffffff161415612e9b57600060019250925050612ea4565b80600092509250505b94509492505050565b60006004811115612ec157612ec0615f96565b5b816004811115612ed457612ed3615f96565b5b1415612edf5761307f565b60016004811115612ef357612ef2615f96565b5b816004811115612f0657612f05615f96565b5b1415612f47576040517f08c379a0000000000000000000000000000000000000000000000000000000008152600401612f3e906154bc565b60405180910390fd5b60026004811115612f5b57612f5a615f96565b5b816004811115612f6e57612f6d615f96565b5b1415612faf576040517f08c379a0000000000000000000000000000000000000000000000000000000008152600401612fa69061555c565b60405180910390fd5b60036004811115612fc357612fc2615f96565b5b816004811115612fd657612fd5615f96565b5b1415613017576040517f08c379a000000000000000000000000000000000000000000000000000000000815260040161300e9061559c565b60405180910390fd5b60048081111561302a57613029615f96565b5b81600481111561303d5761303c615f96565b5b141561307e576040517f08c379a0000000000000000000000000000000000000000000000000000000008152600401613075906155fc565b60405180910390fd5b5b50565b600060026000868152602001908152602001600020905060008160080160008673ffffffffffffffffffffffffffffffffffffffff1673ffffffffffffffffffffffffffffffffffffffff16815260200190815260200160002090508060000160009054906101000a900460ff1615613130576040517f08c379a0000000000000000000000000000000000000000000000000000000008152600401613127906156fc565b60405180910390fd5b60018160000160006101000a81548160ff021916908315150217905550838160000160016101000a81548160ff021916908360ff16021790555061317383613680565b8160000160026101000a8154816bffffffffffffffffffffffff02191690836bffffffffffffffffffffffff160217905550600060028111156131b9576131b8615f96565b5b60ff168460ff1614156131e657828260060160008282546131da9190615b93565b925050819055506132a4565b600160028111156131fa576131f9615f96565b5b60ff168460ff161415613227578282600501600082825461321b9190615b93565b925050819055506132a3565b60028081111561323a57613239615f96565b5b60ff168460ff161415613267578282600701600082825461325b9190615b93565b925050819055506132a2565b6040517f08c379a00000000000000000000000000000000000000000000000000000000081526004016132999061567c565b60405180910390fd5b5b5b505050505050565b60008060016000848152602001908152602001600020604051806080016040529081600082016040518060200160405290816000820160009054906101000a900467ffffffffffffffff1667ffffffffffffffff1667ffffffffffffffff16815250508152602001600182016040518060200160405290816000820160009054906101000a900467ffffffffffffffff1667ffffffffffffffff1667ffffffffffffffff168152505081526020016002820160009054906101000a900460ff161515151581526020016002820160019054906101000a900460ff16151515158152505090508060400151156133a557600791505061346e565b8060600151156133b957600291505061346e565b6133c681600001516136db565b156133d557600091505061346e565b6133e281602001516136db565b156133f157600191505061346e565b6133fe81602001516136f5565b156134335761340c83613721565b801561341d575061341c83613758565b5b61342857600361342b565b60045b91505061346e565b6040517f08c379a00000000000000000000000000000000000000000000000000000000081526004016134659061569c565b60405180910390fd5b919050565b60008061348286868686613783565b90506000801b60056000838152602001908152602001600020541461355957600460009054906101000a900473ffffffffffffffffffffffffffffffffffffffff1673ffffffffffffffffffffffffffffffffffffffff1663c4d252f560056000848152602001908152602001600020546040518263ffffffff1660e01b815260040161350f9190615358565b600060405180830381600087803b15801561352957600080fd5b505af115801561353d573d6000803e3d6000fd5b5050505060056000828152602001908152602001600020600090555b80915050949350505050565b600061356f6119ec565b613585336001436135809190615cb2565b611ef6565b10156135c6576040517f08c379a00000000000000000000000000000000000000000000000000000000081526004016135bd9061553c565b60405180910390fd5b6135d2858585856138dc565b9050949350505050565b60007f01ffc9a7000000000000000000000000000000000000000000000000000000007bffffffffffffffffffffffffffffffffffffffffffffffffffffffff1916827bffffffffffffffffffffffffffffffffffffffffffffffffffffffff1916149050919050565b60008383834630604051602001613661959493929190615373565b6040516020818303038152906040528051906020012090509392505050565b60006bffffffffffffffffffffffff80168211156136d3576040517f08c379a00000000000000000000000000000000000000000000000000000000081526004016136ca9061551c565b60405180910390fd5b819050919050565b600043826000015167ffffffffffffffff16119050919050565b600061370082613b7c565b801561371a575043826000015167ffffffffffffffff1611155b9050919050565b600080600260008481526020019081526020016000209050806005015461374f61374a85610fb0565b611f0a565b10915050919050565b6000806002600084815260200190815260200160002090508060060154816005015411915050919050565b60008061379286868686611a5f565b9050600061379f8261136f565b9050600260078111156137b5576137b4615f96565b5b8160078111156137c8576137c7615f96565b5b141580156137fb5750600660078111156137e5576137e4615f96565b5b8160078111156137f8576137f7615f96565b5b14155b801561382b575060078081111561381557613814615f96565b5b81600781111561382857613827615f96565b5b14155b61386a576040517f08c379a00000000000000000000000000000000000000000000000000000000081526004016138619061563c565b60405180910390fd5b600180600084815260200190815260200160002060020160016101000a81548160ff0219169083151502179055507f789cf55be980739dad1d0699b93b58e806b51c9d96619bfa8fe0a28abaa7b30c826040516138c79190615737565b60405180910390a18192505050949350505050565b6000806138f28686868680519060200120611a5f565b90508451865114613938576040517f08c379a000000000000000000000000000000000000000000000000000000000815260040161392f9061557c565b60405180910390fd5b835186511461397c576040517f08c379a00000000000000000000000000000000000000000000000000000000081526004016139739061557c565b60405180910390fd5b60008651116139c0576040517f08c379a00000000000000000000000000000000000000000000000000000000081526004016139b7906155dc565b60405180910390fd5b6000600160008381526020019081526020016000209050613a20816000016040518060200160405290816000820160009054906101000a900467ffffffffffffffff1667ffffffffffffffff1667ffffffffffffffff1681525050613b96565b613a5f576040517f08c379a0000000000000000000000000000000000000000000000000000000008152600401613a56906156bc565b60405180910390fd5b6000613a71613a6c6112db565b613bb0565b613a7a43613bb0565b613a849190615be9565b90506000613a98613a93610a65565b613bb0565b82613aa39190615be9565b9050613abb8284600001613c0790919063ffffffff16565b613ad18184600101613c0790919063ffffffff16565b7f7d84a6263ae0d98d3329bd7b46bb4e8d6f98cd35a7adb45c274c8b7fd5ebd5e084613afb61227e565b8b8b8d5167ffffffffffffffff811115613b1857613b17616023565b5b604051908082528060200260200182016040528015613b4b57816020015b6060815260200190600190039081613b365790505b508c88888e604051613b6599989796959493929190615752565b60405180910390a183945050505050949350505050565b600080826000015167ffffffffffffffff16119050919050565b600080826000015167ffffffffffffffff16149050919050565b600067ffffffffffffffff8016821115613bff576040517f08c379a0000000000000000000000000000000000000000000000000000000008152600401613bf69061561c565b60405180910390fd5b819050919050565b808260000160006101000a81548167ffffffffffffffff021916908367ffffffffffffffff1602179055505050565b6040518060600160405280600015158152602001600060ff16815260200160006bffffffffffffffffffffffff1681525090565b828054828255906000526020600020908101928215613ce3579160200282015b82811115613ce25782518260006101000a81548173ffffffffffffffffffffffffffffffffffffffff021916908373ffffffffffffffffffffffffffffffffffffffff16021790555091602001919060010190613c8a565b5b509050613cf09190613e01565b5090565b828054828255906000526020600020908101928215613d30579160200282015b82811115613d2f578251825591602001919060010190613d14565b5b509050613d3d9190613e01565b5090565b828054828255906000526020600020908101928215613d90579160200282015b82811115613d8f578251829080519060200190613d7f929190613e1e565b5091602001919060010190613d61565b5b509050613d9d9190613ea4565b5090565b828054828255906000526020600020908101928215613df0579160200282015b82811115613def578251829080519060200190613ddf929190613ec8565b5091602001919060010190613dc1565b5b509050613dfd9190613f4e565b5090565b5b80821115613e1a576000816000905550600101613e02565b5090565b828054613e2a90615e82565b90600052602060002090601f016020900481019282613e4c5760008555613e93565b82601f10613e6557805160ff1916838001178555613e93565b82800160010185558215613e93579182015b82811115613e92578251825591602001919060010190613e77565b5b509050613ea09190613e01565b5090565b5b80821115613ec45760008181613ebb9190613f72565b50600101613ea5565b5090565b828054613ed490615e82565b90600052602060002090601f016020900481019282613ef65760008555613f3d565b82601f10613f0f57805160ff1916838001178555613f3d565b82800160010185558215613f3d579182015b82811115613f3c578251825591602001919060010190613f21565b5b509050613f4a9190613e01565b5090565b5b80821115613f6e5760008181613f659190613fb2565b50600101613f4f565b5090565b508054613f7e90615e82565b6000825580601f10613f905750613faf565b601f016020900490600052602060002090810190613fae9190613e01565b5b50565b508054613fbe90615e82565b6000825580601f10613fd05750613fef565b601f016020900490600052602060002090810190613fee9190613e01565b5b50565b600061400561400084615938565b615913565b905080838252602082019050828560208602820111156140285761402761605c565b5b60005b85811015614058578161403e8882614272565b84526020840193506020830192505060018101905061402b565b5050509392505050565b600061407561407084615964565b615913565b905080838252602082019050828560208602820111156140985761409761605c565b5b60005b858110156140e657813567ffffffffffffffff8111156140be576140bd616057565b5b8086016140cb8982614393565b8552602085019450602084019350505060018101905061409b565b5050509392505050565b60006141036140fe84615990565b615913565b905080838252602082019050828560208602820111156141265761412561605c565b5b60005b8581101561417457813567ffffffffffffffff81111561414c5761414b616057565b5b808601614159898261442c565b85526020850194506020840193505050600181019050614129565b5050509392505050565b600061419161418c846159bc565b615913565b905080838252602082019050828560208602820111156141b4576141b361605c565b5b60005b858110156141e457816141ca888261445a565b8452602084019350602083019250506001810190506141b7565b5050509392505050565b60006142016141fc846159e8565b615913565b90508281526020810184848401111561421d5761421c616061565b5b614228848285615e40565b509392505050565b600061424361423e84615a19565b615913565b90508281526020810184848401111561425f5761425e616061565b5b61426a848285615e40565b509392505050565b60008135905061428181616610565b92915050565b600082601f83011261429c5761429b616057565b5b81356142ac848260208601613ff2565b91505092915050565b600082601f8301126142ca576142c9616057565b5b81356142da848260208601614062565b91505092915050565b600082601f8301126142f8576142f7616057565b5b81356143088482602086016140f0565b91505092915050565b600082601f83011261432657614325616057565b5b813561433684826020860161417e565b91505092915050565b60008151905061434e81616627565b92915050565b6000813590506143638161663e565b92915050565b6000815190506143788161663e565b92915050565b60008135905061438d81616655565b92915050565b600082601f8301126143a8576143a7616057565b5b81356143b88482602086016141ee565b91505092915050565b6000813590506143d08161666c565b92915050565b60008083601f8401126143ec576143eb616057565b5b8235905067ffffffffffffffff81111561440957614408616052565b5b6020830191508360018202830111156144255761442461605c565b5b9250929050565b600082601f83011261444157614440616057565b5b8135614451848260208601614230565b91505092915050565b60008135905061446981616683565b92915050565b60008151905061447e81616683565b92915050565b6000813590506144938161669a565b92915050565b600080604083850312156144b0576144af61606b565b5b60006144be85828601614272565b92505060206144cf8582860161445a565b9150509250929050565b600080600080608085870312156144f3576144f261606b565b5b600085013567ffffffffffffffff81111561451157614510616066565b5b61451d87828801614287565b945050602085013567ffffffffffffffff81111561453e5761453d616066565b5b61454a87828801614311565b935050604085013567ffffffffffffffff81111561456b5761456a616066565b5b614577878288016142b5565b925050606061458887828801614354565b91505092959194509250565b600080600080608085870312156145ae576145ad61606b565b5b600085013567ffffffffffffffff8111156145cc576145cb616066565b5b6145d887828801614287565b945050602085013567ffffffffffffffff8111156145f9576145f8616066565b5b61460587828801614311565b935050604085013567ffffffffffffffff81111561462657614625616066565b5b614632878288016142b5565b925050606085013567ffffffffffffffff81111561465357614652616066565b5b61465f8782880161442c565b91505092959194509250565b600080600080600060a086880312156146875761468661606b565b5b600086013567ffffffffffffffff8111156146a5576146a4616066565b5b6146b188828901614287565b955050602086013567ffffffffffffffff8111156146d2576146d1616066565b5b6146de88828901614311565b945050604086013567ffffffffffffffff8111156146ff576146fe616066565b5b61470b888289016142e3565b935050606086013567ffffffffffffffff81111561472c5761472b616066565b5b614738888289016142b5565b925050608086013567ffffffffffffffff81111561475957614758616066565b5b6147658882890161442c565b9150509295509295909350565b6000602082840312156147885761478761606b565b5b60006147968482850161433f565b91505092915050565b6000602082840312156147b5576147b461606b565b5b60006147c384828501614369565b91505092915050565b6000602082840312156147e2576147e161606b565b5b60006147f08482850161437e565b91505092915050565b60006020828403121561480f5761480e61606b565b5b600061481d848285016143c1565b91505092915050565b60006020828403121561483c5761483b61606b565b5b600061484a8482850161445a565b91505092915050565b6000602082840312156148695761486861606b565b5b60006148778482850161446f565b91505092915050565b600080604083850312156148975761489661606b565b5b60006148a58582860161445a565b92505060206148b685828601614272565b9150509250929050565b600080604083850312156148d7576148d661606b565b5b60006148e58582860161445a565b92505060206148f685828601614484565b9150509250929050565b6000806000806060858703121561491a5761491961606b565b5b60006149288782880161445a565b945050602061493987828801614484565b935050604085013567ffffffffffffffff81111561495a57614959616066565b5b614966878288016143d6565b925092505092959194509250565b600080600080600060a086880312156149905761498f61606b565b5b600061499e8882890161445a565b95505060206149af88828901614484565b94505060406149c088828901614484565b93505060606149d188828901614354565b92505060806149e288828901614354565b9150509295509295909350565b60006149fb8383614a47565b60208301905092915050565b6000614a138383614c4f565b905092915050565b6000614a278383614cee565b905092915050565b6000614a3b838361508f565b60208301905092915050565b614a5081615ce6565b82525050565b614a5f81615ce6565b82525050565b6000614a7082615a8a565b614a7a8185615b00565b9350614a8583615a4a565b8060005b83811015614ab6578151614a9d88826149ef565b9750614aa883615acc565b925050600181019050614a89565b5085935050505092915050565b6000614ace82615a95565b614ad88185615b11565b935083602082028501614aea85615a5a565b8060005b85811015614b265784840389528151614b078582614a07565b9450614b1283615ad9565b925060208a01995050600181019050614aee565b50829750879550505050505092915050565b6000614b4382615aa0565b614b4d8185615b22565b935083602082028501614b5f85615a6a565b8060005b85811015614b9b5784840389528151614b7c8582614a1b565b9450614b8783615ae6565b925060208a01995050600181019050614b63565b50829750879550505050505092915050565b6000614bb882615aab565b614bc28185615b33565b9350614bcd83615a7a565b8060005b83811015614bfe578151614be58882614a2f565b9750614bf083615af3565b925050600181019050614bd1565b5085935050505092915050565b614c1481615d0a565b82525050565b614c2381615d0a565b82525050565b614c3281615d16565b82525050565b614c49614c4482615d16565b615f2e565b82525050565b6000614c5a82615ab6565b614c648185615b44565b9350614c74818560208601615e4f565b614c7d81616070565b840191505092915050565b6000614c9382615ab6565b614c9d8185615b55565b9350614cad818560208601615e4f565b614cb681616070565b840191505092915050565b614cca81615dde565b82525050565b614cd981615e02565b82525050565b614ce881615e14565b82525050565b6000614cf982615ac1565b614d038185615b66565b9350614d13818560208601615e4f565b614d1c81616070565b840191505092915050565b6000614d3282615ac1565b614d3c8185615b77565b9350614d4c818560208601615e4f565b614d5581616070565b840191505092915050565b6000614d6b82615ac1565b614d758185615b88565b9350614d85818560208601615e4f565b80840191505092915050565b6000614d9e601883615b77565b9150614da98261608e565b602082019050919050565b6000614dc1601883615b77565b9150614dcc826160b7565b602082019050919050565b6000614de4604383615b77565b9150614def826160e0565b606082019050919050565b6000614e07602683615b77565b9150614e1282616155565b604082019050919050565b6000614e2a604383615b77565b9150614e35826161a4565b606082019050919050565b6000614e4d601f83615b77565b9150614e5882616219565b602082019050919050565b6000614e70600283615b88565b9150614e7b82616242565b600282019050919050565b6000614e93602183615b77565b9150614e9e8261626b565b604082019050919050565b6000614eb6602283615b77565b9150614ec1826162ba565b604082019050919050565b6000614ed9602383615b77565b9150614ee482616309565b604082019050919050565b6000614efc601883615b77565b9150614f0782616358565b602082019050919050565b6000614f1f602283615b77565b9150614f2a82616381565b604082019050919050565b6000614f42602683615b77565b9150614f4d826163d0565b604082019050919050565b6000614f65601d83615b77565b9150614f708261641f565b602082019050919050565b6000614f88602183615b77565b9150614f9382616448565b604082019050919050565b6000614fab602d83615b77565b9150614fb682616497565b604082019050919050565b6000614fce601d83615b77565b9150614fd9826164e6565b602082019050919050565b6000614ff1602183615b77565b9150614ffc8261650f565b604082019050919050565b6000615014602783615b77565b915061501f8261655e565b604082019050919050565b6000615037602d83615b77565b9150615042826165ad565b604082019050919050565b6060820160008201516150636000850182614c0b565b50602082015161507660208501826150bc565b50604082015161508960408501826150da565b50505050565b61509881615d9b565b82525050565b6150a781615d9b565b82525050565b6150b681615e2e565b82525050565b6150c581615db9565b82525050565b6150d481615db9565b82525050565b6150e381615dc6565b82525050565b60006150f58284614d60565b915081905092915050565b600061510b82614e63565b91506151178285614c38565b6020820191506151278284614c38565b6020820191508190509392505050565b600060208201905061514c6000830184614a56565b92915050565b60006040820190506151676000830185614a56565b6151746020830184614a56565b9392505050565b60006040820190506151906000830185614a56565b61519d602083018461509e565b9392505050565b600060808201905081810360008301526151be8187614a65565b905081810360208301526151d28186614bad565b905081810360408301526151e68185614ac3565b90506151f56060830184614c29565b95945050505050565b600060a08201905081810360008301526152188188614a65565b9050818103602083015261522c8187614bad565b905081810360408301526152408186614ac3565b905061524f6060830185614cdf565b61525c6080830184614c29565b9695505050505050565b600060c08201905081810360008301526152808189614a65565b905081810360208301526152948188614bad565b905081810360408301526152a88187614ac3565b90506152b76060830186614cdf565b6152c46080830185614c29565b6152d160a083018461509e565b979650505050505050565b600060808201905081810360008301526152f68187614a65565b9050818103602083015261530a8186614bad565b9050818103604083015261531e8185614b38565b905081810360608301526153328184614ac3565b905095945050505050565b60006020820190506153526000830184614c1a565b92915050565b600060208201905061536d6000830184614c29565b92915050565b600060a0820190506153886000830188614c29565b6153956020830187614c29565b6153a26040830186614c29565b6153af606083018561509e565b6153bc6080830184614a56565b9695505050505050565b60006060820190506153db6000830186614c29565b6153e8602083018561509e565b6153f560408301846150cb565b949350505050565b60006080820190506154126000830187614c29565b61541f60208301866150cb565b61542c6040830185614c29565b6154396060830184614c29565b95945050505050565b6000602082019050818103600083015261545c8184614c88565b905092915050565b60006020820190506154796000830184614cc1565b92915050565b60006020820190506154946000830184614cd0565b92915050565b600060208201905081810360008301526154b48184614d27565b905092915050565b600060208201905081810360008301526154d581614d91565b9050919050565b600060208201905081810360008301526154f581614db4565b9050919050565b6000602082019050818103600083015261551581614dd7565b9050919050565b6000602082019050818103600083015261553581614dfa565b9050919050565b6000602082019050818103600083015261555581614e1d565b9050919050565b6000602082019050818103600083015261557581614e40565b9050919050565b6000602082019050818103600083015261559581614e86565b9050919050565b600060208201905081810360008301526155b581614ea9565b9050919050565b600060208201905081810360008301526155d581614ecc565b9050919050565b600060208201905081810360008301526155f581614eef565b9050919050565b6000602082019050818103600083015261561581614f12565b9050919050565b6000602082019050818103600083015261563581614f35565b9050919050565b6000602082019050818103600083015261565581614f58565b9050919050565b6000602082019050818103600083015261567581614f7b565b9050919050565b6000602082019050818103600083015261569581614f9e565b9050919050565b600060208201905081810360008301526156b581614fc1565b9050919050565b600060208201905081810360008301526156d581614fe4565b9050919050565b600060208201905081810360008301526156f581615007565b9050919050565b600060208201905081810360008301526157158161502a565b9050919050565b6000606082019050615731600083018461504d565b92915050565b600060208201905061574c600083018461509e565b92915050565b600061012082019050615768600083018c61509e565b615775602083018b614a56565b8181036040830152615787818a614a65565b9050818103606083015261579b8189614bad565b905081810360808301526157af8188614b38565b905081810360a08301526157c38187614ac3565b90506157d260c08301866150ad565b6157df60e08301856150ad565b8181036101008301526157f28184614d27565b90509a9950505050505050505050565b600061014082019050615818600083018d61509e565b615825602083018c614a56565b615832604083018b61509e565b61583f606083018a61509e565b61584c608083018961509e565b61585960a083018861509e565b61586660c083018761509e565b61587360e083018661509e565b615881610100830185614c1a565b61588f610120830184614c1a565b9b9a5050505050505050505050565b60006040820190506158b3600083018561509e565b6158c0602083018461509e565b9392505050565b60006080820190506158dc600083018761509e565b6158e960208301866150cb565b6158f6604083018561509e565b81810360608301526159088184614d27565b905095945050505050565b600061591d61592e565b90506159298282615eb4565b919050565b6000604051905090565b600067ffffffffffffffff82111561595357615952616023565b5b602082029050602081019050919050565b600067ffffffffffffffff82111561597f5761597e616023565b5b602082029050602081019050919050565b600067ffffffffffffffff8211156159ab576159aa616023565b5b602082029050602081019050919050565b600067ffffffffffffffff8211156159d7576159d6616023565b5b602082029050602081019050919050565b600067ffffffffffffffff821115615a0357615a02616023565b5b615a0c82616070565b9050602081019050919050565b600067ffffffffffffffff821115615a3457615a33616023565b5b615a3d82616070565b9050602081019050919050565b6000819050602082019050919050565b6000819050602082019050919050565b6000819050602082019050919050565b6000819050602082019050919050565b600081519050919050565b600081519050919050565b600081519050919050565b600081519050919050565b600081519050919050565b600081519050919050565b6000602082019050919050565b6000602082019050919050565b6000602082019050919050565b6000602082019050919050565b600082825260208201905092915050565b600082825260208201905092915050565b600082825260208201905092915050565b600082825260208201905092915050565b600082825260208201905092915050565b600082825260208201905092915050565b600082825260208201905092915050565b600082825260208201905092915050565b600081905092915050565b6000615b9e82615d9b565b9150615ba983615d9b565b9250827fffffffffffffffffffffffffffffffffffffffffffffffffffffffffffffffff03821115615bde57615bdd615f38565b5b828201905092915050565b6000615bf482615da5565b9150615bff83615da5565b92508267ffffffffffffffff03821115615c1c57615c1b615f38565b5b828201905092915050565b6000615c3282615d9b565b9150615c3d83615d9b565b925082615c4d57615c4c615f67565b5b828204905092915050565b6000615c6382615d9b565b9150615c6e83615d9b565b9250817fffffffffffffffffffffffffffffffffffffffffffffffffffffffffffffffff0483118215151615615ca757615ca6615f38565b5b828202905092915050565b6000615cbd82615d9b565b9150615cc883615d9b565b925082821015615cdb57615cda615f38565b5b828203905092915050565b6000615cf182615d7b565b9050919050565b6000615d0382615d7b565b9050919050565b60008115159050919050565b6000819050919050565b60007fffffffff0000000000000000000000000000000000000000000000000000000082169050919050565b6000615d5782615cf8565b9050919050565b6000819050615d6c826165fc565b919050565b6000819050919050565b600073ffffffffffffffffffffffffffffffffffffffff82169050919050565b6000819050919050565b600067ffffffffffffffff82169050919050565b600060ff82169050919050565b60006bffffffffffffffffffffffff82169050919050565b6000615de982615df0565b9050919050565b6000615dfb82615d7b565b9050919050565b6000615e0d82615d5e565b9050919050565b6000615e27615e2283615d71565b616081565b9050919050565b6000615e3982615da5565b9050919050565b82818337600083830152505050565b60005b83811015615e6d578082015181840152602081019050615e52565b83811115615e7c576000848401525b50505050565b60006002820490506001821680615e9a57607f821691505b60208210811415615eae57615ead615fc5565b5b50919050565b615ebd82616070565b810181811067ffffffffffffffff82111715615edc57615edb616023565b5b80604052505050565b6000615ef082615d9b565b91507fffffffffffffffffffffffffffffffffffffffffffffffffffffffffffffffff821415615f2357615f22615f38565b5b600182019050919050565b6000819050919050565b7f4e487b7100000000000000000000000000000000000000000000000000000000600052601160045260246000fd5b7f4e487b7100000000000000000000000000000000000000000000000000000000600052601260045260246000fd5b7f4e487b7100000000000000000000000000000000000000000000000000000000600052602160045260246000fd5b7f4e487b7100000000000000000000000000000000000000000000000000000000600052602260045260246000fd5b7f4e487b7100000000000000000000000000000000000000000000000000000000600052603260045260246000fd5b7f4e487b7100000000000000000000000000000000000000000000000000000000600052604160045260246000fd5b600080fd5b600080fd5b600080fd5b600080fd5b600080fd5b600080fd5b6000601f19601f8301169050919050565b60008160001b9050919050565b7f45434453413a20696e76616c6964207369676e61747572650000000000000000600082015250565b7f476f7665726e6f723a206f6e6c79476f7665726e616e63650000000000000000600082015250565b7f476f7665726e6f72566f74657351756f72756d4672616374696f6e3a2071756f60008201527f72756d4e756d657261746f72206f7665722071756f72756d44656e6f6d696e6160208201527f746f720000000000000000000000000000000000000000000000000000000000604082015250565b7f53616665436173743a2076616c756520646f65736e27742066697420696e203960008201527f3620626974730000000000000000000000000000000000000000000000000000602082015250565b7f476f7665726e6f72436f6d7061746962696c697479427261766f3a2070726f7060008201527f6f73657220766f7465732062656c6f772070726f706f73616c2074687265736860208201527f6f6c640000000000000000000000000000000000000000000000000000000000604082015250565b7f45434453413a20696e76616c6964207369676e6174757265206c656e67746800600082015250565b7f1901000000000000000000000000000000000000000000000000000000000000600082015250565b7f476f7665726e6f723a20696e76616c69642070726f706f73616c206c656e677460008201527f6800000000000000000000000000000000000000000000000000000000000000602082015250565b7f45434453413a20696e76616c6964207369676e6174757265202773272076616c60008201527f7565000000000000000000000000000000000000000000000000000000000000602082015250565b7f476f7665726e6f723a20766f7465206e6f742063757272656e746c792061637460008201527f6976650000000000000000000000000000000000000000000000000000000000602082015250565b7f476f7665726e6f723a20656d7074792070726f706f73616c0000000000000000600082015250565b7f45434453413a20696e76616c6964207369676e6174757265202776272076616c60008201527f7565000000000000000000000000000000000000000000000000000000000000602082015250565b7f53616665436173743a2076616c756520646f65736e27742066697420696e203660008201527f3420626974730000000000000000000000000000000000000000000000000000602082015250565b7f476f7665726e6f723a2070726f706f73616c206e6f7420616374697665000000600082015250565b7f476f7665726e6f723a2070726f706f73616c206e6f742073756363657373667560008201527f6c00000000000000000000000000000000000000000000000000000000000000602082015250565b7f476f7665726e6f72436f6d7061746962696c697479427261766f3a20696e766160008201527f6c696420766f7465207479706500000000000000000000000000000000000000602082015250565b7f476f7665726e6f723a20756e6b6e6f776e2070726f706f73616c206964000000600082015250565b7f476f7665726e6f723a2070726f706f73616c20616c726561647920657869737460008201527f7300000000000000000000000000000000000000000000000000000000000000602082015250565b7f476f7665726e6f72427261766f3a2070726f706f7365722061626f766520746860008201527f726573686f6c6400000000000000000000000000000000000000000000000000602082015250565b7f476f7665726e6f72436f6d7061746962696c697479427261766f3a20766f746560008201527f20616c7265616479206361737400000000000000000000000000000000000000602082015250565b6008811061660d5761660c615f96565b5b50565b61661981615ce6565b811461662457600080fd5b50565b61663081615d0a565b811461663b57600080fd5b50565b61664781615d16565b811461665257600080fd5b50565b61665e81615d20565b811461666957600080fd5b50565b61667581615d4c565b811461668057600080fd5b50565b61668c81615d9b565b811461669757600080fd5b50565b6166a381615db9565b81146166ae57600080fd5b5056fea264697066735822122003c4f84b68b5ff35b32e35a7ac26b90aa07ce3a3ae3d0e5a841ec620294bafaf64736f6c63430008050033",
  "immutableReferences": {
    "3881": [
      {
        "length": 32,
        "start": 7966
      },
      {
        "length": 32,
        "start": 10721
      },
      {
        "length": 32,
        "start": 10918
      }
    ],
    "8434": [
      {
        "length": 32,
        "start": 11478
      }
    ],
    "8436": [
      {
        "length": 32,
        "start": 11438
      }
    ],
    "8438": [
      {
        "length": 32,
        "start": 11554
      }
    ],
    "8440": [
      {
        "length": 32,
        "start": 11587
      }
    ],
    "8442": [
      {
        "length": 32,
        "start": 11521
      }
    ]
  },
  "source": "// SPDX-License-Identifier: MIT\r\npragma solidity ^0.8.2;\r\n\r\nimport \"@openzeppelin/contracts/governance/Governor.sol\";\r\nimport \"@openzeppelin/contracts/governance/compatibility/GovernorCompatibilityBravo.sol\";\r\nimport \"@openzeppelin/contracts/governance/extensions/GovernorVotes.sol\";\r\nimport \"@openzeppelin/contracts/governance/extensions/GovernorVotesQuorumFraction.sol\";\r\nimport \"@openzeppelin/contracts/governance/extensions/GovernorTimelockControl.sol\";\r\n\r\ncontract MyGovernor is Governor, GovernorCompatibilityBravo, GovernorVotes, GovernorVotesQuorumFraction, GovernorTimelockControl {\r\n    constructor(ERC20Votes _token, TimelockController _timelock)\r\n        Governor(\"MyGovernor\")\r\n        GovernorVotes(_token)\r\n        GovernorVotesQuorumFraction(4)\r\n        GovernorTimelockControl(_timelock)\r\n    {}\r\n\r\n    function votingDelay() public pure override returns (uint256) {\r\n        return 6575; // 1 day\r\n    }\r\n\r\n    function votingPeriod() public pure override returns (uint256) {\r\n        return 46027; // 1 week\r\n    }\r\n\r\n    function proposalThreshold() public pure override returns (uint256) {\r\n        return 0;\r\n    }\r\n\r\n    // The functions below are overrides required by Solidity.\r\n\r\n    function quorum(uint256 blockNumber)\r\n        public\r\n        view\r\n        override(IGovernor, GovernorVotesQuorumFraction)\r\n        returns (uint256)\r\n    {\r\n        return super.quorum(blockNumber);\r\n    }\r\n\r\n    function getVotes(address account, uint256 blockNumber)\r\n        public\r\n        view\r\n        override(IGovernor, GovernorVotes)\r\n        returns (uint256)\r\n    {\r\n        return super.getVotes(account, blockNumber);\r\n    }\r\n\r\n    function state(uint256 proposalId)\r\n        public\r\n        view\r\n        override(Governor, IGovernor, GovernorTimelockControl)\r\n        returns (ProposalState)\r\n    {\r\n        return super.state(proposalId);\r\n    }\r\n\r\n    function propose(address[] memory targets, uint256[] memory values, bytes[] memory calldatas, string memory description)\r\n        public\r\n        override(Governor, GovernorCompatibilityBravo, IGovernor)\r\n        returns (uint256)\r\n    {\r\n        return super.propose(targets, values, calldatas, description);\r\n    }\r\n\r\n    function _execute(uint256 proposalId, address[] memory targets, uint256[] memory values, bytes[] memory calldatas, bytes32 descriptionHash)\r\n        internal\r\n        override(Governor, GovernorTimelockControl)\r\n    {\r\n        super._execute(proposalId, targets, values, calldatas, descriptionHash);\r\n    }\r\n\r\n    function _cancel(address[] memory targets, uint256[] memory values, bytes[] memory calldatas, bytes32 descriptionHash)\r\n        internal\r\n        override(Governor, GovernorTimelockControl)\r\n        returns (uint256)\r\n    {\r\n        return super._cancel(targets, values, calldatas, descriptionHash);\r\n    }\r\n\r\n    function _executor()\r\n        internal\r\n        view\r\n        override(Governor, GovernorTimelockControl)\r\n        returns (address)\r\n    {\r\n        return super._executor();\r\n    }\r\n\r\n    function supportsInterface(bytes4 interfaceId)\r\n        public\r\n        view\r\n        override(Governor, IERC165, GovernorTimelockControl)\r\n        returns (bool)\r\n    {\r\n        return super.supportsInterface(interfaceId);\r\n    }\r\n}",
  "sourcePath": "/home/stephenstb/Ratio/ratio/contracts/MyGovernor.sol",
  "compiler": {
    "name": "solc",
    "version": "0.8.5+commit.a4f2e591.Emscripten.clang"
  },
  "schemaVersion": "3.4.3",
  "updatedAt": "2022-03-18T21:34:02.678Z",
  "devdoc": {
    "kind": "dev",
    "methods": {
      "COUNTING_MODE()": {
        "details": "A description of the possible `support` values for {castVote} and the way these votes are counted, meant to be consumed by UIs to show correct vote options and interpret the results. The string is a URL-encoded sequence of key-value pairs that each describe one aspect, for example `support=bravo&quorum=for,abstain`. There are 2 standard keys: `support` and `quorum`. - `support=bravo` refers to the vote options 0 = For, 1 = Against, 2 = Abstain, as in `GovernorBravo`. - `quorum=bravo` means that only For votes are counted towards quorum. - `quorum=for,abstain` means that both For and Abstain votes are counted towards quorum. NOTE: The string can be decoded by the standard https://developer.mozilla.org/en-US/docs/Web/API/URLSearchParams[`URLSearchParams`] JavaScript class."
      },
      "cancel(uint256)": {
        "details": "Cancels a proposal only if sender is the proposer, or proposer delegates dropped below proposal threshold."
      },
      "castVote(uint256,uint8)": {
        "details": "See {IGovernor-castVote}."
      },
      "castVoteBySig(uint256,uint8,uint8,bytes32,bytes32)": {
        "details": "See {IGovernor-castVoteBySig}."
      },
      "castVoteWithReason(uint256,uint8,string)": {
        "details": "See {IGovernor-castVoteWithReason}."
      },
      "execute(address[],uint256[],bytes[],bytes32)": {
        "details": "See {IGovernor-execute}."
      },
      "execute(uint256)": {
        "details": "See {IGovernorCompatibilityBravo-execute}."
      },
      "getActions(uint256)": {
        "details": "See {IGovernorCompatibilityBravo-getActions}."
      },
      "getReceipt(uint256,address)": {
        "details": "See {IGovernorCompatibilityBravo-getReceipt}."
      },
      "hasVoted(uint256,address)": {
        "details": "See {IGovernor-hasVoted}."
      },
      "hashProposal(address[],uint256[],bytes[],bytes32)": {
        "details": "See {IGovernor-hashProposal}. The proposal id is produced by hashing the RLC encoded `targets` array, the `values` array, the `calldatas` array and the descriptionHash (bytes32 which itself is the keccak256 hash of the description string). This proposal id can be produced from the proposal data which is part of the {ProposalCreated} event. It can even be computed in advance, before the proposal is submitted. Note that the chainId and the governor address are not part of the proposal id computation. Consequently, the same proposal (with same operation and same description) will have the same id if submitted on multiple governors accross multiple networks. This also means that in order to execute the same operation twice (on the same governor) the proposer will have to change the description in order to avoid proposal id conflicts."
      },
      "name()": {
        "details": "See {IGovernor-name}."
      },
      "proposalDeadline(uint256)": {
        "details": "See {IGovernor-proposalDeadline}."
      },
      "proposalEta(uint256)": {
        "details": "Public accessor to check the eta of a queued proposal"
      },
      "proposalSnapshot(uint256)": {
        "details": "See {IGovernor-proposalSnapshot}."
      },
      "proposalThreshold()": {
        "details": "Part of the Governor Bravo's interface: _\"The number of votes required in order for a voter to become a proposer\"_."
      },
      "proposals(uint256)": {
        "details": "See {IGovernorCompatibilityBravo-proposals}."
      },
      "propose(address[],uint256[],string[],bytes[],string)": {
        "details": "See {IGovernorCompatibilityBravo-propose}."
      },
      "queue(address[],uint256[],bytes[],bytes32)": {
        "details": "Function to queue a proposal to the timelock."
      },
      "queue(uint256)": {
        "details": "See {IGovernorCompatibilityBravo-queue}."
      },
      "quorumVotes()": {
        "details": "See {IGovernorCompatibilityBravo-quorumVotes}."
      },
      "timelock()": {
        "details": "Public accessor to check the address of the timelock"
      },
      "updateTimelock(address)": {
        "details": "Public endpoint to update the underlying timelock instance. Restricted to the timelock itself, so updates must be proposed, scheduled and executed using the {Governor} workflow."
      },
      "version()": {
        "details": "See {IGovernor-version}."
      },
      "votingDelay()": {
        "details": "delay, in number of block, between the proposal is created and the vote starts. This can be increassed to leave time for users to buy voting power, of delegate it, before the voting of a proposal starts."
      },
      "votingPeriod()": {
        "details": "delay, in number of blocks, between the vote start and vote ends. Note: the {votingDelay} can delay the start of the vote. This must be considered when setting the voting duration compared to the voting delay."
      }
    },
    "version": 1
  },
  "userdoc": {
    "kind": "user",
    "methods": {
      "COUNTING_MODE()": {
        "notice": "module:voting"
      },
      "votingDelay()": {
        "notice": "module:user-config"
      },
      "votingPeriod()": {
        "notice": "module:user-config"
      }
    },
    "version": 1
  }
}