{
  "contractName": "MyGovernor",
  "abi": [
    {
      "inputs": [
        {
          "internalType": "contract ERC20Votes",
          "name": "_token",
          "type": "address"
        },
        {
          "internalType": "contract TimelockController",
          "name": "_timelock",
          "type": "address"
        }
      ],
      "stateMutability": "nonpayable",
      "type": "constructor"
    },
    {
      "inputs": [],
      "name": "Empty",
      "type": "error"
    },
    {
      "anonymous": false,
      "inputs": [
        {
          "indexed": false,
          "internalType": "uint256",
          "name": "proposalId",
          "type": "uint256"
        }
      ],
      "name": "ProposalCanceled",
      "type": "event"
    },
    {
      "anonymous": false,
      "inputs": [
        {
          "indexed": false,
          "internalType": "uint256",
          "name": "proposalId",
          "type": "uint256"
        },
        {
          "indexed": false,
          "internalType": "address",
          "name": "proposer",
          "type": "address"
        },
        {
          "indexed": false,
          "internalType": "address[]",
          "name": "targets",
          "type": "address[]"
        },
        {
          "indexed": false,
          "internalType": "uint256[]",
          "name": "values",
          "type": "uint256[]"
        },
        {
          "indexed": false,
          "internalType": "string[]",
          "name": "signatures",
          "type": "string[]"
        },
        {
          "indexed": false,
          "internalType": "bytes[]",
          "name": "calldatas",
          "type": "bytes[]"
        },
        {
          "indexed": false,
          "internalType": "uint256",
          "name": "startBlock",
          "type": "uint256"
        },
        {
          "indexed": false,
          "internalType": "uint256",
          "name": "endBlock",
          "type": "uint256"
        },
        {
          "indexed": false,
          "internalType": "string",
          "name": "description",
          "type": "string"
        }
      ],
      "name": "ProposalCreated",
      "type": "event"
    },
    {
      "anonymous": false,
      "inputs": [
        {
          "indexed": false,
          "internalType": "uint256",
          "name": "proposalId",
          "type": "uint256"
        }
      ],
      "name": "ProposalExecuted",
      "type": "event"
    },
    {
      "anonymous": false,
      "inputs": [
        {
          "indexed": false,
          "internalType": "uint256",
          "name": "proposalId",
          "type": "uint256"
        },
        {
          "indexed": false,
          "internalType": "uint256",
          "name": "eta",
          "type": "uint256"
        }
      ],
      "name": "ProposalQueued",
      "type": "event"
    },
    {
      "anonymous": false,
      "inputs": [
        {
          "indexed": false,
          "internalType": "uint256",
          "name": "oldQuorumNumerator",
          "type": "uint256"
        },
        {
          "indexed": false,
          "internalType": "uint256",
          "name": "newQuorumNumerator",
          "type": "uint256"
        }
      ],
      "name": "QuorumNumeratorUpdated",
      "type": "event"
    },
    {
      "anonymous": false,
      "inputs": [
        {
          "indexed": false,
          "internalType": "address",
          "name": "oldTimelock",
          "type": "address"
        },
        {
          "indexed": false,
          "internalType": "address",
          "name": "newTimelock",
          "type": "address"
        }
      ],
      "name": "TimelockChange",
      "type": "event"
    },
    {
      "anonymous": false,
      "inputs": [
        {
          "indexed": true,
          "internalType": "address",
          "name": "voter",
          "type": "address"
        },
        {
          "indexed": false,
          "internalType": "uint256",
          "name": "proposalId",
          "type": "uint256"
        },
        {
          "indexed": false,
          "internalType": "uint8",
          "name": "support",
          "type": "uint8"
        },
        {
          "indexed": false,
          "internalType": "uint256",
          "name": "weight",
          "type": "uint256"
        },
        {
          "indexed": false,
          "internalType": "string",
          "name": "reason",
          "type": "string"
        }
      ],
      "name": "VoteCast",
      "type": "event"
    },
    {
      "anonymous": false,
      "inputs": [
        {
          "indexed": true,
          "internalType": "address",
          "name": "voter",
          "type": "address"
        },
        {
          "indexed": false,
          "internalType": "uint256",
          "name": "proposalId",
          "type": "uint256"
        },
        {
          "indexed": false,
          "internalType": "uint8",
          "name": "support",
          "type": "uint8"
        },
        {
          "indexed": false,
          "internalType": "uint256",
          "name": "weight",
          "type": "uint256"
        },
        {
          "indexed": false,
          "internalType": "string",
          "name": "reason",
          "type": "string"
        },
        {
          "indexed": false,
          "internalType": "bytes",
          "name": "params",
          "type": "bytes"
        }
      ],
      "name": "VoteCastWithParams",
      "type": "event"
    },
    {
      "inputs": [],
      "name": "BALLOT_TYPEHASH",
      "outputs": [
        {
          "internalType": "bytes32",
          "name": "",
          "type": "bytes32"
        }
      ],
      "stateMutability": "view",
      "type": "function"
    },
    {
      "inputs": [],
      "name": "COUNTING_MODE",
      "outputs": [
        {
          "internalType": "string",
          "name": "",
          "type": "string"
        }
      ],
      "stateMutability": "pure",
      "type": "function"
    },
    {
      "inputs": [],
      "name": "EXTENDED_BALLOT_TYPEHASH",
      "outputs": [
        {
          "internalType": "bytes32",
          "name": "",
          "type": "bytes32"
        }
      ],
      "stateMutability": "view",
      "type": "function"
    },
    {
      "inputs": [
        {
          "internalType": "uint256",
          "name": "proposalId",
          "type": "uint256"
        }
      ],
      "name": "cancel",
      "outputs": [],
      "stateMutability": "nonpayable",
      "type": "function"
    },
    {
      "inputs": [
        {
          "internalType": "uint256",
          "name": "proposalId",
          "type": "uint256"
        },
        {
          "internalType": "uint8",
          "name": "support",
          "type": "uint8"
        }
      ],
      "name": "castVote",
      "outputs": [
        {
          "internalType": "uint256",
          "name": "",
          "type": "uint256"
        }
      ],
      "stateMutability": "nonpayable",
      "type": "function"
    },
    {
      "inputs": [
        {
          "internalType": "uint256",
          "name": "proposalId",
          "type": "uint256"
        },
        {
          "internalType": "uint8",
          "name": "support",
          "type": "uint8"
        },
        {
          "internalType": "uint8",
          "name": "v",
          "type": "uint8"
        },
        {
          "internalType": "bytes32",
          "name": "r",
          "type": "bytes32"
        },
        {
          "internalType": "bytes32",
          "name": "s",
          "type": "bytes32"
        }
      ],
      "name": "castVoteBySig",
      "outputs": [
        {
          "internalType": "uint256",
          "name": "",
          "type": "uint256"
        }
      ],
      "stateMutability": "nonpayable",
      "type": "function"
    },
    {
      "inputs": [
        {
          "internalType": "uint256",
          "name": "proposalId",
          "type": "uint256"
        },
        {
          "internalType": "uint8",
          "name": "support",
          "type": "uint8"
        },
        {
          "internalType": "string",
          "name": "reason",
          "type": "string"
        }
      ],
      "name": "castVoteWithReason",
      "outputs": [
        {
          "internalType": "uint256",
          "name": "",
          "type": "uint256"
        }
      ],
      "stateMutability": "nonpayable",
      "type": "function"
    },
    {
      "inputs": [
        {
          "internalType": "uint256",
          "name": "proposalId",
          "type": "uint256"
        },
        {
          "internalType": "uint8",
          "name": "support",
          "type": "uint8"
        },
        {
          "internalType": "string",
          "name": "reason",
          "type": "string"
        },
        {
          "internalType": "bytes",
          "name": "params",
          "type": "bytes"
        }
      ],
      "name": "castVoteWithReasonAndParams",
      "outputs": [
        {
          "internalType": "uint256",
          "name": "",
          "type": "uint256"
        }
      ],
      "stateMutability": "nonpayable",
      "type": "function"
    },
    {
      "inputs": [
        {
          "internalType": "uint256",
          "name": "proposalId",
          "type": "uint256"
        },
        {
          "internalType": "uint8",
          "name": "support",
          "type": "uint8"
        },
        {
          "internalType": "string",
          "name": "reason",
          "type": "string"
        },
        {
          "internalType": "bytes",
          "name": "params",
          "type": "bytes"
        },
        {
          "internalType": "uint8",
          "name": "v",
          "type": "uint8"
        },
        {
          "internalType": "bytes32",
          "name": "r",
          "type": "bytes32"
        },
        {
          "internalType": "bytes32",
          "name": "s",
          "type": "bytes32"
        }
      ],
      "name": "castVoteWithReasonAndParamsBySig",
      "outputs": [
        {
          "internalType": "uint256",
          "name": "",
          "type": "uint256"
        }
      ],
      "stateMutability": "nonpayable",
      "type": "function"
    },
    {
      "inputs": [
        {
          "internalType": "address[]",
          "name": "targets",
          "type": "address[]"
        },
        {
          "internalType": "uint256[]",
          "name": "values",
          "type": "uint256[]"
        },
        {
          "internalType": "bytes[]",
          "name": "calldatas",
          "type": "bytes[]"
        },
        {
          "internalType": "bytes32",
          "name": "descriptionHash",
          "type": "bytes32"
        }
      ],
      "name": "execute",
      "outputs": [
        {
          "internalType": "uint256",
          "name": "",
          "type": "uint256"
        }
      ],
      "stateMutability": "payable",
      "type": "function"
    },
    {
      "inputs": [
        {
          "internalType": "uint256",
          "name": "proposalId",
          "type": "uint256"
        }
      ],
      "name": "execute",
      "outputs": [],
      "stateMutability": "payable",
      "type": "function"
    },
    {
      "inputs": [
        {
          "internalType": "uint256",
          "name": "proposalId",
          "type": "uint256"
        }
      ],
      "name": "getActions",
      "outputs": [
        {
          "internalType": "address[]",
          "name": "targets",
          "type": "address[]"
        },
        {
          "internalType": "uint256[]",
          "name": "values",
          "type": "uint256[]"
        },
        {
          "internalType": "string[]",
          "name": "signatures",
          "type": "string[]"
        },
        {
          "internalType": "bytes[]",
          "name": "calldatas",
          "type": "bytes[]"
        }
      ],
      "stateMutability": "view",
      "type": "function"
    },
    {
      "inputs": [
        {
          "internalType": "uint256",
          "name": "proposalId",
          "type": "uint256"
        },
        {
          "internalType": "address",
          "name": "voter",
          "type": "address"
        }
      ],
      "name": "getReceipt",
      "outputs": [
        {
          "components": [
            {
              "internalType": "bool",
              "name": "hasVoted",
              "type": "bool"
            },
            {
              "internalType": "uint8",
              "name": "support",
              "type": "uint8"
            },
            {
              "internalType": "uint96",
              "name": "votes",
              "type": "uint96"
            }
          ],
          "internalType": "struct IGovernorCompatibilityBravo.Receipt",
          "name": "",
          "type": "tuple"
        }
      ],
      "stateMutability": "view",
      "type": "function"
    },
    {
      "inputs": [
        {
          "internalType": "address",
          "name": "account",
          "type": "address"
        },
        {
          "internalType": "uint256",
          "name": "blockNumber",
          "type": "uint256"
        },
        {
          "internalType": "bytes",
          "name": "params",
          "type": "bytes"
        }
      ],
      "name": "getVotesWithParams",
      "outputs": [
        {
          "internalType": "uint256",
          "name": "",
          "type": "uint256"
        }
      ],
      "stateMutability": "view",
      "type": "function"
    },
    {
      "inputs": [
        {
          "internalType": "uint256",
          "name": "proposalId",
          "type": "uint256"
        },
        {
          "internalType": "address",
          "name": "account",
          "type": "address"
        }
      ],
      "name": "hasVoted",
      "outputs": [
        {
          "internalType": "bool",
          "name": "",
          "type": "bool"
        }
      ],
      "stateMutability": "view",
      "type": "function"
    },
    {
      "inputs": [
        {
          "internalType": "address[]",
          "name": "targets",
          "type": "address[]"
        },
        {
          "internalType": "uint256[]",
          "name": "values",
          "type": "uint256[]"
        },
        {
          "internalType": "bytes[]",
          "name": "calldatas",
          "type": "bytes[]"
        },
        {
          "internalType": "bytes32",
          "name": "descriptionHash",
          "type": "bytes32"
        }
      ],
      "name": "hashProposal",
      "outputs": [
        {
          "internalType": "uint256",
          "name": "",
          "type": "uint256"
        }
      ],
      "stateMutability": "pure",
      "type": "function"
    },
    {
      "inputs": [],
      "name": "name",
      "outputs": [
        {
          "internalType": "string",
          "name": "",
          "type": "string"
        }
      ],
      "stateMutability": "view",
      "type": "function"
    },
    {
      "inputs": [
        {
          "internalType": "address",
          "name": "",
          "type": "address"
        },
        {
          "internalType": "address",
          "name": "",
          "type": "address"
        },
        {
          "internalType": "uint256[]",
          "name": "",
          "type": "uint256[]"
        },
        {
          "internalType": "uint256[]",
          "name": "",
          "type": "uint256[]"
        },
        {
          "internalType": "bytes",
          "name": "",
          "type": "bytes"
        }
      ],
      "name": "onERC1155BatchReceived",
      "outputs": [
        {
          "internalType": "bytes4",
          "name": "",
          "type": "bytes4"
        }
      ],
      "stateMutability": "nonpayable",
      "type": "function"
    },
    {
      "inputs": [
        {
          "internalType": "address",
          "name": "",
          "type": "address"
        },
        {
          "internalType": "address",
          "name": "",
          "type": "address"
        },
        {
          "internalType": "uint256",
          "name": "",
          "type": "uint256"
        },
        {
          "internalType": "uint256",
          "name": "",
          "type": "uint256"
        },
        {
          "internalType": "bytes",
          "name": "",
          "type": "bytes"
        }
      ],
      "name": "onERC1155Received",
      "outputs": [
        {
          "internalType": "bytes4",
          "name": "",
          "type": "bytes4"
        }
      ],
      "stateMutability": "nonpayable",
      "type": "function"
    },
    {
      "inputs": [
        {
          "internalType": "address",
          "name": "",
          "type": "address"
        },
        {
          "internalType": "address",
          "name": "",
          "type": "address"
        },
        {
          "internalType": "uint256",
          "name": "",
          "type": "uint256"
        },
        {
          "internalType": "bytes",
          "name": "",
          "type": "bytes"
        }
      ],
      "name": "onERC721Received",
      "outputs": [
        {
          "internalType": "bytes4",
          "name": "",
          "type": "bytes4"
        }
      ],
      "stateMutability": "nonpayable",
      "type": "function"
    },
    {
      "inputs": [
        {
          "internalType": "uint256",
          "name": "proposalId",
          "type": "uint256"
        }
      ],
      "name": "proposalDeadline",
      "outputs": [
        {
          "internalType": "uint256",
          "name": "",
          "type": "uint256"
        }
      ],
      "stateMutability": "view",
      "type": "function"
    },
    {
      "inputs": [
        {
          "internalType": "uint256",
          "name": "proposalId",
          "type": "uint256"
        }
      ],
      "name": "proposalEta",
      "outputs": [
        {
          "internalType": "uint256",
          "name": "",
          "type": "uint256"
        }
      ],
      "stateMutability": "view",
      "type": "function"
    },
    {
      "inputs": [
        {
          "internalType": "uint256",
          "name": "proposalId",
          "type": "uint256"
        }
      ],
      "name": "proposalSnapshot",
      "outputs": [
        {
          "internalType": "uint256",
          "name": "",
          "type": "uint256"
        }
      ],
      "stateMutability": "view",
      "type": "function"
    },
    {
      "inputs": [
        {
          "internalType": "uint256",
          "name": "proposalId",
          "type": "uint256"
        }
      ],
      "name": "proposals",
      "outputs": [
        {
          "internalType": "uint256",
          "name": "id",
          "type": "uint256"
        },
        {
          "internalType": "address",
          "name": "proposer",
          "type": "address"
        },
        {
          "internalType": "uint256",
          "name": "eta",
          "type": "uint256"
        },
        {
          "internalType": "uint256",
          "name": "startBlock",
          "type": "uint256"
        },
        {
          "internalType": "uint256",
          "name": "endBlock",
          "type": "uint256"
        },
        {
          "internalType": "uint256",
          "name": "forVotes",
          "type": "uint256"
        },
        {
          "internalType": "uint256",
          "name": "againstVotes",
          "type": "uint256"
        },
        {
          "internalType": "uint256",
          "name": "abstainVotes",
          "type": "uint256"
        },
        {
          "internalType": "bool",
          "name": "canceled",
          "type": "bool"
        },
        {
          "internalType": "bool",
          "name": "executed",
          "type": "bool"
        }
      ],
      "stateMutability": "view",
      "type": "function"
    },
    {
      "inputs": [
        {
          "internalType": "address[]",
          "name": "targets",
          "type": "address[]"
        },
        {
          "internalType": "uint256[]",
          "name": "values",
          "type": "uint256[]"
        },
        {
          "internalType": "bytes[]",
          "name": "calldatas",
          "type": "bytes[]"
        },
        {
          "internalType": "bytes32",
          "name": "descriptionHash",
          "type": "bytes32"
        }
      ],
      "name": "queue",
      "outputs": [
        {
          "internalType": "uint256",
          "name": "",
          "type": "uint256"
        }
      ],
      "stateMutability": "nonpayable",
      "type": "function"
    },
    {
      "inputs": [
        {
          "internalType": "uint256",
          "name": "proposalId",
          "type": "uint256"
        }
      ],
      "name": "queue",
      "outputs": [],
      "stateMutability": "nonpayable",
      "type": "function"
    },
    {
      "inputs": [],
      "name": "quorumDenominator",
      "outputs": [
        {
          "internalType": "uint256",
          "name": "",
          "type": "uint256"
        }
      ],
      "stateMutability": "view",
      "type": "function"
    },
    {
      "inputs": [],
      "name": "quorumNumerator",
      "outputs": [
        {
          "internalType": "uint256",
          "name": "",
          "type": "uint256"
        }
      ],
      "stateMutability": "view",
      "type": "function"
    },
    {
      "inputs": [],
      "name": "quorumVotes",
      "outputs": [
        {
          "internalType": "uint256",
          "name": "",
          "type": "uint256"
        }
      ],
      "stateMutability": "view",
      "type": "function"
    },
    {
      "inputs": [
        {
          "internalType": "address",
          "name": "target",
          "type": "address"
        },
        {
          "internalType": "uint256",
          "name": "value",
          "type": "uint256"
        },
        {
          "internalType": "bytes",
          "name": "data",
          "type": "bytes"
        }
      ],
      "name": "relay",
      "outputs": [],
      "stateMutability": "nonpayable",
      "type": "function"
    },
    {
      "inputs": [],
      "name": "timelock",
      "outputs": [
        {
          "internalType": "address",
          "name": "",
          "type": "address"
        }
      ],
      "stateMutability": "view",
      "type": "function"
    },
    {
      "inputs": [],
      "name": "token",
      "outputs": [
        {
          "internalType": "contract IVotes",
          "name": "",
          "type": "address"
        }
      ],
      "stateMutability": "view",
      "type": "function"
    },
    {
      "inputs": [
        {
          "internalType": "uint256",
          "name": "newQuorumNumerator",
          "type": "uint256"
        }
      ],
      "name": "updateQuorumNumerator",
      "outputs": [],
      "stateMutability": "nonpayable",
      "type": "function"
    },
    {
      "inputs": [
        {
          "internalType": "contract TimelockController",
          "name": "newTimelock",
          "type": "address"
        }
      ],
      "name": "updateTimelock",
      "outputs": [],
      "stateMutability": "nonpayable",
      "type": "function"
    },
    {
      "inputs": [],
      "name": "version",
      "outputs": [
        {
          "internalType": "string",
          "name": "",
          "type": "string"
        }
      ],
      "stateMutability": "view",
      "type": "function"
    },
    {
      "stateMutability": "payable",
      "type": "receive"
    },
    {
      "inputs": [],
      "name": "votingDelay",
      "outputs": [
        {
          "internalType": "uint256",
          "name": "",
          "type": "uint256"
        }
      ],
      "stateMutability": "pure",
      "type": "function"
    },
    {
      "inputs": [],
      "name": "votingPeriod",
      "outputs": [
        {
          "internalType": "uint256",
          "name": "",
          "type": "uint256"
        }
      ],
      "stateMutability": "pure",
      "type": "function"
    },
    {
      "inputs": [],
      "name": "proposalThreshold",
      "outputs": [
        {
          "internalType": "uint256",
          "name": "",
          "type": "uint256"
        }
      ],
      "stateMutability": "pure",
      "type": "function"
    },
    {
      "inputs": [
        {
          "internalType": "uint256",
          "name": "blockNumber",
          "type": "uint256"
        }
      ],
      "name": "quorum",
      "outputs": [
        {
          "internalType": "uint256",
          "name": "",
          "type": "uint256"
        }
      ],
      "stateMutability": "view",
      "type": "function"
    },
    {
      "inputs": [
        {
          "internalType": "address",
          "name": "account",
          "type": "address"
        },
        {
          "internalType": "uint256",
          "name": "blockNumber",
          "type": "uint256"
        }
      ],
      "name": "getVotes",
      "outputs": [
        {
          "internalType": "uint256",
          "name": "",
          "type": "uint256"
        }
      ],
      "stateMutability": "view",
      "type": "function"
    },
    {
      "inputs": [
        {
          "internalType": "uint256",
          "name": "proposalId",
          "type": "uint256"
        }
      ],
      "name": "state",
      "outputs": [
        {
          "internalType": "enum IGovernor.ProposalState",
          "name": "",
          "type": "uint8"
        }
      ],
      "stateMutability": "view",
      "type": "function"
    },
    {
      "inputs": [
        {
          "internalType": "address[]",
          "name": "targets",
          "type": "address[]"
        },
        {
          "internalType": "uint256[]",
          "name": "values",
          "type": "uint256[]"
        },
        {
          "internalType": "bytes[]",
          "name": "calldatas",
          "type": "bytes[]"
        },
        {
          "internalType": "string",
          "name": "description",
          "type": "string"
        }
      ],
      "name": "propose",
      "outputs": [
        {
          "internalType": "uint256",
          "name": "",
          "type": "uint256"
        }
      ],
      "stateMutability": "nonpayable",
      "type": "function"
    },
    {
      "inputs": [
        {
          "internalType": "address[]",
          "name": "targets",
          "type": "address[]"
        },
        {
          "internalType": "uint256[]",
          "name": "values",
          "type": "uint256[]"
        },
        {
          "internalType": "string[]",
          "name": "signatures",
          "type": "string[]"
        },
        {
          "internalType": "bytes[]",
          "name": "calldatas",
          "type": "bytes[]"
        },
        {
          "internalType": "string",
          "name": "description",
          "type": "string"
        }
      ],
      "name": "propose",
      "outputs": [
        {
          "internalType": "uint256",
          "name": "",
          "type": "uint256"
        }
      ],
      "stateMutability": "nonpayable",
      "type": "function"
    },
    {
      "inputs": [
        {
          "internalType": "bytes4",
          "name": "interfaceId",
          "type": "bytes4"
        }
      ],
      "name": "supportsInterface",
      "outputs": [
        {
          "internalType": "bool",
          "name": "",
          "type": "bool"
        }
      ],
      "stateMutability": "view",
      "type": "function"
    }
  ],
  "bytecode": "0x6101606040523480156200001257600080fd5b506040516200829e3803806200829e83398181016040528101906200003891906200045a565b806004836040518060400160405280600a81526020017f4d79476f7665726e6f72000000000000000000000000000000000000000000008152508062000083620001b760201b60201c565b60008280519060200120905060008280519060200120905060007f8b73c3c69bb8fe3d512ecc4cf759cc79239f7b179b0ffacaa9a75d522b39400f90508260e081815250508161010081815250504660a08181525050620000ec818484620001f460201b60201c565b608081815250503073ffffffffffffffffffffffffffffffffffffffff1660c08173ffffffffffffffffffffffffffffffffffffffff1660601b8152505080610120818152505050505050508060009080519060200190620001509291906200037c565b50508073ffffffffffffffffffffffffffffffffffffffff166101408173ffffffffffffffffffffffffffffffffffffffff1660601b81525050506200019c816200023060201b60201c565b50620001ae81620002d260201b60201c565b5050506200077c565b60606040518060400160405280600181526020017f3100000000000000000000000000000000000000000000000000000000000000815250905090565b600083838346306040516020016200021195949392919062000528565b6040516020818303038152906040528051906020012090509392505050565b620002406200037360201b60201c565b81111562000285576040517f08c379a00000000000000000000000000000000000000000000000000000000081526004016200027c9062000585565b60405180910390fd5b60006005549050816005819055507f0553476bf02ef2726e8ce5ced78d63e26e602e4a2257b1f559418e24b46339978183604051620002c6929190620005a7565b60405180910390a15050565b7f08f74ea46ef7894f65eabfb5e6e695de773a000b47c529ab559178069b226401600660009054906101000a900473ffffffffffffffffffffffffffffffffffffffff168260405162000327929190620004fb565b60405180910390a180600660006101000a81548173ffffffffffffffffffffffffffffffffffffffff021916908373ffffffffffffffffffffffffffffffffffffffff16021790555050565b60006064905090565b8280546200038a9062000669565b90600052602060002090601f016020900481019282620003ae5760008555620003fa565b82601f10620003c957805160ff1916838001178555620003fa565b82800160010185558215620003fa579182015b82811115620003f9578251825591602001919060010190620003dc565b5b5090506200040991906200040d565b5090565b5b80821115620004285760008160009055506001016200040e565b5090565b6000815190506200043d8162000748565b92915050565b600081519050620004548162000762565b92915050565b60008060408385031215620004745762000473620006ce565b5b600062000484858286016200042c565b9250506020620004978582860162000443565b9150509250929050565b620004ac81620005e5565b82525050565b620004bd816200060d565b82525050565b6000620004d2604383620005d4565b9150620004df82620006d3565b606082019050919050565b620004f5816200065f565b82525050565b6000604082019050620005126000830185620004a1565b620005216020830184620004a1565b9392505050565b600060a0820190506200053f6000830188620004b2565b6200054e6020830187620004b2565b6200055d6040830186620004b2565b6200056c6060830185620004ea565b6200057b6080830184620004a1565b9695505050505050565b60006020820190508181036000830152620005a081620004c3565b9050919050565b6000604082019050620005be6000830185620004ea565b620005cd6020830184620004ea565b9392505050565b600082825260208201905092915050565b6000620005f2826200063f565b9050919050565b600062000606826200063f565b9050919050565b6000819050919050565b60006200062482620005e5565b9050919050565b60006200063882620005f9565b9050919050565b600073ffffffffffffffffffffffffffffffffffffffff82169050919050565b6000819050919050565b600060028204905060018216806200068257607f821691505b602082108114156200069957620006986200069f565b5b50919050565b7f4e487b7100000000000000000000000000000000000000000000000000000000600052602260045260246000fd5b600080fd5b7f476f7665726e6f72566f74657351756f72756d4672616374696f6e3a2071756f60008201527f72756d4e756d657261746f72206f7665722071756f72756d44656e6f6d696e6160208201527f746f720000000000000000000000000000000000000000000000000000000000604082015250565b620007538162000617565b81146200075f57600080fd5b50565b6200076d816200062b565b81146200077957600080fd5b50565b60805160a05160c05160601c60e05161010051610120516101405160601c617ab3620007eb600039600081816125a0015281816131e901526134a001526000613775015260006137b701526000613796015260006136cb015260006137210152600061374a0152617ab36000f3fe60806040526004361061026b5760003560e01c80637d5e81e211610144578063d33219b4116100b6578063e23a9a521161007a578063e23a9a5214610a87578063eb9019d414610ac4578063f23a6e6114610b01578063f8ce560a14610b3e578063fc0c546a14610b7b578063fe0d94c114610ba6576102b1565b8063d33219b4146109a0578063da95691a146109cb578063dd4e2ba514610a08578063ddf0b00914610a33578063deaaa7cc14610a5c576102b1565b8063ab58fb8e11610108578063ab58fb8e14610858578063b58131b014610895578063bc197c81146108c0578063c01f9e37146108fd578063c28bc2fa1461093a578063c59057e414610963576102b1565b80637d5e81e21461075f57806397c3d3341461079c5780639a802a6d146107c7578063a7713a7014610804578063a890c9101461082f576102b1565b80632fe3e261116101dd57806340e58ee5116101a157806340e58ee514610617578063438596321461064057806354fd4d501461067d57806356781388146106a85780635f398a14146106e55780637b3c71d314610722576102b1565b80632fe3e26114610507578063328dd982146105325780633932abb1146105725780633bccf4fd1461059d5780633e4f49e6146105da576102b1565b806306fdde031161022f57806306fdde03146103ca578063150b7a02146103f5578063160cbed71461043257806324bc1a641461046f5780632656227d1461049a5780632d63f693146104ca576102b1565b8063013cf08b146102b657806301ffc9a7146102fc57806302a251a314610339578063034201811461036457806306f3f9e6146103a1576102b1565b366102b1573073ffffffffffffffffffffffffffffffffffffffff1661028f610bc2565b73ffffffffffffffffffffffffffffffffffffffff16146102af57600080fd5b005b600080fd5b3480156102c257600080fd5b506102dd60048036038101906102d89190615821565b610bd1565b6040516102f39a99989796959493929190616add565b60405180910390f35b34801561030857600080fd5b50610323600480360381019061031e91906157c7565b610cc6565b604051610330919061658c565b60405180910390f35b34801561034557600080fd5b5061034e610cd8565b60405161035b9190616a12565b60405180910390f35b34801561037057600080fd5b5061038b60048036038101906103869190615a13565b610ce2565b6040516103989190616a12565b60405180910390f35b3480156103ad57600080fd5b506103c860048036038101906103c39190615821565b610dc7565b005b3480156103d657600080fd5b506103df610ec3565b6040516103ec9190616735565b60405180910390f35b34801561040157600080fd5b5061041c60048036038101906104179190615297565b610f55565b60405161042991906166e4565b60405180910390f35b34801561043e57600080fd5b50610459600480360381019061045491906154d4565b610f69565b6040516104669190616a12565b60405180910390f35b34801561047b57600080fd5b50610484611241565b6040516104919190616a12565b60405180910390f35b6104b460048036038101906104af91906154d4565b61125d565b6040516104c19190616a12565b60405180910390f35b3480156104d657600080fd5b506104f160048036038101906104ec9190615821565b6113aa565b6040516104fe9190616a12565b60405180910390f35b34801561051357600080fd5b5061051c611418565b60405161052991906165a7565b60405180910390f35b34801561053e57600080fd5b5061055960048036038101906105549190615821565b61143c565b604051610569949392919061652b565b60405180910390f35b34801561057e57600080fd5b506105876116f9565b6040516105949190616a12565b60405180910390f35b3480156105a957600080fd5b506105c460048036038101906105bf9190615af1565b611703565b6040516105d19190616a12565b60405180910390f35b3480156105e657600080fd5b5061060160048036038101906105fc9190615821565b61178d565b60405161060e919061671a565b60405180910390f35b34801561062357600080fd5b5061063e60048036038101906106399190615821565b61179f565b005b34801561064c57600080fd5b506106676004803603810190610662919061587b565b611b37565b604051610674919061658c565b60405180910390f35b34801561068957600080fd5b50610692611ba5565b60405161069f9190616735565b60405180910390f35b3480156106b457600080fd5b506106cf60048036038101906106ca91906158bb565b611be2565b6040516106dc9190616a12565b60405180910390f35b3480156106f157600080fd5b5061070c6004803603810190610707919061596f565b611c13565b6040516107199190616a12565b60405180910390f35b34801561072e57600080fd5b50610749600480360381019061074491906158fb565b611c7d565b6040516107569190616a12565b60405180910390f35b34801561076b57600080fd5b506107866004803603810190610781919061558f565b611ce5565b6040516107939190616a12565b60405180910390f35b3480156107a857600080fd5b506107b1611cfd565b6040516107be9190616a12565b60405180910390f35b3480156107d357600080fd5b506107ee60048036038101906107e99190615465565b611d06565b6040516107fb9190616a12565b60405180910390f35b34801561081057600080fd5b50610819611d1c565b6040516108269190616a12565b60405180910390f35b34801561083b57600080fd5b50610856600480360381019061085191906157f4565b611d26565b005b34801561086457600080fd5b5061087f600480360381019061087a9190615821565b611e22565b60405161088c9190616a12565b60405180910390f35b3480156108a157600080fd5b506108aa611efe565b6040516108b79190616a12565b60405180910390f35b3480156108cc57600080fd5b506108e760048036038101906108e291906151c8565b611f03565b6040516108f491906166e4565b60405180910390f35b34801561090957600080fd5b50610924600480360381019061091f9190615821565b611f18565b6040516109319190616a12565b60405180910390f35b34801561094657600080fd5b50610961600480360381019061095c91906153f1565b611f86565b005b34801561096f57600080fd5b5061098a600480360381019061098591906154d4565b6120cc565b6040516109979190616a12565b60405180910390f35b3480156109ac57600080fd5b506109b5612108565b6040516109c29190616386565b60405180910390f35b3480156109d757600080fd5b506109f260048036038101906109ed9190615666565b612132565b6040516109ff9190616a12565b60405180910390f35b348015610a1457600080fd5b50610a1d612169565b604051610a2a9190616735565b60405180910390f35b348015610a3f57600080fd5b50610a5a6004803603810190610a559190615821565b6121a6565b005b348015610a6857600080fd5b50610a7161245b565b604051610a7e91906165a7565b60405180910390f35b348015610a9357600080fd5b50610aae6004803603810190610aa9919061587b565b61247f565b604051610abb91906169f7565b60405180910390f35b348015610ad057600080fd5b50610aeb6004803603810190610ae691906153b1565b612563565b604051610af89190616a12565b60405180910390f35b348015610b0d57600080fd5b50610b286004803603810190610b23919061531a565b612577565b604051610b3591906166e4565b60405180910390f35b348015610b4a57600080fd5b50610b656004803603810190610b609190615821565b61258c565b604051610b729190616a12565b60405180910390f35b348015610b8757600080fd5b50610b9061259e565b604051610b9d91906166ff565b60405180910390f35b610bc06004803603810190610bbb9190615821565b6125c2565b005b6000610bcc612877565b905090565b6000806000806000806000806000808a9950610bec8b611e22565b9750610bf78b6113aa565b9650610c028b611f18565b95506000600460008d815260200190815260200160002090508060000160009054906101000a900473ffffffffffffffffffffffffffffffffffffffff1699508060050154955080600601549450806007015493506000610c628d61178d565b905060026007811115610c7857610c776172e7565b5b816007811115610c8b57610c8a6172e7565b5b149350600780811115610ca157610ca06172e7565b5b816007811115610cb457610cb36172e7565b5b14925050509193959799509193959799565b6000610cd1826128a1565b9050919050565b600061b3cb905090565b600080610d65610d5d7fb3b3f3b703cd84ce352197dcff232b1b5d3cfb2025ce47cf04742d0651f1af888c8c8c8c604051610d1e92919061631f565b60405180910390208b80519060200120604051602001610d4295949392919061664c565b6040516020818303038152906040528051906020012061291b565b868686612935565b9050610db88a828b8b8b8080601f016020809104026020016040519081016040528093929190818152602001838380828437600081840152601f19601f820116905080830192505050505050508a612960565b91505098975050505050505050565b610dcf610bc2565b73ffffffffffffffffffffffffffffffffffffffff16610ded612b1d565b73ffffffffffffffffffffffffffffffffffffffff1614610e43576040517f08c379a0000000000000000000000000000000000000000000000000000000008152600401610e3a90616777565b60405180910390fd5b3073ffffffffffffffffffffffffffffffffffffffff16610e62610bc2565b73ffffffffffffffffffffffffffffffffffffffff1614610eb7576000610e87612b25565b604051610e9592919061631f565b604051809103902090505b80610eab6002612b32565b14610eb557610ea0565b505b610ec081612c0e565b50565b606060008054610ed2906171c9565b80601f0160208091040260200160405190810160405280929190818152602001828054610efe906171c9565b8015610f4b5780601f10610f2057610100808354040283529160200191610f4b565b820191906000526020600020905b815481529060010190602001808311610f2e57829003601f168201915b5050505050905090565b600063150b7a0260e01b9050949350505050565b600080610f78868686866120cc565b905060046007811115610f8e57610f8d6172e7565b5b610f978261178d565b6007811115610fa957610fa86172e7565b5b14610fe9576040517f08c379a0000000000000000000000000000000000000000000000000000000008152600401610fe0906168f7565b60405180910390fd5b6000600660009054906101000a900473ffffffffffffffffffffffffffffffffffffffff1673ffffffffffffffffffffffffffffffffffffffff1663f27a0c926040518163ffffffff1660e01b815260040160206040518083038186803b15801561105357600080fd5b505afa158015611067573d6000803e3d6000fd5b505050506040513d601f19601f8201168201806040525081019061108b919061584e565b9050600660009054906101000a900473ffffffffffffffffffffffffffffffffffffffff1673ffffffffffffffffffffffffffffffffffffffff1663b1c5f4278888886000896040518663ffffffff1660e01b81526004016110f195949392919061644d565b60206040518083038186803b15801561110957600080fd5b505afa15801561111d573d6000803e3d6000fd5b505050506040513d601f19601f82011682018060405250810190611141919061579a565b6007600084815260200190815260200160002081905550600660009054906101000a900473ffffffffffffffffffffffffffffffffffffffff1673ffffffffffffffffffffffffffffffffffffffff16638f2a0bb0888888600089876040518763ffffffff1660e01b81526004016111be969594939291906164b5565b600060405180830381600087803b1580156111d857600080fd5b505af11580156111ec573d6000803e3d6000fd5b505050507f9a2e42fd6722813d69113e7d0079d3d940171428df7373df9c7f7617cfda289282824261121e9190616eda565b60405161122c929190616b79565b60405180910390a18192505050949350505050565b60006112586001436112539190616ff9565b61258c565b905090565b60008061126c868686866120cc565b905060006112798261178d565b90506004600781111561128f5761128e6172e7565b5b8160078111156112a2576112a16172e7565b5b14806112d25750600560078111156112bd576112bc6172e7565b5b8160078111156112d0576112cf6172e7565b5b145b611311576040517f08c379a0000000000000000000000000000000000000000000000000000000008152600401611308906168f7565b60405180910390fd5b600180600084815260200190815260200160002060020160006101000a81548160ff0219169083151502179055507f712ae1383f79ac853f8d882153778e0260ef8f03b504e2866e0593e04d2b291f8260405161136e9190616a12565b60405180910390a16113838288888888612ca3565b6113908288888888612d87565b61139d8288888888612d9b565b8192505050949350505050565b6000611407600160008481526020019081526020016000206000016040518060200160405290816000820160009054906101000a900467ffffffffffffffff1667ffffffffffffffff1667ffffffffffffffff1681525050612df6565b67ffffffffffffffff169050919050565b7fb3b3f3b703cd84ce352197dcff232b1b5d3cfb2025ce47cf04742d0651f1af8881565b606080606080600060046000878152602001908152602001600020905080600101816002018260030183600401838054806020026020016040519081016040528092919081815260200182805480156114ea57602002820191906000526020600020905b8160009054906101000a900473ffffffffffffffffffffffffffffffffffffffff1673ffffffffffffffffffffffffffffffffffffffff16815260200190600101908083116114a0575b505050505093508280548060200260200160405190810160405280929190818152602001828054801561153c57602002820191906000526020600020905b815481526020019060010190808311611528575b5050505050925081805480602002602001604051908101604052809291908181526020016000905b82821015611610578382906000526020600020018054611583906171c9565b80601f01602080910402602001604051908101604052809291908181526020018280546115af906171c9565b80156115fc5780601f106115d1576101008083540402835291602001916115fc565b820191906000526020600020905b8154815290600101906020018083116115df57829003601f168201915b505050505081526020019060010190611564565b50505050915080805480602002602001604051908101604052809291908181526020016000905b828210156116e3578382906000526020600020018054611656906171c9565b80601f0160208091040260200160405190810160405280929190818152602001828054611682906171c9565b80156116cf5780601f106116a4576101008083540402835291602001916116cf565b820191906000526020600020905b8154815290600101906020018083116116b257829003601f168201915b505050505081526020019060010190611637565b5050505090509450945094509450509193509193565b60006119af905090565b60008061176461175c7f150214d74d59b7d1e90c73fc22ef3d991dd0a76b046543d4d80ab92d2a50328f898960405160200161174193929190616615565b6040516020818303038152906040528051906020012061291b565b868686612935565b905061178187828860405180602001604052806000815250612e04565b91505095945050505050565b600061179882612e24565b9050919050565b60006004600083815260200190815260200160002090508060000160009054906101000a900473ffffffffffffffffffffffffffffffffffffffff1673ffffffffffffffffffffffffffffffffffffffff166117f9612b1d565b73ffffffffffffffffffffffffffffffffffffffff16148061185a575061181e611efe565b6118588260000160009054906101000a900473ffffffffffffffffffffffffffffffffffffffff166001436118539190616ff9565b612563565b105b611899576040517f08c379a000000000000000000000000000000000000000000000000000000000815260040161189090616997565b60405180910390fd5b611b328160010180548060200260200160405190810160405280929190818152602001828054801561192057602002820191906000526020600020905b8160009054906101000a900473ffffffffffffffffffffffffffffffffffffffff1673ffffffffffffffffffffffffffffffffffffffff16815260200190600101908083116118d6575b50505050508260020180548060200260200160405190810160405280929190818152602001828054801561197357602002820191906000526020600020905b81548152602001906001019080831161195f575b5050505050611b2884600301805480602002602001604051908101604052809291908181526020016000905b82821015611a4b5783829060005260206000200180546119be906171c9565b80601f01602080910402602001604051908101604052809291908181526020018280546119ea906171c9565b8015611a375780601f10611a0c57610100808354040283529160200191611a37565b820191906000526020600020905b815481529060010190602001808311611a1a57829003601f168201915b50505050508152602001906001019061199f565b5050505085600401805480602002602001604051908101604052809291908181526020016000905b82821015611b1f578382906000526020600020018054611a92906171c9565b80601f0160208091040260200160405190810160405280929190818152602001828054611abe906171c9565b8015611b0b5780601f10611ae057610100808354040283529160200191611b0b565b820191906000526020600020905b815481529060010190602001808311611aee57829003601f168201915b505050505081526020019060010190611a73565b50505050613016565b8460090154613152565b505050565b60006004600084815260200190815260200160002060080160008373ffffffffffffffffffffffffffffffffffffffff1673ffffffffffffffffffffffffffffffffffffffff16815260200190815260200160002060000160009054906101000a900460ff16905092915050565b60606040518060400160405280600181526020017f3100000000000000000000000000000000000000000000000000000000000000815250905090565b600080611bed612b1d565b9050611c0a84828560405180602001604052806000815250612e04565b91505092915050565b600080611c1e612b1d565b9050611c7187828888888080601f016020809104026020016040519081016040528093929190818152602001838380828437600081840152601f19601f8201169050808301925050505050505087612960565b91505095945050505050565b600080611c88612b1d565b9050611cda86828787878080601f016020809104026020016040519081016040528093929190818152602001838380828437600081840152601f19601f82011690508083019250505050505050612e04565b915050949350505050565b6000611cf38585858561316a565b9050949350505050565b60006064905090565b6000611d138484846131e5565b90509392505050565b6000600554905090565b611d2e610bc2565b73ffffffffffffffffffffffffffffffffffffffff16611d4c612b1d565b73ffffffffffffffffffffffffffffffffffffffff1614611da2576040517f08c379a0000000000000000000000000000000000000000000000000000000008152600401611d9990616777565b60405180910390fd5b3073ffffffffffffffffffffffffffffffffffffffff16611dc1610bc2565b73ffffffffffffffffffffffffffffffffffffffff1614611e16576000611de6612b25565b604051611df492919061631f565b604051809103902090505b80611e0a6002612b32565b14611e1457611dff565b505b611e1f8161329b565b50565b600080600660009054906101000a900473ffffffffffffffffffffffffffffffffffffffff1673ffffffffffffffffffffffffffffffffffffffff1663d45c443560076000868152602001908152602001600020546040518263ffffffff1660e01b8152600401611e9391906165a7565b60206040518083038186803b158015611eab57600080fd5b505afa158015611ebf573d6000803e3d6000fd5b505050506040513d601f19601f82011682018060405250810190611ee3919061584e565b905060018114611ef35780611ef6565b60005b915050919050565b600090565b600063bc197c8160e01b905095945050505050565b6000611f75600160008481526020019081526020016000206001016040518060200160405290816000820160009054906101000a900467ffffffffffffffff1667ffffffffffffffff1667ffffffffffffffff1681525050612df6565b67ffffffffffffffff169050919050565b611f8e610bc2565b73ffffffffffffffffffffffffffffffffffffffff16611fac612b1d565b73ffffffffffffffffffffffffffffffffffffffff1614612002576040517f08c379a0000000000000000000000000000000000000000000000000000000008152600401611ff990616777565b60405180910390fd5b3073ffffffffffffffffffffffffffffffffffffffff16612021610bc2565b73ffffffffffffffffffffffffffffffffffffffff1614612076576000612046612b25565b60405161205492919061631f565b604051809103902090505b8061206a6002612b32565b146120745761205f565b505b6120c58483838080601f016020809104026020016040519081016040528093929190818152602001838380828437600081840152601f19601f820116905080830192505050505050508561333a565b5050505050565b6000848484846040516020016120e594939291906163f3565b6040516020818303038152906040528051906020012060001c9050949350505050565b6000600660009054906101000a900473ffffffffffffffffffffffffffffffffffffffff16905090565b600061214961213f612b1d565b8787878787613369565b61215e86866121588787613016565b85611ce5565b905095945050505050565b60606040518060400160405280601a81526020017f737570706f72743d627261766f2671756f72756d3d627261766f000000000000815250905090565b60006004600083815260200190815260200160002090506124568160010180548060200260200160405190810160405280929190818152602001828054801561224457602002820191906000526020600020905b8160009054906101000a900473ffffffffffffffffffffffffffffffffffffffff1673ffffffffffffffffffffffffffffffffffffffff16815260200190600101908083116121fa575b50505050508260020180548060200260200160405190810160405280929190818152602001828054801561229757602002820191906000526020600020905b815481526020019060010190808311612283575b505050505061244c84600301805480602002602001604051908101604052809291908181526020016000905b8282101561236f5783829060005260206000200180546122e2906171c9565b80601f016020809104026020016040519081016040528092919081815260200182805461230e906171c9565b801561235b5780601f106123305761010080835404028352916020019161235b565b820191906000526020600020905b81548152906001019060200180831161233e57829003601f168201915b5050505050815260200190600101906122c3565b5050505085600401805480602002602001604051908101604052809291908181526020016000905b828210156124435783829060005260206000200180546123b6906171c9565b80601f01602080910402602001604051908101604052809291908181526020018280546123e2906171c9565b801561242f5780601f106124045761010080835404028352916020019161242f565b820191906000526020600020905b81548152906001019060200180831161241257829003601f168201915b505050505081526020019060010190612397565b50505050613016565b8460090154610f69565b505050565b7f150214d74d59b7d1e90c73fc22ef3d991dd0a76b046543d4d80ab92d2a50328f81565b61248761490f565b6004600084815260200190815260200160002060080160008373ffffffffffffffffffffffffffffffffffffffff1673ffffffffffffffffffffffffffffffffffffffff1681526020019081526020016000206040518060600160405290816000820160009054906101000a900460ff161515151581526020016000820160019054906101000a900460ff1660ff1660ff1681526020016000820160029054906101000a90046bffffffffffffffffffffffff166bffffffffffffffffffffffff166bffffffffffffffffffffffff1681525050905092915050565b600061256f8383613470565b905092915050565b600063f23a6e6160e01b905095945050505050565b60006125978261348c565b9050919050565b7f000000000000000000000000000000000000000000000000000000000000000081565b60006004600083815260200190815260200160002090506128728160010180548060200260200160405190810160405280929190818152602001828054801561266057602002820191906000526020600020905b8160009054906101000a900473ffffffffffffffffffffffffffffffffffffffff1673ffffffffffffffffffffffffffffffffffffffff1681526020019060010190808311612616575b5050505050826002018054806020026020016040519081016040528092919081815260200182805480156126b357602002820191906000526020600020905b81548152602001906001019080831161269f575b505050505061286884600301805480602002602001604051908101604052809291908181526020016000905b8282101561278b5783829060005260206000200180546126fe906171c9565b80601f016020809104026020016040519081016040528092919081815260200182805461272a906171c9565b80156127775780601f1061274c57610100808354040283529160200191612777565b820191906000526020600020905b81548152906001019060200180831161275a57829003601f168201915b5050505050815260200190600101906126df565b5050505085600401805480602002602001604051908101604052809291908181526020016000905b8282101561285f5783829060005260206000200180546127d2906171c9565b80601f01602080910402602001604051908101604052809291908181526020018280546127fe906171c9565b801561284b5780601f106128205761010080835404028352916020019161284b565b820191906000526020600020905b81548152906001019060200180831161282e57829003601f168201915b5050505050815260200190600101906127b3565b50505050613016565b846009015461125d565b505050565b6000600660009054906101000a900473ffffffffffffffffffffffffffffffffffffffff16905090565b60007f6e665ced000000000000000000000000000000000000000000000000000000007bffffffffffffffffffffffffffffffffffffffffffffffffffffffff1916827bffffffffffffffffffffffffffffffffffffffffffffffffffffffff19161480612914575061291382613562565b5b9050919050565b600061292e6129286136c7565b836137e1565b9050919050565b600080600061294687878787613814565b9150915061295381613921565b8192505050949350505050565b6000806001600088815260200190815260200160002090506001600781111561298c5761298b6172e7565b5b6129958861178d565b60078111156129a7576129a66172e7565b5b146129e7576040517f08c379a00000000000000000000000000000000000000000000000000000000081526004016129de90616857565b60405180910390fd5b6000612a4687612a36846000016040518060200160405290816000820160009054906101000a900467ffffffffffffffff1667ffffffffffffffff1667ffffffffffffffff1681525050612df6565b67ffffffffffffffff16866131e5565b9050612a558888888488613af6565b600084511415612ab8578673ffffffffffffffffffffffffffffffffffffffff167fb8e138887d0aa13bab447e82de9d5c1777041ecd21ca36ba824ff1e6c07ddda489888489604051612aab9493929190616ba2565b60405180910390a2612b0f565b8673ffffffffffffffffffffffffffffffffffffffff167fe2babfbac5889a709b63bb7f598b324e08bc5a4fb9ec647fb3cbc9ec07eb87128988848989604051612b06959493929190616bee565b60405180910390a25b809250505095945050505050565b600033905090565b3660008036915091509091565b6000612b3d82613d21565b15612b74576040517f3db2a12a00000000000000000000000000000000000000000000000000000000815260040160405180910390fd5b60008260000160009054906101000a9004600f0b905082600101600082600f0b600f0b815260200190815260200160002054915082600101600082600f0b600f0b815260200190815260200160002060009055600181018360000160006101000a8154816fffffffffffffffffffffffffffffffff0219169083600f0b6fffffffffffffffffffffffffffffffff16021790555050919050565b612c16611cfd565b811115612c58576040517f08c379a0000000000000000000000000000000000000000000000000000000008152600401612c4f90616797565b60405180910390fd5b60006005549050816005819055507f0553476bf02ef2726e8ce5ced78d63e26e602e4a2257b1f559418e24b46339978183604051612c97929190616b79565b60405180910390a15050565b3073ffffffffffffffffffffffffffffffffffffffff16612cc2610bc2565b73ffffffffffffffffffffffffffffffffffffffff1614612d805760005b8451811015612d7e573073ffffffffffffffffffffffffffffffffffffffff16858281518110612d1357612d12617345565b5b602002602001015173ffffffffffffffffffffffffffffffffffffffff161415612d6d57612d6c838281518110612d4d57612d4c617345565b5b6020026020010151805190602001206002613d5690919063ffffffff16565b5b80612d779061722c565b9050612ce0565b505b5050505050565b612d948585858585613dd2565b5050505050565b3073ffffffffffffffffffffffffffffffffffffffff16612dba610bc2565b73ffffffffffffffffffffffffffffffffffffffff1614612def57612ddf6002613d21565b612dee57612ded6002613e70565b5b5b5050505050565b600081600001519050919050565b6000612e1a85858585612e15613ef1565b612960565b9050949350505050565b600080612e3083613f08565b905060046007811115612e4657612e456172e7565b5b816007811115612e5957612e586172e7565b5b14612e675780915050613011565b6000600760008581526020019081526020016000205490506000801b811415612e94578192505050613011565b600660009054906101000a900473ffffffffffffffffffffffffffffffffffffffff1673ffffffffffffffffffffffffffffffffffffffff16632ab0f529826040518263ffffffff1660e01b8152600401612eef91906165a7565b60206040518083038186803b158015612f0757600080fd5b505afa158015612f1b573d6000803e3d6000fd5b505050506040513d601f19601f82011682018060405250810190612f3f919061576d565b15612f4f57600792505050613011565b600660009054906101000a900473ffffffffffffffffffffffffffffffffffffffff1673ffffffffffffffffffffffffffffffffffffffff1663584b153e826040518263ffffffff1660e01b8152600401612faa91906165a7565b60206040518083038186803b158015612fc257600080fd5b505afa158015612fd6573d6000803e3d6000fd5b505050506040513d601f19601f82011682018060405250810190612ffa919061576d565b1561300a57600592505050613011565b6002925050505b919050565b60606000825167ffffffffffffffff81111561303557613034617374565b5b60405190808252806020026020018201604052801561306857816020015b60608152602001906001900390816130535790505b50905060005b845181101561314757600085828151811061308c5761308b617345565b5b602002602001015151146130fc578481815181106130ad576130ac617345565b5b6020026020010151805190602001208482815181106130cf576130ce617345565b5b60200260200101516040516020016130e89291906162f7565b604051602081830303815290604052613118565b83818151811061310f5761310e617345565b5b60200260200101515b82828151811061312b5761312a617345565b5b6020026020010181905250806131409061722c565b905061306e565b508091505092915050565b60006131608585858561401d565b9050949350505050565b60006131cf613177612b1d565b8686865167ffffffffffffffff81111561319457613193617374565b5b6040519080825280602002602001820160405280156131c757816020015b60608152602001906001900390816131b25790505b508787613369565b6131db8585858561410f565b9050949350505050565b60007f000000000000000000000000000000000000000000000000000000000000000073ffffffffffffffffffffffffffffffffffffffff16633a46b1a885856040518363ffffffff1660e01b81526004016132429291906163ca565b60206040518083038186803b15801561325a57600080fd5b505afa15801561326e573d6000803e3d6000fd5b505050506040513d601f19601f82011682018060405250810190613292919061584e565b90509392505050565b7f08f74ea46ef7894f65eabfb5e6e695de773a000b47c529ab559178069b226401600660009054906101000a900473ffffffffffffffffffffffffffffffffffffffff16826040516132ee9291906163a1565b60405180910390a180600660006101000a81548173ffffffffffffffffffffffffffffffffffffffff021916908373ffffffffffffffffffffffffffffffffffffffff16021790555050565b6060613360848484604051806060016040528060298152602001617a5560299139614416565b90509392505050565b600081805190602001209050600061338c87876133868888613016565b856120cc565b905060006004600083815260200190815260200160002090506000801b8160090154141561346557888160000160006101000a81548173ffffffffffffffffffffffffffffffffffffffff021916908373ffffffffffffffffffffffffffffffffffffffff1602179055508781600101908051906020019061340f929190614943565b50868160020190805190602001906134289291906149cd565b5085816003019080519060200190613441929190614a1a565b508481600401908051906020019061345a929190614a7a565b508281600901819055505b505050505050505050565b6000613484838361347f613ef1565b6131e5565b905092915050565b6000613496611cfd565b61349e611d1c565b7f000000000000000000000000000000000000000000000000000000000000000073ffffffffffffffffffffffffffffffffffffffff16638e539e8c856040518263ffffffff1660e01b81526004016134f79190616a12565b60206040518083038186803b15801561350f57600080fd5b505afa158015613523573d6000803e3d6000fd5b505050506040513d601f19601f82011682018060405250810190613547919061584e565b6135519190616f9f565b61355b9190616f6e565b9050919050565b6000639a802a6d60e01b630342018160e01b635f398a1460e01b7f79dd796f000000000000000000000000000000000000000000000000000000001818187bffffffffffffffffffffffffffffffffffffffffffffffffffffffff1916827bffffffffffffffffffffffffffffffffffffffffffffffffffffffff1916148061364857507f79dd796f000000000000000000000000000000000000000000000000000000007bffffffffffffffffffffffffffffffffffffffffffffffffffffffff1916827bffffffffffffffffffffffffffffffffffffffffffffffffffffffff1916145b806136b057507f4e2312e0000000000000000000000000000000000000000000000000000000007bffffffffffffffffffffffffffffffffffffffffffffffffffffffff1916827bffffffffffffffffffffffffffffffffffffffffffffffffffffffff1916145b806136c057506136bf8261452a565b5b9050919050565b60007f000000000000000000000000000000000000000000000000000000000000000073ffffffffffffffffffffffffffffffffffffffff163073ffffffffffffffffffffffffffffffffffffffff1614801561374357507f000000000000000000000000000000000000000000000000000000000000000046145b15613770577f000000000000000000000000000000000000000000000000000000000000000090506137de565b6137db7f00000000000000000000000000000000000000000000000000000000000000007f00000000000000000000000000000000000000000000000000000000000000007f0000000000000000000000000000000000000000000000000000000000000000614594565b90505b90565b600082826040516020016137f692919061634f565b60405160208183030381529060405280519060200120905092915050565b6000807f7fffffffffffffffffffffffffffffff5d576e7357a4501ddfe92f46681b20a08360001c111561384f576000600391509150613918565b601b8560ff16141580156138675750601c8560ff1614155b15613879576000600491509150613918565b60006001878787876040516000815260200160405260405161389e949392919061669f565b6020604051602081039080840390855afa1580156138c0573d6000803e3d6000fd5b505050602060405103519050600073ffffffffffffffffffffffffffffffffffffffff168173ffffffffffffffffffffffffffffffffffffffff16141561390f57600060019250925050613918565b80600092509250505b94509492505050565b60006004811115613935576139346172e7565b5b816004811115613948576139476172e7565b5b141561395357613af3565b60016004811115613967576139666172e7565b5b81600481111561397a576139796172e7565b5b14156139bb576040517f08c379a00000000000000000000000000000000000000000000000000000000081526004016139b290616757565b60405180910390fd5b600260048111156139cf576139ce6172e7565b5b8160048111156139e2576139e16172e7565b5b1415613a23576040517f08c379a0000000000000000000000000000000000000000000000000000000008152600401613a1a906167d7565b60405180910390fd5b60036004811115613a3757613a366172e7565b5b816004811115613a4a57613a496172e7565b5b1415613a8b576040517f08c379a0000000000000000000000000000000000000000000000000000000008152600401613a8290616817565b60405180910390fd5b600480811115613a9e57613a9d6172e7565b5b816004811115613ab157613ab06172e7565b5b1415613af2576040517f08c379a0000000000000000000000000000000000000000000000000000000008152600401613ae990616897565b60405180910390fd5b5b50565b600060046000878152602001908152602001600020905060008160080160008773ffffffffffffffffffffffffffffffffffffffff1673ffffffffffffffffffffffffffffffffffffffff16815260200190815260200160002090508060000160009054906101000a900460ff1615613ba4576040517f08c379a0000000000000000000000000000000000000000000000000000000008152600401613b9b906169b7565b60405180910390fd5b60018160000160006101000a81548160ff021916908315150217905550848160000160016101000a81548160ff021916908360ff160217905550613be7846145ce565b8160000160026101000a8154816bffffffffffffffffffffffff02191690836bffffffffffffffffffffffff16021790555060006002811115613c2d57613c2c6172e7565b5b60ff168560ff161415613c5a5783826006016000828254613c4e9190616eda565b92505081905550613d18565b60016002811115613c6e57613c6d6172e7565b5b60ff168560ff161415613c9b5783826005016000828254613c8f9190616eda565b92505081905550613d17565b600280811115613cae57613cad6172e7565b5b60ff168560ff161415613cdb5783826007016000828254613ccf9190616eda565b92505081905550613d16565b6040517f08c379a0000000000000000000000000000000000000000000000000000000008152600401613d0d90616917565b60405180910390fd5b5b5b50505050505050565b60008160000160009054906101000a9004600f0b600f0b8260000160109054906101000a9004600f0b600f0b13159050919050565b60008260000160109054906101000a9004600f0b90508183600101600083600f0b600f0b815260200190815260200160002081905550600181018360000160106101000a8154816fffffffffffffffffffffffffffffffff0219169083600f0b6fffffffffffffffffffffffffffffffff160217905550505050565b600660009054906101000a900473ffffffffffffffffffffffffffffffffffffffff1673ffffffffffffffffffffffffffffffffffffffff1663e38335e5348686866000876040518763ffffffff1660e01b8152600401613e3795949392919061644d565b6000604051808303818588803b158015613e5057600080fd5b505af1158015613e64573d6000803e3d6000fd5b50505050505050505050565b60008160000160006101000a8154816fffffffffffffffffffffffffffffffff0219169083600f0b6fffffffffffffffffffffffffffffffff16021790555060008160000160106101000a8154816fffffffffffffffffffffffffffffffff0219169083600f0b6fffffffffffffffffffffffffffffffff16021790555050565b606060405180602001604052806000815250905090565b6000806001600084815260200190815260200160002090508060020160009054906101000a900460ff1615613f41576007915050614018565b8060020160019054906101000a900460ff1615613f62576002915050614018565b6000613f6d846113aa565b90506000811415613fb3576040517f08c379a0000000000000000000000000000000000000000000000000000000008152600401613faa90616937565b60405180910390fd5b438110613fc557600092505050614018565b6000613fd085611f18565b9050438110613fe55760019350505050614018565b613fee85614629565b8015613fff5750613ffe85614661565b5b156140105760049350505050614018565b600393505050505b919050565b60008061402c8686868661468c565b90506000801b60076000838152602001908152602001600020541461410357600660009054906101000a900473ffffffffffffffffffffffffffffffffffffffff1673ffffffffffffffffffffffffffffffffffffffff1663c4d252f560076000848152602001908152602001600020546040518263ffffffff1660e01b81526004016140b991906165a7565b600060405180830381600087803b1580156140d357600080fd5b505af11580156140e7573d6000803e3d6000fd5b5050505060076000828152602001908152602001600020600090555b80915050949350505050565b6000614119611efe565b614136614124612b1d565b6001436141319190616ff9565b612563565b1015614177576040517f08c379a000000000000000000000000000000000000000000000000000000000815260040161416e906169d7565b60405180910390fd5b600061418c86868686805190602001206120cc565b905084518651146141d2576040517f08c379a00000000000000000000000000000000000000000000000000000000081526004016141c9906167f7565b60405180910390fd5b8351865114614216576040517f08c379a000000000000000000000000000000000000000000000000000000000815260040161420d906167f7565b60405180910390fd5b600086511161425a576040517f08c379a000000000000000000000000000000000000000000000000000000000815260040161425190616877565b60405180910390fd5b60006001600083815260200190815260200160002090506142ba816000016040518060200160405290816000820160009054906101000a900467ffffffffffffffff1667ffffffffffffffff1667ffffffffffffffff16815250506147e5565b6142f9576040517f08c379a00000000000000000000000000000000000000000000000000000000081526004016142f090616957565b60405180910390fd5b600061430b6143066116f9565b6147ff565b614314436147ff565b61431e9190616f30565b9050600061433261432d610cd8565b6147ff565b8261433d9190616f30565b9050614355828460000161485690919063ffffffff16565b61436b818460010161485690919063ffffffff16565b7f7d84a6263ae0d98d3329bd7b46bb4e8d6f98cd35a7adb45c274c8b7fd5ebd5e084614395612b1d565b8b8b8d5167ffffffffffffffff8111156143b2576143b1617374565b5b6040519080825280602002602001820160405280156143e557816020015b60608152602001906001900390816143d05790505b508c88888e6040516143ff99989796959493929190616a2d565b60405180910390a183945050505050949350505050565b60608247101561445b576040517f08c379a000000000000000000000000000000000000000000000000000000000815260040161445290616837565b60405180910390fd5b61446485614885565b6144a3576040517f08c379a000000000000000000000000000000000000000000000000000000000815260040161449a90616977565b60405180910390fd5b6000808673ffffffffffffffffffffffffffffffffffffffff1685876040516144cc9190616338565b60006040518083038185875af1925050503d8060008114614509576040519150601f19603f3d011682016040523d82523d6000602084013e61450e565b606091505b509150915061451e8282866148a8565b92505050949350505050565b60007f01ffc9a7000000000000000000000000000000000000000000000000000000007bffffffffffffffffffffffffffffffffffffffffffffffffffffffff1916827bffffffffffffffffffffffffffffffffffffffffffffffffffffffff1916149050919050565b600083838346306040516020016145af9594939291906165c2565b6040516020818303038152906040528051906020012090509392505050565b60006bffffffffffffffffffffffff8016821115614621576040517f08c379a0000000000000000000000000000000000000000000000000000000008152600401614618906167b7565b60405180910390fd5b819050919050565b6000806004600084815260200190815260200160002090508060050154614657614652856113aa565b61258c565b1115915050919050565b6000806004600084815260200190815260200160002090508060060154816005015411915050919050565b60008061469b868686866120cc565b905060006146a88261178d565b9050600260078111156146be576146bd6172e7565b5b8160078111156146d1576146d06172e7565b5b141580156147045750600660078111156146ee576146ed6172e7565b5b816007811115614701576147006172e7565b5b14155b8015614734575060078081111561471e5761471d6172e7565b5b816007811115614731576147306172e7565b5b14155b614773576040517f08c379a000000000000000000000000000000000000000000000000000000000815260040161476a906168d7565b60405180910390fd5b600180600084815260200190815260200160002060020160016101000a81548160ff0219169083151502179055507f789cf55be980739dad1d0699b93b58e806b51c9d96619bfa8fe0a28abaa7b30c826040516147d09190616a12565b60405180910390a18192505050949350505050565b600080826000015167ffffffffffffffff16149050919050565b600067ffffffffffffffff801682111561484e576040517f08c379a0000000000000000000000000000000000000000000000000000000008152600401614845906168b7565b60405180910390fd5b819050919050565b808260000160006101000a81548167ffffffffffffffff021916908367ffffffffffffffff1602179055505050565b6000808273ffffffffffffffffffffffffffffffffffffffff163b119050919050565b606083156148b857829050614908565b6000835111156148cb5782518084602001fd5b816040517f08c379a00000000000000000000000000000000000000000000000000000000081526004016148ff9190616735565b60405180910390fd5b9392505050565b6040518060600160405280600015158152602001600060ff16815260200160006bffffffffffffffffffffffff1681525090565b8280548282559060005260206000209081019282156149bc579160200282015b828111156149bb5782518260006101000a81548173ffffffffffffffffffffffffffffffffffffffff021916908373ffffffffffffffffffffffffffffffffffffffff16021790555091602001919060010190614963565b5b5090506149c99190614ada565b5090565b828054828255906000526020600020908101928215614a09579160200282015b82811115614a085782518255916020019190600101906149ed565b5b509050614a169190614ada565b5090565b828054828255906000526020600020908101928215614a69579160200282015b82811115614a68578251829080519060200190614a58929190614af7565b5091602001919060010190614a3a565b5b509050614a769190614b7d565b5090565b828054828255906000526020600020908101928215614ac9579160200282015b82811115614ac8578251829080519060200190614ab8929190614ba1565b5091602001919060010190614a9a565b5b509050614ad69190614c27565b5090565b5b80821115614af3576000816000905550600101614adb565b5090565b828054614b03906171c9565b90600052602060002090601f016020900481019282614b255760008555614b6c565b82601f10614b3e57805160ff1916838001178555614b6c565b82800160010185558215614b6c579182015b82811115614b6b578251825591602001919060010190614b50565b5b509050614b799190614ada565b5090565b5b80821115614b9d5760008181614b949190614c4b565b50600101614b7e565b5090565b828054614bad906171c9565b90600052602060002090601f016020900481019282614bcf5760008555614c16565b82601f10614be857805160ff1916838001178555614c16565b82800160010185558215614c16579182015b82811115614c15578251825591602001919060010190614bfa565b5b509050614c239190614ada565b5090565b5b80821115614c475760008181614c3e9190614c8b565b50600101614c28565b5090565b508054614c57906171c9565b6000825580601f10614c695750614c88565b601f016020900490600052602060002090810190614c879190614ada565b5b50565b508054614c97906171c9565b6000825580601f10614ca95750614cc8565b601f016020900490600052602060002090810190614cc79190614ada565b5b50565b6000614cde614cd984616c74565b616c4f565b90508083825260208201905082856020860282011115614d0157614d006173ad565b5b60005b85811015614d315781614d178882614f4b565b845260208401935060208301925050600181019050614d04565b5050509392505050565b6000614d4e614d4984616ca0565b616c4f565b90508083825260208201905082856020860282011115614d7157614d706173ad565b5b60005b85811015614dbf57813567ffffffffffffffff811115614d9757614d966173a8565b5b808601614da489826150c2565b85526020850194506020840193505050600181019050614d74565b5050509392505050565b6000614ddc614dd784616ccc565b616c4f565b90508083825260208201905082856020860282011115614dff57614dfe6173ad565b5b60005b85811015614e4d57813567ffffffffffffffff811115614e2557614e246173a8565b5b808601614e32898261515b565b85526020850194506020840193505050600181019050614e02565b5050509392505050565b6000614e6a614e6584616cf8565b616c4f565b90508083825260208201905082856020860282011115614e8d57614e8c6173ad565b5b60005b85811015614ebd5781614ea38882615189565b845260208401935060208301925050600181019050614e90565b5050509392505050565b6000614eda614ed584616d24565b616c4f565b905082815260208101848484011115614ef657614ef56173b2565b5b614f01848285617187565b509392505050565b6000614f1c614f1784616d55565b616c4f565b905082815260208101848484011115614f3857614f376173b2565b5b614f43848285617187565b509392505050565b600081359050614f5a816179b3565b92915050565b600082601f830112614f7557614f746173a8565b5b8135614f85848260208601614ccb565b91505092915050565b600082601f830112614fa357614fa26173a8565b5b8135614fb3848260208601614d3b565b91505092915050565b600082601f830112614fd157614fd06173a8565b5b8135614fe1848260208601614dc9565b91505092915050565b600082601f830112614fff57614ffe6173a8565b5b813561500f848260208601614e57565b91505092915050565b600081519050615027816179ca565b92915050565b60008135905061503c816179e1565b92915050565b600081519050615051816179e1565b92915050565b600081359050615066816179f8565b92915050565b60008083601f840112615082576150816173a8565b5b8235905067ffffffffffffffff81111561509f5761509e6173a3565b5b6020830191508360018202830111156150bb576150ba6173ad565b5b9250929050565b600082601f8301126150d7576150d66173a8565b5b81356150e7848260208601614ec7565b91505092915050565b6000813590506150ff81617a0f565b92915050565b60008083601f84011261511b5761511a6173a8565b5b8235905067ffffffffffffffff811115615138576151376173a3565b5b602083019150836001820283011115615154576151536173ad565b5b9250929050565b600082601f8301126151705761516f6173a8565b5b8135615180848260208601614f09565b91505092915050565b60008135905061519881617a26565b92915050565b6000815190506151ad81617a26565b92915050565b6000813590506151c281617a3d565b92915050565b600080600080600060a086880312156151e4576151e36173bc565b5b60006151f288828901614f4b565b955050602061520388828901614f4b565b945050604086013567ffffffffffffffff811115615224576152236173b7565b5b61523088828901614fea565b935050606086013567ffffffffffffffff811115615251576152506173b7565b5b61525d88828901614fea565b925050608086013567ffffffffffffffff81111561527e5761527d6173b7565b5b61528a888289016150c2565b9150509295509295909350565b600080600080608085870312156152b1576152b06173bc565b5b60006152bf87828801614f4b565b94505060206152d087828801614f4b565b93505060406152e187828801615189565b925050606085013567ffffffffffffffff811115615302576153016173b7565b5b61530e878288016150c2565b91505092959194509250565b600080600080600060a08688031215615336576153356173bc565b5b600061534488828901614f4b565b955050602061535588828901614f4b565b945050604061536688828901615189565b935050606061537788828901615189565b925050608086013567ffffffffffffffff811115615398576153976173b7565b5b6153a4888289016150c2565b9150509295509295909350565b600080604083850312156153c8576153c76173bc565b5b60006153d685828601614f4b565b92505060206153e785828601615189565b9150509250929050565b6000806000806060858703121561540b5761540a6173bc565b5b600061541987828801614f4b565b945050602061542a87828801615189565b935050604085013567ffffffffffffffff81111561544b5761544a6173b7565b5b6154578782880161506c565b925092505092959194509250565b60008060006060848603121561547e5761547d6173bc565b5b600061548c86828701614f4b565b935050602061549d86828701615189565b925050604084013567ffffffffffffffff8111156154be576154bd6173b7565b5b6154ca868287016150c2565b9150509250925092565b600080600080608085870312156154ee576154ed6173bc565b5b600085013567ffffffffffffffff81111561550c5761550b6173b7565b5b61551887828801614f60565b945050602085013567ffffffffffffffff811115615539576155386173b7565b5b61554587828801614fea565b935050604085013567ffffffffffffffff811115615566576155656173b7565b5b61557287828801614f8e565b92505060606155838782880161502d565b91505092959194509250565b600080600080608085870312156155a9576155a86173bc565b5b600085013567ffffffffffffffff8111156155c7576155c66173b7565b5b6155d387828801614f60565b945050602085013567ffffffffffffffff8111156155f4576155f36173b7565b5b61560087828801614fea565b935050604085013567ffffffffffffffff811115615621576156206173b7565b5b61562d87828801614f8e565b925050606085013567ffffffffffffffff81111561564e5761564d6173b7565b5b61565a8782880161515b565b91505092959194509250565b600080600080600060a08688031215615682576156816173bc565b5b600086013567ffffffffffffffff8111156156a05761569f6173b7565b5b6156ac88828901614f60565b955050602086013567ffffffffffffffff8111156156cd576156cc6173b7565b5b6156d988828901614fea565b945050604086013567ffffffffffffffff8111156156fa576156f96173b7565b5b61570688828901614fbc565b935050606086013567ffffffffffffffff811115615727576157266173b7565b5b61573388828901614f8e565b925050608086013567ffffffffffffffff811115615754576157536173b7565b5b6157608882890161515b565b9150509295509295909350565b600060208284031215615783576157826173bc565b5b600061579184828501615018565b91505092915050565b6000602082840312156157b0576157af6173bc565b5b60006157be84828501615042565b91505092915050565b6000602082840312156157dd576157dc6173bc565b5b60006157eb84828501615057565b91505092915050565b60006020828403121561580a576158096173bc565b5b6000615818848285016150f0565b91505092915050565b600060208284031215615837576158366173bc565b5b600061584584828501615189565b91505092915050565b600060208284031215615864576158636173bc565b5b60006158728482850161519e565b91505092915050565b60008060408385031215615892576158916173bc565b5b60006158a085828601615189565b92505060206158b185828601614f4b565b9150509250929050565b600080604083850312156158d2576158d16173bc565b5b60006158e085828601615189565b92505060206158f1858286016151b3565b9150509250929050565b60008060008060608587031215615915576159146173bc565b5b600061592387828801615189565b9450506020615934878288016151b3565b935050604085013567ffffffffffffffff811115615955576159546173b7565b5b61596187828801615105565b925092505092959194509250565b60008060008060006080868803121561598b5761598a6173bc565b5b600061599988828901615189565b95505060206159aa888289016151b3565b945050604086013567ffffffffffffffff8111156159cb576159ca6173b7565b5b6159d788828901615105565b9350935050606086013567ffffffffffffffff8111156159fa576159f96173b7565b5b615a06888289016150c2565b9150509295509295909350565b60008060008060008060008060e0898b031215615a3357615a326173bc565b5b6000615a418b828c01615189565b9850506020615a528b828c016151b3565b975050604089013567ffffffffffffffff811115615a7357615a726173b7565b5b615a7f8b828c01615105565b9650965050606089013567ffffffffffffffff811115615aa257615aa16173b7565b5b615aae8b828c016150c2565b9450506080615abf8b828c016151b3565b93505060a0615ad08b828c0161502d565b92505060c0615ae18b828c0161502d565b9150509295985092959890939650565b600080600080600060a08688031215615b0d57615b0c6173bc565b5b6000615b1b88828901615189565b9550506020615b2c888289016151b3565b9450506040615b3d888289016151b3565b9350506060615b4e8882890161502d565b9250506080615b5f8882890161502d565b9150509295509295909350565b6000615b788383615bc4565b60208301905092915050565b6000615b908383615e17565b905092915050565b6000615ba48383615ee7565b905092915050565b6000615bb8838361629d565b60208301905092915050565b615bcd8161702d565b82525050565b615bdc8161702d565b82525050565b6000615bed82616dc6565b615bf78185616e3c565b9350615c0283616d86565b8060005b83811015615c33578151615c1a8882615b6c565b9750615c2583616e08565b925050600181019050615c06565b5085935050505092915050565b6000615c4b82616dd1565b615c558185616e4d565b935083602082028501615c6785616d96565b8060005b85811015615ca35784840389528151615c848582615b84565b9450615c8f83616e15565b925060208a01995050600181019050615c6b565b50829750879550505050505092915050565b6000615cc082616ddc565b615cca8185616e5e565b935083602082028501615cdc85616da6565b8060005b85811015615d185784840389528151615cf98582615b98565b9450615d0483616e22565b925060208a01995050600181019050615ce0565b50829750879550505050505092915050565b6000615d3582616de7565b615d3f8185616e6f565b9350615d4a83616db6565b8060005b83811015615d7b578151615d628882615bac565b9750615d6d83616e2f565b925050600181019050615d4e565b5085935050505092915050565b615d9181617051565b82525050565b615da081617051565b82525050565b615daf8161705d565b82525050565b615dc6615dc18261705d565b617275565b82525050565b615dd581617067565b82525050565b615dec615de782617067565b61727f565b82525050565b6000615dfe8385616ea2565b9350615e0b838584617187565b82840190509392505050565b6000615e2282616df2565b615e2c8185616e80565b9350615e3c818560208601617196565b615e45816173c1565b840191505092915050565b6000615e5b82616df2565b615e658185616e91565b9350615e75818560208601617196565b615e7e816173c1565b840191505092915050565b6000615e9482616df2565b615e9e8185616ea2565b9350615eae818560208601617196565b80840191505092915050565b615ec381617125565b82525050565b615ed281617149565b82525050565b615ee18161715b565b82525050565b6000615ef282616dfd565b615efc8185616ead565b9350615f0c818560208601617196565b615f15816173c1565b840191505092915050565b6000615f2b82616dfd565b615f358185616ebe565b9350615f45818560208601617196565b615f4e816173c1565b840191505092915050565b6000615f66601883616ebe565b9150615f71826173df565b602082019050919050565b6000615f89601883616ebe565b9150615f9482617408565b602082019050919050565b6000615fac604383616ebe565b9150615fb782617431565b606082019050919050565b6000615fcf602683616ebe565b9150615fda826174a6565b604082019050919050565b6000615ff2601f83616ebe565b9150615ffd826174f5565b602082019050919050565b6000616015600283616ecf565b91506160208261751e565b600282019050919050565b6000616038602183616ebe565b915061604382617547565b604082019050919050565b600061605b602283616ebe565b915061606682617596565b604082019050919050565b600061607e602683616ebe565b9150616089826175e5565b604082019050919050565b60006160a1602383616ebe565b91506160ac82617634565b604082019050919050565b60006160c4601883616ebe565b91506160cf82617683565b602082019050919050565b60006160e7602283616ebe565b91506160f2826176ac565b604082019050919050565b600061610a602683616ebe565b9150616115826176fb565b604082019050919050565b600061612d601d83616ebe565b91506161388261774a565b602082019050919050565b6000616150602183616ebe565b915061615b82617773565b604082019050919050565b6000616173602d83616ebe565b915061617e826177c2565b604082019050919050565b6000616196601d83616ebe565b91506161a182617811565b602082019050919050565b60006161b9602183616ebe565b91506161c48261783a565b604082019050919050565b60006161dc601d83616ebe565b91506161e782617889565b602082019050919050565b60006161ff602783616ebe565b915061620a826178b2565b604082019050919050565b6000616222602d83616ebe565b915061622d82617901565b604082019050919050565b6000616245603183616ebe565b915061625082617950565b604082019050919050565b6060820160008201516162716000850182615d88565b50602082015161628460208501826162ca565b50604082015161629760408501826162e8565b50505050565b6162a6816170e2565b82525050565b6162b5816170e2565b82525050565b6162c481617175565b82525050565b6162d381617100565b82525050565b6162e281617100565b82525050565b6162f18161710d565b82525050565b60006163038285615ddb565b6004820191506163138284615e89565b91508190509392505050565b600061632c828486615df2565b91508190509392505050565b60006163448284615e89565b915081905092915050565b600061635a82616008565b91506163668285615db5565b6020820191506163768284615db5565b6020820191508190509392505050565b600060208201905061639b6000830184615bd3565b92915050565b60006040820190506163b66000830185615bd3565b6163c36020830184615bd3565b9392505050565b60006040820190506163df6000830185615bd3565b6163ec60208301846162ac565b9392505050565b6000608082019050818103600083015261640d8187615be2565b905081810360208301526164218186615d2a565b905081810360408301526164358185615c40565b90506164446060830184615da6565b95945050505050565b600060a08201905081810360008301526164678188615be2565b9050818103602083015261647b8187615d2a565b9050818103604083015261648f8186615c40565b905061649e6060830185615ed8565b6164ab6080830184615da6565b9695505050505050565b600060c08201905081810360008301526164cf8189615be2565b905081810360208301526164e38188615d2a565b905081810360408301526164f78187615c40565b90506165066060830186615ed8565b6165136080830185615da6565b61652060a08301846162ac565b979650505050505050565b600060808201905081810360008301526165458187615be2565b905081810360208301526165598186615d2a565b9050818103604083015261656d8185615cb5565b905081810360608301526165818184615c40565b905095945050505050565b60006020820190506165a16000830184615d97565b92915050565b60006020820190506165bc6000830184615da6565b92915050565b600060a0820190506165d76000830188615da6565b6165e46020830187615da6565b6165f16040830186615da6565b6165fe60608301856162ac565b61660b6080830184615bd3565b9695505050505050565b600060608201905061662a6000830186615da6565b61663760208301856162ac565b61664460408301846162d9565b949350505050565b600060a0820190506166616000830188615da6565b61666e60208301876162ac565b61667b60408301866162d9565b6166886060830185615da6565b6166956080830184615da6565b9695505050505050565b60006080820190506166b46000830187615da6565b6166c160208301866162d9565b6166ce6040830185615da6565b6166db6060830184615da6565b95945050505050565b60006020820190506166f96000830184615dcc565b92915050565b60006020820190506167146000830184615eba565b92915050565b600060208201905061672f6000830184615ec9565b92915050565b6000602082019050818103600083015261674f8184615f20565b905092915050565b6000602082019050818103600083015261677081615f59565b9050919050565b6000602082019050818103600083015261679081615f7c565b9050919050565b600060208201905081810360008301526167b081615f9f565b9050919050565b600060208201905081810360008301526167d081615fc2565b9050919050565b600060208201905081810360008301526167f081615fe5565b9050919050565b600060208201905081810360008301526168108161602b565b9050919050565b600060208201905081810360008301526168308161604e565b9050919050565b6000602082019050818103600083015261685081616071565b9050919050565b6000602082019050818103600083015261687081616094565b9050919050565b60006020820190508181036000830152616890816160b7565b9050919050565b600060208201905081810360008301526168b0816160da565b9050919050565b600060208201905081810360008301526168d0816160fd565b9050919050565b600060208201905081810360008301526168f081616120565b9050919050565b6000602082019050818103600083015261691081616143565b9050919050565b6000602082019050818103600083015261693081616166565b9050919050565b6000602082019050818103600083015261695081616189565b9050919050565b60006020820190508181036000830152616970816161ac565b9050919050565b60006020820190508181036000830152616990816161cf565b9050919050565b600060208201905081810360008301526169b0816161f2565b9050919050565b600060208201905081810360008301526169d081616215565b9050919050565b600060208201905081810360008301526169f081616238565b9050919050565b6000606082019050616a0c600083018461625b565b92915050565b6000602082019050616a2760008301846162ac565b92915050565b600061012082019050616a43600083018c6162ac565b616a50602083018b615bd3565b8181036040830152616a62818a615be2565b90508181036060830152616a768189615d2a565b90508181036080830152616a8a8188615cb5565b905081810360a0830152616a9e8187615c40565b9050616aad60c08301866162bb565b616aba60e08301856162bb565b818103610100830152616acd8184615f20565b90509a9950505050505050505050565b600061014082019050616af3600083018d6162ac565b616b00602083018c615bd3565b616b0d604083018b6162ac565b616b1a606083018a6162ac565b616b2760808301896162ac565b616b3460a08301886162ac565b616b4160c08301876162ac565b616b4e60e08301866162ac565b616b5c610100830185615d97565b616b6a610120830184615d97565b9b9a5050505050505050505050565b6000604082019050616b8e60008301856162ac565b616b9b60208301846162ac565b9392505050565b6000608082019050616bb760008301876162ac565b616bc460208301866162d9565b616bd160408301856162ac565b8181036060830152616be38184615f20565b905095945050505050565b600060a082019050616c0360008301886162ac565b616c1060208301876162d9565b616c1d60408301866162ac565b8181036060830152616c2f8185615f20565b90508181036080830152616c438184615e50565b90509695505050505050565b6000616c59616c6a565b9050616c6582826171fb565b919050565b6000604051905090565b600067ffffffffffffffff821115616c8f57616c8e617374565b5b602082029050602081019050919050565b600067ffffffffffffffff821115616cbb57616cba617374565b5b602082029050602081019050919050565b600067ffffffffffffffff821115616ce757616ce6617374565b5b602082029050602081019050919050565b600067ffffffffffffffff821115616d1357616d12617374565b5b602082029050602081019050919050565b600067ffffffffffffffff821115616d3f57616d3e617374565b5b616d48826173c1565b9050602081019050919050565b600067ffffffffffffffff821115616d7057616d6f617374565b5b616d79826173c1565b9050602081019050919050565b6000819050602082019050919050565b6000819050602082019050919050565b6000819050602082019050919050565b6000819050602082019050919050565b600081519050919050565b600081519050919050565b600081519050919050565b600081519050919050565b600081519050919050565b600081519050919050565b6000602082019050919050565b6000602082019050919050565b6000602082019050919050565b6000602082019050919050565b600082825260208201905092915050565b600082825260208201905092915050565b600082825260208201905092915050565b600082825260208201905092915050565b600082825260208201905092915050565b600082825260208201905092915050565b600081905092915050565b600082825260208201905092915050565b600082825260208201905092915050565b600081905092915050565b6000616ee5826170e2565b9150616ef0836170e2565b9250827fffffffffffffffffffffffffffffffffffffffffffffffffffffffffffffffff03821115616f2557616f24617289565b5b828201905092915050565b6000616f3b826170ec565b9150616f46836170ec565b92508267ffffffffffffffff03821115616f6357616f62617289565b5b828201905092915050565b6000616f79826170e2565b9150616f84836170e2565b925082616f9457616f936172b8565b5b828204905092915050565b6000616faa826170e2565b9150616fb5836170e2565b9250817fffffffffffffffffffffffffffffffffffffffffffffffffffffffffffffffff0483118215151615616fee57616fed617289565b5b828202905092915050565b6000617004826170e2565b915061700f836170e2565b92508282101561702257617021617289565b5b828203905092915050565b6000617038826170c2565b9050919050565b600061704a826170c2565b9050919050565b60008115159050919050565b6000819050919050565b60007fffffffff0000000000000000000000000000000000000000000000000000000082169050919050565b600061709e8261703f565b9050919050565b60008190506170b38261799f565b919050565b6000819050919050565b600073ffffffffffffffffffffffffffffffffffffffff82169050919050565b6000819050919050565b600067ffffffffffffffff82169050919050565b600060ff82169050919050565b60006bffffffffffffffffffffffff82169050919050565b600061713082617137565b9050919050565b6000617142826170c2565b9050919050565b6000617154826170a5565b9050919050565b600061716e617169836170b8565b6173d2565b9050919050565b6000617180826170ec565b9050919050565b82818337600083830152505050565b60005b838110156171b4578082015181840152602081019050617199565b838111156171c3576000848401525b50505050565b600060028204905060018216806171e157607f821691505b602082108114156171f5576171f4617316565b5b50919050565b617204826173c1565b810181811067ffffffffffffffff8211171561722357617222617374565b5b80604052505050565b6000617237826170e2565b91507fffffffffffffffffffffffffffffffffffffffffffffffffffffffffffffffff82141561726a57617269617289565b5b600182019050919050565b6000819050919050565b6000819050919050565b7f4e487b7100000000000000000000000000000000000000000000000000000000600052601160045260246000fd5b7f4e487b7100000000000000000000000000000000000000000000000000000000600052601260045260246000fd5b7f4e487b7100000000000000000000000000000000000000000000000000000000600052602160045260246000fd5b7f4e487b7100000000000000000000000000000000000000000000000000000000600052602260045260246000fd5b7f4e487b7100000000000000000000000000000000000000000000000000000000600052603260045260246000fd5b7f4e487b7100000000000000000000000000000000000000000000000000000000600052604160045260246000fd5b600080fd5b600080fd5b600080fd5b600080fd5b600080fd5b600080fd5b6000601f19601f8301169050919050565b60008160001b9050919050565b7f45434453413a20696e76616c6964207369676e61747572650000000000000000600082015250565b7f476f7665726e6f723a206f6e6c79476f7665726e616e63650000000000000000600082015250565b7f476f7665726e6f72566f74657351756f72756d4672616374696f6e3a2071756f60008201527f72756d4e756d657261746f72206f7665722071756f72756d44656e6f6d696e6160208201527f746f720000000000000000000000000000000000000000000000000000000000604082015250565b7f53616665436173743a2076616c756520646f65736e27742066697420696e203960008201527f3620626974730000000000000000000000000000000000000000000000000000602082015250565b7f45434453413a20696e76616c6964207369676e6174757265206c656e67746800600082015250565b7f1901000000000000000000000000000000000000000000000000000000000000600082015250565b7f476f7665726e6f723a20696e76616c69642070726f706f73616c206c656e677460008201527f6800000000000000000000000000000000000000000000000000000000000000602082015250565b7f45434453413a20696e76616c6964207369676e6174757265202773272076616c60008201527f7565000000000000000000000000000000000000000000000000000000000000602082015250565b7f416464726573733a20696e73756666696369656e742062616c616e636520666f60008201527f722063616c6c0000000000000000000000000000000000000000000000000000602082015250565b7f476f7665726e6f723a20766f7465206e6f742063757272656e746c792061637460008201527f6976650000000000000000000000000000000000000000000000000000000000602082015250565b7f476f7665726e6f723a20656d7074792070726f706f73616c0000000000000000600082015250565b7f45434453413a20696e76616c6964207369676e6174757265202776272076616c60008201527f7565000000000000000000000000000000000000000000000000000000000000602082015250565b7f53616665436173743a2076616c756520646f65736e27742066697420696e203660008201527f3420626974730000000000000000000000000000000000000000000000000000602082015250565b7f476f7665726e6f723a2070726f706f73616c206e6f7420616374697665000000600082015250565b7f476f7665726e6f723a2070726f706f73616c206e6f742073756363657373667560008201527f6c00000000000000000000000000000000000000000000000000000000000000602082015250565b7f476f7665726e6f72436f6d7061746962696c697479427261766f3a20696e766160008201527f6c696420766f7465207479706500000000000000000000000000000000000000602082015250565b7f476f7665726e6f723a20756e6b6e6f776e2070726f706f73616c206964000000600082015250565b7f476f7665726e6f723a2070726f706f73616c20616c726561647920657869737460008201527f7300000000000000000000000000000000000000000000000000000000000000602082015250565b7f416464726573733a2063616c6c20746f206e6f6e2d636f6e7472616374000000600082015250565b7f476f7665726e6f72427261766f3a2070726f706f7365722061626f766520746860008201527f726573686f6c6400000000000000000000000000000000000000000000000000602082015250565b7f476f7665726e6f72436f6d7061746962696c697479427261766f3a20766f746560008201527f20616c7265616479206361737400000000000000000000000000000000000000602082015250565b7f476f7665726e6f723a2070726f706f73657220766f7465732062656c6f77207060008201527f726f706f73616c207468726573686f6c64000000000000000000000000000000602082015250565b600881106179b0576179af6172e7565b5b50565b6179bc8161702d565b81146179c757600080fd5b50565b6179d381617051565b81146179de57600080fd5b50565b6179ea8161705d565b81146179f557600080fd5b50565b617a0181617067565b8114617a0c57600080fd5b50565b617a1881617093565b8114617a2357600080fd5b50565b617a2f816170e2565b8114617a3a57600080fd5b50565b617a4681617100565b8114617a5157600080fd5b5056fe416464726573733a206c6f772d6c6576656c2063616c6c20776974682076616c7565206661696c6564a2646970667358221220aba4a89e06b04b93edfec891180ee89d67f9366ffe343207f3b97522b99f84f964736f6c63430008050033",
  "immutableReferences": {
    "9758": [
      {
        "length": 32,
        "start": 9632
      },
      {
        "length": 32,
        "start": 12777
      },
      {
        "length": 32,
        "start": 13472
      }
    ],
    "14653": [
      {
        "length": 32,
        "start": 14154
      }
    ],
    "14655": [
      {
        "length": 32,
        "start": 14113
      }
    ],
    "14657": [
      {
        "length": 32,
        "start": 14027
      }
    ],
    "14659": [
      {
        "length": 32,
        "start": 14230
      }
    ],
    "14661": [
      {
        "length": 32,
        "start": 14263
      }
    ],
    "14663": [
      {
        "length": 32,
        "start": 14197
      }
    ]
  },
  "source": "// SPDX-License-Identifier: MIT\r\npragma solidity ^0.8.2;\r\n\r\nimport \"@openzeppelin/contracts/governance/Governor.sol\";\r\nimport \"@openzeppelin/contracts/governance/compatibility/GovernorCompatibilityBravo.sol\";\r\nimport \"@openzeppelin/contracts/governance/extensions/GovernorVotes.sol\";\r\nimport \"@openzeppelin/contracts/governance/extensions/GovernorVotesQuorumFraction.sol\";\r\nimport \"@openzeppelin/contracts/governance/extensions/GovernorTimelockControl.sol\";\r\nimport \"@openzeppelin/contracts/token/ERC20/extensions/ERC20Votes.sol\";\r\n\r\ncontract MyGovernor is Governor, GovernorCompatibilityBravo, GovernorVotes, GovernorVotesQuorumFraction, GovernorTimelockControl {\r\n    constructor(ERC20Votes _token, TimelockController _timelock)\r\n        Governor(\"MyGovernor\")\r\n        GovernorVotes(_token)\r\n        GovernorVotesQuorumFraction(4)\r\n        GovernorTimelockControl(_timelock)\r\n    {}\r\n\r\n    function votingDelay() public pure override returns (uint256) {\r\n        return 6575; // 1 day\r\n    }\r\n\r\n    function votingPeriod() public pure override returns (uint256) {\r\n        return 46027; // 1 week\r\n    }\r\n\r\n    function proposalThreshold() public pure override returns (uint256) {\r\n        return 0;\r\n    }\r\n\r\n    // The functions below are overrides required by Solidity.\r\n\r\n    function quorum(uint256 blockNumber)\r\n        public\r\n        view\r\n        override(IGovernor, GovernorVotesQuorumFraction)\r\n        returns (uint256)\r\n    {\r\n        return super.quorum(blockNumber);\r\n    }\r\n\r\n    function getVotes(address account, uint256 blockNumber)\r\n        public\r\n        view\r\n        override(IGovernor, Governor)\r\n        returns (uint256)\r\n    {\r\n        return super.getVotes(account, blockNumber);\r\n    }\r\n\r\n    function state(uint256 proposalId)\r\n        public\r\n        view\r\n        override(Governor, IGovernor, GovernorTimelockControl)\r\n        returns (ProposalState)\r\n    {\r\n        return super.state(proposalId);\r\n    }\r\n\r\n    function propose(address[] memory targets, uint256[] memory values, bytes[] memory calldatas, string memory description)\r\n        public\r\n        override(Governor, GovernorCompatibilityBravo, IGovernor)\r\n        returns (uint256)\r\n    {\r\n        return super.propose(targets, values, calldatas, description);\r\n    }\r\n\r\n    function _execute(uint256 proposalId, address[] memory targets, uint256[] memory values, bytes[] memory calldatas, bytes32 descriptionHash)\r\n        internal\r\n        override(Governor, GovernorTimelockControl)\r\n    {\r\n        super._execute(proposalId, targets, values, calldatas, descriptionHash);\r\n    }\r\n\r\n    function _cancel(address[] memory targets, uint256[] memory values, bytes[] memory calldatas, bytes32 descriptionHash)\r\n        internal\r\n        override(Governor, GovernorTimelockControl)\r\n        returns (uint256)\r\n    {\r\n        return super._cancel(targets, values, calldatas, descriptionHash);\r\n    }\r\n\r\n    function _executor()\r\n        internal\r\n        view\r\n        override(Governor, GovernorTimelockControl)\r\n        returns (address)\r\n    {\r\n        return super._executor();\r\n    }\r\n\r\n    function supportsInterface(bytes4 interfaceId)\r\n        public\r\n        view\r\n        override(Governor, IERC165, GovernorTimelockControl)\r\n        returns (bool)\r\n    {\r\n        return super.supportsInterface(interfaceId);\r\n    }\r\n}",
  "sourcePath": "/home/stephenstb/Ratio-Labs/ratio-labs/contracts/old_contracts/MyGovernor.sol",
  "compiler": {
    "name": "solc",
    "version": "0.8.5+commit.a4f2e591.Emscripten.clang"
  },
  "schemaVersion": "3.3.3",
  "updatedAt": "2022-06-23T01:08:52.451Z",
  "devdoc": {
    "errors": {
      "Empty()": [
        {
          "details": "An operation (e.g. {front}) couldn't be completed due to the queue being empty."
        }
      ]
    },
    "kind": "dev",
    "methods": {
      "COUNTING_MODE()": {
        "details": "A description of the possible `support` values for {castVote} and the way these votes are counted, meant to be consumed by UIs to show correct vote options and interpret the results. The string is a URL-encoded sequence of key-value pairs that each describe one aspect, for example `support=bravo&quorum=for,abstain`. There are 2 standard keys: `support` and `quorum`. - `support=bravo` refers to the vote options 0 = Against, 1 = For, 2 = Abstain, as in `GovernorBravo`. - `quorum=bravo` means that only For votes are counted towards quorum. - `quorum=for,abstain` means that both For and Abstain votes are counted towards quorum. If a counting module makes use of encoded `params`, it should  include this under a `params` key with a unique name that describes the behavior. For example: - `params=fractional` might refer to a scheme where votes are divided fractionally between for/against/abstain. - `params=erc721` might refer to a scheme where specific NFTs are delegated to vote. NOTE: The string can be decoded by the standard https://developer.mozilla.org/en-US/docs/Web/API/URLSearchParams[`URLSearchParams`] JavaScript class."
      },
      "cancel(uint256)": {
        "details": "Cancels a proposal only if sender is the proposer, or proposer delegates dropped below proposal threshold."
      },
      "castVote(uint256,uint8)": {
        "details": "See {IGovernor-castVote}."
      },
      "castVoteBySig(uint256,uint8,uint8,bytes32,bytes32)": {
        "details": "See {IGovernor-castVoteBySig}."
      },
      "castVoteWithReason(uint256,uint8,string)": {
        "details": "See {IGovernor-castVoteWithReason}."
      },
      "castVoteWithReasonAndParams(uint256,uint8,string,bytes)": {
        "details": "See {IGovernor-castVoteWithReasonAndParams}."
      },
      "castVoteWithReasonAndParamsBySig(uint256,uint8,string,bytes,uint8,bytes32,bytes32)": {
        "details": "See {IGovernor-castVoteWithReasonAndParamsBySig}."
      },
      "execute(address[],uint256[],bytes[],bytes32)": {
        "details": "See {IGovernor-execute}."
      },
      "execute(uint256)": {
        "details": "See {IGovernorCompatibilityBravo-execute}."
      },
      "getActions(uint256)": {
        "details": "See {IGovernorCompatibilityBravo-getActions}."
      },
      "getReceipt(uint256,address)": {
        "details": "See {IGovernorCompatibilityBravo-getReceipt}."
      },
      "getVotesWithParams(address,uint256,bytes)": {
        "details": "See {IGovernor-getVotesWithParams}."
      },
      "hasVoted(uint256,address)": {
        "details": "See {IGovernor-hasVoted}."
      },
      "hashProposal(address[],uint256[],bytes[],bytes32)": {
        "details": "See {IGovernor-hashProposal}. The proposal id is produced by hashing the RLC encoded `targets` array, the `values` array, the `calldatas` array and the descriptionHash (bytes32 which itself is the keccak256 hash of the description string). This proposal id can be produced from the proposal data which is part of the {ProposalCreated} event. It can even be computed in advance, before the proposal is submitted. Note that the chainId and the governor address are not part of the proposal id computation. Consequently, the same proposal (with same operation and same description) will have the same id if submitted on multiple governors across multiple networks. This also means that in order to execute the same operation twice (on the same governor) the proposer will have to change the description in order to avoid proposal id conflicts."
      },
      "name()": {
        "details": "See {IGovernor-name}."
      },
      "onERC1155BatchReceived(address,address,uint256[],uint256[],bytes)": {
        "details": "See {IERC1155Receiver-onERC1155BatchReceived}."
      },
      "onERC1155Received(address,address,uint256,uint256,bytes)": {
        "details": "See {IERC1155Receiver-onERC1155Received}."
      },
      "onERC721Received(address,address,uint256,bytes)": {
        "details": "See {IERC721Receiver-onERC721Received}."
      },
      "proposalDeadline(uint256)": {
        "details": "See {IGovernor-proposalDeadline}."
      },
      "proposalEta(uint256)": {
        "details": "Public accessor to check the eta of a queued proposal"
      },
      "proposalSnapshot(uint256)": {
        "details": "See {IGovernor-proposalSnapshot}."
      },
      "proposalThreshold()": {
        "details": "Part of the Governor Bravo's interface: _\"The number of votes required in order for a voter to become a proposer\"_."
      },
      "proposals(uint256)": {
        "details": "See {IGovernorCompatibilityBravo-proposals}."
      },
      "propose(address[],uint256[],string[],bytes[],string)": {
        "details": "See {IGovernorCompatibilityBravo-propose}."
      },
      "queue(address[],uint256[],bytes[],bytes32)": {
        "details": "Function to queue a proposal to the timelock."
      },
      "queue(uint256)": {
        "details": "See {IGovernorCompatibilityBravo-queue}."
      },
      "quorumDenominator()": {
        "details": "Returns the quorum denominator. Defaults to 100, but may be overridden."
      },
      "quorumNumerator()": {
        "details": "Returns the current quorum numerator. See {quorumDenominator}."
      },
      "quorumVotes()": {
        "details": "See {IGovernorCompatibilityBravo-quorumVotes}."
      },
      "relay(address,uint256,bytes)": {
        "details": "Relays a transaction or function call to an arbitrary target. In cases where the governance executor is some contract other than the governor itself, like when using a timelock, this function can be invoked in a governance proposal to recover tokens or Ether that was sent to the governor contract by mistake. Note that if the executor is simply the governor itself, use of `relay` is redundant."
      },
      "timelock()": {
        "details": "Public accessor to check the address of the timelock"
      },
      "updateQuorumNumerator(uint256)": {
        "details": "Changes the quorum numerator. Emits a {QuorumNumeratorUpdated} event. Requirements: - Must be called through a governance proposal. - New numerator must be smaller or equal to the denominator."
      },
      "updateTimelock(address)": {
        "details": "Public endpoint to update the underlying timelock instance. Restricted to the timelock itself, so updates must be proposed, scheduled, and executed through governance proposals. CAUTION: It is not recommended to change the timelock while there are other queued governance proposals."
      },
      "version()": {
        "details": "See {IGovernor-version}."
      },
      "votingDelay()": {
        "details": "Delay, in number of block, between the proposal is created and the vote starts. This can be increassed to leave time for users to buy voting power, of delegate it, before the voting of a proposal starts."
      },
      "votingPeriod()": {
        "details": "Delay, in number of blocks, between the vote start and vote ends. NOTE: The {votingDelay} can delay the start of the vote. This must be considered when setting the voting duration compared to the voting delay."
      }
    },
    "version": 1
  },
  "userdoc": {
    "kind": "user",
    "methods": {
      "COUNTING_MODE()": {
        "notice": "module:voting"
      },
      "votingDelay()": {
        "notice": "module:user-config"
      },
      "votingPeriod()": {
        "notice": "module:user-config"
      }
    },
    "version": 1
  }
}