{
  "contractName": "MyToken",
  "abi": [
    {
      "inputs": [],
      "stateMutability": "nonpayable",
      "type": "constructor"
    },
    {
      "anonymous": false,
      "inputs": [
        {
          "indexed": true,
          "internalType": "address",
          "name": "owner",
          "type": "address"
        },
        {
          "indexed": true,
          "internalType": "address",
          "name": "spender",
          "type": "address"
        },
        {
          "indexed": false,
          "internalType": "uint256",
          "name": "value",
          "type": "uint256"
        }
      ],
      "name": "Approval",
      "type": "event"
    },
    {
      "anonymous": false,
      "inputs": [
        {
          "indexed": true,
          "internalType": "address",
          "name": "delegator",
          "type": "address"
        },
        {
          "indexed": true,
          "internalType": "address",
          "name": "fromDelegate",
          "type": "address"
        },
        {
          "indexed": true,
          "internalType": "address",
          "name": "toDelegate",
          "type": "address"
        }
      ],
      "name": "DelegateChanged",
      "type": "event"
    },
    {
      "anonymous": false,
      "inputs": [
        {
          "indexed": true,
          "internalType": "address",
          "name": "delegate",
          "type": "address"
        },
        {
          "indexed": false,
          "internalType": "uint256",
          "name": "previousBalance",
          "type": "uint256"
        },
        {
          "indexed": false,
          "internalType": "uint256",
          "name": "newBalance",
          "type": "uint256"
        }
      ],
      "name": "DelegateVotesChanged",
      "type": "event"
    },
    {
      "anonymous": false,
      "inputs": [
        {
          "indexed": true,
          "internalType": "address",
          "name": "from",
          "type": "address"
        },
        {
          "indexed": true,
          "internalType": "address",
          "name": "to",
          "type": "address"
        },
        {
          "indexed": false,
          "internalType": "uint256",
          "name": "value",
          "type": "uint256"
        }
      ],
      "name": "Transfer",
      "type": "event"
    },
    {
      "inputs": [],
      "name": "DOMAIN_SEPARATOR",
      "outputs": [
        {
          "internalType": "bytes32",
          "name": "",
          "type": "bytes32"
        }
      ],
      "stateMutability": "view",
      "type": "function"
    },
    {
      "inputs": [
        {
          "internalType": "address",
          "name": "owner",
          "type": "address"
        },
        {
          "internalType": "address",
          "name": "spender",
          "type": "address"
        }
      ],
      "name": "allowance",
      "outputs": [
        {
          "internalType": "uint256",
          "name": "",
          "type": "uint256"
        }
      ],
      "stateMutability": "view",
      "type": "function"
    },
    {
      "inputs": [
        {
          "internalType": "address",
          "name": "spender",
          "type": "address"
        },
        {
          "internalType": "uint256",
          "name": "amount",
          "type": "uint256"
        }
      ],
      "name": "approve",
      "outputs": [
        {
          "internalType": "bool",
          "name": "",
          "type": "bool"
        }
      ],
      "stateMutability": "nonpayable",
      "type": "function"
    },
    {
      "inputs": [
        {
          "internalType": "address",
          "name": "account",
          "type": "address"
        }
      ],
      "name": "balanceOf",
      "outputs": [
        {
          "internalType": "uint256",
          "name": "",
          "type": "uint256"
        }
      ],
      "stateMutability": "view",
      "type": "function"
    },
    {
      "inputs": [
        {
          "internalType": "address",
          "name": "account",
          "type": "address"
        },
        {
          "internalType": "uint32",
          "name": "pos",
          "type": "uint32"
        }
      ],
      "name": "checkpoints",
      "outputs": [
        {
          "components": [
            {
              "internalType": "uint32",
              "name": "fromBlock",
              "type": "uint32"
            },
            {
              "internalType": "uint224",
              "name": "votes",
              "type": "uint224"
            }
          ],
          "internalType": "struct ERC20Votes.Checkpoint",
          "name": "",
          "type": "tuple"
        }
      ],
      "stateMutability": "view",
      "type": "function"
    },
    {
      "inputs": [],
      "name": "decimals",
      "outputs": [
        {
          "internalType": "uint8",
          "name": "",
          "type": "uint8"
        }
      ],
      "stateMutability": "view",
      "type": "function"
    },
    {
      "inputs": [
        {
          "internalType": "address",
          "name": "spender",
          "type": "address"
        },
        {
          "internalType": "uint256",
          "name": "subtractedValue",
          "type": "uint256"
        }
      ],
      "name": "decreaseAllowance",
      "outputs": [
        {
          "internalType": "bool",
          "name": "",
          "type": "bool"
        }
      ],
      "stateMutability": "nonpayable",
      "type": "function"
    },
    {
      "inputs": [
        {
          "internalType": "address",
          "name": "delegatee",
          "type": "address"
        }
      ],
      "name": "delegate",
      "outputs": [],
      "stateMutability": "nonpayable",
      "type": "function"
    },
    {
      "inputs": [
        {
          "internalType": "address",
          "name": "delegatee",
          "type": "address"
        },
        {
          "internalType": "uint256",
          "name": "nonce",
          "type": "uint256"
        },
        {
          "internalType": "uint256",
          "name": "expiry",
          "type": "uint256"
        },
        {
          "internalType": "uint8",
          "name": "v",
          "type": "uint8"
        },
        {
          "internalType": "bytes32",
          "name": "r",
          "type": "bytes32"
        },
        {
          "internalType": "bytes32",
          "name": "s",
          "type": "bytes32"
        }
      ],
      "name": "delegateBySig",
      "outputs": [],
      "stateMutability": "nonpayable",
      "type": "function"
    },
    {
      "inputs": [
        {
          "internalType": "address",
          "name": "account",
          "type": "address"
        }
      ],
      "name": "delegates",
      "outputs": [
        {
          "internalType": "address",
          "name": "",
          "type": "address"
        }
      ],
      "stateMutability": "view",
      "type": "function"
    },
    {
      "inputs": [
        {
          "internalType": "uint256",
          "name": "blockNumber",
          "type": "uint256"
        }
      ],
      "name": "getPastTotalSupply",
      "outputs": [
        {
          "internalType": "uint256",
          "name": "",
          "type": "uint256"
        }
      ],
      "stateMutability": "view",
      "type": "function"
    },
    {
      "inputs": [
        {
          "internalType": "address",
          "name": "account",
          "type": "address"
        },
        {
          "internalType": "uint256",
          "name": "blockNumber",
          "type": "uint256"
        }
      ],
      "name": "getPastVotes",
      "outputs": [
        {
          "internalType": "uint256",
          "name": "",
          "type": "uint256"
        }
      ],
      "stateMutability": "view",
      "type": "function"
    },
    {
      "inputs": [
        {
          "internalType": "address",
          "name": "account",
          "type": "address"
        }
      ],
      "name": "getVotes",
      "outputs": [
        {
          "internalType": "uint256",
          "name": "",
          "type": "uint256"
        }
      ],
      "stateMutability": "view",
      "type": "function"
    },
    {
      "inputs": [
        {
          "internalType": "address",
          "name": "spender",
          "type": "address"
        },
        {
          "internalType": "uint256",
          "name": "addedValue",
          "type": "uint256"
        }
      ],
      "name": "increaseAllowance",
      "outputs": [
        {
          "internalType": "bool",
          "name": "",
          "type": "bool"
        }
      ],
      "stateMutability": "nonpayable",
      "type": "function"
    },
    {
      "inputs": [],
      "name": "name",
      "outputs": [
        {
          "internalType": "string",
          "name": "",
          "type": "string"
        }
      ],
      "stateMutability": "view",
      "type": "function"
    },
    {
      "inputs": [
        {
          "internalType": "address",
          "name": "owner",
          "type": "address"
        }
      ],
      "name": "nonces",
      "outputs": [
        {
          "internalType": "uint256",
          "name": "",
          "type": "uint256"
        }
      ],
      "stateMutability": "view",
      "type": "function"
    },
    {
      "inputs": [
        {
          "internalType": "address",
          "name": "account",
          "type": "address"
        }
      ],
      "name": "numCheckpoints",
      "outputs": [
        {
          "internalType": "uint32",
          "name": "",
          "type": "uint32"
        }
      ],
      "stateMutability": "view",
      "type": "function"
    },
    {
      "inputs": [
        {
          "internalType": "address",
          "name": "owner",
          "type": "address"
        },
        {
          "internalType": "address",
          "name": "spender",
          "type": "address"
        },
        {
          "internalType": "uint256",
          "name": "value",
          "type": "uint256"
        },
        {
          "internalType": "uint256",
          "name": "deadline",
          "type": "uint256"
        },
        {
          "internalType": "uint8",
          "name": "v",
          "type": "uint8"
        },
        {
          "internalType": "bytes32",
          "name": "r",
          "type": "bytes32"
        },
        {
          "internalType": "bytes32",
          "name": "s",
          "type": "bytes32"
        }
      ],
      "name": "permit",
      "outputs": [],
      "stateMutability": "nonpayable",
      "type": "function"
    },
    {
      "inputs": [],
      "name": "symbol",
      "outputs": [
        {
          "internalType": "string",
          "name": "",
          "type": "string"
        }
      ],
      "stateMutability": "view",
      "type": "function"
    },
    {
      "inputs": [],
      "name": "totalSupply",
      "outputs": [
        {
          "internalType": "uint256",
          "name": "",
          "type": "uint256"
        }
      ],
      "stateMutability": "view",
      "type": "function"
    },
    {
      "inputs": [
        {
          "internalType": "address",
          "name": "to",
          "type": "address"
        },
        {
          "internalType": "uint256",
          "name": "amount",
          "type": "uint256"
        }
      ],
      "name": "transfer",
      "outputs": [
        {
          "internalType": "bool",
          "name": "",
          "type": "bool"
        }
      ],
      "stateMutability": "nonpayable",
      "type": "function"
    },
    {
      "inputs": [
        {
          "internalType": "address",
          "name": "from",
          "type": "address"
        },
        {
          "internalType": "address",
          "name": "to",
          "type": "address"
        },
        {
          "internalType": "uint256",
          "name": "amount",
          "type": "uint256"
        }
      ],
      "name": "transferFrom",
      "outputs": [
        {
          "internalType": "bool",
          "name": "",
          "type": "bool"
        }
      ],
      "stateMutability": "nonpayable",
      "type": "function"
    }
  ],
  "bytecode": "0x6101406040523480156200001257600080fd5b506040518060400160405280600781526020017f4d79546f6b656e00000000000000000000000000000000000000000000000000815250806040518060400160405280600181526020017f31000000000000000000000000000000000000000000000000000000000000008152506040518060400160405280600781526020017f4d79546f6b656e000000000000000000000000000000000000000000000000008152506040518060400160405280600381526020017f4d544b000000000000000000000000000000000000000000000000000000000081525081600390805190602001906200010492919062000b5b565b5080600490805190602001906200011d92919062000b5b565b50505060008280519060200120905060008280519060200120905060007f8b73c3c69bb8fe3d512ecc4cf759cc79239f7b179b0ffacaa9a75d522b39400f90508260e081815250508161010081815250504660a0818152505062000189818484620001f760201b60201c565b608081815250503073ffffffffffffffffffffffffffffffffffffffff1660c08173ffffffffffffffffffffffffffffffffffffffff1660601b81525050806101208181525050505050505050620001f13368056bc75e2d631000006200023360201b60201c565b620010d3565b600083838346306040516020016200021495949392919062000cda565b6040516020818303038152906040528051906020012090509392505050565b6200024a82826200024e60201b62000e7b1760201c565b5050565b6200026582826200030c60201b62000f081760201c565b620002756200048560201b60201c565b7bffffffffffffffffffffffffffffffffffffffffffffffffffffffff16620002a3620004a960201b60201c565b1115620002e7576040517f08c379a0000000000000000000000000000000000000000000000000000000008152600401620002de9062000d37565b60405180910390fd5b620003066009620004b360201b620010681783620004cb60201b60201c565b50505050565b600073ffffffffffffffffffffffffffffffffffffffff168273ffffffffffffffffffffffffffffffffffffffff1614156200037f576040517f08c379a0000000000000000000000000000000000000000000000000000000008152600401620003769062000d9d565b60405180910390fd5b62000393600083836200077c60201b60201c565b8060026000828254620003a7919062000e1a565b92505081905550806000808473ffffffffffffffffffffffffffffffffffffffff1673ffffffffffffffffffffffffffffffffffffffff1681526020019081526020016000206000828254620003fe919062000e1a565b925050819055508173ffffffffffffffffffffffffffffffffffffffff16600073ffffffffffffffffffffffffffffffffffffffff167fddf252ad1be2c89b69c2b068fc378daa952ba7f163c4a11628f55a4df523b3ef8360405162000465919062000dbf565b60405180910390a362000481600083836200078160201b60201c565b5050565b60007bffffffffffffffffffffffffffffffffffffffffffffffffffffffff905090565b6000600254905090565b60008183620004c3919062000e1a565b905092915050565b60008060008580549050905060008114620005405785600182620004f0919062000e77565b8154811062000504576200050362000f8e565b5b9060005260206000200160000160049054906101000a90047bffffffffffffffffffffffffffffffffffffffffffffffffffffffff1662000543565b60005b7bffffffffffffffffffffffffffffffffffffffffffffffffffffffff1692506200056f83858760201c565b9150600081118015620005c8575043866001836200058e919062000e77565b81548110620005a257620005a162000f8e565b5b9060005260206000200160000160009054906101000a900463ffffffff1663ffffffff16145b156200066957620005e4826200079e60201b6200107e1760201c565b86600183620005f4919062000e77565b8154811062000608576200060762000f8e565b5b9060005260206000200160000160046101000a8154817bffffffffffffffffffffffffffffffffffffffffffffffffffffffff02191690837bffffffffffffffffffffffffffffffffffffffffffffffffffffffff16021790555062000773565b8560405180604001604052806200068b436200080c60201b620010e91760201c565b63ffffffff168152602001620006ac856200079e60201b6200107e1760201c565b7bffffffffffffffffffffffffffffffffffffffffffffffffffffffff168152509080600181540180825580915050600190039060005260206000200160009091909190915060008201518160000160006101000a81548163ffffffff021916908363ffffffff16021790555060208201518160000160046101000a8154817bffffffffffffffffffffffffffffffffffffffffffffffffffffffff02191690837bffffffffffffffffffffffffffffffffffffffffffffffffffffffff16021790555050505b50935093915050565b505050565b620007998383836200086260201b6200113c1760201c565b505050565b60007bffffffffffffffffffffffffffffffffffffffffffffffffffffffff801682111562000804576040517f08c379a0000000000000000000000000000000000000000000000000000000008152600401620007fb9062000d59565b60405180910390fd5b819050919050565b600063ffffffff80168211156200085a576040517f08c379a0000000000000000000000000000000000000000000000000000000008152600401620008519062000d7b565b60405180910390fd5b819050919050565b6200087a838383620008b260201b620011671760201c565b620008ad6200088f84620008b760201b60201c565b620008a084620008b760201b60201c565b836200092060201b60201c565b505050565b505050565b6000600760008373ffffffffffffffffffffffffffffffffffffffff1673ffffffffffffffffffffffffffffffffffffffff16815260200190815260200160002060009054906101000a900473ffffffffffffffffffffffffffffffffffffffff169050919050565b8173ffffffffffffffffffffffffffffffffffffffff168373ffffffffffffffffffffffffffffffffffffffff16141580156200095d5750600081115b1562000b3e57600073ffffffffffffffffffffffffffffffffffffffff168373ffffffffffffffffffffffffffffffffffffffff161462000a5057600080620009f7600860008773ffffffffffffffffffffffffffffffffffffffff1673ffffffffffffffffffffffffffffffffffffffff16815260200190815260200160002062000b4360201b6200116c1785620004cb60201b60201c565b915091508473ffffffffffffffffffffffffffffffffffffffff167fdec2bacdd2f05b59de34da9b523dff8be42e5e38e818c82fdb0bae774387a724838360405162000a4592919062000ddc565b60405180910390a250505b600073ffffffffffffffffffffffffffffffffffffffff168273ffffffffffffffffffffffffffffffffffffffff161462000b3d5760008062000ae4600860008673ffffffffffffffffffffffffffffffffffffffff1673ffffffffffffffffffffffffffffffffffffffff168152602001908152602001600020620004b360201b620010681785620004cb60201b60201c565b915091508373ffffffffffffffffffffffffffffffffffffffff167fdec2bacdd2f05b59de34da9b523dff8be42e5e38e818c82fdb0bae774387a724838360405162000b3292919062000ddc565b60405180910390a250505b5b505050565b6000818362000b53919062000e77565b905092915050565b82805462000b699062000efa565b90600052602060002090601f01602090048101928262000b8d576000855562000bd9565b82601f1062000ba857805160ff191683800117855562000bd9565b8280016001018555821562000bd9579182015b8281111562000bd857825182559160200191906001019062000bbb565b5b50905062000be8919062000bec565b5090565b5b8082111562000c0757600081600090555060010162000bed565b5090565b62000c168162000eb2565b82525050565b62000c278162000ec6565b82525050565b600062000c3c60308362000e09565b915062000c498262000fbd565b604082019050919050565b600062000c6360278362000e09565b915062000c70826200100c565b604082019050919050565b600062000c8a60268362000e09565b915062000c97826200105b565b604082019050919050565b600062000cb1601f8362000e09565b915062000cbe82620010aa565b602082019050919050565b62000cd48162000ef0565b82525050565b600060a08201905062000cf1600083018862000c1c565b62000d00602083018762000c1c565b62000d0f604083018662000c1c565b62000d1e606083018562000cc9565b62000d2d608083018462000c0b565b9695505050505050565b6000602082019050818103600083015262000d528162000c2d565b9050919050565b6000602082019050818103600083015262000d748162000c54565b9050919050565b6000602082019050818103600083015262000d968162000c7b565b9050919050565b6000602082019050818103600083015262000db88162000ca2565b9050919050565b600060208201905062000dd6600083018462000cc9565b92915050565b600060408201905062000df3600083018562000cc9565b62000e02602083018462000cc9565b9392505050565b600082825260208201905092915050565b600062000e278262000ef0565b915062000e348362000ef0565b9250827fffffffffffffffffffffffffffffffffffffffffffffffffffffffffffffffff0382111562000e6c5762000e6b62000f30565b5b828201905092915050565b600062000e848262000ef0565b915062000e918362000ef0565b92508282101562000ea75762000ea662000f30565b5b828203905092915050565b600062000ebf8262000ed0565b9050919050565b6000819050919050565b600073ffffffffffffffffffffffffffffffffffffffff82169050919050565b6000819050919050565b6000600282049050600182168062000f1357607f821691505b6020821081141562000f2a5762000f2962000f5f565b5b50919050565b7f4e487b7100000000000000000000000000000000000000000000000000000000600052601160045260246000fd5b7f4e487b7100000000000000000000000000000000000000000000000000000000600052602260045260246000fd5b7f4e487b7100000000000000000000000000000000000000000000000000000000600052603260045260246000fd5b7f4552433230566f7465733a20746f74616c20737570706c79207269736b73206f60008201527f766572666c6f77696e6720766f74657300000000000000000000000000000000602082015250565b7f53616665436173743a2076616c756520646f65736e27742066697420696e203260008201527f3234206269747300000000000000000000000000000000000000000000000000602082015250565b7f53616665436173743a2076616c756520646f65736e27742066697420696e203360008201527f3220626974730000000000000000000000000000000000000000000000000000602082015250565b7f45524332303a206d696e7420746f20746865207a65726f206164647265737300600082015250565b60805160a05160c05160601c60e051610100516101205161372f620011266000396000611710015260006117520152600061173101526000611666015260006116bc015260006116e5015261372f6000f3fe608060405234801561001057600080fd5b50600436106101425760003560e01c806370a08231116100b8578063a457c2d71161007c578063a457c2d7146103d9578063a9059cbb14610409578063c3cda52014610439578063d505accf14610455578063dd62ed3e14610471578063f1127ed8146104a157610142565b806370a08231146102fb5780637ecebe001461032b5780638e539e8c1461035b57806395d89b411461038b5780639ab24eb0146103a957610142565b80633644e5151161010a5780633644e51514610201578063395093511461021f5780633a46b1a81461024f578063587cde1e1461027f5780635c19a95c146102af5780636fcfff45146102cb57610142565b806306fdde0314610147578063095ea7b31461016557806318160ddd1461019557806323b872dd146101b3578063313ce567146101e3575b600080fd5b61014f6104d1565b60405161015c9190612b67565b60405180910390f35b61017f600480360381019061017a9190612491565b610563565b60405161018c91906129f3565b60405180910390f35b61019d610586565b6040516101aa9190612e24565b60405180910390f35b6101cd60048036038101906101c8919061239c565b610590565b6040516101da91906129f3565b60405180910390f35b6101eb6105bf565b6040516101f89190612e83565b60405180910390f35b6102096105c8565b6040516102169190612a0e565b60405180910390f35b61023960048036038101906102349190612491565b6105d7565b60405161024691906129f3565b60405180910390f35b61026960048036038101906102649190612491565b61060e565b6040516102769190612e24565b60405180910390f35b6102996004803603810190610294919061232f565b6106a2565b6040516102a691906129d8565b60405180910390f35b6102c960048036038101906102c4919061232f565b61070b565b005b6102e560048036038101906102e0919061232f565b61071f565b6040516102f29190612e68565b60405180910390f35b6103156004803603810190610310919061232f565b610773565b6040516103229190612e24565b60405180910390f35b6103456004803603810190610340919061232f565b6107bb565b6040516103529190612e24565b60405180910390f35b6103756004803603810190610370919061259e565b61080b565b6040516103829190612e24565b60405180910390f35b610393610861565b6040516103a09190612b67565b60405180910390f35b6103c360048036038101906103be919061232f565b6108f3565b6040516103d09190612e24565b60405180910390f35b6103f360048036038101906103ee9190612491565b610a04565b60405161040091906129f3565b60405180910390f35b610423600480360381019061041e9190612491565b610a7b565b60405161043091906129f3565b60405180910390f35b610453600480360381019061044e91906124d1565b610a9e565b005b61046f600480360381019061046a91906123ef565b610ba2565b005b61048b6004803603810190610486919061235c565b610ce4565b6040516104989190612e24565b60405180910390f35b6104bb60048036038101906104b6919061255e565b610d6b565b6040516104c89190612e09565b60405180910390f35b6060600380546104e09061304a565b80601f016020809104026020016040519081016040528092919081815260200182805461050c9061304a565b80156105595780601f1061052e57610100808354040283529160200191610559565b820191906000526020600020905b81548152906001019060200180831161053c57829003601f168201915b5050505050905090565b60008061056e611182565b905061057b81858561118a565b600191505092915050565b6000600254905090565b60008061059b611182565b90506105a8858285611355565b6105b38585856113e1565b60019150509392505050565b60006012905090565b60006105d2611662565b905090565b6000806105e2611182565b90506106038185856105f48589610ce4565b6105fe9190612ec5565b61118a565b600191505092915050565b6000438210610652576040517f08c379a000000000000000000000000000000000000000000000000000000000815260040161064990612bc9565b60405180910390fd5b61069a600860008573ffffffffffffffffffffffffffffffffffffffff1673ffffffffffffffffffffffffffffffffffffffff1681526020019081526020016000208361177c565b905092915050565b6000600760008373ffffffffffffffffffffffffffffffffffffffff1673ffffffffffffffffffffffffffffffffffffffff16815260200190815260200160002060009054906101000a900473ffffffffffffffffffffffffffffffffffffffff169050919050565b61071c610716611182565b82611888565b50565b600061076c600860008473ffffffffffffffffffffffffffffffffffffffff1673ffffffffffffffffffffffffffffffffffffffff168152602001908152602001600020805490506110e9565b9050919050565b60008060008373ffffffffffffffffffffffffffffffffffffffff1673ffffffffffffffffffffffffffffffffffffffff168152602001908152602001600020549050919050565b6000610804600560008473ffffffffffffffffffffffffffffffffffffffff1673ffffffffffffffffffffffffffffffffffffffff1681526020019081526020016000206119a2565b9050919050565b600043821061084f576040517f08c379a000000000000000000000000000000000000000000000000000000000815260040161084690612bc9565b60405180910390fd5b61085a60098361177c565b9050919050565b6060600480546108709061304a565b80601f016020809104026020016040519081016040528092919081815260200182805461089c9061304a565b80156108e95780601f106108be576101008083540402835291602001916108e9565b820191906000526020600020905b8154815290600101906020018083116108cc57829003601f168201915b5050505050905090565b600080600860008473ffffffffffffffffffffffffffffffffffffffff1673ffffffffffffffffffffffffffffffffffffffff168152602001908152602001600020805490509050600081146109db57600860008473ffffffffffffffffffffffffffffffffffffffff1673ffffffffffffffffffffffffffffffffffffffff16815260200190815260200160002060018261098f9190612f4c565b815481106109a05761099f613142565b5b9060005260206000200160000160049054906101000a90047bffffffffffffffffffffffffffffffffffffffffffffffffffffffff166109de565b60005b7bffffffffffffffffffffffffffffffffffffffffffffffffffffffff16915050919050565b600080610a0f611182565b90506000610a1d8286610ce4565b905083811015610a62576040517f08c379a0000000000000000000000000000000000000000000000000000000008152600401610a5990612dc9565b60405180910390fd5b610a6f828686840361118a565b60019250505092915050565b600080610a86611182565b9050610a938185856113e1565b600191505092915050565b83421115610ae1576040517f08c379a0000000000000000000000000000000000000000000000000000000008152600401610ad890612be9565b60405180910390fd5b6000610b43610b3b7fe48329057bfd03d55e49b547132e39cffd9c1820ad7b9d4c5307691425d15adf898989604051602001610b209493929190612a8a565b604051602081830303815290604052805190602001206119b0565b8585856119ca565b9050610b4e816119f5565b8614610b8f576040517f08c379a0000000000000000000000000000000000000000000000000000000008152600401610b8690612c29565b60405180910390fd5b610b998188611888565b50505050505050565b83421115610be5576040517f08c379a0000000000000000000000000000000000000000000000000000000008152600401610bdc90612c89565b60405180910390fd5b60007f6e71edae12b1b97f4d1f60370fef10105fa2faae0126114a169c64845d6126c9888888610c148c6119f5565b89604051602001610c2a96959493929190612a29565b6040516020818303038152906040528051906020012090506000610c4d826119b0565b90506000610c5d828787876119ca565b90508973ffffffffffffffffffffffffffffffffffffffff168173ffffffffffffffffffffffffffffffffffffffff1614610ccd576040517f08c379a0000000000000000000000000000000000000000000000000000000008152600401610cc490612d09565b60405180910390fd5b610cd88a8a8a61118a565b50505050505050505050565b6000600160008473ffffffffffffffffffffffffffffffffffffffff1673ffffffffffffffffffffffffffffffffffffffff16815260200190815260200160002060008373ffffffffffffffffffffffffffffffffffffffff1673ffffffffffffffffffffffffffffffffffffffff16815260200190815260200160002054905092915050565b610d73612288565b600860008473ffffffffffffffffffffffffffffffffffffffff1673ffffffffffffffffffffffffffffffffffffffff1681526020019081526020016000208263ffffffff1681548110610dca57610dc9613142565b5b906000526020600020016040518060400160405290816000820160009054906101000a900463ffffffff1663ffffffff1663ffffffff1681526020016000820160049054906101000a90047bffffffffffffffffffffffffffffffffffffffffffffffffffffffff167bffffffffffffffffffffffffffffffffffffffffffffffffffffffff167bffffffffffffffffffffffffffffffffffffffffffffffffffffffff1681525050905092915050565b610e858282610f08565b610e8d611a53565b7bffffffffffffffffffffffffffffffffffffffffffffffffffffffff16610eb3610586565b1115610ef4576040517f08c379a0000000000000000000000000000000000000000000000000000000008152600401610eeb90612d29565b60405180910390fd5b610f02600961106883611a77565b50505050565b600073ffffffffffffffffffffffffffffffffffffffff168273ffffffffffffffffffffffffffffffffffffffff161415610f78576040517f08c379a0000000000000000000000000000000000000000000000000000000008152600401610f6f90612de9565b60405180910390fd5b610f8460008383611cef565b8060026000828254610f969190612ec5565b92505081905550806000808473ffffffffffffffffffffffffffffffffffffffff1673ffffffffffffffffffffffffffffffffffffffff1681526020019081526020016000206000828254610feb9190612ec5565b925050819055508173ffffffffffffffffffffffffffffffffffffffff16600073ffffffffffffffffffffffffffffffffffffffff167fddf252ad1be2c89b69c2b068fc378daa952ba7f163c4a11628f55a4df523b3ef836040516110509190612e24565b60405180910390a361106460008383611cf4565b5050565b600081836110769190612ec5565b905092915050565b60007bffffffffffffffffffffffffffffffffffffffffffffffffffffffff80168211156110e1576040517f08c379a00000000000000000000000000000000000000000000000000000000081526004016110d890612d49565b60405180910390fd5b819050919050565b600063ffffffff8016821115611134576040517f08c379a000000000000000000000000000000000000000000000000000000000815260040161112b90612d89565b60405180910390fd5b819050919050565b611147838383611167565b611162611153846106a2565b61115c846106a2565b83611d04565b505050565b505050565b6000818361117a9190612f4c565b905092915050565b600033905090565b600073ffffffffffffffffffffffffffffffffffffffff168373ffffffffffffffffffffffffffffffffffffffff1614156111fa576040517f08c379a00000000000000000000000000000000000000000000000000000000081526004016111f190612da9565b60405180910390fd5b600073ffffffffffffffffffffffffffffffffffffffff168273ffffffffffffffffffffffffffffffffffffffff16141561126a576040517f08c379a000000000000000000000000000000000000000000000000000000000815260040161126190612c49565b60405180910390fd5b80600160008573ffffffffffffffffffffffffffffffffffffffff1673ffffffffffffffffffffffffffffffffffffffff16815260200190815260200160002060008473ffffffffffffffffffffffffffffffffffffffff1673ffffffffffffffffffffffffffffffffffffffff168152602001908152602001600020819055508173ffffffffffffffffffffffffffffffffffffffff168373ffffffffffffffffffffffffffffffffffffffff167f8c5be1e5ebec7d5bd14f71427d1e84f3dd0314c0f7b2291e5b200ac8c7c3b925836040516113489190612e24565b60405180910390a3505050565b60006113618484610ce4565b90507fffffffffffffffffffffffffffffffffffffffffffffffffffffffffffffffff81146113db57818110156113cd576040517f08c379a00000000000000000000000000000000000000000000000000000000081526004016113c490612c69565b60405180910390fd5b6113da848484840361118a565b5b50505050565b600073ffffffffffffffffffffffffffffffffffffffff168373ffffffffffffffffffffffffffffffffffffffff161415611451576040517f08c379a000000000000000000000000000000000000000000000000000000000815260040161144890612d69565b60405180910390fd5b600073ffffffffffffffffffffffffffffffffffffffff168273ffffffffffffffffffffffffffffffffffffffff1614156114c1576040517f08c379a00000000000000000000000000000000000000000000000000000000081526004016114b890612ba9565b60405180910390fd5b6114cc838383611cef565b60008060008573ffffffffffffffffffffffffffffffffffffffff1673ffffffffffffffffffffffffffffffffffffffff16815260200190815260200160002054905081811015611552576040517f08c379a000000000000000000000000000000000000000000000000000000000815260040161154990612ca9565b60405180910390fd5b8181036000808673ffffffffffffffffffffffffffffffffffffffff1673ffffffffffffffffffffffffffffffffffffffff16815260200190815260200160002081905550816000808573ffffffffffffffffffffffffffffffffffffffff1673ffffffffffffffffffffffffffffffffffffffff16815260200190815260200160002060008282546115e59190612ec5565b925050819055508273ffffffffffffffffffffffffffffffffffffffff168473ffffffffffffffffffffffffffffffffffffffff167fddf252ad1be2c89b69c2b068fc378daa952ba7f163c4a11628f55a4df523b3ef846040516116499190612e24565b60405180910390a361165c848484611cf4565b50505050565b60007f000000000000000000000000000000000000000000000000000000000000000073ffffffffffffffffffffffffffffffffffffffff163073ffffffffffffffffffffffffffffffffffffffff161480156116de57507f000000000000000000000000000000000000000000000000000000000000000046145b1561170b577f00000000000000000000000000000000000000000000000000000000000000009050611779565b6117767f00000000000000000000000000000000000000000000000000000000000000007f00000000000000000000000000000000000000000000000000000000000000007f0000000000000000000000000000000000000000000000000000000000000000611efd565b90505b90565b6000808380549050905060005b818110156117fb57600061179d8284611f37565b9050848682815481106117b3576117b2613142565b5b9060005260206000200160000160009054906101000a900463ffffffff1663ffffffff1611156117e5578092506117f5565b6001816117f29190612ec5565b91505b50611789565b6000821461185d57846001836118119190612f4c565b8154811061182257611821613142565b5b9060005260206000200160000160049054906101000a90047bffffffffffffffffffffffffffffffffffffffffffffffffffffffff16611860565b60005b7bffffffffffffffffffffffffffffffffffffffffffffffffffffffff169250505092915050565b6000611893836106a2565b905060006118a084610773565b905082600760008673ffffffffffffffffffffffffffffffffffffffff1673ffffffffffffffffffffffffffffffffffffffff16815260200190815260200160002060006101000a81548173ffffffffffffffffffffffffffffffffffffffff021916908373ffffffffffffffffffffffffffffffffffffffff1602179055508273ffffffffffffffffffffffffffffffffffffffff168273ffffffffffffffffffffffffffffffffffffffff168573ffffffffffffffffffffffffffffffffffffffff167f3134e8a2e6d97e929a7e54011ea5485d7d196dd5f0ba4d4ef95803e8e3fc257f60405160405180910390a461199c828483611d04565b50505050565b600081600001549050919050565b60006119c36119bd611662565b83611f5d565b9050919050565b60008060006119db87878787611f90565b915091506119e88161209d565b8192505050949350505050565b600080600560008473ffffffffffffffffffffffffffffffffffffffff1673ffffffffffffffffffffffffffffffffffffffff1681526020019081526020016000209050611a42816119a2565b9150611a4d81612272565b50919050565b60007bffffffffffffffffffffffffffffffffffffffffffffffffffffffff905090565b60008060008580549050905060008114611ae55785600182611a999190612f4c565b81548110611aaa57611aa9613142565b5b9060005260206000200160000160049054906101000a90047bffffffffffffffffffffffffffffffffffffffffffffffffffffffff16611ae8565b60005b7bffffffffffffffffffffffffffffffffffffffffffffffffffffffff169250611b1683858763ffffffff16565b9150600081118015611b6957504386600183611b329190612f4c565b81548110611b4357611b42613142565b5b9060005260206000200160000160009054906101000a900463ffffffff1663ffffffff16145b15611bf657611b778261107e565b86600183611b859190612f4c565b81548110611b9657611b95613142565b5b9060005260206000200160000160046101000a8154817bffffffffffffffffffffffffffffffffffffffffffffffffffffffff02191690837bffffffffffffffffffffffffffffffffffffffffffffffffffffffff160217905550611ce6565b856040518060400160405280611c0b436110e9565b63ffffffff168152602001611c1f8561107e565b7bffffffffffffffffffffffffffffffffffffffffffffffffffffffff168152509080600181540180825580915050600190039060005260206000200160009091909190915060008201518160000160006101000a81548163ffffffff021916908363ffffffff16021790555060208201518160000160046101000a8154817bffffffffffffffffffffffffffffffffffffffffffffffffffffffff02191690837bffffffffffffffffffffffffffffffffffffffffffffffffffffffff16021790555050505b50935093915050565b505050565b611cff83838361113c565b505050565b8173ffffffffffffffffffffffffffffffffffffffff168373ffffffffffffffffffffffffffffffffffffffff1614158015611d405750600081115b15611ef857600073ffffffffffffffffffffffffffffffffffffffff168373ffffffffffffffffffffffffffffffffffffffff1614611e1e57600080611dc7600860008773ffffffffffffffffffffffffffffffffffffffff1673ffffffffffffffffffffffffffffffffffffffff16815260200190815260200160002061116c85611a77565b915091508473ffffffffffffffffffffffffffffffffffffffff167fdec2bacdd2f05b59de34da9b523dff8be42e5e38e818c82fdb0bae774387a7248383604051611e13929190612e3f565b60405180910390a250505b600073ffffffffffffffffffffffffffffffffffffffff168273ffffffffffffffffffffffffffffffffffffffff1614611ef757600080611ea0600860008673ffffffffffffffffffffffffffffffffffffffff1673ffffffffffffffffffffffffffffffffffffffff16815260200190815260200160002061106885611a77565b915091508373ffffffffffffffffffffffffffffffffffffffff167fdec2bacdd2f05b59de34da9b523dff8be42e5e38e818c82fdb0bae774387a7248383604051611eec929190612e3f565b60405180910390a250505b5b505050565b60008383834630604051602001611f18959493929190612acf565b6040516020818303038152906040528051906020012090509392505050565b60006002828418611f489190612f1b565b828416611f559190612ec5565b905092915050565b60008282604051602001611f729291906129a1565b60405160208183030381529060405280519060200120905092915050565b6000807f7fffffffffffffffffffffffffffffff5d576e7357a4501ddfe92f46681b20a08360001c1115611fcb576000600391509150612094565b601b8560ff1614158015611fe35750601c8560ff1614155b15611ff5576000600491509150612094565b60006001878787876040516000815260200160405260405161201a9493929190612b22565b6020604051602081039080840390855afa15801561203c573d6000803e3d6000fd5b505050602060405103519050600073ffffffffffffffffffffffffffffffffffffffff168173ffffffffffffffffffffffffffffffffffffffff16141561208b57600060019250925050612094565b80600092509250505b94509492505050565b600060048111156120b1576120b06130e4565b5b8160048111156120c4576120c36130e4565b5b14156120cf5761226f565b600160048111156120e3576120e26130e4565b5b8160048111156120f6576120f56130e4565b5b1415612137576040517f08c379a000000000000000000000000000000000000000000000000000000000815260040161212e90612b89565b60405180910390fd5b6002600481111561214b5761214a6130e4565b5b81600481111561215e5761215d6130e4565b5b141561219f576040517f08c379a000000000000000000000000000000000000000000000000000000000815260040161219690612c09565b60405180910390fd5b600360048111156121b3576121b26130e4565b5b8160048111156121c6576121c56130e4565b5b1415612207576040517f08c379a00000000000000000000000000000000000000000000000000000000081526004016121fe90612cc9565b60405180910390fd5b60048081111561221a576122196130e4565b5b81600481111561222d5761222c6130e4565b5b141561226e576040517f08c379a000000000000000000000000000000000000000000000000000000000815260040161226590612ce9565b60405180910390fd5b5b50565b6001816000016000828254019250508190555050565b6040518060400160405280600063ffffffff16815260200160007bffffffffffffffffffffffffffffffffffffffffffffffffffffffff1681525090565b6000813590506122d581613686565b92915050565b6000813590506122ea8161369d565b92915050565b6000813590506122ff816136b4565b92915050565b600081359050612314816136cb565b92915050565b600081359050612329816136e2565b92915050565b60006020828403121561234557612344613171565b5b6000612353848285016122c6565b91505092915050565b6000806040838503121561237357612372613171565b5b6000612381858286016122c6565b9250506020612392858286016122c6565b9150509250929050565b6000806000606084860312156123b5576123b4613171565b5b60006123c3868287016122c6565b93505060206123d4868287016122c6565b92505060406123e5868287016122f0565b9150509250925092565b600080600080600080600060e0888a03121561240e5761240d613171565b5b600061241c8a828b016122c6565b975050602061242d8a828b016122c6565b965050604061243e8a828b016122f0565b955050606061244f8a828b016122f0565b94505060806124608a828b0161231a565b93505060a06124718a828b016122db565b92505060c06124828a828b016122db565b91505092959891949750929550565b600080604083850312156124a8576124a7613171565b5b60006124b6858286016122c6565b92505060206124c7858286016122f0565b9150509250929050565b60008060008060008060c087890312156124ee576124ed613171565b5b60006124fc89828a016122c6565b965050602061250d89828a016122f0565b955050604061251e89828a016122f0565b945050606061252f89828a0161231a565b935050608061254089828a016122db565b92505060a061255189828a016122db565b9150509295509295509295565b6000806040838503121561257557612574613171565b5b6000612583858286016122c6565b925050602061259485828601612305565b9150509250929050565b6000602082840312156125b4576125b3613171565b5b60006125c2848285016122f0565b91505092915050565b6125d481612f80565b82525050565b6125e381612f92565b82525050565b6125f281612f9e565b82525050565b61260961260482612f9e565b61307c565b82525050565b600061261a82612e9e565b6126248185612ea9565b9350612634818560208601613017565b61263d81613176565b840191505092915050565b6000612655601883612ea9565b915061266082613187565b602082019050919050565b6000612678602383612ea9565b9150612683826131b0565b604082019050919050565b600061269b601f83612ea9565b91506126a6826131ff565b602082019050919050565b60006126be601d83612ea9565b91506126c982613228565b602082019050919050565b60006126e1601f83612ea9565b91506126ec82613251565b602082019050919050565b6000612704601983612ea9565b915061270f8261327a565b602082019050919050565b6000612727602283612ea9565b9150612732826132a3565b604082019050919050565b600061274a600283612eba565b9150612755826132f2565b600282019050919050565b600061276d601d83612ea9565b91506127788261331b565b602082019050919050565b6000612790601d83612ea9565b915061279b82613344565b602082019050919050565b60006127b3602683612ea9565b91506127be8261336d565b604082019050919050565b60006127d6602283612ea9565b91506127e1826133bc565b604082019050919050565b60006127f9602283612ea9565b91506128048261340b565b604082019050919050565b600061281c601e83612ea9565b91506128278261345a565b602082019050919050565b600061283f603083612ea9565b915061284a82613483565b604082019050919050565b6000612862602783612ea9565b915061286d826134d2565b604082019050919050565b6000612885602583612ea9565b915061289082613521565b604082019050919050565b60006128a8602683612ea9565b91506128b382613570565b604082019050919050565b60006128cb602483612ea9565b91506128d6826135bf565b604082019050919050565b60006128ee602583612ea9565b91506128f98261360e565b604082019050919050565b6000612911601f83612ea9565b915061291c8261365d565b602082019050919050565b60408201600082015161293d6000850182612974565b5060208201516129506020850182612956565b50505050565b61295f81612fc8565b82525050565b61296e81612ff0565b82525050565b61297d81612ffa565b82525050565b61298c81612ffa565b82525050565b61299b8161300a565b82525050565b60006129ac8261273d565b91506129b882856125f8565b6020820191506129c882846125f8565b6020820191508190509392505050565b60006020820190506129ed60008301846125cb565b92915050565b6000602082019050612a0860008301846125da565b92915050565b6000602082019050612a2360008301846125e9565b92915050565b600060c082019050612a3e60008301896125e9565b612a4b60208301886125cb565b612a5860408301876125cb565b612a656060830186612965565b612a726080830185612965565b612a7f60a0830184612965565b979650505050505050565b6000608082019050612a9f60008301876125e9565b612aac60208301866125cb565b612ab96040830185612965565b612ac66060830184612965565b95945050505050565b600060a082019050612ae460008301886125e9565b612af160208301876125e9565b612afe60408301866125e9565b612b0b6060830185612965565b612b1860808301846125cb565b9695505050505050565b6000608082019050612b3760008301876125e9565b612b446020830186612992565b612b5160408301856125e9565b612b5e60608301846125e9565b95945050505050565b60006020820190508181036000830152612b81818461260f565b905092915050565b60006020820190508181036000830152612ba281612648565b9050919050565b60006020820190508181036000830152612bc28161266b565b9050919050565b60006020820190508181036000830152612be28161268e565b9050919050565b60006020820190508181036000830152612c02816126b1565b9050919050565b60006020820190508181036000830152612c22816126d4565b9050919050565b60006020820190508181036000830152612c42816126f7565b9050919050565b60006020820190508181036000830152612c628161271a565b9050919050565b60006020820190508181036000830152612c8281612760565b9050919050565b60006020820190508181036000830152612ca281612783565b9050919050565b60006020820190508181036000830152612cc2816127a6565b9050919050565b60006020820190508181036000830152612ce2816127c9565b9050919050565b60006020820190508181036000830152612d02816127ec565b9050919050565b60006020820190508181036000830152612d228161280f565b9050919050565b60006020820190508181036000830152612d4281612832565b9050919050565b60006020820190508181036000830152612d6281612855565b9050919050565b60006020820190508181036000830152612d8281612878565b9050919050565b60006020820190508181036000830152612da28161289b565b9050919050565b60006020820190508181036000830152612dc2816128be565b9050919050565b60006020820190508181036000830152612de2816128e1565b9050919050565b60006020820190508181036000830152612e0281612904565b9050919050565b6000604082019050612e1e6000830184612927565b92915050565b6000602082019050612e396000830184612965565b92915050565b6000604082019050612e546000830185612965565b612e616020830184612965565b9392505050565b6000602082019050612e7d6000830184612983565b92915050565b6000602082019050612e986000830184612992565b92915050565b600081519050919050565b600082825260208201905092915050565b600081905092915050565b6000612ed082612ff0565b9150612edb83612ff0565b9250827fffffffffffffffffffffffffffffffffffffffffffffffffffffffffffffffff03821115612f1057612f0f613086565b5b828201905092915050565b6000612f2682612ff0565b9150612f3183612ff0565b925082612f4157612f406130b5565b5b828204905092915050565b6000612f5782612ff0565b9150612f6283612ff0565b925082821015612f7557612f74613086565b5b828203905092915050565b6000612f8b82612fa8565b9050919050565b60008115159050919050565b6000819050919050565b600073ffffffffffffffffffffffffffffffffffffffff82169050919050565b60007bffffffffffffffffffffffffffffffffffffffffffffffffffffffff82169050919050565b6000819050919050565b600063ffffffff82169050919050565b600060ff82169050919050565b60005b8381101561303557808201518184015260208101905061301a565b83811115613044576000848401525b50505050565b6000600282049050600182168061306257607f821691505b6020821081141561307657613075613113565b5b50919050565b6000819050919050565b7f4e487b7100000000000000000000000000000000000000000000000000000000600052601160045260246000fd5b7f4e487b7100000000000000000000000000000000000000000000000000000000600052601260045260246000fd5b7f4e487b7100000000000000000000000000000000000000000000000000000000600052602160045260246000fd5b7f4e487b7100000000000000000000000000000000000000000000000000000000600052602260045260246000fd5b7f4e487b7100000000000000000000000000000000000000000000000000000000600052603260045260246000fd5b600080fd5b6000601f19601f8301169050919050565b7f45434453413a20696e76616c6964207369676e61747572650000000000000000600082015250565b7f45524332303a207472616e7366657220746f20746865207a65726f206164647260008201527f6573730000000000000000000000000000000000000000000000000000000000602082015250565b7f4552433230566f7465733a20626c6f636b206e6f7420796574206d696e656400600082015250565b7f4552433230566f7465733a207369676e61747572652065787069726564000000600082015250565b7f45434453413a20696e76616c6964207369676e6174757265206c656e67746800600082015250565b7f4552433230566f7465733a20696e76616c6964206e6f6e636500000000000000600082015250565b7f45524332303a20617070726f766520746f20746865207a65726f20616464726560008201527f7373000000000000000000000000000000000000000000000000000000000000602082015250565b7f1901000000000000000000000000000000000000000000000000000000000000600082015250565b7f45524332303a20696e73756666696369656e7420616c6c6f77616e6365000000600082015250565b7f45524332305065726d69743a206578706972656420646561646c696e65000000600082015250565b7f45524332303a207472616e7366657220616d6f756e742065786365656473206260008201527f616c616e63650000000000000000000000000000000000000000000000000000602082015250565b7f45434453413a20696e76616c6964207369676e6174757265202773272076616c60008201527f7565000000000000000000000000000000000000000000000000000000000000602082015250565b7f45434453413a20696e76616c6964207369676e6174757265202776272076616c60008201527f7565000000000000000000000000000000000000000000000000000000000000602082015250565b7f45524332305065726d69743a20696e76616c6964207369676e61747572650000600082015250565b7f4552433230566f7465733a20746f74616c20737570706c79207269736b73206f60008201527f766572666c6f77696e6720766f74657300000000000000000000000000000000602082015250565b7f53616665436173743a2076616c756520646f65736e27742066697420696e203260008201527f3234206269747300000000000000000000000000000000000000000000000000602082015250565b7f45524332303a207472616e736665722066726f6d20746865207a65726f20616460008201527f6472657373000000000000000000000000000000000000000000000000000000602082015250565b7f53616665436173743a2076616c756520646f65736e27742066697420696e203360008201527f3220626974730000000000000000000000000000000000000000000000000000602082015250565b7f45524332303a20617070726f76652066726f6d20746865207a65726f2061646460008201527f7265737300000000000000000000000000000000000000000000000000000000602082015250565b7f45524332303a2064656372656173656420616c6c6f77616e63652062656c6f7760008201527f207a65726f000000000000000000000000000000000000000000000000000000602082015250565b7f45524332303a206d696e7420746f20746865207a65726f206164647265737300600082015250565b61368f81612f80565b811461369a57600080fd5b50565b6136a681612f9e565b81146136b157600080fd5b50565b6136bd81612ff0565b81146136c857600080fd5b50565b6136d481612ffa565b81146136df57600080fd5b50565b6136eb8161300a565b81146136f657600080fd5b5056fea2646970667358221220b01ae6d64742d12b3820b81d2a33656a0853c88702695b6408e1bdc7f3101a2864736f6c63430008050033",
  "immutableReferences": {
    "14653": [
      {
        "length": 32,
        "start": 5861
      }
    ],
    "14655": [
      {
        "length": 32,
        "start": 5820
      }
    ],
    "14657": [
      {
        "length": 32,
        "start": 5734
      }
    ],
    "14659": [
      {
        "length": 32,
        "start": 5937
      }
    ],
    "14661": [
      {
        "length": 32,
        "start": 5970
      }
    ],
    "14663": [
      {
        "length": 32,
        "start": 5904
      }
    ]
  },
  "source": "// SPDX-License-Identifier: MIT\r\npragma solidity ^0.8.2;\r\n\r\nimport \"@openzeppelin/contracts/token/ERC20/ERC20.sol\";\r\nimport \"@openzeppelin/contracts/token/ERC20/extensions/draft-ERC20Permit.sol\";\r\nimport \"@openzeppelin/contracts/token/ERC20/extensions/ERC20Votes.sol\";\r\n\r\ncontract MyToken is ERC20, ERC20Permit, ERC20Votes {\r\n    constructor() ERC20(\"MyToken\", \"MTK\") ERC20Permit(\"MyToken\") {\r\n        _mint(msg.sender, 100 * (10 **18));\r\n    }\r\n\r\n    // The functions below are overrides required by Solidity.\r\n\r\n\r\n    function _afterTokenTransfer(address from, address to, uint256 amount)\r\n        internal\r\n        override(ERC20, ERC20Votes)\r\n    {\r\n        super._afterTokenTransfer(from, to, amount);\r\n    }\r\n\r\n    function _mint(address to, uint256 amount)\r\n        internal\r\n        override(ERC20, ERC20Votes)\r\n    {\r\n        super._mint(to, amount);\r\n    }\r\n\r\n    function _burn(address account, uint256 amount)\r\n        internal\r\n        override(ERC20, ERC20Votes)\r\n    {\r\n        super._burn(account, amount);\r\n    }\r\n}",
  "sourcePath": "/home/stephenstb/Ratio-Labs/ratio-labs/contracts/old_contracts/MyToken.sol",
  "compiler": {
    "name": "solc",
    "version": "0.8.5+commit.a4f2e591.Emscripten.clang"
  },
  "schemaVersion": "3.3.3",
  "updatedAt": "2022-06-23T01:08:52.476Z",
  "devdoc": {
    "kind": "dev",
    "methods": {
      "DOMAIN_SEPARATOR()": {
        "details": "See {IERC20Permit-DOMAIN_SEPARATOR}."
      },
      "allowance(address,address)": {
        "details": "See {IERC20-allowance}."
      },
      "approve(address,uint256)": {
        "details": "See {IERC20-approve}. NOTE: If `amount` is the maximum `uint256`, the allowance is not updated on `transferFrom`. This is semantically equivalent to an infinite approval. Requirements: - `spender` cannot be the zero address."
      },
      "balanceOf(address)": {
        "details": "See {IERC20-balanceOf}."
      },
      "checkpoints(address,uint32)": {
        "details": "Get the `pos`-th checkpoint for `account`."
      },
      "decimals()": {
        "details": "Returns the number of decimals used to get its user representation. For example, if `decimals` equals `2`, a balance of `505` tokens should be displayed to a user as `5.05` (`505 / 10 ** 2`). Tokens usually opt for a value of 18, imitating the relationship between Ether and Wei. This is the value {ERC20} uses, unless this function is overridden; NOTE: This information is only used for _display_ purposes: it in no way affects any of the arithmetic of the contract, including {IERC20-balanceOf} and {IERC20-transfer}."
      },
      "decreaseAllowance(address,uint256)": {
        "details": "Atomically decreases the allowance granted to `spender` by the caller. This is an alternative to {approve} that can be used as a mitigation for problems described in {IERC20-approve}. Emits an {Approval} event indicating the updated allowance. Requirements: - `spender` cannot be the zero address. - `spender` must have allowance for the caller of at least `subtractedValue`."
      },
      "delegate(address)": {
        "details": "Delegate votes from the sender to `delegatee`."
      },
      "delegateBySig(address,uint256,uint256,uint8,bytes32,bytes32)": {
        "details": "Delegates votes from signer to `delegatee`"
      },
      "delegates(address)": {
        "details": "Get the address `account` is currently delegating to."
      },
      "getPastTotalSupply(uint256)": {
        "details": "Retrieve the `totalSupply` at the end of `blockNumber`. Note, this value is the sum of all balances. It is but NOT the sum of all the delegated votes! Requirements: - `blockNumber` must have been already mined"
      },
      "getPastVotes(address,uint256)": {
        "details": "Retrieve the number of votes for `account` at the end of `blockNumber`. Requirements: - `blockNumber` must have been already mined"
      },
      "getVotes(address)": {
        "details": "Gets the current votes balance for `account`"
      },
      "increaseAllowance(address,uint256)": {
        "details": "Atomically increases the allowance granted to `spender` by the caller. This is an alternative to {approve} that can be used as a mitigation for problems described in {IERC20-approve}. Emits an {Approval} event indicating the updated allowance. Requirements: - `spender` cannot be the zero address."
      },
      "name()": {
        "details": "Returns the name of the token."
      },
      "nonces(address)": {
        "details": "See {IERC20Permit-nonces}."
      },
      "numCheckpoints(address)": {
        "details": "Get number of checkpoints for `account`."
      },
      "permit(address,address,uint256,uint256,uint8,bytes32,bytes32)": {
        "details": "See {IERC20Permit-permit}."
      },
      "symbol()": {
        "details": "Returns the symbol of the token, usually a shorter version of the name."
      },
      "totalSupply()": {
        "details": "See {IERC20-totalSupply}."
      },
      "transfer(address,uint256)": {
        "details": "See {IERC20-transfer}. Requirements: - `to` cannot be the zero address. - the caller must have a balance of at least `amount`."
      },
      "transferFrom(address,address,uint256)": {
        "details": "See {IERC20-transferFrom}. Emits an {Approval} event indicating the updated allowance. This is not required by the EIP. See the note at the beginning of {ERC20}. NOTE: Does not update the allowance if the current allowance is the maximum `uint256`. Requirements: - `from` and `to` cannot be the zero address. - `from` must have a balance of at least `amount`. - the caller must have allowance for ``from``'s tokens of at least `amount`."
      }
    },
    "version": 1
  },
  "userdoc": {
    "kind": "user",
    "methods": {},
    "version": 1
  }
}