{
  "contractName": "NFTChef",
  "abi": [
    {
      "inputs": [
        {
          "internalType": "contract CryptoGame",
          "name": "_cryptoGame",
          "type": "address"
        },
        {
          "internalType": "address",
          "name": "_devaddr",
          "type": "address"
        },
        {
          "internalType": "uint256",
          "name": "_CryptoGamePerBlock",
          "type": "uint256"
        },
        {
          "internalType": "uint256",
          "name": "_startBlock",
          "type": "uint256"
        },
        {
          "internalType": "uint256",
          "name": "_bonusEndBlock",
          "type": "uint256"
        }
      ],
      "stateMutability": "nonpayable",
      "type": "constructor"
    },
    {
      "anonymous": false,
      "inputs": [
        {
          "indexed": true,
          "internalType": "address",
          "name": "nft",
          "type": "address"
        },
        {
          "indexed": true,
          "internalType": "uint256",
          "name": "pid",
          "type": "uint256"
        },
        {
          "indexed": false,
          "internalType": "uint256",
          "name": "amount",
          "type": "uint256"
        }
      ],
      "name": "Deposit",
      "type": "event"
    },
    {
      "anonymous": false,
      "inputs": [
        {
          "indexed": true,
          "internalType": "address",
          "name": "nft",
          "type": "address"
        },
        {
          "indexed": true,
          "internalType": "uint256",
          "name": "pid",
          "type": "uint256"
        },
        {
          "indexed": false,
          "internalType": "uint256",
          "name": "amount",
          "type": "uint256"
        }
      ],
      "name": "EmergencyWithdraw",
      "type": "event"
    },
    {
      "anonymous": false,
      "inputs": [
        {
          "indexed": true,
          "internalType": "address",
          "name": "nft",
          "type": "address"
        },
        {
          "indexed": true,
          "internalType": "uint256",
          "name": "pid",
          "type": "uint256"
        },
        {
          "indexed": false,
          "internalType": "uint256",
          "name": "pending",
          "type": "uint256"
        }
      ],
      "name": "Harvest",
      "type": "event"
    },
    {
      "anonymous": false,
      "inputs": [
        {
          "indexed": true,
          "internalType": "address",
          "name": "previousOwner",
          "type": "address"
        },
        {
          "indexed": true,
          "internalType": "address",
          "name": "newOwner",
          "type": "address"
        }
      ],
      "name": "OwnershipTransferred",
      "type": "event"
    },
    {
      "anonymous": false,
      "inputs": [
        {
          "indexed": true,
          "internalType": "address",
          "name": "nft",
          "type": "address"
        },
        {
          "indexed": true,
          "internalType": "uint256",
          "name": "pid",
          "type": "uint256"
        },
        {
          "indexed": false,
          "internalType": "uint256",
          "name": "amount",
          "type": "uint256"
        }
      ],
      "name": "Withdraw",
      "type": "event"
    },
    {
      "inputs": [],
      "name": "BONUS_MULTIPLIER",
      "outputs": [
        {
          "internalType": "uint256",
          "name": "",
          "type": "uint256"
        }
      ],
      "stateMutability": "view",
      "type": "function"
    },
    {
      "inputs": [],
      "name": "CryptoGamePerBlock",
      "outputs": [
        {
          "internalType": "uint256",
          "name": "",
          "type": "uint256"
        }
      ],
      "stateMutability": "view",
      "type": "function"
    },
    {
      "inputs": [],
      "name": "bonusEndBlock",
      "outputs": [
        {
          "internalType": "uint256",
          "name": "",
          "type": "uint256"
        }
      ],
      "stateMutability": "view",
      "type": "function"
    },
    {
      "inputs": [],
      "name": "cryptoGame",
      "outputs": [
        {
          "internalType": "contract CryptoGame",
          "name": "",
          "type": "address"
        }
      ],
      "stateMutability": "view",
      "type": "function"
    },
    {
      "inputs": [],
      "name": "devaddr",
      "outputs": [
        {
          "internalType": "address",
          "name": "",
          "type": "address"
        }
      ],
      "stateMutability": "view",
      "type": "function"
    },
    {
      "inputs": [
        {
          "internalType": "uint256",
          "name": "",
          "type": "uint256"
        },
        {
          "internalType": "uint256",
          "name": "",
          "type": "uint256"
        }
      ],
      "name": "nftInfo",
      "outputs": [
        {
          "internalType": "uint256",
          "name": "amount",
          "type": "uint256"
        },
        {
          "internalType": "uint256",
          "name": "rewardDebt",
          "type": "uint256"
        }
      ],
      "stateMutability": "view",
      "type": "function"
    },
    {
      "inputs": [],
      "name": "owner",
      "outputs": [
        {
          "internalType": "address",
          "name": "",
          "type": "address"
        }
      ],
      "stateMutability": "view",
      "type": "function"
    },
    {
      "inputs": [
        {
          "internalType": "uint256",
          "name": "",
          "type": "uint256"
        }
      ],
      "name": "poolInfo",
      "outputs": [
        {
          "internalType": "contract IERC721",
          "name": "nftToken",
          "type": "address"
        },
        {
          "internalType": "contract IERC20",
          "name": "colToken",
          "type": "address"
        },
        {
          "internalType": "uint256",
          "name": "allocPoint",
          "type": "uint256"
        },
        {
          "internalType": "uint256",
          "name": "lastRewardBlock",
          "type": "uint256"
        },
        {
          "internalType": "uint256",
          "name": "accCryptoGamePerShare",
          "type": "uint256"
        }
      ],
      "stateMutability": "view",
      "type": "function"
    },
    {
      "inputs": [],
      "name": "renounceOwnership",
      "outputs": [],
      "stateMutability": "nonpayable",
      "type": "function"
    },
    {
      "inputs": [],
      "name": "startBlock",
      "outputs": [
        {
          "internalType": "uint256",
          "name": "",
          "type": "uint256"
        }
      ],
      "stateMutability": "view",
      "type": "function"
    },
    {
      "inputs": [],
      "name": "totalAllocPoint",
      "outputs": [
        {
          "internalType": "uint256",
          "name": "",
          "type": "uint256"
        }
      ],
      "stateMutability": "view",
      "type": "function"
    },
    {
      "inputs": [
        {
          "internalType": "address",
          "name": "newOwner",
          "type": "address"
        }
      ],
      "name": "transferOwnership",
      "outputs": [],
      "stateMutability": "nonpayable",
      "type": "function"
    },
    {
      "inputs": [],
      "name": "poolLength",
      "outputs": [
        {
          "internalType": "uint256",
          "name": "",
          "type": "uint256"
        }
      ],
      "stateMutability": "view",
      "type": "function"
    },
    {
      "inputs": [
        {
          "internalType": "uint256",
          "name": "_allocPoint",
          "type": "uint256"
        },
        {
          "internalType": "contract IERC721",
          "name": "_nftToken",
          "type": "address"
        },
        {
          "internalType": "contract IERC20",
          "name": "_colToken",
          "type": "address"
        },
        {
          "internalType": "bool",
          "name": "_withUpdate",
          "type": "bool"
        }
      ],
      "name": "add",
      "outputs": [],
      "stateMutability": "nonpayable",
      "type": "function"
    },
    {
      "inputs": [
        {
          "internalType": "uint256",
          "name": "_pid",
          "type": "uint256"
        },
        {
          "internalType": "uint256",
          "name": "_allocPoint",
          "type": "uint256"
        },
        {
          "internalType": "bool",
          "name": "_withUpdate",
          "type": "bool"
        }
      ],
      "name": "set",
      "outputs": [],
      "stateMutability": "nonpayable",
      "type": "function"
    },
    {
      "inputs": [
        {
          "internalType": "uint256",
          "name": "_from",
          "type": "uint256"
        },
        {
          "internalType": "uint256",
          "name": "_to",
          "type": "uint256"
        }
      ],
      "name": "getMultiplier",
      "outputs": [
        {
          "internalType": "uint256",
          "name": "",
          "type": "uint256"
        }
      ],
      "stateMutability": "view",
      "type": "function"
    },
    {
      "inputs": [
        {
          "internalType": "uint256",
          "name": "_pid",
          "type": "uint256"
        },
        {
          "internalType": "uint256",
          "name": "_id",
          "type": "uint256"
        }
      ],
      "name": "pendingCryptoGame",
      "outputs": [
        {
          "internalType": "uint256",
          "name": "",
          "type": "uint256"
        }
      ],
      "stateMutability": "view",
      "type": "function"
    },
    {
      "inputs": [],
      "name": "massUpdatePools",
      "outputs": [],
      "stateMutability": "nonpayable",
      "type": "function"
    },
    {
      "inputs": [
        {
          "internalType": "uint256",
          "name": "_pid",
          "type": "uint256"
        }
      ],
      "name": "updatePool",
      "outputs": [],
      "stateMutability": "nonpayable",
      "type": "function"
    },
    {
      "inputs": [
        {
          "internalType": "address",
          "name": "_sender",
          "type": "address"
        },
        {
          "internalType": "uint256",
          "name": "_pid",
          "type": "uint256"
        },
        {
          "internalType": "uint256",
          "name": "_tokenId",
          "type": "uint256"
        },
        {
          "internalType": "uint256",
          "name": "_amount",
          "type": "uint256"
        }
      ],
      "name": "deposit",
      "outputs": [],
      "stateMutability": "nonpayable",
      "type": "function"
    },
    {
      "inputs": [
        {
          "internalType": "address",
          "name": "_sender",
          "type": "address"
        },
        {
          "internalType": "uint256",
          "name": "_pid",
          "type": "uint256"
        },
        {
          "internalType": "uint256",
          "name": "_tokenId",
          "type": "uint256"
        },
        {
          "internalType": "uint256",
          "name": "_amount",
          "type": "uint256"
        }
      ],
      "name": "withdraw",
      "outputs": [],
      "stateMutability": "nonpayable",
      "type": "function"
    },
    {
      "inputs": [
        {
          "internalType": "address",
          "name": "_sender",
          "type": "address"
        },
        {
          "internalType": "uint256",
          "name": "_pid",
          "type": "uint256"
        },
        {
          "internalType": "uint256",
          "name": "_tokenId",
          "type": "uint256"
        }
      ],
      "name": "emergencyWithdraw",
      "outputs": [],
      "stateMutability": "nonpayable",
      "type": "function"
    },
    {
      "inputs": [
        {
          "internalType": "address",
          "name": "_sender",
          "type": "address"
        },
        {
          "internalType": "uint256",
          "name": "_pid",
          "type": "uint256"
        },
        {
          "internalType": "uint256",
          "name": "_id",
          "type": "uint256"
        }
      ],
      "name": "harvest",
      "outputs": [],
      "stateMutability": "nonpayable",
      "type": "function"
    },
    {
      "inputs": [
        {
          "internalType": "address",
          "name": "_devaddr",
          "type": "address"
        }
      ],
      "name": "dev",
      "outputs": [],
      "stateMutability": "nonpayable",
      "type": "function"
    }
  ],
  "bytecode": "0x608060405260006007553480156200001657600080fd5b50604051620029e5380380620029e583398181016040528101906200003c91906200020f565b6200005c62000050620000fe60201b60201c565b6200010660201b60201c565b84600160006101000a81548173ffffffffffffffffffffffffffffffffffffffff021916908373ffffffffffffffffffffffffffffffffffffffff16021790555083600260006101000a81548173ffffffffffffffffffffffffffffffffffffffff021916908373ffffffffffffffffffffffffffffffffffffffff16021790555082600481905550806003819055508160088190555050505050506200033c565b600033905090565b60008060009054906101000a900473ffffffffffffffffffffffffffffffffffffffff169050816000806101000a81548173ffffffffffffffffffffffffffffffffffffffff021916908373ffffffffffffffffffffffffffffffffffffffff1602179055508173ffffffffffffffffffffffffffffffffffffffff168173ffffffffffffffffffffffffffffffffffffffff167f8be0079c531659141344cd1fd0a4f28419497f9722a3daafe3b4186f6b6457e060405160405180910390a35050565b600081519050620001db81620002ee565b92915050565b600081519050620001f28162000308565b92915050565b600081519050620002098162000322565b92915050565b600080600080600060a086880312156200022e576200022d620002e9565b5b60006200023e88828901620001e1565b95505060206200025188828901620001ca565b94505060406200026488828901620001f8565b93505060606200027788828901620001f8565b92505060806200028a88828901620001f8565b9150509295509295909350565b6000620002a482620002bf565b9050919050565b6000620002b88262000297565b9050919050565b600073ffffffffffffffffffffffffffffffffffffffff82169050919050565b6000819050919050565b600080fd5b620002f98162000297565b81146200030557600080fd5b50565b6200031381620002ab565b81146200031f57600080fd5b50565b6200032d81620002df565b81146200033957600080fd5b50565b612699806200034c6000396000f3fe608060405234801561001057600080fd5b50600436106101585760003560e01c80638aa28550116100c3578063ce88b4391161007c578063ce88b4391461037f578063d49e77cd1461039b578063db7c0b82146103b9578063dfa2eec0146103d7578063f2fde38b14610408578063f75887011461042457610158565b80638aa28550146102ab5780638d88a90e146102c95780638da5cb5b146102e55780638dbb1e3a146103035780639a5e5b7014610333578063c71b4b431461036357610158565b80634532d776116101155780634532d7761461022557806348cd4cb11461024157806351eb05a61461025f578063630b5ba11461027b57806364482f7914610285578063715018a6146102a157610158565b8063081e3eda1461015d57806310a4a33d1461017b5780631526fe271461019757806317caf6f1146101cb5780631aed6553146101e957806335d7264214610207575b600080fd5b610165610440565b6040516101729190612209565b60405180910390f35b61019560048036038101906101909190611d8e565b61044d565b005b6101b160048036038101906101ac9190611e75565b61063b565b6040516101c2959493929190612136565b60405180910390f35b6101d36106c1565b6040516101e09190612209565b60405180910390f35b6101f16106c7565b6040516101fe9190612209565b60405180910390f35b61020f6106cd565b60405161021c9190612209565b60405180910390f35b61023f600480360381019061023a9190611de1565b6106d3565b005b6102496109a6565b6040516102569190612209565b60405180910390f35b61027960048036038101906102749190611e75565b6109ac565b005b610283610cae565b005b61029f600480360381019061029a9190611f76565b610ce1565b005b6102a9610ded565b005b6102b3610e75565b6040516102c09190612209565b60405180910390f35b6102e360048036038101906102de9190611d61565b610e7a565b005b6102ed610f4e565b6040516102fa91906120a0565b60405180910390f35b61031d60048036038101906103189190611f36565b610f77565b60405161032a9190612209565b60405180910390f35b61034d60048036038101906103489190611f36565b611029565b60405161035a9190612209565b60405180910390f35b61037d60048036038101906103789190611ecf565b611231565b005b61039960048036038101906103949190611de1565b611422565b005b6103a3611659565b6040516103b091906120a0565b60405180910390f35b6103c161167f565b6040516103ce919061211b565b60405180910390f35b6103f160048036038101906103ec9190611f36565b6116a5565b6040516103ff929190612224565b60405180910390f35b610422600480360381019061041d9190611d61565b6116d6565b005b61043e60048036038101906104399190611d8e565b6117ce565b005b6000600580549050905090565b610455611988565b73ffffffffffffffffffffffffffffffffffffffff16610473610f4e565b73ffffffffffffffffffffffffffffffffffffffff16146104c9576040517f08c379a00000000000000000000000000000000000000000000000000000000081526004016104c0906121c9565b60405180910390fd5b6000600583815481106104df576104de6124f2565b5b90600052602060002090600502019050600060066000858152602001908152602001600020600084815260200190815260200160002090508160010160009054906101000a900473ffffffffffffffffffffffffffffffffffffffff1673ffffffffffffffffffffffffffffffffffffffff1663a9059cbb8683600001546040518363ffffffff1660e01b815260040161057a9291906120f2565b602060405180830381600087803b15801561059457600080fd5b505af11580156105a8573d6000803e3d6000fd5b505050506040513d601f19601f820116820180604052508101906105cc9190611e48565b50838573ffffffffffffffffffffffffffffffffffffffff167fbb757047c2b5f3974fe26b7c10f732e7bce710b0952a71082702781e62ae059583600001546040516106189190612209565b60405180910390a360008160000181905550600081600101819055505050505050565b6005818154811061064b57600080fd5b90600052602060002090600502016000915090508060000160009054906101000a900473ffffffffffffffffffffffffffffffffffffffff16908060010160009054906101000a900473ffffffffffffffffffffffffffffffffffffffff16908060020154908060030154908060040154905085565b60075481565b60035481565b60045481565b6106db611988565b73ffffffffffffffffffffffffffffffffffffffff166106f9610f4e565b73ffffffffffffffffffffffffffffffffffffffff161461074f576040517f08c379a0000000000000000000000000000000000000000000000000000000008152600401610746906121c9565b60405180910390fd5b600060058481548110610765576107646124f2565b5b906000526020600020906005020190506000600660008681526020019081526020016000206000858152602001908152602001600020905082816000015410156107e4576040517f08c379a00000000000000000000000000000000000000000000000000000000081526004016107db906121e9565b60405180910390fd5b6107ed856109ac565b6000610837826001015461082964e8d4a5100061081b8760040154876000015461199090919063ffffffff16565b6119a690919063ffffffff16565b6119bc90919063ffffffff16565b905061084387826119d2565b61085a8483600001546119bc90919063ffffffff16565b826000018190555061089464e8d4a510006108868560040154856000015461199090919063ffffffff16565b6119a690919063ffffffff16565b82600101819055508260010160009054906101000a900473ffffffffffffffffffffffffffffffffffffffff1673ffffffffffffffffffffffffffffffffffffffff1663a9059cbb88866040518363ffffffff1660e01b81526004016108fb9291906120f2565b602060405180830381600087803b15801561091557600080fd5b505af1158015610929573d6000803e3d6000fd5b505050506040513d601f19601f8201168201806040525081019061094d9190611e48565b50858773ffffffffffffffffffffffffffffffffffffffff167ff279e6a1f5e320cca91135676d9cb6e44ca8a08c0b88342bcdb1144f6511b568866040516109959190612209565b60405180910390a350505050505050565b60085481565b6000600582815481106109c2576109c16124f2565b5b90600052602060002090600502019050806003015443116109e35750610cab565b60008160010160009054906101000a900473ffffffffffffffffffffffffffffffffffffffff1673ffffffffffffffffffffffffffffffffffffffff166370a08231306040518263ffffffff1660e01b8152600401610a4291906120a0565b60206040518083038186803b158015610a5a57600080fd5b505afa158015610a6e573d6000803e3d6000fd5b505050506040513d601f19601f82011682018060405250810190610a929190611ea2565b90506000811415610aad574382600301819055505050610cab565b6000610abd836003015443610f77565b90506000610b00600754610af28660020154610ae46004548761199090919063ffffffff16565b61199090919063ffffffff16565b6119a690919063ffffffff16565b9050600160009054906101000a900473ffffffffffffffffffffffffffffffffffffffff1673ffffffffffffffffffffffffffffffffffffffff166340c10f19600260009054906101000a900473ffffffffffffffffffffffffffffffffffffffff16610b77600a856119a690919063ffffffff16565b6040518363ffffffff1660e01b8152600401610b949291906120f2565b600060405180830381600087803b158015610bae57600080fd5b505af1158015610bc2573d6000803e3d6000fd5b50505050600160009054906101000a900473ffffffffffffffffffffffffffffffffffffffff1673ffffffffffffffffffffffffffffffffffffffff166340c10f1930836040518363ffffffff1660e01b8152600401610c239291906120f2565b600060405180830381600087803b158015610c3d57600080fd5b505af1158015610c51573d6000803e3d6000fd5b50505050610c95610c8284610c7464e8d4a510008561199090919063ffffffff16565b6119a690919063ffffffff16565b8560040154611bf490919063ffffffff16565b8460040181905550438460030181905550505050505b50565b6000600580549050905060005b81811015610cdd57610ccc816109ac565b80610cd69061244b565b9050610cbb565b5050565b610ce9611988565b73ffffffffffffffffffffffffffffffffffffffff16610d07610f4e565b73ffffffffffffffffffffffffffffffffffffffff1614610d5d576040517f08c379a0000000000000000000000000000000000000000000000000000000008152600401610d54906121c9565b60405180910390fd5b8015610d6c57610d6b610cae565b5b610db882610daa60058681548110610d8757610d866124f2565b5b9060005260206000209060050201600201546007546119bc90919063ffffffff16565b611bf490919063ffffffff16565b6007819055508160058481548110610dd357610dd26124f2565b5b906000526020600020906005020160020181905550505050565b610df5611988565b73ffffffffffffffffffffffffffffffffffffffff16610e13610f4e565b73ffffffffffffffffffffffffffffffffffffffff1614610e69576040517f08c379a0000000000000000000000000000000000000000000000000000000008152600401610e60906121c9565b60405180910390fd5b610e736000611c0a565b565b600a81565b600260009054906101000a900473ffffffffffffffffffffffffffffffffffffffff1673ffffffffffffffffffffffffffffffffffffffff163373ffffffffffffffffffffffffffffffffffffffff1614610f0a576040517f08c379a0000000000000000000000000000000000000000000000000000000008152600401610f01906121a9565b60405180910390fd5b80600260006101000a81548173ffffffffffffffffffffffffffffffffffffffff021916908373ffffffffffffffffffffffffffffffffffffffff16021790555050565b60008060009054906101000a900473ffffffffffffffffffffffffffffffffffffffff16905090565b60006003548211610faf57610fa8600a610f9a85856119bc90919063ffffffff16565b61199090919063ffffffff16565b9050611023565b6003548310610fd257610fcb83836119bc90919063ffffffff16565b9050611023565b611020610fea600354846119bc90919063ffffffff16565b611012600a611004876003546119bc90919063ffffffff16565b61199090919063ffffffff16565b611bf490919063ffffffff16565b90505b92915050565b600080600584815481106110405761103f6124f2565b5b906000526020600020906005020190506000600660008681526020019081526020016000206000858152602001908152602001600020905060008260040154905060008360010160009054906101000a900473ffffffffffffffffffffffffffffffffffffffff1673ffffffffffffffffffffffffffffffffffffffff166370a08231306040518263ffffffff1660e01b81526004016110e091906120a0565b60206040518083038186803b1580156110f857600080fd5b505afa15801561110c573d6000803e3d6000fd5b505050506040513d601f19601f820116820180604052508101906111309190611ea2565b9050836003015443118015611146575060008114155b156111e157600061115b856003015443610f77565b9050600061119e60075461119088600201546111826004548761199090919063ffffffff16565b61199090919063ffffffff16565b6119a690919063ffffffff16565b90506111dc6111cd846111bf64e8d4a510008561199090919063ffffffff16565b6119a690919063ffffffff16565b85611bf490919063ffffffff16565b935050505b611225836001015461121764e8d4a5100061120986886000015461199090919063ffffffff16565b6119a690919063ffffffff16565b6119bc90919063ffffffff16565b94505050505092915050565b611239611988565b73ffffffffffffffffffffffffffffffffffffffff16611257610f4e565b73ffffffffffffffffffffffffffffffffffffffff16146112ad576040517f08c379a00000000000000000000000000000000000000000000000000000000081526004016112a4906121c9565b60405180910390fd5b80156112bc576112bb610cae565b5b600060085443116112cf576008546112d1565b435b90506112e885600754611bf490919063ffffffff16565b60078190555060056040518060a001604052808673ffffffffffffffffffffffffffffffffffffffff1681526020018573ffffffffffffffffffffffffffffffffffffffff1681526020018781526020018381526020016000815250908060018154018082558091505060019003906000526020600020906005020160009091909190915060008201518160000160006101000a81548173ffffffffffffffffffffffffffffffffffffffff021916908373ffffffffffffffffffffffffffffffffffffffff16021790555060208201518160010160006101000a81548173ffffffffffffffffffffffffffffffffffffffff021916908373ffffffffffffffffffffffffffffffffffffffff16021790555060408201518160020155606082015181600301556080820151816004015550505050505050565b61142a611988565b73ffffffffffffffffffffffffffffffffffffffff16611448610f4e565b73ffffffffffffffffffffffffffffffffffffffff161461149e576040517f08c379a0000000000000000000000000000000000000000000000000000000008152600401611495906121c9565b60405180910390fd5b6000600584815481106114b4576114b36124f2565b5b90600052602060002090600502019050600060066000868152602001908152602001600020600085815260200190815260200160002090506114f5856109ac565b8160010160009054906101000a900473ffffffffffffffffffffffffffffffffffffffff1673ffffffffffffffffffffffffffffffffffffffff166323b872dd8730866040518463ffffffff1660e01b8152600401611556939291906120bb565b602060405180830381600087803b15801561157057600080fd5b505af1158015611584573d6000803e3d6000fd5b505050506040513d601f19601f820116820180604052508101906115a89190611e48565b506115c0838260000154611bf490919063ffffffff16565b81600001819055506115fa64e8d4a510006115ec8460040154846000015461199090919063ffffffff16565b6119a690919063ffffffff16565b8160010181905550848673ffffffffffffffffffffffffffffffffffffffff167f90890809c654f11d6e72a28fa60149770a0d11ec6c92319d6ceb2bb0a4ea1a15856040516116499190612209565b60405180910390a3505050505050565b600260009054906101000a900473ffffffffffffffffffffffffffffffffffffffff1681565b600160009054906101000a900473ffffffffffffffffffffffffffffffffffffffff1681565b6006602052816000526040600020602052806000526040600020600091509150508060000154908060010154905082565b6116de611988565b73ffffffffffffffffffffffffffffffffffffffff166116fc610f4e565b73ffffffffffffffffffffffffffffffffffffffff1614611752576040517f08c379a0000000000000000000000000000000000000000000000000000000008152600401611749906121c9565b60405180910390fd5b600073ffffffffffffffffffffffffffffffffffffffff168173ffffffffffffffffffffffffffffffffffffffff1614156117c2576040517f08c379a00000000000000000000000000000000000000000000000000000000081526004016117b990612189565b60405180910390fd5b6117cb81611c0a565b50565b6117d6611988565b73ffffffffffffffffffffffffffffffffffffffff166117f4610f4e565b73ffffffffffffffffffffffffffffffffffffffff161461184a576040517f08c379a0000000000000000000000000000000000000000000000000000000008152600401611841906121c9565b60405180910390fd5b6000600583815481106118605761185f6124f2565b5b90600052602060002090600502019050600060066000858152602001908152602001600020600084815260200190815260200160002090506118a1846109ac565b60006118eb82600101546118dd64e8d4a510006118cf8760040154876000015461199090919063ffffffff16565b6119a690919063ffffffff16565b6119bc90919063ffffffff16565b90506118f786826119d2565b61192964e8d4a5100061191b8560040154856000015461199090919063ffffffff16565b6119a690919063ffffffff16565b8260010181905550848673ffffffffffffffffffffffffffffffffffffffff167f71bab65ced2e5750775a0613be067df48ef06cf92a496ebf7663ae0660924954836040516119789190612209565b60405180910390a3505050505050565b600033905090565b6000818361199e91906122e5565b905092915050565b600081836119b491906122b4565b905092915050565b600081836119ca919061233f565b905092915050565b6000600160009054906101000a900473ffffffffffffffffffffffffffffffffffffffff1673ffffffffffffffffffffffffffffffffffffffff166370a08231306040518263ffffffff1660e01b8152600401611a2f91906120a0565b60206040518083038186803b158015611a4757600080fd5b505afa158015611a5b573d6000803e3d6000fd5b505050506040513d601f19601f82011682018060405250810190611a7f9190611ea2565b905080821115611b3e57600160009054906101000a900473ffffffffffffffffffffffffffffffffffffffff1673ffffffffffffffffffffffffffffffffffffffff1663a9059cbb84836040518363ffffffff1660e01b8152600401611ae69291906120f2565b602060405180830381600087803b158015611b0057600080fd5b505af1158015611b14573d6000803e3d6000fd5b505050506040513d601f19601f82011682018060405250810190611b389190611e48565b50611bef565b600160009054906101000a900473ffffffffffffffffffffffffffffffffffffffff1673ffffffffffffffffffffffffffffffffffffffff1663a9059cbb84846040518363ffffffff1660e01b8152600401611b9b9291906120f2565b602060405180830381600087803b158015611bb557600080fd5b505af1158015611bc9573d6000803e3d6000fd5b505050506040513d601f19601f82011682018060405250810190611bed9190611e48565b505b505050565b60008183611c02919061225e565b905092915050565b60008060009054906101000a900473ffffffffffffffffffffffffffffffffffffffff169050816000806101000a81548173ffffffffffffffffffffffffffffffffffffffff021916908373ffffffffffffffffffffffffffffffffffffffff1602179055508173ffffffffffffffffffffffffffffffffffffffff168173ffffffffffffffffffffffffffffffffffffffff167f8be0079c531659141344cd1fd0a4f28419497f9722a3daafe3b4186f6b6457e060405160405180910390a35050565b600081359050611cdd816125f0565b92915050565b600081359050611cf281612607565b92915050565b600081519050611d0781612607565b92915050565b600081359050611d1c8161261e565b92915050565b600081359050611d3181612635565b92915050565b600081359050611d468161264c565b92915050565b600081519050611d5b8161264c565b92915050565b600060208284031215611d7757611d76612521565b5b6000611d8584828501611cce565b91505092915050565b600080600060608486031215611da757611da6612521565b5b6000611db586828701611cce565b9350506020611dc686828701611d37565b9250506040611dd786828701611d37565b9150509250925092565b60008060008060808587031215611dfb57611dfa612521565b5b6000611e0987828801611cce565b9450506020611e1a87828801611d37565b9350506040611e2b87828801611d37565b9250506060611e3c87828801611d37565b91505092959194509250565b600060208284031215611e5e57611e5d612521565b5b6000611e6c84828501611cf8565b91505092915050565b600060208284031215611e8b57611e8a612521565b5b6000611e9984828501611d37565b91505092915050565b600060208284031215611eb857611eb7612521565b5b6000611ec684828501611d4c565b91505092915050565b60008060008060808587031215611ee957611ee8612521565b5b6000611ef787828801611d37565b9450506020611f0887828801611d22565b9350506040611f1987828801611d0d565b9250506060611f2a87828801611ce3565b91505092959194509250565b60008060408385031215611f4d57611f4c612521565b5b6000611f5b85828601611d37565b9250506020611f6c85828601611d37565b9150509250929050565b600080600060608486031215611f8f57611f8e612521565b5b6000611f9d86828701611d37565b9350506020611fae86828701611d37565b9250506040611fbf86828701611ce3565b9150509250925092565b611fd281612373565b82525050565b611fe1816123df565b82525050565b611ff081612403565b82525050565b611fff81612427565b82525050565b600061201260268361224d565b915061201d82612526565b604082019050919050565b600061203560098361224d565b915061204082612575565b602082019050919050565b600061205860208361224d565b91506120638261259e565b602082019050919050565b600061207b60128361224d565b9150612086826125c7565b602082019050919050565b61209a816123d5565b82525050565b60006020820190506120b56000830184611fc9565b92915050565b60006060820190506120d06000830186611fc9565b6120dd6020830185611fc9565b6120ea6040830184612091565b949350505050565b60006040820190506121076000830185611fc9565b6121146020830184612091565b9392505050565b60006020820190506121306000830184611fd8565b92915050565b600060a08201905061214b6000830188611ff6565b6121586020830187611fe7565b6121656040830186612091565b6121726060830185612091565b61217f6080830184612091565b9695505050505050565b600060208201905081810360008301526121a281612005565b9050919050565b600060208201905081810360008301526121c281612028565b9050919050565b600060208201905081810360008301526121e28161204b565b9050919050565b600060208201905081810360008301526122028161206e565b9050919050565b600060208201905061221e6000830184612091565b92915050565b60006040820190506122396000830185612091565b6122466020830184612091565b9392505050565b600082825260208201905092915050565b6000612269826123d5565b9150612274836123d5565b9250827fffffffffffffffffffffffffffffffffffffffffffffffffffffffffffffffff038211156122a9576122a8612494565b5b828201905092915050565b60006122bf826123d5565b91506122ca836123d5565b9250826122da576122d96124c3565b5b828204905092915050565b60006122f0826123d5565b91506122fb836123d5565b9250817fffffffffffffffffffffffffffffffffffffffffffffffffffffffffffffffff048311821515161561233457612333612494565b5b828202905092915050565b600061234a826123d5565b9150612355836123d5565b92508282101561236857612367612494565b5b828203905092915050565b600061237e826123b5565b9050919050565b60008115159050919050565b600061239c82612373565b9050919050565b60006123ae82612373565b9050919050565b600073ffffffffffffffffffffffffffffffffffffffff82169050919050565b6000819050919050565b60006123ea826123f1565b9050919050565b60006123fc826123b5565b9050919050565b600061240e82612415565b9050919050565b6000612420826123b5565b9050919050565b600061243282612439565b9050919050565b6000612444826123b5565b9050919050565b6000612456826123d5565b91507fffffffffffffffffffffffffffffffffffffffffffffffffffffffffffffffff82141561248957612488612494565b5b600182019050919050565b7f4e487b7100000000000000000000000000000000000000000000000000000000600052601160045260246000fd5b7f4e487b7100000000000000000000000000000000000000000000000000000000600052601260045260246000fd5b7f4e487b7100000000000000000000000000000000000000000000000000000000600052603260045260246000fd5b600080fd5b7f4f776e61626c653a206e6577206f776e657220697320746865207a65726f206160008201527f6464726573730000000000000000000000000000000000000000000000000000602082015250565b7f6465763a207775743f0000000000000000000000000000000000000000000000600082015250565b7f4f776e61626c653a2063616c6c6572206973206e6f7420746865206f776e6572600082015250565b7f77697468647261773a206e6f7420676f6f640000000000000000000000000000600082015250565b6125f981612373565b811461260457600080fd5b50565b61261081612385565b811461261b57600080fd5b50565b61262781612391565b811461263257600080fd5b50565b61263e816123a3565b811461264957600080fd5b50565b612655816123d5565b811461266057600080fd5b5056fea2646970667358221220e9bcb03ff98e205dfcd6f1ce7e07efe979bbcbf45a459443b9dc000537ee05ec64736f6c63430008050033",
  "immutableReferences": {},
  "source": "// SPDX-License-Identifier: MIT\r\n\r\npragma solidity ^0.8.2;\r\n\r\nimport \"@openzeppelin/contracts/token/ERC20/IERC20.sol\";\r\nimport \"@openzeppelin/contracts/token/ERC721/IERC721.sol\";\r\nimport \"@openzeppelin/contracts/token/ERC20/utils/SafeERC20.sol\";\r\nimport \"@openzeppelin/contracts/utils/structs/EnumerableSet.sol\";\r\nimport \"@openzeppelin/contracts/utils/math/SafeMath.sol\";\r\nimport \"@openzeppelin/contracts/access/Ownable.sol\";\r\nimport \"./CryptoGame.sol\";\r\n\r\n// MasterChef is the master of CryptoGame. He can make CryptoGame and he is a fair guy.\r\n//\r\n// Note that it's ownable and the owner wields tremendous power. The ownership\r\n// will be transferred to a governance smart contract once CryptoGame is sufficiently\r\n// distributed and the community can show to govern itself.\r\n//\r\n// Have fun reading it. Hopefully it's bug-free. God bless.\r\ncontract NFTChef is Ownable {\r\n    using SafeMath for uint256;\r\n    using SafeERC20 for IERC20;\r\n    // Info of each nft.\r\n    struct NFTInfo {\r\n        uint256 amount; // How many LP tokens the NFT has staked.\r\n        uint256 rewardDebt; // Reward debt. See explanation below.\r\n        //\r\n        // We do some fancy math here. Basically, any point in time, the amount of CryptoGames\r\n        // entitled to a NFT but is pending to be distributed is:\r\n        //\r\n        //   pending reward = (NFT.amount * pool.accCryptoGamePerShare) - nft.rewardDebt\r\n        //\r\n        // Whenever a nft deposits or withdraws LP tokens to a pool. Here's what happens:\r\n        //   1. The pool's `accCryptoGamePerShare` (and `lastRewardBlock`) gets updated.\r\n        //   2. Nft receives the pending reward sent to his/her address.\r\n        //   3. Nft's `amount` gets updated.\r\n        //   4. Nft's `rewardDebt` gets updated.\r\n    }\r\n    // Info of each pool.\r\n    struct PoolInfo {\r\n        IERC721 nftToken; // Address of nft token contract.\r\n        IERC20  colToken; // Address of colateral token contract.\r\n        uint256 allocPoint; // How many allocation points assigned to this pool. CryptoGames to distribute per block.\r\n        uint256 lastRewardBlock; // Last block number that CryptoGames distribution occurs.\r\n        uint256 accCryptoGamePerShare; // Accumulated CryptoGames per share, times 1e12. See below.\r\n    }\r\n    // The CryptoGame TOKEN!\r\n    CryptoGame public cryptoGame;\r\n    // Dev address.\r\n    address public devaddr;\r\n    // Block number when bonus CryptoGame period ends.\r\n    uint256 public bonusEndBlock;\r\n    // CryptoGame tokens created per block.\r\n    uint256 public CryptoGamePerBlock;\r\n    // Bonus muliplier for early CryptoGame makers.\r\n    uint256 public constant BONUS_MULTIPLIER = 10;\r\n\r\n    // Info of each pool.\r\n    PoolInfo[] public poolInfo;\r\n    // Info of each nft that stakes collateral tokens.\r\n    mapping(uint256 => mapping(uint256 => NFTInfo)) public nftInfo; // nftInfo[_pid][_id] == NFTInfo\r\n    // Total allocation poitns. Must be the sum of all allocation points in all pools.\r\n    uint256 public totalAllocPoint = 0;\r\n    // The block number when CryptoGame mining starts.\r\n    uint256 public startBlock;\r\n    event Deposit(address indexed nft, uint256 indexed pid, uint256 amount);\r\n    event Withdraw(address indexed nft, uint256 indexed pid, uint256 amount);\r\n    event EmergencyWithdraw(\r\n        address indexed nft,\r\n        uint256 indexed pid,\r\n        uint256 amount\r\n    );\r\n    event Harvest(address indexed nft, uint256 indexed pid, uint256 pending);\r\n\r\n    constructor(\r\n        CryptoGame _cryptoGame,\r\n        address _devaddr,\r\n        uint256 _CryptoGamePerBlock,\r\n        uint256 _startBlock,\r\n        uint256 _bonusEndBlock\r\n    ) {\r\n        cryptoGame = _cryptoGame;\r\n        devaddr = _devaddr;\r\n        CryptoGamePerBlock = _CryptoGamePerBlock;\r\n        bonusEndBlock = _bonusEndBlock;\r\n        startBlock = _startBlock;\r\n    }\r\n\r\n    function poolLength() external view returns (uint256) {\r\n        return poolInfo.length;\r\n    }\r\n\r\n    // Add a new lp to the pool. Can only be called by the owner.\r\n    // XXX DO NOT add the same LP token more than once. Rewards will be messed up if you do.\r\n    function add(\r\n        uint256 _allocPoint,\r\n        IERC721 _nftToken,\r\n        IERC20 _colToken,\r\n        bool _withUpdate\r\n    ) public onlyOwner {\r\n        if (_withUpdate) {\r\n            massUpdatePools();\r\n        }\r\n        uint256 lastRewardBlock =\r\n            block.number > startBlock ? block.number : startBlock;\r\n        totalAllocPoint = totalAllocPoint.add(_allocPoint);\r\n        poolInfo.push(\r\n            PoolInfo({\r\n                nftToken: _nftToken,\r\n                colToken: _colToken,\r\n                allocPoint: _allocPoint,\r\n                lastRewardBlock: lastRewardBlock,\r\n                accCryptoGamePerShare: 0\r\n            })\r\n        );\r\n    }\r\n\r\n    // Update the given pool's CryptoGame allocation point. Can only be called by the owner. \r\n    function set(\r\n        uint256 _pid,\r\n        uint256 _allocPoint,\r\n        bool _withUpdate\r\n    ) public onlyOwner {\r\n        if (_withUpdate) {\r\n            massUpdatePools();\r\n        }\r\n        totalAllocPoint = totalAllocPoint.sub(poolInfo[_pid].allocPoint).add(\r\n            _allocPoint\r\n        );\r\n        poolInfo[_pid].allocPoint = _allocPoint;\r\n        \r\n    }\r\n\r\n    //TODO: add poolInfo[_pid].lastRewardBlock = startBlock\r\n\r\n    // Return reward multiplier over the given _from to _to block.\r\n    function getMultiplier(uint256 _from, uint256 _to)\r\n        public\r\n        view\r\n        returns (uint256)\r\n    {\r\n        if (_to <= bonusEndBlock) {\r\n            return _to.sub(_from).mul(BONUS_MULTIPLIER);\r\n        } else if (_from >= bonusEndBlock) {\r\n            return _to.sub(_from);\r\n        } else {\r\n            return\r\n                bonusEndBlock.sub(_from).mul(BONUS_MULTIPLIER).add(\r\n                    _to.sub(bonusEndBlock)\r\n                );\r\n        }\r\n    }\r\n\r\n    // View function to see pending CryptoGames on frontend.\r\n    function pendingCryptoGame(uint256 _pid, uint256 _id)\r\n        external\r\n        view\r\n        returns (uint256)\r\n    {\r\n        PoolInfo storage pool = poolInfo[_pid];\r\n        NFTInfo storage id = nftInfo[_pid][_id];\r\n        uint256 accCryptoGamePerShare = pool.accCryptoGamePerShare;\r\n        uint256 lpSupply = pool.colToken.balanceOf(address(this));\r\n        if (block.number > pool.lastRewardBlock && lpSupply != 0) {\r\n            uint256 multiplier =\r\n                getMultiplier(pool.lastRewardBlock, block.number);\r\n            uint256 CryptoGameReward =\r\n                multiplier.mul(CryptoGamePerBlock).mul(pool.allocPoint).div(\r\n                    totalAllocPoint\r\n                );\r\n            accCryptoGamePerShare = accCryptoGamePerShare.add(\r\n                CryptoGameReward.mul(1e12).div(lpSupply)\r\n            );\r\n        }\r\n        return id.amount.mul(accCryptoGamePerShare).div(1e12).sub(id.rewardDebt);\r\n    }\r\n\r\n    // Update reward vairables for all pools. Be careful of gas spending!\r\n    function massUpdatePools() public {\r\n        uint256 length = poolInfo.length;\r\n        for (uint256 pid = 0; pid < length; ++pid) {\r\n            updatePool(pid);\r\n        }\r\n    }\r\n\r\n    // Update reward variables of the given pool to be up-to-date.\r\n    function updatePool(uint256 _pid) public {\r\n        PoolInfo storage pool = poolInfo[_pid];\r\n        if (block.number <= pool.lastRewardBlock) {\r\n            return;\r\n        }\r\n        uint256 lpSupply = pool.colToken.balanceOf(address(this));\r\n        if (lpSupply == 0) {\r\n            pool.lastRewardBlock = block.number;\r\n            return;\r\n        }\r\n        uint256 multiplier = getMultiplier(pool.lastRewardBlock, block.number);\r\n        uint256 CryptoGameReward =\r\n            multiplier.mul(CryptoGamePerBlock).mul(pool.allocPoint).div(\r\n                totalAllocPoint\r\n            );\r\n        cryptoGame.mint(devaddr, CryptoGameReward.div(10));\r\n        cryptoGame.mint(address(this), CryptoGameReward);\r\n        pool.accCryptoGamePerShare = pool.accCryptoGamePerShare.add(\r\n            CryptoGameReward.mul(1e12).div(lpSupply)\r\n        );\r\n        pool.lastRewardBlock = block.number;\r\n    }\r\n\r\n    // Deposit LP tokens to MasterChef for CryptoGame allocation.\r\n    function deposit(address _sender, uint256 _pid, uint256 _tokenId, uint256 _amount) public onlyOwner{\r\n        PoolInfo storage pool = poolInfo[_pid];\r\n        NFTInfo storage nft = nftInfo[_pid][_tokenId];\r\n        updatePool(_pid);\r\n        pool.colToken.transferFrom(\r\n            address(_sender),\r\n            address(this),\r\n            _amount\r\n        );\r\n        nft.amount = nft.amount.add(_amount);\r\n        nft.rewardDebt = nft.amount.mul(pool.accCryptoGamePerShare).div(1e12);\r\n        emit Deposit(_sender, _pid, _amount);\r\n    }\r\n\r\n    // Withdraw LP tokens from MasterChef.\r\n    function withdraw(address _sender, uint256 _pid, uint256 _tokenId, uint256 _amount) public onlyOwner {\r\n        PoolInfo storage pool = poolInfo[_pid];\r\n        NFTInfo storage nft = nftInfo[_pid][_tokenId];\r\n        require(nft.amount >= _amount, \"withdraw: not good\");\r\n        updatePool(_pid);\r\n        uint256 pending =\r\n            nft.amount.mul(pool.accCryptoGamePerShare).div(1e12).sub(\r\n                nft.rewardDebt\r\n            );\r\n        safeCryptoGameTransfer(_sender, pending);\r\n        nft.amount = nft.amount.sub(_amount);\r\n        nft.rewardDebt = nft.amount.mul(pool.accCryptoGamePerShare).div(1e12);\r\n        pool.colToken.transfer(address(_sender), _amount); // chan\r\n        emit Withdraw(_sender, _pid, _amount);\r\n    }\r\n\r\n    // Withdraw without caring about rewards. EMERGENCY ONLY.\r\n    function emergencyWithdraw(address _sender, uint256 _pid, uint256 _tokenId) public onlyOwner {\r\n        PoolInfo storage pool = poolInfo[_pid];\r\n        NFTInfo storage nft = nftInfo[_pid][_tokenId];\r\n        pool.colToken.transfer(_sender, nft.amount);\r\n        emit EmergencyWithdraw(_sender, _pid, nft.amount);\r\n        nft.amount = 0;\r\n        nft.rewardDebt = 0;\r\n    }\r\n\r\n     // Havest CryptoGame tokens from NFTChef.\r\n    function harvest(address _sender, uint256 _pid, uint _id) public onlyOwner{\r\n        PoolInfo storage pool = poolInfo[_pid];\r\n        NFTInfo storage nft = nftInfo[_pid][_id];\r\n        updatePool(_pid);\r\n        uint256 pending =\r\n            nft.amount.mul(pool.accCryptoGamePerShare).div(1e12).sub(\r\n                nft.rewardDebt\r\n            );\r\n        safeCryptoGameTransfer(_sender, pending);\r\n        nft.rewardDebt = nft.amount.mul(pool.accCryptoGamePerShare).div(1e12);\r\n        emit Harvest(_sender, _pid, pending);\r\n    }\r\n\r\n    // Safe CryptoGame transfer function, just in case if rounding error causes pool to not have enough CryptoGames.\r\n    function safeCryptoGameTransfer(address _to, uint256 _amount) internal {\r\n        uint256 CryptoGameBal = cryptoGame.balanceOf(address(this));\r\n        if (_amount > CryptoGameBal) {\r\n            cryptoGame.transfer(_to, CryptoGameBal);\r\n        } else {\r\n            cryptoGame.transfer(_to, _amount);\r\n        }\r\n    }\r\n\r\n    // Update dev address by the previous dev.\r\n    function dev(address _devaddr) public {\r\n        require(msg.sender == devaddr, \"dev: wut?\");\r\n        devaddr = _devaddr;\r\n    }\r\n}\r\n",
  "sourcePath": "/home/stephenstb/Ratio/ratio/contracts/cryptoGame/NFTChef.sol",
  "compiler": {
    "name": "solc",
    "version": "0.8.5+commit.a4f2e591.Emscripten.clang"
  },
  "schemaVersion": "3.3.3",
  "updatedAt": "2022-05-25T01:58:53.464Z",
  "devdoc": {
    "kind": "dev",
    "methods": {
      "owner()": {
        "details": "Returns the address of the current owner."
      },
      "renounceOwnership()": {
        "details": "Leaves the contract without owner. It will not be possible to call `onlyOwner` functions anymore. Can only be called by the current owner. NOTE: Renouncing ownership will leave the contract without an owner, thereby removing any functionality that is only available to the owner."
      },
      "transferOwnership(address)": {
        "details": "Transfers ownership of the contract to a new account (`newOwner`). Can only be called by the current owner."
      }
    },
    "version": 1
  },
  "userdoc": {
    "kind": "user",
    "methods": {},
    "version": 1
  }
}