{
  "contractName": "NFTChef",
  "abi": [
    {
      "inputs": [
        {
          "internalType": "contract CryptoGame",
          "name": "_cryptoGame",
          "type": "address"
        },
        {
          "internalType": "address",
          "name": "_devaddr",
          "type": "address"
        },
        {
          "internalType": "uint256",
          "name": "_CryptoGamePerBlock",
          "type": "uint256"
        },
        {
          "internalType": "uint256",
          "name": "_startBlock",
          "type": "uint256"
        },
        {
          "internalType": "uint256",
          "name": "_bonusEndBlock",
          "type": "uint256"
        }
      ],
      "stateMutability": "nonpayable",
      "type": "constructor"
    },
    {
      "anonymous": false,
      "inputs": [
        {
          "indexed": true,
          "internalType": "address",
          "name": "nft",
          "type": "address"
        },
        {
          "indexed": true,
          "internalType": "uint256",
          "name": "pid",
          "type": "uint256"
        },
        {
          "indexed": false,
          "internalType": "uint256",
          "name": "amount",
          "type": "uint256"
        }
      ],
      "name": "Deposit",
      "type": "event"
    },
    {
      "anonymous": false,
      "inputs": [
        {
          "indexed": true,
          "internalType": "address",
          "name": "nft",
          "type": "address"
        },
        {
          "indexed": true,
          "internalType": "uint256",
          "name": "pid",
          "type": "uint256"
        },
        {
          "indexed": false,
          "internalType": "uint256",
          "name": "amount",
          "type": "uint256"
        }
      ],
      "name": "EmergencyWithdraw",
      "type": "event"
    },
    {
      "anonymous": false,
      "inputs": [
        {
          "indexed": true,
          "internalType": "address",
          "name": "nft",
          "type": "address"
        },
        {
          "indexed": true,
          "internalType": "uint256",
          "name": "pid",
          "type": "uint256"
        },
        {
          "indexed": false,
          "internalType": "uint256",
          "name": "pending",
          "type": "uint256"
        }
      ],
      "name": "Harvest",
      "type": "event"
    },
    {
      "anonymous": false,
      "inputs": [
        {
          "indexed": true,
          "internalType": "address",
          "name": "previousOwner",
          "type": "address"
        },
        {
          "indexed": true,
          "internalType": "address",
          "name": "newOwner",
          "type": "address"
        }
      ],
      "name": "OwnershipTransferred",
      "type": "event"
    },
    {
      "anonymous": false,
      "inputs": [
        {
          "indexed": true,
          "internalType": "address",
          "name": "nft",
          "type": "address"
        },
        {
          "indexed": true,
          "internalType": "uint256",
          "name": "pid",
          "type": "uint256"
        },
        {
          "indexed": false,
          "internalType": "uint256",
          "name": "amount",
          "type": "uint256"
        }
      ],
      "name": "Withdraw",
      "type": "event"
    },
    {
      "inputs": [],
      "name": "BONUS_MULTIPLIER",
      "outputs": [
        {
          "internalType": "uint256",
          "name": "",
          "type": "uint256"
        }
      ],
      "stateMutability": "view",
      "type": "function"
    },
    {
      "inputs": [],
      "name": "CryptoGamePerBlock",
      "outputs": [
        {
          "internalType": "uint256",
          "name": "",
          "type": "uint256"
        }
      ],
      "stateMutability": "view",
      "type": "function"
    },
    {
      "inputs": [],
      "name": "bonusEndBlock",
      "outputs": [
        {
          "internalType": "uint256",
          "name": "",
          "type": "uint256"
        }
      ],
      "stateMutability": "view",
      "type": "function"
    },
    {
      "inputs": [],
      "name": "cryptoGame",
      "outputs": [
        {
          "internalType": "contract CryptoGame",
          "name": "",
          "type": "address"
        }
      ],
      "stateMutability": "view",
      "type": "function"
    },
    {
      "inputs": [],
      "name": "devaddr",
      "outputs": [
        {
          "internalType": "address",
          "name": "",
          "type": "address"
        }
      ],
      "stateMutability": "view",
      "type": "function"
    },
    {
      "inputs": [
        {
          "internalType": "uint256",
          "name": "",
          "type": "uint256"
        },
        {
          "internalType": "uint256",
          "name": "",
          "type": "uint256"
        }
      ],
      "name": "nftInfo",
      "outputs": [
        {
          "internalType": "uint256",
          "name": "amount",
          "type": "uint256"
        },
        {
          "internalType": "uint256",
          "name": "rewardDebt",
          "type": "uint256"
        }
      ],
      "stateMutability": "view",
      "type": "function"
    },
    {
      "inputs": [],
      "name": "owner",
      "outputs": [
        {
          "internalType": "address",
          "name": "",
          "type": "address"
        }
      ],
      "stateMutability": "view",
      "type": "function"
    },
    {
      "inputs": [
        {
          "internalType": "uint256",
          "name": "",
          "type": "uint256"
        }
      ],
      "name": "poolInfo",
      "outputs": [
        {
          "internalType": "contract IERC721",
          "name": "nftToken",
          "type": "address"
        },
        {
          "internalType": "contract IERC20",
          "name": "colToken",
          "type": "address"
        },
        {
          "internalType": "uint256",
          "name": "allocPoint",
          "type": "uint256"
        },
        {
          "internalType": "uint256",
          "name": "lastRewardBlock",
          "type": "uint256"
        },
        {
          "internalType": "uint256",
          "name": "accCryptoGamePerShare",
          "type": "uint256"
        }
      ],
      "stateMutability": "view",
      "type": "function"
    },
    {
      "inputs": [],
      "name": "renounceOwnership",
      "outputs": [],
      "stateMutability": "nonpayable",
      "type": "function"
    },
    {
      "inputs": [],
      "name": "startBlock",
      "outputs": [
        {
          "internalType": "uint256",
          "name": "",
          "type": "uint256"
        }
      ],
      "stateMutability": "view",
      "type": "function"
    },
    {
      "inputs": [],
      "name": "totalAllocPoint",
      "outputs": [
        {
          "internalType": "uint256",
          "name": "",
          "type": "uint256"
        }
      ],
      "stateMutability": "view",
      "type": "function"
    },
    {
      "inputs": [
        {
          "internalType": "address",
          "name": "newOwner",
          "type": "address"
        }
      ],
      "name": "transferOwnership",
      "outputs": [],
      "stateMutability": "nonpayable",
      "type": "function"
    },
    {
      "inputs": [],
      "name": "poolLength",
      "outputs": [
        {
          "internalType": "uint256",
          "name": "",
          "type": "uint256"
        }
      ],
      "stateMutability": "view",
      "type": "function"
    },
    {
      "inputs": [
        {
          "internalType": "uint256",
          "name": "_allocPoint",
          "type": "uint256"
        },
        {
          "internalType": "contract IERC721",
          "name": "_nftToken",
          "type": "address"
        },
        {
          "internalType": "contract IERC20",
          "name": "_colToken",
          "type": "address"
        },
        {
          "internalType": "bool",
          "name": "_withUpdate",
          "type": "bool"
        }
      ],
      "name": "add",
      "outputs": [],
      "stateMutability": "nonpayable",
      "type": "function"
    },
    {
      "inputs": [
        {
          "internalType": "uint256",
          "name": "_pid",
          "type": "uint256"
        },
        {
          "internalType": "uint256",
          "name": "_allocPoint",
          "type": "uint256"
        },
        {
          "internalType": "bool",
          "name": "_withUpdate",
          "type": "bool"
        }
      ],
      "name": "set",
      "outputs": [],
      "stateMutability": "nonpayable",
      "type": "function"
    },
    {
      "inputs": [
        {
          "internalType": "uint256",
          "name": "_from",
          "type": "uint256"
        },
        {
          "internalType": "uint256",
          "name": "_to",
          "type": "uint256"
        }
      ],
      "name": "getMultiplier",
      "outputs": [
        {
          "internalType": "uint256",
          "name": "",
          "type": "uint256"
        }
      ],
      "stateMutability": "view",
      "type": "function"
    },
    {
      "inputs": [
        {
          "internalType": "uint256",
          "name": "_pid",
          "type": "uint256"
        },
        {
          "internalType": "uint256",
          "name": "_id",
          "type": "uint256"
        }
      ],
      "name": "pendingCryptoGame",
      "outputs": [
        {
          "internalType": "uint256",
          "name": "",
          "type": "uint256"
        }
      ],
      "stateMutability": "view",
      "type": "function"
    },
    {
      "inputs": [],
      "name": "massUpdatePools",
      "outputs": [],
      "stateMutability": "nonpayable",
      "type": "function"
    },
    {
      "inputs": [
        {
          "internalType": "uint256",
          "name": "_pid",
          "type": "uint256"
        }
      ],
      "name": "updatePool",
      "outputs": [],
      "stateMutability": "nonpayable",
      "type": "function"
    },
    {
      "inputs": [
        {
          "internalType": "address",
          "name": "_sender",
          "type": "address"
        },
        {
          "internalType": "uint256",
          "name": "_pid",
          "type": "uint256"
        },
        {
          "internalType": "uint256",
          "name": "_tokenId",
          "type": "uint256"
        },
        {
          "internalType": "uint256",
          "name": "_amount",
          "type": "uint256"
        }
      ],
      "name": "deposit",
      "outputs": [],
      "stateMutability": "nonpayable",
      "type": "function"
    },
    {
      "inputs": [
        {
          "internalType": "address",
          "name": "_sender",
          "type": "address"
        },
        {
          "internalType": "uint256",
          "name": "_pid",
          "type": "uint256"
        },
        {
          "internalType": "uint256",
          "name": "_tokenId",
          "type": "uint256"
        },
        {
          "internalType": "uint256",
          "name": "_amount",
          "type": "uint256"
        }
      ],
      "name": "withdraw",
      "outputs": [],
      "stateMutability": "nonpayable",
      "type": "function"
    },
    {
      "inputs": [
        {
          "internalType": "address",
          "name": "_sender",
          "type": "address"
        },
        {
          "internalType": "uint256",
          "name": "_pid",
          "type": "uint256"
        },
        {
          "internalType": "uint256",
          "name": "_tokenId",
          "type": "uint256"
        }
      ],
      "name": "emergencyWithdraw",
      "outputs": [],
      "stateMutability": "nonpayable",
      "type": "function"
    },
    {
      "inputs": [
        {
          "internalType": "address",
          "name": "_sender",
          "type": "address"
        },
        {
          "internalType": "uint256",
          "name": "_pid",
          "type": "uint256"
        },
        {
          "internalType": "uint256",
          "name": "_id",
          "type": "uint256"
        }
      ],
      "name": "harvest",
      "outputs": [],
      "stateMutability": "nonpayable",
      "type": "function"
    },
    {
      "inputs": [
        {
          "internalType": "address",
          "name": "_devaddr",
          "type": "address"
        }
      ],
      "name": "dev",
      "outputs": [],
      "stateMutability": "nonpayable",
      "type": "function"
    }
  ],
  "bytecode": "0x608060405260006007553480156200001657600080fd5b5060405162002ed038038062002ed083398181016040528101906200003c91906200020f565b6200005c62000050620000fe60201b60201c565b6200010660201b60201c565b84600160006101000a81548173ffffffffffffffffffffffffffffffffffffffff021916908373ffffffffffffffffffffffffffffffffffffffff16021790555083600260006101000a81548173ffffffffffffffffffffffffffffffffffffffff021916908373ffffffffffffffffffffffffffffffffffffffff16021790555082600481905550806003819055508160088190555050505050506200033c565b600033905090565b60008060009054906101000a900473ffffffffffffffffffffffffffffffffffffffff169050816000806101000a81548173ffffffffffffffffffffffffffffffffffffffff021916908373ffffffffffffffffffffffffffffffffffffffff1602179055508173ffffffffffffffffffffffffffffffffffffffff168173ffffffffffffffffffffffffffffffffffffffff167f8be0079c531659141344cd1fd0a4f28419497f9722a3daafe3b4186f6b6457e060405160405180910390a35050565b600081519050620001db81620002ee565b92915050565b600081519050620001f28162000308565b92915050565b600081519050620002098162000322565b92915050565b600080600080600060a086880312156200022e576200022d620002e9565b5b60006200023e88828901620001e1565b95505060206200025188828901620001ca565b94505060406200026488828901620001f8565b93505060606200027788828901620001f8565b92505060806200028a88828901620001f8565b9150509295509295909350565b6000620002a482620002bf565b9050919050565b6000620002b88262000297565b9050919050565b600073ffffffffffffffffffffffffffffffffffffffff82169050919050565b6000819050919050565b600080fd5b620002f98162000297565b81146200030557600080fd5b50565b6200031381620002ab565b81146200031f57600080fd5b50565b6200032d81620002df565b81146200033957600080fd5b50565b612b84806200034c6000396000f3fe608060405234801561001057600080fd5b50600436106101585760003560e01c80638aa28550116100c3578063ce88b4391161007c578063ce88b4391461037f578063d49e77cd1461039b578063db7c0b82146103b9578063dfa2eec0146103d7578063f2fde38b14610408578063f75887011461042457610158565b80638aa28550146102ab5780638d88a90e146102c95780638da5cb5b146102e55780638dbb1e3a146103035780639a5e5b7014610333578063c71b4b431461036357610158565b80634532d776116101155780634532d7761461022557806348cd4cb11461024157806351eb05a61461025f578063630b5ba11461027b57806364482f7914610285578063715018a6146102a157610158565b8063081e3eda1461015d57806310a4a33d1461017b5780631526fe271461019757806317caf6f1146101cb5780631aed6553146101e957806335d7264214610207575b600080fd5b610165610440565b60405161017291906125c8565b60405180910390f35b61019560048036038101906101909190611fe1565b61044d565b005b6101b160048036038101906101ac91906120c8565b6105d8565b6040516101c2959493929190612473565b60405180910390f35b6101d361065e565b6040516101e091906125c8565b60405180910390f35b6101f1610664565b6040516101fe91906125c8565b60405180910390f35b61020f61066a565b60405161021c91906125c8565b60405180910390f35b61023f600480360381019061023a9190612034565b610670565b005b6102496108e0565b60405161025691906125c8565b60405180910390f35b610279600480360381019061027491906120c8565b6108e6565b005b610283610be8565b005b61029f600480360381019061029a91906121c9565b610c1b565b005b6102a9610d27565b005b6102b3610daf565b6040516102c091906125c8565b60405180910390f35b6102e360048036038101906102de9190611fb4565b610db4565b005b6102ed610e88565b6040516102fa91906123dd565b60405180910390f35b61031d60048036038101906103189190612189565b610eb1565b60405161032a91906125c8565b60405180910390f35b61034d60048036038101906103489190612189565b610f63565b60405161035a91906125c8565b60405180910390f35b61037d60048036038101906103789190612122565b61116b565b005b61039960048036038101906103949190612034565b61135c565b005b6103a3611530565b6040516103b091906123dd565b60405180910390f35b6103c1611556565b6040516103ce9190612458565b60405180910390f35b6103f160048036038101906103ec9190612189565b61157c565b6040516103ff9291906125e3565b60405180910390f35b610422600480360381019061041d9190611fb4565b6115ad565b005b61043e60048036038101906104399190611fe1565b6116a5565b005b6000600580549050905090565b61045561185f565b73ffffffffffffffffffffffffffffffffffffffff16610473610e88565b73ffffffffffffffffffffffffffffffffffffffff16146104c9576040517f08c379a00000000000000000000000000000000000000000000000000000000081526004016104c090612548565b60405180910390fd5b6000600583815481106104df576104de612905565b5b906000526020600020906005020190506000600660008581526020019081526020016000206000848152602001908152602001600020905061056a8582600001548460010160009054906101000a900473ffffffffffffffffffffffffffffffffffffffff1673ffffffffffffffffffffffffffffffffffffffff166118679092919063ffffffff16565b838573ffffffffffffffffffffffffffffffffffffffff167fbb757047c2b5f3974fe26b7c10f732e7bce710b0952a71082702781e62ae059583600001546040516105b591906125c8565b60405180910390a360008160000181905550600081600101819055505050505050565b600581815481106105e857600080fd5b90600052602060002090600502016000915090508060000160009054906101000a900473ffffffffffffffffffffffffffffffffffffffff16908060010160009054906101000a900473ffffffffffffffffffffffffffffffffffffffff16908060020154908060030154908060040154905085565b60075481565b60035481565b60045481565b61067861185f565b73ffffffffffffffffffffffffffffffffffffffff16610696610e88565b73ffffffffffffffffffffffffffffffffffffffff16146106ec576040517f08c379a00000000000000000000000000000000000000000000000000000000081526004016106e390612548565b60405180910390fd5b60006005848154811061070257610701612905565b5b90600052602060002090600502019050600060066000868152602001908152602001600020600085815260200190815260200160002090508281600001541015610781576040517f08c379a000000000000000000000000000000000000000000000000000000000815260040161077890612588565b60405180910390fd5b61078a856108e6565b60006107d482600101546107c664e8d4a510006107b8876004015487600001546118ed90919063ffffffff16565b61190390919063ffffffff16565b61191990919063ffffffff16565b90506107e0878261192f565b6107f784836000015461191990919063ffffffff16565b826000018190555061083164e8d4a51000610823856004015485600001546118ed90919063ffffffff16565b61190390919063ffffffff16565b826001018190555061088887858560010160009054906101000a900473ffffffffffffffffffffffffffffffffffffffff1673ffffffffffffffffffffffffffffffffffffffff166118679092919063ffffffff16565b858773ffffffffffffffffffffffffffffffffffffffff167ff279e6a1f5e320cca91135676d9cb6e44ca8a08c0b88342bcdb1144f6511b568866040516108cf91906125c8565b60405180910390a350505050505050565b60085481565b6000600582815481106108fc576108fb612905565b5b906000526020600020906005020190508060030154431161091d5750610be5565b60008160010160009054906101000a900473ffffffffffffffffffffffffffffffffffffffff1673ffffffffffffffffffffffffffffffffffffffff166370a08231306040518263ffffffff1660e01b815260040161097c91906123dd565b60206040518083038186803b15801561099457600080fd5b505afa1580156109a8573d6000803e3d6000fd5b505050506040513d601f19601f820116820180604052508101906109cc91906120f5565b905060008114156109e7574382600301819055505050610be5565b60006109f7836003015443610eb1565b90506000610a3a600754610a2c8660020154610a1e600454876118ed90919063ffffffff16565b6118ed90919063ffffffff16565b61190390919063ffffffff16565b9050600160009054906101000a900473ffffffffffffffffffffffffffffffffffffffff1673ffffffffffffffffffffffffffffffffffffffff166340c10f19600260009054906101000a900473ffffffffffffffffffffffffffffffffffffffff16610ab1600a8561190390919063ffffffff16565b6040518363ffffffff1660e01b8152600401610ace92919061242f565b600060405180830381600087803b158015610ae857600080fd5b505af1158015610afc573d6000803e3d6000fd5b50505050600160009054906101000a900473ffffffffffffffffffffffffffffffffffffffff1673ffffffffffffffffffffffffffffffffffffffff166340c10f1930836040518363ffffffff1660e01b8152600401610b5d92919061242f565b600060405180830381600087803b158015610b7757600080fd5b505af1158015610b8b573d6000803e3d6000fd5b50505050610bcf610bbc84610bae64e8d4a51000856118ed90919063ffffffff16565b61190390919063ffffffff16565b8560040154611b5190919063ffffffff16565b8460040181905550438460030181905550505050505b50565b6000600580549050905060005b81811015610c1757610c06816108e6565b80610c109061285e565b9050610bf5565b5050565b610c2361185f565b73ffffffffffffffffffffffffffffffffffffffff16610c41610e88565b73ffffffffffffffffffffffffffffffffffffffff1614610c97576040517f08c379a0000000000000000000000000000000000000000000000000000000008152600401610c8e90612548565b60405180910390fd5b8015610ca657610ca5610be8565b5b610cf282610ce460058681548110610cc157610cc0612905565b5b90600052602060002090600502016002015460075461191990919063ffffffff16565b611b5190919063ffffffff16565b6007819055508160058481548110610d0d57610d0c612905565b5b906000526020600020906005020160020181905550505050565b610d2f61185f565b73ffffffffffffffffffffffffffffffffffffffff16610d4d610e88565b73ffffffffffffffffffffffffffffffffffffffff1614610da3576040517f08c379a0000000000000000000000000000000000000000000000000000000008152600401610d9a90612548565b60405180910390fd5b610dad6000611b67565b565b600a81565b600260009054906101000a900473ffffffffffffffffffffffffffffffffffffffff1673ffffffffffffffffffffffffffffffffffffffff163373ffffffffffffffffffffffffffffffffffffffff1614610e44576040517f08c379a0000000000000000000000000000000000000000000000000000000008152600401610e3b90612528565b60405180910390fd5b80600260006101000a81548173ffffffffffffffffffffffffffffffffffffffff021916908373ffffffffffffffffffffffffffffffffffffffff16021790555050565b60008060009054906101000a900473ffffffffffffffffffffffffffffffffffffffff16905090565b60006003548211610ee957610ee2600a610ed4858561191990919063ffffffff16565b6118ed90919063ffffffff16565b9050610f5d565b6003548310610f0c57610f05838361191990919063ffffffff16565b9050610f5d565b610f5a610f246003548461191990919063ffffffff16565b610f4c600a610f3e8760035461191990919063ffffffff16565b6118ed90919063ffffffff16565b611b5190919063ffffffff16565b90505b92915050565b60008060058481548110610f7a57610f79612905565b5b906000526020600020906005020190506000600660008681526020019081526020016000206000858152602001908152602001600020905060008260040154905060008360010160009054906101000a900473ffffffffffffffffffffffffffffffffffffffff1673ffffffffffffffffffffffffffffffffffffffff166370a08231306040518263ffffffff1660e01b815260040161101a91906123dd565b60206040518083038186803b15801561103257600080fd5b505afa158015611046573d6000803e3d6000fd5b505050506040513d601f19601f8201168201806040525081019061106a91906120f5565b9050836003015443118015611080575060008114155b1561111b576000611095856003015443610eb1565b905060006110d86007546110ca88600201546110bc600454876118ed90919063ffffffff16565b6118ed90919063ffffffff16565b61190390919063ffffffff16565b9050611116611107846110f964e8d4a51000856118ed90919063ffffffff16565b61190390919063ffffffff16565b85611b5190919063ffffffff16565b935050505b61115f836001015461115164e8d4a510006111438688600001546118ed90919063ffffffff16565b61190390919063ffffffff16565b61191990919063ffffffff16565b94505050505092915050565b61117361185f565b73ffffffffffffffffffffffffffffffffffffffff16611191610e88565b73ffffffffffffffffffffffffffffffffffffffff16146111e7576040517f08c379a00000000000000000000000000000000000000000000000000000000081526004016111de90612548565b60405180910390fd5b80156111f6576111f5610be8565b5b600060085443116112095760085461120b565b435b905061122285600754611b5190919063ffffffff16565b60078190555060056040518060a001604052808673ffffffffffffffffffffffffffffffffffffffff1681526020018573ffffffffffffffffffffffffffffffffffffffff1681526020018781526020018381526020016000815250908060018154018082558091505060019003906000526020600020906005020160009091909190915060008201518160000160006101000a81548173ffffffffffffffffffffffffffffffffffffffff021916908373ffffffffffffffffffffffffffffffffffffffff16021790555060208201518160010160006101000a81548173ffffffffffffffffffffffffffffffffffffffff021916908373ffffffffffffffffffffffffffffffffffffffff16021790555060408201518160020155606082015181600301556080820151816004015550505050505050565b61136461185f565b73ffffffffffffffffffffffffffffffffffffffff16611382610e88565b73ffffffffffffffffffffffffffffffffffffffff16146113d8576040517f08c379a00000000000000000000000000000000000000000000000000000000081526004016113cf90612548565b60405180910390fd5b6000600584815481106113ee576113ed612905565b5b906000526020600020906005020190506000600660008681526020019081526020016000206000858152602001908152602001600020905061142f856108e6565b6114808630858560010160009054906101000a900473ffffffffffffffffffffffffffffffffffffffff1673ffffffffffffffffffffffffffffffffffffffff16611c2b909392919063ffffffff16565b611497838260000154611b5190919063ffffffff16565b81600001819055506114d164e8d4a510006114c3846004015484600001546118ed90919063ffffffff16565b61190390919063ffffffff16565b8160010181905550848673ffffffffffffffffffffffffffffffffffffffff167f90890809c654f11d6e72a28fa60149770a0d11ec6c92319d6ceb2bb0a4ea1a158560405161152091906125c8565b60405180910390a3505050505050565b600260009054906101000a900473ffffffffffffffffffffffffffffffffffffffff1681565b600160009054906101000a900473ffffffffffffffffffffffffffffffffffffffff1681565b6006602052816000526040600020602052806000526040600020600091509150508060000154908060010154905082565b6115b561185f565b73ffffffffffffffffffffffffffffffffffffffff166115d3610e88565b73ffffffffffffffffffffffffffffffffffffffff1614611629576040517f08c379a000000000000000000000000000000000000000000000000000000000815260040161162090612548565b60405180910390fd5b600073ffffffffffffffffffffffffffffffffffffffff168173ffffffffffffffffffffffffffffffffffffffff161415611699576040517f08c379a0000000000000000000000000000000000000000000000000000000008152600401611690906124e8565b60405180910390fd5b6116a281611b67565b50565b6116ad61185f565b73ffffffffffffffffffffffffffffffffffffffff166116cb610e88565b73ffffffffffffffffffffffffffffffffffffffff1614611721576040517f08c379a000000000000000000000000000000000000000000000000000000000815260040161171890612548565b60405180910390fd5b60006005838154811061173757611736612905565b5b9060005260206000209060050201905060006006600085815260200190815260200160002060008481526020019081526020016000209050611778846108e6565b60006117c282600101546117b464e8d4a510006117a6876004015487600001546118ed90919063ffffffff16565b61190390919063ffffffff16565b61191990919063ffffffff16565b90506117ce868261192f565b61180064e8d4a510006117f2856004015485600001546118ed90919063ffffffff16565b61190390919063ffffffff16565b8260010181905550848673ffffffffffffffffffffffffffffffffffffffff167f71bab65ced2e5750775a0613be067df48ef06cf92a496ebf7663ae06609249548360405161184f91906125c8565b60405180910390a3505050505050565b600033905090565b6118e88363a9059cbb60e01b848460405160240161188692919061242f565b604051602081830303815290604052907bffffffffffffffffffffffffffffffffffffffffffffffffffffffff19166020820180517bffffffffffffffffffffffffffffffffffffffffffffffffffffffff8381831617835250505050611cb4565b505050565b600081836118fb91906126c5565b905092915050565b600081836119119190612694565b905092915050565b60008183611927919061271f565b905092915050565b6000600160009054906101000a900473ffffffffffffffffffffffffffffffffffffffff1673ffffffffffffffffffffffffffffffffffffffff166370a08231306040518263ffffffff1660e01b815260040161198c91906123dd565b60206040518083038186803b1580156119a457600080fd5b505afa1580156119b8573d6000803e3d6000fd5b505050506040513d601f19601f820116820180604052508101906119dc91906120f5565b905080821115611a9b57600160009054906101000a900473ffffffffffffffffffffffffffffffffffffffff1673ffffffffffffffffffffffffffffffffffffffff1663a9059cbb84836040518363ffffffff1660e01b8152600401611a4392919061242f565b602060405180830381600087803b158015611a5d57600080fd5b505af1158015611a71573d6000803e3d6000fd5b505050506040513d601f19601f82011682018060405250810190611a95919061209b565b50611b4c565b600160009054906101000a900473ffffffffffffffffffffffffffffffffffffffff1673ffffffffffffffffffffffffffffffffffffffff1663a9059cbb84846040518363ffffffff1660e01b8152600401611af892919061242f565b602060405180830381600087803b158015611b1257600080fd5b505af1158015611b26573d6000803e3d6000fd5b505050506040513d601f19601f82011682018060405250810190611b4a919061209b565b505b505050565b60008183611b5f919061263e565b905092915050565b60008060009054906101000a900473ffffffffffffffffffffffffffffffffffffffff169050816000806101000a81548173ffffffffffffffffffffffffffffffffffffffff021916908373ffffffffffffffffffffffffffffffffffffffff1602179055508173ffffffffffffffffffffffffffffffffffffffff168173ffffffffffffffffffffffffffffffffffffffff167f8be0079c531659141344cd1fd0a4f28419497f9722a3daafe3b4186f6b6457e060405160405180910390a35050565b611cae846323b872dd60e01b858585604051602401611c4c939291906123f8565b604051602081830303815290604052907bffffffffffffffffffffffffffffffffffffffffffffffffffffffff19166020820180517bffffffffffffffffffffffffffffffffffffffffffffffffffffffff8381831617835250505050611cb4565b50505050565b6000611d16826040518060400160405280602081526020017f5361666545524332303a206c6f772d6c6576656c2063616c6c206661696c65648152508573ffffffffffffffffffffffffffffffffffffffff16611d7b9092919063ffffffff16565b9050600081511115611d765780806020019051810190611d36919061209b565b611d75576040517f08c379a0000000000000000000000000000000000000000000000000000000008152600401611d6c906125a8565b60405180910390fd5b5b505050565b6060611d8a8484600085611d93565b90509392505050565b606082471015611dd8576040517f08c379a0000000000000000000000000000000000000000000000000000000008152600401611dcf90612508565b60405180910390fd5b611de185611ea7565b611e20576040517f08c379a0000000000000000000000000000000000000000000000000000000008152600401611e1790612568565b60405180910390fd5b6000808673ffffffffffffffffffffffffffffffffffffffff168587604051611e4991906123c6565b60006040518083038185875af1925050503d8060008114611e86576040519150601f19603f3d011682016040523d82523d6000602084013e611e8b565b606091505b5091509150611e9b828286611eba565b92505050949350505050565b600080823b905060008111915050919050565b60608315611eca57829050611f1a565b600083511115611edd5782518084602001fd5b816040517f08c379a0000000000000000000000000000000000000000000000000000000008152600401611f1191906124c6565b60405180910390fd5b9392505050565b600081359050611f3081612adb565b92915050565b600081359050611f4581612af2565b92915050565b600081519050611f5a81612af2565b92915050565b600081359050611f6f81612b09565b92915050565b600081359050611f8481612b20565b92915050565b600081359050611f9981612b37565b92915050565b600081519050611fae81612b37565b92915050565b600060208284031215611fca57611fc9612934565b5b6000611fd884828501611f21565b91505092915050565b600080600060608486031215611ffa57611ff9612934565b5b600061200886828701611f21565b935050602061201986828701611f8a565b925050604061202a86828701611f8a565b9150509250925092565b6000806000806080858703121561204e5761204d612934565b5b600061205c87828801611f21565b945050602061206d87828801611f8a565b935050604061207e87828801611f8a565b925050606061208f87828801611f8a565b91505092959194509250565b6000602082840312156120b1576120b0612934565b5b60006120bf84828501611f4b565b91505092915050565b6000602082840312156120de576120dd612934565b5b60006120ec84828501611f8a565b91505092915050565b60006020828403121561210b5761210a612934565b5b600061211984828501611f9f565b91505092915050565b6000806000806080858703121561213c5761213b612934565b5b600061214a87828801611f8a565b945050602061215b87828801611f75565b935050604061216c87828801611f60565b925050606061217d87828801611f36565b91505092959194509250565b600080604083850312156121a05761219f612934565b5b60006121ae85828601611f8a565b92505060206121bf85828601611f8a565b9150509250929050565b6000806000606084860312156121e2576121e1612934565b5b60006121f086828701611f8a565b935050602061220186828701611f8a565b925050604061221286828701611f36565b9150509250925092565b61222581612753565b82525050565b60006122368261260c565b6122408185612622565b935061225081856020860161282b565b80840191505092915050565b612265816127bf565b82525050565b612274816127e3565b82525050565b61228381612807565b82525050565b600061229482612617565b61229e818561262d565b93506122ae81856020860161282b565b6122b781612939565b840191505092915050565b60006122cf60268361262d565b91506122da8261294a565b604082019050919050565b60006122f260268361262d565b91506122fd82612999565b604082019050919050565b600061231560098361262d565b9150612320826129e8565b602082019050919050565b600061233860208361262d565b915061234382612a11565b602082019050919050565b600061235b601d8361262d565b915061236682612a3a565b602082019050919050565b600061237e60128361262d565b915061238982612a63565b602082019050919050565b60006123a1602a8361262d565b91506123ac82612a8c565b604082019050919050565b6123c0816127b5565b82525050565b60006123d2828461222b565b915081905092915050565b60006020820190506123f2600083018461221c565b92915050565b600060608201905061240d600083018661221c565b61241a602083018561221c565b61242760408301846123b7565b949350505050565b6000604082019050612444600083018561221c565b61245160208301846123b7565b9392505050565b600060208201905061246d600083018461225c565b92915050565b600060a082019050612488600083018861227a565b612495602083018761226b565b6124a260408301866123b7565b6124af60608301856123b7565b6124bc60808301846123b7565b9695505050505050565b600060208201905081810360008301526124e08184612289565b905092915050565b60006020820190508181036000830152612501816122c2565b9050919050565b60006020820190508181036000830152612521816122e5565b9050919050565b6000602082019050818103600083015261254181612308565b9050919050565b600060208201905081810360008301526125618161232b565b9050919050565b600060208201905081810360008301526125818161234e565b9050919050565b600060208201905081810360008301526125a181612371565b9050919050565b600060208201905081810360008301526125c181612394565b9050919050565b60006020820190506125dd60008301846123b7565b92915050565b60006040820190506125f860008301856123b7565b61260560208301846123b7565b9392505050565b600081519050919050565b600081519050919050565b600081905092915050565b600082825260208201905092915050565b6000612649826127b5565b9150612654836127b5565b9250827fffffffffffffffffffffffffffffffffffffffffffffffffffffffffffffffff03821115612689576126886128a7565b5b828201905092915050565b600061269f826127b5565b91506126aa836127b5565b9250826126ba576126b96128d6565b5b828204905092915050565b60006126d0826127b5565b91506126db836127b5565b9250817fffffffffffffffffffffffffffffffffffffffffffffffffffffffffffffffff0483118215151615612714576127136128a7565b5b828202905092915050565b600061272a826127b5565b9150612735836127b5565b925082821015612748576127476128a7565b5b828203905092915050565b600061275e82612795565b9050919050565b60008115159050919050565b600061277c82612753565b9050919050565b600061278e82612753565b9050919050565b600073ffffffffffffffffffffffffffffffffffffffff82169050919050565b6000819050919050565b60006127ca826127d1565b9050919050565b60006127dc82612795565b9050919050565b60006127ee826127f5565b9050919050565b600061280082612795565b9050919050565b600061281282612819565b9050919050565b600061282482612795565b9050919050565b60005b8381101561284957808201518184015260208101905061282e565b83811115612858576000848401525b50505050565b6000612869826127b5565b91507fffffffffffffffffffffffffffffffffffffffffffffffffffffffffffffffff82141561289c5761289b6128a7565b5b600182019050919050565b7f4e487b7100000000000000000000000000000000000000000000000000000000600052601160045260246000fd5b7f4e487b7100000000000000000000000000000000000000000000000000000000600052601260045260246000fd5b7f4e487b7100000000000000000000000000000000000000000000000000000000600052603260045260246000fd5b600080fd5b6000601f19601f8301169050919050565b7f4f776e61626c653a206e6577206f776e657220697320746865207a65726f206160008201527f6464726573730000000000000000000000000000000000000000000000000000602082015250565b7f416464726573733a20696e73756666696369656e742062616c616e636520666f60008201527f722063616c6c0000000000000000000000000000000000000000000000000000602082015250565b7f6465763a207775743f0000000000000000000000000000000000000000000000600082015250565b7f4f776e61626c653a2063616c6c6572206973206e6f7420746865206f776e6572600082015250565b7f416464726573733a2063616c6c20746f206e6f6e2d636f6e7472616374000000600082015250565b7f77697468647261773a206e6f7420676f6f640000000000000000000000000000600082015250565b7f5361666545524332303a204552433230206f7065726174696f6e20646964206e60008201527f6f74207375636365656400000000000000000000000000000000000000000000602082015250565b612ae481612753565b8114612aef57600080fd5b50565b612afb81612765565b8114612b0657600080fd5b50565b612b1281612771565b8114612b1d57600080fd5b50565b612b2981612783565b8114612b3457600080fd5b50565b612b40816127b5565b8114612b4b57600080fd5b5056fea2646970667358221220e30256ad3911ec7ddca3ffacb55a5d5174e11980d913ac5750971fbfcc0a01ef64736f6c63430008050033",
  "immutableReferences": {},
  "source": "// SPDX-License-Identifier: MIT\r\n\r\npragma solidity ^0.8.2;\r\n\r\nimport \"@openzeppelin/contracts/token/ERC20/IERC20.sol\";\r\nimport \"@openzeppelin/contracts/token/ERC721/IERC721.sol\";\r\nimport \"@openzeppelin/contracts/token/ERC20/utils/SafeERC20.sol\";\r\nimport \"@openzeppelin/contracts/utils/structs/EnumerableSet.sol\";\r\nimport \"@openzeppelin/contracts/utils/math/SafeMath.sol\";\r\nimport \"@openzeppelin/contracts/access/Ownable.sol\";\r\nimport \"./CryptoGame.sol\";\r\n\r\n// MasterChef is the master of CryptoGame. He can make CryptoGame and he is a fair guy.\r\n//\r\n// Note that it's ownable and the owner wields tremendous power. The ownership\r\n// will be transferred to a governance smart contract once CryptoGame is sufficiently\r\n// distributed and the community can show to govern itself.\r\n//\r\n// Have fun reading it. Hopefully it's bug-free. God bless.\r\ncontract NFTChef is Ownable {\r\n    using SafeMath for uint256;\r\n    using SafeERC20 for IERC20;\r\n    // Info of each nft.\r\n    struct NFTInfo {\r\n        uint256 amount; // How many LP tokens the NFT has staked.\r\n        uint256 rewardDebt; // Reward debt. See explanation below.\r\n        //\r\n        // We do some fancy math here. Basically, any point in time, the amount of CryptoGames\r\n        // entitled to a NFT but is pending to be distributed is:\r\n        //\r\n        //   pending reward = (NFT.amount * pool.accCryptoGamePerShare) - nft.rewardDebt\r\n        //\r\n        // Whenever a nft deposits or withdraws LP tokens to a pool. Here's what happens:\r\n        //   1. The pool's `accCryptoGamePerShare` (and `lastRewardBlock`) gets updated.\r\n        //   2. Nft receives the pending reward sent to his/her address.\r\n        //   3. Nft's `amount` gets updated.\r\n        //   4. Nft's `rewardDebt` gets updated.\r\n    }\r\n    // Info of each pool.\r\n    struct PoolInfo {\r\n        IERC721 nftToken; // Address of nft token contract.\r\n        IERC20  colToken; // Address of colateral token contract.\r\n        uint256 allocPoint; // How many allocation points assigned to this pool. CryptoGames to distribute per block.\r\n        uint256 lastRewardBlock; // Last block number that CryptoGames distribution occurs.\r\n        uint256 accCryptoGamePerShare; // Accumulated CryptoGames per share, times 1e12. See below.\r\n    }\r\n    // The CryptoGame TOKEN!\r\n    CryptoGame public cryptoGame;\r\n    // Dev address.\r\n    address public devaddr;\r\n    // Block number when bonus CryptoGame period ends.\r\n    uint256 public bonusEndBlock;\r\n    // CryptoGame tokens created per block.\r\n    uint256 public CryptoGamePerBlock;\r\n    // Bonus muliplier for early CryptoGame makers.\r\n    uint256 public constant BONUS_MULTIPLIER = 10;\r\n\r\n    // Info of each pool.\r\n    PoolInfo[] public poolInfo;\r\n    // Info of each nft that stakes collateral tokens.\r\n    mapping(uint256 => mapping(uint256 => NFTInfo)) public nftInfo; // nftInfo[_pid][_id] == NFTInfo\r\n    // Total allocation poitns. Must be the sum of all allocation points in all pools.\r\n    uint256 public totalAllocPoint = 0;\r\n    // The block number when CryptoGame mining starts.\r\n    uint256 public startBlock;\r\n    event Deposit(address indexed nft, uint256 indexed pid, uint256 amount);\r\n    event Withdraw(address indexed nft, uint256 indexed pid, uint256 amount);\r\n    event EmergencyWithdraw(\r\n        address indexed nft,\r\n        uint256 indexed pid,\r\n        uint256 amount\r\n    );\r\n    event Harvest(address indexed nft, uint256 indexed pid, uint256 pending);\r\n\r\n    constructor(\r\n        CryptoGame _cryptoGame,\r\n        address _devaddr,\r\n        uint256 _CryptoGamePerBlock,\r\n        uint256 _startBlock,\r\n        uint256 _bonusEndBlock\r\n    ) {\r\n        cryptoGame = _cryptoGame;\r\n        devaddr = _devaddr;\r\n        CryptoGamePerBlock = _CryptoGamePerBlock;\r\n        bonusEndBlock = _bonusEndBlock;\r\n        startBlock = _startBlock;\r\n    }\r\n\r\n    function poolLength() external view returns (uint256) {\r\n        return poolInfo.length;\r\n    }\r\n\r\n    // Add a new lp to the pool. Can only be called by the owner.\r\n    // XXX DO NOT add the same LP token more than once. Rewards will be messed up if you do.\r\n    function add(\r\n        uint256 _allocPoint,\r\n        IERC721 _nftToken,\r\n        IERC20 _colToken,\r\n        bool _withUpdate\r\n    ) public onlyOwner {\r\n        if (_withUpdate) {\r\n            massUpdatePools();\r\n        }\r\n        uint256 lastRewardBlock =\r\n            block.number > startBlock ? block.number : startBlock;\r\n        totalAllocPoint = totalAllocPoint.add(_allocPoint);\r\n        poolInfo.push(\r\n            PoolInfo({\r\n                nftToken: _nftToken,\r\n                colToken: _colToken,\r\n                allocPoint: _allocPoint,\r\n                lastRewardBlock: lastRewardBlock,\r\n                accCryptoGamePerShare: 0\r\n            })\r\n        );\r\n    }\r\n\r\n    // Update the given pool's CryptoGame allocation point. Can only be called by the owner. \r\n    function set(\r\n        uint256 _pid,\r\n        uint256 _allocPoint,\r\n        bool _withUpdate\r\n    ) public onlyOwner {\r\n        if (_withUpdate) {\r\n            massUpdatePools();\r\n        }\r\n        totalAllocPoint = totalAllocPoint.sub(poolInfo[_pid].allocPoint).add(\r\n            _allocPoint\r\n        );\r\n        poolInfo[_pid].allocPoint = _allocPoint;\r\n        \r\n    }\r\n\r\n    //TODO: add poolInfo[_pid].lastRewardBlock = startBlock\r\n\r\n    // Return reward multiplier over the given _from to _to block.\r\n    function getMultiplier(uint256 _from, uint256 _to)\r\n        public\r\n        view\r\n        returns (uint256)\r\n    {\r\n        if (_to <= bonusEndBlock) {\r\n            return _to.sub(_from).mul(BONUS_MULTIPLIER);\r\n        } else if (_from >= bonusEndBlock) {\r\n            return _to.sub(_from);\r\n        } else {\r\n            return\r\n                bonusEndBlock.sub(_from).mul(BONUS_MULTIPLIER).add(\r\n                    _to.sub(bonusEndBlock)\r\n                );\r\n        }\r\n    }\r\n\r\n    // View function to see pending CryptoGames on frontend.\r\n    function pendingCryptoGame(uint256 _pid, uint256 _id)\r\n        external\r\n        view\r\n        returns (uint256)\r\n    {\r\n        PoolInfo storage pool = poolInfo[_pid];\r\n        NFTInfo storage id = nftInfo[_pid][_id];\r\n        uint256 accCryptoGamePerShare = pool.accCryptoGamePerShare;\r\n        uint256 lpSupply = pool.colToken.balanceOf(address(this));\r\n        if (block.number > pool.lastRewardBlock && lpSupply != 0) {\r\n            uint256 multiplier =\r\n                getMultiplier(pool.lastRewardBlock, block.number);\r\n            uint256 CryptoGameReward =\r\n                multiplier.mul(CryptoGamePerBlock).mul(pool.allocPoint).div(\r\n                    totalAllocPoint\r\n                );\r\n            accCryptoGamePerShare = accCryptoGamePerShare.add(\r\n                CryptoGameReward.mul(1e12).div(lpSupply)\r\n            );\r\n        }\r\n        return id.amount.mul(accCryptoGamePerShare).div(1e12).sub(id.rewardDebt);\r\n    }\r\n\r\n    // Update reward vairables for all pools. Be careful of gas spending!\r\n    function massUpdatePools() public {\r\n        uint256 length = poolInfo.length;\r\n        for (uint256 pid = 0; pid < length; ++pid) {\r\n            updatePool(pid);\r\n        }\r\n    }\r\n\r\n    // Update reward variables of the given pool to be up-to-date.\r\n    function updatePool(uint256 _pid) public {\r\n        PoolInfo storage pool = poolInfo[_pid];\r\n        if (block.number <= pool.lastRewardBlock) {\r\n            return;\r\n        }\r\n        uint256 lpSupply = pool.colToken.balanceOf(address(this));\r\n        if (lpSupply == 0) {\r\n            pool.lastRewardBlock = block.number;\r\n            return;\r\n        }\r\n        uint256 multiplier = getMultiplier(pool.lastRewardBlock, block.number);\r\n        uint256 CryptoGameReward =\r\n            multiplier.mul(CryptoGamePerBlock).mul(pool.allocPoint).div(\r\n                totalAllocPoint\r\n            );\r\n        cryptoGame.mint(devaddr, CryptoGameReward.div(10));\r\n        cryptoGame.mint(address(this), CryptoGameReward);\r\n        pool.accCryptoGamePerShare = pool.accCryptoGamePerShare.add(\r\n            CryptoGameReward.mul(1e12).div(lpSupply)\r\n        );\r\n        pool.lastRewardBlock = block.number;\r\n    }\r\n\r\n\r\n\r\n    // Deposit LP tokens to MasterChef for CryptoGame allocation.\r\n    function deposit(address _sender, uint256 _pid, uint256 _tokenId, uint256 _amount) public onlyOwner{\r\n        PoolInfo storage pool = poolInfo[_pid];\r\n        NFTInfo storage nft = nftInfo[_pid][_tokenId];\r\n        updatePool(_pid);\r\n        pool.colToken.safeTransferFrom(\r\n            address(_sender),\r\n            address(this),\r\n            _amount\r\n        );\r\n        nft.amount = nft.amount.add(_amount);\r\n        nft.rewardDebt = nft.amount.mul(pool.accCryptoGamePerShare).div(1e12);\r\n        emit Deposit(_sender, _pid, _amount);\r\n    }\r\n\r\n    // Withdraw LP tokens from MasterChef.\r\n    function withdraw(address _sender, uint256 _pid, uint256 _tokenId, uint256 _amount) public onlyOwner {\r\n        PoolInfo storage pool = poolInfo[_pid];\r\n        NFTInfo storage nft = nftInfo[_pid][_tokenId];\r\n        require(nft.amount >= _amount, \"withdraw: not good\");\r\n        updatePool(_pid);\r\n        uint256 pending =\r\n            nft.amount.mul(pool.accCryptoGamePerShare).div(1e12).sub(\r\n                nft.rewardDebt\r\n            );\r\n        safeCryptoGameTransfer(_sender, pending);\r\n        nft.amount = nft.amount.sub(_amount);\r\n        nft.rewardDebt = nft.amount.mul(pool.accCryptoGamePerShare).div(1e12);\r\n        pool.colToken.safeTransfer(address(_sender), _amount);\r\n        emit Withdraw(_sender, _pid, _amount);\r\n    }\r\n\r\n    // Withdraw without caring about rewards. EMERGENCY ONLY.\r\n    function emergencyWithdraw(address _sender, uint256 _pid, uint256 _tokenId) public onlyOwner {\r\n        PoolInfo storage pool = poolInfo[_pid];\r\n        NFTInfo storage nft = nftInfo[_pid][_tokenId];\r\n        pool.colToken.safeTransfer(_sender, nft.amount);\r\n        emit EmergencyWithdraw(_sender, _pid, nft.amount);\r\n        nft.amount = 0;\r\n        nft.rewardDebt = 0;\r\n    }\r\n\r\n     // Havest CryptoGame tokens from NFTChef.\r\n    function harvest(address _sender, uint256 _pid, uint _id) public onlyOwner{\r\n        PoolInfo storage pool = poolInfo[_pid];\r\n        NFTInfo storage nft = nftInfo[_pid][_id];\r\n        updatePool(_pid);\r\n        uint256 pending =\r\n            nft.amount.mul(pool.accCryptoGamePerShare).div(1e12).sub(\r\n                nft.rewardDebt\r\n            );\r\n        safeCryptoGameTransfer(_sender, pending);\r\n        nft.rewardDebt = nft.amount.mul(pool.accCryptoGamePerShare).div(1e12);\r\n        emit Harvest(_sender, _pid, pending);\r\n    }\r\n\r\n    // Safe CryptoGame transfer function, just in case if rounding error causes pool to not have enough CryptoGames.\r\n    function safeCryptoGameTransfer(address _to, uint256 _amount) internal {\r\n        uint256 CryptoGameBal = cryptoGame.balanceOf(address(this));\r\n        if (_amount > CryptoGameBal) {\r\n            cryptoGame.transfer(_to, CryptoGameBal);\r\n        } else {\r\n            cryptoGame.transfer(_to, _amount);\r\n        }\r\n    }\r\n\r\n    // Update dev address by the previous dev.\r\n    function dev(address _devaddr) public {\r\n        require(msg.sender == devaddr, \"dev: wut?\");\r\n        devaddr = _devaddr;\r\n    }\r\n}\r\n",
  "sourcePath": "/home/stephenstb/Ratio/ratio/contracts/cryptoGame/NFTChef.sol",
  "compiler": {
    "name": "solc",
    "version": "0.8.5+commit.a4f2e591.Emscripten.clang"
  },
  "schemaVersion": "3.4.3",
  "updatedAt": "2022-03-18T21:34:02.748Z",
  "devdoc": {
    "kind": "dev",
    "methods": {
      "owner()": {
        "details": "Returns the address of the current owner."
      },
      "renounceOwnership()": {
        "details": "Leaves the contract without owner. It will not be possible to call `onlyOwner` functions anymore. Can only be called by the current owner. NOTE: Renouncing ownership will leave the contract without an owner, thereby removing any functionality that is only available to the owner."
      },
      "transferOwnership(address)": {
        "details": "Transfers ownership of the contract to a new account (`newOwner`). Can only be called by the current owner."
      }
    },
    "version": 1
  },
  "userdoc": {
    "kind": "user",
    "methods": {},
    "version": 1
  }
}