{
  "contractName": "NFTMinter",
  "abi": [
    {
      "inputs": [
        {
          "internalType": "address",
          "name": "_nftChef",
          "type": "address"
        }
      ],
      "stateMutability": "nonpayable",
      "type": "constructor"
    },
    {
      "anonymous": false,
      "inputs": [
        {
          "indexed": false,
          "internalType": "address",
          "name": "_nft",
          "type": "address"
        },
        {
          "indexed": false,
          "internalType": "uint256",
          "name": "_id",
          "type": "uint256"
        }
      ],
      "name": "NFT_Mint",
      "type": "event"
    },
    {
      "anonymous": false,
      "inputs": [
        {
          "indexed": true,
          "internalType": "address",
          "name": "previousOwner",
          "type": "address"
        },
        {
          "indexed": true,
          "internalType": "address",
          "name": "newOwner",
          "type": "address"
        }
      ],
      "name": "OwnershipTransferred",
      "type": "event"
    },
    {
      "inputs": [
        {
          "internalType": "address",
          "name": "",
          "type": "address"
        }
      ],
      "name": "nfts",
      "outputs": [
        {
          "internalType": "contract IERC20",
          "name": "token",
          "type": "address"
        },
        {
          "internalType": "uint256",
          "name": "stake",
          "type": "uint256"
        },
        {
          "internalType": "uint256",
          "name": "duration",
          "type": "uint256"
        },
        {
          "internalType": "uint256",
          "name": "pid",
          "type": "uint256"
        }
      ],
      "stateMutability": "view",
      "type": "function"
    },
    {
      "inputs": [],
      "name": "owner",
      "outputs": [
        {
          "internalType": "address",
          "name": "",
          "type": "address"
        }
      ],
      "stateMutability": "view",
      "type": "function"
    },
    {
      "inputs": [],
      "name": "renounceOwnership",
      "outputs": [],
      "stateMutability": "nonpayable",
      "type": "function"
    },
    {
      "inputs": [
        {
          "internalType": "address",
          "name": "",
          "type": "address"
        },
        {
          "internalType": "uint256",
          "name": "",
          "type": "uint256"
        }
      ],
      "name": "starts",
      "outputs": [
        {
          "internalType": "uint256",
          "name": "",
          "type": "uint256"
        }
      ],
      "stateMutability": "view",
      "type": "function"
    },
    {
      "inputs": [
        {
          "internalType": "address",
          "name": "newOwner",
          "type": "address"
        }
      ],
      "name": "transferOwnership",
      "outputs": [],
      "stateMutability": "nonpayable",
      "type": "function"
    },
    {
      "inputs": [
        {
          "internalType": "contract IERC721",
          "name": "_nft",
          "type": "address"
        },
        {
          "internalType": "contract IERC20",
          "name": "_token",
          "type": "address"
        },
        {
          "internalType": "uint256",
          "name": "_stake",
          "type": "uint256"
        },
        {
          "internalType": "uint256",
          "name": "_duration",
          "type": "uint256"
        },
        {
          "internalType": "uint256",
          "name": "_allocPoint",
          "type": "uint256"
        }
      ],
      "name": "add",
      "outputs": [],
      "stateMutability": "nonpayable",
      "type": "function"
    },
    {
      "inputs": [
        {
          "internalType": "uint256",
          "name": "_pid",
          "type": "uint256"
        },
        {
          "internalType": "uint256",
          "name": "_allocPoint",
          "type": "uint256"
        },
        {
          "internalType": "bool",
          "name": "_withUpdate",
          "type": "bool"
        }
      ],
      "name": "set",
      "outputs": [],
      "stateMutability": "nonpayable",
      "type": "function"
    },
    {
      "inputs": [
        {
          "internalType": "contract Mintable",
          "name": "_nft",
          "type": "address"
        }
      ],
      "name": "mint",
      "outputs": [],
      "stateMutability": "nonpayable",
      "type": "function"
    },
    {
      "inputs": [
        {
          "internalType": "contract IERC721",
          "name": "_nft",
          "type": "address"
        },
        {
          "internalType": "uint256",
          "name": "_id",
          "type": "uint256"
        }
      ],
      "name": "harvest",
      "outputs": [],
      "stateMutability": "nonpayable",
      "type": "function"
    },
    {
      "inputs": [
        {
          "internalType": "contract Mintable",
          "name": "_nft",
          "type": "address"
        },
        {
          "internalType": "uint256",
          "name": "_id",
          "type": "uint256"
        }
      ],
      "name": "burn",
      "outputs": [],
      "stateMutability": "nonpayable",
      "type": "function"
    }
  ],
  "bytecode": "0x60806040523480156200001157600080fd5b50604051620020be380380620020be833981810160405281019062000037919062000182565b620000576200004b6200009f60201b60201c565b620000a760201b60201c565b80600260006101000a81548173ffffffffffffffffffffffffffffffffffffffff021916908373ffffffffffffffffffffffffffffffffffffffff1602179055505062000207565b600033905090565b60008060009054906101000a900473ffffffffffffffffffffffffffffffffffffffff169050816000806101000a81548173ffffffffffffffffffffffffffffffffffffffff021916908373ffffffffffffffffffffffffffffffffffffffff1602179055508173ffffffffffffffffffffffffffffffffffffffff168173ffffffffffffffffffffffffffffffffffffffff167f8be0079c531659141344cd1fd0a4f28419497f9722a3daafe3b4186f6b6457e060405160405180910390a35050565b6000815190506200017c81620001ed565b92915050565b6000602082840312156200019b576200019a620001e8565b5b6000620001ab848285016200016b565b91505092915050565b6000620001c182620001c8565b9050919050565b600073ffffffffffffffffffffffffffffffffffffffff82169050919050565b600080fd5b620001f881620001b4565b81146200020457600080fd5b50565b611ea780620002176000396000f3fe608060405234801561001057600080fd5b506004361061009e5760003560e01c8063715018a611610066578063715018a61461015a5780638da5cb5b146101645780639dc29fac14610182578063cbcf02701461019e578063f2fde38b146101ba5761009e565b8063018ee9b7146100a3578063599db0f8146100bf57806364482f79146100f25780636a6278421461010e5780636e03cd691461012a575b600080fd5b6100bd60048036038101906100b89190611543565b6101d6565b005b6100d960048036038101906100d4919061142e565b610475565b6040516100e994939291906118bc565b60405180910390f35b61010c6004803603810190610107919061161d565b6104c5565b005b61012860048036038101906101239190611583565b6105d7565b005b610144600480360381019061013f9190611488565b610a1f565b6040516101519190611a01565b60405180910390f35b610162610a44565b005b61016c610acc565b60405161017991906117d3565b60405180910390f35b61019c600480360381019061019791906115b0565b610af5565b005b6101b860048036038101906101b391906114c8565b610f22565b005b6101d460048036038101906101cf919061142e565b6111c2565b005b600073ffffffffffffffffffffffffffffffffffffffff16600360008473ffffffffffffffffffffffffffffffffffffffff1673ffffffffffffffffffffffffffffffffffffffff16815260200190815260200160002060000160009054906101000a900473ffffffffffffffffffffffffffffffffffffffff1673ffffffffffffffffffffffffffffffffffffffff1614156102a8576040517f08c379a000000000000000000000000000000000000000000000000000000000815260040161029f906119e1565b60405180910390fd5b3373ffffffffffffffffffffffffffffffffffffffff168273ffffffffffffffffffffffffffffffffffffffff16636352211e836040518263ffffffff1660e01b81526004016102f89190611a01565b60206040518083038186803b15801561031057600080fd5b505afa158015610324573d6000803e3d6000fd5b505050506040513d601f19601f82011682018060405250810190610348919061145b565b73ffffffffffffffffffffffffffffffffffffffff161461039e576040517f08c379a000000000000000000000000000000000000000000000000000000000815260040161039590611941565b60405180910390fd5b600260009054906101000a900473ffffffffffffffffffffffffffffffffffffffff1673ffffffffffffffffffffffffffffffffffffffff1663f758870133600360008673ffffffffffffffffffffffffffffffffffffffff1673ffffffffffffffffffffffffffffffffffffffff16815260200190815260200160002060030154846040518463ffffffff1660e01b815260040161043f93929190611840565b600060405180830381600087803b15801561045957600080fd5b505af115801561046d573d6000803e3d6000fd5b505050505050565b60036020528060005260406000206000915090508060000160009054906101000a900473ffffffffffffffffffffffffffffffffffffffff16908060010154908060020154908060030154905084565b6104cd6112ba565b73ffffffffffffffffffffffffffffffffffffffff166104eb610acc565b73ffffffffffffffffffffffffffffffffffffffff1614610541576040517f08c379a000000000000000000000000000000000000000000000000000000000815260040161053890611981565b60405180910390fd5b600260009054906101000a900473ffffffffffffffffffffffffffffffffffffffff1673ffffffffffffffffffffffffffffffffffffffff166364482f798484846040518463ffffffff1660e01b81526004016105a093929190611a61565b600060405180830381600087803b1580156105ba57600080fd5b505af11580156105ce573d6000803e3d6000fd5b50505050505050565b600073ffffffffffffffffffffffffffffffffffffffff16600360008373ffffffffffffffffffffffffffffffffffffffff1673ffffffffffffffffffffffffffffffffffffffff16815260200190815260200160002060000160009054906101000a900473ffffffffffffffffffffffffffffffffffffffff1673ffffffffffffffffffffffffffffffffffffffff1614156106a9576040517f08c379a00000000000000000000000000000000000000000000000000000000081526004016106a090611901565b60405180910390fd5b6000600360008373ffffffffffffffffffffffffffffffffffffffff1673ffffffffffffffffffffffffffffffffffffffff1681526020019081526020016000206040518060800160405290816000820160009054906101000a900473ffffffffffffffffffffffffffffffffffffffff1673ffffffffffffffffffffffffffffffffffffffff1673ffffffffffffffffffffffffffffffffffffffff168152602001600182015481526020016002820154815260200160038201548152505090508060200151816000015173ffffffffffffffffffffffffffffffffffffffff1663dd62ed3e33600260009054906101000a900473ffffffffffffffffffffffffffffffffffffffff166040518363ffffffff1660e01b81526004016107d19291906117ee565b60206040518083038186803b1580156107e957600080fd5b505afa1580156107fd573d6000803e3d6000fd5b505050506040513d601f19601f8201168201806040525081019061082191906115f0565b1015610862576040517f08c379a0000000000000000000000000000000000000000000000000000000008152600401610859906119a1565b60405180910390fd5b60008273ffffffffffffffffffffffffffffffffffffffff16636a627842336040518263ffffffff1660e01b815260040161089d91906117d3565b602060405180830381600087803b1580156108b757600080fd5b505af11580156108cb573d6000803e3d6000fd5b505050506040513d601f19601f820116820180604052508101906108ef91906115f0565b905043600160008573ffffffffffffffffffffffffffffffffffffffff1673ffffffffffffffffffffffffffffffffffffffff1681526020019081526020016000206000838152602001908152602001600020819055507f0c2c69ba7d09e669a763b20242404d12b7588cb5521d7f3814181f0f660226c48382604051610977929190611817565b60405180910390a1600260009054906101000a900473ffffffffffffffffffffffffffffffffffffffff1673ffffffffffffffffffffffffffffffffffffffff1663ce88b4393384606001518486602001516040518563ffffffff1660e01b81526004016109e89493929190611877565b600060405180830381600087803b158015610a0257600080fd5b505af1158015610a16573d6000803e3d6000fd5b50505050505050565b6001602052816000526040600020602052806000526040600020600091509150505481565b610a4c6112ba565b73ffffffffffffffffffffffffffffffffffffffff16610a6a610acc565b73ffffffffffffffffffffffffffffffffffffffff1614610ac0576040517f08c379a0000000000000000000000000000000000000000000000000000000008152600401610ab790611981565b60405180910390fd5b610aca60006112c2565b565b60008060009054906101000a900473ffffffffffffffffffffffffffffffffffffffff16905090565b600073ffffffffffffffffffffffffffffffffffffffff16600360008473ffffffffffffffffffffffffffffffffffffffff1673ffffffffffffffffffffffffffffffffffffffff16815260200190815260200160002060000160009054906101000a900473ffffffffffffffffffffffffffffffffffffffff1673ffffffffffffffffffffffffffffffffffffffff161415610bc7576040517f08c379a0000000000000000000000000000000000000000000000000000000008152600401610bbe90611961565b60405180910390fd5b8173ffffffffffffffffffffffffffffffffffffffff16636352211e826040518263ffffffff1660e01b8152600401610c009190611a01565b60206040518083038186803b158015610c1857600080fd5b505afa158015610c2c573d6000803e3d6000fd5b505050506040513d601f19601f82011682018060405250810190610c50919061145b565b73ffffffffffffffffffffffffffffffffffffffff163373ffffffffffffffffffffffffffffffffffffffff1614610cbd576040517f08c379a0000000000000000000000000000000000000000000000000000000008152600401610cb490611941565b60405180910390fd5b600360008373ffffffffffffffffffffffffffffffffffffffff1673ffffffffffffffffffffffffffffffffffffffff16815260200190815260200160002060020154600160008473ffffffffffffffffffffffffffffffffffffffff1673ffffffffffffffffffffffffffffffffffffffff168152602001908152602001600020600083815260200190815260200160002054610d5b9190611aa9565b4311610d9c576040517f08c379a0000000000000000000000000000000000000000000000000000000008152600401610d93906119c1565b60405180910390fd5b600260009054906101000a900473ffffffffffffffffffffffffffffffffffffffff1673ffffffffffffffffffffffffffffffffffffffff16634532d77633600360008673ffffffffffffffffffffffffffffffffffffffff1673ffffffffffffffffffffffffffffffffffffffff1681526020019081526020016000206003015484600360008873ffffffffffffffffffffffffffffffffffffffff1673ffffffffffffffffffffffffffffffffffffffff168152602001908152602001600020600101546040518563ffffffff1660e01b8152600401610e819493929190611877565b600060405180830381600087803b158015610e9b57600080fd5b505af1158015610eaf573d6000803e3d6000fd5b505050508173ffffffffffffffffffffffffffffffffffffffff166342966c68826040518263ffffffff1660e01b8152600401610eec9190611a01565b600060405180830381600087803b158015610f0657600080fd5b505af1158015610f1a573d6000803e3d6000fd5b505050505050565b610f2a6112ba565b73ffffffffffffffffffffffffffffffffffffffff16610f48610acc565b73ffffffffffffffffffffffffffffffffffffffff1614610f9e576040517f08c379a0000000000000000000000000000000000000000000000000000000008152600401610f9590611981565b60405180910390fd5b600260009054906101000a900473ffffffffffffffffffffffffffffffffffffffff1673ffffffffffffffffffffffffffffffffffffffff1663c71b4b4382878760016040518563ffffffff1660e01b81526004016110009493929190611a1c565b600060405180830381600087803b15801561101a57600080fd5b505af115801561102e573d6000803e3d6000fd5b5050505060405180608001604052808573ffffffffffffffffffffffffffffffffffffffff1681526020018481526020018381526020016001600260009054906101000a900473ffffffffffffffffffffffffffffffffffffffff1673ffffffffffffffffffffffffffffffffffffffff1663081e3eda6040518163ffffffff1660e01b815260040160206040518083038186803b1580156110cf57600080fd5b505afa1580156110e3573d6000803e3d6000fd5b505050506040513d601f19601f8201168201806040525081019061110791906115f0565b6111119190611aff565b815250600360008773ffffffffffffffffffffffffffffffffffffffff1673ffffffffffffffffffffffffffffffffffffffff16815260200190815260200160002060008201518160000160006101000a81548173ffffffffffffffffffffffffffffffffffffffff021916908373ffffffffffffffffffffffffffffffffffffffff1602179055506020820151816001015560408201518160020155606082015181600301559050505050505050565b6111ca6112ba565b73ffffffffffffffffffffffffffffffffffffffff166111e8610acc565b73ffffffffffffffffffffffffffffffffffffffff161461123e576040517f08c379a000000000000000000000000000000000000000000000000000000000815260040161123590611981565b60405180910390fd5b600073ffffffffffffffffffffffffffffffffffffffff168173ffffffffffffffffffffffffffffffffffffffff1614156112ae576040517f08c379a00000000000000000000000000000000000000000000000000000000081526004016112a590611921565b60405180910390fd5b6112b7816112c2565b50565b600033905090565b60008060009054906101000a900473ffffffffffffffffffffffffffffffffffffffff169050816000806101000a81548173ffffffffffffffffffffffffffffffffffffffff021916908373ffffffffffffffffffffffffffffffffffffffff1602179055508173ffffffffffffffffffffffffffffffffffffffff168173ffffffffffffffffffffffffffffffffffffffff167f8be0079c531659141344cd1fd0a4f28419497f9722a3daafe3b4186f6b6457e060405160405180910390a35050565b60008135905061139581611de7565b92915050565b6000815190506113aa81611de7565b92915050565b6000813590506113bf81611dfe565b92915050565b6000813590506113d481611e15565b92915050565b6000813590506113e981611e2c565b92915050565b6000813590506113fe81611e43565b92915050565b60008135905061141381611e5a565b92915050565b60008151905061142881611e5a565b92915050565b60006020828403121561144457611443611c28565b5b600061145284828501611386565b91505092915050565b60006020828403121561147157611470611c28565b5b600061147f8482850161139b565b91505092915050565b6000806040838503121561149f5761149e611c28565b5b60006114ad85828601611386565b92505060206114be85828601611404565b9150509250929050565b600080600080600060a086880312156114e4576114e3611c28565b5b60006114f2888289016113da565b9550506020611503888289016113c5565b945050604061151488828901611404565b935050606061152588828901611404565b925050608061153688828901611404565b9150509295509295909350565b6000806040838503121561155a57611559611c28565b5b6000611568858286016113da565b925050602061157985828601611404565b9150509250929050565b60006020828403121561159957611598611c28565b5b60006115a7848285016113ef565b91505092915050565b600080604083850312156115c7576115c6611c28565b5b60006115d5858286016113ef565b92505060206115e685828601611404565b9150509250929050565b60006020828403121561160657611605611c28565b5b600061161484828501611419565b91505092915050565b60008060006060848603121561163657611635611c28565b5b600061164486828701611404565b935050602061165586828701611404565b9250506040611666868287016113b0565b9150509250925092565b61167981611b33565b82525050565b61168881611b45565b82525050565b61169781611bb1565b82525050565b6116a681611bd5565b82525050565b60006116b9601383611a98565b91506116c482611c2d565b602082019050919050565b60006116dc602683611a98565b91506116e782611c56565b604082019050919050565b60006116ff602583611a98565b915061170a82611ca5565b604082019050919050565b6000611722601383611a98565b915061172d82611cf4565b602082019050919050565b6000611745602083611a98565b915061175082611d1d565b602082019050919050565b6000611768602483611a98565b915061177382611d46565b604082019050919050565b600061178b601e83611a98565b915061179682611d95565b602082019050919050565b60006117ae601c83611a98565b91506117b982611dbe565b602082019050919050565b6117cd81611ba7565b82525050565b60006020820190506117e86000830184611670565b92915050565b60006040820190506118036000830185611670565b6118106020830184611670565b9392505050565b600060408201905061182c6000830185611670565b61183960208301846117c4565b9392505050565b60006060820190506118556000830186611670565b61186260208301856117c4565b61186f60408301846117c4565b949350505050565b600060808201905061188c6000830187611670565b61189960208301866117c4565b6118a660408301856117c4565b6118b360608301846117c4565b95945050505050565b60006080820190506118d1600083018761168e565b6118de60208301866117c4565b6118eb60408301856117c4565b6118f860608301846117c4565b95945050505050565b6000602082019050818103600083015261191a816116ac565b9050919050565b6000602082019050818103600083015261193a816116cf565b9050919050565b6000602082019050818103600083015261195a816116f2565b9050919050565b6000602082019050818103600083015261197a81611715565b9050919050565b6000602082019050818103600083015261199a81611738565b9050919050565b600060208201905081810360008301526119ba8161175b565b9050919050565b600060208201905081810360008301526119da8161177e565b9050919050565b600060208201905081810360008301526119fa816117a1565b9050919050565b6000602082019050611a1660008301846117c4565b92915050565b6000608082019050611a3160008301876117c4565b611a3e602083018661169d565b611a4b604083018561168e565b611a58606083018461167f565b95945050505050565b6000606082019050611a7660008301866117c4565b611a8360208301856117c4565b611a90604083018461167f565b949350505050565b600082825260208201905092915050565b6000611ab482611ba7565b9150611abf83611ba7565b9250827fffffffffffffffffffffffffffffffffffffffffffffffffffffffffffffffff03821115611af457611af3611bf9565b5b828201905092915050565b6000611b0a82611ba7565b9150611b1583611ba7565b925082821015611b2857611b27611bf9565b5b828203905092915050565b6000611b3e82611b87565b9050919050565b60008115159050919050565b6000611b5c82611b33565b9050919050565b6000611b6e82611b33565b9050919050565b6000611b8082611b33565b9050919050565b600073ffffffffffffffffffffffffffffffffffffffff82169050919050565b6000819050919050565b6000611bbc82611bc3565b9050919050565b6000611bce82611b87565b9050919050565b6000611be082611be7565b9050919050565b6000611bf282611b87565b9050919050565b7f4e487b7100000000000000000000000000000000000000000000000000000000600052601160045260246000fd5b600080fd5b7f496e76616c6964206e667420746f206d696e7400000000000000000000000000600082015250565b7f4f776e61626c653a206e6577206f776e657220697320746865207a65726f206160008201527f6464726573730000000000000000000000000000000000000000000000000000602082015250565b7f53656e646572206973206e6f7420746865206f776e6572206f6620746865207460008201527f6f6b656e2e000000000000000000000000000000000000000000000000000000602082015250565b7f496e76616c6964206e667420746f206275726e00000000000000000000000000600082015250565b7f4f776e61626c653a2063616c6c6572206973206e6f7420746865206f776e6572600082015250565b7f496e76616c6964207374616b6520676976656e20666f7220746865206e66742060008201527f6d696e7400000000000000000000000000000000000000000000000000000000602082015250565b7f546865206e66742063616e206e6f74206265206275726e6564207965742e0000600082015250565b7f43616e206e6f742068617276657374204e465420616464726573732e00000000600082015250565b611df081611b33565b8114611dfb57600080fd5b50565b611e0781611b45565b8114611e1257600080fd5b50565b611e1e81611b51565b8114611e2957600080fd5b50565b611e3581611b63565b8114611e4057600080fd5b50565b611e4c81611b75565b8114611e5757600080fd5b50565b611e6381611ba7565b8114611e6e57600080fd5b5056fea26469706673582212202bc99b314e7372f1c5379a082fd3b05ffda817872487f09222fec871dff7ca7164736f6c63430008050033",
  "immutableReferences": {},
  "source": "pragma solidity ^0.8.2;\r\n\r\nimport \"@openzeppelin/contracts/access/Ownable.sol\";\r\n\r\nimport \"@openzeppelin/contracts/token/ERC20/IERC20.sol\";\r\n\r\nimport \"@openzeppelin/contracts/token/ERC721/IERC721.sol\";\r\n\r\nimport \"@openzeppelin/contracts/token/ERC20/utils/SafeERC20.sol\";\r\n\r\nimport \"./Interfaces/Mintable.sol\";\r\n\r\nimport \"./NFTChef.sol\";\r\n\r\n// Creates NFT stakes for participants \r\ncontract NFTMinter is Ownable{\r\n    using SafeERC20 for IERC20;\r\n\r\n    // struct to hold information about nfts which receive rewards from NFTChef\r\n    struct nftInfo{\r\n        IERC20 token;\r\n        uint stake;\r\n        uint duration;\r\n        uint pid;\r\n    }\r\n\r\n    // mapping holding the starting stake block of nfts tokenIds\r\n    mapping(address => mapping(uint => uint)) public starts;\r\n\r\n    // Contract of the NFTChef.\r\n    NFTChef nftChef;\r\n\r\n    // mapping of the nfts nftInfo.\r\n    mapping(address => nftInfo) public nfts;\r\n\r\n    // event emitted when an nft is minted \r\n    event NFT_Mint(address _nft, uint _id);\r\n\r\n    // Constructor\r\n    constructor(address _nftChef){\r\n        nftChef = NFTChef(_nftChef);\r\n    }\r\n\r\n    // Function to add the nft type to the NFTMinter/NFTChef contracts.\r\n    function add(IERC721 _nft, IERC20 _token, uint _stake, uint _duration, uint _allocPoint) public onlyOwner{\r\n        nftChef.add(_allocPoint, _nft, _token, true);\r\n\r\n        nfts[address(_nft)] = nftInfo(_token, _stake, _duration, nftChef.poolLength() - 1);\r\n    }\r\n\r\n    //Fuunction to set nft allocPoints in nftChef\r\n    function set(uint256 _pid, uint256 _allocPoint, bool _withUpdate) public onlyOwner\r\n    {\r\n        nftChef.set(_pid, _allocPoint, _withUpdate);\r\n    }\r\n\r\n    //Function to insert nft into NFTChef,\r\n\r\n    //Funtion to remove nft from NFTChef,\r\n\r\n    // Function to mint an _nft\r\n    function mint(Mintable _nft) public{\r\n        // Condition to determine if the nft to be minted exists.\r\n        require(address(nfts[address(_nft)].token) != address(0), \"Invalid nft to mint\");\r\n\r\n        // Get the info about the given nft for minting.\r\n        nftInfo memory info = nfts[address(_nft)];\r\n\r\n        // Condition to determine if the sender has aproved collateral for nft mint.\r\n        require(info.token.allowance(msg.sender, address(nftChef)) >= info.stake, \"Invalid stake given for the nft mint\");\r\n\r\n        // Mint NFT and store id for pool use.\r\n        uint id = _nft.mint(msg.sender);\r\n\r\n        starts[address(_nft)][id] = block.number;\r\n\r\n        // Mint and emit id\r\n        emit NFT_Mint(address(_nft), id);\r\n\r\n        //deposit stake into NFTChef.\r\n        nftChef.deposit(msg.sender, info.pid, id, info.stake);\r\n        \r\n    }\r\n\r\n    // Function to harvest CryptoGame tokens on the behalf of the _nft with _id\r\n    function harvest(IERC721 _nft, uint _id) public{\r\n        // Condition to determine if the nft to be harvested exists.\r\n        require(address(nfts[address(_nft)].token) != address(0), \"Can not harvest NFT address.\");\r\n        // Condition to determine if the sender is the owner of _nft with _id \r\n        require(_nft.ownerOf(_id) == msg.sender, \"Sender is not the owner of the token.\");\r\n\r\n        // Condition to harvest _nft with _id to sender.\r\n        nftChef.harvest(msg.sender, nfts[address(_nft)].pid, _id);\r\n    }\r\n\r\n    // Function to burn _nft and receive stake.\r\n    function burn(Mintable _nft, uint _id) public{\r\n        // Condition to determine if the nft to be burned exists.\r\n        require(address(nfts[address(_nft)].token) != address(0), \"Invalid nft to burn\");\r\n\r\n        // Condition to determine if the sender is the owner of the _nft with _id\r\n        require(msg.sender == IERC721(address(_nft)).ownerOf(_id), \"Sender is not the owner of the token.\");\r\n\r\n        // Condition to determine if the stake duration has expired.\r\n        require(block.number > starts[address(_nft)][_id] + nfts[address(_nft)].duration, \"The nft can not be burned yet.\");\r\n\r\n        // Remove nft and stake from the pool.\r\n        nftChef.withdraw(msg.sender, nfts[address(_nft)].pid, _id,nfts[address(_nft)].stake);\r\n\r\n        // Burn the _nft with _id.\r\n        _nft.burn(_id);\r\n    }\r\n}",
  "sourcePath": "/home/stephenstb/Ratio-Labs/ratio-labsV0/contracts/CryptoGame/NFTMinter.sol",
  "compiler": {
    "name": "solc",
    "version": "0.8.5+commit.a4f2e591.Emscripten.clang"
  },
  "schemaVersion": "3.3.3",
  "updatedAt": "2022-07-15T04:56:39.142Z",
  "devdoc": {
    "kind": "dev",
    "methods": {
      "owner()": {
        "details": "Returns the address of the current owner."
      },
      "renounceOwnership()": {
        "details": "Leaves the contract without owner. It will not be possible to call `onlyOwner` functions anymore. Can only be called by the current owner. NOTE: Renouncing ownership will leave the contract without an owner, thereby removing any functionality that is only available to the owner."
      },
      "transferOwnership(address)": {
        "details": "Transfers ownership of the contract to a new account (`newOwner`). Can only be called by the current owner."
      }
    },
    "version": 1
  },
  "userdoc": {
    "kind": "user",
    "methods": {},
    "version": 1
  }
}