{
  "contractName": "NFTProtocol",
  "abi": [
    {
      "inputs": [
        {
          "internalType": "uint256",
          "name": "_minimumRequestValue",
          "type": "uint256"
        }
      ],
      "stateMutability": "nonpayable",
      "type": "constructor"
    },
    {
      "anonymous": false,
      "inputs": [
        {
          "indexed": true,
          "internalType": "address",
          "name": "previousOwner",
          "type": "address"
        },
        {
          "indexed": true,
          "internalType": "address",
          "name": "newOwner",
          "type": "address"
        }
      ],
      "name": "OwnershipTransferred",
      "type": "event"
    },
    {
      "anonymous": false,
      "inputs": [
        {
          "components": [
            {
              "internalType": "bytes32",
              "name": "_prev",
              "type": "bytes32"
            },
            {
              "internalType": "bytes32",
              "name": "_root",
              "type": "bytes32"
            },
            {
              "internalType": "string",
              "name": "_leaves",
              "type": "string"
            },
            {
              "internalType": "uint256",
              "name": "_block",
              "type": "uint256"
            }
          ],
          "indexed": false,
          "internalType": "struct NFTProtocol.nftBlock",
          "name": "_block",
          "type": "tuple"
        }
      ],
      "name": "blockSubmitted",
      "type": "event"
    },
    {
      "anonymous": false,
      "inputs": [
        {
          "indexed": false,
          "internalType": "address",
          "name": "_contract",
          "type": "address"
        },
        {
          "indexed": false,
          "internalType": "bool",
          "name": "_slashed",
          "type": "bool"
        }
      ],
      "name": "slash",
      "type": "event"
    },
    {
      "anonymous": false,
      "inputs": [
        {
          "indexed": false,
          "internalType": "address[]",
          "name": "_contracts",
          "type": "address[]"
        }
      ],
      "name": "slashed",
      "type": "event"
    },
    {
      "anonymous": false,
      "inputs": [
        {
          "indexed": false,
          "internalType": "address",
          "name": "_contract",
          "type": "address"
        },
        {
          "indexed": false,
          "internalType": "address",
          "name": "_distributor",
          "type": "address"
        },
        {
          "indexed": false,
          "internalType": "string",
          "name": "_baseURI",
          "type": "string"
        },
        {
          "indexed": false,
          "internalType": "uint256",
          "name": "_block",
          "type": "uint256"
        }
      ],
      "name": "verificationRequest",
      "type": "event"
    },
    {
      "anonymous": false,
      "inputs": [
        {
          "components": [
            {
              "internalType": "address",
              "name": "_contract",
              "type": "address"
            },
            {
              "internalType": "address",
              "name": "_distributor",
              "type": "address"
            },
            {
              "internalType": "string",
              "name": "_baseURI",
              "type": "string"
            },
            {
              "internalType": "string[]",
              "name": "_subURIs",
              "type": "string[]"
            },
            {
              "internalType": "uint256",
              "name": "_block",
              "type": "uint256"
            }
          ],
          "indexed": false,
          "internalType": "struct NFTProtocol.nftStruct",
          "name": "_nft",
          "type": "tuple"
        }
      ],
      "name": "verified",
      "type": "event"
    },
    {
      "inputs": [
        {
          "internalType": "string",
          "name": "",
          "type": "string"
        }
      ],
      "name": "baseURIContract",
      "outputs": [
        {
          "internalType": "address",
          "name": "",
          "type": "address"
        }
      ],
      "stateMutability": "view",
      "type": "function"
    },
    {
      "inputs": [
        {
          "internalType": "bytes32",
          "name": "",
          "type": "bytes32"
        }
      ],
      "name": "blockMap",
      "outputs": [
        {
          "internalType": "bytes32",
          "name": "_prev",
          "type": "bytes32"
        },
        {
          "internalType": "bytes32",
          "name": "_root",
          "type": "bytes32"
        },
        {
          "internalType": "string",
          "name": "_leaves",
          "type": "string"
        },
        {
          "internalType": "uint256",
          "name": "_block",
          "type": "uint256"
        }
      ],
      "stateMutability": "view",
      "type": "function"
    },
    {
      "inputs": [
        {
          "internalType": "address",
          "name": "",
          "type": "address"
        },
        {
          "internalType": "uint256",
          "name": "",
          "type": "uint256"
        }
      ],
      "name": "distributorContracts",
      "outputs": [
        {
          "internalType": "address",
          "name": "",
          "type": "address"
        }
      ],
      "stateMutability": "view",
      "type": "function"
    },
    {
      "inputs": [],
      "name": "minimumRequestValue",
      "outputs": [
        {
          "internalType": "uint256",
          "name": "",
          "type": "uint256"
        }
      ],
      "stateMutability": "view",
      "type": "function"
    },
    {
      "inputs": [
        {
          "internalType": "uint256",
          "name": "",
          "type": "uint256"
        }
      ],
      "name": "nftBlocks",
      "outputs": [
        {
          "internalType": "bytes32",
          "name": "_prev",
          "type": "bytes32"
        },
        {
          "internalType": "bytes32",
          "name": "_root",
          "type": "bytes32"
        },
        {
          "internalType": "string",
          "name": "_leaves",
          "type": "string"
        },
        {
          "internalType": "uint256",
          "name": "_block",
          "type": "uint256"
        }
      ],
      "stateMutability": "view",
      "type": "function"
    },
    {
      "inputs": [
        {
          "internalType": "uint256",
          "name": "",
          "type": "uint256"
        }
      ],
      "name": "nftContracts",
      "outputs": [
        {
          "internalType": "address",
          "name": "",
          "type": "address"
        }
      ],
      "stateMutability": "view",
      "type": "function"
    },
    {
      "inputs": [
        {
          "internalType": "address",
          "name": "",
          "type": "address"
        }
      ],
      "name": "nftSlashed",
      "outputs": [
        {
          "internalType": "bool",
          "name": "",
          "type": "bool"
        }
      ],
      "stateMutability": "view",
      "type": "function"
    },
    {
      "inputs": [],
      "name": "owner",
      "outputs": [
        {
          "internalType": "address",
          "name": "",
          "type": "address"
        }
      ],
      "stateMutability": "view",
      "type": "function"
    },
    {
      "inputs": [],
      "name": "renounceOwnership",
      "outputs": [],
      "stateMutability": "nonpayable",
      "type": "function"
    },
    {
      "inputs": [
        {
          "internalType": "string",
          "name": "",
          "type": "string"
        }
      ],
      "name": "subURIContract",
      "outputs": [
        {
          "internalType": "address",
          "name": "",
          "type": "address"
        }
      ],
      "stateMutability": "view",
      "type": "function"
    },
    {
      "inputs": [
        {
          "internalType": "address",
          "name": "newOwner",
          "type": "address"
        }
      ],
      "name": "transferOwnership",
      "outputs": [],
      "stateMutability": "nonpayable",
      "type": "function"
    },
    {
      "inputs": [],
      "name": "requestVerification",
      "outputs": [],
      "stateMutability": "payable",
      "type": "function"
    },
    {
      "inputs": [
        {
          "internalType": "bytes32[]",
          "name": "_proof",
          "type": "bytes32[]"
        },
        {
          "internalType": "bytes32",
          "name": "_root",
          "type": "bytes32"
        },
        {
          "internalType": "bytes32",
          "name": "_leaf",
          "type": "bytes32"
        },
        {
          "components": [
            {
              "internalType": "address",
              "name": "_contract",
              "type": "address"
            },
            {
              "internalType": "address",
              "name": "_distributor",
              "type": "address"
            },
            {
              "internalType": "string",
              "name": "_baseURI",
              "type": "string"
            },
            {
              "internalType": "string[]",
              "name": "_subURIs",
              "type": "string[]"
            },
            {
              "internalType": "uint256",
              "name": "_block",
              "type": "uint256"
            }
          ],
          "internalType": "struct NFTProtocol.nftStruct",
          "name": "_nft",
          "type": "tuple"
        }
      ],
      "name": "verifyNFT",
      "outputs": [],
      "stateMutability": "nonpayable",
      "type": "function"
    },
    {
      "inputs": [
        {
          "components": [
            {
              "internalType": "bytes32",
              "name": "_prev",
              "type": "bytes32"
            },
            {
              "internalType": "bytes32",
              "name": "_root",
              "type": "bytes32"
            },
            {
              "internalType": "string",
              "name": "_leaves",
              "type": "string"
            },
            {
              "internalType": "uint256",
              "name": "_block",
              "type": "uint256"
            }
          ],
          "internalType": "struct NFTProtocol.nftBlock",
          "name": "_block",
          "type": "tuple"
        }
      ],
      "name": "submitBlock",
      "outputs": [],
      "stateMutability": "nonpayable",
      "type": "function"
    },
    {
      "inputs": [
        {
          "internalType": "address[]",
          "name": "_contracts",
          "type": "address[]"
        }
      ],
      "name": "slashNFTs",
      "outputs": [],
      "stateMutability": "nonpayable",
      "type": "function"
    },
    {
      "inputs": [
        {
          "internalType": "address",
          "name": "_contract",
          "type": "address"
        }
      ],
      "name": "slashNFT",
      "outputs": [],
      "stateMutability": "nonpayable",
      "type": "function"
    },
    {
      "inputs": [],
      "name": "latestBlock",
      "outputs": [
        {
          "components": [
            {
              "internalType": "bytes32",
              "name": "_prev",
              "type": "bytes32"
            },
            {
              "internalType": "bytes32",
              "name": "_root",
              "type": "bytes32"
            },
            {
              "internalType": "string",
              "name": "_leaves",
              "type": "string"
            },
            {
              "internalType": "uint256",
              "name": "_block",
              "type": "uint256"
            }
          ],
          "internalType": "struct NFTProtocol.nftBlock",
          "name": "_block",
          "type": "tuple"
        }
      ],
      "stateMutability": "view",
      "type": "function"
    },
    {
      "inputs": [
        {
          "internalType": "address",
          "name": "_contract",
          "type": "address"
        }
      ],
      "name": "getContractNFT",
      "outputs": [
        {
          "components": [
            {
              "internalType": "address",
              "name": "_contract",
              "type": "address"
            },
            {
              "internalType": "address",
              "name": "_distributor",
              "type": "address"
            },
            {
              "internalType": "string",
              "name": "_baseURI",
              "type": "string"
            },
            {
              "internalType": "string[]",
              "name": "_subURIs",
              "type": "string[]"
            },
            {
              "internalType": "uint256",
              "name": "_block",
              "type": "uint256"
            }
          ],
          "internalType": "struct NFTProtocol.nftStruct",
          "name": "_nft",
          "type": "tuple"
        }
      ],
      "stateMutability": "view",
      "type": "function"
    },
    {
      "inputs": [
        {
          "internalType": "string",
          "name": "_baseURI",
          "type": "string"
        }
      ],
      "name": "getBaseURIdistributor",
      "outputs": [
        {
          "internalType": "address",
          "name": "_distributor",
          "type": "address"
        }
      ],
      "stateMutability": "view",
      "type": "function"
    },
    {
      "inputs": [
        {
          "internalType": "string",
          "name": "_subURI",
          "type": "string"
        }
      ],
      "name": "getSubURIbaseURI",
      "outputs": [
        {
          "internalType": "string",
          "name": "_baseURI",
          "type": "string"
        }
      ],
      "stateMutability": "view",
      "type": "function"
    },
    {
      "inputs": [
        {
          "internalType": "address",
          "name": "_distributor",
          "type": "address"
        }
      ],
      "name": "getDistributorContracts",
      "outputs": [
        {
          "internalType": "address[]",
          "name": "_contracts",
          "type": "address[]"
        }
      ],
      "stateMutability": "view",
      "type": "function"
    },
    {
      "inputs": [
        {
          "internalType": "uint256",
          "name": "_start",
          "type": "uint256"
        },
        {
          "internalType": "uint256",
          "name": "_end",
          "type": "uint256"
        }
      ],
      "name": "getContracts",
      "outputs": [
        {
          "internalType": "address[1000]",
          "name": "_contracts",
          "type": "address[1000]"
        }
      ],
      "stateMutability": "view",
      "type": "function"
    },
    {
      "inputs": [
        {
          "internalType": "uint256",
          "name": "_val",
          "type": "uint256"
        }
      ],
      "name": "modifyRequestValue",
      "outputs": [],
      "stateMutability": "nonpayable",
      "type": "function"
    },
    {
      "inputs": [],
      "name": "claim",
      "outputs": [],
      "stateMutability": "nonpayable",
      "type": "function"
    }
  ],
  "bytecode": "0x60806040523480156200001157600080fd5b506040516200512c3803806200512c83398181016040528101906200003791906200029e565b620000576200004b6200010b60201b60201c565b6200011360201b60201c565b80600181905550600060405180608001604052806000801b81526020016000801b8152602001604051806020016040528060008152508152602001438152509050600a81908060018154018082558091505060019003906000526020600020906004020160009091909190915060008201518160000155602082015181600101556040820151816002019080519060200190620000f6929190620001d7565b5060608201518160030155505050506200035e565b600033905090565b60008060009054906101000a900473ffffffffffffffffffffffffffffffffffffffff169050816000806101000a81548173ffffffffffffffffffffffffffffffffffffffff021916908373ffffffffffffffffffffffffffffffffffffffff1602179055508173ffffffffffffffffffffffffffffffffffffffff168173ffffffffffffffffffffffffffffffffffffffff167f8be0079c531659141344cd1fd0a4f28419497f9722a3daafe3b4186f6b6457e060405160405180910390a35050565b828054620001e590620002da565b90600052602060002090601f01602090048101928262000209576000855562000255565b82601f106200022457805160ff191683800117855562000255565b8280016001018555821562000255579182015b828111156200025457825182559160200191906001019062000237565b5b50905062000264919062000268565b5090565b5b808211156200028357600081600090555060010162000269565b5090565b600081519050620002988162000344565b92915050565b600060208284031215620002b757620002b66200033f565b5b6000620002c78482850162000287565b91505092915050565b6000819050919050565b60006002820490506001821680620002f357607f821691505b602082108114156200030a576200030962000310565b5b50919050565b7f4e487b7100000000000000000000000000000000000000000000000000000000600052602260045260246000fd5b600080fd5b6200034f81620002d0565b81146200035b57600080fd5b50565b614dbe806200036e6000396000f3fe60806040526004361061014b5760003560e01c8063715018a6116100b6578063c0f1f8731161006f578063c0f1f873146104af578063c492560f146104ec578063e4f1b4c414610529578063eaac1d1a14610552578063eddebe621461058f578063f2fde38b146105b85761014b565b8063715018a61461039f57806387b21153146103b65780638da5cb5b146103f357806395e1487d1461041e578063a6b8123c14610447578063bee03c7a146104845761014b565b806339e9d0611161010857806339e9d06114610279578063490a3fb8146102a25780634e71d92d146102e2578063539975de146102f957806356080c0d146103395780636f1b31f0146103625761014b565b8063012a3bd31461015057806307e2da961461018d57806307ec3039146101b85780630bb4d82a146101c25780630f3f77c2146101ff57806320c430751461023c575b600080fd5b34801561015c57600080fd5b5061017760048036038101906101729190613a43565b6105e1565b60405161018491906141bf565b60405180910390f35b34801561019957600080fd5b506101a26106aa565b6040516101af9190614486565b60405180910390f35b6101c06107a5565b005b3480156101ce57600080fd5b506101e960048036038101906101e49190613a16565b610d20565b6040516101f6919061412f565b60405180910390f35b34801561020b57600080fd5b506102266004803603810190610221919061378c565b610d5f565b60405161023391906141fd565b60405180910390f35b34801561024857600080fd5b50610263600480360381019061025e91906137e6565b610d7f565b604051610270919061412f565b60405180910390f35b34801561028557600080fd5b506102a0600480360381019061029b9190613a16565b610dcd565b005b3480156102ae57600080fd5b506102c960048036038101906102c49190613a16565b610e53565b6040516102d99493929190614218565b60405180910390f35b3480156102ee57600080fd5b506102f7610f1b565b005b34801561030557600080fd5b50610320600480360381019061031b919061390e565b610f6b565b6040516103309493929190614218565b60405180910390f35b34801561034557600080fd5b50610360600480360381019061035b919061386f565b611023565b005b34801561036e57600080fd5b506103896004803603810190610384919061378c565b611878565b60405161039691906144a8565b60405180910390f35b3480156103ab57600080fd5b506103b4611af2565b005b3480156103c257600080fd5b506103dd60048036038101906103d8919061393b565b611b7a565b6040516103ea919061412f565b60405180910390f35b3480156103ff57600080fd5b50610408611bc3565b604051610415919061412f565b60405180910390f35b34801561042a57600080fd5b5061044560048036038101906104409190613826565b611bec565b005b34801561045357600080fd5b5061046e6004803603810190610469919061393b565b611e06565b60405161047b919061412f565b60405180910390f35b34801561049057600080fd5b50610499611eb0565b6040516104a691906144ca565b60405180910390f35b3480156104bb57600080fd5b506104d660048036038101906104d1919061378c565b611eb6565b6040516104e391906141db565b60405180910390f35b3480156104f857600080fd5b50610513600480360381019061050e919061393b565b611f83565b6040516105209190614264565b60405180910390f35b34801561053557600080fd5b50610550600480360381019061054b91906139cd565b612095565b005b34801561055e57600080fd5b506105796004803603810190610574919061393b565b612290565b604051610586919061412f565b60405180910390f35b34801561059b57600080fd5b506105b660048036038101906105b1919061378c565b6122d9565b005b3480156105c457600080fd5b506105df60048036038101906105da919061378c565b612ce2565b005b6105e9613046565b6000808490505b8381116106a2576006818154811061060b5761060a61495a565b5b9060005260206000200160009054906101000a900473ffffffffffffffffffffffffffffffffffffffff1683836103e8811061064a5761064961495a565b5b602002019073ffffffffffffffffffffffffffffffffffffffff16908173ffffffffffffffffffffffffffffffffffffffff1681525050818061068c9061487b565b925050808061069a9061487b565b9150506105f0565b505092915050565b6106b261306a565b600a6001600a805490506106c691906146bd565b815481106106d7576106d661495a565b5b9060005260206000209060040201604051806080016040529081600082015481526020016001820154815260200160028201805461071490614818565b80601f016020809104026020016040519081016040528092919081815260200182805461074090614818565b801561078d5780601f106107625761010080835404028352916020019161078d565b820191906000526020600020905b81548152906001019060200180831161077057829003601f168201915b50505050508152602001600382015481525050905090565b60003390506001543410156107ef576040517f08c379a00000000000000000000000000000000000000000000000000000000081526004016107e690614426565b60405180910390fd5b6107f833612dda565b610837576040517f08c379a000000000000000000000000000000000000000000000000000000000815260040161082e90614386565b60405180910390fd5b60001515600760003373ffffffffffffffffffffffffffffffffffffffff1673ffffffffffffffffffffffffffffffffffffffff16815260200190815260200160002060009054906101000a900460ff161515146108ca576040517f08c379a00000000000000000000000000000000000000000000000000000000081526004016108c190614346565b60405180910390fd5b600073ffffffffffffffffffffffffffffffffffffffff1660038273ffffffffffffffffffffffffffffffffffffffff16636c0360eb6040518163ffffffff1660e01b815260040160006040518083038186803b15801561092a57600080fd5b505afa15801561093e573d6000803e3d6000fd5b505050506040513d6000823e3d601f19601f820116820180604052508101906109679190613984565b6040516109749190614118565b908152602001604051809103902060009054906101000a900473ffffffffffffffffffffffffffffffffffffffff1673ffffffffffffffffffffffffffffffffffffffff16146109f9576040517f08c379a00000000000000000000000000000000000000000000000000000000081526004016109f0906143c6565b60405180910390fd5b60358173ffffffffffffffffffffffffffffffffffffffff16636c0360eb6040518163ffffffff1660e01b815260040160006040518083038186803b158015610a4157600080fd5b505afa158015610a55573d6000803e3d6000fd5b505050506040513d6000823e3d601f19601f82011682018060405250810190610a7e9190613984565b5114610abf576040517f08c379a0000000000000000000000000000000000000000000000000000000008152600401610ab690614366565b60405180910390fd5b610b4a8173ffffffffffffffffffffffffffffffffffffffff16636c0360eb6040518163ffffffff1660e01b815260040160006040518083038186803b158015610b0857600080fd5b505afa158015610b1c573d6000803e3d6000fd5b505050506040513d6000823e3d601f19601f82011682018060405250810190610b459190613984565b612dfd565b610b89576040517f08c379a0000000000000000000000000000000000000000000000000000000008152600401610b8090614306565b60405180910390fd5b6001600760003373ffffffffffffffffffffffffffffffffffffffff1673ffffffffffffffffffffffffffffffffffffffff16815260200190815260200160002060006101000a81548160ff0219169083151502179055507fb323e7348260c7e224c4076c9dc96a004d173b12b8672023d53d3e424eddfde9338273ffffffffffffffffffffffffffffffffffffffff1663bfe109286040518163ffffffff1660e01b815260040160206040518083038186803b158015610c4957600080fd5b505afa158015610c5d573d6000803e3d6000fd5b505050506040513d601f19601f82011682018060405250810190610c8191906137b9565b8373ffffffffffffffffffffffffffffffffffffffff16636c0360eb6040518163ffffffff1660e01b815260040160006040518083038186803b158015610cc757600080fd5b505afa158015610cdb573d6000803e3d6000fd5b505050506040513d6000823e3d601f19601f82011682018060405250810190610d049190613984565b43604051610d15949392919061414a565b60405180910390a150565b60068181548110610d3057600080fd5b906000526020600020016000915054906101000a900473ffffffffffffffffffffffffffffffffffffffff1681565b60096020528060005260406000206000915054906101000a900460ff1681565b60056020528160005260406000208181548110610d9b57600080fd5b906000526020600020016000915091509054906101000a900473ffffffffffffffffffffffffffffffffffffffff1681565b610dd5612e7e565b73ffffffffffffffffffffffffffffffffffffffff16610df3611bc3565b73ffffffffffffffffffffffffffffffffffffffff1614610e49576040517f08c379a0000000000000000000000000000000000000000000000000000000008152600401610e40906143e6565b60405180910390fd5b8060018190555050565b600a8181548110610e6357600080fd5b9060005260206000209060040201600091509050806000015490806001015490806002018054610e9290614818565b80601f0160208091040260200160405190810160405280929190818152602001828054610ebe90614818565b8015610f0b5780601f10610ee057610100808354040283529160200191610f0b565b820191906000526020600020905b815481529060010190602001808311610eee57829003601f168201915b5050505050908060030154905084565b610f23611bc3565b73ffffffffffffffffffffffffffffffffffffffff166108fc479081150290604051600060405180830381858888f19350505050158015610f68573d6000803e3d6000fd5b50565b600b602052806000526040600020600091509050806000015490806001015490806002018054610f9a90614818565b80601f0160208091040260200160405190810160405280929190818152602001828054610fc690614818565b80156110135780601f10610fe857610100808354040283529160200191611013565b820191906000526020600020905b815481529060010190602001808311610ff657829003601f168201915b5050505050908060030154905084565b6000600b600085815260200190815260200160002060030154141561107d576040517f08c379a0000000000000000000000000000000000000000000000000000000008152600401611074906142a6565b60405180910390fd5b60096000826000015173ffffffffffffffffffffffffffffffffffffffff1673ffffffffffffffffffffffffffffffffffffffff16815260200190815260200160002060009054906101000a900460ff161561110e576040517f08c379a000000000000000000000000000000000000000000000000000000000815260040161110590614406565b60405180910390fd5b606060005b8260600151518110156111945781836060015182815181106111385761113761495a565b5b60200260200101516040516020016111509190614118565b6040516020818303038152906040526040516020016111709291906140f4565b6040516020818303038152906040529150808061118c9061487b565b915050611113565b508160000151826020015183604001518385608001516040516020016111be95949392919061406b565b604051602081830303815290604052805190602001208314611215576040517f08c379a000000000000000000000000000000000000000000000000000000000815260040161120c90614326565b60405180910390fd5b6008600084815260200190815260200160002060009054906101000a900460ff1615611276576040517f08c379a000000000000000000000000000000000000000000000000000000000815260040161126d90614286565b60405180910390fd5b611281858585612e86565b6112c0576040517f08c379a00000000000000000000000000000000000000000000000000000000081526004016112b790614466565b60405180910390fd5b60016008600085815260200190815260200160002060006101000a81548160ff02191690831515021790555060005b8260600151518110156115ac57600073ffffffffffffffffffffffffffffffffffffffff1660048460600151838151811061132d5761132c61495a565b5b60200260200101516040516113429190614118565b908152602001604051809103902060009054906101000a900473ffffffffffffffffffffffffffffffffffffffff1673ffffffffffffffffffffffffffffffffffffffff161461151a576000600260006004866060015185815181106113ab576113aa61495a565b5b60200260200101516040516113c09190614118565b908152602001604051809103902060009054906101000a900473ffffffffffffffffffffffffffffffffffffffff1673ffffffffffffffffffffffffffffffffffffffff1673ffffffffffffffffffffffffffffffffffffffff1681526020019081526020016000206004015414806114da57508260800151600260006004866060015185815181106114565761145561495a565b5b602002602001015160405161146b9190614118565b908152602001604051809103902060009054906101000a900473ffffffffffffffffffffffffffffffffffffffff1673ffffffffffffffffffffffffffffffffffffffff1673ffffffffffffffffffffffffffffffffffffffff16815260200190815260200160002060040154115b611519576040517f08c379a000000000000000000000000000000000000000000000000000000000815260040161151090614446565b60405180910390fd5b5b82600001516004846060015183815181106115385761153761495a565b5b602002602001015160405161154d9190614118565b908152602001604051809103902060006101000a81548173ffffffffffffffffffffffffffffffffffffffff021916908373ffffffffffffffffffffffffffffffffffffffff16021790555080806115a49061487b565b9150506112ef565b508160026000846000015173ffffffffffffffffffffffffffffffffffffffff1673ffffffffffffffffffffffffffffffffffffffff16815260200190815260200160002060008201518160000160006101000a81548173ffffffffffffffffffffffffffffffffffffffff021916908373ffffffffffffffffffffffffffffffffffffffff16021790555060208201518160010160006101000a81548173ffffffffffffffffffffffffffffffffffffffff021916908373ffffffffffffffffffffffffffffffffffffffff160217905550604082015181600201908051906020019061169b929190613098565b5060608201518160030190805190602001906116b892919061311e565b5060808201518160040155905050600682600001519080600181540180825580915050600190039060005260206000200160009091909190916101000a81548173ffffffffffffffffffffffffffffffffffffffff021916908373ffffffffffffffffffffffffffffffffffffffff16021790555060056000836020015173ffffffffffffffffffffffffffffffffffffffff1673ffffffffffffffffffffffffffffffffffffffff16815260200190815260200160002082600001519080600181540180825580915050600190039060005260206000200160009091909190916101000a81548173ffffffffffffffffffffffffffffffffffffffff021916908373ffffffffffffffffffffffffffffffffffffffff1602179055508160000151600383604001516040516117ee9190614118565b908152602001604051809103902060006101000a81548173ffffffffffffffffffffffffffffffffffffffff021916908373ffffffffffffffffffffffffffffffffffffffff1602179055507f5561a5c1fa7cc43b37c32cd6d1c219c152a96eef77b24203b49ccd6239a1e6248260405161186991906144a8565b60405180910390a15050505050565b61188061317e565b600260008373ffffffffffffffffffffffffffffffffffffffff1673ffffffffffffffffffffffffffffffffffffffff1681526020019081526020016000206040518060a00160405290816000820160009054906101000a900473ffffffffffffffffffffffffffffffffffffffff1673ffffffffffffffffffffffffffffffffffffffff1673ffffffffffffffffffffffffffffffffffffffff1681526020016001820160009054906101000a900473ffffffffffffffffffffffffffffffffffffffff1673ffffffffffffffffffffffffffffffffffffffff1673ffffffffffffffffffffffffffffffffffffffff16815260200160028201805461198690614818565b80601f01602080910402602001604051908101604052809291908181526020018280546119b290614818565b80156119ff5780601f106119d4576101008083540402835291602001916119ff565b820191906000526020600020905b8154815290600101906020018083116119e257829003601f168201915b5050505050815260200160038201805480602002602001604051908101604052809291908181526020016000905b82821015611ad9578382906000526020600020018054611a4c90614818565b80601f0160208091040260200160405190810160405280929190818152602001828054611a7890614818565b8015611ac55780601f10611a9a57610100808354040283529160200191611ac5565b820191906000526020600020905b815481529060010190602001808311611aa857829003601f168201915b505050505081526020019060010190611a2d565b5050505081526020016004820154815250509050919050565b611afa612e7e565b73ffffffffffffffffffffffffffffffffffffffff16611b18611bc3565b73ffffffffffffffffffffffffffffffffffffffff1614611b6e576040517f08c379a0000000000000000000000000000000000000000000000000000000008152600401611b65906143e6565b60405180910390fd5b611b786000612e9d565b565b6003818051602081018201805184825260208301602085012081835280955050505050506000915054906101000a900473ffffffffffffffffffffffffffffffffffffffff1681565b60008060009054906101000a900473ffffffffffffffffffffffffffffffffffffffff16905090565b611bf4612e7e565b73ffffffffffffffffffffffffffffffffffffffff16611c12611bc3565b73ffffffffffffffffffffffffffffffffffffffff1614611c68576040517f08c379a0000000000000000000000000000000000000000000000000000000008152600401611c5f906143e6565b60405180910390fd5b60005b8151811015611dcb5760026000838381518110611c8b57611c8a61495a565b5b602002602001015173ffffffffffffffffffffffffffffffffffffffff1673ffffffffffffffffffffffffffffffffffffffff168152602001908152602001600020600080820160006101000a81549073ffffffffffffffffffffffffffffffffffffffff02191690556001820160006101000a81549073ffffffffffffffffffffffffffffffffffffffff0219169055600282016000611d2c91906131d9565b600382016000611d3c9190613219565b60048201600090555050600160096000848481518110611d5f57611d5e61495a565b5b602002602001015173ffffffffffffffffffffffffffffffffffffffff1673ffffffffffffffffffffffffffffffffffffffff16815260200190815260200160002060006101000a81548160ff0219169083151502179055508080611dc39061487b565b915050611c6b565b507fba539ddaf32810453d74c00979a5b195cabeec6d1dd6ec2ba2ea6c5be40fe2c381604051611dfb91906141db565b60405180910390a150565b600060026000600384604051611e1c9190614118565b908152602001604051809103902060009054906101000a900473ffffffffffffffffffffffffffffffffffffffff1673ffffffffffffffffffffffffffffffffffffffff1673ffffffffffffffffffffffffffffffffffffffff16815260200190815260200160002060010160009054906101000a900473ffffffffffffffffffffffffffffffffffffffff169050919050565b60015481565b6060600560008373ffffffffffffffffffffffffffffffffffffffff1673ffffffffffffffffffffffffffffffffffffffff168152602001908152602001600020805480602002602001604051908101604052809291908181526020018280548015611f7757602002820191906000526020600020905b8160009054906101000a900473ffffffffffffffffffffffffffffffffffffffff1673ffffffffffffffffffffffffffffffffffffffff1681526020019060010190808311611f2d575b50505050509050919050565b606060026000600484604051611f999190614118565b908152602001604051809103902060009054906101000a900473ffffffffffffffffffffffffffffffffffffffff1673ffffffffffffffffffffffffffffffffffffffff1673ffffffffffffffffffffffffffffffffffffffff168152602001908152602001600020600201805461201090614818565b80601f016020809104026020016040519081016040528092919081815260200182805461203c90614818565b80156120895780601f1061205e57610100808354040283529160200191612089565b820191906000526020600020905b81548152906001019060200180831161206c57829003601f168201915b50505050509050919050565b61209d612e7e565b73ffffffffffffffffffffffffffffffffffffffff166120bb611bc3565b73ffffffffffffffffffffffffffffffffffffffff1614612111576040517f08c379a0000000000000000000000000000000000000000000000000000000008152600401612108906143e6565b60405180910390fd5b6000816060015114612158576040517f08c379a000000000000000000000000000000000000000000000000000000000815260040161214f906142e6565b60405180910390fd5b43816060018181525050600a819080600181540180825580915050600190039060005260206000209060040201600090919091909150600082015181600001556020820151816001015560408201518160020190805190602001906121be929190613098565b50606082015181600301555050600a6001600a805490506121df91906146bd565b815481106121f0576121ef61495a565b5b9060005260206000209060040201600b6000836020015181526020019081526020016000206000820154816000015560018201548160010155600282018160020190805461223d90614818565b61224892919061323a565b50600382015481600301559050507ff0f7a747ddd719a9ee54b88bf6dcb480f8a468f59efc9b9a2b5d1da647488fff816040516122859190614486565b60405180910390a150565b6004818051602081018201805184825260208301602085012081835280955050505050506000915054906101000a900473ffffffffffffffffffffffffffffffffffffffff1681565b600073ffffffffffffffffffffffffffffffffffffffff16600260008373ffffffffffffffffffffffffffffffffffffffff1673ffffffffffffffffffffffffffffffffffffffff16815260200190815260200160002060000160009054906101000a900473ffffffffffffffffffffffffffffffffffffffff1673ffffffffffffffffffffffffffffffffffffffff1614156123ab576040517f08c379a00000000000000000000000000000000000000000000000000000000081526004016123a2906143a6565b60405180910390fd5b60008190506000600260008473ffffffffffffffffffffffffffffffffffffffff1673ffffffffffffffffffffffffffffffffffffffff1681526020019081526020016000206040518060a00160405290816000820160009054906101000a900473ffffffffffffffffffffffffffffffffffffffff1673ffffffffffffffffffffffffffffffffffffffff1673ffffffffffffffffffffffffffffffffffffffff1681526020016001820160009054906101000a900473ffffffffffffffffffffffffffffffffffffffff1673ffffffffffffffffffffffffffffffffffffffff1673ffffffffffffffffffffffffffffffffffffffff1681526020016002820180546124b890614818565b80601f01602080910402602001604051908101604052809291908181526020018280546124e490614818565b80156125315780601f1061250657610100808354040283529160200191612531565b820191906000526020600020905b81548152906001019060200180831161251457829003601f168201915b5050505050815260200160038201805480602002602001604051908101604052809291908181526020016000905b8282101561260b57838290600052602060002001805461257e90614818565b80601f01602080910402602001604051908101604052809291908181526020018280546125aa90614818565b80156125f75780601f106125cc576101008083540402835291602001916125f7565b820191906000526020600020905b8154815290600101906020018083116125da57829003601f168201915b50505050508152602001906001019061255f565b5050505081526020016004820154815250509050806020015173ffffffffffffffffffffffffffffffffffffffff168273ffffffffffffffffffffffffffffffffffffffff1663bfe109286040518163ffffffff1660e01b815260040160206040518083038186803b15801561268057600080fd5b505afa158015612694573d6000803e3d6000fd5b505050506040513d601f19601f820116820180604052508101906126b891906137b9565b73ffffffffffffffffffffffffffffffffffffffff1614158061276857506127668273ffffffffffffffffffffffffffffffffffffffff16636c0360eb6040518163ffffffff1660e01b815260040160006040518083038186803b15801561271f57600080fd5b505afa158015612733573d6000803e3d6000fd5b505050506040513d6000823e3d601f19601f8201168201806040525081019061275c9190613984565b8260400151612f61565b155b156128be57600260008473ffffffffffffffffffffffffffffffffffffffff1673ffffffffffffffffffffffffffffffffffffffff168152602001908152602001600020600080820160006101000a81549073ffffffffffffffffffffffffffffffffffffffff02191690556001820160006101000a81549073ffffffffffffffffffffffffffffffffffffffff021916905560028201600061280b91906131d9565b60038201600061281b9190613219565b600482016000905550506001600960008573ffffffffffffffffffffffffffffffffffffffff1673ffffffffffffffffffffffffffffffffffffffff16815260200190815260200160002060006101000a81548160ff0219169083151502179055507fc83d337c31cfcd8cacc7348a17d617a3876d704791d0b41c7eb8ff2c526adfe18360016040516128af929190614196565b60405180910390a15050612cdf565b600060405180608001604052808473ffffffffffffffffffffffffffffffffffffffff1663f3ccaac06040518163ffffffff1660e01b815260040160006040518083038186803b15801561291157600080fd5b505afa158015612925573d6000803e3d6000fd5b505050506040513d6000823e3d601f19601f8201168201806040525081019061294e9190613984565b81526020018473ffffffffffffffffffffffffffffffffffffffff1663407d22366040518163ffffffff1660e01b815260040160006040518083038186803b15801561299957600080fd5b505afa1580156129ad573d6000803e3d6000fd5b505050506040513d6000823e3d601f19601f820116820180604052508101906129d69190613984565b81526020018473ffffffffffffffffffffffffffffffffffffffff166311b006176040518163ffffffff1660e01b815260040160006040518083038186803b158015612a2157600080fd5b505afa158015612a35573d6000803e3d6000fd5b505050506040513d6000823e3d601f19601f82011682018060405250810190612a5e9190613984565b81526020018473ffffffffffffffffffffffffffffffffffffffff16630ad9d0526040518163ffffffff1660e01b815260040160006040518083038186803b158015612aa957600080fd5b505afa158015612abd573d6000803e3d6000fd5b505050506040513d6000823e3d601f19601f82011682018060405250810190612ae69190613984565b815250905060005b6004811015612ca057612b36828260048110612b0d57612b0c61495a565b5b602002015184606001518381518110612b2957612b2861495a565b5b6020026020010151612f61565b612c8d57600260008673ffffffffffffffffffffffffffffffffffffffff1673ffffffffffffffffffffffffffffffffffffffff168152602001908152602001600020600080820160006101000a81549073ffffffffffffffffffffffffffffffffffffffff02191690556001820160006101000a81549073ffffffffffffffffffffffffffffffffffffffff0219169055600282016000612bd891906131d9565b600382016000612be89190613219565b600482016000905550506001600960008773ffffffffffffffffffffffffffffffffffffffff1673ffffffffffffffffffffffffffffffffffffffff16815260200190815260200160002060006101000a81548160ff0219169083151502179055507fc83d337c31cfcd8cacc7348a17d617a3876d704791d0b41c7eb8ff2c526adfe1856001604051612c7c929190614196565b60405180910390a150505050612cdf565b8080612c989061487b565b915050612aee565b507fc83d337c31cfcd8cacc7348a17d617a3876d704791d0b41c7eb8ff2c526adfe1846000604051612cd3929190614196565b60405180910390a15050505b50565b612cea612e7e565b73ffffffffffffffffffffffffffffffffffffffff16612d08611bc3565b73ffffffffffffffffffffffffffffffffffffffff1614612d5e576040517f08c379a0000000000000000000000000000000000000000000000000000000008152600401612d55906143e6565b60405180910390fd5b600073ffffffffffffffffffffffffffffffffffffffff168173ffffffffffffffffffffffffffffffffffffffff161415612dce576040517f08c379a0000000000000000000000000000000000000000000000000000000008152600401612dc5906142c6565b60405180910390fd5b612dd781612e9d565b50565b6000808273ffffffffffffffffffffffffffffffffffffffff163b119050919050565b60007f697066733a2f2f516d0000000000000000000000000000000000000000000000604051602001612e3091906140c2565b6040516020818303038152906040528051906020012082612e509061476f565b604051602001612e6091906140c2565b60405160208183030381529060405280519060200120149050919050565b600033905090565b600082612e938584612fba565b1490509392505050565b60008060009054906101000a900473ffffffffffffffffffffffffffffffffffffffff169050816000806101000a81548173ffffffffffffffffffffffffffffffffffffffff021916908373ffffffffffffffffffffffffffffffffffffffff1602179055508173ffffffffffffffffffffffffffffffffffffffff168173ffffffffffffffffffffffffffffffffffffffff167f8be0079c531659141344cd1fd0a4f28419497f9722a3daafe3b4186f6b6457e060405160405180910390a35050565b600081604051602001612f7491906140dd565b6040516020818303038152906040528051906020012083604051602001612f9b91906140dd565b6040516020818303038152906040528051906020012014905092915050565b60008082905060005b8451811015613024576000858281518110612fe157612fe061495a565b5b6020026020010151905080831161300357612ffc838261302f565b9250613010565b61300d818461302f565b92505b50808061301c9061487b565b915050612fc3565b508091505092915050565b600082600052816020526040600020905092915050565b60405180617d0001604052806103e890602082028036833780820191505090505090565b6040518060800160405280600080191681526020016000801916815260200160608152602001600081525090565b8280546130a490614818565b90600052602060002090601f0160209004810192826130c6576000855561310d565b82601f106130df57805160ff191683800117855561310d565b8280016001018555821561310d579182015b8281111561310c5782518255916020019190600101906130f1565b5b50905061311a91906132c7565b5090565b82805482825590600052602060002090810192821561316d579160200282015b8281111561316c57825182908051906020019061315c929190613098565b509160200191906001019061313e565b5b50905061317a91906132e4565b5090565b6040518060a00160405280600073ffffffffffffffffffffffffffffffffffffffff168152602001600073ffffffffffffffffffffffffffffffffffffffff1681526020016060815260200160608152602001600081525090565b5080546131e590614818565b6000825580601f106131f75750613216565b601f01602090049060005260206000209081019061321591906132c7565b5b50565b508054600082559060005260206000209081019061323791906132e4565b50565b82805461324690614818565b90600052602060002090601f01602090048101928261326857600085556132b6565b82601f1061327957805485556132b6565b828001600101855582156132b657600052602060002091601f016020900482015b828111156132b557825482559160010191906001019061329a565b5b5090506132c391906132c7565b5090565b5b808211156132e05760008160009055506001016132c8565b5090565b5b8082111561330457600081816132fb91906131d9565b506001016132e5565b5090565b600061331b6133168461450a565b6144e5565b9050808382526020820190508285602086028201111561333e5761333d6149dc565b5b60005b8581101561336e578161335488826134fa565b845260208401935060208301925050600181019050613341565b5050509392505050565b600061338b61338684614536565b6144e5565b905080838252602082019050828560208602820111156133ae576133ad6149dc565b5b60005b858110156133de57816133c488826135ae565b8452602084019350602083019250506001810190506133b1565b5050509392505050565b60006133fb6133f684614562565b6144e5565b9050808382526020820190508285602086028201111561341e5761341d6149dc565b5b60005b8581101561346c57813567ffffffffffffffff811115613444576134436149cd565b5b80860161345189826135c3565b85526020850194506020840193505050600181019050613421565b5050509392505050565b60006134896134848461458e565b6144e5565b9050828152602081018484840111156134a5576134a46149e1565b5b6134b08482856147d6565b509392505050565b60006134cb6134c68461458e565b6144e5565b9050828152602081018484840111156134e7576134e66149e1565b5b6134f28482856147e5565b509392505050565b60008135905061350981614d43565b92915050565b60008151905061351e81614d43565b92915050565b600082601f830112613539576135386149cd565b5b8135613549848260208601613308565b91505092915050565b600082601f830112613567576135666149cd565b5b8135613577848260208601613378565b91505092915050565b600082601f830112613595576135946149cd565b5b81356135a58482602086016133e8565b91505092915050565b6000813590506135bd81614d5a565b92915050565b600082601f8301126135d8576135d76149cd565b5b81356135e8848260208601613476565b91505092915050565b600082601f830112613606576136056149cd565b5b81516136168482602086016134b8565b91505092915050565b600060808284031215613635576136346149d2565b5b61363f60806144e5565b9050600061364f848285016135ae565b6000830152506020613663848285016135ae565b602083015250604082013567ffffffffffffffff811115613687576136866149d7565b5b613693848285016135c3565b60408301525060606136a784828501613777565b60608301525092915050565b600060a082840312156136c9576136c86149d2565b5b6136d360a06144e5565b905060006136e3848285016134fa565b60008301525060206136f7848285016134fa565b602083015250604082013567ffffffffffffffff81111561371b5761371a6149d7565b5b613727848285016135c3565b604083015250606082013567ffffffffffffffff81111561374b5761374a6149d7565b5b61375784828501613580565b606083015250608061376b84828501613777565b60808301525092915050565b60008135905061378681614d71565b92915050565b6000602082840312156137a2576137a16149eb565b5b60006137b0848285016134fa565b91505092915050565b6000602082840312156137cf576137ce6149eb565b5b60006137dd8482850161350f565b91505092915050565b600080604083850312156137fd576137fc6149eb565b5b600061380b858286016134fa565b925050602061381c85828601613777565b9150509250929050565b60006020828403121561383c5761383b6149eb565b5b600082013567ffffffffffffffff81111561385a576138596149e6565b5b61386684828501613524565b91505092915050565b60008060008060808587031215613889576138886149eb565b5b600085013567ffffffffffffffff8111156138a7576138a66149e6565b5b6138b387828801613552565b94505060206138c4878288016135ae565b93505060406138d5878288016135ae565b925050606085013567ffffffffffffffff8111156138f6576138f56149e6565b5b613902878288016136b3565b91505092959194509250565b600060208284031215613924576139236149eb565b5b6000613932848285016135ae565b91505092915050565b600060208284031215613951576139506149eb565b5b600082013567ffffffffffffffff81111561396f5761396e6149e6565b5b61397b848285016135c3565b91505092915050565b60006020828403121561399a576139996149eb565b5b600082015167ffffffffffffffff8111156139b8576139b76149e6565b5b6139c4848285016135f1565b91505092915050565b6000602082840312156139e3576139e26149eb565b5b600082013567ffffffffffffffff811115613a0157613a006149e6565b5b613a0d8482850161361f565b91505092915050565b600060208284031215613a2c57613a2b6149eb565b5b6000613a3a84828501613777565b91505092915050565b60008060408385031215613a5a57613a596149eb565b5b6000613a6885828601613777565b9250506020613a7985828601613777565b9150509250929050565b6000613a8f8383613aaf565b60208301905092915050565b6000613aa78383613c83565b905092915050565b613ab8816146f1565b82525050565b613ac7816146f1565b82525050565b613ade613ad9826146f1565b6148c4565b82525050565b613aed816145f9565b613af78184614658565b9250613b02826145bf565b8060005b83811015613b33578151613b1a8782613a83565b9650613b2583614631565b925050600181019050613b06565b505050505050565b6000613b4682614605565b613b508185614663565b9350613b5b836145c9565b8060005b83811015613b8c578151613b738882613a83565b9750613b7e8361463e565b925050600181019050613b5f565b5085935050505092915050565b6000613ba482614610565b613bae8185614674565b935083602082028501613bc0856145d9565b8060005b85811015613bfc5784840389528151613bdd8582613a9b565b9450613be88361464b565b925060208a01995050600181019050613bc4565b50829750879550505050505092915050565b613c1781614703565b82525050565b613c268161470f565b82525050565b613c358161470f565b82525050565b613c4c613c4782614719565b6148d6565b82525050565b6000613c5d8261461b565b613c678185614685565b9350613c778185602086016147e5565b80840191505092915050565b6000613c8e82614626565b613c988185614690565b9350613ca88185602086016147e5565b613cb1816149f0565b840191505092915050565b6000613cc782614626565b613cd181856146a1565b9350613ce18185602086016147e5565b613cea816149f0565b840191505092915050565b6000613d0082614626565b613d0a81856146b2565b9350613d1a8185602086016147e5565b80840191505092915050565b6000613d336019836146a1565b9150613d3e82614a1b565b602082019050919050565b6000613d566017836146a1565b9150613d6182614a44565b602082019050919050565b6000613d796026836146a1565b9150613d8482614a6d565b604082019050919050565b6000613d9c601e836146a1565b9150613da782614abc565b602082019050919050565b6000613dbf601c836146a1565b9150613dca82614ae5565b602082019050919050565b6000613de26020836146a1565b9150613ded82614b0e565b602082019050919050565b6000613e05602c836146a1565b9150613e1082614b37565b604082019050919050565b6000613e286019836146a1565b9150613e3382614b86565b602082019050919050565b6000613e4b6019836146a1565b9150613e5682614baf565b602082019050919050565b6000613e6e6018836146a1565b9150613e7982614bd8565b602082019050919050565b6000613e916022836146a1565b9150613e9c82614c01565b604082019050919050565b6000613eb46020836146a1565b9150613ebf82614c50565b602082019050919050565b6000613ed76026836146a1565b9150613ee282614c79565b604082019050919050565b6000613efa6011836146a1565b9150613f0582614cc8565b602082019050919050565b6000613f1d6020836146a1565b9150613f2882614cf1565b602082019050919050565b6000613f40600d836146a1565b9150613f4b82614d1a565b602082019050919050565b6000608083016000830151613f6e6000860182613c1d565b506020830151613f816020860182613c1d565b5060408301518482036040860152613f998282613c83565b9150506060830151613fae6060860182614036565b508091505092915050565b600060a083016000830151613fd16000860182613aaf565b506020830151613fe46020860182613aaf565b5060408301518482036040860152613ffc8282613c83565b915050606083015184820360608601526140168282613b99565b915050608083015161402b6080860182614036565b508091505092915050565b61403f81614765565b82525050565b61404e81614765565b82525050565b61406561406082614765565b6148f2565b82525050565b60006140778288613acd565b6014820191506140878287613acd565b6014820191506140978286613cf5565b91506140a38285613c52565b91506140af8284614054565b6020820191508190509695505050505050565b60006140ce8284613c3b565b60098201915081905092915050565b60006140e98284613c52565b915081905092915050565b60006141008285613c52565b915061410c8284613c52565b91508190509392505050565b60006141248284613cf5565b915081905092915050565b60006020820190506141446000830184613abe565b92915050565b600060808201905061415f6000830187613abe565b61416c6020830186613abe565b818103604083015261417e8185613cbc565b905061418d6060830184614045565b95945050505050565b60006040820190506141ab6000830185613abe565b6141b86020830184613c0e565b9392505050565b6000617d00820190506141d56000830184613ae4565b92915050565b600060208201905081810360008301526141f58184613b3b565b905092915050565b60006020820190506142126000830184613c0e565b92915050565b600060808201905061422d6000830187613c2c565b61423a6020830186613c2c565b818103604083015261424c8185613cbc565b905061425b6060830184614045565b95945050505050565b6000602082019050818103600083015261427e8184613cbc565b905092915050565b6000602082019050818103600083015261429f81613d26565b9050919050565b600060208201905081810360008301526142bf81613d49565b9050919050565b600060208201905081810360008301526142df81613d6c565b9050919050565b600060208201905081810360008301526142ff81613d8f565b9050919050565b6000602082019050818103600083015261431f81613db2565b9050919050565b6000602082019050818103600083015261433f81613dd5565b9050919050565b6000602082019050818103600083015261435f81613df8565b9050919050565b6000602082019050818103600083015261437f81613e1b565b9050919050565b6000602082019050818103600083015261439f81613e3e565b9050919050565b600060208201905081810360008301526143bf81613e61565b9050919050565b600060208201905081810360008301526143df81613e84565b9050919050565b600060208201905081810360008301526143ff81613ea7565b9050919050565b6000602082019050818103600083015261441f81613eca565b9050919050565b6000602082019050818103600083015261443f81613eed565b9050919050565b6000602082019050818103600083015261445f81613f10565b9050919050565b6000602082019050818103600083015261447f81613f33565b9050919050565b600060208201905081810360008301526144a08184613f56565b905092915050565b600060208201905081810360008301526144c28184613fb9565b905092915050565b60006020820190506144df6000830184614045565b92915050565b60006144ef614500565b90506144fb828261484a565b919050565b6000604051905090565b600067ffffffffffffffff82111561452557614524614989565b5b602082029050602081019050919050565b600067ffffffffffffffff82111561455157614550614989565b5b602082029050602081019050919050565b600067ffffffffffffffff82111561457d5761457c614989565b5b602082029050602081019050919050565b600067ffffffffffffffff8211156145a9576145a8614989565b5b6145b2826149f0565b9050602081019050919050565b6000819050919050565b6000819050602082019050919050565b6000819050602082019050919050565b6000819050602082019050919050565b60006103e89050919050565b600081519050919050565b600081519050919050565b600081519050919050565b600081519050919050565b6000602082019050919050565b6000602082019050919050565b6000602082019050919050565b600081905092915050565b600082825260208201905092915050565b600082825260208201905092915050565b600081905092915050565b600082825260208201905092915050565b600082825260208201905092915050565b600081905092915050565b60006146c882614765565b91506146d383614765565b9250828210156146e6576146e56148fc565b5b828203905092915050565b60006146fc82614745565b9050919050565b60008115159050919050565b6000819050919050565b60007fffffffffffffffffff000000000000000000000000000000000000000000000082169050919050565b600073ffffffffffffffffffffffffffffffffffffffff82169050919050565b6000819050919050565b600061477a8261461b565b82614784846145e9565b905061478f816149b8565b925060098210156147cf576147ca7fffffffffffffffffff000000000000000000000000000000000000000000000083600903600802614a0e565b831692505b5050919050565b82818337600083830152505050565b60005b838110156148035780820151818401526020810190506147e8565b83811115614812576000848401525b50505050565b6000600282049050600182168061483057607f821691505b602082108114156148445761484361492b565b5b50919050565b614853826149f0565b810181811067ffffffffffffffff8211171561487257614871614989565b5b80604052505050565b600061488682614765565b91507fffffffffffffffffffffffffffffffffffffffffffffffffffffffffffffffff8214156148b9576148b86148fc565b5b600182019050919050565b60006148cf826148e0565b9050919050565b6000819050919050565b60006148eb82614a01565b9050919050565b6000819050919050565b7f4e487b7100000000000000000000000000000000000000000000000000000000600052601160045260246000fd5b7f4e487b7100000000000000000000000000000000000000000000000000000000600052602260045260246000fd5b7f4e487b7100000000000000000000000000000000000000000000000000000000600052603260045260246000fd5b7f4e487b7100000000000000000000000000000000000000000000000000000000600052604160045260246000fd5b60006149c48251614719565b80915050919050565b600080fd5b600080fd5b600080fd5b600080fd5b600080fd5b600080fd5b600080fd5b6000601f19601f8301169050919050565b60008160601b9050919050565b600082821b905092915050565b7f4e46542077617320616c72656164792076657269666965642e00000000000000600082015250565b7f496e76616c6964206e667420726f6f7420676976656e2e000000000000000000600082015250565b7f4f776e61626c653a206e6577206f776e657220697320746865207a65726f206160008201527f6464726573730000000000000000000000000000000000000000000000000000602082015250565b7f496e76616c6964205f626c6f636b20696e697469616c697a6174696f6e2e0000600082015250565b7f496e636f72726563742070726566697820696e205f6261736555524900000000600082015250565b7f476976656e205f6c65616620646f6573206e6f74206d61746368205f6e66742e600082015250565b7f4e465420636f6e747261637420616c726561647920726571756573746564207660008201527f6572696669636174696f6e2e0000000000000000000000000000000000000000602082015250565b7f496e636f7272656374205f62617365555249206c656e67746800000000000000600082015250565b7f53656e646572206d757374206265206120636f6e747261637400000000000000600082015250565b7f436f6e74726163742069736e27742076657269666965642e0000000000000000600082015250565b7f42617365205552492068617320616c7265616479206265656e20636c61696d6560008201527f642e000000000000000000000000000000000000000000000000000000000000602082015250565b7f4f776e61626c653a2063616c6c6572206973206e6f7420746865206f776e6572600082015250565b7f4e465420636f6e74726163742068617320616c7265616479206265656e20736c60008201527f61736865642e0000000000000000000000000000000000000000000000000000602082015250565b7f496e76616c69642052657175657374202e000000000000000000000000000000600082015250565b7f496e76616c696420626c6f636b2068656967687420666f72207375625552492e600082015250565b7f496e76616c69642050726f6f6600000000000000000000000000000000000000600082015250565b614d4c816146f1565b8114614d5757600080fd5b50565b614d638161470f565b8114614d6e57600080fd5b50565b614d7a81614765565b8114614d8557600080fd5b5056fea264697066735822122050007383520aa003829952d9db23d15d66ac3c6cf5e8c7a33f3ca21c2520429564736f6c63430008050033",
  "immutableReferences": {},
  "source": "// SPDX-License-Identifier: BUSL-1.1\npragma solidity ^0.8.5;\n\nimport \"@openzeppelin/contracts/access/Ownable.sol\";\n\nimport \"@openzeppelin/contracts/utils/cryptography/MerkleProof.sol\";\n\nimport \"./RatioSingleNFT.sol\";\n\nimport \"@openzeppelin/contracts/utils/Address.sol\";\n\n// Contract to verify nft contracts.\ncontract NFTProtocol is Ownable {\n\n    // Minimum amount to be paid for verificaiton/hosting.\n    uint public minimumRequestValue;\n\n    // Mapping to determine valid NFTs of contract.\n    mapping(address => nftStruct) contractNFT;\n\n    // Mapping to determine contract of a baseURI;\n    mapping(string => address) public baseURIContract;\n\n    // Mapping to determine contract of a subURI;\n    mapping(string => address) public subURIContract;\n\n    // Mapping to determine all contracts verified at one time to a distributor. \n    // WARNING! array may contain contracts containing subURIs not distributed by distributor. \n    // contractNFT will determine if the distributor is the rightful distributor of the NFT!\n    mapping(address => address[]) public distributorContracts; \n\n    // Array to hold all nfts contracts verified at one time.\n    // WARNING! array may contain contracts no longer verified.\n    address[] public nftContracts;\n\n    // mapping to hold contracts that have requested verification.\n    mapping(address => bool) nftRequest;\n\n    // Mapping to hold nft leafs that have been verified.\n    mapping(bytes32 => bool) nftVerified;\n\n    // Mapping to hold contracts that have been slashed.\n    mapping(address => bool) public nftSlashed;\n\n    // Structure to hold NFT data.\n    struct nftStruct{\n        address _contract;\n        address _distributor;\n        string _baseURI;\n        string[] _subURIs;\n        uint _block;\n    }\n\n    // Structure to hold nftBlock variables.\n    struct nftBlock{\n        bytes32 _prev;\n        bytes32 _root;\n        string _leaves;\n        uint _block;\n    }\n\n    // NFT blockchain...\n    nftBlock[] public nftBlocks;\n\n    // Mapping of block roots to blocks.\n    mapping(bytes32 => nftBlock) public blockMap;\n\n    // Event emitted when a new nft block is submitted.\n    event blockSubmitted(nftBlock _block);\n\n    // Event emitted when a verification request is submitted.\n    event verificationRequest(address _contract, address _distributor, string _baseURI, uint _block);\n\n    // Event emitted when an nft has been verifed!\n    event verified(nftStruct _nft);\n\n    // Event emitted when nfts have been slashed via slashNFTs.\n    event slashed(address[] _contracts);\n\n    // Event emitted when an nft has been slashed via slashNFT.\n    event slash(address _contract, bool _slashed);\n\n    // Constructor\n    constructor(uint _minimumRequestValue){\n        minimumRequestValue = _minimumRequestValue;\n        nftBlock memory n = nftBlock(bytes32(0), bytes32(0) , \"\", block.number);\n        nftBlocks.push(n);\n    }\n    \n    // Function to requets verificaition of NFT \n    function requestVerification() public payable{\n\n        // Creating RatioSingleNFT contract from requester.\n        RatioSingleNFT ratioNFT = RatioSingleNFT(msg.sender);\n\n        // Contract specification conditions.\n        require(msg.value >= minimumRequestValue, \"Invalid Request .\");\n\n        require(Address.isContract(msg.sender), \"Sender must be a contract\");\n        \n        require(nftRequest[msg.sender] == false, \"NFT contract already requested verification.\");\n\n        require(baseURIContract[ratioNFT.baseURI()] == address(0), \"Base URI has already been claimed.\");\n\n        require(bytes(ratioNFT.baseURI()).length == 53, \"Incorrect _baseURI length\");\n\n        require(uriPrefix(ratioNFT.baseURI()), \"Incorrect prefix in _baseURI\");\n\n        nftRequest[msg.sender] = true;\n\n        // Emit verificationRequest event for Oracle.\n        emit verificationRequest(msg.sender, ratioNFT.distributor() , ratioNFT.baseURI(), block.number);\n    }\n\n    // Function to verify a nft of behalf of Ratio Labs.\n    function verifyNFT(bytes32[] memory _proof, bytes32 _root, bytes32 _leaf, nftStruct memory _nft) public{\n        // require the _root to exist.\n        require(blockMap[_root]._block != 0, \"Invalid nft root given.\");\n\n        // require nft contract not to be slashed.\n        require(!nftSlashed[_nft._contract], \"NFT contract has already been slashed.\");\n\n        // calculate sub URI encoding.\n        bytes memory encoded;\n        for (uint i = 0; i < _nft._subURIs.length; i++) {\n            encoded = bytes.concat(\n                encoded,\n                abi.encodePacked(_nft._subURIs[i])\n            );\n        }\n\n        // require _leaf hash to match _nft hash.\n        require(_leaf == keccak256(abi.encodePacked(_nft._contract, _nft._distributor, _nft._baseURI, encoded, _nft._block)), \"Given _leaf does not match _nft.\");\n        // require _nft is not already verified.\n        require(!nftVerified[_leaf], \"NFT was already verified.\");\n        // require _nft is within _root .\n        require(MerkleProof.verify(_proof, _root, _leaf), \"Invalid Proof\");\n\n        // Verify and Store NFT info.\n        nftVerified[_leaf] = true;\n\n        // Set subURIs contract. \n        for(uint i = 0; i < _nft._subURIs.length; i++){\n            if(subURIContract[_nft._subURIs[i]] != address(0)){\n                require(contractNFT[subURIContract[_nft._subURIs[i]]]._block == 0 || \n                        contractNFT[subURIContract[_nft._subURIs[i]]]._block > _nft._block, \"Invalid block height for subURI.\");\n            }\n            subURIContract[_nft._subURIs[i]] = _nft._contract;\n        }\n\n        // Set contracts NFT;\n        contractNFT[_nft._contract] = _nft;\n\n        // Push nft contract address into nftContracts array.\n        nftContracts.push(_nft._contract);\n\n        // Push contract address into distributor distributorContracts.\n        distributorContracts[_nft._distributor].push(_nft._contract);\n\n        // Set baseURI contract.\n        baseURIContract[_nft._baseURI] = _nft._contract;  \n        \n        // Emit verified event.\n        emit verified(_nft);\n    }\n\n    // Function to submit nft blocks for verified NFTs.\n    function submitBlock(nftBlock memory _block) public onlyOwner{\n        require(_block._block == 0, \"Invalid _block initialization.\");\n        _block._block = block.number;\n        nftBlocks.push(_block);\n        blockMap[_block._root] = nftBlocks[nftBlocks.length-1];\n        emit blockSubmitted(_block);\n    }\n\n    // Function to _slashNFTs via Oracle\n    function slashNFTs(address[] memory _contracts) public onlyOwner{\n        for(uint i = 0; i < _contracts.length; i++){\n            delete contractNFT[_contracts[i]];\n            nftSlashed[_contracts[i]] = true;\n        }\n        emit slashed(_contracts);\n    }\n\n    // Function to slashNFT via public\n    function slashNFT(address _contract) public{\n        require(contractNFT[_contract]._contract != address(0), \"Contract isn't verified.\");\n        RatioSingleNFT rNFT = RatioSingleNFT(_contract);\n        nftStruct memory nStruct = contractNFT[_contract];\n        if(rNFT.distributor() != nStruct._distributor || !compareStrings(rNFT.baseURI(), nStruct._baseURI)){\n            delete contractNFT[_contract];\n            nftSlashed[_contract] = true;\n            emit slash(_contract, true);\n            return;\n        }\n        string[4] memory subURIs = [rNFT.image(), rNFT.audio(), rNFT.video(), rNFT.model()];\n        for(uint i = 0 ; i < subURIs.length; i++){\n            if(!compareStrings(subURIs[i], nStruct._subURIs[i])){\n                delete contractNFT[_contract];\n                nftSlashed[_contract] = true;\n                emit slash(_contract, true);\n                return;\n            }\n        }\n        emit slash(_contract, false);\n    }\n\n    /**  \n    *** User Helper Functions\n    **/\n    \n    // Function to return latestBlock\n    function latestBlock() public view returns(nftBlock memory _block){\n        return nftBlocks[nftBlocks.length - 1];\n    }\n\n    function getContractNFT(address _contract) public view returns(nftStruct memory _nft){\n        return contractNFT[_contract];\n    }\n\n    function getBaseURIdistributor(string memory _baseURI) public view returns(address _distributor){\n        return contractNFT[baseURIContract[_baseURI]]._distributor;\n    }\n\n    function getSubURIbaseURI(string memory _subURI) public view returns(string memory _baseURI){\n        return contractNFT[subURIContract[_subURI]]._baseURI;\n    }\n\n    function getDistributorContracts(address _distributor) public view returns(address[] memory _contracts){\n        return distributorContracts[_distributor];\n    }\n\n    /**  \n    *** Contract Helper Functions\n    **/\n\n    function uriPrefix(string memory _baseURI) internal pure returns(bool){\n        return  keccak256( abi.encodePacked( bytes9( bytes(_baseURI) ) ) ) == keccak256( abi.encodePacked( bytes9(\"ipfs://Qm\") ) ) ;\n    }\n\n    function compareStrings(string memory _a, string memory _b) internal pure returns(bool){\n        return keccak256( abi.encodePacked( bytes(_a) ) )  == keccak256( abi.encodePacked( bytes(_b) ) );\n    }\n\n    /**  \n    *** Owner Helper Functions\n    **/\n\n    function getContracts(uint _start, uint _end) public view returns(address[1000] memory _contracts){\n        uint n = 0;\n        for(uint i = _start; i <= _end; i++)\n        {\n            _contracts[n] = nftContracts[i];\n            n++;\n        }\n    }\n\n    function modifyRequestValue(uint _val) public onlyOwner{\n        minimumRequestValue = _val;\n    }\n\n    function claim() public{\n        payable(owner()).transfer(address(this).balance);\n    }\n \n}",
  "sourcePath": "/home/stephenstb/Ratio-Labs/ratio-labs/contracts/NFTProtocol/NFTProtocol.sol",
  "compiler": {
    "name": "solc",
    "version": "0.8.5+commit.a4f2e591.Emscripten.clang"
  },
  "schemaVersion": "3.3.3",
  "updatedAt": "2022-06-23T03:09:18.992Z",
  "devdoc": {
    "kind": "dev",
    "methods": {
      "owner()": {
        "details": "Returns the address of the current owner."
      },
      "renounceOwnership()": {
        "details": "Leaves the contract without owner. It will not be possible to call `onlyOwner` functions anymore. Can only be called by the current owner. NOTE: Renouncing ownership will leave the contract without an owner, thereby removing any functionality that is only available to the owner."
      },
      "transferOwnership(address)": {
        "details": "Transfers ownership of the contract to a new account (`newOwner`). Can only be called by the current owner."
      }
    },
    "version": 1
  },
  "userdoc": {
    "kind": "user",
    "methods": {
      "getContracts(uint256,uint256)": {
        "notice": "*** Owner Helper Functions*"
      },
      "latestBlock()": {
        "notice": "*** User Helper Functions*"
      }
    },
    "version": 1
  }
}