{
  "contractName": "NFTProtocol",
  "abi": [
    {
      "inputs": [
        {
          "internalType": "uint256",
          "name": "_minimumRequestValue",
          "type": "uint256"
        }
      ],
      "stateMutability": "nonpayable",
      "type": "constructor"
    },
    {
      "anonymous": false,
      "inputs": [
        {
          "indexed": true,
          "internalType": "address",
          "name": "previousOwner",
          "type": "address"
        },
        {
          "indexed": true,
          "internalType": "address",
          "name": "newOwner",
          "type": "address"
        }
      ],
      "name": "OwnershipTransferred",
      "type": "event"
    },
    {
      "anonymous": false,
      "inputs": [
        {
          "components": [
            {
              "internalType": "bytes32",
              "name": "_prev",
              "type": "bytes32"
            },
            {
              "internalType": "bytes32",
              "name": "_root",
              "type": "bytes32"
            },
            {
              "internalType": "bytes32[]",
              "name": "_leaves",
              "type": "bytes32[]"
            },
            {
              "internalType": "uint256",
              "name": "_block",
              "type": "uint256"
            }
          ],
          "indexed": false,
          "internalType": "struct NFTProtocol.nftBlock",
          "name": "_block",
          "type": "tuple"
        }
      ],
      "name": "blockSubmited",
      "type": "event"
    },
    {
      "anonymous": false,
      "inputs": [
        {
          "indexed": false,
          "internalType": "address[]",
          "name": "_contracts",
          "type": "address[]"
        }
      ],
      "name": "slashed",
      "type": "event"
    },
    {
      "anonymous": false,
      "inputs": [
        {
          "indexed": false,
          "internalType": "address",
          "name": "_contract",
          "type": "address"
        },
        {
          "indexed": false,
          "internalType": "address",
          "name": "_distributor",
          "type": "address"
        },
        {
          "indexed": false,
          "internalType": "string",
          "name": "_baseURI",
          "type": "string"
        },
        {
          "indexed": false,
          "internalType": "uint256",
          "name": "_block",
          "type": "uint256"
        }
      ],
      "name": "verificationRequest",
      "type": "event"
    },
    {
      "anonymous": false,
      "inputs": [
        {
          "components": [
            {
              "internalType": "address",
              "name": "_contract",
              "type": "address"
            },
            {
              "internalType": "address",
              "name": "_distributor",
              "type": "address"
            },
            {
              "internalType": "string",
              "name": "_baseURI",
              "type": "string"
            },
            {
              "internalType": "string[]",
              "name": "_subURIs",
              "type": "string[]"
            },
            {
              "internalType": "uint256",
              "name": "_block",
              "type": "uint256"
            }
          ],
          "indexed": false,
          "internalType": "struct NFTProtocol.nftStruct",
          "name": "_nft",
          "type": "tuple"
        }
      ],
      "name": "verified",
      "type": "event"
    },
    {
      "inputs": [
        {
          "internalType": "string",
          "name": "",
          "type": "string"
        }
      ],
      "name": "baseURIContract",
      "outputs": [
        {
          "internalType": "address",
          "name": "",
          "type": "address"
        }
      ],
      "stateMutability": "view",
      "type": "function"
    },
    {
      "inputs": [
        {
          "internalType": "bytes32",
          "name": "",
          "type": "bytes32"
        }
      ],
      "name": "blockMap",
      "outputs": [
        {
          "internalType": "bytes32",
          "name": "_prev",
          "type": "bytes32"
        },
        {
          "internalType": "bytes32",
          "name": "_root",
          "type": "bytes32"
        },
        {
          "internalType": "uint256",
          "name": "_block",
          "type": "uint256"
        }
      ],
      "stateMutability": "view",
      "type": "function"
    },
    {
      "inputs": [
        {
          "internalType": "address",
          "name": "",
          "type": "address"
        },
        {
          "internalType": "uint256",
          "name": "",
          "type": "uint256"
        }
      ],
      "name": "distributorContracts",
      "outputs": [
        {
          "internalType": "address",
          "name": "",
          "type": "address"
        }
      ],
      "stateMutability": "view",
      "type": "function"
    },
    {
      "inputs": [],
      "name": "minimumRequestValue",
      "outputs": [
        {
          "internalType": "uint256",
          "name": "",
          "type": "uint256"
        }
      ],
      "stateMutability": "view",
      "type": "function"
    },
    {
      "inputs": [
        {
          "internalType": "uint256",
          "name": "",
          "type": "uint256"
        }
      ],
      "name": "nftBlocks",
      "outputs": [
        {
          "internalType": "bytes32",
          "name": "_prev",
          "type": "bytes32"
        },
        {
          "internalType": "bytes32",
          "name": "_root",
          "type": "bytes32"
        },
        {
          "internalType": "uint256",
          "name": "_block",
          "type": "uint256"
        }
      ],
      "stateMutability": "view",
      "type": "function"
    },
    {
      "inputs": [
        {
          "internalType": "uint256",
          "name": "",
          "type": "uint256"
        }
      ],
      "name": "nftContracts",
      "outputs": [
        {
          "internalType": "address",
          "name": "",
          "type": "address"
        }
      ],
      "stateMutability": "view",
      "type": "function"
    },
    {
      "inputs": [],
      "name": "owner",
      "outputs": [
        {
          "internalType": "address",
          "name": "",
          "type": "address"
        }
      ],
      "stateMutability": "view",
      "type": "function"
    },
    {
      "inputs": [],
      "name": "renounceOwnership",
      "outputs": [],
      "stateMutability": "nonpayable",
      "type": "function"
    },
    {
      "inputs": [
        {
          "internalType": "string",
          "name": "",
          "type": "string"
        }
      ],
      "name": "subURIContract",
      "outputs": [
        {
          "internalType": "address",
          "name": "",
          "type": "address"
        }
      ],
      "stateMutability": "view",
      "type": "function"
    },
    {
      "inputs": [
        {
          "internalType": "address",
          "name": "newOwner",
          "type": "address"
        }
      ],
      "name": "transferOwnership",
      "outputs": [],
      "stateMutability": "nonpayable",
      "type": "function"
    },
    {
      "inputs": [],
      "name": "requestVerification",
      "outputs": [],
      "stateMutability": "payable",
      "type": "function"
    },
    {
      "inputs": [
        {
          "internalType": "bytes32[]",
          "name": "_proof",
          "type": "bytes32[]"
        },
        {
          "internalType": "bytes32",
          "name": "_root",
          "type": "bytes32"
        },
        {
          "internalType": "bytes32",
          "name": "_leaf",
          "type": "bytes32"
        },
        {
          "components": [
            {
              "internalType": "address",
              "name": "_contract",
              "type": "address"
            },
            {
              "internalType": "address",
              "name": "_distributor",
              "type": "address"
            },
            {
              "internalType": "string",
              "name": "_baseURI",
              "type": "string"
            },
            {
              "internalType": "string[]",
              "name": "_subURIs",
              "type": "string[]"
            },
            {
              "internalType": "uint256",
              "name": "_block",
              "type": "uint256"
            }
          ],
          "internalType": "struct NFTProtocol.nftStruct",
          "name": "_nft",
          "type": "tuple"
        }
      ],
      "name": "verifyNFT",
      "outputs": [],
      "stateMutability": "nonpayable",
      "type": "function"
    },
    {
      "inputs": [
        {
          "components": [
            {
              "internalType": "bytes32",
              "name": "_prev",
              "type": "bytes32"
            },
            {
              "internalType": "bytes32",
              "name": "_root",
              "type": "bytes32"
            },
            {
              "internalType": "bytes32[]",
              "name": "_leaves",
              "type": "bytes32[]"
            },
            {
              "internalType": "uint256",
              "name": "_block",
              "type": "uint256"
            }
          ],
          "internalType": "struct NFTProtocol.nftBlock",
          "name": "_block",
          "type": "tuple"
        }
      ],
      "name": "submitBlock",
      "outputs": [],
      "stateMutability": "nonpayable",
      "type": "function"
    },
    {
      "inputs": [
        {
          "internalType": "address[]",
          "name": "_contracts",
          "type": "address[]"
        }
      ],
      "name": "slashNFTs",
      "outputs": [],
      "stateMutability": "nonpayable",
      "type": "function"
    },
    {
      "inputs": [
        {
          "internalType": "address",
          "name": "_contract",
          "type": "address"
        }
      ],
      "name": "slashNFT",
      "outputs": [],
      "stateMutability": "nonpayable",
      "type": "function"
    },
    {
      "inputs": [],
      "name": "latestBlock",
      "outputs": [
        {
          "components": [
            {
              "internalType": "bytes32",
              "name": "_prev",
              "type": "bytes32"
            },
            {
              "internalType": "bytes32",
              "name": "_root",
              "type": "bytes32"
            },
            {
              "internalType": "bytes32[]",
              "name": "_leaves",
              "type": "bytes32[]"
            },
            {
              "internalType": "uint256",
              "name": "_block",
              "type": "uint256"
            }
          ],
          "internalType": "struct NFTProtocol.nftBlock",
          "name": "_block",
          "type": "tuple"
        }
      ],
      "stateMutability": "view",
      "type": "function"
    },
    {
      "inputs": [
        {
          "internalType": "address",
          "name": "_contract",
          "type": "address"
        }
      ],
      "name": "getContractNFT",
      "outputs": [
        {
          "components": [
            {
              "internalType": "address",
              "name": "_contract",
              "type": "address"
            },
            {
              "internalType": "address",
              "name": "_distributor",
              "type": "address"
            },
            {
              "internalType": "string",
              "name": "_baseURI",
              "type": "string"
            },
            {
              "internalType": "string[]",
              "name": "_subURIs",
              "type": "string[]"
            },
            {
              "internalType": "uint256",
              "name": "_block",
              "type": "uint256"
            }
          ],
          "internalType": "struct NFTProtocol.nftStruct",
          "name": "_nft",
          "type": "tuple"
        }
      ],
      "stateMutability": "view",
      "type": "function"
    },
    {
      "inputs": [
        {
          "internalType": "string",
          "name": "_baseURI",
          "type": "string"
        }
      ],
      "name": "getBaseURIdistributor",
      "outputs": [
        {
          "internalType": "address",
          "name": "_distributor",
          "type": "address"
        }
      ],
      "stateMutability": "view",
      "type": "function"
    },
    {
      "inputs": [
        {
          "internalType": "string",
          "name": "_subURI",
          "type": "string"
        }
      ],
      "name": "getSubURIbaseURI",
      "outputs": [
        {
          "internalType": "string",
          "name": "_baseURI",
          "type": "string"
        }
      ],
      "stateMutability": "view",
      "type": "function"
    },
    {
      "inputs": [
        {
          "internalType": "address",
          "name": "_distributor",
          "type": "address"
        }
      ],
      "name": "getDistributorContracts",
      "outputs": [
        {
          "internalType": "address[]",
          "name": "_contracts",
          "type": "address[]"
        }
      ],
      "stateMutability": "view",
      "type": "function"
    },
    {
      "inputs": [
        {
          "internalType": "uint256",
          "name": "_start",
          "type": "uint256"
        },
        {
          "internalType": "uint256",
          "name": "_end",
          "type": "uint256"
        }
      ],
      "name": "getContracts",
      "outputs": [
        {
          "internalType": "address[1000]",
          "name": "_contracts",
          "type": "address[1000]"
        }
      ],
      "stateMutability": "view",
      "type": "function"
    },
    {
      "inputs": [
        {
          "internalType": "uint256",
          "name": "_val",
          "type": "uint256"
        }
      ],
      "name": "modifyRequestValue",
      "outputs": [],
      "stateMutability": "nonpayable",
      "type": "function"
    },
    {
      "inputs": [],
      "name": "claim",
      "outputs": [],
      "stateMutability": "nonpayable",
      "type": "function"
    }
  ],
  "bytecode": "0x60806040523480156200001157600080fd5b506040516200494a3803806200494a83398181016040528101906200003791906200029d565b620000576200004b6200014960201b60201c565b6200015160201b60201c565b80600181905550600060405180608001604052806000801b81526020016000801b8152602001600067ffffffffffffffff8111156200009b576200009a620002d9565b5b604051908082528060200260200182016040528015620000ca5781602001602082028036833780820191505090505b5081526020014381525090506009819080600181540180825580915050600190039060005260206000209060040201600090919091909150600082015181600001556020820151816001015560408201518160020190805190602001906200013492919062000215565b50606082015181600301555050505062000327565b600033905090565b60008060009054906101000a900473ffffffffffffffffffffffffffffffffffffffff169050816000806101000a81548173ffffffffffffffffffffffffffffffffffffffff021916908373ffffffffffffffffffffffffffffffffffffffff1602179055508173ffffffffffffffffffffffffffffffffffffffff168173ffffffffffffffffffffffffffffffffffffffff167f8be0079c531659141344cd1fd0a4f28419497f9722a3daafe3b4186f6b6457e060405160405180910390a35050565b82805482825590600052602060002090810192821562000254579160200282015b828111156200025357825182559160200191906001019062000236565b5b50905062000263919062000267565b5090565b5b808211156200028257600081600090555060010162000268565b5090565b60008151905062000297816200030d565b92915050565b600060208284031215620002b657620002b562000308565b5b6000620002c68482850162000286565b91505092915050565b6000819050919050565b7f4e487b7100000000000000000000000000000000000000000000000000000000600052604160045260246000fd5b600080fd5b6200031881620002cf565b81146200032457600080fd5b50565b61461380620003376000396000f3fe6080604052600436106101405760003560e01c8063715018a6116100b6578063bee03c7a1161006f578063bee03c7a14610463578063c0f1f8731461048e578063c492560f146104cb578063eaac1d1a14610508578063eddebe6214610545578063f2fde38b1461056e57610140565b8063715018a61461035557806387b211531461036c5780638da5cb5b146103a957806395e1487d146103d4578063a6b8123c146103fd578063b5555aba1461043a57610140565b806339e9d0611161010857806339e9d06114610231578063490a3fb81461025a5780634e71d92d14610299578063539975de146102b057806356080c0d146102ef5780636f1b31f01461031857610140565b8063012a3bd31461014557806307e2da961461018257806307ec3039146101ad5780630bb4d82a146101b757806320c43075146101f4575b600080fd5b34801561015157600080fd5b5061016c600480360381019061016791906132ef565b610597565b6040516101799190613a86565b60405180910390f35b34801561018e57600080fd5b50610197610660565b6040516101a49190613cfd565b60405180910390f35b6101b5610721565b005b3480156101c357600080fd5b506101de60048036038101906101d991906132c2565b610c9c565b6040516101eb9190613a1f565b60405180910390f35b34801561020057600080fd5b5061021b60048036038101906102169190613092565b610cdb565b6040516102289190613a1f565b60405180910390f35b34801561023d57600080fd5b50610258600480360381019061025391906132c2565b610d29565b005b34801561026657600080fd5b50610281600480360381019061027c91906132c2565b610daf565b60405161029093929190613ac4565b60405180910390f35b3480156102a557600080fd5b506102ae610de9565b005b3480156102bc57600080fd5b506102d760048036038101906102d291906131ba565b610e39565b6040516102e693929190613ac4565b60405180910390f35b3480156102fb57600080fd5b506103166004803603810190610311919061311b565b610e63565b005b34801561032457600080fd5b5061033f600480360381019061033a9190613038565b611627565b60405161034c9190613d1f565b60405180910390f35b34801561036157600080fd5b5061036a6118a1565b005b34801561037857600080fd5b50610393600480360381019061038e91906131e7565b611929565b6040516103a09190613a1f565b60405180910390f35b3480156103b557600080fd5b506103be611972565b6040516103cb9190613a1f565b60405180910390f35b3480156103e057600080fd5b506103fb60048036038101906103f691906130d2565b61199b565b005b34801561040957600080fd5b50610424600480360381019061041f91906131e7565b611b43565b6040516104319190613a1f565b60405180910390f35b34801561044657600080fd5b50610461600480360381019061045c9190613279565b611bed565b005b34801561046f57600080fd5b50610478611ddf565b6040516104859190613d41565b60405180910390f35b34801561049a57600080fd5b506104b560048036038101906104b09190613038565b611de5565b6040516104c29190613aa2565b60405180910390f35b3480156104d757600080fd5b506104f260048036038101906104ed91906131e7565b611eb2565b6040516104ff9190613afb565b60405180910390f35b34801561051457600080fd5b5061052f600480360381019061052a91906131e7565b611fc4565b60405161053c9190613a1f565b60405180910390f35b34801561055157600080fd5b5061056c60048036038101906105679190613038565b61200d565b005b34801561057a57600080fd5b5061059560048036038101906105909190613038565b61255f565b005b61059f6128c3565b6000808490505b83811161065857600681815481106105c1576105c06141fe565b5b9060005260206000200160009054906101000a900473ffffffffffffffffffffffffffffffffffffffff1683836103e88110610600576105ff6141fe565b5b602002019073ffffffffffffffffffffffffffffffffffffffff16908173ffffffffffffffffffffffffffffffffffffffff168152505081806106429061411f565b92505080806106509061411f565b9150506105a6565b505092915050565b6106686128e7565b6009600160098054905061067c9190613f6d565b8154811061068d5761068c6141fe565b5b906000526020600020906004020160405180608001604052908160008201548152602001600182015481526020016002820180548060200260200160405190810160405280929190818152602001828054801561070957602002820191906000526020600020905b8154815260200190600101908083116106f5575b50505050508152602001600382015481525050905090565b600033905060015434101561076b576040517f08c379a000000000000000000000000000000000000000000000000000000000815260040161076290613c9d565b60405180910390fd5b61077433612657565b6107b3576040517f08c379a00000000000000000000000000000000000000000000000000000000081526004016107aa90613c1d565b60405180910390fd5b60001515600760003373ffffffffffffffffffffffffffffffffffffffff1673ffffffffffffffffffffffffffffffffffffffff16815260200190815260200160002060009054906101000a900460ff16151514610846576040517f08c379a000000000000000000000000000000000000000000000000000000000815260040161083d90613bdd565b60405180910390fd5b600073ffffffffffffffffffffffffffffffffffffffff1660038273ffffffffffffffffffffffffffffffffffffffff16636c0360eb6040518163ffffffff1660e01b815260040160006040518083038186803b1580156108a657600080fd5b505afa1580156108ba573d6000803e3d6000fd5b505050506040513d6000823e3d601f19601f820116820180604052508101906108e39190613230565b6040516108f09190613a08565b908152602001604051809103902060009054906101000a900473ffffffffffffffffffffffffffffffffffffffff1673ffffffffffffffffffffffffffffffffffffffff1614610975576040517f08c379a000000000000000000000000000000000000000000000000000000000815260040161096c90613c5d565b60405180910390fd5b60358173ffffffffffffffffffffffffffffffffffffffff16636c0360eb6040518163ffffffff1660e01b815260040160006040518083038186803b1580156109bd57600080fd5b505afa1580156109d1573d6000803e3d6000fd5b505050506040513d6000823e3d601f19601f820116820180604052508101906109fa9190613230565b5114610a3b576040517f08c379a0000000000000000000000000000000000000000000000000000000008152600401610a3290613bfd565b60405180910390fd5b610ac68173ffffffffffffffffffffffffffffffffffffffff16636c0360eb6040518163ffffffff1660e01b815260040160006040518083038186803b158015610a8457600080fd5b505afa158015610a98573d6000803e3d6000fd5b505050506040513d6000823e3d601f19601f82011682018060405250810190610ac19190613230565b61267a565b610b05576040517f08c379a0000000000000000000000000000000000000000000000000000000008152600401610afc90613b9d565b60405180910390fd5b6001600760003373ffffffffffffffffffffffffffffffffffffffff1673ffffffffffffffffffffffffffffffffffffffff16815260200190815260200160002060006101000a81548160ff0219169083151502179055507fb323e7348260c7e224c4076c9dc96a004d173b12b8672023d53d3e424eddfde9338273ffffffffffffffffffffffffffffffffffffffff1663bfe109286040518163ffffffff1660e01b815260040160206040518083038186803b158015610bc557600080fd5b505afa158015610bd9573d6000803e3d6000fd5b505050506040513d601f19601f82011682018060405250810190610bfd9190613065565b8373ffffffffffffffffffffffffffffffffffffffff16636c0360eb6040518163ffffffff1660e01b815260040160006040518083038186803b158015610c4357600080fd5b505afa158015610c57573d6000803e3d6000fd5b505050506040513d6000823e3d601f19601f82011682018060405250810190610c809190613230565b43604051610c919493929190613a3a565b60405180910390a150565b60068181548110610cac57600080fd5b906000526020600020016000915054906101000a900473ffffffffffffffffffffffffffffffffffffffff1681565b60056020528160005260406000208181548110610cf757600080fd5b906000526020600020016000915091509054906101000a900473ffffffffffffffffffffffffffffffffffffffff1681565b610d316126fb565b73ffffffffffffffffffffffffffffffffffffffff16610d4f611972565b73ffffffffffffffffffffffffffffffffffffffff1614610da5576040517f08c379a0000000000000000000000000000000000000000000000000000000008152600401610d9c90613c7d565b60405180910390fd5b8060018190555050565b60098181548110610dbf57600080fd5b90600052602060002090600402016000915090508060000154908060010154908060030154905083565b610df1611972565b73ffffffffffffffffffffffffffffffffffffffff166108fc479081150290604051600060405180830381858888f19350505050158015610e36573d6000803e3d6000fd5b50565b600a6020528060005260406000206000915090508060000154908060010154908060030154905083565b6000600a6000858152602001908152602001600020600301541415610ebd576040517f08c379a0000000000000000000000000000000000000000000000000000000008152600401610eb490613b3d565b60405180910390fd5b606060005b826060015151811015610f43578183606001518281518110610ee757610ee66141fe565b5b6020026020010151604051602001610eff9190613a08565b604051602081830303815290604052604051602001610f1f9291906139e4565b60405160208183030381529060405291508080610f3b9061411f565b915050610ec2565b50816000015182602001518360400151838560800151604051602001610f6d95949392919061395b565b604051602081830303815290604052805190602001208314610fc4576040517f08c379a0000000000000000000000000000000000000000000000000000000008152600401610fbb90613bbd565b60405180910390fd5b6008600084815260200190815260200160002060009054906101000a900460ff1615611025576040517f08c379a000000000000000000000000000000000000000000000000000000000815260040161101c90613b1d565b60405180910390fd5b611030858585612703565b61106f576040517f08c379a000000000000000000000000000000000000000000000000000000000815260040161106690613cdd565b60405180910390fd5b60016008600085815260200190815260200160002060006101000a81548160ff02191690831515021790555060005b82606001515181101561135b57600073ffffffffffffffffffffffffffffffffffffffff166004846060015183815181106110dc576110db6141fe565b5b60200260200101516040516110f19190613a08565b908152602001604051809103902060009054906101000a900473ffffffffffffffffffffffffffffffffffffffff1673ffffffffffffffffffffffffffffffffffffffff16146112c95760006002600060048660600151858151811061115a576111596141fe565b5b602002602001015160405161116f9190613a08565b908152602001604051809103902060009054906101000a900473ffffffffffffffffffffffffffffffffffffffff1673ffffffffffffffffffffffffffffffffffffffff1673ffffffffffffffffffffffffffffffffffffffff1681526020019081526020016000206004015414806112895750826080015160026000600486606001518581518110611205576112046141fe565b5b602002602001015160405161121a9190613a08565b908152602001604051809103902060009054906101000a900473ffffffffffffffffffffffffffffffffffffffff1673ffffffffffffffffffffffffffffffffffffffff1673ffffffffffffffffffffffffffffffffffffffff16815260200190815260200160002060040154115b6112c8576040517f08c379a00000000000000000000000000000000000000000000000000000000081526004016112bf90613cbd565b60405180910390fd5b5b82600001516004846060015183815181106112e7576112e66141fe565b5b60200260200101516040516112fc9190613a08565b908152602001604051809103902060006101000a81548173ffffffffffffffffffffffffffffffffffffffff021916908373ffffffffffffffffffffffffffffffffffffffff16021790555080806113539061411f565b91505061109e565b508160026000846000015173ffffffffffffffffffffffffffffffffffffffff1673ffffffffffffffffffffffffffffffffffffffff16815260200190815260200160002060008201518160000160006101000a81548173ffffffffffffffffffffffffffffffffffffffff021916908373ffffffffffffffffffffffffffffffffffffffff16021790555060208201518160010160006101000a81548173ffffffffffffffffffffffffffffffffffffffff021916908373ffffffffffffffffffffffffffffffffffffffff160217905550604082015181600201908051906020019061144a929190612915565b50606082015181600301908051906020019061146792919061299b565b5060808201518160040155905050600682600001519080600181540180825580915050600190039060005260206000200160009091909190916101000a81548173ffffffffffffffffffffffffffffffffffffffff021916908373ffffffffffffffffffffffffffffffffffffffff16021790555060056000836020015173ffffffffffffffffffffffffffffffffffffffff1673ffffffffffffffffffffffffffffffffffffffff16815260200190815260200160002082600001519080600181540180825580915050600190039060005260206000200160009091909190916101000a81548173ffffffffffffffffffffffffffffffffffffffff021916908373ffffffffffffffffffffffffffffffffffffffff16021790555081600001516003836040015160405161159d9190613a08565b908152602001604051809103902060006101000a81548173ffffffffffffffffffffffffffffffffffffffff021916908373ffffffffffffffffffffffffffffffffffffffff1602179055507f5561a5c1fa7cc43b37c32cd6d1c219c152a96eef77b24203b49ccd6239a1e624826040516116189190613d1f565b60405180910390a15050505050565b61162f6129fb565b600260008373ffffffffffffffffffffffffffffffffffffffff1673ffffffffffffffffffffffffffffffffffffffff1681526020019081526020016000206040518060a00160405290816000820160009054906101000a900473ffffffffffffffffffffffffffffffffffffffff1673ffffffffffffffffffffffffffffffffffffffff1673ffffffffffffffffffffffffffffffffffffffff1681526020016001820160009054906101000a900473ffffffffffffffffffffffffffffffffffffffff1673ffffffffffffffffffffffffffffffffffffffff1673ffffffffffffffffffffffffffffffffffffffff168152602001600282018054611735906140bc565b80601f0160208091040260200160405190810160405280929190818152602001828054611761906140bc565b80156117ae5780601f10611783576101008083540402835291602001916117ae565b820191906000526020600020905b81548152906001019060200180831161179157829003601f168201915b5050505050815260200160038201805480602002602001604051908101604052809291908181526020016000905b828210156118885783829060005260206000200180546117fb906140bc565b80601f0160208091040260200160405190810160405280929190818152602001828054611827906140bc565b80156118745780601f1061184957610100808354040283529160200191611874565b820191906000526020600020905b81548152906001019060200180831161185757829003601f168201915b5050505050815260200190600101906117dc565b5050505081526020016004820154815250509050919050565b6118a96126fb565b73ffffffffffffffffffffffffffffffffffffffff166118c7611972565b73ffffffffffffffffffffffffffffffffffffffff161461191d576040517f08c379a000000000000000000000000000000000000000000000000000000000815260040161191490613c7d565b60405180910390fd5b611927600061271a565b565b6003818051602081018201805184825260208301602085012081835280955050505050506000915054906101000a900473ffffffffffffffffffffffffffffffffffffffff1681565b60008060009054906101000a900473ffffffffffffffffffffffffffffffffffffffff16905090565b6119a36126fb565b73ffffffffffffffffffffffffffffffffffffffff166119c1611972565b73ffffffffffffffffffffffffffffffffffffffff1614611a17576040517f08c379a0000000000000000000000000000000000000000000000000000000008152600401611a0e90613c7d565b60405180910390fd5b60005b8151811015611b085760026000838381518110611a3a57611a396141fe565b5b602002602001015173ffffffffffffffffffffffffffffffffffffffff1673ffffffffffffffffffffffffffffffffffffffff168152602001908152602001600020600080820160006101000a81549073ffffffffffffffffffffffffffffffffffffffff02191690556001820160006101000a81549073ffffffffffffffffffffffffffffffffffffffff0219169055600282016000611adb9190612a56565b600382016000611aeb9190612a96565b600482016000905550508080611b009061411f565b915050611a1a565b507fba539ddaf32810453d74c00979a5b195cabeec6d1dd6ec2ba2ea6c5be40fe2c381604051611b389190613aa2565b60405180910390a150565b600060026000600384604051611b599190613a08565b908152602001604051809103902060009054906101000a900473ffffffffffffffffffffffffffffffffffffffff1673ffffffffffffffffffffffffffffffffffffffff1673ffffffffffffffffffffffffffffffffffffffff16815260200190815260200160002060010160009054906101000a900473ffffffffffffffffffffffffffffffffffffffff169050919050565b611bf56126fb565b73ffffffffffffffffffffffffffffffffffffffff16611c13611972565b73ffffffffffffffffffffffffffffffffffffffff1614611c69576040517f08c379a0000000000000000000000000000000000000000000000000000000008152600401611c6090613c7d565b60405180910390fd5b6000816060015114611cb0576040517f08c379a0000000000000000000000000000000000000000000000000000000008152600401611ca790613b7d565b60405180910390fd5b43816060018181525050600981908060018154018082558091505060019003906000526020600020906004020160009091909190915060008201518160000155602082015181600101556040820151816002019080519060200190611d16929190612ab7565b5060608201518160030155505060096001600980549050611d379190613f6d565b81548110611d4857611d476141fe565b5b9060005260206000209060040201600a60008360200151815260200190815260200160002060008201548160000155600182015481600101556002820181600201908054611d97929190612b04565b50600382015481600301559050507f338c8da578445c5e2907713cfd371cd34bd90f5c862773caae569216670337d781604051611dd49190613cfd565b60405180910390a150565b60015481565b6060600560008373ffffffffffffffffffffffffffffffffffffffff1673ffffffffffffffffffffffffffffffffffffffff168152602001908152602001600020805480602002602001604051908101604052809291908181526020018280548015611ea657602002820191906000526020600020905b8160009054906101000a900473ffffffffffffffffffffffffffffffffffffffff1673ffffffffffffffffffffffffffffffffffffffff1681526020019060010190808311611e5c575b50505050509050919050565b606060026000600484604051611ec89190613a08565b908152602001604051809103902060009054906101000a900473ffffffffffffffffffffffffffffffffffffffff1673ffffffffffffffffffffffffffffffffffffffff1673ffffffffffffffffffffffffffffffffffffffff1681526020019081526020016000206002018054611f3f906140bc565b80601f0160208091040260200160405190810160405280929190818152602001828054611f6b906140bc565b8015611fb85780601f10611f8d57610100808354040283529160200191611fb8565b820191906000526020600020905b815481529060010190602001808311611f9b57829003601f168201915b50505050509050919050565b6004818051602081018201805184825260208301602085012081835280955050505050506000915054906101000a900473ffffffffffffffffffffffffffffffffffffffff1681565b600073ffffffffffffffffffffffffffffffffffffffff16600260008373ffffffffffffffffffffffffffffffffffffffff1673ffffffffffffffffffffffffffffffffffffffff16815260200190815260200160002060000160009054906101000a900473ffffffffffffffffffffffffffffffffffffffff1673ffffffffffffffffffffffffffffffffffffffff1614156120df576040517f08c379a00000000000000000000000000000000000000000000000000000000081526004016120d690613c3d565b60405180910390fd5b60008190506000600260008473ffffffffffffffffffffffffffffffffffffffff1673ffffffffffffffffffffffffffffffffffffffff1681526020019081526020016000206040518060a00160405290816000820160009054906101000a900473ffffffffffffffffffffffffffffffffffffffff1673ffffffffffffffffffffffffffffffffffffffff1673ffffffffffffffffffffffffffffffffffffffff1681526020016001820160009054906101000a900473ffffffffffffffffffffffffffffffffffffffff1673ffffffffffffffffffffffffffffffffffffffff1673ffffffffffffffffffffffffffffffffffffffff1681526020016002820180546121ec906140bc565b80601f0160208091040260200160405190810160405280929190818152602001828054612218906140bc565b80156122655780601f1061223a57610100808354040283529160200191612265565b820191906000526020600020905b81548152906001019060200180831161224857829003601f168201915b5050505050815260200160038201805480602002602001604051908101604052809291908181526020016000905b8282101561233f5783829060005260206000200180546122b2906140bc565b80601f01602080910402602001604051908101604052809291908181526020018280546122de906140bc565b801561232b5780601f106123005761010080835404028352916020019161232b565b820191906000526020600020905b81548152906001019060200180831161230e57829003601f168201915b505050505081526020019060010190612293565b5050505081526020016004820154815250509050806020015173ffffffffffffffffffffffffffffffffffffffff168273ffffffffffffffffffffffffffffffffffffffff1663bfe109286040518163ffffffff1660e01b815260040160206040518083038186803b1580156123b457600080fd5b505afa1580156123c8573d6000803e3d6000fd5b505050506040513d601f19601f820116820180604052508101906123ec9190613065565b73ffffffffffffffffffffffffffffffffffffffff1614158061249c575061249a8273ffffffffffffffffffffffffffffffffffffffff16636c0360eb6040518163ffffffff1660e01b815260040160006040518083038186803b15801561245357600080fd5b505afa158015612467573d6000803e3d6000fd5b505050506040513d6000823e3d601f19601f820116820180604052508101906124909190613230565b82604001516127de565b155b1561255a57600260008473ffffffffffffffffffffffffffffffffffffffff1673ffffffffffffffffffffffffffffffffffffffff168152602001908152602001600020600080820160006101000a81549073ffffffffffffffffffffffffffffffffffffffff02191690556001820160006101000a81549073ffffffffffffffffffffffffffffffffffffffff021916905560028201600061253f9190612a56565b60038201600061254f9190612a96565b600482016000905550505b505050565b6125676126fb565b73ffffffffffffffffffffffffffffffffffffffff16612585611972565b73ffffffffffffffffffffffffffffffffffffffff16146125db576040517f08c379a00000000000000000000000000000000000000000000000000000000081526004016125d290613c7d565b60405180910390fd5b600073ffffffffffffffffffffffffffffffffffffffff168173ffffffffffffffffffffffffffffffffffffffff16141561264b576040517f08c379a000000000000000000000000000000000000000000000000000000000815260040161264290613b5d565b60405180910390fd5b6126548161271a565b50565b6000808273ffffffffffffffffffffffffffffffffffffffff163b119050919050565b60007f697066733a2f2f516d00000000000000000000000000000000000000000000006040516020016126ad91906139b2565b60405160208183030381529060405280519060200120826126cd90614013565b6040516020016126dd91906139b2565b60405160208183030381529060405280519060200120149050919050565b600033905090565b6000826127108584612837565b1490509392505050565b60008060009054906101000a900473ffffffffffffffffffffffffffffffffffffffff169050816000806101000a81548173ffffffffffffffffffffffffffffffffffffffff021916908373ffffffffffffffffffffffffffffffffffffffff1602179055508173ffffffffffffffffffffffffffffffffffffffff168173ffffffffffffffffffffffffffffffffffffffff167f8be0079c531659141344cd1fd0a4f28419497f9722a3daafe3b4186f6b6457e060405160405180910390a35050565b6000816040516020016127f191906139cd565b604051602081830303815290604052805190602001208360405160200161281891906139cd565b6040516020818303038152906040528051906020012014905092915050565b60008082905060005b84518110156128a157600085828151811061285e5761285d6141fe565b5b602002602001015190508083116128805761287983826128ac565b925061288d565b61288a81846128ac565b92505b5080806128999061411f565b915050612840565b508091505092915050565b600082600052816020526040600020905092915050565b60405180617d0001604052806103e890602082028036833780820191505090505090565b6040518060800160405280600080191681526020016000801916815260200160608152602001600081525090565b828054612921906140bc565b90600052602060002090601f016020900481019282612943576000855561298a565b82601f1061295c57805160ff191683800117855561298a565b8280016001018555821561298a579182015b8281111561298957825182559160200191906001019061296e565b5b5090506129979190612b56565b5090565b8280548282559060005260206000209081019282156129ea579160200282015b828111156129e95782518290805190602001906129d9929190612915565b50916020019190600101906129bb565b5b5090506129f79190612b73565b5090565b6040518060a00160405280600073ffffffffffffffffffffffffffffffffffffffff168152602001600073ffffffffffffffffffffffffffffffffffffffff1681526020016060815260200160608152602001600081525090565b508054612a62906140bc565b6000825580601f10612a745750612a93565b601f016020900490600052602060002090810190612a929190612b56565b5b50565b5080546000825590600052602060002090810190612ab49190612b73565b50565b828054828255906000526020600020908101928215612af3579160200282015b82811115612af2578251825591602001919060010190612ad7565b5b509050612b009190612b97565b5090565b828054828255906000526020600020908101928215612b455760005260206000209182015b82811115612b44578254825591600101919060010190612b29565b5b509050612b529190612b97565b5090565b5b80821115612b6f576000816000905550600101612b57565b5090565b5b80821115612b935760008181612b8a9190612a56565b50600101612b74565b5090565b5b80821115612bb0576000816000905550600101612b98565b5090565b6000612bc7612bc284613d81565b613d5c565b90508083825260208201905082856020860282011115612bea57612be9614280565b5b60005b85811015612c1a5781612c008882612da6565b845260208401935060208301925050600181019050612bed565b5050509392505050565b6000612c37612c3284613dad565b613d5c565b90508083825260208201905082856020860282011115612c5a57612c59614280565b5b60005b85811015612c8a5781612c708882612e5a565b845260208401935060208301925050600181019050612c5d565b5050509392505050565b6000612ca7612ca284613dd9565b613d5c565b90508083825260208201905082856020860282011115612cca57612cc9614280565b5b60005b85811015612d1857813567ffffffffffffffff811115612cf057612cef614271565b5b808601612cfd8982612e6f565b85526020850194506020840193505050600181019050612ccd565b5050509392505050565b6000612d35612d3084613e05565b613d5c565b905082815260208101848484011115612d5157612d50614285565b5b612d5c84828561407a565b509392505050565b6000612d77612d7284613e05565b613d5c565b905082815260208101848484011115612d9357612d92614285565b5b612d9e848285614089565b509392505050565b600081359050612db581614598565b92915050565b600081519050612dca81614598565b92915050565b600082601f830112612de557612de4614271565b5b8135612df5848260208601612bb4565b91505092915050565b600082601f830112612e1357612e12614271565b5b8135612e23848260208601612c24565b91505092915050565b600082601f830112612e4157612e40614271565b5b8135612e51848260208601612c94565b91505092915050565b600081359050612e69816145af565b92915050565b600082601f830112612e8457612e83614271565b5b8135612e94848260208601612d22565b91505092915050565b600082601f830112612eb257612eb1614271565b5b8151612ec2848260208601612d64565b91505092915050565b600060808284031215612ee157612ee0614276565b5b612eeb6080613d5c565b90506000612efb84828501612e5a565b6000830152506020612f0f84828501612e5a565b602083015250604082013567ffffffffffffffff811115612f3357612f3261427b565b5b612f3f84828501612dfe565b6040830152506060612f5384828501613023565b60608301525092915050565b600060a08284031215612f7557612f74614276565b5b612f7f60a0613d5c565b90506000612f8f84828501612da6565b6000830152506020612fa384828501612da6565b602083015250604082013567ffffffffffffffff811115612fc757612fc661427b565b5b612fd384828501612e6f565b604083015250606082013567ffffffffffffffff811115612ff757612ff661427b565b5b61300384828501612e2c565b606083015250608061301784828501613023565b60808301525092915050565b600081359050613032816145c6565b92915050565b60006020828403121561304e5761304d61428f565b5b600061305c84828501612da6565b91505092915050565b60006020828403121561307b5761307a61428f565b5b600061308984828501612dbb565b91505092915050565b600080604083850312156130a9576130a861428f565b5b60006130b785828601612da6565b92505060206130c885828601613023565b9150509250929050565b6000602082840312156130e8576130e761428f565b5b600082013567ffffffffffffffff8111156131065761310561428a565b5b61311284828501612dd0565b91505092915050565b600080600080608085870312156131355761313461428f565b5b600085013567ffffffffffffffff8111156131535761315261428a565b5b61315f87828801612dfe565b945050602061317087828801612e5a565b935050604061318187828801612e5a565b925050606085013567ffffffffffffffff8111156131a2576131a161428a565b5b6131ae87828801612f5f565b91505092959194509250565b6000602082840312156131d0576131cf61428f565b5b60006131de84828501612e5a565b91505092915050565b6000602082840312156131fd576131fc61428f565b5b600082013567ffffffffffffffff81111561321b5761321a61428a565b5b61322784828501612e6f565b91505092915050565b6000602082840312156132465761324561428f565b5b600082015167ffffffffffffffff8111156132645761326361428a565b5b61327084828501612e9d565b91505092915050565b60006020828403121561328f5761328e61428f565b5b600082013567ffffffffffffffff8111156132ad576132ac61428a565b5b6132b984828501612ecb565b91505092915050565b6000602082840312156132d8576132d761428f565b5b60006132e684828501613023565b91505092915050565b600080604083850312156133065761330561428f565b5b600061331485828601613023565b925050602061332585828601613023565b9150509250929050565b600061333b8383613373565b60208301905092915050565b60006133538383613530565b60208301905092915050565b600061336b8383613596565b905092915050565b61337c81613fa1565b82525050565b61338b81613fa1565b82525050565b6133a261339d82613fa1565b614168565b82525050565b6133b181613e80565b6133bb8184613ef7565b92506133c682613e36565b8060005b838110156133f75781516133de878261332f565b96506133e983613ec3565b9250506001810190506133ca565b505050505050565b600061340a82613e8c565b6134148185613f02565b935061341f83613e40565b8060005b83811015613450578151613437888261332f565b975061344283613ed0565b925050600181019050613423565b5085935050505092915050565b600061346882613e97565b6134728185613f13565b935061347d83613e50565b8060005b838110156134ae5781516134958882613347565b97506134a083613edd565b925050600181019050613481565b5085935050505092915050565b60006134c682613ea2565b6134d08185613f24565b9350836020820285016134e285613e60565b8060005b8581101561351e57848403895281516134ff858261335f565b945061350a83613eea565b925060208a019950506001810190506134e6565b50829750879550505050505092915050565b61353981613fb3565b82525050565b61354881613fb3565b82525050565b61355f61355a82613fbd565b61417a565b82525050565b600061357082613ead565b61357a8185613f35565b935061358a818560208601614089565b80840191505092915050565b60006135a182613eb8565b6135ab8185613f40565b93506135bb818560208601614089565b6135c481614294565b840191505092915050565b60006135da82613eb8565b6135e48185613f51565b93506135f4818560208601614089565b6135fd81614294565b840191505092915050565b600061361382613eb8565b61361d8185613f62565b935061362d818560208601614089565b80840191505092915050565b6000613646601983613f51565b9150613651826142bf565b602082019050919050565b6000613669601783613f51565b9150613674826142e8565b602082019050919050565b600061368c602683613f51565b915061369782614311565b604082019050919050565b60006136af601e83613f51565b91506136ba82614360565b602082019050919050565b60006136d2601c83613f51565b91506136dd82614389565b602082019050919050565b60006136f5602083613f51565b9150613700826143b2565b602082019050919050565b6000613718602c83613f51565b9150613723826143db565b604082019050919050565b600061373b601983613f51565b91506137468261442a565b602082019050919050565b600061375e601983613f51565b915061376982614453565b602082019050919050565b6000613781601883613f51565b915061378c8261447c565b602082019050919050565b60006137a4602283613f51565b91506137af826144a5565b604082019050919050565b60006137c7602083613f51565b91506137d2826144f4565b602082019050919050565b60006137ea601183613f51565b91506137f58261451d565b602082019050919050565b600061380d602083613f51565b915061381882614546565b602082019050919050565b6000613830600d83613f51565b915061383b8261456f565b602082019050919050565b600060808301600083015161385e6000860182613530565b5060208301516138716020860182613530565b5060408301518482036040860152613889828261345d565b915050606083015161389e6060860182613926565b508091505092915050565b600060a0830160008301516138c16000860182613373565b5060208301516138d46020860182613373565b50604083015184820360408601526138ec8282613596565b9150506060830151848203606086015261390682826134bb565b915050608083015161391b6080860182613926565b508091505092915050565b61392f81614009565b82525050565b61393e81614009565b82525050565b61395561395082614009565b614196565b82525050565b60006139678288613391565b6014820191506139778287613391565b6014820191506139878286613608565b91506139938285613565565b915061399f8284613944565b6020820191508190509695505050505050565b60006139be828461354e565b60098201915081905092915050565b60006139d98284613565565b915081905092915050565b60006139f08285613565565b91506139fc8284613565565b91508190509392505050565b6000613a148284613608565b915081905092915050565b6000602082019050613a346000830184613382565b92915050565b6000608082019050613a4f6000830187613382565b613a5c6020830186613382565b8181036040830152613a6e81856135cf565b9050613a7d6060830184613935565b95945050505050565b6000617d0082019050613a9c60008301846133a8565b92915050565b60006020820190508181036000830152613abc81846133ff565b905092915050565b6000606082019050613ad9600083018661353f565b613ae6602083018561353f565b613af36040830184613935565b949350505050565b60006020820190508181036000830152613b1581846135cf565b905092915050565b60006020820190508181036000830152613b3681613639565b9050919050565b60006020820190508181036000830152613b568161365c565b9050919050565b60006020820190508181036000830152613b768161367f565b9050919050565b60006020820190508181036000830152613b96816136a2565b9050919050565b60006020820190508181036000830152613bb6816136c5565b9050919050565b60006020820190508181036000830152613bd6816136e8565b9050919050565b60006020820190508181036000830152613bf68161370b565b9050919050565b60006020820190508181036000830152613c168161372e565b9050919050565b60006020820190508181036000830152613c3681613751565b9050919050565b60006020820190508181036000830152613c5681613774565b9050919050565b60006020820190508181036000830152613c7681613797565b9050919050565b60006020820190508181036000830152613c96816137ba565b9050919050565b60006020820190508181036000830152613cb6816137dd565b9050919050565b60006020820190508181036000830152613cd681613800565b9050919050565b60006020820190508181036000830152613cf681613823565b9050919050565b60006020820190508181036000830152613d178184613846565b905092915050565b60006020820190508181036000830152613d3981846138a9565b905092915050565b6000602082019050613d566000830184613935565b92915050565b6000613d66613d77565b9050613d7282826140ee565b919050565b6000604051905090565b600067ffffffffffffffff821115613d9c57613d9b61422d565b5b602082029050602081019050919050565b600067ffffffffffffffff821115613dc857613dc761422d565b5b602082029050602081019050919050565b600067ffffffffffffffff821115613df457613df361422d565b5b602082029050602081019050919050565b600067ffffffffffffffff821115613e2057613e1f61422d565b5b613e2982614294565b9050602081019050919050565b6000819050919050565b6000819050602082019050919050565b6000819050602082019050919050565b6000819050602082019050919050565b6000819050602082019050919050565b60006103e89050919050565b600081519050919050565b600081519050919050565b600081519050919050565b600081519050919050565b600081519050919050565b6000602082019050919050565b6000602082019050919050565b6000602082019050919050565b6000602082019050919050565b600081905092915050565b600082825260208201905092915050565b600082825260208201905092915050565b600082825260208201905092915050565b600081905092915050565b600082825260208201905092915050565b600082825260208201905092915050565b600081905092915050565b6000613f7882614009565b9150613f8383614009565b925082821015613f9657613f956141a0565b5b828203905092915050565b6000613fac82613fe9565b9050919050565b6000819050919050565b60007fffffffffffffffffff000000000000000000000000000000000000000000000082169050919050565b600073ffffffffffffffffffffffffffffffffffffffff82169050919050565b6000819050919050565b600061401e82613ead565b8261402884613e70565b90506140338161425c565b925060098210156140735761406e7fffffffffffffffffff0000000000000000000000000000000000000000000000836009036008026142b2565b831692505b5050919050565b82818337600083830152505050565b60005b838110156140a757808201518184015260208101905061408c565b838111156140b6576000848401525b50505050565b600060028204905060018216806140d457607f821691505b602082108114156140e8576140e76141cf565b5b50919050565b6140f782614294565b810181811067ffffffffffffffff821117156141165761411561422d565b5b80604052505050565b600061412a82614009565b91507fffffffffffffffffffffffffffffffffffffffffffffffffffffffffffffffff82141561415d5761415c6141a0565b5b600182019050919050565b600061417382614184565b9050919050565b6000819050919050565b600061418f826142a5565b9050919050565b6000819050919050565b7f4e487b7100000000000000000000000000000000000000000000000000000000600052601160045260246000fd5b7f4e487b7100000000000000000000000000000000000000000000000000000000600052602260045260246000fd5b7f4e487b7100000000000000000000000000000000000000000000000000000000600052603260045260246000fd5b7f4e487b7100000000000000000000000000000000000000000000000000000000600052604160045260246000fd5b60006142688251613fbd565b80915050919050565b600080fd5b600080fd5b600080fd5b600080fd5b600080fd5b600080fd5b600080fd5b6000601f19601f8301169050919050565b60008160601b9050919050565b600082821b905092915050565b7f4e46542077617320616c72656164792076657269666965642e00000000000000600082015250565b7f496e76616c6964206e667420726f6f7420676976656e2e000000000000000000600082015250565b7f4f776e61626c653a206e6577206f776e657220697320746865207a65726f206160008201527f6464726573730000000000000000000000000000000000000000000000000000602082015250565b7f496e76616c6964205f626c6f636b20696e697469616c697a6174696f6e2e0000600082015250565b7f496e636f72726563742070726566697820696e205f6261736555524900000000600082015250565b7f476976656e205f6c65616620646f6573206e6f74206d61746368205f6e66742e600082015250565b7f4e465420636f6e747261637420616c726561647920726571756573746564207660008201527f6572696669636174696f6e2e0000000000000000000000000000000000000000602082015250565b7f496e636f7272656374205f62617365555249206c656e67746800000000000000600082015250565b7f53656e646572206d757374206265206120636f6e747261637400000000000000600082015250565b7f436f6e74726163742069736e27742076657269666965642e0000000000000000600082015250565b7f42617365205552492068617320616c7265616479206265656e20636c61696d6560008201527f642e000000000000000000000000000000000000000000000000000000000000602082015250565b7f4f776e61626c653a2063616c6c6572206973206e6f7420746865206f776e6572600082015250565b7f496e76616c69642052657175657374202e000000000000000000000000000000600082015250565b7f496e76616c696420626c6f636b2068656967687420666f72207375625552492e600082015250565b7f496e76616c69642050726f6f6600000000000000000000000000000000000000600082015250565b6145a181613fa1565b81146145ac57600080fd5b50565b6145b881613fb3565b81146145c357600080fd5b50565b6145cf81614009565b81146145da57600080fd5b5056fea2646970667358221220a37304891b3e37d49e8f83496f237e688474d73624e935e9c0b0925f8718e1ea64736f6c63430008050033",
  "immutableReferences": {},
  "source": "// SPDX-License-Identifier: BUSL-1.1\npragma solidity ^0.8.5;\n\nimport \"@openzeppelin/contracts/access/Ownable.sol\";\n\nimport \"@openzeppelin/contracts/utils/cryptography/MerkleProof.sol\";\n\nimport \"./RatioSingleNFT.sol\";\n\nimport \"@openzeppelin/contracts/utils/Address.sol\";\n\n// Contract to verify nft contracts.\ncontract NFTProtocol is Ownable {\n\n    // Minimum amount to be paid for verificaiton/hosting.\n    uint public minimumRequestValue;\n\n    // Mapping to determine valid NFTs of contract.\n    mapping(address => nftStruct) contractNFT;\n\n    // Mapping to determine contract of a baseURI;\n    mapping(string => address) public baseURIContract;\n\n    // Mapping to determine contract of a subURI;\n    mapping(string => address) public subURIContract;\n\n    // Mapping to determine all contracts verified at one time to a distributor. \n    // WARNING! array may contain contracts containing subURIs not distributed by distributor. \n    // contractNFT will determine if the distributor is the rightful distributor of the NFT!\n    mapping(address => address[]) public distributorContracts; \n\n    // Array to hold all nfts contracts verified at one time.\n    // WARNING! array may contain contracts no longer verified.\n    address[] public nftContracts;\n\n    // mapping to hold contracts that have requested verification.\n    mapping(address => bool) nftRequest;\n\n    // Mapping to hold nft leafs that have been verified.\n    mapping(bytes32 => bool) nftVerified;\n\n    // Structure to hold NFT data.\n    struct nftStruct{\n        address _contract;\n        address _distributor;\n        string _baseURI;\n        string[] _subURIs;\n        uint _block;\n    }\n\n    // Structure to hold nftBlock variables.\n    struct nftBlock{\n        bytes32 _prev;\n        bytes32 _root;\n        bytes32[] _leaves;\n        uint _block;\n    }\n\n    // NFT blockchain...\n    nftBlock[] public nftBlocks;\n\n    // Mapping of block roots to blocks.\n    mapping(bytes32 => nftBlock) public blockMap;\n\n    // Event emitted when a new nft block is submitted.\n    event blockSubmited(nftBlock _block);\n\n    // Event emitted when a verification request is submitted.\n    event verificationRequest(address _contract, address _distributor, string _baseURI, uint _block);\n\n    // Event emitted when an nft has been verifed!\n    event verified(nftStruct _nft);\n\n    // Event emitted when nfts have been slashed.\n    event slashed(address[] _contracts);\n\n    // Constructor\n    constructor(uint _minimumRequestValue){\n        minimumRequestValue = _minimumRequestValue;\n        nftBlock memory n = nftBlock(bytes32(0), bytes32(0) , new bytes32[](0), block.number);\n        nftBlocks.push(n);\n    }\n    \n    // Function to requets verificaition of NFT \n    function requestVerification() public payable{\n\n        // Creating RatioSingleNFT contract from requester.\n        RatioSingleNFT ratioNFT = RatioSingleNFT(msg.sender);\n\n        // Contract specification conditions.\n        require(msg.value >= minimumRequestValue, \"Invalid Request .\");\n\n        require(Address.isContract(msg.sender), \"Sender must be a contract\");\n        \n        require(nftRequest[msg.sender] == false, \"NFT contract already requested verification.\");\n\n        require(baseURIContract[ratioNFT.baseURI()] == address(0), \"Base URI has already been claimed.\");\n\n        require(bytes(ratioNFT.baseURI()).length == 53, \"Incorrect _baseURI length\");\n\n        require(uriPrefix(ratioNFT.baseURI()), \"Incorrect prefix in _baseURI\");\n\n        nftRequest[msg.sender] = true;\n\n        // Emit verificationRequest event for Oracle.\n        emit verificationRequest(msg.sender, ratioNFT.distributor() , ratioNFT.baseURI(), block.number);\n    }\n\n    // Function to verify a nft of behalf of Ratio Labs.\n    function verifyNFT(bytes32[] memory _proof, bytes32 _root, bytes32 _leaf, nftStruct memory _nft) public{\n        // require the _root to exist.\n        require(blockMap[_root]._block != 0, \"Invalid nft root given.\");\n\n        // calculate sub URI encoding.\n        bytes memory encoded;\n        for (uint i = 0; i < _nft._subURIs.length; i++) {\n            encoded = bytes.concat(\n                encoded,\n                abi.encodePacked(_nft._subURIs[i])\n            );\n        }\n\n        // require _leaf hash to match _nft hash.\n        require(_leaf == keccak256(abi.encodePacked(_nft._contract, _nft._distributor, _nft._baseURI, encoded, _nft._block)), \"Given _leaf does not match _nft.\");\n        // require _nft is not already verified.\n        require(!nftVerified[_leaf], \"NFT was already verified.\");\n        // require _nft is within _root .\n        require(MerkleProof.verify(_proof, _root, _leaf), \"Invalid Proof\");\n\n        // Verify and Store NFT info.\n        nftVerified[_leaf] = true;\n\n        // Set subURIs contract. \n        for(uint i = 0; i < _nft._subURIs.length; i++){\n            if(subURIContract[_nft._subURIs[i]] != address(0)){\n                require(contractNFT[subURIContract[_nft._subURIs[i]]]._block == 0 || \n                        contractNFT[subURIContract[_nft._subURIs[i]]]._block > _nft._block, \"Invalid block height for subURI.\");\n            }\n            subURIContract[_nft._subURIs[i]] = _nft._contract;\n        }\n\n        // Set contracts NFT;\n        contractNFT[_nft._contract] = _nft;\n\n        // Push nft contract address into nftContracts array.\n        nftContracts.push(_nft._contract);\n\n        // Push contract address into distributor distributorContracts.\n        distributorContracts[_nft._distributor].push(_nft._contract);\n\n        // Set baseURI contract.\n        baseURIContract[_nft._baseURI] = _nft._contract;  \n        \n        // Emit verified event.\n        emit verified(_nft);\n    }\n\n    // Function to submit nft blocks for verified NFTs.\n    function submitBlock(nftBlock memory _block) public onlyOwner{\n        require(_block._block == 0, \"Invalid _block initialization.\");\n        _block._block = block.number;\n        nftBlocks.push(_block);\n        blockMap[_block._root] = nftBlocks[nftBlocks.length-1];\n        emit blockSubmited(_block);\n    }\n\n    // Function to _slashNFTs via Oracle\n    function slashNFTs(address[] memory _contracts) public onlyOwner{\n        for(uint i = 0; i < _contracts.length; i++){\n            delete contractNFT[_contracts[i]];\n        }\n        emit slashed(_contracts);\n    }\n\n    // Function to slashNFT via public\n    function slashNFT(address _contract) public{\n        require(contractNFT[_contract]._contract != address(0), \"Contract isn't verified.\");\n        RatioSingleNFT rNFT = RatioSingleNFT(_contract);\n        nftStruct memory nStruct = contractNFT[_contract];\n        if(rNFT.distributor() != nStruct._distributor || !compareStrings(rNFT.baseURI(), nStruct._baseURI)){\n            delete contractNFT[_contract];\n        }\n    }\n\n    /**  \n    *** User Helper Functions\n    **/\n    \n    // Function to return latestBlock\n    function latestBlock() public view returns(nftBlock memory _block){\n        return nftBlocks[nftBlocks.length - 1];\n    }\n\n    function getContractNFT(address _contract) public view returns(nftStruct memory _nft){\n        return contractNFT[_contract];\n    }\n\n    function getBaseURIdistributor(string memory _baseURI) public view returns(address _distributor){\n        return contractNFT[baseURIContract[_baseURI]]._distributor;\n    }\n\n    function getSubURIbaseURI(string memory _subURI) public view returns(string memory _baseURI){\n        return contractNFT[subURIContract[_subURI]]._baseURI;\n    }\n\n    function getDistributorContracts(address _distributor) public view returns(address[] memory _contracts){\n        return distributorContracts[_distributor];\n    }\n\n    /**  \n    *** Contract Helper Functions\n    **/\n\n    function uriPrefix(string memory _baseURI) internal pure returns(bool){\n        return  keccak256( abi.encodePacked( bytes9( bytes(_baseURI) ) ) ) == keccak256( abi.encodePacked( bytes9(\"ipfs://Qm\") ) ) ;\n    }\n\n    function compareStrings(string memory _a, string memory _b) internal pure returns(bool){\n        return keccak256( abi.encodePacked( bytes(_a) ) )  == keccak256( abi.encodePacked( bytes(_b) ) );\n    }\n\n    /**  \n    *** Owner Helper Functions\n    **/\n\n    function getContracts(uint _start, uint _end) public view returns(address[1000] memory _contracts){\n        uint n = 0;\n        for(uint i = _start; i <= _end; i++)\n        {\n            _contracts[n] = nftContracts[i];\n            n++;\n        }\n    }\n\n    function modifyRequestValue(uint _val) public onlyOwner{\n        minimumRequestValue = _val;\n    }\n\n    function claim() public{\n        payable(owner()).transfer(address(this).balance);\n    }\n \n}",
  "sourcePath": "/home/stephenstb/Ratio/ratio/contracts/NFTProtocol/NFTProtocol.sol",
  "compiler": {
    "name": "solc",
    "version": "0.8.5+commit.a4f2e591.Emscripten.clang"
  },
  "schemaVersion": "3.3.3",
  "updatedAt": "2022-05-06T01:45:47.231Z",
  "devdoc": {
    "kind": "dev",
    "methods": {
      "owner()": {
        "details": "Returns the address of the current owner."
      },
      "renounceOwnership()": {
        "details": "Leaves the contract without owner. It will not be possible to call `onlyOwner` functions anymore. Can only be called by the current owner. NOTE: Renouncing ownership will leave the contract without an owner, thereby removing any functionality that is only available to the owner."
      },
      "transferOwnership(address)": {
        "details": "Transfers ownership of the contract to a new account (`newOwner`). Can only be called by the current owner."
      }
    },
    "version": 1
  },
  "userdoc": {
    "kind": "user",
    "methods": {
      "getContracts(uint256,uint256)": {
        "notice": "*** Owner Helper Functions*"
      },
      "latestBlock()": {
        "notice": "*** User Helper Functions*"
      }
    },
    "version": 1
  }
}