{
  "contractName": "NFTProtocol",
  "abi": [
    {
      "inputs": [
        {
          "internalType": "uint256",
          "name": "_minimumRequestValue",
          "type": "uint256"
        }
      ],
      "stateMutability": "nonpayable",
      "type": "constructor"
    },
    {
      "anonymous": false,
      "inputs": [
        {
          "indexed": true,
          "internalType": "address",
          "name": "previousOwner",
          "type": "address"
        },
        {
          "indexed": true,
          "internalType": "address",
          "name": "newOwner",
          "type": "address"
        }
      ],
      "name": "OwnershipTransferred",
      "type": "event"
    },
    {
      "anonymous": false,
      "inputs": [
        {
          "components": [
            {
              "internalType": "bytes32",
              "name": "_prev",
              "type": "bytes32"
            },
            {
              "internalType": "bytes32",
              "name": "_root",
              "type": "bytes32"
            },
            {
              "internalType": "bytes32[]",
              "name": "_leaves",
              "type": "bytes32[]"
            },
            {
              "internalType": "uint256",
              "name": "_block",
              "type": "uint256"
            }
          ],
          "indexed": false,
          "internalType": "struct NFTProtocol.nftBlock",
          "name": "_block",
          "type": "tuple"
        }
      ],
      "name": "blockSubmited",
      "type": "event"
    },
    {
      "anonymous": false,
      "inputs": [
        {
          "indexed": false,
          "internalType": "address",
          "name": "_contract",
          "type": "address"
        },
        {
          "indexed": false,
          "internalType": "bool",
          "name": "_slashed",
          "type": "bool"
        }
      ],
      "name": "slash",
      "type": "event"
    },
    {
      "anonymous": false,
      "inputs": [
        {
          "indexed": false,
          "internalType": "address[]",
          "name": "_contracts",
          "type": "address[]"
        }
      ],
      "name": "slashed",
      "type": "event"
    },
    {
      "anonymous": false,
      "inputs": [
        {
          "indexed": false,
          "internalType": "address",
          "name": "_contract",
          "type": "address"
        },
        {
          "indexed": false,
          "internalType": "address",
          "name": "_distributor",
          "type": "address"
        },
        {
          "indexed": false,
          "internalType": "string",
          "name": "_baseURI",
          "type": "string"
        },
        {
          "indexed": false,
          "internalType": "uint256",
          "name": "_block",
          "type": "uint256"
        }
      ],
      "name": "verificationRequest",
      "type": "event"
    },
    {
      "anonymous": false,
      "inputs": [
        {
          "components": [
            {
              "internalType": "address",
              "name": "_contract",
              "type": "address"
            },
            {
              "internalType": "address",
              "name": "_distributor",
              "type": "address"
            },
            {
              "internalType": "string",
              "name": "_baseURI",
              "type": "string"
            },
            {
              "internalType": "string[]",
              "name": "_subURIs",
              "type": "string[]"
            },
            {
              "internalType": "uint256",
              "name": "_block",
              "type": "uint256"
            }
          ],
          "indexed": false,
          "internalType": "struct NFTProtocol.nftStruct",
          "name": "_nft",
          "type": "tuple"
        }
      ],
      "name": "verified",
      "type": "event"
    },
    {
      "inputs": [
        {
          "internalType": "string",
          "name": "",
          "type": "string"
        }
      ],
      "name": "baseURIContract",
      "outputs": [
        {
          "internalType": "address",
          "name": "",
          "type": "address"
        }
      ],
      "stateMutability": "view",
      "type": "function"
    },
    {
      "inputs": [
        {
          "internalType": "bytes32",
          "name": "",
          "type": "bytes32"
        }
      ],
      "name": "blockMap",
      "outputs": [
        {
          "internalType": "bytes32",
          "name": "_prev",
          "type": "bytes32"
        },
        {
          "internalType": "bytes32",
          "name": "_root",
          "type": "bytes32"
        },
        {
          "internalType": "uint256",
          "name": "_block",
          "type": "uint256"
        }
      ],
      "stateMutability": "view",
      "type": "function"
    },
    {
      "inputs": [
        {
          "internalType": "address",
          "name": "",
          "type": "address"
        },
        {
          "internalType": "uint256",
          "name": "",
          "type": "uint256"
        }
      ],
      "name": "distributorContracts",
      "outputs": [
        {
          "internalType": "address",
          "name": "",
          "type": "address"
        }
      ],
      "stateMutability": "view",
      "type": "function"
    },
    {
      "inputs": [],
      "name": "minimumRequestValue",
      "outputs": [
        {
          "internalType": "uint256",
          "name": "",
          "type": "uint256"
        }
      ],
      "stateMutability": "view",
      "type": "function"
    },
    {
      "inputs": [
        {
          "internalType": "uint256",
          "name": "",
          "type": "uint256"
        }
      ],
      "name": "nftBlocks",
      "outputs": [
        {
          "internalType": "bytes32",
          "name": "_prev",
          "type": "bytes32"
        },
        {
          "internalType": "bytes32",
          "name": "_root",
          "type": "bytes32"
        },
        {
          "internalType": "uint256",
          "name": "_block",
          "type": "uint256"
        }
      ],
      "stateMutability": "view",
      "type": "function"
    },
    {
      "inputs": [
        {
          "internalType": "uint256",
          "name": "",
          "type": "uint256"
        }
      ],
      "name": "nftContracts",
      "outputs": [
        {
          "internalType": "address",
          "name": "",
          "type": "address"
        }
      ],
      "stateMutability": "view",
      "type": "function"
    },
    {
      "inputs": [
        {
          "internalType": "address",
          "name": "",
          "type": "address"
        }
      ],
      "name": "nftSlashed",
      "outputs": [
        {
          "internalType": "bool",
          "name": "",
          "type": "bool"
        }
      ],
      "stateMutability": "view",
      "type": "function"
    },
    {
      "inputs": [],
      "name": "owner",
      "outputs": [
        {
          "internalType": "address",
          "name": "",
          "type": "address"
        }
      ],
      "stateMutability": "view",
      "type": "function"
    },
    {
      "inputs": [],
      "name": "renounceOwnership",
      "outputs": [],
      "stateMutability": "nonpayable",
      "type": "function"
    },
    {
      "inputs": [
        {
          "internalType": "string",
          "name": "",
          "type": "string"
        }
      ],
      "name": "subURIContract",
      "outputs": [
        {
          "internalType": "address",
          "name": "",
          "type": "address"
        }
      ],
      "stateMutability": "view",
      "type": "function"
    },
    {
      "inputs": [
        {
          "internalType": "address",
          "name": "newOwner",
          "type": "address"
        }
      ],
      "name": "transferOwnership",
      "outputs": [],
      "stateMutability": "nonpayable",
      "type": "function"
    },
    {
      "inputs": [],
      "name": "requestVerification",
      "outputs": [],
      "stateMutability": "payable",
      "type": "function"
    },
    {
      "inputs": [
        {
          "internalType": "bytes32[]",
          "name": "_proof",
          "type": "bytes32[]"
        },
        {
          "internalType": "bytes32",
          "name": "_root",
          "type": "bytes32"
        },
        {
          "internalType": "bytes32",
          "name": "_leaf",
          "type": "bytes32"
        },
        {
          "components": [
            {
              "internalType": "address",
              "name": "_contract",
              "type": "address"
            },
            {
              "internalType": "address",
              "name": "_distributor",
              "type": "address"
            },
            {
              "internalType": "string",
              "name": "_baseURI",
              "type": "string"
            },
            {
              "internalType": "string[]",
              "name": "_subURIs",
              "type": "string[]"
            },
            {
              "internalType": "uint256",
              "name": "_block",
              "type": "uint256"
            }
          ],
          "internalType": "struct NFTProtocol.nftStruct",
          "name": "_nft",
          "type": "tuple"
        }
      ],
      "name": "verifyNFT",
      "outputs": [],
      "stateMutability": "nonpayable",
      "type": "function"
    },
    {
      "inputs": [
        {
          "components": [
            {
              "internalType": "bytes32",
              "name": "_prev",
              "type": "bytes32"
            },
            {
              "internalType": "bytes32",
              "name": "_root",
              "type": "bytes32"
            },
            {
              "internalType": "bytes32[]",
              "name": "_leaves",
              "type": "bytes32[]"
            },
            {
              "internalType": "uint256",
              "name": "_block",
              "type": "uint256"
            }
          ],
          "internalType": "struct NFTProtocol.nftBlock",
          "name": "_block",
          "type": "tuple"
        }
      ],
      "name": "submitBlock",
      "outputs": [],
      "stateMutability": "nonpayable",
      "type": "function"
    },
    {
      "inputs": [
        {
          "internalType": "address[]",
          "name": "_contracts",
          "type": "address[]"
        }
      ],
      "name": "slashNFTs",
      "outputs": [],
      "stateMutability": "nonpayable",
      "type": "function"
    },
    {
      "inputs": [
        {
          "internalType": "address",
          "name": "_contract",
          "type": "address"
        }
      ],
      "name": "slashNFT",
      "outputs": [],
      "stateMutability": "nonpayable",
      "type": "function"
    },
    {
      "inputs": [],
      "name": "latestBlock",
      "outputs": [
        {
          "components": [
            {
              "internalType": "bytes32",
              "name": "_prev",
              "type": "bytes32"
            },
            {
              "internalType": "bytes32",
              "name": "_root",
              "type": "bytes32"
            },
            {
              "internalType": "bytes32[]",
              "name": "_leaves",
              "type": "bytes32[]"
            },
            {
              "internalType": "uint256",
              "name": "_block",
              "type": "uint256"
            }
          ],
          "internalType": "struct NFTProtocol.nftBlock",
          "name": "_block",
          "type": "tuple"
        }
      ],
      "stateMutability": "view",
      "type": "function"
    },
    {
      "inputs": [
        {
          "internalType": "address",
          "name": "_contract",
          "type": "address"
        }
      ],
      "name": "getContractNFT",
      "outputs": [
        {
          "components": [
            {
              "internalType": "address",
              "name": "_contract",
              "type": "address"
            },
            {
              "internalType": "address",
              "name": "_distributor",
              "type": "address"
            },
            {
              "internalType": "string",
              "name": "_baseURI",
              "type": "string"
            },
            {
              "internalType": "string[]",
              "name": "_subURIs",
              "type": "string[]"
            },
            {
              "internalType": "uint256",
              "name": "_block",
              "type": "uint256"
            }
          ],
          "internalType": "struct NFTProtocol.nftStruct",
          "name": "_nft",
          "type": "tuple"
        }
      ],
      "stateMutability": "view",
      "type": "function"
    },
    {
      "inputs": [
        {
          "internalType": "string",
          "name": "_baseURI",
          "type": "string"
        }
      ],
      "name": "getBaseURIdistributor",
      "outputs": [
        {
          "internalType": "address",
          "name": "_distributor",
          "type": "address"
        }
      ],
      "stateMutability": "view",
      "type": "function"
    },
    {
      "inputs": [
        {
          "internalType": "string",
          "name": "_subURI",
          "type": "string"
        }
      ],
      "name": "getSubURIbaseURI",
      "outputs": [
        {
          "internalType": "string",
          "name": "_baseURI",
          "type": "string"
        }
      ],
      "stateMutability": "view",
      "type": "function"
    },
    {
      "inputs": [
        {
          "internalType": "address",
          "name": "_distributor",
          "type": "address"
        }
      ],
      "name": "getDistributorContracts",
      "outputs": [
        {
          "internalType": "address[]",
          "name": "_contracts",
          "type": "address[]"
        }
      ],
      "stateMutability": "view",
      "type": "function"
    },
    {
      "inputs": [
        {
          "internalType": "uint256",
          "name": "_start",
          "type": "uint256"
        },
        {
          "internalType": "uint256",
          "name": "_end",
          "type": "uint256"
        }
      ],
      "name": "getContracts",
      "outputs": [
        {
          "internalType": "address[1000]",
          "name": "_contracts",
          "type": "address[1000]"
        }
      ],
      "stateMutability": "view",
      "type": "function"
    },
    {
      "inputs": [
        {
          "internalType": "uint256",
          "name": "_val",
          "type": "uint256"
        }
      ],
      "name": "modifyRequestValue",
      "outputs": [],
      "stateMutability": "nonpayable",
      "type": "function"
    },
    {
      "inputs": [],
      "name": "claim",
      "outputs": [],
      "stateMutability": "nonpayable",
      "type": "function"
    }
  ],
  "bytecode": "0x60806040523480156200001157600080fd5b506040516200505d3803806200505d83398181016040528101906200003791906200029d565b620000576200004b6200014960201b60201c565b6200015160201b60201c565b80600181905550600060405180608001604052806000801b81526020016000801b8152602001600067ffffffffffffffff8111156200009b576200009a620002d9565b5b604051908082528060200260200182016040528015620000ca5781602001602082028036833780820191505090505b508152602001438152509050600a819080600181540180825580915050600190039060005260206000209060040201600090919091909150600082015181600001556020820151816001015560408201518160020190805190602001906200013492919062000215565b50606082015181600301555050505062000327565b600033905090565b60008060009054906101000a900473ffffffffffffffffffffffffffffffffffffffff169050816000806101000a81548173ffffffffffffffffffffffffffffffffffffffff021916908373ffffffffffffffffffffffffffffffffffffffff1602179055508173ffffffffffffffffffffffffffffffffffffffff168173ffffffffffffffffffffffffffffffffffffffff167f8be0079c531659141344cd1fd0a4f28419497f9722a3daafe3b4186f6b6457e060405160405180910390a35050565b82805482825590600052602060002090810192821562000254579160200282015b828111156200025357825182559160200191906001019062000236565b5b50905062000263919062000267565b5090565b5b808211156200028257600081600090555060010162000268565b5090565b60008151905062000297816200030d565b92915050565b600060208284031215620002b657620002b562000308565b5b6000620002c68482850162000286565b91505092915050565b6000819050919050565b7f4e487b7100000000000000000000000000000000000000000000000000000000600052604160045260246000fd5b600080fd5b6200031881620002cf565b81146200032457600080fd5b50565b614d2680620003376000396000f3fe60806040526004361061014b5760003560e01c8063715018a6116100b6578063bee03c7a1161006f578063bee03c7a146104ab578063c0f1f873146104d6578063c492560f14610513578063eaac1d1a14610550578063eddebe621461058d578063f2fde38b146105b65761014b565b8063715018a61461039d57806387b21153146103b45780638da5cb5b146103f157806395e1487d1461041c578063a6b8123c14610445578063b5555aba146104825761014b565b806339e9d0611161010857806339e9d06114610279578063490a3fb8146102a25780634e71d92d146102e1578063539975de146102f857806356080c0d146103375780636f1b31f0146103605761014b565b8063012a3bd31461015057806307e2da961461018d57806307ec3039146101b85780630bb4d82a146101c25780630f3f77c2146101ff57806320c430751461023c575b600080fd5b34801561015c57600080fd5b5061017760048036038101906101729190613911565b6105df565b6040516101849190614103565b60405180910390f35b34801561019957600080fd5b506101a26106a8565b6040516101af91906143b5565b60405180910390f35b6101c0610769565b005b3480156101ce57600080fd5b506101e960048036038101906101e491906138e4565b610ce4565b6040516101f69190614073565b60405180910390f35b34801561020b57600080fd5b506102266004803603810190610221919061365a565b610d23565b6040516102339190614141565b60405180910390f35b34801561024857600080fd5b50610263600480360381019061025e91906136b4565b610d43565b6040516102709190614073565b60405180910390f35b34801561028557600080fd5b506102a0600480360381019061029b91906138e4565b610d91565b005b3480156102ae57600080fd5b506102c960048036038101906102c491906138e4565b610e17565b6040516102d89392919061415c565b60405180910390f35b3480156102ed57600080fd5b506102f6610e51565b005b34801561030457600080fd5b5061031f600480360381019061031a91906137dc565b610ea1565b60405161032e9392919061415c565b60405180910390f35b34801561034357600080fd5b5061035e6004803603810190610359919061373d565b610ecb565b005b34801561036c57600080fd5b506103876004803603810190610382919061365a565b611720565b60405161039491906143d7565b60405180910390f35b3480156103a957600080fd5b506103b261199a565b005b3480156103c057600080fd5b506103db60048036038101906103d69190613809565b611a22565b6040516103e89190614073565b60405180910390f35b3480156103fd57600080fd5b50610406611a6b565b6040516104139190614073565b60405180910390f35b34801561042857600080fd5b50610443600480360381019061043e91906136f4565b611a94565b005b34801561045157600080fd5b5061046c60048036038101906104679190613809565b611cae565b6040516104799190614073565b60405180910390f35b34801561048e57600080fd5b506104a960048036038101906104a4919061389b565b611d58565b005b3480156104b757600080fd5b506104c0611f4a565b6040516104cd91906143f9565b60405180910390f35b3480156104e257600080fd5b506104fd60048036038101906104f8919061365a565b611f50565b60405161050a919061411f565b60405180910390f35b34801561051f57600080fd5b5061053a60048036038101906105359190613809565b61201d565b6040516105479190614193565b60405180910390f35b34801561055c57600080fd5b5061057760048036038101906105729190613809565b61212f565b6040516105849190614073565b60405180910390f35b34801561059957600080fd5b506105b460048036038101906105af919061365a565b612178565b005b3480156105c257600080fd5b506105dd60048036038101906105d8919061365a565b612b81565b005b6105e7612ee5565b6000808490505b8381116106a05760068181548110610609576106086148c2565b5b9060005260206000200160009054906101000a900473ffffffffffffffffffffffffffffffffffffffff1683836103e88110610648576106476148c2565b5b602002019073ffffffffffffffffffffffffffffffffffffffff16908173ffffffffffffffffffffffffffffffffffffffff1681525050818061068a906147e3565b9250508080610698906147e3565b9150506105ee565b505092915050565b6106b0612f09565b600a6001600a805490506106c49190614625565b815481106106d5576106d46148c2565b5b906000526020600020906004020160405180608001604052908160008201548152602001600182015481526020016002820180548060200260200160405190810160405280929190818152602001828054801561075157602002820191906000526020600020905b81548152602001906001019080831161073d575b50505050508152602001600382015481525050905090565b60003390506001543410156107b3576040517f08c379a00000000000000000000000000000000000000000000000000000000081526004016107aa90614355565b60405180910390fd5b6107bc33612c79565b6107fb576040517f08c379a00000000000000000000000000000000000000000000000000000000081526004016107f2906142b5565b60405180910390fd5b60001515600760003373ffffffffffffffffffffffffffffffffffffffff1673ffffffffffffffffffffffffffffffffffffffff16815260200190815260200160002060009054906101000a900460ff1615151461088e576040517f08c379a000000000000000000000000000000000000000000000000000000000815260040161088590614275565b60405180910390fd5b600073ffffffffffffffffffffffffffffffffffffffff1660038273ffffffffffffffffffffffffffffffffffffffff16636c0360eb6040518163ffffffff1660e01b815260040160006040518083038186803b1580156108ee57600080fd5b505afa158015610902573d6000803e3d6000fd5b505050506040513d6000823e3d601f19601f8201168201806040525081019061092b9190613852565b604051610938919061405c565b908152602001604051809103902060009054906101000a900473ffffffffffffffffffffffffffffffffffffffff1673ffffffffffffffffffffffffffffffffffffffff16146109bd576040517f08c379a00000000000000000000000000000000000000000000000000000000081526004016109b4906142f5565b60405180910390fd5b60358173ffffffffffffffffffffffffffffffffffffffff16636c0360eb6040518163ffffffff1660e01b815260040160006040518083038186803b158015610a0557600080fd5b505afa158015610a19573d6000803e3d6000fd5b505050506040513d6000823e3d601f19601f82011682018060405250810190610a429190613852565b5114610a83576040517f08c379a0000000000000000000000000000000000000000000000000000000008152600401610a7a90614295565b60405180910390fd5b610b0e8173ffffffffffffffffffffffffffffffffffffffff16636c0360eb6040518163ffffffff1660e01b815260040160006040518083038186803b158015610acc57600080fd5b505afa158015610ae0573d6000803e3d6000fd5b505050506040513d6000823e3d601f19601f82011682018060405250810190610b099190613852565b612c9c565b610b4d576040517f08c379a0000000000000000000000000000000000000000000000000000000008152600401610b4490614235565b60405180910390fd5b6001600760003373ffffffffffffffffffffffffffffffffffffffff1673ffffffffffffffffffffffffffffffffffffffff16815260200190815260200160002060006101000a81548160ff0219169083151502179055507fb323e7348260c7e224c4076c9dc96a004d173b12b8672023d53d3e424eddfde9338273ffffffffffffffffffffffffffffffffffffffff1663bfe109286040518163ffffffff1660e01b815260040160206040518083038186803b158015610c0d57600080fd5b505afa158015610c21573d6000803e3d6000fd5b505050506040513d601f19601f82011682018060405250810190610c459190613687565b8373ffffffffffffffffffffffffffffffffffffffff16636c0360eb6040518163ffffffff1660e01b815260040160006040518083038186803b158015610c8b57600080fd5b505afa158015610c9f573d6000803e3d6000fd5b505050506040513d6000823e3d601f19601f82011682018060405250810190610cc89190613852565b43604051610cd9949392919061408e565b60405180910390a150565b60068181548110610cf457600080fd5b906000526020600020016000915054906101000a900473ffffffffffffffffffffffffffffffffffffffff1681565b60096020528060005260406000206000915054906101000a900460ff1681565b60056020528160005260406000208181548110610d5f57600080fd5b906000526020600020016000915091509054906101000a900473ffffffffffffffffffffffffffffffffffffffff1681565b610d99612d1d565b73ffffffffffffffffffffffffffffffffffffffff16610db7611a6b565b73ffffffffffffffffffffffffffffffffffffffff1614610e0d576040517f08c379a0000000000000000000000000000000000000000000000000000000008152600401610e0490614315565b60405180910390fd5b8060018190555050565b600a8181548110610e2757600080fd5b90600052602060002090600402016000915090508060000154908060010154908060030154905083565b610e59611a6b565b73ffffffffffffffffffffffffffffffffffffffff166108fc479081150290604051600060405180830381858888f19350505050158015610e9e573d6000803e3d6000fd5b50565b600b6020528060005260406000206000915090508060000154908060010154908060030154905083565b6000600b6000858152602001908152602001600020600301541415610f25576040517f08c379a0000000000000000000000000000000000000000000000000000000008152600401610f1c906141d5565b60405180910390fd5b60096000826000015173ffffffffffffffffffffffffffffffffffffffff1673ffffffffffffffffffffffffffffffffffffffff16815260200190815260200160002060009054906101000a900460ff1615610fb6576040517f08c379a0000000000000000000000000000000000000000000000000000000008152600401610fad90614335565b60405180910390fd5b606060005b82606001515181101561103c578183606001518281518110610fe057610fdf6148c2565b5b6020026020010151604051602001610ff8919061405c565b604051602081830303815290604052604051602001611018929190614038565b60405160208183030381529060405291508080611034906147e3565b915050610fbb565b50816000015182602001518360400151838560800151604051602001611066959493929190613faf565b6040516020818303038152906040528051906020012083146110bd576040517f08c379a00000000000000000000000000000000000000000000000000000000081526004016110b490614255565b60405180910390fd5b6008600084815260200190815260200160002060009054906101000a900460ff161561111e576040517f08c379a0000000000000000000000000000000000000000000000000000000008152600401611115906141b5565b60405180910390fd5b611129858585612d25565b611168576040517f08c379a000000000000000000000000000000000000000000000000000000000815260040161115f90614395565b60405180910390fd5b60016008600085815260200190815260200160002060006101000a81548160ff02191690831515021790555060005b82606001515181101561145457600073ffffffffffffffffffffffffffffffffffffffff166004846060015183815181106111d5576111d46148c2565b5b60200260200101516040516111ea919061405c565b908152602001604051809103902060009054906101000a900473ffffffffffffffffffffffffffffffffffffffff1673ffffffffffffffffffffffffffffffffffffffff16146113c257600060026000600486606001518581518110611253576112526148c2565b5b6020026020010151604051611268919061405c565b908152602001604051809103902060009054906101000a900473ffffffffffffffffffffffffffffffffffffffff1673ffffffffffffffffffffffffffffffffffffffff1673ffffffffffffffffffffffffffffffffffffffff16815260200190815260200160002060040154148061138257508260800151600260006004866060015185815181106112fe576112fd6148c2565b5b6020026020010151604051611313919061405c565b908152602001604051809103902060009054906101000a900473ffffffffffffffffffffffffffffffffffffffff1673ffffffffffffffffffffffffffffffffffffffff1673ffffffffffffffffffffffffffffffffffffffff16815260200190815260200160002060040154115b6113c1576040517f08c379a00000000000000000000000000000000000000000000000000000000081526004016113b890614375565b60405180910390fd5b5b82600001516004846060015183815181106113e0576113df6148c2565b5b60200260200101516040516113f5919061405c565b908152602001604051809103902060006101000a81548173ffffffffffffffffffffffffffffffffffffffff021916908373ffffffffffffffffffffffffffffffffffffffff160217905550808061144c906147e3565b915050611197565b508160026000846000015173ffffffffffffffffffffffffffffffffffffffff1673ffffffffffffffffffffffffffffffffffffffff16815260200190815260200160002060008201518160000160006101000a81548173ffffffffffffffffffffffffffffffffffffffff021916908373ffffffffffffffffffffffffffffffffffffffff16021790555060208201518160010160006101000a81548173ffffffffffffffffffffffffffffffffffffffff021916908373ffffffffffffffffffffffffffffffffffffffff1602179055506040820151816002019080519060200190611543929190612f37565b506060820151816003019080519060200190611560929190612fbd565b5060808201518160040155905050600682600001519080600181540180825580915050600190039060005260206000200160009091909190916101000a81548173ffffffffffffffffffffffffffffffffffffffff021916908373ffffffffffffffffffffffffffffffffffffffff16021790555060056000836020015173ffffffffffffffffffffffffffffffffffffffff1673ffffffffffffffffffffffffffffffffffffffff16815260200190815260200160002082600001519080600181540180825580915050600190039060005260206000200160009091909190916101000a81548173ffffffffffffffffffffffffffffffffffffffff021916908373ffffffffffffffffffffffffffffffffffffffff160217905550816000015160038360400151604051611696919061405c565b908152602001604051809103902060006101000a81548173ffffffffffffffffffffffffffffffffffffffff021916908373ffffffffffffffffffffffffffffffffffffffff1602179055507f5561a5c1fa7cc43b37c32cd6d1c219c152a96eef77b24203b49ccd6239a1e6248260405161171191906143d7565b60405180910390a15050505050565b61172861301d565b600260008373ffffffffffffffffffffffffffffffffffffffff1673ffffffffffffffffffffffffffffffffffffffff1681526020019081526020016000206040518060a00160405290816000820160009054906101000a900473ffffffffffffffffffffffffffffffffffffffff1673ffffffffffffffffffffffffffffffffffffffff1673ffffffffffffffffffffffffffffffffffffffff1681526020016001820160009054906101000a900473ffffffffffffffffffffffffffffffffffffffff1673ffffffffffffffffffffffffffffffffffffffff1673ffffffffffffffffffffffffffffffffffffffff16815260200160028201805461182e90614780565b80601f016020809104026020016040519081016040528092919081815260200182805461185a90614780565b80156118a75780601f1061187c576101008083540402835291602001916118a7565b820191906000526020600020905b81548152906001019060200180831161188a57829003601f168201915b5050505050815260200160038201805480602002602001604051908101604052809291908181526020016000905b828210156119815783829060005260206000200180546118f490614780565b80601f016020809104026020016040519081016040528092919081815260200182805461192090614780565b801561196d5780601f106119425761010080835404028352916020019161196d565b820191906000526020600020905b81548152906001019060200180831161195057829003601f168201915b5050505050815260200190600101906118d5565b5050505081526020016004820154815250509050919050565b6119a2612d1d565b73ffffffffffffffffffffffffffffffffffffffff166119c0611a6b565b73ffffffffffffffffffffffffffffffffffffffff1614611a16576040517f08c379a0000000000000000000000000000000000000000000000000000000008152600401611a0d90614315565b60405180910390fd5b611a206000612d3c565b565b6003818051602081018201805184825260208301602085012081835280955050505050506000915054906101000a900473ffffffffffffffffffffffffffffffffffffffff1681565b60008060009054906101000a900473ffffffffffffffffffffffffffffffffffffffff16905090565b611a9c612d1d565b73ffffffffffffffffffffffffffffffffffffffff16611aba611a6b565b73ffffffffffffffffffffffffffffffffffffffff1614611b10576040517f08c379a0000000000000000000000000000000000000000000000000000000008152600401611b0790614315565b60405180910390fd5b60005b8151811015611c735760026000838381518110611b3357611b326148c2565b5b602002602001015173ffffffffffffffffffffffffffffffffffffffff1673ffffffffffffffffffffffffffffffffffffffff168152602001908152602001600020600080820160006101000a81549073ffffffffffffffffffffffffffffffffffffffff02191690556001820160006101000a81549073ffffffffffffffffffffffffffffffffffffffff0219169055600282016000611bd49190613078565b600382016000611be491906130b8565b60048201600090555050600160096000848481518110611c0757611c066148c2565b5b602002602001015173ffffffffffffffffffffffffffffffffffffffff1673ffffffffffffffffffffffffffffffffffffffff16815260200190815260200160002060006101000a81548160ff0219169083151502179055508080611c6b906147e3565b915050611b13565b507fba539ddaf32810453d74c00979a5b195cabeec6d1dd6ec2ba2ea6c5be40fe2c381604051611ca3919061411f565b60405180910390a150565b600060026000600384604051611cc4919061405c565b908152602001604051809103902060009054906101000a900473ffffffffffffffffffffffffffffffffffffffff1673ffffffffffffffffffffffffffffffffffffffff1673ffffffffffffffffffffffffffffffffffffffff16815260200190815260200160002060010160009054906101000a900473ffffffffffffffffffffffffffffffffffffffff169050919050565b611d60612d1d565b73ffffffffffffffffffffffffffffffffffffffff16611d7e611a6b565b73ffffffffffffffffffffffffffffffffffffffff1614611dd4576040517f08c379a0000000000000000000000000000000000000000000000000000000008152600401611dcb90614315565b60405180910390fd5b6000816060015114611e1b576040517f08c379a0000000000000000000000000000000000000000000000000000000008152600401611e1290614215565b60405180910390fd5b43816060018181525050600a81908060018154018082558091505060019003906000526020600020906004020160009091909190915060008201518160000155602082015181600101556040820151816002019080519060200190611e819291906130d9565b50606082015181600301555050600a6001600a80549050611ea29190614625565b81548110611eb357611eb26148c2565b5b9060005260206000209060040201600b60008360200151815260200190815260200160002060008201548160000155600182015481600101556002820181600201908054611f02929190613126565b50600382015481600301559050507f338c8da578445c5e2907713cfd371cd34bd90f5c862773caae569216670337d781604051611f3f91906143b5565b60405180910390a150565b60015481565b6060600560008373ffffffffffffffffffffffffffffffffffffffff1673ffffffffffffffffffffffffffffffffffffffff16815260200190815260200160002080548060200260200160405190810160405280929190818152602001828054801561201157602002820191906000526020600020905b8160009054906101000a900473ffffffffffffffffffffffffffffffffffffffff1673ffffffffffffffffffffffffffffffffffffffff1681526020019060010190808311611fc7575b50505050509050919050565b606060026000600484604051612033919061405c565b908152602001604051809103902060009054906101000a900473ffffffffffffffffffffffffffffffffffffffff1673ffffffffffffffffffffffffffffffffffffffff1673ffffffffffffffffffffffffffffffffffffffff16815260200190815260200160002060020180546120aa90614780565b80601f01602080910402602001604051908101604052809291908181526020018280546120d690614780565b80156121235780601f106120f857610100808354040283529160200191612123565b820191906000526020600020905b81548152906001019060200180831161210657829003601f168201915b50505050509050919050565b6004818051602081018201805184825260208301602085012081835280955050505050506000915054906101000a900473ffffffffffffffffffffffffffffffffffffffff1681565b600073ffffffffffffffffffffffffffffffffffffffff16600260008373ffffffffffffffffffffffffffffffffffffffff1673ffffffffffffffffffffffffffffffffffffffff16815260200190815260200160002060000160009054906101000a900473ffffffffffffffffffffffffffffffffffffffff1673ffffffffffffffffffffffffffffffffffffffff16141561224a576040517f08c379a0000000000000000000000000000000000000000000000000000000008152600401612241906142d5565b60405180910390fd5b60008190506000600260008473ffffffffffffffffffffffffffffffffffffffff1673ffffffffffffffffffffffffffffffffffffffff1681526020019081526020016000206040518060a00160405290816000820160009054906101000a900473ffffffffffffffffffffffffffffffffffffffff1673ffffffffffffffffffffffffffffffffffffffff1673ffffffffffffffffffffffffffffffffffffffff1681526020016001820160009054906101000a900473ffffffffffffffffffffffffffffffffffffffff1673ffffffffffffffffffffffffffffffffffffffff1673ffffffffffffffffffffffffffffffffffffffff16815260200160028201805461235790614780565b80601f016020809104026020016040519081016040528092919081815260200182805461238390614780565b80156123d05780601f106123a5576101008083540402835291602001916123d0565b820191906000526020600020905b8154815290600101906020018083116123b357829003601f168201915b5050505050815260200160038201805480602002602001604051908101604052809291908181526020016000905b828210156124aa57838290600052602060002001805461241d90614780565b80601f016020809104026020016040519081016040528092919081815260200182805461244990614780565b80156124965780601f1061246b57610100808354040283529160200191612496565b820191906000526020600020905b81548152906001019060200180831161247957829003601f168201915b5050505050815260200190600101906123fe565b5050505081526020016004820154815250509050806020015173ffffffffffffffffffffffffffffffffffffffff168273ffffffffffffffffffffffffffffffffffffffff1663bfe109286040518163ffffffff1660e01b815260040160206040518083038186803b15801561251f57600080fd5b505afa158015612533573d6000803e3d6000fd5b505050506040513d601f19601f820116820180604052508101906125579190613687565b73ffffffffffffffffffffffffffffffffffffffff1614158061260757506126058273ffffffffffffffffffffffffffffffffffffffff16636c0360eb6040518163ffffffff1660e01b815260040160006040518083038186803b1580156125be57600080fd5b505afa1580156125d2573d6000803e3d6000fd5b505050506040513d6000823e3d601f19601f820116820180604052508101906125fb9190613852565b8260400151612e00565b155b1561275d57600260008473ffffffffffffffffffffffffffffffffffffffff1673ffffffffffffffffffffffffffffffffffffffff168152602001908152602001600020600080820160006101000a81549073ffffffffffffffffffffffffffffffffffffffff02191690556001820160006101000a81549073ffffffffffffffffffffffffffffffffffffffff02191690556002820160006126aa9190613078565b6003820160006126ba91906130b8565b600482016000905550506001600960008573ffffffffffffffffffffffffffffffffffffffff1673ffffffffffffffffffffffffffffffffffffffff16815260200190815260200160002060006101000a81548160ff0219169083151502179055507fc83d337c31cfcd8cacc7348a17d617a3876d704791d0b41c7eb8ff2c526adfe183600160405161274e9291906140da565b60405180910390a15050612b7e565b600060405180608001604052808473ffffffffffffffffffffffffffffffffffffffff1663f3ccaac06040518163ffffffff1660e01b815260040160006040518083038186803b1580156127b057600080fd5b505afa1580156127c4573d6000803e3d6000fd5b505050506040513d6000823e3d601f19601f820116820180604052508101906127ed9190613852565b81526020018473ffffffffffffffffffffffffffffffffffffffff1663407d22366040518163ffffffff1660e01b815260040160006040518083038186803b15801561283857600080fd5b505afa15801561284c573d6000803e3d6000fd5b505050506040513d6000823e3d601f19601f820116820180604052508101906128759190613852565b81526020018473ffffffffffffffffffffffffffffffffffffffff166311b006176040518163ffffffff1660e01b815260040160006040518083038186803b1580156128c057600080fd5b505afa1580156128d4573d6000803e3d6000fd5b505050506040513d6000823e3d601f19601f820116820180604052508101906128fd9190613852565b81526020018473ffffffffffffffffffffffffffffffffffffffff16630ad9d0526040518163ffffffff1660e01b815260040160006040518083038186803b15801561294857600080fd5b505afa15801561295c573d6000803e3d6000fd5b505050506040513d6000823e3d601f19601f820116820180604052508101906129859190613852565b815250905060005b6004811015612b3f576129d58282600481106129ac576129ab6148c2565b5b6020020151846060015183815181106129c8576129c76148c2565b5b6020026020010151612e00565b612b2c57600260008673ffffffffffffffffffffffffffffffffffffffff1673ffffffffffffffffffffffffffffffffffffffff168152602001908152602001600020600080820160006101000a81549073ffffffffffffffffffffffffffffffffffffffff02191690556001820160006101000a81549073ffffffffffffffffffffffffffffffffffffffff0219169055600282016000612a779190613078565b600382016000612a8791906130b8565b600482016000905550506001600960008773ffffffffffffffffffffffffffffffffffffffff1673ffffffffffffffffffffffffffffffffffffffff16815260200190815260200160002060006101000a81548160ff0219169083151502179055507fc83d337c31cfcd8cacc7348a17d617a3876d704791d0b41c7eb8ff2c526adfe1856001604051612b1b9291906140da565b60405180910390a150505050612b7e565b8080612b37906147e3565b91505061298d565b507fc83d337c31cfcd8cacc7348a17d617a3876d704791d0b41c7eb8ff2c526adfe1846000604051612b729291906140da565b60405180910390a15050505b50565b612b89612d1d565b73ffffffffffffffffffffffffffffffffffffffff16612ba7611a6b565b73ffffffffffffffffffffffffffffffffffffffff1614612bfd576040517f08c379a0000000000000000000000000000000000000000000000000000000008152600401612bf490614315565b60405180910390fd5b600073ffffffffffffffffffffffffffffffffffffffff168173ffffffffffffffffffffffffffffffffffffffff161415612c6d576040517f08c379a0000000000000000000000000000000000000000000000000000000008152600401612c64906141f5565b60405180910390fd5b612c7681612d3c565b50565b6000808273ffffffffffffffffffffffffffffffffffffffff163b119050919050565b60007f697066733a2f2f516d0000000000000000000000000000000000000000000000604051602001612ccf9190614006565b6040516020818303038152906040528051906020012082612cef906146d7565b604051602001612cff9190614006565b60405160208183030381529060405280519060200120149050919050565b600033905090565b600082612d328584612e59565b1490509392505050565b60008060009054906101000a900473ffffffffffffffffffffffffffffffffffffffff169050816000806101000a81548173ffffffffffffffffffffffffffffffffffffffff021916908373ffffffffffffffffffffffffffffffffffffffff1602179055508173ffffffffffffffffffffffffffffffffffffffff168173ffffffffffffffffffffffffffffffffffffffff167f8be0079c531659141344cd1fd0a4f28419497f9722a3daafe3b4186f6b6457e060405160405180910390a35050565b600081604051602001612e139190614021565b6040516020818303038152906040528051906020012083604051602001612e3a9190614021565b6040516020818303038152906040528051906020012014905092915050565b60008082905060005b8451811015612ec3576000858281518110612e8057612e7f6148c2565b5b60200260200101519050808311612ea257612e9b8382612ece565b9250612eaf565b612eac8184612ece565b92505b508080612ebb906147e3565b915050612e62565b508091505092915050565b600082600052816020526040600020905092915050565b60405180617d0001604052806103e890602082028036833780820191505090505090565b6040518060800160405280600080191681526020016000801916815260200160608152602001600081525090565b828054612f4390614780565b90600052602060002090601f016020900481019282612f655760008555612fac565b82601f10612f7e57805160ff1916838001178555612fac565b82800160010185558215612fac579182015b82811115612fab578251825591602001919060010190612f90565b5b509050612fb99190613178565b5090565b82805482825590600052602060002090810192821561300c579160200282015b8281111561300b578251829080519060200190612ffb929190612f37565b5091602001919060010190612fdd565b5b5090506130199190613195565b5090565b6040518060a00160405280600073ffffffffffffffffffffffffffffffffffffffff168152602001600073ffffffffffffffffffffffffffffffffffffffff1681526020016060815260200160608152602001600081525090565b50805461308490614780565b6000825580601f1061309657506130b5565b601f0160209004906000526020600020908101906130b49190613178565b5b50565b50805460008255906000526020600020908101906130d69190613195565b50565b828054828255906000526020600020908101928215613115579160200282015b828111156131145782518255916020019190600101906130f9565b5b50905061312291906131b9565b5090565b8280548282559060005260206000209081019282156131675760005260206000209182015b8281111561316657825482559160010191906001019061314b565b5b50905061317491906131b9565b5090565b5b80821115613191576000816000905550600101613179565b5090565b5b808211156131b557600081816131ac9190613078565b50600101613196565b5090565b5b808211156131d25760008160009055506001016131ba565b5090565b60006131e96131e484614439565b614414565b9050808382526020820190508285602086028201111561320c5761320b614944565b5b60005b8581101561323c578161322288826133c8565b84526020840193506020830192505060018101905061320f565b5050509392505050565b600061325961325484614465565b614414565b9050808382526020820190508285602086028201111561327c5761327b614944565b5b60005b858110156132ac5781613292888261347c565b84526020840193506020830192505060018101905061327f565b5050509392505050565b60006132c96132c484614491565b614414565b905080838252602082019050828560208602820111156132ec576132eb614944565b5b60005b8581101561333a57813567ffffffffffffffff81111561331257613311614935565b5b80860161331f8982613491565b855260208501945060208401935050506001810190506132ef565b5050509392505050565b6000613357613352846144bd565b614414565b90508281526020810184848401111561337357613372614949565b5b61337e84828561473e565b509392505050565b6000613399613394846144bd565b614414565b9050828152602081018484840111156133b5576133b4614949565b5b6133c084828561474d565b509392505050565b6000813590506133d781614cab565b92915050565b6000815190506133ec81614cab565b92915050565b600082601f83011261340757613406614935565b5b81356134178482602086016131d6565b91505092915050565b600082601f83011261343557613434614935565b5b8135613445848260208601613246565b91505092915050565b600082601f83011261346357613462614935565b5b81356134738482602086016132b6565b91505092915050565b60008135905061348b81614cc2565b92915050565b600082601f8301126134a6576134a5614935565b5b81356134b6848260208601613344565b91505092915050565b600082601f8301126134d4576134d3614935565b5b81516134e4848260208601613386565b91505092915050565b6000608082840312156135035761350261493a565b5b61350d6080614414565b9050600061351d8482850161347c565b60008301525060206135318482850161347c565b602083015250604082013567ffffffffffffffff8111156135555761355461493f565b5b61356184828501613420565b604083015250606061357584828501613645565b60608301525092915050565b600060a082840312156135975761359661493a565b5b6135a160a0614414565b905060006135b1848285016133c8565b60008301525060206135c5848285016133c8565b602083015250604082013567ffffffffffffffff8111156135e9576135e861493f565b5b6135f584828501613491565b604083015250606082013567ffffffffffffffff8111156136195761361861493f565b5b6136258482850161344e565b606083015250608061363984828501613645565b60808301525092915050565b60008135905061365481614cd9565b92915050565b6000602082840312156136705761366f614953565b5b600061367e848285016133c8565b91505092915050565b60006020828403121561369d5761369c614953565b5b60006136ab848285016133dd565b91505092915050565b600080604083850312156136cb576136ca614953565b5b60006136d9858286016133c8565b92505060206136ea85828601613645565b9150509250929050565b60006020828403121561370a57613709614953565b5b600082013567ffffffffffffffff8111156137285761372761494e565b5b613734848285016133f2565b91505092915050565b6000806000806080858703121561375757613756614953565b5b600085013567ffffffffffffffff8111156137755761377461494e565b5b61378187828801613420565b94505060206137928782880161347c565b93505060406137a38782880161347c565b925050606085013567ffffffffffffffff8111156137c4576137c361494e565b5b6137d087828801613581565b91505092959194509250565b6000602082840312156137f2576137f1614953565b5b60006138008482850161347c565b91505092915050565b60006020828403121561381f5761381e614953565b5b600082013567ffffffffffffffff81111561383d5761383c61494e565b5b61384984828501613491565b91505092915050565b60006020828403121561386857613867614953565b5b600082015167ffffffffffffffff8111156138865761388561494e565b5b613892848285016134bf565b91505092915050565b6000602082840312156138b1576138b0614953565b5b600082013567ffffffffffffffff8111156138cf576138ce61494e565b5b6138db848285016134ed565b91505092915050565b6000602082840312156138fa576138f9614953565b5b600061390884828501613645565b91505092915050565b6000806040838503121561392857613927614953565b5b600061393685828601613645565b925050602061394785828601613645565b9150509250929050565b600061395d8383613995565b60208301905092915050565b60006139758383613b61565b60208301905092915050565b600061398d8383613bc7565b905092915050565b61399e81614659565b82525050565b6139ad81614659565b82525050565b6139c46139bf82614659565b61482c565b82525050565b6139d381614538565b6139dd81846145af565b92506139e8826144ee565b8060005b83811015613a19578151613a008782613951565b9650613a0b8361457b565b9250506001810190506139ec565b505050505050565b6000613a2c82614544565b613a3681856145ba565b9350613a41836144f8565b8060005b83811015613a72578151613a598882613951565b9750613a6483614588565b925050600181019050613a45565b5085935050505092915050565b6000613a8a8261454f565b613a9481856145cb565b9350613a9f83614508565b8060005b83811015613ad0578151613ab78882613969565b9750613ac283614595565b925050600181019050613aa3565b5085935050505092915050565b6000613ae88261455a565b613af281856145dc565b935083602082028501613b0485614518565b8060005b85811015613b405784840389528151613b218582613981565b9450613b2c836145a2565b925060208a01995050600181019050613b08565b50829750879550505050505092915050565b613b5b8161466b565b82525050565b613b6a81614677565b82525050565b613b7981614677565b82525050565b613b90613b8b82614681565b61483e565b82525050565b6000613ba182614565565b613bab81856145ed565b9350613bbb81856020860161474d565b80840191505092915050565b6000613bd282614570565b613bdc81856145f8565b9350613bec81856020860161474d565b613bf581614958565b840191505092915050565b6000613c0b82614570565b613c158185614609565b9350613c2581856020860161474d565b613c2e81614958565b840191505092915050565b6000613c4482614570565b613c4e818561461a565b9350613c5e81856020860161474d565b80840191505092915050565b6000613c77601983614609565b9150613c8282614983565b602082019050919050565b6000613c9a601783614609565b9150613ca5826149ac565b602082019050919050565b6000613cbd602683614609565b9150613cc8826149d5565b604082019050919050565b6000613ce0601e83614609565b9150613ceb82614a24565b602082019050919050565b6000613d03601c83614609565b9150613d0e82614a4d565b602082019050919050565b6000613d26602083614609565b9150613d3182614a76565b602082019050919050565b6000613d49602c83614609565b9150613d5482614a9f565b604082019050919050565b6000613d6c601983614609565b9150613d7782614aee565b602082019050919050565b6000613d8f601983614609565b9150613d9a82614b17565b602082019050919050565b6000613db2601883614609565b9150613dbd82614b40565b602082019050919050565b6000613dd5602283614609565b9150613de082614b69565b604082019050919050565b6000613df8602083614609565b9150613e0382614bb8565b602082019050919050565b6000613e1b602683614609565b9150613e2682614be1565b604082019050919050565b6000613e3e601183614609565b9150613e4982614c30565b602082019050919050565b6000613e61602083614609565b9150613e6c82614c59565b602082019050919050565b6000613e84600d83614609565b9150613e8f82614c82565b602082019050919050565b6000608083016000830151613eb26000860182613b61565b506020830151613ec56020860182613b61565b5060408301518482036040860152613edd8282613a7f565b9150506060830151613ef26060860182613f7a565b508091505092915050565b600060a083016000830151613f156000860182613995565b506020830151613f286020860182613995565b5060408301518482036040860152613f408282613bc7565b91505060608301518482036060860152613f5a8282613add565b9150506080830151613f6f6080860182613f7a565b508091505092915050565b613f83816146cd565b82525050565b613f92816146cd565b82525050565b613fa9613fa4826146cd565b61485a565b82525050565b6000613fbb82886139b3565b601482019150613fcb82876139b3565b601482019150613fdb8286613c39565b9150613fe78285613b96565b9150613ff38284613f98565b6020820191508190509695505050505050565b60006140128284613b7f565b60098201915081905092915050565b600061402d8284613b96565b915081905092915050565b60006140448285613b96565b91506140508284613b96565b91508190509392505050565b60006140688284613c39565b915081905092915050565b600060208201905061408860008301846139a4565b92915050565b60006080820190506140a360008301876139a4565b6140b060208301866139a4565b81810360408301526140c28185613c00565b90506140d16060830184613f89565b95945050505050565b60006040820190506140ef60008301856139a4565b6140fc6020830184613b52565b9392505050565b6000617d008201905061411960008301846139ca565b92915050565b600060208201905081810360008301526141398184613a21565b905092915050565b60006020820190506141566000830184613b52565b92915050565b60006060820190506141716000830186613b70565b61417e6020830185613b70565b61418b6040830184613f89565b949350505050565b600060208201905081810360008301526141ad8184613c00565b905092915050565b600060208201905081810360008301526141ce81613c6a565b9050919050565b600060208201905081810360008301526141ee81613c8d565b9050919050565b6000602082019050818103600083015261420e81613cb0565b9050919050565b6000602082019050818103600083015261422e81613cd3565b9050919050565b6000602082019050818103600083015261424e81613cf6565b9050919050565b6000602082019050818103600083015261426e81613d19565b9050919050565b6000602082019050818103600083015261428e81613d3c565b9050919050565b600060208201905081810360008301526142ae81613d5f565b9050919050565b600060208201905081810360008301526142ce81613d82565b9050919050565b600060208201905081810360008301526142ee81613da5565b9050919050565b6000602082019050818103600083015261430e81613dc8565b9050919050565b6000602082019050818103600083015261432e81613deb565b9050919050565b6000602082019050818103600083015261434e81613e0e565b9050919050565b6000602082019050818103600083015261436e81613e31565b9050919050565b6000602082019050818103600083015261438e81613e54565b9050919050565b600060208201905081810360008301526143ae81613e77565b9050919050565b600060208201905081810360008301526143cf8184613e9a565b905092915050565b600060208201905081810360008301526143f18184613efd565b905092915050565b600060208201905061440e6000830184613f89565b92915050565b600061441e61442f565b905061442a82826147b2565b919050565b6000604051905090565b600067ffffffffffffffff821115614454576144536148f1565b5b602082029050602081019050919050565b600067ffffffffffffffff8211156144805761447f6148f1565b5b602082029050602081019050919050565b600067ffffffffffffffff8211156144ac576144ab6148f1565b5b602082029050602081019050919050565b600067ffffffffffffffff8211156144d8576144d76148f1565b5b6144e182614958565b9050602081019050919050565b6000819050919050565b6000819050602082019050919050565b6000819050602082019050919050565b6000819050602082019050919050565b6000819050602082019050919050565b60006103e89050919050565b600081519050919050565b600081519050919050565b600081519050919050565b600081519050919050565b600081519050919050565b6000602082019050919050565b6000602082019050919050565b6000602082019050919050565b6000602082019050919050565b600081905092915050565b600082825260208201905092915050565b600082825260208201905092915050565b600082825260208201905092915050565b600081905092915050565b600082825260208201905092915050565b600082825260208201905092915050565b600081905092915050565b6000614630826146cd565b915061463b836146cd565b92508282101561464e5761464d614864565b5b828203905092915050565b6000614664826146ad565b9050919050565b60008115159050919050565b6000819050919050565b60007fffffffffffffffffff000000000000000000000000000000000000000000000082169050919050565b600073ffffffffffffffffffffffffffffffffffffffff82169050919050565b6000819050919050565b60006146e282614565565b826146ec84614528565b90506146f781614920565b92506009821015614737576147327fffffffffffffffffff000000000000000000000000000000000000000000000083600903600802614976565b831692505b5050919050565b82818337600083830152505050565b60005b8381101561476b578082015181840152602081019050614750565b8381111561477a576000848401525b50505050565b6000600282049050600182168061479857607f821691505b602082108114156147ac576147ab614893565b5b50919050565b6147bb82614958565b810181811067ffffffffffffffff821117156147da576147d96148f1565b5b80604052505050565b60006147ee826146cd565b91507fffffffffffffffffffffffffffffffffffffffffffffffffffffffffffffffff82141561482157614820614864565b5b600182019050919050565b600061483782614848565b9050919050565b6000819050919050565b600061485382614969565b9050919050565b6000819050919050565b7f4e487b7100000000000000000000000000000000000000000000000000000000600052601160045260246000fd5b7f4e487b7100000000000000000000000000000000000000000000000000000000600052602260045260246000fd5b7f4e487b7100000000000000000000000000000000000000000000000000000000600052603260045260246000fd5b7f4e487b7100000000000000000000000000000000000000000000000000000000600052604160045260246000fd5b600061492c8251614681565b80915050919050565b600080fd5b600080fd5b600080fd5b600080fd5b600080fd5b600080fd5b600080fd5b6000601f19601f8301169050919050565b60008160601b9050919050565b600082821b905092915050565b7f4e46542077617320616c72656164792076657269666965642e00000000000000600082015250565b7f496e76616c6964206e667420726f6f7420676976656e2e000000000000000000600082015250565b7f4f776e61626c653a206e6577206f776e657220697320746865207a65726f206160008201527f6464726573730000000000000000000000000000000000000000000000000000602082015250565b7f496e76616c6964205f626c6f636b20696e697469616c697a6174696f6e2e0000600082015250565b7f496e636f72726563742070726566697820696e205f6261736555524900000000600082015250565b7f476976656e205f6c65616620646f6573206e6f74206d61746368205f6e66742e600082015250565b7f4e465420636f6e747261637420616c726561647920726571756573746564207660008201527f6572696669636174696f6e2e0000000000000000000000000000000000000000602082015250565b7f496e636f7272656374205f62617365555249206c656e67746800000000000000600082015250565b7f53656e646572206d757374206265206120636f6e747261637400000000000000600082015250565b7f436f6e74726163742069736e27742076657269666965642e0000000000000000600082015250565b7f42617365205552492068617320616c7265616479206265656e20636c61696d6560008201527f642e000000000000000000000000000000000000000000000000000000000000602082015250565b7f4f776e61626c653a2063616c6c6572206973206e6f7420746865206f776e6572600082015250565b7f4e465420636f6e74726163742068617320616c7265616479206265656e20736c60008201527f61736865642e0000000000000000000000000000000000000000000000000000602082015250565b7f496e76616c69642052657175657374202e000000000000000000000000000000600082015250565b7f496e76616c696420626c6f636b2068656967687420666f72207375625552492e600082015250565b7f496e76616c69642050726f6f6600000000000000000000000000000000000000600082015250565b614cb481614659565b8114614cbf57600080fd5b50565b614ccb81614677565b8114614cd657600080fd5b50565b614ce2816146cd565b8114614ced57600080fd5b5056fea2646970667358221220c00d6c820ab77f3d654143a8b583d0996cfaeed0885b3a6d884ec80d5993ec2d64736f6c63430008050033",
  "immutableReferences": {},
  "source": "// SPDX-License-Identifier: BUSL-1.1\npragma solidity ^0.8.5;\n\nimport \"@openzeppelin/contracts/access/Ownable.sol\";\n\nimport \"@openzeppelin/contracts/utils/cryptography/MerkleProof.sol\";\n\nimport \"./RatioSingleNFT.sol\";\n\nimport \"@openzeppelin/contracts/utils/Address.sol\";\n\n// Contract to verify nft contracts.\ncontract NFTProtocol is Ownable {\n\n    // Minimum amount to be paid for verificaiton/hosting.\n    uint public minimumRequestValue;\n\n    // Mapping to determine valid NFTs of contract.\n    mapping(address => nftStruct) contractNFT;\n\n    // Mapping to determine contract of a baseURI;\n    mapping(string => address) public baseURIContract;\n\n    // Mapping to determine contract of a subURI;\n    mapping(string => address) public subURIContract;\n\n    // Mapping to determine all contracts verified at one time to a distributor. \n    // WARNING! array may contain contracts containing subURIs not distributed by distributor. \n    // contractNFT will determine if the distributor is the rightful distributor of the NFT!\n    mapping(address => address[]) public distributorContracts; \n\n    // Array to hold all nfts contracts verified at one time.\n    // WARNING! array may contain contracts no longer verified.\n    address[] public nftContracts;\n\n    // mapping to hold contracts that have requested verification.\n    mapping(address => bool) nftRequest;\n\n    // Mapping to hold nft leafs that have been verified.\n    mapping(bytes32 => bool) nftVerified;\n\n    // Mapping to hold contracts that have been slashed.\n    mapping(address => bool) public nftSlashed;\n\n    // Structure to hold NFT data.\n    struct nftStruct{\n        address _contract;\n        address _distributor;\n        string _baseURI;\n        string[] _subURIs;\n        uint _block;\n    }\n\n    // Structure to hold nftBlock variables.\n    struct nftBlock{\n        bytes32 _prev;\n        bytes32 _root;\n        bytes32[] _leaves;\n        uint _block;\n    }\n\n    // NFT blockchain...\n    nftBlock[] public nftBlocks;\n\n    // Mapping of block roots to blocks.\n    mapping(bytes32 => nftBlock) public blockMap;\n\n    // Event emitted when a new nft block is submitted.\n    event blockSubmited(nftBlock _block);\n\n    // Event emitted when a verification request is submitted.\n    event verificationRequest(address _contract, address _distributor, string _baseURI, uint _block);\n\n    // Event emitted when an nft has been verifed!\n    event verified(nftStruct _nft);\n\n    // Event emitted when nfts have been slashed via slashNFTs.\n    event slashed(address[] _contracts);\n\n    // Event emitted when an nft has been slashed via slashNFT.\n    event slash(address _contract, bool _slashed);\n\n    // Constructor\n    constructor(uint _minimumRequestValue){\n        minimumRequestValue = _minimumRequestValue;\n        nftBlock memory n = nftBlock(bytes32(0), bytes32(0) , new bytes32[](0), block.number);\n        nftBlocks.push(n);\n    }\n    \n    // Function to requets verificaition of NFT \n    function requestVerification() public payable{\n\n        // Creating RatioSingleNFT contract from requester.\n        RatioSingleNFT ratioNFT = RatioSingleNFT(msg.sender);\n\n        // Contract specification conditions.\n        require(msg.value >= minimumRequestValue, \"Invalid Request .\");\n\n        require(Address.isContract(msg.sender), \"Sender must be a contract\");\n        \n        require(nftRequest[msg.sender] == false, \"NFT contract already requested verification.\");\n\n        require(baseURIContract[ratioNFT.baseURI()] == address(0), \"Base URI has already been claimed.\");\n\n        require(bytes(ratioNFT.baseURI()).length == 53, \"Incorrect _baseURI length\");\n\n        require(uriPrefix(ratioNFT.baseURI()), \"Incorrect prefix in _baseURI\");\n\n        nftRequest[msg.sender] = true;\n\n        // Emit verificationRequest event for Oracle.\n        emit verificationRequest(msg.sender, ratioNFT.distributor() , ratioNFT.baseURI(), block.number);\n    }\n\n    // Function to verify a nft of behalf of Ratio Labs.\n    function verifyNFT(bytes32[] memory _proof, bytes32 _root, bytes32 _leaf, nftStruct memory _nft) public{\n        // require the _root to exist.\n        require(blockMap[_root]._block != 0, \"Invalid nft root given.\");\n\n        // require nft contract not to be slashed.\n        require(!nftSlashed[_nft._contract], \"NFT contract has already been slashed.\");\n\n        // calculate sub URI encoding.\n        bytes memory encoded;\n        for (uint i = 0; i < _nft._subURIs.length; i++) {\n            encoded = bytes.concat(\n                encoded,\n                abi.encodePacked(_nft._subURIs[i])\n            );\n        }\n\n        // require _leaf hash to match _nft hash.\n        require(_leaf == keccak256(abi.encodePacked(_nft._contract, _nft._distributor, _nft._baseURI, encoded, _nft._block)), \"Given _leaf does not match _nft.\");\n        // require _nft is not already verified.\n        require(!nftVerified[_leaf], \"NFT was already verified.\");\n        // require _nft is within _root .\n        require(MerkleProof.verify(_proof, _root, _leaf), \"Invalid Proof\");\n\n        // Verify and Store NFT info.\n        nftVerified[_leaf] = true;\n\n        // Set subURIs contract. \n        for(uint i = 0; i < _nft._subURIs.length; i++){\n            if(subURIContract[_nft._subURIs[i]] != address(0)){\n                require(contractNFT[subURIContract[_nft._subURIs[i]]]._block == 0 || \n                        contractNFT[subURIContract[_nft._subURIs[i]]]._block > _nft._block, \"Invalid block height for subURI.\");\n            }\n            subURIContract[_nft._subURIs[i]] = _nft._contract;\n        }\n\n        // Set contracts NFT;\n        contractNFT[_nft._contract] = _nft;\n\n        // Push nft contract address into nftContracts array.\n        nftContracts.push(_nft._contract);\n\n        // Push contract address into distributor distributorContracts.\n        distributorContracts[_nft._distributor].push(_nft._contract);\n\n        // Set baseURI contract.\n        baseURIContract[_nft._baseURI] = _nft._contract;  \n        \n        // Emit verified event.\n        emit verified(_nft);\n    }\n\n    // Function to submit nft blocks for verified NFTs.\n    function submitBlock(nftBlock memory _block) public onlyOwner{\n        require(_block._block == 0, \"Invalid _block initialization.\");\n        _block._block = block.number;\n        nftBlocks.push(_block);\n        blockMap[_block._root] = nftBlocks[nftBlocks.length-1];\n        emit blockSubmited(_block);\n    }\n\n    // Function to _slashNFTs via Oracle\n    function slashNFTs(address[] memory _contracts) public onlyOwner{\n        for(uint i = 0; i < _contracts.length; i++){\n            delete contractNFT[_contracts[i]];\n            nftSlashed[_contracts[i]] = true;\n        }\n        emit slashed(_contracts);\n    }\n\n    // Function to slashNFT via public\n    function slashNFT(address _contract) public{\n        require(contractNFT[_contract]._contract != address(0), \"Contract isn't verified.\");\n        RatioSingleNFT rNFT = RatioSingleNFT(_contract);\n        nftStruct memory nStruct = contractNFT[_contract];\n        if(rNFT.distributor() != nStruct._distributor || !compareStrings(rNFT.baseURI(), nStruct._baseURI)){\n            delete contractNFT[_contract];\n            nftSlashed[_contract] = true;\n            emit slash(_contract, true);\n            return;\n        }\n        string[4] memory subURIs = [rNFT.image(), rNFT.audio(), rNFT.video(), rNFT.model()];\n        for(uint i = 0 ; i < subURIs.length; i++){\n            if(!compareStrings(subURIs[i], nStruct._subURIs[i])){\n                delete contractNFT[_contract];\n                nftSlashed[_contract] = true;\n                emit slash(_contract, true);\n                return;\n            }\n        }\n        emit slash(_contract, false);\n    }\n\n    /**  \n    *** User Helper Functions\n    **/\n    \n    // Function to return latestBlock\n    function latestBlock() public view returns(nftBlock memory _block){\n        return nftBlocks[nftBlocks.length - 1];\n    }\n\n    function getContractNFT(address _contract) public view returns(nftStruct memory _nft){\n        return contractNFT[_contract];\n    }\n\n    function getBaseURIdistributor(string memory _baseURI) public view returns(address _distributor){\n        return contractNFT[baseURIContract[_baseURI]]._distributor;\n    }\n\n    function getSubURIbaseURI(string memory _subURI) public view returns(string memory _baseURI){\n        return contractNFT[subURIContract[_subURI]]._baseURI;\n    }\n\n    function getDistributorContracts(address _distributor) public view returns(address[] memory _contracts){\n        return distributorContracts[_distributor];\n    }\n\n    /**  \n    *** Contract Helper Functions\n    **/\n\n    function uriPrefix(string memory _baseURI) internal pure returns(bool){\n        return  keccak256( abi.encodePacked( bytes9( bytes(_baseURI) ) ) ) == keccak256( abi.encodePacked( bytes9(\"ipfs://Qm\") ) ) ;\n    }\n\n    function compareStrings(string memory _a, string memory _b) internal pure returns(bool){\n        return keccak256( abi.encodePacked( bytes(_a) ) )  == keccak256( abi.encodePacked( bytes(_b) ) );\n    }\n\n    /**  \n    *** Owner Helper Functions\n    **/\n\n    function getContracts(uint _start, uint _end) public view returns(address[1000] memory _contracts){\n        uint n = 0;\n        for(uint i = _start; i <= _end; i++)\n        {\n            _contracts[n] = nftContracts[i];\n            n++;\n        }\n    }\n\n    function modifyRequestValue(uint _val) public onlyOwner{\n        minimumRequestValue = _val;\n    }\n\n    function claim() public{\n        payable(owner()).transfer(address(this).balance);\n    }\n \n}",
  "sourcePath": "/home/stephenstb/Ratio/ratio/contracts/NFTProtocol/NFTProtocol.sol",
  "compiler": {
    "name": "solc",
    "version": "0.8.5+commit.a4f2e591.Emscripten.clang"
  },
  "schemaVersion": "3.3.3",
  "updatedAt": "2022-05-25T22:48:22.355Z",
  "devdoc": {
    "kind": "dev",
    "methods": {
      "owner()": {
        "details": "Returns the address of the current owner."
      },
      "renounceOwnership()": {
        "details": "Leaves the contract without owner. It will not be possible to call `onlyOwner` functions anymore. Can only be called by the current owner. NOTE: Renouncing ownership will leave the contract without an owner, thereby removing any functionality that is only available to the owner."
      },
      "transferOwnership(address)": {
        "details": "Transfers ownership of the contract to a new account (`newOwner`). Can only be called by the current owner."
      }
    },
    "version": 1
  },
  "userdoc": {
    "kind": "user",
    "methods": {
      "getContracts(uint256,uint256)": {
        "notice": "*** Owner Helper Functions*"
      },
      "latestBlock()": {
        "notice": "*** User Helper Functions*"
      }
    },
    "version": 1
  }
}