{
  "contractName": "NFTProtocol",
  "abi": [
    {
      "inputs": [
        {
          "internalType": "uint256",
          "name": "_minimumRequestValue",
          "type": "uint256"
        }
      ],
      "stateMutability": "nonpayable",
      "type": "constructor"
    },
    {
      "anonymous": false,
      "inputs": [
        {
          "indexed": true,
          "internalType": "address",
          "name": "previousOwner",
          "type": "address"
        },
        {
          "indexed": true,
          "internalType": "address",
          "name": "newOwner",
          "type": "address"
        }
      ],
      "name": "OwnershipTransferred",
      "type": "event"
    },
    {
      "anonymous": false,
      "inputs": [
        {
          "components": [
            {
              "internalType": "bytes32",
              "name": "_prev",
              "type": "bytes32"
            },
            {
              "internalType": "bytes32",
              "name": "_root",
              "type": "bytes32"
            },
            {
              "internalType": "bytes32[]",
              "name": "_leaves",
              "type": "bytes32[]"
            },
            {
              "internalType": "uint256",
              "name": "_block",
              "type": "uint256"
            }
          ],
          "indexed": false,
          "internalType": "struct NFTProtocol.nftBlock",
          "name": "_block",
          "type": "tuple"
        }
      ],
      "name": "blockSubmited",
      "type": "event"
    },
    {
      "anonymous": false,
      "inputs": [
        {
          "indexed": false,
          "internalType": "address",
          "name": "_contract",
          "type": "address"
        },
        {
          "indexed": false,
          "internalType": "address",
          "name": "_distributor",
          "type": "address"
        },
        {
          "indexed": false,
          "internalType": "string",
          "name": "_baseURI",
          "type": "string"
        },
        {
          "indexed": false,
          "internalType": "uint256",
          "name": "_block",
          "type": "uint256"
        }
      ],
      "name": "verificationRequest",
      "type": "event"
    },
    {
      "anonymous": false,
      "inputs": [
        {
          "components": [
            {
              "internalType": "address",
              "name": "_contract",
              "type": "address"
            },
            {
              "internalType": "address",
              "name": "_distributor",
              "type": "address"
            },
            {
              "internalType": "string",
              "name": "_baseURI",
              "type": "string"
            },
            {
              "internalType": "string[]",
              "name": "_subURIs",
              "type": "string[]"
            },
            {
              "internalType": "uint256",
              "name": "_block",
              "type": "uint256"
            }
          ],
          "indexed": false,
          "internalType": "struct NFTProtocol.nftStruct",
          "name": "_nft",
          "type": "tuple"
        }
      ],
      "name": "verified",
      "type": "event"
    },
    {
      "inputs": [
        {
          "internalType": "string",
          "name": "",
          "type": "string"
        }
      ],
      "name": "baseURIContract",
      "outputs": [
        {
          "internalType": "address",
          "name": "",
          "type": "address"
        }
      ],
      "stateMutability": "view",
      "type": "function"
    },
    {
      "inputs": [
        {
          "internalType": "bytes32",
          "name": "",
          "type": "bytes32"
        }
      ],
      "name": "blockMap",
      "outputs": [
        {
          "internalType": "bytes32",
          "name": "_prev",
          "type": "bytes32"
        },
        {
          "internalType": "bytes32",
          "name": "_root",
          "type": "bytes32"
        },
        {
          "internalType": "uint256",
          "name": "_block",
          "type": "uint256"
        }
      ],
      "stateMutability": "view",
      "type": "function"
    },
    {
      "inputs": [
        {
          "internalType": "address",
          "name": "",
          "type": "address"
        },
        {
          "internalType": "uint256",
          "name": "",
          "type": "uint256"
        }
      ],
      "name": "distributorContracts",
      "outputs": [
        {
          "internalType": "address",
          "name": "",
          "type": "address"
        }
      ],
      "stateMutability": "view",
      "type": "function"
    },
    {
      "inputs": [],
      "name": "minimumRequestValue",
      "outputs": [
        {
          "internalType": "uint256",
          "name": "",
          "type": "uint256"
        }
      ],
      "stateMutability": "view",
      "type": "function"
    },
    {
      "inputs": [
        {
          "internalType": "uint256",
          "name": "",
          "type": "uint256"
        }
      ],
      "name": "nftBlocks",
      "outputs": [
        {
          "internalType": "bytes32",
          "name": "_prev",
          "type": "bytes32"
        },
        {
          "internalType": "bytes32",
          "name": "_root",
          "type": "bytes32"
        },
        {
          "internalType": "uint256",
          "name": "_block",
          "type": "uint256"
        }
      ],
      "stateMutability": "view",
      "type": "function"
    },
    {
      "inputs": [
        {
          "internalType": "uint256",
          "name": "",
          "type": "uint256"
        }
      ],
      "name": "nftContracts",
      "outputs": [
        {
          "internalType": "address",
          "name": "",
          "type": "address"
        }
      ],
      "stateMutability": "view",
      "type": "function"
    },
    {
      "inputs": [],
      "name": "owner",
      "outputs": [
        {
          "internalType": "address",
          "name": "",
          "type": "address"
        }
      ],
      "stateMutability": "view",
      "type": "function"
    },
    {
      "inputs": [],
      "name": "renounceOwnership",
      "outputs": [],
      "stateMutability": "nonpayable",
      "type": "function"
    },
    {
      "inputs": [
        {
          "internalType": "string",
          "name": "",
          "type": "string"
        }
      ],
      "name": "subURIContract",
      "outputs": [
        {
          "internalType": "address",
          "name": "",
          "type": "address"
        }
      ],
      "stateMutability": "view",
      "type": "function"
    },
    {
      "inputs": [
        {
          "internalType": "address",
          "name": "newOwner",
          "type": "address"
        }
      ],
      "name": "transferOwnership",
      "outputs": [],
      "stateMutability": "nonpayable",
      "type": "function"
    },
    {
      "inputs": [],
      "name": "requestVerification",
      "outputs": [],
      "stateMutability": "payable",
      "type": "function"
    },
    {
      "inputs": [
        {
          "internalType": "bytes32[]",
          "name": "_proof",
          "type": "bytes32[]"
        },
        {
          "internalType": "bytes32",
          "name": "_root",
          "type": "bytes32"
        },
        {
          "internalType": "bytes32",
          "name": "_leaf",
          "type": "bytes32"
        },
        {
          "components": [
            {
              "internalType": "address",
              "name": "_contract",
              "type": "address"
            },
            {
              "internalType": "address",
              "name": "_distributor",
              "type": "address"
            },
            {
              "internalType": "string",
              "name": "_baseURI",
              "type": "string"
            },
            {
              "internalType": "string[]",
              "name": "_subURIs",
              "type": "string[]"
            },
            {
              "internalType": "uint256",
              "name": "_block",
              "type": "uint256"
            }
          ],
          "internalType": "struct NFTProtocol.nftStruct",
          "name": "_nft",
          "type": "tuple"
        }
      ],
      "name": "verifyNFT",
      "outputs": [],
      "stateMutability": "nonpayable",
      "type": "function"
    },
    {
      "inputs": [
        {
          "components": [
            {
              "internalType": "bytes32",
              "name": "_prev",
              "type": "bytes32"
            },
            {
              "internalType": "bytes32",
              "name": "_root",
              "type": "bytes32"
            },
            {
              "internalType": "bytes32[]",
              "name": "_leaves",
              "type": "bytes32[]"
            },
            {
              "internalType": "uint256",
              "name": "_block",
              "type": "uint256"
            }
          ],
          "internalType": "struct NFTProtocol.nftBlock",
          "name": "_block",
          "type": "tuple"
        }
      ],
      "name": "submitBlock",
      "outputs": [],
      "stateMutability": "nonpayable",
      "type": "function"
    },
    {
      "inputs": [
        {
          "internalType": "address[]",
          "name": "_contracts",
          "type": "address[]"
        }
      ],
      "name": "slashNFTs",
      "outputs": [],
      "stateMutability": "nonpayable",
      "type": "function"
    },
    {
      "inputs": [
        {
          "internalType": "address",
          "name": "_contract",
          "type": "address"
        }
      ],
      "name": "slashNFT",
      "outputs": [],
      "stateMutability": "nonpayable",
      "type": "function"
    },
    {
      "inputs": [],
      "name": "latestBlock",
      "outputs": [
        {
          "components": [
            {
              "internalType": "bytes32",
              "name": "_prev",
              "type": "bytes32"
            },
            {
              "internalType": "bytes32",
              "name": "_root",
              "type": "bytes32"
            },
            {
              "internalType": "bytes32[]",
              "name": "_leaves",
              "type": "bytes32[]"
            },
            {
              "internalType": "uint256",
              "name": "_block",
              "type": "uint256"
            }
          ],
          "internalType": "struct NFTProtocol.nftBlock",
          "name": "_block",
          "type": "tuple"
        }
      ],
      "stateMutability": "view",
      "type": "function"
    },
    {
      "inputs": [
        {
          "internalType": "address",
          "name": "_contract",
          "type": "address"
        }
      ],
      "name": "getContractNFT",
      "outputs": [
        {
          "components": [
            {
              "internalType": "address",
              "name": "_contract",
              "type": "address"
            },
            {
              "internalType": "address",
              "name": "_distributor",
              "type": "address"
            },
            {
              "internalType": "string",
              "name": "_baseURI",
              "type": "string"
            },
            {
              "internalType": "string[]",
              "name": "_subURIs",
              "type": "string[]"
            },
            {
              "internalType": "uint256",
              "name": "_block",
              "type": "uint256"
            }
          ],
          "internalType": "struct NFTProtocol.nftStruct",
          "name": "_nft",
          "type": "tuple"
        }
      ],
      "stateMutability": "view",
      "type": "function"
    },
    {
      "inputs": [
        {
          "internalType": "string",
          "name": "_baseURI",
          "type": "string"
        }
      ],
      "name": "getBaseURIdistributor",
      "outputs": [
        {
          "internalType": "address",
          "name": "_distributor",
          "type": "address"
        }
      ],
      "stateMutability": "view",
      "type": "function"
    },
    {
      "inputs": [
        {
          "internalType": "string",
          "name": "_subURI",
          "type": "string"
        }
      ],
      "name": "getSubURIbaseURI",
      "outputs": [
        {
          "internalType": "string",
          "name": "_baseURI",
          "type": "string"
        }
      ],
      "stateMutability": "view",
      "type": "function"
    },
    {
      "inputs": [
        {
          "internalType": "address",
          "name": "_distributor",
          "type": "address"
        }
      ],
      "name": "getDistributorContracts",
      "outputs": [
        {
          "internalType": "address[]",
          "name": "_contracts",
          "type": "address[]"
        }
      ],
      "stateMutability": "view",
      "type": "function"
    },
    {
      "inputs": [
        {
          "internalType": "uint256",
          "name": "_start",
          "type": "uint256"
        },
        {
          "internalType": "uint256",
          "name": "_end",
          "type": "uint256"
        }
      ],
      "name": "getContracts",
      "outputs": [
        {
          "internalType": "address[1000]",
          "name": "_contracts",
          "type": "address[1000]"
        }
      ],
      "stateMutability": "view",
      "type": "function"
    },
    {
      "inputs": [
        {
          "internalType": "uint256",
          "name": "_val",
          "type": "uint256"
        }
      ],
      "name": "modifyRequestValue",
      "outputs": [],
      "stateMutability": "nonpayable",
      "type": "function"
    },
    {
      "inputs": [],
      "name": "claim",
      "outputs": [],
      "stateMutability": "nonpayable",
      "type": "function"
    }
  ],
  "bytecode": "0x60806040523480156200001157600080fd5b50604051620049133803806200491383398181016040528101906200003791906200029d565b620000576200004b6200014960201b60201c565b6200015160201b60201c565b80600181905550600060405180608001604052806000801b81526020016000801b8152602001600067ffffffffffffffff8111156200009b576200009a620002d9565b5b604051908082528060200260200182016040528015620000ca5781602001602082028036833780820191505090505b5081526020014381525090506009819080600181540180825580915050600190039060005260206000209060040201600090919091909150600082015181600001556020820151816001015560408201518160020190805190602001906200013492919062000215565b50606082015181600301555050505062000327565b600033905090565b60008060009054906101000a900473ffffffffffffffffffffffffffffffffffffffff169050816000806101000a81548173ffffffffffffffffffffffffffffffffffffffff021916908373ffffffffffffffffffffffffffffffffffffffff1602179055508173ffffffffffffffffffffffffffffffffffffffff168173ffffffffffffffffffffffffffffffffffffffff167f8be0079c531659141344cd1fd0a4f28419497f9722a3daafe3b4186f6b6457e060405160405180910390a35050565b82805482825590600052602060002090810192821562000254579160200282015b828111156200025357825182559160200191906001019062000236565b5b50905062000263919062000267565b5090565b5b808211156200028257600081600090555060010162000268565b5090565b60008151905062000297816200030d565b92915050565b600060208284031215620002b657620002b562000308565b5b6000620002c68482850162000286565b91505092915050565b6000819050919050565b7f4e487b7100000000000000000000000000000000000000000000000000000000600052604160045260246000fd5b600080fd5b6200031881620002cf565b81146200032457600080fd5b50565b6145dc80620003376000396000f3fe6080604052600436106101405760003560e01c8063715018a6116100b6578063bee03c7a1161006f578063bee03c7a14610463578063c0f1f8731461048e578063c492560f146104cb578063eaac1d1a14610508578063eddebe6214610545578063f2fde38b1461056e57610140565b8063715018a61461035557806387b211531461036c5780638da5cb5b146103a957806395e1487d146103d4578063a6b8123c146103fd578063b5555aba1461043a57610140565b806339e9d0611161010857806339e9d06114610231578063490a3fb81461025a5780634e71d92d14610299578063539975de146102b057806356080c0d146102ef5780636f1b31f01461031857610140565b8063012a3bd31461014557806307e2da961461018257806307ec3039146101ad5780630bb4d82a146101b757806320c43075146101f4575b600080fd5b34801561015157600080fd5b5061016c600480360381019061016791906132b8565b610597565b6040516101799190613a4f565b60405180910390f35b34801561018e57600080fd5b50610197610660565b6040516101a49190613cc6565b60405180910390f35b6101b5610721565b005b3480156101c357600080fd5b506101de60048036038101906101d9919061328b565b610c9c565b6040516101eb91906139e8565b60405180910390f35b34801561020057600080fd5b5061021b6004803603810190610216919061305b565b610cdb565b60405161022891906139e8565b60405180910390f35b34801561023d57600080fd5b506102586004803603810190610253919061328b565b610d29565b005b34801561026657600080fd5b50610281600480360381019061027c919061328b565b610daf565b60405161029093929190613a8d565b60405180910390f35b3480156102a557600080fd5b506102ae610de9565b005b3480156102bc57600080fd5b506102d760048036038101906102d29190613183565b610e39565b6040516102e693929190613a8d565b60405180910390f35b3480156102fb57600080fd5b50610316600480360381019061031191906130e4565b610e63565b005b34801561032457600080fd5b5061033f600480360381019061033a9190613001565b611627565b60405161034c9190613ce8565b60405180910390f35b34801561036157600080fd5b5061036a6118a1565b005b34801561037857600080fd5b50610393600480360381019061038e91906131b0565b611929565b6040516103a091906139e8565b60405180910390f35b3480156103b557600080fd5b506103be611972565b6040516103cb91906139e8565b60405180910390f35b3480156103e057600080fd5b506103fb60048036038101906103f6919061309b565b61199b565b005b34801561040957600080fd5b50610424600480360381019061041f91906131b0565b611b0c565b60405161043191906139e8565b60405180910390f35b34801561044657600080fd5b50610461600480360381019061045c9190613242565b611bb6565b005b34801561046f57600080fd5b50610478611da8565b6040516104859190613d0a565b60405180910390f35b34801561049a57600080fd5b506104b560048036038101906104b09190613001565b611dae565b6040516104c29190613a6b565b60405180910390f35b3480156104d757600080fd5b506104f260048036038101906104ed91906131b0565b611e7b565b6040516104ff9190613ac4565b60405180910390f35b34801561051457600080fd5b5061052f600480360381019061052a91906131b0565b611f8d565b60405161053c91906139e8565b60405180910390f35b34801561055157600080fd5b5061056c60048036038101906105679190613001565b611fd6565b005b34801561057a57600080fd5b5061059560048036038101906105909190613001565b612528565b005b61059f61288c565b6000808490505b83811161065857600681815481106105c1576105c06141c7565b5b9060005260206000200160009054906101000a900473ffffffffffffffffffffffffffffffffffffffff1683836103e88110610600576105ff6141c7565b5b602002019073ffffffffffffffffffffffffffffffffffffffff16908173ffffffffffffffffffffffffffffffffffffffff16815250508180610642906140e8565b9250508080610650906140e8565b9150506105a6565b505092915050565b6106686128b0565b6009600160098054905061067c9190613f36565b8154811061068d5761068c6141c7565b5b906000526020600020906004020160405180608001604052908160008201548152602001600182015481526020016002820180548060200260200160405190810160405280929190818152602001828054801561070957602002820191906000526020600020905b8154815260200190600101908083116106f5575b50505050508152602001600382015481525050905090565b600033905060015434101561076b576040517f08c379a000000000000000000000000000000000000000000000000000000000815260040161076290613c66565b60405180910390fd5b61077433612620565b6107b3576040517f08c379a00000000000000000000000000000000000000000000000000000000081526004016107aa90613be6565b60405180910390fd5b60001515600760003373ffffffffffffffffffffffffffffffffffffffff1673ffffffffffffffffffffffffffffffffffffffff16815260200190815260200160002060009054906101000a900460ff16151514610846576040517f08c379a000000000000000000000000000000000000000000000000000000000815260040161083d90613ba6565b60405180910390fd5b600073ffffffffffffffffffffffffffffffffffffffff1660038273ffffffffffffffffffffffffffffffffffffffff16636c0360eb6040518163ffffffff1660e01b815260040160006040518083038186803b1580156108a657600080fd5b505afa1580156108ba573d6000803e3d6000fd5b505050506040513d6000823e3d601f19601f820116820180604052508101906108e391906131f9565b6040516108f091906139d1565b908152602001604051809103902060009054906101000a900473ffffffffffffffffffffffffffffffffffffffff1673ffffffffffffffffffffffffffffffffffffffff1614610975576040517f08c379a000000000000000000000000000000000000000000000000000000000815260040161096c90613c26565b60405180910390fd5b60358173ffffffffffffffffffffffffffffffffffffffff16636c0360eb6040518163ffffffff1660e01b815260040160006040518083038186803b1580156109bd57600080fd5b505afa1580156109d1573d6000803e3d6000fd5b505050506040513d6000823e3d601f19601f820116820180604052508101906109fa91906131f9565b5114610a3b576040517f08c379a0000000000000000000000000000000000000000000000000000000008152600401610a3290613bc6565b60405180910390fd5b610ac68173ffffffffffffffffffffffffffffffffffffffff16636c0360eb6040518163ffffffff1660e01b815260040160006040518083038186803b158015610a8457600080fd5b505afa158015610a98573d6000803e3d6000fd5b505050506040513d6000823e3d601f19601f82011682018060405250810190610ac191906131f9565b612643565b610b05576040517f08c379a0000000000000000000000000000000000000000000000000000000008152600401610afc90613b66565b60405180910390fd5b6001600760003373ffffffffffffffffffffffffffffffffffffffff1673ffffffffffffffffffffffffffffffffffffffff16815260200190815260200160002060006101000a81548160ff0219169083151502179055507fb323e7348260c7e224c4076c9dc96a004d173b12b8672023d53d3e424eddfde9338273ffffffffffffffffffffffffffffffffffffffff1663bfe109286040518163ffffffff1660e01b815260040160206040518083038186803b158015610bc557600080fd5b505afa158015610bd9573d6000803e3d6000fd5b505050506040513d601f19601f82011682018060405250810190610bfd919061302e565b8373ffffffffffffffffffffffffffffffffffffffff16636c0360eb6040518163ffffffff1660e01b815260040160006040518083038186803b158015610c4357600080fd5b505afa158015610c57573d6000803e3d6000fd5b505050506040513d6000823e3d601f19601f82011682018060405250810190610c8091906131f9565b43604051610c919493929190613a03565b60405180910390a150565b60068181548110610cac57600080fd5b906000526020600020016000915054906101000a900473ffffffffffffffffffffffffffffffffffffffff1681565b60056020528160005260406000208181548110610cf757600080fd5b906000526020600020016000915091509054906101000a900473ffffffffffffffffffffffffffffffffffffffff1681565b610d316126c4565b73ffffffffffffffffffffffffffffffffffffffff16610d4f611972565b73ffffffffffffffffffffffffffffffffffffffff1614610da5576040517f08c379a0000000000000000000000000000000000000000000000000000000008152600401610d9c90613c46565b60405180910390fd5b8060018190555050565b60098181548110610dbf57600080fd5b90600052602060002090600402016000915090508060000154908060010154908060030154905083565b610df1611972565b73ffffffffffffffffffffffffffffffffffffffff166108fc479081150290604051600060405180830381858888f19350505050158015610e36573d6000803e3d6000fd5b50565b600a6020528060005260406000206000915090508060000154908060010154908060030154905083565b6000600a6000858152602001908152602001600020600301541415610ebd576040517f08c379a0000000000000000000000000000000000000000000000000000000008152600401610eb490613b06565b60405180910390fd5b606060005b826060015151811015610f43578183606001518281518110610ee757610ee66141c7565b5b6020026020010151604051602001610eff91906139d1565b604051602081830303815290604052604051602001610f1f9291906139ad565b60405160208183030381529060405291508080610f3b906140e8565b915050610ec2565b50816000015182602001518360400151838560800151604051602001610f6d959493929190613924565b604051602081830303815290604052805190602001208314610fc4576040517f08c379a0000000000000000000000000000000000000000000000000000000008152600401610fbb90613b86565b60405180910390fd5b6008600084815260200190815260200160002060009054906101000a900460ff1615611025576040517f08c379a000000000000000000000000000000000000000000000000000000000815260040161101c90613ae6565b60405180910390fd5b6110308585856126cc565b61106f576040517f08c379a000000000000000000000000000000000000000000000000000000000815260040161106690613ca6565b60405180910390fd5b60016008600085815260200190815260200160002060006101000a81548160ff02191690831515021790555060005b82606001515181101561135b57600073ffffffffffffffffffffffffffffffffffffffff166004846060015183815181106110dc576110db6141c7565b5b60200260200101516040516110f191906139d1565b908152602001604051809103902060009054906101000a900473ffffffffffffffffffffffffffffffffffffffff1673ffffffffffffffffffffffffffffffffffffffff16146112c95760006002600060048660600151858151811061115a576111596141c7565b5b602002602001015160405161116f91906139d1565b908152602001604051809103902060009054906101000a900473ffffffffffffffffffffffffffffffffffffffff1673ffffffffffffffffffffffffffffffffffffffff1673ffffffffffffffffffffffffffffffffffffffff1681526020019081526020016000206004015414806112895750826080015160026000600486606001518581518110611205576112046141c7565b5b602002602001015160405161121a91906139d1565b908152602001604051809103902060009054906101000a900473ffffffffffffffffffffffffffffffffffffffff1673ffffffffffffffffffffffffffffffffffffffff1673ffffffffffffffffffffffffffffffffffffffff16815260200190815260200160002060040154115b6112c8576040517f08c379a00000000000000000000000000000000000000000000000000000000081526004016112bf90613c86565b60405180910390fd5b5b82600001516004846060015183815181106112e7576112e66141c7565b5b60200260200101516040516112fc91906139d1565b908152602001604051809103902060006101000a81548173ffffffffffffffffffffffffffffffffffffffff021916908373ffffffffffffffffffffffffffffffffffffffff1602179055508080611353906140e8565b91505061109e565b508160026000846000015173ffffffffffffffffffffffffffffffffffffffff1673ffffffffffffffffffffffffffffffffffffffff16815260200190815260200160002060008201518160000160006101000a81548173ffffffffffffffffffffffffffffffffffffffff021916908373ffffffffffffffffffffffffffffffffffffffff16021790555060208201518160010160006101000a81548173ffffffffffffffffffffffffffffffffffffffff021916908373ffffffffffffffffffffffffffffffffffffffff160217905550604082015181600201908051906020019061144a9291906128de565b506060820151816003019080519060200190611467929190612964565b5060808201518160040155905050600682600001519080600181540180825580915050600190039060005260206000200160009091909190916101000a81548173ffffffffffffffffffffffffffffffffffffffff021916908373ffffffffffffffffffffffffffffffffffffffff16021790555060056000836020015173ffffffffffffffffffffffffffffffffffffffff1673ffffffffffffffffffffffffffffffffffffffff16815260200190815260200160002082600001519080600181540180825580915050600190039060005260206000200160009091909190916101000a81548173ffffffffffffffffffffffffffffffffffffffff021916908373ffffffffffffffffffffffffffffffffffffffff16021790555081600001516003836040015160405161159d91906139d1565b908152602001604051809103902060006101000a81548173ffffffffffffffffffffffffffffffffffffffff021916908373ffffffffffffffffffffffffffffffffffffffff1602179055507f5561a5c1fa7cc43b37c32cd6d1c219c152a96eef77b24203b49ccd6239a1e624826040516116189190613ce8565b60405180910390a15050505050565b61162f6129c4565b600260008373ffffffffffffffffffffffffffffffffffffffff1673ffffffffffffffffffffffffffffffffffffffff1681526020019081526020016000206040518060a00160405290816000820160009054906101000a900473ffffffffffffffffffffffffffffffffffffffff1673ffffffffffffffffffffffffffffffffffffffff1673ffffffffffffffffffffffffffffffffffffffff1681526020016001820160009054906101000a900473ffffffffffffffffffffffffffffffffffffffff1673ffffffffffffffffffffffffffffffffffffffff1673ffffffffffffffffffffffffffffffffffffffff16815260200160028201805461173590614085565b80601f016020809104026020016040519081016040528092919081815260200182805461176190614085565b80156117ae5780601f10611783576101008083540402835291602001916117ae565b820191906000526020600020905b81548152906001019060200180831161179157829003601f168201915b5050505050815260200160038201805480602002602001604051908101604052809291908181526020016000905b828210156118885783829060005260206000200180546117fb90614085565b80601f016020809104026020016040519081016040528092919081815260200182805461182790614085565b80156118745780601f1061184957610100808354040283529160200191611874565b820191906000526020600020905b81548152906001019060200180831161185757829003601f168201915b5050505050815260200190600101906117dc565b5050505081526020016004820154815250509050919050565b6118a96126c4565b73ffffffffffffffffffffffffffffffffffffffff166118c7611972565b73ffffffffffffffffffffffffffffffffffffffff161461191d576040517f08c379a000000000000000000000000000000000000000000000000000000000815260040161191490613c46565b60405180910390fd5b61192760006126e3565b565b6003818051602081018201805184825260208301602085012081835280955050505050506000915054906101000a900473ffffffffffffffffffffffffffffffffffffffff1681565b60008060009054906101000a900473ffffffffffffffffffffffffffffffffffffffff16905090565b6119a36126c4565b73ffffffffffffffffffffffffffffffffffffffff166119c1611972565b73ffffffffffffffffffffffffffffffffffffffff1614611a17576040517f08c379a0000000000000000000000000000000000000000000000000000000008152600401611a0e90613c46565b60405180910390fd5b60005b8151811015611b085760026000838381518110611a3a57611a396141c7565b5b602002602001015173ffffffffffffffffffffffffffffffffffffffff1673ffffffffffffffffffffffffffffffffffffffff168152602001908152602001600020600080820160006101000a81549073ffffffffffffffffffffffffffffffffffffffff02191690556001820160006101000a81549073ffffffffffffffffffffffffffffffffffffffff0219169055600282016000611adb9190612a1f565b600382016000611aeb9190612a5f565b600482016000905550508080611b00906140e8565b915050611a1a565b5050565b600060026000600384604051611b2291906139d1565b908152602001604051809103902060009054906101000a900473ffffffffffffffffffffffffffffffffffffffff1673ffffffffffffffffffffffffffffffffffffffff1673ffffffffffffffffffffffffffffffffffffffff16815260200190815260200160002060010160009054906101000a900473ffffffffffffffffffffffffffffffffffffffff169050919050565b611bbe6126c4565b73ffffffffffffffffffffffffffffffffffffffff16611bdc611972565b73ffffffffffffffffffffffffffffffffffffffff1614611c32576040517f08c379a0000000000000000000000000000000000000000000000000000000008152600401611c2990613c46565b60405180910390fd5b6000816060015114611c79576040517f08c379a0000000000000000000000000000000000000000000000000000000008152600401611c7090613b46565b60405180910390fd5b43816060018181525050600981908060018154018082558091505060019003906000526020600020906004020160009091909190915060008201518160000155602082015181600101556040820151816002019080519060200190611cdf929190612a80565b5060608201518160030155505060096001600980549050611d009190613f36565b81548110611d1157611d106141c7565b5b9060005260206000209060040201600a60008360200151815260200190815260200160002060008201548160000155600182015481600101556002820181600201908054611d60929190612acd565b50600382015481600301559050507f338c8da578445c5e2907713cfd371cd34bd90f5c862773caae569216670337d781604051611d9d9190613cc6565b60405180910390a150565b60015481565b6060600560008373ffffffffffffffffffffffffffffffffffffffff1673ffffffffffffffffffffffffffffffffffffffff168152602001908152602001600020805480602002602001604051908101604052809291908181526020018280548015611e6f57602002820191906000526020600020905b8160009054906101000a900473ffffffffffffffffffffffffffffffffffffffff1673ffffffffffffffffffffffffffffffffffffffff1681526020019060010190808311611e25575b50505050509050919050565b606060026000600484604051611e9191906139d1565b908152602001604051809103902060009054906101000a900473ffffffffffffffffffffffffffffffffffffffff1673ffffffffffffffffffffffffffffffffffffffff1673ffffffffffffffffffffffffffffffffffffffff1681526020019081526020016000206002018054611f0890614085565b80601f0160208091040260200160405190810160405280929190818152602001828054611f3490614085565b8015611f815780601f10611f5657610100808354040283529160200191611f81565b820191906000526020600020905b815481529060010190602001808311611f6457829003601f168201915b50505050509050919050565b6004818051602081018201805184825260208301602085012081835280955050505050506000915054906101000a900473ffffffffffffffffffffffffffffffffffffffff1681565b600073ffffffffffffffffffffffffffffffffffffffff16600260008373ffffffffffffffffffffffffffffffffffffffff1673ffffffffffffffffffffffffffffffffffffffff16815260200190815260200160002060000160009054906101000a900473ffffffffffffffffffffffffffffffffffffffff1673ffffffffffffffffffffffffffffffffffffffff1614156120a8576040517f08c379a000000000000000000000000000000000000000000000000000000000815260040161209f90613c06565b60405180910390fd5b60008190506000600260008473ffffffffffffffffffffffffffffffffffffffff1673ffffffffffffffffffffffffffffffffffffffff1681526020019081526020016000206040518060a00160405290816000820160009054906101000a900473ffffffffffffffffffffffffffffffffffffffff1673ffffffffffffffffffffffffffffffffffffffff1673ffffffffffffffffffffffffffffffffffffffff1681526020016001820160009054906101000a900473ffffffffffffffffffffffffffffffffffffffff1673ffffffffffffffffffffffffffffffffffffffff1673ffffffffffffffffffffffffffffffffffffffff1681526020016002820180546121b590614085565b80601f01602080910402602001604051908101604052809291908181526020018280546121e190614085565b801561222e5780601f106122035761010080835404028352916020019161222e565b820191906000526020600020905b81548152906001019060200180831161221157829003601f168201915b5050505050815260200160038201805480602002602001604051908101604052809291908181526020016000905b8282101561230857838290600052602060002001805461227b90614085565b80601f01602080910402602001604051908101604052809291908181526020018280546122a790614085565b80156122f45780601f106122c9576101008083540402835291602001916122f4565b820191906000526020600020905b8154815290600101906020018083116122d757829003601f168201915b50505050508152602001906001019061225c565b5050505081526020016004820154815250509050806020015173ffffffffffffffffffffffffffffffffffffffff168273ffffffffffffffffffffffffffffffffffffffff1663bfe109286040518163ffffffff1660e01b815260040160206040518083038186803b15801561237d57600080fd5b505afa158015612391573d6000803e3d6000fd5b505050506040513d601f19601f820116820180604052508101906123b5919061302e565b73ffffffffffffffffffffffffffffffffffffffff1614158061246557506124638273ffffffffffffffffffffffffffffffffffffffff16636c0360eb6040518163ffffffff1660e01b815260040160006040518083038186803b15801561241c57600080fd5b505afa158015612430573d6000803e3d6000fd5b505050506040513d6000823e3d601f19601f8201168201806040525081019061245991906131f9565b82604001516127a7565b155b1561252357600260008473ffffffffffffffffffffffffffffffffffffffff1673ffffffffffffffffffffffffffffffffffffffff168152602001908152602001600020600080820160006101000a81549073ffffffffffffffffffffffffffffffffffffffff02191690556001820160006101000a81549073ffffffffffffffffffffffffffffffffffffffff02191690556002820160006125089190612a1f565b6003820160006125189190612a5f565b600482016000905550505b505050565b6125306126c4565b73ffffffffffffffffffffffffffffffffffffffff1661254e611972565b73ffffffffffffffffffffffffffffffffffffffff16146125a4576040517f08c379a000000000000000000000000000000000000000000000000000000000815260040161259b90613c46565b60405180910390fd5b600073ffffffffffffffffffffffffffffffffffffffff168173ffffffffffffffffffffffffffffffffffffffff161415612614576040517f08c379a000000000000000000000000000000000000000000000000000000000815260040161260b90613b26565b60405180910390fd5b61261d816126e3565b50565b6000808273ffffffffffffffffffffffffffffffffffffffff163b119050919050565b60007f697066733a2f2f516d0000000000000000000000000000000000000000000000604051602001612676919061397b565b604051602081830303815290604052805190602001208261269690613fdc565b6040516020016126a6919061397b565b60405160208183030381529060405280519060200120149050919050565b600033905090565b6000826126d98584612800565b1490509392505050565b60008060009054906101000a900473ffffffffffffffffffffffffffffffffffffffff169050816000806101000a81548173ffffffffffffffffffffffffffffffffffffffff021916908373ffffffffffffffffffffffffffffffffffffffff1602179055508173ffffffffffffffffffffffffffffffffffffffff168173ffffffffffffffffffffffffffffffffffffffff167f8be0079c531659141344cd1fd0a4f28419497f9722a3daafe3b4186f6b6457e060405160405180910390a35050565b6000816040516020016127ba9190613996565b60405160208183030381529060405280519060200120836040516020016127e19190613996565b6040516020818303038152906040528051906020012014905092915050565b60008082905060005b845181101561286a576000858281518110612827576128266141c7565b5b60200260200101519050808311612849576128428382612875565b9250612856565b6128538184612875565b92505b508080612862906140e8565b915050612809565b508091505092915050565b600082600052816020526040600020905092915050565b60405180617d0001604052806103e890602082028036833780820191505090505090565b6040518060800160405280600080191681526020016000801916815260200160608152602001600081525090565b8280546128ea90614085565b90600052602060002090601f01602090048101928261290c5760008555612953565b82601f1061292557805160ff1916838001178555612953565b82800160010185558215612953579182015b82811115612952578251825591602001919060010190612937565b5b5090506129609190612b1f565b5090565b8280548282559060005260206000209081019282156129b3579160200282015b828111156129b25782518290805190602001906129a29291906128de565b5091602001919060010190612984565b5b5090506129c09190612b3c565b5090565b6040518060a00160405280600073ffffffffffffffffffffffffffffffffffffffff168152602001600073ffffffffffffffffffffffffffffffffffffffff1681526020016060815260200160608152602001600081525090565b508054612a2b90614085565b6000825580601f10612a3d5750612a5c565b601f016020900490600052602060002090810190612a5b9190612b1f565b5b50565b5080546000825590600052602060002090810190612a7d9190612b3c565b50565b828054828255906000526020600020908101928215612abc579160200282015b82811115612abb578251825591602001919060010190612aa0565b5b509050612ac99190612b60565b5090565b828054828255906000526020600020908101928215612b0e5760005260206000209182015b82811115612b0d578254825591600101919060010190612af2565b5b509050612b1b9190612b60565b5090565b5b80821115612b38576000816000905550600101612b20565b5090565b5b80821115612b5c5760008181612b539190612a1f565b50600101612b3d565b5090565b5b80821115612b79576000816000905550600101612b61565b5090565b6000612b90612b8b84613d4a565b613d25565b90508083825260208201905082856020860282011115612bb357612bb2614249565b5b60005b85811015612be35781612bc98882612d6f565b845260208401935060208301925050600181019050612bb6565b5050509392505050565b6000612c00612bfb84613d76565b613d25565b90508083825260208201905082856020860282011115612c2357612c22614249565b5b60005b85811015612c535781612c398882612e23565b845260208401935060208301925050600181019050612c26565b5050509392505050565b6000612c70612c6b84613da2565b613d25565b90508083825260208201905082856020860282011115612c9357612c92614249565b5b60005b85811015612ce157813567ffffffffffffffff811115612cb957612cb861423a565b5b808601612cc68982612e38565b85526020850194506020840193505050600181019050612c96565b5050509392505050565b6000612cfe612cf984613dce565b613d25565b905082815260208101848484011115612d1a57612d1961424e565b5b612d25848285614043565b509392505050565b6000612d40612d3b84613dce565b613d25565b905082815260208101848484011115612d5c57612d5b61424e565b5b612d67848285614052565b509392505050565b600081359050612d7e81614561565b92915050565b600081519050612d9381614561565b92915050565b600082601f830112612dae57612dad61423a565b5b8135612dbe848260208601612b7d565b91505092915050565b600082601f830112612ddc57612ddb61423a565b5b8135612dec848260208601612bed565b91505092915050565b600082601f830112612e0a57612e0961423a565b5b8135612e1a848260208601612c5d565b91505092915050565b600081359050612e3281614578565b92915050565b600082601f830112612e4d57612e4c61423a565b5b8135612e5d848260208601612ceb565b91505092915050565b600082601f830112612e7b57612e7a61423a565b5b8151612e8b848260208601612d2d565b91505092915050565b600060808284031215612eaa57612ea961423f565b5b612eb46080613d25565b90506000612ec484828501612e23565b6000830152506020612ed884828501612e23565b602083015250604082013567ffffffffffffffff811115612efc57612efb614244565b5b612f0884828501612dc7565b6040830152506060612f1c84828501612fec565b60608301525092915050565b600060a08284031215612f3e57612f3d61423f565b5b612f4860a0613d25565b90506000612f5884828501612d6f565b6000830152506020612f6c84828501612d6f565b602083015250604082013567ffffffffffffffff811115612f9057612f8f614244565b5b612f9c84828501612e38565b604083015250606082013567ffffffffffffffff811115612fc057612fbf614244565b5b612fcc84828501612df5565b6060830152506080612fe084828501612fec565b60808301525092915050565b600081359050612ffb8161458f565b92915050565b60006020828403121561301757613016614258565b5b600061302584828501612d6f565b91505092915050565b60006020828403121561304457613043614258565b5b600061305284828501612d84565b91505092915050565b6000806040838503121561307257613071614258565b5b600061308085828601612d6f565b925050602061309185828601612fec565b9150509250929050565b6000602082840312156130b1576130b0614258565b5b600082013567ffffffffffffffff8111156130cf576130ce614253565b5b6130db84828501612d99565b91505092915050565b600080600080608085870312156130fe576130fd614258565b5b600085013567ffffffffffffffff81111561311c5761311b614253565b5b61312887828801612dc7565b945050602061313987828801612e23565b935050604061314a87828801612e23565b925050606085013567ffffffffffffffff81111561316b5761316a614253565b5b61317787828801612f28565b91505092959194509250565b60006020828403121561319957613198614258565b5b60006131a784828501612e23565b91505092915050565b6000602082840312156131c6576131c5614258565b5b600082013567ffffffffffffffff8111156131e4576131e3614253565b5b6131f084828501612e38565b91505092915050565b60006020828403121561320f5761320e614258565b5b600082015167ffffffffffffffff81111561322d5761322c614253565b5b61323984828501612e66565b91505092915050565b60006020828403121561325857613257614258565b5b600082013567ffffffffffffffff81111561327657613275614253565b5b61328284828501612e94565b91505092915050565b6000602082840312156132a1576132a0614258565b5b60006132af84828501612fec565b91505092915050565b600080604083850312156132cf576132ce614258565b5b60006132dd85828601612fec565b92505060206132ee85828601612fec565b9150509250929050565b6000613304838361333c565b60208301905092915050565b600061331c83836134f9565b60208301905092915050565b6000613334838361355f565b905092915050565b61334581613f6a565b82525050565b61335481613f6a565b82525050565b61336b61336682613f6a565b614131565b82525050565b61337a81613e49565b6133848184613ec0565b925061338f82613dff565b8060005b838110156133c05781516133a787826132f8565b96506133b283613e8c565b925050600181019050613393565b505050505050565b60006133d382613e55565b6133dd8185613ecb565b93506133e883613e09565b8060005b8381101561341957815161340088826132f8565b975061340b83613e99565b9250506001810190506133ec565b5085935050505092915050565b600061343182613e60565b61343b8185613edc565b935061344683613e19565b8060005b8381101561347757815161345e8882613310565b975061346983613ea6565b92505060018101905061344a565b5085935050505092915050565b600061348f82613e6b565b6134998185613eed565b9350836020820285016134ab85613e29565b8060005b858110156134e757848403895281516134c88582613328565b94506134d383613eb3565b925060208a019950506001810190506134af565b50829750879550505050505092915050565b61350281613f7c565b82525050565b61351181613f7c565b82525050565b61352861352382613f86565b614143565b82525050565b600061353982613e76565b6135438185613efe565b9350613553818560208601614052565b80840191505092915050565b600061356a82613e81565b6135748185613f09565b9350613584818560208601614052565b61358d8161425d565b840191505092915050565b60006135a382613e81565b6135ad8185613f1a565b93506135bd818560208601614052565b6135c68161425d565b840191505092915050565b60006135dc82613e81565b6135e68185613f2b565b93506135f6818560208601614052565b80840191505092915050565b600061360f601983613f1a565b915061361a82614288565b602082019050919050565b6000613632601783613f1a565b915061363d826142b1565b602082019050919050565b6000613655602683613f1a565b9150613660826142da565b604082019050919050565b6000613678601e83613f1a565b915061368382614329565b602082019050919050565b600061369b601c83613f1a565b91506136a682614352565b602082019050919050565b60006136be602083613f1a565b91506136c98261437b565b602082019050919050565b60006136e1602c83613f1a565b91506136ec826143a4565b604082019050919050565b6000613704601983613f1a565b915061370f826143f3565b602082019050919050565b6000613727601983613f1a565b91506137328261441c565b602082019050919050565b600061374a601883613f1a565b915061375582614445565b602082019050919050565b600061376d602283613f1a565b91506137788261446e565b604082019050919050565b6000613790602083613f1a565b915061379b826144bd565b602082019050919050565b60006137b3601183613f1a565b91506137be826144e6565b602082019050919050565b60006137d6602083613f1a565b91506137e18261450f565b602082019050919050565b60006137f9600d83613f1a565b915061380482614538565b602082019050919050565b600060808301600083015161382760008601826134f9565b50602083015161383a60208601826134f9565b50604083015184820360408601526138528282613426565b915050606083015161386760608601826138ef565b508091505092915050565b600060a08301600083015161388a600086018261333c565b50602083015161389d602086018261333c565b50604083015184820360408601526138b5828261355f565b915050606083015184820360608601526138cf8282613484565b91505060808301516138e460808601826138ef565b508091505092915050565b6138f881613fd2565b82525050565b61390781613fd2565b82525050565b61391e61391982613fd2565b61415f565b82525050565b6000613930828861335a565b601482019150613940828761335a565b60148201915061395082866135d1565b915061395c828561352e565b9150613968828461390d565b6020820191508190509695505050505050565b60006139878284613517565b60098201915081905092915050565b60006139a2828461352e565b915081905092915050565b60006139b9828561352e565b91506139c5828461352e565b91508190509392505050565b60006139dd82846135d1565b915081905092915050565b60006020820190506139fd600083018461334b565b92915050565b6000608082019050613a18600083018761334b565b613a25602083018661334b565b8181036040830152613a378185613598565b9050613a4660608301846138fe565b95945050505050565b6000617d0082019050613a656000830184613371565b92915050565b60006020820190508181036000830152613a8581846133c8565b905092915050565b6000606082019050613aa26000830186613508565b613aaf6020830185613508565b613abc60408301846138fe565b949350505050565b60006020820190508181036000830152613ade8184613598565b905092915050565b60006020820190508181036000830152613aff81613602565b9050919050565b60006020820190508181036000830152613b1f81613625565b9050919050565b60006020820190508181036000830152613b3f81613648565b9050919050565b60006020820190508181036000830152613b5f8161366b565b9050919050565b60006020820190508181036000830152613b7f8161368e565b9050919050565b60006020820190508181036000830152613b9f816136b1565b9050919050565b60006020820190508181036000830152613bbf816136d4565b9050919050565b60006020820190508181036000830152613bdf816136f7565b9050919050565b60006020820190508181036000830152613bff8161371a565b9050919050565b60006020820190508181036000830152613c1f8161373d565b9050919050565b60006020820190508181036000830152613c3f81613760565b9050919050565b60006020820190508181036000830152613c5f81613783565b9050919050565b60006020820190508181036000830152613c7f816137a6565b9050919050565b60006020820190508181036000830152613c9f816137c9565b9050919050565b60006020820190508181036000830152613cbf816137ec565b9050919050565b60006020820190508181036000830152613ce0818461380f565b905092915050565b60006020820190508181036000830152613d028184613872565b905092915050565b6000602082019050613d1f60008301846138fe565b92915050565b6000613d2f613d40565b9050613d3b82826140b7565b919050565b6000604051905090565b600067ffffffffffffffff821115613d6557613d646141f6565b5b602082029050602081019050919050565b600067ffffffffffffffff821115613d9157613d906141f6565b5b602082029050602081019050919050565b600067ffffffffffffffff821115613dbd57613dbc6141f6565b5b602082029050602081019050919050565b600067ffffffffffffffff821115613de957613de86141f6565b5b613df28261425d565b9050602081019050919050565b6000819050919050565b6000819050602082019050919050565b6000819050602082019050919050565b6000819050602082019050919050565b6000819050602082019050919050565b60006103e89050919050565b600081519050919050565b600081519050919050565b600081519050919050565b600081519050919050565b600081519050919050565b6000602082019050919050565b6000602082019050919050565b6000602082019050919050565b6000602082019050919050565b600081905092915050565b600082825260208201905092915050565b600082825260208201905092915050565b600082825260208201905092915050565b600081905092915050565b600082825260208201905092915050565b600082825260208201905092915050565b600081905092915050565b6000613f4182613fd2565b9150613f4c83613fd2565b925082821015613f5f57613f5e614169565b5b828203905092915050565b6000613f7582613fb2565b9050919050565b6000819050919050565b60007fffffffffffffffffff000000000000000000000000000000000000000000000082169050919050565b600073ffffffffffffffffffffffffffffffffffffffff82169050919050565b6000819050919050565b6000613fe782613e76565b82613ff184613e39565b9050613ffc81614225565b9250600982101561403c576140377fffffffffffffffffff00000000000000000000000000000000000000000000008360090360080261427b565b831692505b5050919050565b82818337600083830152505050565b60005b83811015614070578082015181840152602081019050614055565b8381111561407f576000848401525b50505050565b6000600282049050600182168061409d57607f821691505b602082108114156140b1576140b0614198565b5b50919050565b6140c08261425d565b810181811067ffffffffffffffff821117156140df576140de6141f6565b5b80604052505050565b60006140f382613fd2565b91507fffffffffffffffffffffffffffffffffffffffffffffffffffffffffffffffff82141561412657614125614169565b5b600182019050919050565b600061413c8261414d565b9050919050565b6000819050919050565b60006141588261426e565b9050919050565b6000819050919050565b7f4e487b7100000000000000000000000000000000000000000000000000000000600052601160045260246000fd5b7f4e487b7100000000000000000000000000000000000000000000000000000000600052602260045260246000fd5b7f4e487b7100000000000000000000000000000000000000000000000000000000600052603260045260246000fd5b7f4e487b7100000000000000000000000000000000000000000000000000000000600052604160045260246000fd5b60006142318251613f86565b80915050919050565b600080fd5b600080fd5b600080fd5b600080fd5b600080fd5b600080fd5b600080fd5b6000601f19601f8301169050919050565b60008160601b9050919050565b600082821b905092915050565b7f4e46542077617320616c72656164792076657269666965642e00000000000000600082015250565b7f496e76616c6964206e667420726f6f7420676976656e2e000000000000000000600082015250565b7f4f776e61626c653a206e6577206f776e657220697320746865207a65726f206160008201527f6464726573730000000000000000000000000000000000000000000000000000602082015250565b7f496e76616c6964205f626c6f636b20696e697469616c697a6174696f6e2e0000600082015250565b7f496e636f72726563742070726566697820696e205f6261736555524900000000600082015250565b7f476976656e205f6c65616620646f6573206e6f74206d61746368205f6e66742e600082015250565b7f4e465420636f6e747261637420616c726561647920726571756573746564207660008201527f6572696669636174696f6e2e0000000000000000000000000000000000000000602082015250565b7f496e636f7272656374205f62617365555249206c656e67746800000000000000600082015250565b7f53656e646572206d757374206265206120636f6e747261637400000000000000600082015250565b7f436f6e74726163742069736e27742076657269666965642e0000000000000000600082015250565b7f42617365205552492068617320616c7265616479206265656e20636c61696d6560008201527f642e000000000000000000000000000000000000000000000000000000000000602082015250565b7f4f776e61626c653a2063616c6c6572206973206e6f7420746865206f776e6572600082015250565b7f496e76616c69642052657175657374202e000000000000000000000000000000600082015250565b7f496e76616c696420626c6f636b2068656967687420666f72207375625552492e600082015250565b7f496e76616c69642050726f6f6600000000000000000000000000000000000000600082015250565b61456a81613f6a565b811461457557600080fd5b50565b61458181613f7c565b811461458c57600080fd5b50565b61459881613fd2565b81146145a357600080fd5b5056fea2646970667358221220b89ab465079d319bf4809d148843682fe533a7443a80456ff44188605cf8e2f064736f6c63430008050033",
  "immutableReferences": {},
  "source": "// SPDX-License-Identifier: BUSL-1.1\npragma solidity ^0.8.5;\n\nimport \"@openzeppelin/contracts/access/Ownable.sol\";\n\nimport \"@openzeppelin/contracts/utils/cryptography/MerkleProof.sol\";\n\nimport \"./RatioSingleNFT.sol\";\n\nimport \"@openzeppelin/contracts/utils/Address.sol\";\n\n// Contract to verify nft contracts.\ncontract NFTProtocol is Ownable {\n\n    // Minimum amount to be paid for verificaiton/hosting.\n    uint public minimumRequestValue;\n\n    // Mapping to determine valid NFTs of contract.\n    mapping(address => nftStruct) contractNFT;\n\n    // Mapping to determine contract of a baseURI;\n    mapping(string => address) public baseURIContract;\n\n    // Mapping to determine contract of a subURI;\n    mapping(string => address) public subURIContract;\n\n    // Mapping to determine all contracts verified at one time to a distributor. \n    // WARNING! array may contain contracts containing subURIs not distributed by distributor. \n    // contractNFT will determine if the distributor is the rightful distributor of the NFT!\n    mapping(address => address[]) public distributorContracts; \n\n    // Array to hold all nfts contracts verified at one time.\n    // WARNING! array may contain contracts no longer verified.\n    address[] public nftContracts;\n\n    // mapping to hold contracts that have requested verification.\n    mapping(address => bool) nftRequest;\n\n    // Mapping to hold nft leafs that have been verified.\n    mapping(bytes32 => bool) nftVerified;\n\n    // Structure to hold NFT data.\n    struct nftStruct{\n        address _contract;\n        address _distributor;\n        string _baseURI;\n        string[] _subURIs;\n        uint _block;\n    }\n\n    // Structure to hold nftBlock variables.\n    struct nftBlock{\n        bytes32 _prev;\n        bytes32 _root;\n        bytes32[] _leaves;\n        uint _block;\n    }\n\n    // NFT blockchain...\n    nftBlock[] public nftBlocks;\n\n    // Mapping of block roots to blocks.\n    mapping(bytes32 => nftBlock) public blockMap;\n\n    // Event emitted when a new nft block is submitted.\n    event blockSubmited(nftBlock _block);\n\n    // Event emitted when a verification request is submitted.\n    event verificationRequest(address _contract, address _distributor, string _baseURI, uint _block);\n\n    // Event emitted when an nft has been verifed!\n    event verified(nftStruct _nft);\n\n    // Constructor\n    constructor(uint _minimumRequestValue){\n        minimumRequestValue = _minimumRequestValue;\n        nftBlock memory n = nftBlock(bytes32(0), bytes32(0) , new bytes32[](0), block.number);\n        nftBlocks.push(n);\n    }\n    \n    // Function to requets verificaition of NFT \n    function requestVerification() public payable{\n\n        // Creating RatioSingleNFT contract from requester.\n        RatioSingleNFT ratioNFT = RatioSingleNFT(msg.sender);\n\n        // Contract specification conditions.\n        require(msg.value >= minimumRequestValue, \"Invalid Request .\");\n\n        require(Address.isContract(msg.sender), \"Sender must be a contract\");\n        \n        require(nftRequest[msg.sender] == false, \"NFT contract already requested verification.\");\n\n        require(baseURIContract[ratioNFT.baseURI()] == address(0), \"Base URI has already been claimed.\");\n\n        require(bytes(ratioNFT.baseURI()).length == 53, \"Incorrect _baseURI length\");\n\n        require(uriPrefix(ratioNFT.baseURI()), \"Incorrect prefix in _baseURI\");\n\n        nftRequest[msg.sender] = true;\n\n        // Emit verificationRequest event for Oracle.\n        emit verificationRequest(msg.sender, ratioNFT.distributor() , ratioNFT.baseURI(), block.number);\n    }\n\n    // Function to verify a nft of behalf of Ratio Labs.\n    function verifyNFT(bytes32[] memory _proof, bytes32 _root, bytes32 _leaf, nftStruct memory _nft) public{\n        // require the _root to exist.\n        require(blockMap[_root]._block != 0, \"Invalid nft root given.\");\n\n        // calculate sub URI encoding.\n        bytes memory encoded;\n        for (uint i = 0; i < _nft._subURIs.length; i++) {\n            encoded = bytes.concat(\n                encoded,\n                abi.encodePacked(_nft._subURIs[i])\n            );\n        }\n\n        // require _leaf hash to match _nft hash.\n        require(_leaf == keccak256(abi.encodePacked(_nft._contract, _nft._distributor, _nft._baseURI, encoded, _nft._block)), \"Given _leaf does not match _nft.\");\n        // require _nft is not already verified.\n        require(!nftVerified[_leaf], \"NFT was already verified.\");\n        // require _nft is within _root .\n        require(MerkleProof.verify(_proof, _root, _leaf), \"Invalid Proof\");\n\n        // Verify and Store NFT info.\n        nftVerified[_leaf] = true;\n\n        // Set subURIs contract. \n        for(uint i = 0; i < _nft._subURIs.length; i++){\n            if(subURIContract[_nft._subURIs[i]] != address(0)){\n                require(contractNFT[subURIContract[_nft._subURIs[i]]]._block == 0 || \n                        contractNFT[subURIContract[_nft._subURIs[i]]]._block > _nft._block, \"Invalid block height for subURI.\");\n            }\n            subURIContract[_nft._subURIs[i]] = _nft._contract;\n        }\n\n        // Set contracts NFT;\n        contractNFT[_nft._contract] = _nft;\n\n        // Push nft contract address into nftContracts array.\n        nftContracts.push(_nft._contract);\n\n        // Push contract address into distributor distributorContracts.\n        distributorContracts[_nft._distributor].push(_nft._contract);\n\n        // Set baseURI contract.\n        baseURIContract[_nft._baseURI] = _nft._contract;  \n        \n        // Emit verified event.\n        emit verified(_nft);\n    }\n\n    // Function to submit nft blocks for verified NFTs.\n    function submitBlock(nftBlock memory _block) public onlyOwner{\n        require(_block._block == 0, \"Invalid _block initialization.\");\n        _block._block = block.number;\n        nftBlocks.push(_block);\n        blockMap[_block._root] = nftBlocks[nftBlocks.length-1];\n        emit blockSubmited(_block);\n    }\n\n    // Function to _slashNFTs via Oracle\n    function slashNFTs(address[] memory _contracts) public onlyOwner{\n        for(uint i = 0; i < _contracts.length; i++){\n            delete contractNFT[_contracts[i]];\n        }\n    }\n\n    // Function to slashNFT via public\n    function slashNFT(address _contract) public{\n        require(contractNFT[_contract]._contract != address(0), \"Contract isn't verified.\");\n        RatioSingleNFT rNFT = RatioSingleNFT(_contract);\n        nftStruct memory nStruct = contractNFT[_contract];\n        if(rNFT.distributor() != nStruct._distributor || !compareStrings(rNFT.baseURI(), nStruct._baseURI)){\n            delete contractNFT[_contract];\n        }\n    }\n\n    /**  \n    *** User Helper Functions\n    **/\n    \n    // Function to return latestBlock\n    function latestBlock() public view returns(nftBlock memory _block){\n        return nftBlocks[nftBlocks.length - 1];\n    }\n\n    function getContractNFT(address _contract) public view returns( nftStruct memory _nft){\n        return contractNFT[_contract];\n    }\n\n    function getBaseURIdistributor(string memory _baseURI) public view returns(address _distributor){\n        return contractNFT[baseURIContract[_baseURI]]._distributor;\n    }\n\n    function getSubURIbaseURI(string memory _subURI) public view returns(string memory _baseURI){\n        return contractNFT[subURIContract[_subURI]]._baseURI;\n    }\n\n    function getDistributorContracts(address _distributor) public view returns(address[] memory _contracts){\n        return distributorContracts[_distributor];\n    }\n\n    /**  \n    *** Contract Helper Functions\n    **/\n\n    function uriPrefix(string memory _baseURI) internal pure returns(bool){\n        return  keccak256( abi.encodePacked( bytes9( bytes(_baseURI) ) ) ) == keccak256( abi.encodePacked( bytes9(\"ipfs://Qm\") ) ) ;\n    }\n\n    function compareStrings(string memory _a, string memory _b) internal pure returns(bool){\n        return keccak256( abi.encodePacked( bytes(_a) ) )  == keccak256( abi.encodePacked( bytes(_b) ) );\n    }\n\n    /**  \n    *** Owner Helper Functions\n    **/\n\n    function getContracts(uint _start, uint _end) public view returns(address[1000] memory _contracts){\n        uint n = 0;\n        for(uint i = _start; i <= _end; i++)\n        {\n            _contracts[n] = nftContracts[i];\n            n++;\n        }\n    }\n\n    function modifyRequestValue(uint _val) public onlyOwner{\n        minimumRequestValue = _val;\n    }\n\n    function claim() public{\n        payable(owner()).transfer(address(this).balance);\n    }\n \n}",
  "sourcePath": "/home/stephenstb/Ratio/ratio/contracts/NFTProtocol/NFTProtocol.sol",
  "compiler": {
    "name": "solc",
    "version": "0.8.5+commit.a4f2e591.Emscripten.clang"
  },
  "schemaVersion": "3.3.3",
  "updatedAt": "2022-04-25T22:53:05.633Z",
  "devdoc": {
    "kind": "dev",
    "methods": {
      "owner()": {
        "details": "Returns the address of the current owner."
      },
      "renounceOwnership()": {
        "details": "Leaves the contract without owner. It will not be possible to call `onlyOwner` functions anymore. Can only be called by the current owner. NOTE: Renouncing ownership will leave the contract without an owner, thereby removing any functionality that is only available to the owner."
      },
      "transferOwnership(address)": {
        "details": "Transfers ownership of the contract to a new account (`newOwner`). Can only be called by the current owner."
      }
    },
    "version": 1
  },
  "userdoc": {
    "kind": "user",
    "methods": {
      "getContracts(uint256,uint256)": {
        "notice": "*** Owner Helper Functions*"
      },
      "latestBlock()": {
        "notice": "*** User Helper Functions*"
      }
    },
    "version": 1
  }
}