{
  "contractName": "NFTProtocol",
  "abi": [
    {
      "inputs": [
        {
          "internalType": "uint256",
          "name": "_minimumRequestValue",
          "type": "uint256"
        }
      ],
      "stateMutability": "nonpayable",
      "type": "constructor"
    },
    {
      "anonymous": false,
      "inputs": [
        {
          "indexed": true,
          "internalType": "address",
          "name": "previousOwner",
          "type": "address"
        },
        {
          "indexed": true,
          "internalType": "address",
          "name": "newOwner",
          "type": "address"
        }
      ],
      "name": "OwnershipTransferred",
      "type": "event"
    },
    {
      "anonymous": false,
      "inputs": [
        {
          "components": [
            {
              "internalType": "bytes32",
              "name": "_prev",
              "type": "bytes32"
            },
            {
              "internalType": "bytes32",
              "name": "_root",
              "type": "bytes32"
            },
            {
              "internalType": "string",
              "name": "_leaves",
              "type": "string"
            },
            {
              "internalType": "uint256",
              "name": "_block",
              "type": "uint256"
            }
          ],
          "indexed": false,
          "internalType": "struct NFTProtocol.nftBlock",
          "name": "_block",
          "type": "tuple"
        }
      ],
      "name": "blockSubmitted",
      "type": "event"
    },
    {
      "anonymous": false,
      "inputs": [
        {
          "indexed": false,
          "internalType": "address",
          "name": "_contract",
          "type": "address"
        },
        {
          "indexed": false,
          "internalType": "bool",
          "name": "_slashed",
          "type": "bool"
        }
      ],
      "name": "slash",
      "type": "event"
    },
    {
      "anonymous": false,
      "inputs": [
        {
          "indexed": false,
          "internalType": "address[]",
          "name": "_contracts",
          "type": "address[]"
        }
      ],
      "name": "slashed",
      "type": "event"
    },
    {
      "anonymous": false,
      "inputs": [
        {
          "indexed": false,
          "internalType": "address",
          "name": "_contract",
          "type": "address"
        },
        {
          "indexed": false,
          "internalType": "address",
          "name": "_distributor",
          "type": "address"
        },
        {
          "indexed": false,
          "internalType": "string",
          "name": "_baseURI",
          "type": "string"
        },
        {
          "indexed": false,
          "internalType": "uint256",
          "name": "_block",
          "type": "uint256"
        }
      ],
      "name": "verificationRequest",
      "type": "event"
    },
    {
      "anonymous": false,
      "inputs": [
        {
          "components": [
            {
              "internalType": "address",
              "name": "_contract",
              "type": "address"
            },
            {
              "internalType": "address",
              "name": "_distributor",
              "type": "address"
            },
            {
              "internalType": "string",
              "name": "_baseURI",
              "type": "string"
            },
            {
              "internalType": "string[]",
              "name": "_subURIs",
              "type": "string[]"
            },
            {
              "internalType": "uint256",
              "name": "_block",
              "type": "uint256"
            }
          ],
          "indexed": false,
          "internalType": "struct NFTProtocol.nftStruct",
          "name": "_nft",
          "type": "tuple"
        }
      ],
      "name": "verified",
      "type": "event"
    },
    {
      "inputs": [
        {
          "internalType": "string",
          "name": "",
          "type": "string"
        }
      ],
      "name": "baseURIContract",
      "outputs": [
        {
          "internalType": "address",
          "name": "",
          "type": "address"
        }
      ],
      "stateMutability": "view",
      "type": "function"
    },
    {
      "inputs": [
        {
          "internalType": "bytes32",
          "name": "",
          "type": "bytes32"
        }
      ],
      "name": "blockMap",
      "outputs": [
        {
          "internalType": "bytes32",
          "name": "_prev",
          "type": "bytes32"
        },
        {
          "internalType": "bytes32",
          "name": "_root",
          "type": "bytes32"
        },
        {
          "internalType": "string",
          "name": "_leaves",
          "type": "string"
        },
        {
          "internalType": "uint256",
          "name": "_block",
          "type": "uint256"
        }
      ],
      "stateMutability": "view",
      "type": "function"
    },
    {
      "inputs": [
        {
          "internalType": "address",
          "name": "",
          "type": "address"
        },
        {
          "internalType": "uint256",
          "name": "",
          "type": "uint256"
        }
      ],
      "name": "distributorContracts",
      "outputs": [
        {
          "internalType": "address",
          "name": "",
          "type": "address"
        }
      ],
      "stateMutability": "view",
      "type": "function"
    },
    {
      "inputs": [],
      "name": "minimumRequestValue",
      "outputs": [
        {
          "internalType": "uint256",
          "name": "",
          "type": "uint256"
        }
      ],
      "stateMutability": "view",
      "type": "function"
    },
    {
      "inputs": [
        {
          "internalType": "uint256",
          "name": "",
          "type": "uint256"
        }
      ],
      "name": "nftBlocks",
      "outputs": [
        {
          "internalType": "bytes32",
          "name": "_prev",
          "type": "bytes32"
        },
        {
          "internalType": "bytes32",
          "name": "_root",
          "type": "bytes32"
        },
        {
          "internalType": "string",
          "name": "_leaves",
          "type": "string"
        },
        {
          "internalType": "uint256",
          "name": "_block",
          "type": "uint256"
        }
      ],
      "stateMutability": "view",
      "type": "function"
    },
    {
      "inputs": [
        {
          "internalType": "uint256",
          "name": "",
          "type": "uint256"
        }
      ],
      "name": "nftContracts",
      "outputs": [
        {
          "internalType": "address",
          "name": "",
          "type": "address"
        }
      ],
      "stateMutability": "view",
      "type": "function"
    },
    {
      "inputs": [
        {
          "internalType": "address",
          "name": "",
          "type": "address"
        }
      ],
      "name": "nftSlashed",
      "outputs": [
        {
          "internalType": "bool",
          "name": "",
          "type": "bool"
        }
      ],
      "stateMutability": "view",
      "type": "function"
    },
    {
      "inputs": [],
      "name": "owner",
      "outputs": [
        {
          "internalType": "address",
          "name": "",
          "type": "address"
        }
      ],
      "stateMutability": "view",
      "type": "function"
    },
    {
      "inputs": [],
      "name": "renounceOwnership",
      "outputs": [],
      "stateMutability": "nonpayable",
      "type": "function"
    },
    {
      "inputs": [
        {
          "internalType": "string",
          "name": "",
          "type": "string"
        }
      ],
      "name": "subURIContract",
      "outputs": [
        {
          "internalType": "address",
          "name": "",
          "type": "address"
        }
      ],
      "stateMutability": "view",
      "type": "function"
    },
    {
      "inputs": [
        {
          "internalType": "address",
          "name": "newOwner",
          "type": "address"
        }
      ],
      "name": "transferOwnership",
      "outputs": [],
      "stateMutability": "nonpayable",
      "type": "function"
    },
    {
      "inputs": [],
      "name": "requestVerification",
      "outputs": [],
      "stateMutability": "payable",
      "type": "function"
    },
    {
      "inputs": [
        {
          "internalType": "bytes32[]",
          "name": "_proof",
          "type": "bytes32[]"
        },
        {
          "internalType": "bytes32",
          "name": "_root",
          "type": "bytes32"
        },
        {
          "internalType": "bytes32",
          "name": "_leaf",
          "type": "bytes32"
        },
        {
          "components": [
            {
              "internalType": "address",
              "name": "_contract",
              "type": "address"
            },
            {
              "internalType": "address",
              "name": "_distributor",
              "type": "address"
            },
            {
              "internalType": "string",
              "name": "_baseURI",
              "type": "string"
            },
            {
              "internalType": "string[]",
              "name": "_subURIs",
              "type": "string[]"
            },
            {
              "internalType": "uint256",
              "name": "_block",
              "type": "uint256"
            }
          ],
          "internalType": "struct NFTProtocol.nftStruct",
          "name": "_nft",
          "type": "tuple"
        }
      ],
      "name": "verifyNFT",
      "outputs": [],
      "stateMutability": "nonpayable",
      "type": "function"
    },
    {
      "inputs": [
        {
          "components": [
            {
              "internalType": "bytes32",
              "name": "_prev",
              "type": "bytes32"
            },
            {
              "internalType": "bytes32",
              "name": "_root",
              "type": "bytes32"
            },
            {
              "internalType": "string",
              "name": "_leaves",
              "type": "string"
            },
            {
              "internalType": "uint256",
              "name": "_block",
              "type": "uint256"
            }
          ],
          "internalType": "struct NFTProtocol.nftBlock",
          "name": "_block",
          "type": "tuple"
        }
      ],
      "name": "submitBlock",
      "outputs": [],
      "stateMutability": "nonpayable",
      "type": "function"
    },
    {
      "inputs": [
        {
          "internalType": "address[]",
          "name": "_contracts",
          "type": "address[]"
        }
      ],
      "name": "slashNFTs",
      "outputs": [],
      "stateMutability": "nonpayable",
      "type": "function"
    },
    {
      "inputs": [
        {
          "internalType": "address",
          "name": "_contract",
          "type": "address"
        }
      ],
      "name": "slashNFT",
      "outputs": [],
      "stateMutability": "nonpayable",
      "type": "function"
    },
    {
      "inputs": [],
      "name": "latestBlock",
      "outputs": [
        {
          "components": [
            {
              "internalType": "bytes32",
              "name": "_prev",
              "type": "bytes32"
            },
            {
              "internalType": "bytes32",
              "name": "_root",
              "type": "bytes32"
            },
            {
              "internalType": "string",
              "name": "_leaves",
              "type": "string"
            },
            {
              "internalType": "uint256",
              "name": "_block",
              "type": "uint256"
            }
          ],
          "internalType": "struct NFTProtocol.nftBlock",
          "name": "_block",
          "type": "tuple"
        }
      ],
      "stateMutability": "view",
      "type": "function"
    },
    {
      "inputs": [
        {
          "internalType": "address",
          "name": "_contract",
          "type": "address"
        }
      ],
      "name": "getContractNFT",
      "outputs": [
        {
          "components": [
            {
              "internalType": "address",
              "name": "_contract",
              "type": "address"
            },
            {
              "internalType": "address",
              "name": "_distributor",
              "type": "address"
            },
            {
              "internalType": "string",
              "name": "_baseURI",
              "type": "string"
            },
            {
              "internalType": "string[]",
              "name": "_subURIs",
              "type": "string[]"
            },
            {
              "internalType": "uint256",
              "name": "_block",
              "type": "uint256"
            }
          ],
          "internalType": "struct NFTProtocol.nftStruct",
          "name": "_nft",
          "type": "tuple"
        }
      ],
      "stateMutability": "view",
      "type": "function"
    },
    {
      "inputs": [
        {
          "internalType": "string",
          "name": "_baseURI",
          "type": "string"
        }
      ],
      "name": "getBaseURIdistributor",
      "outputs": [
        {
          "internalType": "address",
          "name": "_distributor",
          "type": "address"
        }
      ],
      "stateMutability": "view",
      "type": "function"
    },
    {
      "inputs": [
        {
          "internalType": "string",
          "name": "_subURI",
          "type": "string"
        }
      ],
      "name": "getSubURIbaseURI",
      "outputs": [
        {
          "internalType": "string",
          "name": "_baseURI",
          "type": "string"
        }
      ],
      "stateMutability": "view",
      "type": "function"
    },
    {
      "inputs": [
        {
          "internalType": "address",
          "name": "_distributor",
          "type": "address"
        }
      ],
      "name": "getDistributorContracts",
      "outputs": [
        {
          "internalType": "address[]",
          "name": "_contracts",
          "type": "address[]"
        }
      ],
      "stateMutability": "view",
      "type": "function"
    },
    {
      "inputs": [],
      "name": "getMinimumRequestValue",
      "outputs": [
        {
          "internalType": "uint256",
          "name": "_minimumRequestValue",
          "type": "uint256"
        }
      ],
      "stateMutability": "view",
      "type": "function"
    },
    {
      "inputs": [
        {
          "internalType": "uint256",
          "name": "_start",
          "type": "uint256"
        },
        {
          "internalType": "uint256",
          "name": "_end",
          "type": "uint256"
        }
      ],
      "name": "getContracts",
      "outputs": [
        {
          "internalType": "address[1000]",
          "name": "_contracts",
          "type": "address[1000]"
        }
      ],
      "stateMutability": "view",
      "type": "function"
    },
    {
      "inputs": [
        {
          "internalType": "uint256",
          "name": "_val",
          "type": "uint256"
        }
      ],
      "name": "modifyRequestValue",
      "outputs": [],
      "stateMutability": "nonpayable",
      "type": "function"
    },
    {
      "inputs": [],
      "name": "claim",
      "outputs": [],
      "stateMutability": "nonpayable",
      "type": "function"
    }
  ],
  "bytecode": "0x60806040523480156200001157600080fd5b506040516200517c3803806200517c83398181016040528101906200003791906200029e565b620000576200004b6200010b60201b60201c565b6200011360201b60201c565b80600181905550600060405180608001604052806000801b81526020016000801b8152602001604051806020016040528060008152508152602001438152509050600a81908060018154018082558091505060019003906000526020600020906004020160009091909190915060008201518160000155602082015181600101556040820151816002019080519060200190620000f6929190620001d7565b5060608201518160030155505050506200035e565b600033905090565b60008060009054906101000a900473ffffffffffffffffffffffffffffffffffffffff169050816000806101000a81548173ffffffffffffffffffffffffffffffffffffffff021916908373ffffffffffffffffffffffffffffffffffffffff1602179055508173ffffffffffffffffffffffffffffffffffffffff168173ffffffffffffffffffffffffffffffffffffffff167f8be0079c531659141344cd1fd0a4f28419497f9722a3daafe3b4186f6b6457e060405160405180910390a35050565b828054620001e590620002da565b90600052602060002090601f01602090048101928262000209576000855562000255565b82601f106200022457805160ff191683800117855562000255565b8280016001018555821562000255579182015b828111156200025457825182559160200191906001019062000237565b5b50905062000264919062000268565b5090565b5b808211156200028357600081600090555060010162000269565b5090565b600081519050620002988162000344565b92915050565b600060208284031215620002b757620002b66200033f565b5b6000620002c78482850162000287565b91505092915050565b6000819050919050565b60006002820490506001821680620002f357607f821691505b602082108114156200030a576200030962000310565b5b50919050565b7f4e487b7100000000000000000000000000000000000000000000000000000000600052602260045260246000fd5b600080fd5b6200034f81620002d0565b81146200035b57600080fd5b50565b614e0e806200036e6000396000f3fe6080604052600436106101665760003560e01c80636f1b31f0116100d1578063bee03c7a1161008a578063e4f1b4c411610064578063e4f1b4c41461056f578063eaac1d1a14610598578063eddebe62146105d5578063f2fde38b146105fe57610166565b8063bee03c7a146104ca578063c0f1f873146104f5578063c492560f1461053257610166565b80636f1b31f0146103a8578063715018a6146103e557806387b21153146103fc5780638da5cb5b1461043957806395e1487d14610464578063a6b8123c1461048d57610166565b806339e9d0611161012357806339e9d061146102945780634436fda7146102bd578063490a3fb8146102e85780634e71d92d14610328578063539975de1461033f57806356080c0d1461037f57610166565b8063012a3bd31461016b57806307e2da96146101a857806307ec3039146101d35780630bb4d82a146101dd5780630f3f77c21461021a57806320c4307514610257575b600080fd5b34801561017757600080fd5b50610192600480360381019061018d9190613a93565b610627565b60405161019f919061420f565b60405180910390f35b3480156101b457600080fd5b506101bd6106f0565b6040516101ca91906144d6565b60405180910390f35b6101db6107eb565b005b3480156101e957600080fd5b5061020460048036038101906101ff9190613a66565b610d66565b604051610211919061417f565b60405180910390f35b34801561022657600080fd5b50610241600480360381019061023c91906137dc565b610da5565b60405161024e919061424d565b60405180910390f35b34801561026357600080fd5b5061027e60048036038101906102799190613836565b610dc5565b60405161028b919061417f565b60405180910390f35b3480156102a057600080fd5b506102bb60048036038101906102b69190613a66565b610e13565b005b3480156102c957600080fd5b506102d2610e99565b6040516102df919061451a565b60405180910390f35b3480156102f457600080fd5b5061030f600480360381019061030a9190613a66565b610ea3565b60405161031f9493929190614268565b60405180910390f35b34801561033457600080fd5b5061033d610f6b565b005b34801561034b57600080fd5b506103666004803603810190610361919061395e565b610fbb565b6040516103769493929190614268565b60405180910390f35b34801561038b57600080fd5b506103a660048036038101906103a191906138bf565b611073565b005b3480156103b457600080fd5b506103cf60048036038101906103ca91906137dc565b6118c8565b6040516103dc91906144f8565b60405180910390f35b3480156103f157600080fd5b506103fa611b42565b005b34801561040857600080fd5b50610423600480360381019061041e919061398b565b611bca565b604051610430919061417f565b60405180910390f35b34801561044557600080fd5b5061044e611c13565b60405161045b919061417f565b60405180910390f35b34801561047057600080fd5b5061048b60048036038101906104869190613876565b611c3c565b005b34801561049957600080fd5b506104b460048036038101906104af919061398b565b611e56565b6040516104c1919061417f565b60405180910390f35b3480156104d657600080fd5b506104df611f00565b6040516104ec919061451a565b60405180910390f35b34801561050157600080fd5b5061051c600480360381019061051791906137dc565b611f06565b604051610529919061422b565b60405180910390f35b34801561053e57600080fd5b506105596004803603810190610554919061398b565b611fd3565b60405161056691906142b4565b60405180910390f35b34801561057b57600080fd5b5061059660048036038101906105919190613a1d565b6120e5565b005b3480156105a457600080fd5b506105bf60048036038101906105ba919061398b565b6122e0565b6040516105cc919061417f565b60405180910390f35b3480156105e157600080fd5b506105fc60048036038101906105f791906137dc565b612329565b005b34801561060a57600080fd5b50610625600480360381019061062091906137dc565b612d32565b005b61062f613096565b6000808490505b8381116106e85760068181548110610651576106506149aa565b5b9060005260206000200160009054906101000a900473ffffffffffffffffffffffffffffffffffffffff1683836103e881106106905761068f6149aa565b5b602002019073ffffffffffffffffffffffffffffffffffffffff16908173ffffffffffffffffffffffffffffffffffffffff168152505081806106d2906148cb565b92505080806106e0906148cb565b915050610636565b505092915050565b6106f86130ba565b600a6001600a8054905061070c919061470d565b8154811061071d5761071c6149aa565b5b9060005260206000209060040201604051806080016040529081600082015481526020016001820154815260200160028201805461075a90614868565b80601f016020809104026020016040519081016040528092919081815260200182805461078690614868565b80156107d35780601f106107a8576101008083540402835291602001916107d3565b820191906000526020600020905b8154815290600101906020018083116107b657829003601f168201915b50505050508152602001600382015481525050905090565b6000339050600154341015610835576040517f08c379a000000000000000000000000000000000000000000000000000000000815260040161082c90614476565b60405180910390fd5b61083e33612e2a565b61087d576040517f08c379a0000000000000000000000000000000000000000000000000000000008152600401610874906143d6565b60405180910390fd5b60001515600760003373ffffffffffffffffffffffffffffffffffffffff1673ffffffffffffffffffffffffffffffffffffffff16815260200190815260200160002060009054906101000a900460ff16151514610910576040517f08c379a000000000000000000000000000000000000000000000000000000000815260040161090790614396565b60405180910390fd5b600073ffffffffffffffffffffffffffffffffffffffff1660038273ffffffffffffffffffffffffffffffffffffffff16636c0360eb6040518163ffffffff1660e01b815260040160006040518083038186803b15801561097057600080fd5b505afa158015610984573d6000803e3d6000fd5b505050506040513d6000823e3d601f19601f820116820180604052508101906109ad91906139d4565b6040516109ba9190614168565b908152602001604051809103902060009054906101000a900473ffffffffffffffffffffffffffffffffffffffff1673ffffffffffffffffffffffffffffffffffffffff1614610a3f576040517f08c379a0000000000000000000000000000000000000000000000000000000008152600401610a3690614416565b60405180910390fd5b60358173ffffffffffffffffffffffffffffffffffffffff16636c0360eb6040518163ffffffff1660e01b815260040160006040518083038186803b158015610a8757600080fd5b505afa158015610a9b573d6000803e3d6000fd5b505050506040513d6000823e3d601f19601f82011682018060405250810190610ac491906139d4565b5114610b05576040517f08c379a0000000000000000000000000000000000000000000000000000000008152600401610afc906143b6565b60405180910390fd5b610b908173ffffffffffffffffffffffffffffffffffffffff16636c0360eb6040518163ffffffff1660e01b815260040160006040518083038186803b158015610b4e57600080fd5b505afa158015610b62573d6000803e3d6000fd5b505050506040513d6000823e3d601f19601f82011682018060405250810190610b8b91906139d4565b612e4d565b610bcf576040517f08c379a0000000000000000000000000000000000000000000000000000000008152600401610bc690614356565b60405180910390fd5b6001600760003373ffffffffffffffffffffffffffffffffffffffff1673ffffffffffffffffffffffffffffffffffffffff16815260200190815260200160002060006101000a81548160ff0219169083151502179055507fb323e7348260c7e224c4076c9dc96a004d173b12b8672023d53d3e424eddfde9338273ffffffffffffffffffffffffffffffffffffffff1663bfe109286040518163ffffffff1660e01b815260040160206040518083038186803b158015610c8f57600080fd5b505afa158015610ca3573d6000803e3d6000fd5b505050506040513d601f19601f82011682018060405250810190610cc79190613809565b8373ffffffffffffffffffffffffffffffffffffffff16636c0360eb6040518163ffffffff1660e01b815260040160006040518083038186803b158015610d0d57600080fd5b505afa158015610d21573d6000803e3d6000fd5b505050506040513d6000823e3d601f19601f82011682018060405250810190610d4a91906139d4565b43604051610d5b949392919061419a565b60405180910390a150565b60068181548110610d7657600080fd5b906000526020600020016000915054906101000a900473ffffffffffffffffffffffffffffffffffffffff1681565b60096020528060005260406000206000915054906101000a900460ff1681565b60056020528160005260406000208181548110610de157600080fd5b906000526020600020016000915091509054906101000a900473ffffffffffffffffffffffffffffffffffffffff1681565b610e1b612ece565b73ffffffffffffffffffffffffffffffffffffffff16610e39611c13565b73ffffffffffffffffffffffffffffffffffffffff1614610e8f576040517f08c379a0000000000000000000000000000000000000000000000000000000008152600401610e8690614436565b60405180910390fd5b8060018190555050565b6000600154905090565b600a8181548110610eb357600080fd5b9060005260206000209060040201600091509050806000015490806001015490806002018054610ee290614868565b80601f0160208091040260200160405190810160405280929190818152602001828054610f0e90614868565b8015610f5b5780601f10610f3057610100808354040283529160200191610f5b565b820191906000526020600020905b815481529060010190602001808311610f3e57829003601f168201915b5050505050908060030154905084565b610f73611c13565b73ffffffffffffffffffffffffffffffffffffffff166108fc479081150290604051600060405180830381858888f19350505050158015610fb8573d6000803e3d6000fd5b50565b600b602052806000526040600020600091509050806000015490806001015490806002018054610fea90614868565b80601f016020809104026020016040519081016040528092919081815260200182805461101690614868565b80156110635780601f1061103857610100808354040283529160200191611063565b820191906000526020600020905b81548152906001019060200180831161104657829003601f168201915b5050505050908060030154905084565b6000600b60008581526020019081526020016000206003015414156110cd576040517f08c379a00000000000000000000000000000000000000000000000000000000081526004016110c4906142f6565b60405180910390fd5b60096000826000015173ffffffffffffffffffffffffffffffffffffffff1673ffffffffffffffffffffffffffffffffffffffff16815260200190815260200160002060009054906101000a900460ff161561115e576040517f08c379a000000000000000000000000000000000000000000000000000000000815260040161115590614456565b60405180910390fd5b606060005b8260600151518110156111e4578183606001518281518110611188576111876149aa565b5b60200260200101516040516020016111a09190614168565b6040516020818303038152906040526040516020016111c0929190614144565b604051602081830303815290604052915080806111dc906148cb565b915050611163565b5081600001518260200151836040015183856080015160405160200161120e9594939291906140bb565b604051602081830303815290604052805190602001208314611265576040517f08c379a000000000000000000000000000000000000000000000000000000000815260040161125c90614376565b60405180910390fd5b6008600084815260200190815260200160002060009054906101000a900460ff16156112c6576040517f08c379a00000000000000000000000000000000000000000000000000000000081526004016112bd906142d6565b60405180910390fd5b6112d1858585612ed6565b611310576040517f08c379a0000000000000000000000000000000000000000000000000000000008152600401611307906144b6565b60405180910390fd5b60016008600085815260200190815260200160002060006101000a81548160ff02191690831515021790555060005b8260600151518110156115fc57600073ffffffffffffffffffffffffffffffffffffffff1660048460600151838151811061137d5761137c6149aa565b5b60200260200101516040516113929190614168565b908152602001604051809103902060009054906101000a900473ffffffffffffffffffffffffffffffffffffffff1673ffffffffffffffffffffffffffffffffffffffff161461156a576000600260006004866060015185815181106113fb576113fa6149aa565b5b60200260200101516040516114109190614168565b908152602001604051809103902060009054906101000a900473ffffffffffffffffffffffffffffffffffffffff1673ffffffffffffffffffffffffffffffffffffffff1673ffffffffffffffffffffffffffffffffffffffff16815260200190815260200160002060040154148061152a57508260800151600260006004866060015185815181106114a6576114a56149aa565b5b60200260200101516040516114bb9190614168565b908152602001604051809103902060009054906101000a900473ffffffffffffffffffffffffffffffffffffffff1673ffffffffffffffffffffffffffffffffffffffff1673ffffffffffffffffffffffffffffffffffffffff16815260200190815260200160002060040154115b611569576040517f08c379a000000000000000000000000000000000000000000000000000000000815260040161156090614496565b60405180910390fd5b5b8260000151600484606001518381518110611588576115876149aa565b5b602002602001015160405161159d9190614168565b908152602001604051809103902060006101000a81548173ffffffffffffffffffffffffffffffffffffffff021916908373ffffffffffffffffffffffffffffffffffffffff16021790555080806115f4906148cb565b91505061133f565b508160026000846000015173ffffffffffffffffffffffffffffffffffffffff1673ffffffffffffffffffffffffffffffffffffffff16815260200190815260200160002060008201518160000160006101000a81548173ffffffffffffffffffffffffffffffffffffffff021916908373ffffffffffffffffffffffffffffffffffffffff16021790555060208201518160010160006101000a81548173ffffffffffffffffffffffffffffffffffffffff021916908373ffffffffffffffffffffffffffffffffffffffff16021790555060408201518160020190805190602001906116eb9291906130e8565b50606082015181600301908051906020019061170892919061316e565b5060808201518160040155905050600682600001519080600181540180825580915050600190039060005260206000200160009091909190916101000a81548173ffffffffffffffffffffffffffffffffffffffff021916908373ffffffffffffffffffffffffffffffffffffffff16021790555060056000836020015173ffffffffffffffffffffffffffffffffffffffff1673ffffffffffffffffffffffffffffffffffffffff16815260200190815260200160002082600001519080600181540180825580915050600190039060005260206000200160009091909190916101000a81548173ffffffffffffffffffffffffffffffffffffffff021916908373ffffffffffffffffffffffffffffffffffffffff16021790555081600001516003836040015160405161183e9190614168565b908152602001604051809103902060006101000a81548173ffffffffffffffffffffffffffffffffffffffff021916908373ffffffffffffffffffffffffffffffffffffffff1602179055507f5561a5c1fa7cc43b37c32cd6d1c219c152a96eef77b24203b49ccd6239a1e624826040516118b991906144f8565b60405180910390a15050505050565b6118d06131ce565b600260008373ffffffffffffffffffffffffffffffffffffffff1673ffffffffffffffffffffffffffffffffffffffff1681526020019081526020016000206040518060a00160405290816000820160009054906101000a900473ffffffffffffffffffffffffffffffffffffffff1673ffffffffffffffffffffffffffffffffffffffff1673ffffffffffffffffffffffffffffffffffffffff1681526020016001820160009054906101000a900473ffffffffffffffffffffffffffffffffffffffff1673ffffffffffffffffffffffffffffffffffffffff1673ffffffffffffffffffffffffffffffffffffffff1681526020016002820180546119d690614868565b80601f0160208091040260200160405190810160405280929190818152602001828054611a0290614868565b8015611a4f5780601f10611a2457610100808354040283529160200191611a4f565b820191906000526020600020905b815481529060010190602001808311611a3257829003601f168201915b5050505050815260200160038201805480602002602001604051908101604052809291908181526020016000905b82821015611b29578382906000526020600020018054611a9c90614868565b80601f0160208091040260200160405190810160405280929190818152602001828054611ac890614868565b8015611b155780601f10611aea57610100808354040283529160200191611b15565b820191906000526020600020905b815481529060010190602001808311611af857829003601f168201915b505050505081526020019060010190611a7d565b5050505081526020016004820154815250509050919050565b611b4a612ece565b73ffffffffffffffffffffffffffffffffffffffff16611b68611c13565b73ffffffffffffffffffffffffffffffffffffffff1614611bbe576040517f08c379a0000000000000000000000000000000000000000000000000000000008152600401611bb590614436565b60405180910390fd5b611bc86000612eed565b565b6003818051602081018201805184825260208301602085012081835280955050505050506000915054906101000a900473ffffffffffffffffffffffffffffffffffffffff1681565b60008060009054906101000a900473ffffffffffffffffffffffffffffffffffffffff16905090565b611c44612ece565b73ffffffffffffffffffffffffffffffffffffffff16611c62611c13565b73ffffffffffffffffffffffffffffffffffffffff1614611cb8576040517f08c379a0000000000000000000000000000000000000000000000000000000008152600401611caf90614436565b60405180910390fd5b60005b8151811015611e1b5760026000838381518110611cdb57611cda6149aa565b5b602002602001015173ffffffffffffffffffffffffffffffffffffffff1673ffffffffffffffffffffffffffffffffffffffff168152602001908152602001600020600080820160006101000a81549073ffffffffffffffffffffffffffffffffffffffff02191690556001820160006101000a81549073ffffffffffffffffffffffffffffffffffffffff0219169055600282016000611d7c9190613229565b600382016000611d8c9190613269565b60048201600090555050600160096000848481518110611daf57611dae6149aa565b5b602002602001015173ffffffffffffffffffffffffffffffffffffffff1673ffffffffffffffffffffffffffffffffffffffff16815260200190815260200160002060006101000a81548160ff0219169083151502179055508080611e13906148cb565b915050611cbb565b507fba539ddaf32810453d74c00979a5b195cabeec6d1dd6ec2ba2ea6c5be40fe2c381604051611e4b919061422b565b60405180910390a150565b600060026000600384604051611e6c9190614168565b908152602001604051809103902060009054906101000a900473ffffffffffffffffffffffffffffffffffffffff1673ffffffffffffffffffffffffffffffffffffffff1673ffffffffffffffffffffffffffffffffffffffff16815260200190815260200160002060010160009054906101000a900473ffffffffffffffffffffffffffffffffffffffff169050919050565b60015481565b6060600560008373ffffffffffffffffffffffffffffffffffffffff1673ffffffffffffffffffffffffffffffffffffffff168152602001908152602001600020805480602002602001604051908101604052809291908181526020018280548015611fc757602002820191906000526020600020905b8160009054906101000a900473ffffffffffffffffffffffffffffffffffffffff1673ffffffffffffffffffffffffffffffffffffffff1681526020019060010190808311611f7d575b50505050509050919050565b606060026000600484604051611fe99190614168565b908152602001604051809103902060009054906101000a900473ffffffffffffffffffffffffffffffffffffffff1673ffffffffffffffffffffffffffffffffffffffff1673ffffffffffffffffffffffffffffffffffffffff168152602001908152602001600020600201805461206090614868565b80601f016020809104026020016040519081016040528092919081815260200182805461208c90614868565b80156120d95780601f106120ae576101008083540402835291602001916120d9565b820191906000526020600020905b8154815290600101906020018083116120bc57829003601f168201915b50505050509050919050565b6120ed612ece565b73ffffffffffffffffffffffffffffffffffffffff1661210b611c13565b73ffffffffffffffffffffffffffffffffffffffff1614612161576040517f08c379a000000000000000000000000000000000000000000000000000000000815260040161215890614436565b60405180910390fd5b60008160600151146121a8576040517f08c379a000000000000000000000000000000000000000000000000000000000815260040161219f90614336565b60405180910390fd5b43816060018181525050600a8190806001815401808255809150506001900390600052602060002090600402016000909190919091506000820151816000015560208201518160010155604082015181600201908051906020019061220e9291906130e8565b50606082015181600301555050600a6001600a8054905061222f919061470d565b815481106122405761223f6149aa565b5b9060005260206000209060040201600b6000836020015181526020019081526020016000206000820154816000015560018201548160010155600282018160020190805461228d90614868565b61229892919061328a565b50600382015481600301559050507ff0f7a747ddd719a9ee54b88bf6dcb480f8a468f59efc9b9a2b5d1da647488fff816040516122d591906144d6565b60405180910390a150565b6004818051602081018201805184825260208301602085012081835280955050505050506000915054906101000a900473ffffffffffffffffffffffffffffffffffffffff1681565b600073ffffffffffffffffffffffffffffffffffffffff16600260008373ffffffffffffffffffffffffffffffffffffffff1673ffffffffffffffffffffffffffffffffffffffff16815260200190815260200160002060000160009054906101000a900473ffffffffffffffffffffffffffffffffffffffff1673ffffffffffffffffffffffffffffffffffffffff1614156123fb576040517f08c379a00000000000000000000000000000000000000000000000000000000081526004016123f2906143f6565b60405180910390fd5b60008190506000600260008473ffffffffffffffffffffffffffffffffffffffff1673ffffffffffffffffffffffffffffffffffffffff1681526020019081526020016000206040518060a00160405290816000820160009054906101000a900473ffffffffffffffffffffffffffffffffffffffff1673ffffffffffffffffffffffffffffffffffffffff1673ffffffffffffffffffffffffffffffffffffffff1681526020016001820160009054906101000a900473ffffffffffffffffffffffffffffffffffffffff1673ffffffffffffffffffffffffffffffffffffffff1673ffffffffffffffffffffffffffffffffffffffff16815260200160028201805461250890614868565b80601f016020809104026020016040519081016040528092919081815260200182805461253490614868565b80156125815780601f1061255657610100808354040283529160200191612581565b820191906000526020600020905b81548152906001019060200180831161256457829003601f168201915b5050505050815260200160038201805480602002602001604051908101604052809291908181526020016000905b8282101561265b5783829060005260206000200180546125ce90614868565b80601f01602080910402602001604051908101604052809291908181526020018280546125fa90614868565b80156126475780601f1061261c57610100808354040283529160200191612647565b820191906000526020600020905b81548152906001019060200180831161262a57829003601f168201915b5050505050815260200190600101906125af565b5050505081526020016004820154815250509050806020015173ffffffffffffffffffffffffffffffffffffffff168273ffffffffffffffffffffffffffffffffffffffff1663bfe109286040518163ffffffff1660e01b815260040160206040518083038186803b1580156126d057600080fd5b505afa1580156126e4573d6000803e3d6000fd5b505050506040513d601f19601f820116820180604052508101906127089190613809565b73ffffffffffffffffffffffffffffffffffffffff161415806127b857506127b68273ffffffffffffffffffffffffffffffffffffffff16636c0360eb6040518163ffffffff1660e01b815260040160006040518083038186803b15801561276f57600080fd5b505afa158015612783573d6000803e3d6000fd5b505050506040513d6000823e3d601f19601f820116820180604052508101906127ac91906139d4565b8260400151612fb1565b155b1561290e57600260008473ffffffffffffffffffffffffffffffffffffffff1673ffffffffffffffffffffffffffffffffffffffff168152602001908152602001600020600080820160006101000a81549073ffffffffffffffffffffffffffffffffffffffff02191690556001820160006101000a81549073ffffffffffffffffffffffffffffffffffffffff021916905560028201600061285b9190613229565b60038201600061286b9190613269565b600482016000905550506001600960008573ffffffffffffffffffffffffffffffffffffffff1673ffffffffffffffffffffffffffffffffffffffff16815260200190815260200160002060006101000a81548160ff0219169083151502179055507fc83d337c31cfcd8cacc7348a17d617a3876d704791d0b41c7eb8ff2c526adfe18360016040516128ff9291906141e6565b60405180910390a15050612d2f565b600060405180608001604052808473ffffffffffffffffffffffffffffffffffffffff1663f3ccaac06040518163ffffffff1660e01b815260040160006040518083038186803b15801561296157600080fd5b505afa158015612975573d6000803e3d6000fd5b505050506040513d6000823e3d601f19601f8201168201806040525081019061299e91906139d4565b81526020018473ffffffffffffffffffffffffffffffffffffffff1663407d22366040518163ffffffff1660e01b815260040160006040518083038186803b1580156129e957600080fd5b505afa1580156129fd573d6000803e3d6000fd5b505050506040513d6000823e3d601f19601f82011682018060405250810190612a2691906139d4565b81526020018473ffffffffffffffffffffffffffffffffffffffff166311b006176040518163ffffffff1660e01b815260040160006040518083038186803b158015612a7157600080fd5b505afa158015612a85573d6000803e3d6000fd5b505050506040513d6000823e3d601f19601f82011682018060405250810190612aae91906139d4565b81526020018473ffffffffffffffffffffffffffffffffffffffff16630ad9d0526040518163ffffffff1660e01b815260040160006040518083038186803b158015612af957600080fd5b505afa158015612b0d573d6000803e3d6000fd5b505050506040513d6000823e3d601f19601f82011682018060405250810190612b3691906139d4565b815250905060005b6004811015612cf057612b86828260048110612b5d57612b5c6149aa565b5b602002015184606001518381518110612b7957612b786149aa565b5b6020026020010151612fb1565b612cdd57600260008673ffffffffffffffffffffffffffffffffffffffff1673ffffffffffffffffffffffffffffffffffffffff168152602001908152602001600020600080820160006101000a81549073ffffffffffffffffffffffffffffffffffffffff02191690556001820160006101000a81549073ffffffffffffffffffffffffffffffffffffffff0219169055600282016000612c289190613229565b600382016000612c389190613269565b600482016000905550506001600960008773ffffffffffffffffffffffffffffffffffffffff1673ffffffffffffffffffffffffffffffffffffffff16815260200190815260200160002060006101000a81548160ff0219169083151502179055507fc83d337c31cfcd8cacc7348a17d617a3876d704791d0b41c7eb8ff2c526adfe1856001604051612ccc9291906141e6565b60405180910390a150505050612d2f565b8080612ce8906148cb565b915050612b3e565b507fc83d337c31cfcd8cacc7348a17d617a3876d704791d0b41c7eb8ff2c526adfe1846000604051612d239291906141e6565b60405180910390a15050505b50565b612d3a612ece565b73ffffffffffffffffffffffffffffffffffffffff16612d58611c13565b73ffffffffffffffffffffffffffffffffffffffff1614612dae576040517f08c379a0000000000000000000000000000000000000000000000000000000008152600401612da590614436565b60405180910390fd5b600073ffffffffffffffffffffffffffffffffffffffff168173ffffffffffffffffffffffffffffffffffffffff161415612e1e576040517f08c379a0000000000000000000000000000000000000000000000000000000008152600401612e1590614316565b60405180910390fd5b612e2781612eed565b50565b6000808273ffffffffffffffffffffffffffffffffffffffff163b119050919050565b60007f697066733a2f2f516d0000000000000000000000000000000000000000000000604051602001612e809190614112565b6040516020818303038152906040528051906020012082612ea0906147bf565b604051602001612eb09190614112565b60405160208183030381529060405280519060200120149050919050565b600033905090565b600082612ee3858461300a565b1490509392505050565b60008060009054906101000a900473ffffffffffffffffffffffffffffffffffffffff169050816000806101000a81548173ffffffffffffffffffffffffffffffffffffffff021916908373ffffffffffffffffffffffffffffffffffffffff1602179055508173ffffffffffffffffffffffffffffffffffffffff168173ffffffffffffffffffffffffffffffffffffffff167f8be0079c531659141344cd1fd0a4f28419497f9722a3daafe3b4186f6b6457e060405160405180910390a35050565b600081604051602001612fc4919061412d565b6040516020818303038152906040528051906020012083604051602001612feb919061412d565b6040516020818303038152906040528051906020012014905092915050565b60008082905060005b8451811015613074576000858281518110613031576130306149aa565b5b602002602001015190508083116130535761304c838261307f565b9250613060565b61305d818461307f565b92505b50808061306c906148cb565b915050613013565b508091505092915050565b600082600052816020526040600020905092915050565b60405180617d0001604052806103e890602082028036833780820191505090505090565b6040518060800160405280600080191681526020016000801916815260200160608152602001600081525090565b8280546130f490614868565b90600052602060002090601f016020900481019282613116576000855561315d565b82601f1061312f57805160ff191683800117855561315d565b8280016001018555821561315d579182015b8281111561315c578251825591602001919060010190613141565b5b50905061316a9190613317565b5090565b8280548282559060005260206000209081019282156131bd579160200282015b828111156131bc5782518290805190602001906131ac9291906130e8565b509160200191906001019061318e565b5b5090506131ca9190613334565b5090565b6040518060a00160405280600073ffffffffffffffffffffffffffffffffffffffff168152602001600073ffffffffffffffffffffffffffffffffffffffff1681526020016060815260200160608152602001600081525090565b50805461323590614868565b6000825580601f106132475750613266565b601f0160209004906000526020600020908101906132659190613317565b5b50565b50805460008255906000526020600020908101906132879190613334565b50565b82805461329690614868565b90600052602060002090601f0160209004810192826132b85760008555613306565b82601f106132c95780548555613306565b8280016001018555821561330657600052602060002091601f016020900482015b828111156133055782548255916001019190600101906132ea565b5b5090506133139190613317565b5090565b5b80821115613330576000816000905550600101613318565b5090565b5b80821115613354576000818161334b9190613229565b50600101613335565b5090565b600061336b6133668461455a565b614535565b9050808382526020820190508285602086028201111561338e5761338d614a2c565b5b60005b858110156133be57816133a4888261354a565b845260208401935060208301925050600181019050613391565b5050509392505050565b60006133db6133d684614586565b614535565b905080838252602082019050828560208602820111156133fe576133fd614a2c565b5b60005b8581101561342e578161341488826135fe565b845260208401935060208301925050600181019050613401565b5050509392505050565b600061344b613446846145b2565b614535565b9050808382526020820190508285602086028201111561346e5761346d614a2c565b5b60005b858110156134bc57813567ffffffffffffffff81111561349457613493614a1d565b5b8086016134a18982613613565b85526020850194506020840193505050600181019050613471565b5050509392505050565b60006134d96134d4846145de565b614535565b9050828152602081018484840111156134f5576134f4614a31565b5b613500848285614826565b509392505050565b600061351b613516846145de565b614535565b90508281526020810184848401111561353757613536614a31565b5b613542848285614835565b509392505050565b60008135905061355981614d93565b92915050565b60008151905061356e81614d93565b92915050565b600082601f83011261358957613588614a1d565b5b8135613599848260208601613358565b91505092915050565b600082601f8301126135b7576135b6614a1d565b5b81356135c78482602086016133c8565b91505092915050565b600082601f8301126135e5576135e4614a1d565b5b81356135f5848260208601613438565b91505092915050565b60008135905061360d81614daa565b92915050565b600082601f83011261362857613627614a1d565b5b81356136388482602086016134c6565b91505092915050565b600082601f83011261365657613655614a1d565b5b8151613666848260208601613508565b91505092915050565b60006080828403121561368557613684614a22565b5b61368f6080614535565b9050600061369f848285016135fe565b60008301525060206136b3848285016135fe565b602083015250604082013567ffffffffffffffff8111156136d7576136d6614a27565b5b6136e384828501613613565b60408301525060606136f7848285016137c7565b60608301525092915050565b600060a0828403121561371957613718614a22565b5b61372360a0614535565b905060006137338482850161354a565b60008301525060206137478482850161354a565b602083015250604082013567ffffffffffffffff81111561376b5761376a614a27565b5b61377784828501613613565b604083015250606082013567ffffffffffffffff81111561379b5761379a614a27565b5b6137a7848285016135d0565b60608301525060806137bb848285016137c7565b60808301525092915050565b6000813590506137d681614dc1565b92915050565b6000602082840312156137f2576137f1614a3b565b5b60006138008482850161354a565b91505092915050565b60006020828403121561381f5761381e614a3b565b5b600061382d8482850161355f565b91505092915050565b6000806040838503121561384d5761384c614a3b565b5b600061385b8582860161354a565b925050602061386c858286016137c7565b9150509250929050565b60006020828403121561388c5761388b614a3b565b5b600082013567ffffffffffffffff8111156138aa576138a9614a36565b5b6138b684828501613574565b91505092915050565b600080600080608085870312156138d9576138d8614a3b565b5b600085013567ffffffffffffffff8111156138f7576138f6614a36565b5b613903878288016135a2565b9450506020613914878288016135fe565b9350506040613925878288016135fe565b925050606085013567ffffffffffffffff81111561394657613945614a36565b5b61395287828801613703565b91505092959194509250565b60006020828403121561397457613973614a3b565b5b6000613982848285016135fe565b91505092915050565b6000602082840312156139a1576139a0614a3b565b5b600082013567ffffffffffffffff8111156139bf576139be614a36565b5b6139cb84828501613613565b91505092915050565b6000602082840312156139ea576139e9614a3b565b5b600082015167ffffffffffffffff811115613a0857613a07614a36565b5b613a1484828501613641565b91505092915050565b600060208284031215613a3357613a32614a3b565b5b600082013567ffffffffffffffff811115613a5157613a50614a36565b5b613a5d8482850161366f565b91505092915050565b600060208284031215613a7c57613a7b614a3b565b5b6000613a8a848285016137c7565b91505092915050565b60008060408385031215613aaa57613aa9614a3b565b5b6000613ab8858286016137c7565b9250506020613ac9858286016137c7565b9150509250929050565b6000613adf8383613aff565b60208301905092915050565b6000613af78383613cd3565b905092915050565b613b0881614741565b82525050565b613b1781614741565b82525050565b613b2e613b2982614741565b614914565b82525050565b613b3d81614649565b613b4781846146a8565b9250613b528261460f565b8060005b83811015613b83578151613b6a8782613ad3565b9650613b7583614681565b925050600181019050613b56565b505050505050565b6000613b9682614655565b613ba081856146b3565b9350613bab83614619565b8060005b83811015613bdc578151613bc38882613ad3565b9750613bce8361468e565b925050600181019050613baf565b5085935050505092915050565b6000613bf482614660565b613bfe81856146c4565b935083602082028501613c1085614629565b8060005b85811015613c4c5784840389528151613c2d8582613aeb565b9450613c388361469b565b925060208a01995050600181019050613c14565b50829750879550505050505092915050565b613c6781614753565b82525050565b613c768161475f565b82525050565b613c858161475f565b82525050565b613c9c613c9782614769565b614926565b82525050565b6000613cad8261466b565b613cb781856146d5565b9350613cc7818560208601614835565b80840191505092915050565b6000613cde82614676565b613ce881856146e0565b9350613cf8818560208601614835565b613d0181614a40565b840191505092915050565b6000613d1782614676565b613d2181856146f1565b9350613d31818560208601614835565b613d3a81614a40565b840191505092915050565b6000613d5082614676565b613d5a8185614702565b9350613d6a818560208601614835565b80840191505092915050565b6000613d836019836146f1565b9150613d8e82614a6b565b602082019050919050565b6000613da66017836146f1565b9150613db182614a94565b602082019050919050565b6000613dc96026836146f1565b9150613dd482614abd565b604082019050919050565b6000613dec601e836146f1565b9150613df782614b0c565b602082019050919050565b6000613e0f601c836146f1565b9150613e1a82614b35565b602082019050919050565b6000613e326020836146f1565b9150613e3d82614b5e565b602082019050919050565b6000613e55602c836146f1565b9150613e6082614b87565b604082019050919050565b6000613e786019836146f1565b9150613e8382614bd6565b602082019050919050565b6000613e9b6019836146f1565b9150613ea682614bff565b602082019050919050565b6000613ebe6018836146f1565b9150613ec982614c28565b602082019050919050565b6000613ee16022836146f1565b9150613eec82614c51565b604082019050919050565b6000613f046020836146f1565b9150613f0f82614ca0565b602082019050919050565b6000613f276026836146f1565b9150613f3282614cc9565b604082019050919050565b6000613f4a6011836146f1565b9150613f5582614d18565b602082019050919050565b6000613f6d6020836146f1565b9150613f7882614d41565b602082019050919050565b6000613f90600d836146f1565b9150613f9b82614d6a565b602082019050919050565b6000608083016000830151613fbe6000860182613c6d565b506020830151613fd16020860182613c6d565b5060408301518482036040860152613fe98282613cd3565b9150506060830151613ffe6060860182614086565b508091505092915050565b600060a0830160008301516140216000860182613aff565b5060208301516140346020860182613aff565b506040830151848203604086015261404c8282613cd3565b915050606083015184820360608601526140668282613be9565b915050608083015161407b6080860182614086565b508091505092915050565b61408f816147b5565b82525050565b61409e816147b5565b82525050565b6140b56140b0826147b5565b614942565b82525050565b60006140c78288613b1d565b6014820191506140d78287613b1d565b6014820191506140e78286613d45565b91506140f38285613ca2565b91506140ff82846140a4565b6020820191508190509695505050505050565b600061411e8284613c8b565b60098201915081905092915050565b60006141398284613ca2565b915081905092915050565b60006141508285613ca2565b915061415c8284613ca2565b91508190509392505050565b60006141748284613d45565b915081905092915050565b60006020820190506141946000830184613b0e565b92915050565b60006080820190506141af6000830187613b0e565b6141bc6020830186613b0e565b81810360408301526141ce8185613d0c565b90506141dd6060830184614095565b95945050505050565b60006040820190506141fb6000830185613b0e565b6142086020830184613c5e565b9392505050565b6000617d00820190506142256000830184613b34565b92915050565b600060208201905081810360008301526142458184613b8b565b905092915050565b60006020820190506142626000830184613c5e565b92915050565b600060808201905061427d6000830187613c7c565b61428a6020830186613c7c565b818103604083015261429c8185613d0c565b90506142ab6060830184614095565b95945050505050565b600060208201905081810360008301526142ce8184613d0c565b905092915050565b600060208201905081810360008301526142ef81613d76565b9050919050565b6000602082019050818103600083015261430f81613d99565b9050919050565b6000602082019050818103600083015261432f81613dbc565b9050919050565b6000602082019050818103600083015261434f81613ddf565b9050919050565b6000602082019050818103600083015261436f81613e02565b9050919050565b6000602082019050818103600083015261438f81613e25565b9050919050565b600060208201905081810360008301526143af81613e48565b9050919050565b600060208201905081810360008301526143cf81613e6b565b9050919050565b600060208201905081810360008301526143ef81613e8e565b9050919050565b6000602082019050818103600083015261440f81613eb1565b9050919050565b6000602082019050818103600083015261442f81613ed4565b9050919050565b6000602082019050818103600083015261444f81613ef7565b9050919050565b6000602082019050818103600083015261446f81613f1a565b9050919050565b6000602082019050818103600083015261448f81613f3d565b9050919050565b600060208201905081810360008301526144af81613f60565b9050919050565b600060208201905081810360008301526144cf81613f83565b9050919050565b600060208201905081810360008301526144f08184613fa6565b905092915050565b600060208201905081810360008301526145128184614009565b905092915050565b600060208201905061452f6000830184614095565b92915050565b600061453f614550565b905061454b828261489a565b919050565b6000604051905090565b600067ffffffffffffffff821115614575576145746149d9565b5b602082029050602081019050919050565b600067ffffffffffffffff8211156145a1576145a06149d9565b5b602082029050602081019050919050565b600067ffffffffffffffff8211156145cd576145cc6149d9565b5b602082029050602081019050919050565b600067ffffffffffffffff8211156145f9576145f86149d9565b5b61460282614a40565b9050602081019050919050565b6000819050919050565b6000819050602082019050919050565b6000819050602082019050919050565b6000819050602082019050919050565b60006103e89050919050565b600081519050919050565b600081519050919050565b600081519050919050565b600081519050919050565b6000602082019050919050565b6000602082019050919050565b6000602082019050919050565b600081905092915050565b600082825260208201905092915050565b600082825260208201905092915050565b600081905092915050565b600082825260208201905092915050565b600082825260208201905092915050565b600081905092915050565b6000614718826147b5565b9150614723836147b5565b9250828210156147365761473561494c565b5b828203905092915050565b600061474c82614795565b9050919050565b60008115159050919050565b6000819050919050565b60007fffffffffffffffffff000000000000000000000000000000000000000000000082169050919050565b600073ffffffffffffffffffffffffffffffffffffffff82169050919050565b6000819050919050565b60006147ca8261466b565b826147d484614639565b90506147df81614a08565b9250600982101561481f5761481a7fffffffffffffffffff000000000000000000000000000000000000000000000083600903600802614a5e565b831692505b5050919050565b82818337600083830152505050565b60005b83811015614853578082015181840152602081019050614838565b83811115614862576000848401525b50505050565b6000600282049050600182168061488057607f821691505b602082108114156148945761489361497b565b5b50919050565b6148a382614a40565b810181811067ffffffffffffffff821117156148c2576148c16149d9565b5b80604052505050565b60006148d6826147b5565b91507fffffffffffffffffffffffffffffffffffffffffffffffffffffffffffffffff8214156149095761490861494c565b5b600182019050919050565b600061491f82614930565b9050919050565b6000819050919050565b600061493b82614a51565b9050919050565b6000819050919050565b7f4e487b7100000000000000000000000000000000000000000000000000000000600052601160045260246000fd5b7f4e487b7100000000000000000000000000000000000000000000000000000000600052602260045260246000fd5b7f4e487b7100000000000000000000000000000000000000000000000000000000600052603260045260246000fd5b7f4e487b7100000000000000000000000000000000000000000000000000000000600052604160045260246000fd5b6000614a148251614769565b80915050919050565b600080fd5b600080fd5b600080fd5b600080fd5b600080fd5b600080fd5b600080fd5b6000601f19601f8301169050919050565b60008160601b9050919050565b600082821b905092915050565b7f4e46542077617320616c72656164792076657269666965642e00000000000000600082015250565b7f496e76616c6964206e667420726f6f7420676976656e2e000000000000000000600082015250565b7f4f776e61626c653a206e6577206f776e657220697320746865207a65726f206160008201527f6464726573730000000000000000000000000000000000000000000000000000602082015250565b7f496e76616c6964205f626c6f636b20696e697469616c697a6174696f6e2e0000600082015250565b7f496e636f72726563742070726566697820696e205f6261736555524900000000600082015250565b7f476976656e205f6c65616620646f6573206e6f74206d61746368205f6e66742e600082015250565b7f4e465420636f6e747261637420616c726561647920726571756573746564207660008201527f6572696669636174696f6e2e0000000000000000000000000000000000000000602082015250565b7f496e636f7272656374205f62617365555249206c656e67746800000000000000600082015250565b7f53656e646572206d757374206265206120636f6e747261637400000000000000600082015250565b7f436f6e74726163742069736e27742076657269666965642e0000000000000000600082015250565b7f42617365205552492068617320616c7265616479206265656e20636c61696d6560008201527f642e000000000000000000000000000000000000000000000000000000000000602082015250565b7f4f776e61626c653a2063616c6c6572206973206e6f7420746865206f776e6572600082015250565b7f4e465420636f6e74726163742068617320616c7265616479206265656e20736c60008201527f61736865642e0000000000000000000000000000000000000000000000000000602082015250565b7f496e76616c69642052657175657374202e000000000000000000000000000000600082015250565b7f496e76616c696420626c6f636b2068656967687420666f72207375625552492e600082015250565b7f496e76616c69642050726f6f6600000000000000000000000000000000000000600082015250565b614d9c81614741565b8114614da757600080fd5b50565b614db38161475f565b8114614dbe57600080fd5b50565b614dca816147b5565b8114614dd557600080fd5b5056fea26469706673582212208e7aefa8de07b0c20388f2e2c31732232ff629e2eb44868fc5631238d93b865c64736f6c63430008050033",
  "immutableReferences": {},
  "source": "// SPDX-License-Identifier: BUSL-1.1\npragma solidity ^0.8.5;\n\nimport \"@openzeppelin/contracts/access/Ownable.sol\";\n\nimport \"@openzeppelin/contracts/utils/cryptography/MerkleProof.sol\";\n\nimport \"./RatioSingleNFT.sol\";\n\nimport \"@openzeppelin/contracts/utils/Address.sol\";\n\n// Contract to verify nft contracts.\ncontract NFTProtocol is Ownable {\n\n    // Minimum amount to be paid for verificaiton/hosting.\n    uint public minimumRequestValue;\n\n    // Mapping to determine valid NFTs of contract.\n    mapping(address => nftStruct) contractNFT;\n\n    // Mapping to determine contract of a baseURI;\n    mapping(string => address) public baseURIContract;\n\n    // Mapping to determine contract of a subURI;\n    mapping(string => address) public subURIContract;\n\n    // Mapping to determine all contracts verified at one time to a distributor. \n    // WARNING! array may contain contracts containing subURIs not distributed by distributor. \n    // contractNFT will determine if the distributor is the rightful distributor of the NFT!\n    mapping(address => address[]) public distributorContracts; \n\n    // Array to hold all nfts contracts verified at one time.\n    // WARNING! array may contain contracts no longer verified.\n    address[] public nftContracts;\n\n    // mapping to hold contracts that have requested verification.\n    mapping(address => bool) nftRequest;\n\n    // Mapping to hold nft leafs that have been verified.\n    mapping(bytes32 => bool) nftVerified;\n\n    // Mapping to hold contracts that have been slashed.\n    mapping(address => bool) public nftSlashed;\n\n    // Structure to hold NFT data.\n    struct nftStruct{\n        address _contract;\n        address _distributor;\n        string _baseURI;\n        string[] _subURIs;\n        uint _block;\n    }\n\n    // Structure to hold nftBlock variables.\n    struct nftBlock{\n        bytes32 _prev;\n        bytes32 _root;\n        string _leaves;\n        uint _block;\n    }\n\n    // NFT blockchain...\n    nftBlock[] public nftBlocks;\n\n    // Mapping of block roots to blocks.\n    mapping(bytes32 => nftBlock) public blockMap;\n\n    // Event emitted when a new nft block is submitted.\n    event blockSubmitted(nftBlock _block);\n\n    // Event emitted when a verification request is submitted.\n    event verificationRequest(address _contract, address _distributor, string _baseURI, uint _block);\n\n    // Event emitted when an nft has been verifed!\n    event verified(nftStruct _nft);\n\n    // Event emitted when nfts have been slashed via slashNFTs.\n    event slashed(address[] _contracts);\n\n    // Event emitted when an nft has been slashed via slashNFT.\n    event slash(address _contract, bool _slashed);\n\n    // Constructor\n    constructor(uint _minimumRequestValue){\n        minimumRequestValue = _minimumRequestValue;\n        nftBlock memory n = nftBlock(bytes32(0), bytes32(0) , \"\", block.number);\n        nftBlocks.push(n);\n    }\n    \n    // Function to requets verificaition of NFT \n    function requestVerification() public payable{\n\n        // Creating RatioSingleNFT contract from requester.\n        RatioSingleNFT ratioNFT = RatioSingleNFT(msg.sender);\n\n        // Contract specification conditions.\n        require(msg.value >= minimumRequestValue, \"Invalid Request .\");\n\n        require(Address.isContract(msg.sender), \"Sender must be a contract\");\n        \n        require(nftRequest[msg.sender] == false, \"NFT contract already requested verification.\");\n\n        require(baseURIContract[ratioNFT.baseURI()] == address(0), \"Base URI has already been claimed.\");\n\n        require(bytes(ratioNFT.baseURI()).length == 53, \"Incorrect _baseURI length\");\n\n        require(uriPrefix(ratioNFT.baseURI()), \"Incorrect prefix in _baseURI\");\n\n        nftRequest[msg.sender] = true;\n\n        // Emit verificationRequest event for Oracle.\n        emit verificationRequest(msg.sender, ratioNFT.distributor() , ratioNFT.baseURI(), block.number);\n    }\n\n    // Function to verify a nft of behalf of Ratio Labs.\n    function verifyNFT(bytes32[] memory _proof, bytes32 _root, bytes32 _leaf, nftStruct memory _nft) public{\n        // require the _root to exist.\n        require(blockMap[_root]._block != 0, \"Invalid nft root given.\");\n\n        // require nft contract not to be slashed.\n        require(!nftSlashed[_nft._contract], \"NFT contract has already been slashed.\");\n\n        // calculate sub URI encoding.\n        bytes memory encoded;\n        for (uint i = 0; i < _nft._subURIs.length; i++) {\n            encoded = bytes.concat(\n                encoded,\n                abi.encodePacked(_nft._subURIs[i])\n            );\n        }\n\n        // require _leaf hash to match _nft hash.\n        require(_leaf == keccak256(abi.encodePacked(_nft._contract, _nft._distributor, _nft._baseURI, encoded, _nft._block)), \"Given _leaf does not match _nft.\");\n        // require _nft is not already verified.\n        require(!nftVerified[_leaf], \"NFT was already verified.\");\n        // require _nft is within _root .\n        require(MerkleProof.verify(_proof, _root, _leaf), \"Invalid Proof\");\n\n        // Verify and Store NFT info.\n        nftVerified[_leaf] = true;\n\n        // Set subURIs contract. \n        for(uint i = 0; i < _nft._subURIs.length; i++){\n            if(subURIContract[_nft._subURIs[i]] != address(0)){\n                require(contractNFT[subURIContract[_nft._subURIs[i]]]._block == 0 || \n                        contractNFT[subURIContract[_nft._subURIs[i]]]._block > _nft._block, \"Invalid block height for subURI.\");\n            }\n            subURIContract[_nft._subURIs[i]] = _nft._contract;\n        }\n\n        // Set contracts NFT;\n        contractNFT[_nft._contract] = _nft;\n\n        // Push nft contract address into nftContracts array.\n        nftContracts.push(_nft._contract);\n\n        // Push contract address into distributor distributorContracts.\n        distributorContracts[_nft._distributor].push(_nft._contract);\n\n        // Set baseURI contract.\n        baseURIContract[_nft._baseURI] = _nft._contract;  \n        \n        // Emit verified event.\n        emit verified(_nft);\n    }\n\n    // Function to submit nft blocks for verified NFTs.\n    function submitBlock(nftBlock memory _block) public onlyOwner{\n        require(_block._block == 0, \"Invalid _block initialization.\");\n        _block._block = block.number;\n        nftBlocks.push(_block);\n        blockMap[_block._root] = nftBlocks[nftBlocks.length-1];\n        emit blockSubmitted(_block);\n    }\n\n    // Function to _slashNFTs via Oracle\n    function slashNFTs(address[] memory _contracts) public onlyOwner{\n        for(uint i = 0; i < _contracts.length; i++){\n            delete contractNFT[_contracts[i]];\n            nftSlashed[_contracts[i]] = true;\n        }\n        emit slashed(_contracts);\n    }\n\n    // Function to slashNFT via public\n    function slashNFT(address _contract) public{\n        require(contractNFT[_contract]._contract != address(0), \"Contract isn't verified.\");\n        RatioSingleNFT rNFT = RatioSingleNFT(_contract);\n        nftStruct memory nStruct = contractNFT[_contract];\n        if(rNFT.distributor() != nStruct._distributor || !compareStrings(rNFT.baseURI(), nStruct._baseURI)){\n            delete contractNFT[_contract];\n            nftSlashed[_contract] = true;\n            emit slash(_contract, true);\n            return;\n        }\n        string[4] memory subURIs = [rNFT.image(), rNFT.audio(), rNFT.video(), rNFT.model()];\n        for(uint i = 0 ; i < subURIs.length; i++){\n            if(!compareStrings(subURIs[i], nStruct._subURIs[i])){\n                delete contractNFT[_contract];\n                nftSlashed[_contract] = true;\n                emit slash(_contract, true);\n                return;\n            }\n        }\n        emit slash(_contract, false);\n    }\n\n    /**  \n    *** User Helper Functions\n    **/\n    \n    // Function to return latestBlock\n    function latestBlock() public view returns(nftBlock memory _block){\n        return nftBlocks[nftBlocks.length - 1];\n    }\n\n    function getContractNFT(address _contract) public view returns(nftStruct memory _nft){\n        return contractNFT[_contract];\n    }\n\n    function getBaseURIdistributor(string memory _baseURI) public view returns(address _distributor){\n        return contractNFT[baseURIContract[_baseURI]]._distributor;\n    }\n\n    function getSubURIbaseURI(string memory _subURI) public view returns(string memory _baseURI){\n        return contractNFT[subURIContract[_subURI]]._baseURI;\n    }\n\n    function getDistributorContracts(address _distributor) public view returns(address[] memory _contracts){\n        return distributorContracts[_distributor];\n    }\n\n    function getMinimumRequestValue() public view returns(uint _minimumRequestValue){\n        return minimumRequestValue;\n    }\n\n    /**  \n    *** Contract Helper Functions\n    **/\n\n    function uriPrefix(string memory _baseURI) internal pure returns(bool){\n        return  keccak256( abi.encodePacked( bytes9( bytes(_baseURI) ) ) ) == keccak256( abi.encodePacked( bytes9(\"ipfs://Qm\") ) ) ;\n    }\n\n    function compareStrings(string memory _a, string memory _b) internal pure returns(bool){\n        return keccak256( abi.encodePacked( bytes(_a) ) )  == keccak256( abi.encodePacked( bytes(_b) ) );\n    }\n\n    /**  \n    *** Owner Helper Functions\n    **/\n\n    function getContracts(uint _start, uint _end) public view returns(address[1000] memory _contracts){\n        uint n = 0;\n        for(uint i = _start; i <= _end; i++)\n        {\n            _contracts[n] = nftContracts[i];\n            n++;\n        }\n    }\n\n    function modifyRequestValue(uint _val) public onlyOwner{\n        minimumRequestValue = _val;\n    }\n\n    function claim() public{\n        payable(owner()).transfer(address(this).balance);\n    }\n \n}",
  "sourcePath": "/home/stephenstb/Ratio-Labs/ratio-labsV0/contracts/NFTProtocol/NFTProtocol.sol",
  "compiler": {
    "name": "solc",
    "version": "0.8.5+commit.a4f2e591.Emscripten.clang"
  },
  "schemaVersion": "3.3.3",
  "updatedAt": "2022-07-16T02:59:42.813Z",
  "devdoc": {
    "kind": "dev",
    "methods": {
      "owner()": {
        "details": "Returns the address of the current owner."
      },
      "renounceOwnership()": {
        "details": "Leaves the contract without owner. It will not be possible to call `onlyOwner` functions anymore. Can only be called by the current owner. NOTE: Renouncing ownership will leave the contract without an owner, thereby removing any functionality that is only available to the owner."
      },
      "transferOwnership(address)": {
        "details": "Transfers ownership of the contract to a new account (`newOwner`). Can only be called by the current owner."
      }
    },
    "version": 1
  },
  "userdoc": {
    "kind": "user",
    "methods": {
      "getContracts(uint256,uint256)": {
        "notice": "*** Owner Helper Functions*"
      },
      "latestBlock()": {
        "notice": "*** User Helper Functions*"
      }
    },
    "version": 1
  }
}