{
  "contractName": "Oracle",
  "abi": [
    {
      "inputs": [],
      "stateMutability": "nonpayable",
      "type": "constructor"
    },
    {
      "inputs": [
        {
          "internalType": "uint256",
          "name": "",
          "type": "uint256"
        }
      ],
      "name": "contracts",
      "outputs": [
        {
          "internalType": "address",
          "name": "",
          "type": "address"
        }
      ],
      "stateMutability": "view",
      "type": "function"
    },
    {
      "inputs": [],
      "name": "epoch",
      "outputs": [
        {
          "internalType": "uint256",
          "name": "",
          "type": "uint256"
        }
      ],
      "stateMutability": "view",
      "type": "function"
    },
    {
      "inputs": [],
      "name": "slot",
      "outputs": [
        {
          "internalType": "uint256",
          "name": "",
          "type": "uint256"
        }
      ],
      "stateMutability": "view",
      "type": "function"
    },
    {
      "inputs": [],
      "name": "transition",
      "outputs": [
        {
          "internalType": "uint256",
          "name": "",
          "type": "uint256"
        }
      ],
      "stateMutability": "view",
      "type": "function"
    },
    {
      "inputs": [
        {
          "internalType": "uint256",
          "name": "",
          "type": "uint256"
        }
      ],
      "name": "validators",
      "outputs": [
        {
          "internalType": "address",
          "name": "",
          "type": "address"
        }
      ],
      "stateMutability": "view",
      "type": "function"
    },
    {
      "inputs": [
        {
          "internalType": "address",
          "name": "_contract",
          "type": "address"
        },
        {
          "internalType": "bytes[]",
          "name": "_payload",
          "type": "bytes[]"
        }
      ],
      "name": "submit",
      "outputs": [],
      "stateMutability": "nonpayable",
      "type": "function"
    }
  ],
  "bytecode": "0x608060405234801561001057600080fd5b506103ec806100206000396000f3fe608060405234801561001057600080fd5b50600436106100625760003560e01c80631a88bc661461006757806335aa2e4414610085578063474da79a146100b557806387d64b92146100e5578063900cf0cf14610101578063d7efbf341461011f575b600080fd5b61006f61013d565b60405161007c9190610318565b60405180910390f35b61009f600480360381019061009a91906102b2565b610143565b6040516100ac91906102fd565b60405180910390f35b6100cf60048036038101906100ca91906102b2565b610182565b6040516100dc91906102fd565b60405180910390f35b6100ff60048036038101906100fa9190610252565b6101c1565b005b6101096101c6565b6040516101169190610318565b60405180910390f35b6101276101cc565b6040516101349190610318565b60405180910390f35b60015481565b6004818154811061015357600080fd5b906000526020600020016000915054906101000a900473ffffffffffffffffffffffffffffffffffffffff1681565b6005818154811061019257600080fd5b906000526020600020016000915054906101000a900473ffffffffffffffffffffffffffffffffffffffff1681565b505050565b60005481565b60025481565b6000813590506101e181610388565b92915050565b60008083601f8401126101fd576101fc610374565b5b8235905067ffffffffffffffff81111561021a5761021961036f565b5b60208301915083602082028301111561023657610235610379565b5b9250929050565b60008135905061024c8161039f565b92915050565b60008060006040848603121561026b5761026a610383565b5b6000610279868287016101d2565b935050602084013567ffffffffffffffff81111561029a5761029961037e565b5b6102a6868287016101e7565b92509250509250925092565b6000602082840312156102c8576102c7610383565b5b60006102d68482850161023d565b91505092915050565b6102e881610333565b82525050565b6102f781610365565b82525050565b600060208201905061031260008301846102df565b92915050565b600060208201905061032d60008301846102ee565b92915050565b600061033e82610345565b9050919050565b600073ffffffffffffffffffffffffffffffffffffffff82169050919050565b6000819050919050565b600080fd5b600080fd5b600080fd5b600080fd5b600080fd5b61039181610333565b811461039c57600080fd5b50565b6103a881610365565b81146103b357600080fd5b5056fea26469706673582212200bc5c7752dbda1a571352b2ee8a6dd12da2736636117b258e3be2b18f8adcf5264736f6c63430008050033",
  "immutableReferences": {},
  "source": "// SPDX-License-Identifier: BUSL-1.1\npragma solidity ^0.8.5;\n\ncontract Oracle{\n\n    uint public epoch;\n    uint public slot;\n    uint public transition;\n\n    struct validator{\n        mapping(address => uint) token;\n        mapping(address => uint) stake;\n    }\n\n    mapping(address => validator) validatorMap;\n\n    address[] public validators;\n\n    address[] public contracts;\n\n    \n\n    constructor(){\n\n    }\n\n    function submit(address _contract, bytes[] calldata _payload) external{\n        // appropriate validator data;\n\n    }\n\n     /**\n     * @dev Internal execution mechanism. Can be overridden to implement different execution mechanism\n     */\n     /*\n    function _execute(\n        uint256, /* proposalId *//*\n        address[] memory targets,\n        uint256[] memory values,\n        bytes[] memory calldatas,\n        bytes32 /*descriptionHash*//*\n    ) internal virtual {\n        string memory errorMessage = \"Governor: call reverted without message\";\n        for (uint256 i = 0; i < targets.length; ++i) {\n            (bool success, bytes memory returndata) = targets[i].call{value: values[i]}(calldatas[i]);\n            Address.verifyCallResult(success, returndata, errorMessage);\n        }\n    }*/\n\n\n}",
  "sourcePath": "/home/stephenstb/Ratio-Labs/ratio-labsV0/contracts/Oracle/Oracle.sol",
  "compiler": {
    "name": "solc",
    "version": "0.8.5+commit.a4f2e591.Emscripten.clang"
  },
  "schemaVersion": "3.3.3",
  "updatedAt": "2022-07-15T04:56:39.325Z",
  "devdoc": {
    "kind": "dev",
    "methods": {},
    "version": 1
  },
  "userdoc": {
    "kind": "user",
    "methods": {},
    "version": 1
  }
}