{
  "contractName": "PolyCard",
  "abi": [
    {
      "inputs": [
        {
          "internalType": "string",
          "name": "_name",
          "type": "string"
        },
        {
          "internalType": "string",
          "name": "_symbol",
          "type": "string"
        }
      ],
      "stateMutability": "nonpayable",
      "type": "constructor"
    },
    {
      "anonymous": false,
      "inputs": [
        {
          "indexed": true,
          "internalType": "address",
          "name": "owner",
          "type": "address"
        },
        {
          "indexed": true,
          "internalType": "address",
          "name": "approved",
          "type": "address"
        },
        {
          "indexed": true,
          "internalType": "uint256",
          "name": "tokenId",
          "type": "uint256"
        }
      ],
      "name": "Approval",
      "type": "event"
    },
    {
      "anonymous": false,
      "inputs": [
        {
          "indexed": true,
          "internalType": "address",
          "name": "owner",
          "type": "address"
        },
        {
          "indexed": true,
          "internalType": "address",
          "name": "operator",
          "type": "address"
        },
        {
          "indexed": false,
          "internalType": "bool",
          "name": "approved",
          "type": "bool"
        }
      ],
      "name": "ApprovalForAll",
      "type": "event"
    },
    {
      "anonymous": false,
      "inputs": [
        {
          "indexed": true,
          "internalType": "address",
          "name": "previousOwner",
          "type": "address"
        },
        {
          "indexed": true,
          "internalType": "address",
          "name": "newOwner",
          "type": "address"
        }
      ],
      "name": "OwnershipTransferred",
      "type": "event"
    },
    {
      "anonymous": false,
      "inputs": [
        {
          "indexed": true,
          "internalType": "address",
          "name": "from",
          "type": "address"
        },
        {
          "indexed": true,
          "internalType": "address",
          "name": "to",
          "type": "address"
        },
        {
          "indexed": true,
          "internalType": "uint256",
          "name": "tokenId",
          "type": "uint256"
        }
      ],
      "name": "Transfer",
      "type": "event"
    },
    {
      "inputs": [
        {
          "internalType": "address",
          "name": "to",
          "type": "address"
        },
        {
          "internalType": "uint256",
          "name": "tokenId",
          "type": "uint256"
        }
      ],
      "name": "approve",
      "outputs": [],
      "stateMutability": "nonpayable",
      "type": "function"
    },
    {
      "inputs": [],
      "name": "audio",
      "outputs": [
        {
          "internalType": "string",
          "name": "",
          "type": "string"
        }
      ],
      "stateMutability": "view",
      "type": "function"
    },
    {
      "inputs": [
        {
          "internalType": "address",
          "name": "owner",
          "type": "address"
        }
      ],
      "name": "balanceOf",
      "outputs": [
        {
          "internalType": "uint256",
          "name": "",
          "type": "uint256"
        }
      ],
      "stateMutability": "view",
      "type": "function"
    },
    {
      "inputs": [],
      "name": "baseURI",
      "outputs": [
        {
          "internalType": "string",
          "name": "",
          "type": "string"
        }
      ],
      "stateMutability": "view",
      "type": "function"
    },
    {
      "inputs": [],
      "name": "burnValue",
      "outputs": [
        {
          "internalType": "uint256",
          "name": "",
          "type": "uint256"
        }
      ],
      "stateMutability": "view",
      "type": "function"
    },
    {
      "inputs": [],
      "name": "burnable",
      "outputs": [
        {
          "internalType": "bool",
          "name": "",
          "type": "bool"
        }
      ],
      "stateMutability": "view",
      "type": "function"
    },
    {
      "inputs": [],
      "name": "claim",
      "outputs": [],
      "stateMutability": "nonpayable",
      "type": "function"
    },
    {
      "inputs": [],
      "name": "claimValue",
      "outputs": [
        {
          "internalType": "uint256",
          "name": "",
          "type": "uint256"
        }
      ],
      "stateMutability": "view",
      "type": "function"
    },
    {
      "inputs": [],
      "name": "distributor",
      "outputs": [
        {
          "internalType": "address",
          "name": "",
          "type": "address"
        }
      ],
      "stateMutability": "view",
      "type": "function"
    },
    {
      "inputs": [
        {
          "internalType": "uint256",
          "name": "tokenId",
          "type": "uint256"
        }
      ],
      "name": "getApproved",
      "outputs": [
        {
          "internalType": "address",
          "name": "",
          "type": "address"
        }
      ],
      "stateMutability": "view",
      "type": "function"
    },
    {
      "inputs": [],
      "name": "image",
      "outputs": [
        {
          "internalType": "string",
          "name": "",
          "type": "string"
        }
      ],
      "stateMutability": "view",
      "type": "function"
    },
    {
      "inputs": [],
      "name": "info",
      "outputs": [
        {
          "components": [
            {
              "internalType": "address",
              "name": "_distributor",
              "type": "address"
            },
            {
              "internalType": "string",
              "name": "_name",
              "type": "string"
            },
            {
              "internalType": "string",
              "name": "_base",
              "type": "string"
            },
            {
              "internalType": "string",
              "name": "_image",
              "type": "string"
            },
            {
              "internalType": "string",
              "name": "_audio",
              "type": "string"
            },
            {
              "internalType": "string",
              "name": "_video",
              "type": "string"
            },
            {
              "internalType": "string",
              "name": "_model",
              "type": "string"
            },
            {
              "internalType": "uint256",
              "name": "_mintValue",
              "type": "uint256"
            },
            {
              "internalType": "uint256",
              "name": "_maxSupply",
              "type": "uint256"
            },
            {
              "internalType": "uint256",
              "name": "_minted",
              "type": "uint256"
            },
            {
              "internalType": "uint256",
              "name": "_claimValue",
              "type": "uint256"
            },
            {
              "internalType": "uint256",
              "name": "_unclaimed",
              "type": "uint256"
            },
            {
              "internalType": "bool",
              "name": "_burnable",
              "type": "bool"
            },
            {
              "internalType": "uint256",
              "name": "_burnValue",
              "type": "uint256"
            }
          ],
          "internalType": "struct RatioSingleNFT.infoStruct",
          "name": "_info",
          "type": "tuple"
        }
      ],
      "stateMutability": "view",
      "type": "function"
    },
    {
      "inputs": [
        {
          "internalType": "address",
          "name": "owner",
          "type": "address"
        },
        {
          "internalType": "address",
          "name": "operator",
          "type": "address"
        }
      ],
      "name": "isApprovedForAll",
      "outputs": [
        {
          "internalType": "bool",
          "name": "",
          "type": "bool"
        }
      ],
      "stateMutability": "view",
      "type": "function"
    },
    {
      "inputs": [],
      "name": "maxSupply",
      "outputs": [
        {
          "internalType": "uint256",
          "name": "",
          "type": "uint256"
        }
      ],
      "stateMutability": "view",
      "type": "function"
    },
    {
      "inputs": [],
      "name": "mintValue",
      "outputs": [
        {
          "internalType": "uint256",
          "name": "",
          "type": "uint256"
        }
      ],
      "stateMutability": "view",
      "type": "function"
    },
    {
      "inputs": [],
      "name": "model",
      "outputs": [
        {
          "internalType": "string",
          "name": "",
          "type": "string"
        }
      ],
      "stateMutability": "view",
      "type": "function"
    },
    {
      "inputs": [],
      "name": "name",
      "outputs": [
        {
          "internalType": "string",
          "name": "",
          "type": "string"
        }
      ],
      "stateMutability": "view",
      "type": "function"
    },
    {
      "inputs": [],
      "name": "owner",
      "outputs": [
        {
          "internalType": "address",
          "name": "",
          "type": "address"
        }
      ],
      "stateMutability": "view",
      "type": "function"
    },
    {
      "inputs": [
        {
          "internalType": "uint256",
          "name": "tokenId",
          "type": "uint256"
        }
      ],
      "name": "ownerOf",
      "outputs": [
        {
          "internalType": "address",
          "name": "",
          "type": "address"
        }
      ],
      "stateMutability": "view",
      "type": "function"
    },
    {
      "inputs": [],
      "name": "renounceOwnership",
      "outputs": [],
      "stateMutability": "nonpayable",
      "type": "function"
    },
    {
      "inputs": [
        {
          "internalType": "address",
          "name": "from",
          "type": "address"
        },
        {
          "internalType": "address",
          "name": "to",
          "type": "address"
        },
        {
          "internalType": "uint256",
          "name": "tokenId",
          "type": "uint256"
        }
      ],
      "name": "safeTransferFrom",
      "outputs": [],
      "stateMutability": "nonpayable",
      "type": "function"
    },
    {
      "inputs": [
        {
          "internalType": "address",
          "name": "from",
          "type": "address"
        },
        {
          "internalType": "address",
          "name": "to",
          "type": "address"
        },
        {
          "internalType": "uint256",
          "name": "tokenId",
          "type": "uint256"
        },
        {
          "internalType": "bytes",
          "name": "_data",
          "type": "bytes"
        }
      ],
      "name": "safeTransferFrom",
      "outputs": [],
      "stateMutability": "nonpayable",
      "type": "function"
    },
    {
      "inputs": [
        {
          "internalType": "address",
          "name": "operator",
          "type": "address"
        },
        {
          "internalType": "bool",
          "name": "approved",
          "type": "bool"
        }
      ],
      "name": "setApprovalForAll",
      "outputs": [],
      "stateMutability": "nonpayable",
      "type": "function"
    },
    {
      "inputs": [
        {
          "internalType": "string",
          "name": "_uri",
          "type": "string"
        },
        {
          "internalType": "bool",
          "name": "_ratioProtocol",
          "type": "bool"
        },
        {
          "internalType": "address",
          "name": "_protocolAddress",
          "type": "address"
        }
      ],
      "name": "setBaseURI",
      "outputs": [],
      "stateMutability": "payable",
      "type": "function"
    },
    {
      "inputs": [
        {
          "internalType": "string",
          "name": "_image",
          "type": "string"
        },
        {
          "internalType": "string",
          "name": "_audio",
          "type": "string"
        },
        {
          "internalType": "string",
          "name": "_video",
          "type": "string"
        },
        {
          "internalType": "string",
          "name": "_model",
          "type": "string"
        }
      ],
      "name": "setSubURIs",
      "outputs": [],
      "stateMutability": "nonpayable",
      "type": "function"
    },
    {
      "inputs": [
        {
          "internalType": "bytes4",
          "name": "interfaceId",
          "type": "bytes4"
        }
      ],
      "name": "supportsInterface",
      "outputs": [
        {
          "internalType": "bool",
          "name": "",
          "type": "bool"
        }
      ],
      "stateMutability": "view",
      "type": "function"
    },
    {
      "inputs": [],
      "name": "symbol",
      "outputs": [
        {
          "internalType": "string",
          "name": "",
          "type": "string"
        }
      ],
      "stateMutability": "view",
      "type": "function"
    },
    {
      "inputs": [
        {
          "internalType": "uint256",
          "name": "index",
          "type": "uint256"
        }
      ],
      "name": "tokenByIndex",
      "outputs": [
        {
          "internalType": "uint256",
          "name": "",
          "type": "uint256"
        }
      ],
      "stateMutability": "view",
      "type": "function"
    },
    {
      "inputs": [
        {
          "internalType": "address",
          "name": "owner",
          "type": "address"
        },
        {
          "internalType": "uint256",
          "name": "index",
          "type": "uint256"
        }
      ],
      "name": "tokenOfOwnerByIndex",
      "outputs": [
        {
          "internalType": "uint256",
          "name": "",
          "type": "uint256"
        }
      ],
      "stateMutability": "view",
      "type": "function"
    },
    {
      "inputs": [
        {
          "internalType": "uint256",
          "name": "tokenId",
          "type": "uint256"
        }
      ],
      "name": "tokenURI",
      "outputs": [
        {
          "internalType": "string",
          "name": "",
          "type": "string"
        }
      ],
      "stateMutability": "view",
      "type": "function"
    },
    {
      "inputs": [],
      "name": "totalSupply",
      "outputs": [
        {
          "internalType": "uint256",
          "name": "",
          "type": "uint256"
        }
      ],
      "stateMutability": "view",
      "type": "function"
    },
    {
      "inputs": [
        {
          "internalType": "address",
          "name": "from",
          "type": "address"
        },
        {
          "internalType": "address",
          "name": "to",
          "type": "address"
        },
        {
          "internalType": "uint256",
          "name": "tokenId",
          "type": "uint256"
        }
      ],
      "name": "transferFrom",
      "outputs": [],
      "stateMutability": "nonpayable",
      "type": "function"
    },
    {
      "inputs": [
        {
          "internalType": "address",
          "name": "newOwner",
          "type": "address"
        }
      ],
      "name": "transferOwnership",
      "outputs": [],
      "stateMutability": "nonpayable",
      "type": "function"
    },
    {
      "inputs": [],
      "name": "unclaimed",
      "outputs": [
        {
          "internalType": "uint256",
          "name": "",
          "type": "uint256"
        }
      ],
      "stateMutability": "view",
      "type": "function"
    },
    {
      "inputs": [],
      "name": "video",
      "outputs": [
        {
          "internalType": "string",
          "name": "",
          "type": "string"
        }
      ],
      "stateMutability": "view",
      "type": "function"
    },
    {
      "inputs": [
        {
          "internalType": "address",
          "name": "_receiver",
          "type": "address"
        }
      ],
      "name": "mint",
      "outputs": [
        {
          "internalType": "uint256",
          "name": "_id",
          "type": "uint256"
        }
      ],
      "stateMutability": "payable",
      "type": "function"
    },
    {
      "inputs": [
        {
          "internalType": "uint256",
          "name": "_tokenId",
          "type": "uint256"
        }
      ],
      "name": "burn",
      "outputs": [],
      "stateMutability": "nonpayable",
      "type": "function"
    }
  ],
  "bytecode": "0x6101406040526000601060006101000a81548160ff0219169083151502179055506000601060016101000a81548160ff0219169083151502179055507fffffffffffffffffffffffffffffffffffffffffffffffffffffffffffffffff6014553480156200006c57600080fd5b50604051620051303803806200513083398181016040528101906200009291906200037f565b8181601454600080600185858160009080519060200190620000b692919062000251565b508060019080519060200190620000cf92919062000251565b50505082821115620000e057600080fd5b3373ffffffffffffffffffffffffffffffffffffffff1660808173ffffffffffffffffffffffffffffffffffffffff1660601b815250508360a081815250508260c081815250508160e0818152505080151561012081151560f81b8152505081836200014d919062000463565b61010081815250505050505050506200017b6200016f6200018360201b60201c565b6200018b60201b60201c565b5050620005fc565b600033905090565b6000601260009054906101000a900473ffffffffffffffffffffffffffffffffffffffff16905081601260006101000a81548173ffffffffffffffffffffffffffffffffffffffff021916908373ffffffffffffffffffffffffffffffffffffffff1602179055508173ffffffffffffffffffffffffffffffffffffffff168173ffffffffffffffffffffffffffffffffffffffff167f8be0079c531659141344cd1fd0a4f28419497f9722a3daafe3b4186f6b6457e060405160405180910390a35050565b8280546200025f90620004de565b90600052602060002090601f016020900481019282620002835760008555620002cf565b82601f106200029e57805160ff1916838001178555620002cf565b82800160010185558215620002cf579182015b82811115620002ce578251825591602001919060010190620002b1565b5b509050620002de9190620002e2565b5090565b5b80821115620002fd576000816000905550600101620002e3565b5090565b60006200031862000312846200042d565b62000404565b905082815260208101848484011115620003375762000336620005dc565b5b62000344848285620004a8565b509392505050565b600082601f830112620003645762000363620005d7565b5b81516200037684826020860162000301565b91505092915050565b60008060408385031215620003995762000398620005e6565b5b600083015167ffffffffffffffff811115620003ba57620003b9620005e1565b5b620003c8858286016200034c565b925050602083015167ffffffffffffffff811115620003ec57620003eb620005e1565b5b620003fa858286016200034c565b9150509250929050565b60006200041062000423565b90506200041e828262000514565b919050565b6000604051905090565b600067ffffffffffffffff8211156200044b576200044a620005a8565b5b6200045682620005eb565b9050602081019050919050565b600062000470826200049e565b91506200047d836200049e565b9250828210156200049357620004926200054a565b5b828203905092915050565b6000819050919050565b60005b83811015620004c8578082015181840152602081019050620004ab565b83811115620004d8576000848401525b50505050565b60006002820490506001821680620004f757607f821691505b602082108114156200050e576200050d62000579565b5b50919050565b6200051f82620005eb565b810181811067ffffffffffffffff82111715620005415762000540620005a8565b5b80604052505050565b7f4e487b7100000000000000000000000000000000000000000000000000000000600052601160045260246000fd5b7f4e487b7100000000000000000000000000000000000000000000000000000000600052602260045260246000fd5b7f4e487b7100000000000000000000000000000000000000000000000000000000600052604160045260246000fd5b600080fd5b600080fd5b600080fd5b600080fd5b6000601f19601f8301169050919050565b60805160601c60a05160c05160e051610100516101205160f81c614a916200069f60003960008181611133015261188801526000818161115b015261150d0152600081816111050152818161134a01526118c20152600081816110aa01526117a80152600081816110d00152611cff015260008181610d91015281816112d101528181611380015281816118fd01528181611aff0152611b930152614a916000f3fe60806040526004361061021a5760003560e01c80636a62784211610123578063ae686b5a116100ab578063d52b1f531161006f578063d52b1f53146107cc578063d5abeb01146107e8578063e985e9c514610813578063f2fde38b14610850578063f3ccaac0146108795761021a565b8063ae686b5a146106e7578063b822fd2c14610712578063b88d4fde1461073b578063bfe1092814610764578063c87b56dd1461078f5761021a565b806389c77dfe116100f257806389c77dfe146106125780638da5cb5b1461063d57806395d89b4114610668578063a07c7ce414610693578063a22cb465146106be5761021a565b80636a627842146105635780636c0360eb1461059357806370a08231146105be578063715018a6146105fb5761021a565b8063370158ea116101a65780634e71d92d116101755780634e71d92d1461047c5780634f6ccce7146104935780636352211e146104d057806365cb14bc1461050d578063669416b8146105385761021a565b8063370158ea146103d4578063407d2236146103ff57806342842e0e1461042a57806342966c68146104535761021a565b80630ad9d052116101ed5780630ad9d052146102ed57806311b006171461031857806318160ddd1461034357806323b872dd1461036e5780632f745c59146103975761021a565b806301ffc9a71461021f57806306fdde031461025c578063081812fc14610287578063095ea7b3146102c4575b600080fd5b34801561022b57600080fd5b50610246600480360381019061024191906135c2565b6108a4565b6040516102539190613d4e565b60405180910390f35b34801561026857600080fd5b5061027161091e565b60405161027e9190613d69565b60405180910390f35b34801561029357600080fd5b506102ae60048036038101906102a99190613762565b6109b0565b6040516102bb9190613ce7565b60405180910390f35b3480156102d057600080fd5b506102eb60048036038101906102e69190613582565b610a35565b005b3480156102f957600080fd5b50610302610b4d565b60405161030f9190613d69565b60405180910390f35b34801561032457600080fd5b5061032d610bdb565b60405161033a9190613d69565b60405180910390f35b34801561034f57600080fd5b50610358610c69565b604051610365919061406d565b60405180910390f35b34801561037a57600080fd5b506103956004803603810190610390919061346c565b610c76565b005b3480156103a357600080fd5b506103be60048036038101906103b99190613582565b610cd6565b6040516103cb919061406d565b60405180910390f35b3480156103e057600080fd5b506103e9610d7b565b6040516103f6919061404b565b60405180910390f35b34801561040b57600080fd5b50610414611182565b6040516104219190613d69565b60405180910390f35b34801561043657600080fd5b50610451600480360381019061044c919061346c565b611210565b005b34801561045f57600080fd5b5061047a60048036038101906104759190613762565b611230565b005b34801561048857600080fd5b506104916112b8565b005b34801561049f57600080fd5b506104ba60048036038101906104b59190613762565b6113e8565b6040516104c7919061406d565b60405180910390f35b3480156104dc57600080fd5b506104f760048036038101906104f29190613762565b611459565b6040516105049190613ce7565b60405180910390f35b34801561051957600080fd5b5061052261150b565b60405161052f919061406d565b60405180910390f35b34801561054457600080fd5b5061054d61152f565b60405161055a919061406d565b60405180910390f35b61057d600480360381019061057891906133ff565b611535565b60405161058a919061406d565b60405180910390f35b34801561059f57600080fd5b506105a86115d8565b6040516105b59190613d69565b60405180910390f35b3480156105ca57600080fd5b506105e560048036038101906105e091906133ff565b611666565b6040516105f2919061406d565b60405180910390f35b34801561060757600080fd5b5061061061171e565b005b34801561061e57600080fd5b506106276117a6565b604051610634919061406d565b60405180910390f35b34801561064957600080fd5b506106526117ca565b60405161065f9190613ce7565b60405180910390f35b34801561067457600080fd5b5061067d6117f4565b60405161068a9190613d69565b60405180910390f35b34801561069f57600080fd5b506106a8611886565b6040516106b59190613d4e565b60405180910390f35b3480156106ca57600080fd5b506106e560048036038101906106e09190613542565b6118aa565b005b3480156106f357600080fd5b506106fc6118c0565b604051610709919061406d565b60405180910390f35b34801561071e57600080fd5b506107396004803603810190610734919061368b565b6118e4565b005b34801561074757600080fd5b50610762600480360381019061075d91906134bf565b611a9b565b005b34801561077057600080fd5b50610779611afd565b6040516107869190613ce7565b60405180910390f35b34801561079b57600080fd5b506107b660048036038101906107b19190613762565b611b21565b6040516107c39190613d69565b60405180910390f35b6107e660048036038101906107e1919061361c565b611b7a565b005b3480156107f457600080fd5b506107fd611cfd565b60405161080a919061406d565b60405180910390f35b34801561081f57600080fd5b5061083a6004803603810190610835919061342c565b611d21565b6040516108479190613d4e565b60405180910390f35b34801561085c57600080fd5b50610877600480360381019061087291906133ff565b611db5565b005b34801561088557600080fd5b5061088e611ead565b60405161089b9190613d69565b60405180910390f35b60007f780e9d63000000000000000000000000000000000000000000000000000000007bffffffffffffffffffffffffffffffffffffffffffffffffffffffff1916827bffffffffffffffffffffffffffffffffffffffffffffffffffffffff19161480610917575061091682611f3b565b5b9050919050565b60606000805461092d906142f2565b80601f0160208091040260200160405190810160405280929190818152602001828054610959906142f2565b80156109a65780601f1061097b576101008083540402835291602001916109a6565b820191906000526020600020905b81548152906001019060200180831161098957829003601f168201915b5050505050905090565b60006109bb8261201d565b6109fa576040517f08c379a00000000000000000000000000000000000000000000000000000000081526004016109f190613f4b565b60405180910390fd5b6004600083815260200190815260200160002060009054906101000a900473ffffffffffffffffffffffffffffffffffffffff169050919050565b6000610a4082611459565b90508073ffffffffffffffffffffffffffffffffffffffff168373ffffffffffffffffffffffffffffffffffffffff161415610ab1576040517f08c379a0000000000000000000000000000000000000000000000000000000008152600401610aa890613fab565b60405180910390fd5b8073ffffffffffffffffffffffffffffffffffffffff16610ad0612089565b73ffffffffffffffffffffffffffffffffffffffff161480610aff5750610afe81610af9612089565b611d21565b5b610b3e576040517f08c379a0000000000000000000000000000000000000000000000000000000008152600401610b3590613ecb565b60405180910390fd5b610b488383612091565b505050565b600f8054610b5a906142f2565b80601f0160208091040260200160405190810160405280929190818152602001828054610b86906142f2565b8015610bd35780601f10610ba857610100808354040283529160200191610bd3565b820191906000526020600020905b815481529060010190602001808311610bb657829003601f168201915b505050505081565b600e8054610be8906142f2565b80601f0160208091040260200160405190810160405280929190818152602001828054610c14906142f2565b8015610c615780601f10610c3657610100808354040283529160200191610c61565b820191906000526020600020905b815481529060010190602001808311610c4457829003601f168201915b505050505081565b6000600880549050905090565b610c87610c81612089565b8261214a565b610cc6576040517f08c379a0000000000000000000000000000000000000000000000000000000008152600401610cbd90613fcb565b60405180910390fd5b610cd1838383612228565b505050565b6000610ce183611666565b8210610d22576040517f08c379a0000000000000000000000000000000000000000000000000000000008152600401610d1990613dab565b60405180910390fd5b600660008473ffffffffffffffffffffffffffffffffffffffff1673ffffffffffffffffffffffffffffffffffffffff168152602001908152602001600020600083815260200190815260200160002054905092915050565b610d8361318c565b604051806101c001604052807f000000000000000000000000000000000000000000000000000000000000000073ffffffffffffffffffffffffffffffffffffffff168152602001610dd361091e565b8152602001600b8054610de5906142f2565b80601f0160208091040260200160405190810160405280929190818152602001828054610e11906142f2565b8015610e5e5780601f10610e3357610100808354040283529160200191610e5e565b820191906000526020600020905b815481529060010190602001808311610e4157829003601f168201915b50505050508152602001600c8054610e75906142f2565b80601f0160208091040260200160405190810160405280929190818152602001828054610ea1906142f2565b8015610eee5780601f10610ec357610100808354040283529160200191610eee565b820191906000526020600020905b815481529060010190602001808311610ed157829003601f168201915b50505050508152602001600d8054610f05906142f2565b80601f0160208091040260200160405190810160405280929190818152602001828054610f31906142f2565b8015610f7e5780601f10610f5357610100808354040283529160200191610f7e565b820191906000526020600020905b815481529060010190602001808311610f6157829003601f168201915b50505050508152602001600e8054610f95906142f2565b80601f0160208091040260200160405190810160405280929190818152602001828054610fc1906142f2565b801561100e5780601f10610fe35761010080835404028352916020019161100e565b820191906000526020600020905b815481529060010190602001808311610ff157829003601f168201915b50505050508152602001600f8054611025906142f2565b80601f0160208091040260200160405190810160405280929190818152602001828054611051906142f2565b801561109e5780601f106110735761010080835404028352916020019161109e565b820191906000526020600020905b81548152906001019060200180831161108157829003601f168201915b505050505081526020017f000000000000000000000000000000000000000000000000000000000000000081526020017f000000000000000000000000000000000000000000000000000000000000000081526020016110fe601161248f565b81526020017f00000000000000000000000000000000000000000000000000000000000000008152602001600a5481526020017f0000000000000000000000000000000000000000000000000000000000000000151581526020017f0000000000000000000000000000000000000000000000000000000000000000815250905090565b600d805461118f906142f2565b80601f01602080910402602001604051908101604052809291908181526020018280546111bb906142f2565b80156112085780601f106111dd57610100808354040283529160200191611208565b820191906000526020600020905b8154815290600101906020018083116111eb57829003601f168201915b505050505081565b61122b83838360405180602001604052806000815250611a9b565b505050565b611238612089565b73ffffffffffffffffffffffffffffffffffffffff166112566117ca565b73ffffffffffffffffffffffffffffffffffffffff16146112ac576040517f08c379a00000000000000000000000000000000000000000000000000000000081526004016112a390613f6b565b60405180910390fd5b6112b58161249d565b50565b3373ffffffffffffffffffffffffffffffffffffffff167f000000000000000000000000000000000000000000000000000000000000000073ffffffffffffffffffffffffffffffffffffffff1614611346576040517f08c379a000000000000000000000000000000000000000000000000000000000815260040161133d9061402b565b60405180910390fd5b60007f0000000000000000000000000000000000000000000000000000000000000000600a5461137691906141ae565b9050600a600090557f000000000000000000000000000000000000000000000000000000000000000073ffffffffffffffffffffffffffffffffffffffff166108fc829081150290604051600060405180830381858888f193505050501580156113e4573d6000803e3d6000fd5b5050565b60006113f2610c69565b8210611433576040517f08c379a000000000000000000000000000000000000000000000000000000000815260040161142a90613feb565b60405180910390fd5b60088281548110611447576114466143e2565b5b90600052602060002001549050919050565b6000806002600084815260200190815260200160002060009054906101000a900473ffffffffffffffffffffffffffffffffffffffff169050600073ffffffffffffffffffffffffffffffffffffffff168173ffffffffffffffffffffffffffffffffffffffff161415611502576040517f08c379a00000000000000000000000000000000000000000000000000000000081526004016114f990613f0b565b60405180910390fd5b80915050919050565b7f000000000000000000000000000000000000000000000000000000000000000081565b600a5481565b600061153f612089565b73ffffffffffffffffffffffffffffffffffffffff1661155d6117ca565b73ffffffffffffffffffffffffffffffffffffffff16146115b3576040517f08c379a00000000000000000000000000000000000000000000000000000000081526004016115aa90613f6b565b60405180910390fd5b6115bd60136125ba565b6115c7601361248f565b90506115d382826125d0565b919050565b600b80546115e5906142f2565b80601f0160208091040260200160405190810160405280929190818152602001828054611611906142f2565b801561165e5780601f106116335761010080835404028352916020019161165e565b820191906000526020600020905b81548152906001019060200180831161164157829003601f168201915b505050505081565b60008073ffffffffffffffffffffffffffffffffffffffff168273ffffffffffffffffffffffffffffffffffffffff1614156116d7576040517f08c379a00000000000000000000000000000000000000000000000000000000081526004016116ce90613eeb565b60405180910390fd5b600360008373ffffffffffffffffffffffffffffffffffffffff1673ffffffffffffffffffffffffffffffffffffffff168152602001908152602001600020549050919050565b611726612089565b73ffffffffffffffffffffffffffffffffffffffff166117446117ca565b73ffffffffffffffffffffffffffffffffffffffff161461179a576040517f08c379a000000000000000000000000000000000000000000000000000000000815260040161179190613f6b565b60405180910390fd5b6117a460006125ee565b565b7f000000000000000000000000000000000000000000000000000000000000000081565b6000601260009054906101000a900473ffffffffffffffffffffffffffffffffffffffff16905090565b606060018054611803906142f2565b80601f016020809104026020016040519081016040528092919081815260200182805461182f906142f2565b801561187c5780601f106118515761010080835404028352916020019161187c565b820191906000526020600020905b81548152906001019060200180831161185f57829003601f168201915b5050505050905090565b7f000000000000000000000000000000000000000000000000000000000000000081565b6118bc6118b5612089565b83836126b4565b5050565b7f000000000000000000000000000000000000000000000000000000000000000081565b3373ffffffffffffffffffffffffffffffffffffffff167f000000000000000000000000000000000000000000000000000000000000000073ffffffffffffffffffffffffffffffffffffffff1614611972576040517f08c379a00000000000000000000000000000000000000000000000000000000081526004016119699061402b565b60405180910390fd5b60011515601060009054906101000a900460ff161515146119c8576040517f08c379a00000000000000000000000000000000000000000000000000000000081526004016119bf90613e8b565b60405180910390fd5b60001515601060019054906101000a900460ff16151514611a1e576040517f08c379a0000000000000000000000000000000000000000000000000000000008152600401611a1590613d8b565b60405180910390fd5b83600c9080519060200190611a34929190613213565b5082600d9080519060200190611a4b929190613213565b5081600e9080519060200190611a62929190613213565b5080600f9080519060200190611a79929190613213565b506001601060016101000a81548160ff02191690831515021790555050505050565b611aac611aa6612089565b8361214a565b611aeb576040517f08c379a0000000000000000000000000000000000000000000000000000000008152600401611ae290613fcb565b60405180910390fd5b611af784848484612821565b50505050565b7f000000000000000000000000000000000000000000000000000000000000000081565b6060611b2c8261201d565b611b6b576040517f08c379a0000000000000000000000000000000000000000000000000000000008152600401611b6290613f8b565b60405180910390fd5b611b7361287d565b9050919050565b3373ffffffffffffffffffffffffffffffffffffffff167f000000000000000000000000000000000000000000000000000000000000000073ffffffffffffffffffffffffffffffffffffffff1614611c08576040517f08c379a0000000000000000000000000000000000000000000000000000000008152600401611bff9061402b565b60405180910390fd5b60001515601060009054906101000a900460ff16151514611c5e576040517f08c379a0000000000000000000000000000000000000000000000000000000008152600401611c559061400b565b60405180910390fd5b82600b9080519060200190611c74929190613213565b508115611cdd578073ffffffffffffffffffffffffffffffffffffffff166307ec3039346040518263ffffffff1660e01b81526004016000604051808303818588803b158015611cc357600080fd5b505af1158015611cd7573d6000803e3d6000fd5b50505050505b6001601060006101000a81548160ff021916908315150217905550505050565b7f000000000000000000000000000000000000000000000000000000000000000081565b6000600560008473ffffffffffffffffffffffffffffffffffffffff1673ffffffffffffffffffffffffffffffffffffffff16815260200190815260200160002060008373ffffffffffffffffffffffffffffffffffffffff1673ffffffffffffffffffffffffffffffffffffffff16815260200190815260200160002060009054906101000a900460ff16905092915050565b611dbd612089565b73ffffffffffffffffffffffffffffffffffffffff16611ddb6117ca565b73ffffffffffffffffffffffffffffffffffffffff1614611e31576040517f08c379a0000000000000000000000000000000000000000000000000000000008152600401611e2890613f6b565b60405180910390fd5b600073ffffffffffffffffffffffffffffffffffffffff168173ffffffffffffffffffffffffffffffffffffffff161415611ea1576040517f08c379a0000000000000000000000000000000000000000000000000000000008152600401611e9890613deb565b60405180910390fd5b611eaa816125ee565b50565b600c8054611eba906142f2565b80601f0160208091040260200160405190810160405280929190818152602001828054611ee6906142f2565b8015611f335780601f10611f0857610100808354040283529160200191611f33565b820191906000526020600020905b815481529060010190602001808311611f1657829003601f168201915b505050505081565b60007f80ac58cd000000000000000000000000000000000000000000000000000000007bffffffffffffffffffffffffffffffffffffffffffffffffffffffff1916827bffffffffffffffffffffffffffffffffffffffffffffffffffffffff1916148061200657507f5b5e139f000000000000000000000000000000000000000000000000000000007bffffffffffffffffffffffffffffffffffffffffffffffffffffffff1916827bffffffffffffffffffffffffffffffffffffffffffffffffffffffff1916145b8061201657506120158261290f565b5b9050919050565b60008073ffffffffffffffffffffffffffffffffffffffff166002600084815260200190815260200160002060009054906101000a900473ffffffffffffffffffffffffffffffffffffffff1673ffffffffffffffffffffffffffffffffffffffff1614159050919050565b600033905090565b816004600083815260200190815260200160002060006101000a81548173ffffffffffffffffffffffffffffffffffffffff021916908373ffffffffffffffffffffffffffffffffffffffff160217905550808273ffffffffffffffffffffffffffffffffffffffff1661210483611459565b73ffffffffffffffffffffffffffffffffffffffff167f8c5be1e5ebec7d5bd14f71427d1e84f3dd0314c0f7b2291e5b200ac8c7c3b92560405160405180910390a45050565b60006121558261201d565b612194576040517f08c379a000000000000000000000000000000000000000000000000000000000815260040161218b90613eab565b60405180910390fd5b600061219f83611459565b90508073ffffffffffffffffffffffffffffffffffffffff168473ffffffffffffffffffffffffffffffffffffffff1614806121e157506121e08185611d21565b5b8061221f57508373ffffffffffffffffffffffffffffffffffffffff16612207846109b0565b73ffffffffffffffffffffffffffffffffffffffff16145b91505092915050565b8273ffffffffffffffffffffffffffffffffffffffff1661224882611459565b73ffffffffffffffffffffffffffffffffffffffff161461229e576040517f08c379a000000000000000000000000000000000000000000000000000000000815260040161229590613e0b565b60405180910390fd5b600073ffffffffffffffffffffffffffffffffffffffff168273ffffffffffffffffffffffffffffffffffffffff16141561230e576040517f08c379a000000000000000000000000000000000000000000000000000000000815260040161230590613e4b565b60405180910390fd5b612319838383612979565b612324600082612091565b6001600360008573ffffffffffffffffffffffffffffffffffffffff1673ffffffffffffffffffffffffffffffffffffffff16815260200190815260200160002060008282546123749190614208565b925050819055506001600360008473ffffffffffffffffffffffffffffffffffffffff1673ffffffffffffffffffffffffffffffffffffffff16815260200190815260200160002060008282546123cb9190614158565b92505081905550816002600083815260200190815260200160002060006101000a81548173ffffffffffffffffffffffffffffffffffffffff021916908373ffffffffffffffffffffffffffffffffffffffff160217905550808273ffffffffffffffffffffffffffffffffffffffff168473ffffffffffffffffffffffffffffffffffffffff167fddf252ad1be2c89b69c2b068fc378daa952ba7f163c4a11628f55a4df523b3ef60405160405180910390a461248a838383612a8d565b505050565b600081600001549050919050565b60006124a882611459565b90506124b681600084612979565b6124c1600083612091565b6001600360008373ffffffffffffffffffffffffffffffffffffffff1673ffffffffffffffffffffffffffffffffffffffff16815260200190815260200160002060008282546125119190614208565b925050819055506002600083815260200190815260200160002060006101000a81549073ffffffffffffffffffffffffffffffffffffffff021916905581600073ffffffffffffffffffffffffffffffffffffffff168273ffffffffffffffffffffffffffffffffffffffff167fddf252ad1be2c89b69c2b068fc378daa952ba7f163c4a11628f55a4df523b3ef60405160405180910390a46125b681600084612a8d565b5050565b6001816000016000828254019250508190555050565b6125ea828260405180602001604052806000815250612a92565b5050565b6000601260009054906101000a900473ffffffffffffffffffffffffffffffffffffffff16905081601260006101000a81548173ffffffffffffffffffffffffffffffffffffffff021916908373ffffffffffffffffffffffffffffffffffffffff1602179055508173ffffffffffffffffffffffffffffffffffffffff168173ffffffffffffffffffffffffffffffffffffffff167f8be0079c531659141344cd1fd0a4f28419497f9722a3daafe3b4186f6b6457e060405160405180910390a35050565b8173ffffffffffffffffffffffffffffffffffffffff168373ffffffffffffffffffffffffffffffffffffffff161415612723576040517f08c379a000000000000000000000000000000000000000000000000000000000815260040161271a90613e6b565b60405180910390fd5b80600560008573ffffffffffffffffffffffffffffffffffffffff1673ffffffffffffffffffffffffffffffffffffffff16815260200190815260200160002060008473ffffffffffffffffffffffffffffffffffffffff1673ffffffffffffffffffffffffffffffffffffffff16815260200190815260200160002060006101000a81548160ff0219169083151502179055508173ffffffffffffffffffffffffffffffffffffffff168373ffffffffffffffffffffffffffffffffffffffff167f17307eab39ab6107e8899845ad3d59bd9653f200f220920489ca2b5937696c31836040516128149190613d4e565b60405180910390a3505050565b61282c848484612228565b61283884848484612aed565b612877576040517f08c379a000000000000000000000000000000000000000000000000000000000815260040161286e90613dcb565b60405180910390fd5b50505050565b6060600b805461288c906142f2565b80601f01602080910402602001604051908101604052809291908181526020018280546128b8906142f2565b80156129055780601f106128da57610100808354040283529160200191612905565b820191906000526020600020905b8154815290600101906020018083116128e857829003601f168201915b5050505050905090565b60007f01ffc9a7000000000000000000000000000000000000000000000000000000007bffffffffffffffffffffffffffffffffffffffffffffffffffffffff1916827bffffffffffffffffffffffffffffffffffffffffffffffffffffffff1916149050919050565b612984838383612c84565b600073ffffffffffffffffffffffffffffffffffffffff168373ffffffffffffffffffffffffffffffffffffffff1614156129c7576129c281612c89565b612a06565b8173ffffffffffffffffffffffffffffffffffffffff168373ffffffffffffffffffffffffffffffffffffffff1614612a0557612a048382612cd2565b5b5b600073ffffffffffffffffffffffffffffffffffffffff168273ffffffffffffffffffffffffffffffffffffffff161415612a4957612a4481612e3f565b612a88565b8273ffffffffffffffffffffffffffffffffffffffff168273ffffffffffffffffffffffffffffffffffffffff1614612a8757612a868282612f10565b5b5b505050565b505050565b612a9c8383612f8f565b612aa96000848484612aed565b612ae8576040517f08c379a0000000000000000000000000000000000000000000000000000000008152600401612adf90613dcb565b60405180910390fd5b505050565b6000612b0e8473ffffffffffffffffffffffffffffffffffffffff16613169565b15612c77578373ffffffffffffffffffffffffffffffffffffffff1663150b7a02612b37612089565b8786866040518563ffffffff1660e01b8152600401612b599493929190613d02565b602060405180830381600087803b158015612b7357600080fd5b505af1925050508015612ba457506040513d601f19601f82011682018060405250810190612ba191906135ef565b60015b612c27573d8060008114612bd4576040519150601f19603f3d011682016040523d82523d6000602084013e612bd9565b606091505b50600081511415612c1f576040517f08c379a0000000000000000000000000000000000000000000000000000000008152600401612c1690613dcb565b60405180910390fd5b805181602001fd5b63150b7a0260e01b7bffffffffffffffffffffffffffffffffffffffffffffffffffffffff1916817bffffffffffffffffffffffffffffffffffffffffffffffffffffffff191614915050612c7c565b600190505b949350505050565b505050565b6008805490506009600083815260200190815260200160002081905550600881908060018154018082558091505060019003906000526020600020016000909190919091505550565b60006001612cdf84611666565b612ce99190614208565b9050600060076000848152602001908152602001600020549050818114612dce576000600660008673ffffffffffffffffffffffffffffffffffffffff1673ffffffffffffffffffffffffffffffffffffffff168152602001908152602001600020600084815260200190815260200160002054905080600660008773ffffffffffffffffffffffffffffffffffffffff1673ffffffffffffffffffffffffffffffffffffffff168152602001908152602001600020600084815260200190815260200160002081905550816007600083815260200190815260200160002081905550505b6007600084815260200190815260200160002060009055600660008573ffffffffffffffffffffffffffffffffffffffff1673ffffffffffffffffffffffffffffffffffffffff16815260200190815260200160002060008381526020019081526020016000206000905550505050565b60006001600880549050612e539190614208565b9050600060096000848152602001908152602001600020549050600060088381548110612e8357612e826143e2565b5b906000526020600020015490508060088381548110612ea557612ea46143e2565b5b906000526020600020018190555081600960008381526020019081526020016000208190555060096000858152602001908152602001600020600090556008805480612ef457612ef36143b3565b5b6001900381819060005260206000200160009055905550505050565b6000612f1b83611666565b905081600660008573ffffffffffffffffffffffffffffffffffffffff1673ffffffffffffffffffffffffffffffffffffffff168152602001908152602001600020600083815260200190815260200160002081905550806007600084815260200190815260200160002081905550505050565b600073ffffffffffffffffffffffffffffffffffffffff168273ffffffffffffffffffffffffffffffffffffffff161415612fff576040517f08c379a0000000000000000000000000000000000000000000000000000000008152600401612ff690613f2b565b60405180910390fd5b6130088161201d565b15613048576040517f08c379a000000000000000000000000000000000000000000000000000000000815260040161303f90613e2b565b60405180910390fd5b61305460008383612979565b6001600360008473ffffffffffffffffffffffffffffffffffffffff1673ffffffffffffffffffffffffffffffffffffffff16815260200190815260200160002060008282546130a49190614158565b92505081905550816002600083815260200190815260200160002060006101000a81548173ffffffffffffffffffffffffffffffffffffffff021916908373ffffffffffffffffffffffffffffffffffffffff160217905550808273ffffffffffffffffffffffffffffffffffffffff16600073ffffffffffffffffffffffffffffffffffffffff167fddf252ad1be2c89b69c2b068fc378daa952ba7f163c4a11628f55a4df523b3ef60405160405180910390a461316560008383612a8d565b5050565b6000808273ffffffffffffffffffffffffffffffffffffffff163b119050919050565b604051806101c00160405280600073ffffffffffffffffffffffffffffffffffffffff1681526020016060815260200160608152602001606081526020016060815260200160608152602001606081526020016000815260200160008152602001600081526020016000815260200160008152602001600015158152602001600081525090565b82805461321f906142f2565b90600052602060002090601f0160209004810192826132415760008555613288565b82601f1061325a57805160ff1916838001178555613288565b82800160010185558215613288579182015b8281111561328757825182559160200191906001019061326c565b5b5090506132959190613299565b5090565b5b808211156132b257600081600090555060010161329a565b5090565b60006132c96132c4846140ad565b614088565b9050828152602081018484840111156132e5576132e4614445565b5b6132f08482856142b0565b509392505050565b600061330b613306846140de565b614088565b90508281526020810184848401111561332757613326614445565b5b6133328482856142b0565b509392505050565b600081359050613349816149ff565b92915050565b60008135905061335e81614a16565b92915050565b60008135905061337381614a2d565b92915050565b60008151905061338881614a2d565b92915050565b600082601f8301126133a3576133a2614440565b5b81356133b38482602086016132b6565b91505092915050565b600082601f8301126133d1576133d0614440565b5b81356133e18482602086016132f8565b91505092915050565b6000813590506133f981614a44565b92915050565b6000602082840312156134155761341461444f565b5b60006134238482850161333a565b91505092915050565b600080604083850312156134435761344261444f565b5b60006134518582860161333a565b92505060206134628582860161333a565b9150509250929050565b6000806000606084860312156134855761348461444f565b5b60006134938682870161333a565b93505060206134a48682870161333a565b92505060406134b5868287016133ea565b9150509250925092565b600080600080608085870312156134d9576134d861444f565b5b60006134e78782880161333a565b94505060206134f88782880161333a565b9350506040613509878288016133ea565b925050606085013567ffffffffffffffff81111561352a5761352961444a565b5b6135368782880161338e565b91505092959194509250565b600080604083850312156135595761355861444f565b5b60006135678582860161333a565b92505060206135788582860161334f565b9150509250929050565b600080604083850312156135995761359861444f565b5b60006135a78582860161333a565b92505060206135b8858286016133ea565b9150509250929050565b6000602082840312156135d8576135d761444f565b5b60006135e684828501613364565b91505092915050565b6000602082840312156136055761360461444f565b5b600061361384828501613379565b91505092915050565b6000806000606084860312156136355761363461444f565b5b600084013567ffffffffffffffff8111156136535761365261444a565b5b61365f868287016133bc565b93505060206136708682870161334f565b92505060406136818682870161333a565b9150509250925092565b600080600080608085870312156136a5576136a461444f565b5b600085013567ffffffffffffffff8111156136c3576136c261444a565b5b6136cf878288016133bc565b945050602085013567ffffffffffffffff8111156136f0576136ef61444a565b5b6136fc878288016133bc565b935050604085013567ffffffffffffffff81111561371d5761371c61444a565b5b613729878288016133bc565b925050606085013567ffffffffffffffff81111561374a5761374961444a565b5b613756878288016133bc565b91505092959194509250565b6000602082840312156137785761377761444f565b5b6000613786848285016133ea565b91505092915050565b6137988161423c565b82525050565b6137a78161423c565b82525050565b6137b68161424e565b82525050565b6137c58161424e565b82525050565b60006137d68261410f565b6137e08185614125565b93506137f08185602086016142bf565b6137f981614454565b840191505092915050565b600061380f8261411a565b6138198185614136565b93506138298185602086016142bf565b61383281614454565b840191505092915050565b60006138488261411a565b6138528185614147565b93506138628185602086016142bf565b61386b81614454565b840191505092915050565b6000613883601f83614147565b915061388e82614465565b602082019050919050565b60006138a6602b83614147565b91506138b18261448e565b604082019050919050565b60006138c9603283614147565b91506138d4826144dd565b604082019050919050565b60006138ec602683614147565b91506138f78261452c565b604082019050919050565b600061390f602583614147565b915061391a8261457b565b604082019050919050565b6000613932601c83614147565b915061393d826145ca565b602082019050919050565b6000613955602483614147565b9150613960826145f3565b604082019050919050565b6000613978601983614147565b915061398382614642565b602082019050919050565b600061399b601a83614147565b91506139a68261466b565b602082019050919050565b60006139be602c83614147565b91506139c982614694565b604082019050919050565b60006139e1603883614147565b91506139ec826146e3565b604082019050919050565b6000613a04602a83614147565b9150613a0f82614732565b604082019050919050565b6000613a27602983614147565b9150613a3282614781565b604082019050919050565b6000613a4a602083614147565b9150613a55826147d0565b602082019050919050565b6000613a6d602c83614147565b9150613a78826147f9565b604082019050919050565b6000613a90602083614147565b9150613a9b82614848565b602082019050919050565b6000613ab3602f83614147565b9150613abe82614871565b604082019050919050565b6000613ad6602183614147565b9150613ae1826148c0565b604082019050919050565b6000613af9603183614147565b9150613b048261490f565b604082019050919050565b6000613b1c602c83614147565b9150613b278261495e565b604082019050919050565b6000613b3f601e83614147565b9150613b4a826149ad565b602082019050919050565b6000613b62601c83614147565b9150613b6d826149d6565b602082019050919050565b60006101c083016000830151613b91600086018261378f565b5060208301518482036020860152613ba98282613804565b91505060408301518482036040860152613bc38282613804565b91505060608301518482036060860152613bdd8282613804565b91505060808301518482036080860152613bf78282613804565b91505060a083015184820360a0860152613c118282613804565b91505060c083015184820360c0860152613c2b8282613804565b91505060e0830151613c4060e0860182613cc9565b50610100830151613c55610100860182613cc9565b50610120830151613c6a610120860182613cc9565b50610140830151613c7f610140860182613cc9565b50610160830151613c94610160860182613cc9565b50610180830151613ca96101808601826137ad565b506101a0830151613cbe6101a0860182613cc9565b508091505092915050565b613cd2816142a6565b82525050565b613ce1816142a6565b82525050565b6000602082019050613cfc600083018461379e565b92915050565b6000608082019050613d17600083018761379e565b613d24602083018661379e565b613d316040830185613cd8565b8181036060830152613d4381846137cb565b905095945050505050565b6000602082019050613d6360008301846137bc565b92915050565b60006020820190508181036000830152613d83818461383d565b905092915050565b60006020820190508181036000830152613da481613876565b9050919050565b60006020820190508181036000830152613dc481613899565b9050919050565b60006020820190508181036000830152613de4816138bc565b9050919050565b60006020820190508181036000830152613e04816138df565b9050919050565b60006020820190508181036000830152613e2481613902565b9050919050565b60006020820190508181036000830152613e4481613925565b9050919050565b60006020820190508181036000830152613e6481613948565b9050919050565b60006020820190508181036000830152613e848161396b565b9050919050565b60006020820190508181036000830152613ea48161398e565b9050919050565b60006020820190508181036000830152613ec4816139b1565b9050919050565b60006020820190508181036000830152613ee4816139d4565b9050919050565b60006020820190508181036000830152613f04816139f7565b9050919050565b60006020820190508181036000830152613f2481613a1a565b9050919050565b60006020820190508181036000830152613f4481613a3d565b9050919050565b60006020820190508181036000830152613f6481613a60565b9050919050565b60006020820190508181036000830152613f8481613a83565b9050919050565b60006020820190508181036000830152613fa481613aa6565b9050919050565b60006020820190508181036000830152613fc481613ac9565b9050919050565b60006020820190508181036000830152613fe481613aec565b9050919050565b6000602082019050818103600083015261400481613b0f565b9050919050565b6000602082019050818103600083015261402481613b32565b9050919050565b6000602082019050818103600083015261404481613b55565b9050919050565b600060208201905081810360008301526140658184613b78565b905092915050565b60006020820190506140826000830184613cd8565b92915050565b60006140926140a3565b905061409e8282614324565b919050565b6000604051905090565b600067ffffffffffffffff8211156140c8576140c7614411565b5b6140d182614454565b9050602081019050919050565b600067ffffffffffffffff8211156140f9576140f8614411565b5b61410282614454565b9050602081019050919050565b600081519050919050565b600081519050919050565b600082825260208201905092915050565b600082825260208201905092915050565b600082825260208201905092915050565b6000614163826142a6565b915061416e836142a6565b9250827fffffffffffffffffffffffffffffffffffffffffffffffffffffffffffffffff038211156141a3576141a2614355565b5b828201905092915050565b60006141b9826142a6565b91506141c4836142a6565b9250817fffffffffffffffffffffffffffffffffffffffffffffffffffffffffffffffff04831182151516156141fd576141fc614355565b5b828202905092915050565b6000614213826142a6565b915061421e836142a6565b92508282101561423157614230614355565b5b828203905092915050565b600061424782614286565b9050919050565b60008115159050919050565b60007fffffffff0000000000000000000000000000000000000000000000000000000082169050919050565b600073ffffffffffffffffffffffffffffffffffffffff82169050919050565b6000819050919050565b82818337600083830152505050565b60005b838110156142dd5780820151818401526020810190506142c2565b838111156142ec576000848401525b50505050565b6000600282049050600182168061430a57607f821691505b6020821081141561431e5761431d614384565b5b50919050565b61432d82614454565b810181811067ffffffffffffffff8211171561434c5761434b614411565b5b80604052505050565b7f4e487b7100000000000000000000000000000000000000000000000000000000600052601160045260246000fd5b7f4e487b7100000000000000000000000000000000000000000000000000000000600052602260045260246000fd5b7f4e487b7100000000000000000000000000000000000000000000000000000000600052603160045260246000fd5b7f4e487b7100000000000000000000000000000000000000000000000000000000600052603260045260246000fd5b7f4e487b7100000000000000000000000000000000000000000000000000000000600052604160045260246000fd5b600080fd5b600080fd5b600080fd5b600080fd5b6000601f19601f8301169050919050565b7f5375622055524973206861766520616c7265616479206265656e207365742e00600082015250565b7f455243373231456e756d657261626c653a206f776e657220696e646578206f7560008201527f74206f6620626f756e6473000000000000000000000000000000000000000000602082015250565b7f4552433732313a207472616e7366657220746f206e6f6e20455243373231526560008201527f63656976657220696d706c656d656e7465720000000000000000000000000000602082015250565b7f4f776e61626c653a206e6577206f776e657220697320746865207a65726f206160008201527f6464726573730000000000000000000000000000000000000000000000000000602082015250565b7f4552433732313a207472616e736665722066726f6d20696e636f72726563742060008201527f6f776e6572000000000000000000000000000000000000000000000000000000602082015250565b7f4552433732313a20746f6b656e20616c7265616479206d696e74656400000000600082015250565b7f4552433732313a207472616e7366657220746f20746865207a65726f2061646460008201527f7265737300000000000000000000000000000000000000000000000000000000602082015250565b7f4552433732313a20617070726f766520746f2063616c6c657200000000000000600082015250565b7f426173652055524920686173206e6f74206265656e207365742e000000000000600082015250565b7f4552433732313a206f70657261746f7220717565727920666f72206e6f6e657860008201527f697374656e7420746f6b656e0000000000000000000000000000000000000000602082015250565b7f4552433732313a20617070726f76652063616c6c6572206973206e6f74206f7760008201527f6e6572206e6f7220617070726f76656420666f7220616c6c0000000000000000602082015250565b7f4552433732313a2062616c616e636520717565727920666f7220746865207a6560008201527f726f206164647265737300000000000000000000000000000000000000000000602082015250565b7f4552433732313a206f776e657220717565727920666f72206e6f6e657869737460008201527f656e7420746f6b656e0000000000000000000000000000000000000000000000602082015250565b7f4552433732313a206d696e7420746f20746865207a65726f2061646472657373600082015250565b7f4552433732313a20617070726f76656420717565727920666f72206e6f6e657860008201527f697374656e7420746f6b656e0000000000000000000000000000000000000000602082015250565b7f4f776e61626c653a2063616c6c6572206973206e6f7420746865206f776e6572600082015250565b7f4552433732314d657461646174613a2055524920717565727920666f72206e6f60008201527f6e6578697374656e7420746f6b656e0000000000000000000000000000000000602082015250565b7f4552433732313a20617070726f76616c20746f2063757272656e74206f776e6560008201527f7200000000000000000000000000000000000000000000000000000000000000602082015250565b7f4552433732313a207472616e736665722063616c6c6572206973206e6f74206f60008201527f776e6572206e6f7220617070726f766564000000000000000000000000000000602082015250565b7f455243373231456e756d657261626c653a20676c6f62616c20696e646578206f60008201527f7574206f6620626f756e64730000000000000000000000000000000000000000602082015250565b7f42617365205552492068617320616c7265616479206265656e207365742e0000600082015250565b7f496e76616c6964206469737472696275746f7220616464726573732e00000000600082015250565b614a088161423c565b8114614a1357600080fd5b50565b614a1f8161424e565b8114614a2a57600080fd5b50565b614a368161425a565b8114614a4157600080fd5b50565b614a4d816142a6565b8114614a5857600080fd5b5056fea2646970667358221220107d74434f58654aa320fad62f80716cf1b268577d7a0b1ec519f3452627fb5f64736f6c63430008050033",
  "immutableReferences": {
    "1396": [
      {
        "length": 32,
        "start": 3473
      },
      {
        "length": 32,
        "start": 4817
      },
      {
        "length": 32,
        "start": 4992
      },
      {
        "length": 32,
        "start": 6397
      },
      {
        "length": 32,
        "start": 6911
      },
      {
        "length": 32,
        "start": 7059
      }
    ],
    "1398": [
      {
        "length": 32,
        "start": 4304
      },
      {
        "length": 32,
        "start": 7423
      }
    ],
    "1400": [
      {
        "length": 32,
        "start": 4266
      },
      {
        "length": 32,
        "start": 6056
      }
    ],
    "1402": [
      {
        "length": 32,
        "start": 4357
      },
      {
        "length": 32,
        "start": 4938
      },
      {
        "length": 32,
        "start": 6338
      }
    ],
    "1404": [
      {
        "length": 32,
        "start": 4443
      },
      {
        "length": 32,
        "start": 5389
      }
    ],
    "1406": [
      {
        "length": 32,
        "start": 4403
      },
      {
        "length": 32,
        "start": 6280
      }
    ]
  },
  "source": "// SPDX-License-Identifier: BUSL-1.1\r\npragma solidity ^0.8.2;\r\n\r\nimport \"@openzeppelin/contracts/token/ERC721/ERC721.sol\";\r\n\r\nimport \"../Interfaces/Mintable.sol\";\r\n\r\nimport \"../../NFTProtocol/RatioSingleNFT.sol\";\r\n\r\ncontract PolyCard is RatioSingleNFT, Mintable, Ownable{\r\n\r\n    using Counters for Counters.Counter;\r\n    Counters.Counter private tokenIds;\r\n\r\n    uint256 MAX_INT = 2**256 - 1;\r\n\r\n    constructor(string memory _name, string memory _symbol )RatioSingleNFT(_name, _symbol, MAX_INT, 0, 0, true){\r\n        \r\n    }\r\n\r\n    function mint(address _receiver) external override(RatioSingleNFT, Mintable) payable onlyOwner returns(uint _id){\r\n        tokenIds.increment();\r\n        _id = tokenIds.current();\r\n        _safeMint(_receiver, _id);\r\n    }\r\n\r\n    function burn(uint _tokenId) external override(RatioSingleNFT, Mintable) onlyOwner{\r\n        _burn(_tokenId);\r\n    }\r\n}",
  "sourcePath": "/home/stephenstb/Ratio-Labs/ratio-labsV0/contracts/CryptoGame/NFTMints/PolyCard.sol",
  "compiler": {
    "name": "solc",
    "version": "0.8.5+commit.a4f2e591.Emscripten.clang"
  },
  "schemaVersion": "3.3.3",
  "updatedAt": "2022-07-16T02:59:42.760Z",
  "devdoc": {
    "kind": "dev",
    "methods": {
      "approve(address,uint256)": {
        "details": "See {IERC721-approve}."
      },
      "balanceOf(address)": {
        "details": "See {IERC721-balanceOf}."
      },
      "getApproved(uint256)": {
        "details": "See {IERC721-getApproved}."
      },
      "isApprovedForAll(address,address)": {
        "details": "See {IERC721-isApprovedForAll}."
      },
      "name()": {
        "details": "See {IERC721Metadata-name}."
      },
      "owner()": {
        "details": "Returns the address of the current owner."
      },
      "ownerOf(uint256)": {
        "details": "See {IERC721-ownerOf}."
      },
      "renounceOwnership()": {
        "details": "Leaves the contract without owner. It will not be possible to call `onlyOwner` functions anymore. Can only be called by the current owner. NOTE: Renouncing ownership will leave the contract without an owner, thereby removing any functionality that is only available to the owner."
      },
      "safeTransferFrom(address,address,uint256)": {
        "details": "See {IERC721-safeTransferFrom}."
      },
      "safeTransferFrom(address,address,uint256,bytes)": {
        "details": "See {IERC721-safeTransferFrom}."
      },
      "setApprovalForAll(address,bool)": {
        "details": "See {IERC721-setApprovalForAll}."
      },
      "supportsInterface(bytes4)": {
        "details": "See {IERC165-supportsInterface}."
      },
      "symbol()": {
        "details": "See {IERC721Metadata-symbol}."
      },
      "tokenByIndex(uint256)": {
        "details": "See {IERC721Enumerable-tokenByIndex}."
      },
      "tokenOfOwnerByIndex(address,uint256)": {
        "details": "See {IERC721Enumerable-tokenOfOwnerByIndex}."
      },
      "tokenURI(uint256)": {
        "details": "See {IERC721Metadata-tokenURI}."
      },
      "totalSupply()": {
        "details": "See {IERC721Enumerable-totalSupply}."
      },
      "transferFrom(address,address,uint256)": {
        "details": "See {IERC721-transferFrom}."
      },
      "transferOwnership(address)": {
        "details": "Transfers ownership of the contract to a new account (`newOwner`). Can only be called by the current owner."
      }
    },
    "version": 1
  },
  "userdoc": {
    "kind": "user",
    "methods": {},
    "version": 1
  }
}