{
  "contractName": "PolyCard",
  "abi": [
    {
      "inputs": [
        {
          "internalType": "string",
          "name": "_name",
          "type": "string"
        },
        {
          "internalType": "string",
          "name": "_symbol",
          "type": "string"
        }
      ],
      "stateMutability": "nonpayable",
      "type": "constructor"
    },
    {
      "anonymous": false,
      "inputs": [
        {
          "indexed": true,
          "internalType": "address",
          "name": "owner",
          "type": "address"
        },
        {
          "indexed": true,
          "internalType": "address",
          "name": "approved",
          "type": "address"
        },
        {
          "indexed": true,
          "internalType": "uint256",
          "name": "tokenId",
          "type": "uint256"
        }
      ],
      "name": "Approval",
      "type": "event"
    },
    {
      "anonymous": false,
      "inputs": [
        {
          "indexed": true,
          "internalType": "address",
          "name": "owner",
          "type": "address"
        },
        {
          "indexed": true,
          "internalType": "address",
          "name": "operator",
          "type": "address"
        },
        {
          "indexed": false,
          "internalType": "bool",
          "name": "approved",
          "type": "bool"
        }
      ],
      "name": "ApprovalForAll",
      "type": "event"
    },
    {
      "anonymous": false,
      "inputs": [
        {
          "indexed": true,
          "internalType": "address",
          "name": "previousOwner",
          "type": "address"
        },
        {
          "indexed": true,
          "internalType": "address",
          "name": "newOwner",
          "type": "address"
        }
      ],
      "name": "OwnershipTransferred",
      "type": "event"
    },
    {
      "anonymous": false,
      "inputs": [
        {
          "indexed": true,
          "internalType": "address",
          "name": "from",
          "type": "address"
        },
        {
          "indexed": true,
          "internalType": "address",
          "name": "to",
          "type": "address"
        },
        {
          "indexed": true,
          "internalType": "uint256",
          "name": "tokenId",
          "type": "uint256"
        }
      ],
      "name": "Transfer",
      "type": "event"
    },
    {
      "inputs": [
        {
          "internalType": "address",
          "name": "to",
          "type": "address"
        },
        {
          "internalType": "uint256",
          "name": "tokenId",
          "type": "uint256"
        }
      ],
      "name": "approve",
      "outputs": [],
      "stateMutability": "nonpayable",
      "type": "function"
    },
    {
      "inputs": [],
      "name": "audio",
      "outputs": [
        {
          "internalType": "string",
          "name": "",
          "type": "string"
        }
      ],
      "stateMutability": "view",
      "type": "function"
    },
    {
      "inputs": [
        {
          "internalType": "address",
          "name": "owner",
          "type": "address"
        }
      ],
      "name": "balanceOf",
      "outputs": [
        {
          "internalType": "uint256",
          "name": "",
          "type": "uint256"
        }
      ],
      "stateMutability": "view",
      "type": "function"
    },
    {
      "inputs": [],
      "name": "baseURI",
      "outputs": [
        {
          "internalType": "string",
          "name": "",
          "type": "string"
        }
      ],
      "stateMutability": "view",
      "type": "function"
    },
    {
      "inputs": [],
      "name": "distributor",
      "outputs": [
        {
          "internalType": "address",
          "name": "",
          "type": "address"
        }
      ],
      "stateMutability": "view",
      "type": "function"
    },
    {
      "inputs": [
        {
          "internalType": "uint256",
          "name": "tokenId",
          "type": "uint256"
        }
      ],
      "name": "getApproved",
      "outputs": [
        {
          "internalType": "address",
          "name": "",
          "type": "address"
        }
      ],
      "stateMutability": "view",
      "type": "function"
    },
    {
      "inputs": [],
      "name": "image",
      "outputs": [
        {
          "internalType": "string",
          "name": "",
          "type": "string"
        }
      ],
      "stateMutability": "view",
      "type": "function"
    },
    {
      "inputs": [],
      "name": "info",
      "outputs": [
        {
          "internalType": "string",
          "name": "_name",
          "type": "string"
        },
        {
          "internalType": "string",
          "name": "_image",
          "type": "string"
        },
        {
          "internalType": "string",
          "name": "_audio",
          "type": "string"
        },
        {
          "internalType": "string",
          "name": "_video",
          "type": "string"
        },
        {
          "internalType": "string",
          "name": "_model",
          "type": "string"
        },
        {
          "internalType": "uint256",
          "name": "_maxSupply",
          "type": "uint256"
        },
        {
          "internalType": "uint256",
          "name": "_mintValue",
          "type": "uint256"
        },
        {
          "internalType": "uint256",
          "name": "_minted",
          "type": "uint256"
        }
      ],
      "stateMutability": "view",
      "type": "function"
    },
    {
      "inputs": [
        {
          "internalType": "address",
          "name": "owner",
          "type": "address"
        },
        {
          "internalType": "address",
          "name": "operator",
          "type": "address"
        }
      ],
      "name": "isApprovedForAll",
      "outputs": [
        {
          "internalType": "bool",
          "name": "",
          "type": "bool"
        }
      ],
      "stateMutability": "view",
      "type": "function"
    },
    {
      "inputs": [],
      "name": "maxSupply",
      "outputs": [
        {
          "internalType": "uint256",
          "name": "",
          "type": "uint256"
        }
      ],
      "stateMutability": "view",
      "type": "function"
    },
    {
      "inputs": [],
      "name": "mintValue",
      "outputs": [
        {
          "internalType": "uint256",
          "name": "",
          "type": "uint256"
        }
      ],
      "stateMutability": "view",
      "type": "function"
    },
    {
      "inputs": [],
      "name": "model",
      "outputs": [
        {
          "internalType": "string",
          "name": "",
          "type": "string"
        }
      ],
      "stateMutability": "view",
      "type": "function"
    },
    {
      "inputs": [],
      "name": "name",
      "outputs": [
        {
          "internalType": "string",
          "name": "",
          "type": "string"
        }
      ],
      "stateMutability": "view",
      "type": "function"
    },
    {
      "inputs": [],
      "name": "owner",
      "outputs": [
        {
          "internalType": "address",
          "name": "",
          "type": "address"
        }
      ],
      "stateMutability": "view",
      "type": "function"
    },
    {
      "inputs": [
        {
          "internalType": "uint256",
          "name": "tokenId",
          "type": "uint256"
        }
      ],
      "name": "ownerOf",
      "outputs": [
        {
          "internalType": "address",
          "name": "",
          "type": "address"
        }
      ],
      "stateMutability": "view",
      "type": "function"
    },
    {
      "inputs": [],
      "name": "renounceOwnership",
      "outputs": [],
      "stateMutability": "nonpayable",
      "type": "function"
    },
    {
      "inputs": [
        {
          "internalType": "address",
          "name": "from",
          "type": "address"
        },
        {
          "internalType": "address",
          "name": "to",
          "type": "address"
        },
        {
          "internalType": "uint256",
          "name": "tokenId",
          "type": "uint256"
        }
      ],
      "name": "safeTransferFrom",
      "outputs": [],
      "stateMutability": "nonpayable",
      "type": "function"
    },
    {
      "inputs": [
        {
          "internalType": "address",
          "name": "from",
          "type": "address"
        },
        {
          "internalType": "address",
          "name": "to",
          "type": "address"
        },
        {
          "internalType": "uint256",
          "name": "tokenId",
          "type": "uint256"
        },
        {
          "internalType": "bytes",
          "name": "_data",
          "type": "bytes"
        }
      ],
      "name": "safeTransferFrom",
      "outputs": [],
      "stateMutability": "nonpayable",
      "type": "function"
    },
    {
      "inputs": [
        {
          "internalType": "address",
          "name": "operator",
          "type": "address"
        },
        {
          "internalType": "bool",
          "name": "approved",
          "type": "bool"
        }
      ],
      "name": "setApprovalForAll",
      "outputs": [],
      "stateMutability": "nonpayable",
      "type": "function"
    },
    {
      "inputs": [
        {
          "internalType": "string",
          "name": "_uri",
          "type": "string"
        },
        {
          "internalType": "bool",
          "name": "_ratioProtocol",
          "type": "bool"
        },
        {
          "internalType": "address",
          "name": "_protocolAddress",
          "type": "address"
        }
      ],
      "name": "setBaseURI",
      "outputs": [],
      "stateMutability": "payable",
      "type": "function"
    },
    {
      "inputs": [
        {
          "internalType": "string",
          "name": "_image",
          "type": "string"
        },
        {
          "internalType": "string",
          "name": "_audio",
          "type": "string"
        },
        {
          "internalType": "string",
          "name": "_video",
          "type": "string"
        },
        {
          "internalType": "string",
          "name": "_model",
          "type": "string"
        }
      ],
      "name": "setSubURIs",
      "outputs": [],
      "stateMutability": "nonpayable",
      "type": "function"
    },
    {
      "inputs": [
        {
          "internalType": "bytes4",
          "name": "interfaceId",
          "type": "bytes4"
        }
      ],
      "name": "supportsInterface",
      "outputs": [
        {
          "internalType": "bool",
          "name": "",
          "type": "bool"
        }
      ],
      "stateMutability": "view",
      "type": "function"
    },
    {
      "inputs": [],
      "name": "symbol",
      "outputs": [
        {
          "internalType": "string",
          "name": "",
          "type": "string"
        }
      ],
      "stateMutability": "view",
      "type": "function"
    },
    {
      "inputs": [
        {
          "internalType": "uint256",
          "name": "index",
          "type": "uint256"
        }
      ],
      "name": "tokenByIndex",
      "outputs": [
        {
          "internalType": "uint256",
          "name": "",
          "type": "uint256"
        }
      ],
      "stateMutability": "view",
      "type": "function"
    },
    {
      "inputs": [
        {
          "internalType": "address",
          "name": "owner",
          "type": "address"
        },
        {
          "internalType": "uint256",
          "name": "index",
          "type": "uint256"
        }
      ],
      "name": "tokenOfOwnerByIndex",
      "outputs": [
        {
          "internalType": "uint256",
          "name": "",
          "type": "uint256"
        }
      ],
      "stateMutability": "view",
      "type": "function"
    },
    {
      "inputs": [
        {
          "internalType": "uint256",
          "name": "tokenId",
          "type": "uint256"
        }
      ],
      "name": "tokenURI",
      "outputs": [
        {
          "internalType": "string",
          "name": "",
          "type": "string"
        }
      ],
      "stateMutability": "view",
      "type": "function"
    },
    {
      "inputs": [],
      "name": "totalSupply",
      "outputs": [
        {
          "internalType": "uint256",
          "name": "",
          "type": "uint256"
        }
      ],
      "stateMutability": "view",
      "type": "function"
    },
    {
      "inputs": [
        {
          "internalType": "address",
          "name": "from",
          "type": "address"
        },
        {
          "internalType": "address",
          "name": "to",
          "type": "address"
        },
        {
          "internalType": "uint256",
          "name": "tokenId",
          "type": "uint256"
        }
      ],
      "name": "transferFrom",
      "outputs": [],
      "stateMutability": "nonpayable",
      "type": "function"
    },
    {
      "inputs": [
        {
          "internalType": "address",
          "name": "newOwner",
          "type": "address"
        }
      ],
      "name": "transferOwnership",
      "outputs": [],
      "stateMutability": "nonpayable",
      "type": "function"
    },
    {
      "inputs": [],
      "name": "video",
      "outputs": [
        {
          "internalType": "string",
          "name": "",
          "type": "string"
        }
      ],
      "stateMutability": "view",
      "type": "function"
    },
    {
      "inputs": [
        {
          "internalType": "address",
          "name": "_receiver",
          "type": "address"
        }
      ],
      "name": "mint",
      "outputs": [
        {
          "internalType": "uint256",
          "name": "_id",
          "type": "uint256"
        }
      ],
      "stateMutability": "payable",
      "type": "function"
    },
    {
      "inputs": [
        {
          "internalType": "uint256",
          "name": "_tokenId",
          "type": "uint256"
        }
      ],
      "name": "burn",
      "outputs": [],
      "stateMutability": "nonpayable",
      "type": "function"
    }
  ],
  "bytecode": "0x60e06040526000600f60006101000a81548160ff0219169083151502179055506000600f60016101000a81548160ff0219169083151502179055507fffffffffffffffffffffffffffffffffffffffffffffffffffffffffffffffff6013553480156200006b57600080fd5b5060405162004cfc38038062004cfc83398181016040528101906200009191906200033d565b8181601354600083838160009080519060200190620000b29291906200020f565b508060019080519060200190620000cb9291906200020f565b5050503373ffffffffffffffffffffffffffffffffffffffff1660808173ffffffffffffffffffffffffffffffffffffffff1660601b815250508160a081815250508060c0818152505050505050620001396200012d6200014160201b60201c565b6200014960201b60201c565b505062000546565b600033905090565b6000601160009054906101000a900473ffffffffffffffffffffffffffffffffffffffff16905081601160006101000a81548173ffffffffffffffffffffffffffffffffffffffff021916908373ffffffffffffffffffffffffffffffffffffffff1602179055508173ffffffffffffffffffffffffffffffffffffffff168173ffffffffffffffffffffffffffffffffffffffff167f8be0079c531659141344cd1fd0a4f28419497f9722a3daafe3b4186f6b6457e060405160405180910390a35050565b8280546200021d9062000457565b90600052602060002090601f0160209004810192826200024157600085556200028d565b82601f106200025c57805160ff19168380011785556200028d565b828001600101855582156200028d579182015b828111156200028c5782518255916020019190600101906200026f565b5b5090506200029c9190620002a0565b5090565b5b80821115620002bb576000816000905550600101620002a1565b5090565b6000620002d6620002d084620003eb565b620003c2565b905082815260208101848484011115620002f557620002f462000526565b5b6200030284828562000421565b509392505050565b600082601f83011262000322576200032162000521565b5b815162000334848260208601620002bf565b91505092915050565b6000806040838503121562000357576200035662000530565b5b600083015167ffffffffffffffff8111156200037857620003776200052b565b5b62000386858286016200030a565b925050602083015167ffffffffffffffff811115620003aa57620003a96200052b565b5b620003b8858286016200030a565b9150509250929050565b6000620003ce620003e1565b9050620003dc82826200048d565b919050565b6000604051905090565b600067ffffffffffffffff821115620004095762000408620004f2565b5b620004148262000535565b9050602081019050919050565b60005b838110156200044157808201518184015260208101905062000424565b8381111562000451576000848401525b50505050565b600060028204905060018216806200047057607f821691505b60208210811415620004875762000486620004c3565b5b50919050565b620004988262000535565b810181811067ffffffffffffffff82111715620004ba57620004b9620004f2565b5b80604052505050565b7f4e487b7100000000000000000000000000000000000000000000000000000000600052602260045260246000fd5b7f4e487b7100000000000000000000000000000000000000000000000000000000600052604160045260246000fd5b600080fd5b600080fd5b600080fd5b600080fd5b6000601f19601f8301169050919050565b60805160601c60a05160c0516147676200059560003960008181610cc80152611407015260008181610ca701526119640152600081816115140152818161171601526117f801526147676000f3fe6080604052600436106101e35760003560e01c80636c0360eb11610102578063b88d4fde11610095578063d5abeb0111610064578063d5abeb01146106f5578063e985e9c514610720578063f2fde38b1461075d578063f3ccaac014610786576101e3565b8063b88d4fde14610648578063bfe1092814610671578063c87b56dd1461069c578063d52b1f53146106d9576101e3565b80638da5cb5b116100d15780638da5cb5b146105a057806395d89b41146105cb578063a22cb465146105f6578063b822fd2c1461061f576101e3565b80636c0360eb146104f657806370a0823114610521578063715018a61461055e57806389c77dfe14610575576101e3565b80632f745c591161017a57806342966c681161014957806342966c68146104235780634f6ccce71461044c5780636352211e146104895780636a627842146104c6576101e3565b80632f745c5914610360578063370158ea1461039d578063407d2236146103cf57806342842e0e146103fa576101e3565b80630ad9d052116101b65780630ad9d052146102b657806311b00617146102e157806318160ddd1461030c57806323b872dd14610337576101e3565b806301ffc9a7146101e857806306fdde0314610225578063081812fc14610250578063095ea7b31461028d575b600080fd5b3480156101f457600080fd5b5061020f600480360381019061020a9190613301565b6107b1565b60405161021c919061392b565b60405180910390f35b34801561023157600080fd5b5061023a61082b565b6040516102479190613946565b60405180910390f35b34801561025c57600080fd5b50610277600480360381019061027291906134a1565b6108bd565b60405161028491906138c4565b60405180910390f35b34801561029957600080fd5b506102b460048036038101906102af91906132c1565b610942565b005b3480156102c257600080fd5b506102cb610a5a565b6040516102d89190613946565b60405180910390f35b3480156102ed57600080fd5b506102f6610ae8565b6040516103039190613946565b60405180910390f35b34801561031857600080fd5b50610321610b76565b60405161032e9190613cc9565b60405180910390f35b34801561034357600080fd5b5061035e600480360381019061035991906131ab565b610b83565b005b34801561036c57600080fd5b50610387600480360381019061038291906132c1565b610be3565b6040516103949190613cc9565b60405180910390f35b3480156103a957600080fd5b506103b2610c88565b6040516103c6989796959493929190613968565b60405180910390f35b3480156103db57600080fd5b506103e4610f3b565b6040516103f19190613946565b60405180910390f35b34801561040657600080fd5b50610421600480360381019061041c91906131ab565b610fc9565b005b34801561042f57600080fd5b5061044a600480360381019061044591906134a1565b610fe9565b005b34801561045857600080fd5b50610473600480360381019061046e91906134a1565b611071565b6040516104809190613cc9565b60405180910390f35b34801561049557600080fd5b506104b060048036038101906104ab91906134a1565b6110e2565b6040516104bd91906138c4565b60405180910390f35b6104e060048036038101906104db919061313e565b611194565b6040516104ed9190613cc9565b60405180910390f35b34801561050257600080fd5b5061050b611237565b6040516105189190613946565b60405180910390f35b34801561052d57600080fd5b506105486004803603810190610543919061313e565b6112c5565b6040516105559190613cc9565b60405180910390f35b34801561056a57600080fd5b5061057361137d565b005b34801561058157600080fd5b5061058a611405565b6040516105979190613cc9565b60405180910390f35b3480156105ac57600080fd5b506105b5611429565b6040516105c291906138c4565b60405180910390f35b3480156105d757600080fd5b506105e0611453565b6040516105ed9190613946565b60405180910390f35b34801561060257600080fd5b5061061d60048036038101906106189190613281565b6114e5565b005b34801561062b57600080fd5b50610646600480360381019061064191906133ca565b6114fb565b005b34801561065457600080fd5b5061066f600480360381019061066a91906131fe565b6116b2565b005b34801561067d57600080fd5b50610686611714565b60405161069391906138c4565b60405180910390f35b3480156106a857600080fd5b506106c360048036038101906106be91906134a1565b611738565b6040516106d09190613946565b60405180910390f35b6106f360048036038101906106ee919061335b565b6117df565b005b34801561070157600080fd5b5061070a611962565b6040516107179190613cc9565b60405180910390f35b34801561072c57600080fd5b506107476004803603810190610742919061316b565b611986565b604051610754919061392b565b60405180910390f35b34801561076957600080fd5b50610784600480360381019061077f919061313e565b611a1a565b005b34801561079257600080fd5b5061079b611b12565b6040516107a89190613946565b60405180910390f35b60007f780e9d63000000000000000000000000000000000000000000000000000000007bffffffffffffffffffffffffffffffffffffffffffffffffffffffff1916827bffffffffffffffffffffffffffffffffffffffffffffffffffffffff19161480610824575061082382611ba0565b5b9050919050565b60606000805461083a90613f1f565b80601f016020809104026020016040519081016040528092919081815260200182805461086690613f1f565b80156108b35780601f10610888576101008083540402835291602001916108b3565b820191906000526020600020905b81548152906001019060200180831161089657829003601f168201915b5050505050905090565b60006108c882611c82565b610907576040517f08c379a00000000000000000000000000000000000000000000000000000000081526004016108fe90613bc9565b60405180910390fd5b6004600083815260200190815260200160002060009054906101000a900473ffffffffffffffffffffffffffffffffffffffff169050919050565b600061094d826110e2565b90508073ffffffffffffffffffffffffffffffffffffffff168373ffffffffffffffffffffffffffffffffffffffff1614156109be576040517f08c379a00000000000000000000000000000000000000000000000000000000081526004016109b590613c29565b60405180910390fd5b8073ffffffffffffffffffffffffffffffffffffffff166109dd611cee565b73ffffffffffffffffffffffffffffffffffffffff161480610a0c5750610a0b81610a06611cee565b611986565b5b610a4b576040517f08c379a0000000000000000000000000000000000000000000000000000000008152600401610a4290613b49565b60405180910390fd5b610a558383611cf6565b505050565b600e8054610a6790613f1f565b80601f0160208091040260200160405190810160405280929190818152602001828054610a9390613f1f565b8015610ae05780601f10610ab557610100808354040283529160200191610ae0565b820191906000526020600020905b815481529060010190602001808311610ac357829003601f168201915b505050505081565b600d8054610af590613f1f565b80601f0160208091040260200160405190810160405280929190818152602001828054610b2190613f1f565b8015610b6e5780601f10610b4357610100808354040283529160200191610b6e565b820191906000526020600020905b815481529060010190602001808311610b5157829003601f168201915b505050505081565b6000600880549050905090565b610b94610b8e611cee565b82611daf565b610bd3576040517f08c379a0000000000000000000000000000000000000000000000000000000008152600401610bca90613c49565b60405180910390fd5b610bde838383611e8d565b505050565b6000610bee836112c5565b8210610c2f576040517f08c379a0000000000000000000000000000000000000000000000000000000008152600401610c2690613a29565b60405180910390fd5b600660008473ffffffffffffffffffffffffffffffffffffffff1673ffffffffffffffffffffffffffffffffffffffff168152602001908152602001600020600083815260200190815260200160002054905092915050565b60608060608060606000806000610c9d61082b565b600b600c600d600e7f00000000000000000000000000000000000000000000000000000000000000007f0000000000000000000000000000000000000000000000000000000000000000610cf160106120f4565b868054610cfd90613f1f565b80601f0160208091040260200160405190810160405280929190818152602001828054610d2990613f1f565b8015610d765780601f10610d4b57610100808354040283529160200191610d76565b820191906000526020600020905b815481529060010190602001808311610d5957829003601f168201915b50505050509650858054610d8990613f1f565b80601f0160208091040260200160405190810160405280929190818152602001828054610db590613f1f565b8015610e025780601f10610dd757610100808354040283529160200191610e02565b820191906000526020600020905b815481529060010190602001808311610de557829003601f168201915b50505050509550848054610e1590613f1f565b80601f0160208091040260200160405190810160405280929190818152602001828054610e4190613f1f565b8015610e8e5780601f10610e6357610100808354040283529160200191610e8e565b820191906000526020600020905b815481529060010190602001808311610e7157829003601f168201915b50505050509450838054610ea190613f1f565b80601f0160208091040260200160405190810160405280929190818152602001828054610ecd90613f1f565b8015610f1a5780601f10610eef57610100808354040283529160200191610f1a565b820191906000526020600020905b815481529060010190602001808311610efd57829003601f168201915b50505050509350975097509750975097509750975097509091929394959697565b600c8054610f4890613f1f565b80601f0160208091040260200160405190810160405280929190818152602001828054610f7490613f1f565b8015610fc15780601f10610f9657610100808354040283529160200191610fc1565b820191906000526020600020905b815481529060010190602001808311610fa457829003601f168201915b505050505081565b610fe4838383604051806020016040528060008152506116b2565b505050565b610ff1611cee565b73ffffffffffffffffffffffffffffffffffffffff1661100f611429565b73ffffffffffffffffffffffffffffffffffffffff1614611065576040517f08c379a000000000000000000000000000000000000000000000000000000000815260040161105c90613be9565b60405180910390fd5b61106e81612102565b50565b600061107b610b76565b82106110bc576040517f08c379a00000000000000000000000000000000000000000000000000000000081526004016110b390613c69565b60405180910390fd5b600882815481106110d0576110cf6140b8565b5b90600052602060002001549050919050565b6000806002600084815260200190815260200160002060009054906101000a900473ffffffffffffffffffffffffffffffffffffffff169050600073ffffffffffffffffffffffffffffffffffffffff168173ffffffffffffffffffffffffffffffffffffffff16141561118b576040517f08c379a000000000000000000000000000000000000000000000000000000000815260040161118290613b89565b60405180910390fd5b80915050919050565b600061119e611cee565b73ffffffffffffffffffffffffffffffffffffffff166111bc611429565b73ffffffffffffffffffffffffffffffffffffffff1614611212576040517f08c379a000000000000000000000000000000000000000000000000000000000815260040161120990613be9565b60405180910390fd5b61121c601261221f565b61122660126120f4565b90506112328282612235565b919050565b600a805461124490613f1f565b80601f016020809104026020016040519081016040528092919081815260200182805461127090613f1f565b80156112bd5780601f10611292576101008083540402835291602001916112bd565b820191906000526020600020905b8154815290600101906020018083116112a057829003601f168201915b505050505081565b60008073ffffffffffffffffffffffffffffffffffffffff168273ffffffffffffffffffffffffffffffffffffffff161415611336576040517f08c379a000000000000000000000000000000000000000000000000000000000815260040161132d90613b69565b60405180910390fd5b600360008373ffffffffffffffffffffffffffffffffffffffff1673ffffffffffffffffffffffffffffffffffffffff168152602001908152602001600020549050919050565b611385611cee565b73ffffffffffffffffffffffffffffffffffffffff166113a3611429565b73ffffffffffffffffffffffffffffffffffffffff16146113f9576040517f08c379a00000000000000000000000000000000000000000000000000000000081526004016113f090613be9565b60405180910390fd5b6114036000612253565b565b7f000000000000000000000000000000000000000000000000000000000000000081565b6000601160009054906101000a900473ffffffffffffffffffffffffffffffffffffffff16905090565b60606001805461146290613f1f565b80601f016020809104026020016040519081016040528092919081815260200182805461148e90613f1f565b80156114db5780601f106114b0576101008083540402835291602001916114db565b820191906000526020600020905b8154815290600101906020018083116114be57829003601f168201915b5050505050905090565b6114f76114f0611cee565b8383612319565b5050565b3373ffffffffffffffffffffffffffffffffffffffff167f000000000000000000000000000000000000000000000000000000000000000073ffffffffffffffffffffffffffffffffffffffff1614611589576040517f08c379a000000000000000000000000000000000000000000000000000000000815260040161158090613ca9565b60405180910390fd5b60011515600f60009054906101000a900460ff161515146115df576040517f08c379a00000000000000000000000000000000000000000000000000000000081526004016115d690613b09565b60405180910390fd5b60001515600f60019054906101000a900460ff16151514611635576040517f08c379a000000000000000000000000000000000000000000000000000000000815260040161162c90613a09565b60405180910390fd5b83600b908051906020019061164b929190612f52565b5082600c9080519060200190611662929190612f52565b5081600d9080519060200190611679929190612f52565b5080600e9080519060200190611690929190612f52565b506001600f60016101000a81548160ff02191690831515021790555050505050565b6116c36116bd611cee565b83611daf565b611702576040517f08c379a00000000000000000000000000000000000000000000000000000000081526004016116f990613c49565b60405180910390fd5b61170e84848484612486565b50505050565b7f000000000000000000000000000000000000000000000000000000000000000081565b606061174382611c82565b611782576040517f08c379a000000000000000000000000000000000000000000000000000000000815260040161177990613c09565b60405180910390fd5b600061178c6124e2565b905060008151116117ac57604051806020016040528060008152506117d7565b806117b684612574565b6040516020016117c79291906138a0565b6040516020818303038152906040525b915050919050565b3373ffffffffffffffffffffffffffffffffffffffff167f000000000000000000000000000000000000000000000000000000000000000073ffffffffffffffffffffffffffffffffffffffff161461186d576040517f08c379a000000000000000000000000000000000000000000000000000000000815260040161186490613ca9565b60405180910390fd5b60001515600f60009054906101000a900460ff161515146118c3576040517f08c379a00000000000000000000000000000000000000000000000000000000081526004016118ba90613c89565b60405180910390fd5b82600a90805190602001906118d9929190612f52565b508115611942578073ffffffffffffffffffffffffffffffffffffffff166307ec3039346040518263ffffffff1660e01b81526004016000604051808303818588803b15801561192857600080fd5b505af115801561193c573d6000803e3d6000fd5b50505050505b6001600f60006101000a81548160ff021916908315150217905550505050565b7f000000000000000000000000000000000000000000000000000000000000000081565b6000600560008473ffffffffffffffffffffffffffffffffffffffff1673ffffffffffffffffffffffffffffffffffffffff16815260200190815260200160002060008373ffffffffffffffffffffffffffffffffffffffff1673ffffffffffffffffffffffffffffffffffffffff16815260200190815260200160002060009054906101000a900460ff16905092915050565b611a22611cee565b73ffffffffffffffffffffffffffffffffffffffff16611a40611429565b73ffffffffffffffffffffffffffffffffffffffff1614611a96576040517f08c379a0000000000000000000000000000000000000000000000000000000008152600401611a8d90613be9565b60405180910390fd5b600073ffffffffffffffffffffffffffffffffffffffff168173ffffffffffffffffffffffffffffffffffffffff161415611b06576040517f08c379a0000000000000000000000000000000000000000000000000000000008152600401611afd90613a69565b60405180910390fd5b611b0f81612253565b50565b600b8054611b1f90613f1f565b80601f0160208091040260200160405190810160405280929190818152602001828054611b4b90613f1f565b8015611b985780601f10611b6d57610100808354040283529160200191611b98565b820191906000526020600020905b815481529060010190602001808311611b7b57829003601f168201915b505050505081565b60007f80ac58cd000000000000000000000000000000000000000000000000000000007bffffffffffffffffffffffffffffffffffffffffffffffffffffffff1916827bffffffffffffffffffffffffffffffffffffffffffffffffffffffff19161480611c6b57507f5b5e139f000000000000000000000000000000000000000000000000000000007bffffffffffffffffffffffffffffffffffffffffffffffffffffffff1916827bffffffffffffffffffffffffffffffffffffffffffffffffffffffff1916145b80611c7b5750611c7a826126d5565b5b9050919050565b60008073ffffffffffffffffffffffffffffffffffffffff166002600084815260200190815260200160002060009054906101000a900473ffffffffffffffffffffffffffffffffffffffff1673ffffffffffffffffffffffffffffffffffffffff1614159050919050565b600033905090565b816004600083815260200190815260200160002060006101000a81548173ffffffffffffffffffffffffffffffffffffffff021916908373ffffffffffffffffffffffffffffffffffffffff160217905550808273ffffffffffffffffffffffffffffffffffffffff16611d69836110e2565b73ffffffffffffffffffffffffffffffffffffffff167f8c5be1e5ebec7d5bd14f71427d1e84f3dd0314c0f7b2291e5b200ac8c7c3b92560405160405180910390a45050565b6000611dba82611c82565b611df9576040517f08c379a0000000000000000000000000000000000000000000000000000000008152600401611df090613b29565b60405180910390fd5b6000611e04836110e2565b90508073ffffffffffffffffffffffffffffffffffffffff168473ffffffffffffffffffffffffffffffffffffffff161480611e7357508373ffffffffffffffffffffffffffffffffffffffff16611e5b846108bd565b73ffffffffffffffffffffffffffffffffffffffff16145b80611e845750611e838185611986565b5b91505092915050565b8273ffffffffffffffffffffffffffffffffffffffff16611ead826110e2565b73ffffffffffffffffffffffffffffffffffffffff1614611f03576040517f08c379a0000000000000000000000000000000000000000000000000000000008152600401611efa90613a89565b60405180910390fd5b600073ffffffffffffffffffffffffffffffffffffffff168273ffffffffffffffffffffffffffffffffffffffff161415611f73576040517f08c379a0000000000000000000000000000000000000000000000000000000008152600401611f6a90613ac9565b60405180910390fd5b611f7e83838361273f565b611f89600082611cf6565b6001600360008573ffffffffffffffffffffffffffffffffffffffff1673ffffffffffffffffffffffffffffffffffffffff1681526020019081526020016000206000828254611fd99190613e35565b925050819055506001600360008473ffffffffffffffffffffffffffffffffffffffff1673ffffffffffffffffffffffffffffffffffffffff16815260200190815260200160002060008282546120309190613dae565b92505081905550816002600083815260200190815260200160002060006101000a81548173ffffffffffffffffffffffffffffffffffffffff021916908373ffffffffffffffffffffffffffffffffffffffff160217905550808273ffffffffffffffffffffffffffffffffffffffff168473ffffffffffffffffffffffffffffffffffffffff167fddf252ad1be2c89b69c2b068fc378daa952ba7f163c4a11628f55a4df523b3ef60405160405180910390a46120ef838383612853565b505050565b600081600001549050919050565b600061210d826110e2565b905061211b8160008461273f565b612126600083611cf6565b6001600360008373ffffffffffffffffffffffffffffffffffffffff1673ffffffffffffffffffffffffffffffffffffffff16815260200190815260200160002060008282546121769190613e35565b925050819055506002600083815260200190815260200160002060006101000a81549073ffffffffffffffffffffffffffffffffffffffff021916905581600073ffffffffffffffffffffffffffffffffffffffff168273ffffffffffffffffffffffffffffffffffffffff167fddf252ad1be2c89b69c2b068fc378daa952ba7f163c4a11628f55a4df523b3ef60405160405180910390a461221b81600084612853565b5050565b6001816000016000828254019250508190555050565b61224f828260405180602001604052806000815250612858565b5050565b6000601160009054906101000a900473ffffffffffffffffffffffffffffffffffffffff16905081601160006101000a81548173ffffffffffffffffffffffffffffffffffffffff021916908373ffffffffffffffffffffffffffffffffffffffff1602179055508173ffffffffffffffffffffffffffffffffffffffff168173ffffffffffffffffffffffffffffffffffffffff167f8be0079c531659141344cd1fd0a4f28419497f9722a3daafe3b4186f6b6457e060405160405180910390a35050565b8173ffffffffffffffffffffffffffffffffffffffff168373ffffffffffffffffffffffffffffffffffffffff161415612388576040517f08c379a000000000000000000000000000000000000000000000000000000000815260040161237f90613ae9565b60405180910390fd5b80600560008573ffffffffffffffffffffffffffffffffffffffff1673ffffffffffffffffffffffffffffffffffffffff16815260200190815260200160002060008473ffffffffffffffffffffffffffffffffffffffff1673ffffffffffffffffffffffffffffffffffffffff16815260200190815260200160002060006101000a81548160ff0219169083151502179055508173ffffffffffffffffffffffffffffffffffffffff168373ffffffffffffffffffffffffffffffffffffffff167f17307eab39ab6107e8899845ad3d59bd9653f200f220920489ca2b5937696c3183604051612479919061392b565b60405180910390a3505050565b612491848484611e8d565b61249d848484846128b3565b6124dc576040517f08c379a00000000000000000000000000000000000000000000000000000000081526004016124d390613a49565b60405180910390fd5b50505050565b6060600a80546124f190613f1f565b80601f016020809104026020016040519081016040528092919081815260200182805461251d90613f1f565b801561256a5780601f1061253f5761010080835404028352916020019161256a565b820191906000526020600020905b81548152906001019060200180831161254d57829003601f168201915b5050505050905090565b606060008214156125bc576040518060400160405280600181526020017f300000000000000000000000000000000000000000000000000000000000000081525090506126d0565b600082905060005b600082146125ee5780806125d790613f82565b915050600a826125e79190613e04565b91506125c4565b60008167ffffffffffffffff81111561260a576126096140e7565b5b6040519080825280601f01601f19166020018201604052801561263c5781602001600182028036833780820191505090505b5090505b600085146126c9576001826126559190613e35565b9150600a856126649190613fcb565b60306126709190613dae565b60f81b818381518110612686576126856140b8565b5b60200101907effffffffffffffffffffffffffffffffffffffffffffffffffffffffffffff1916908160001a905350600a856126c29190613e04565b9450612640565b8093505050505b919050565b60007f01ffc9a7000000000000000000000000000000000000000000000000000000007bffffffffffffffffffffffffffffffffffffffffffffffffffffffff1916827bffffffffffffffffffffffffffffffffffffffffffffffffffffffff1916149050919050565b61274a838383612a4a565b600073ffffffffffffffffffffffffffffffffffffffff168373ffffffffffffffffffffffffffffffffffffffff16141561278d5761278881612a4f565b6127cc565b8173ffffffffffffffffffffffffffffffffffffffff168373ffffffffffffffffffffffffffffffffffffffff16146127cb576127ca8382612a98565b5b5b600073ffffffffffffffffffffffffffffffffffffffff168273ffffffffffffffffffffffffffffffffffffffff16141561280f5761280a81612c05565b61284e565b8273ffffffffffffffffffffffffffffffffffffffff168273ffffffffffffffffffffffffffffffffffffffff161461284d5761284c8282612cd6565b5b5b505050565b505050565b6128628383612d55565b61286f60008484846128b3565b6128ae576040517f08c379a00000000000000000000000000000000000000000000000000000000081526004016128a590613a49565b60405180910390fd5b505050565b60006128d48473ffffffffffffffffffffffffffffffffffffffff16612f2f565b15612a3d578373ffffffffffffffffffffffffffffffffffffffff1663150b7a026128fd611cee565b8786866040518563ffffffff1660e01b815260040161291f94939291906138df565b602060405180830381600087803b15801561293957600080fd5b505af192505050801561296a57506040513d601f19601f82011682018060405250810190612967919061332e565b60015b6129ed573d806000811461299a576040519150601f19603f3d011682016040523d82523d6000602084013e61299f565b606091505b506000815114156129e5576040517f08c379a00000000000000000000000000000000000000000000000000000000081526004016129dc90613a49565b60405180910390fd5b805181602001fd5b63150b7a0260e01b7bffffffffffffffffffffffffffffffffffffffffffffffffffffffff1916817bffffffffffffffffffffffffffffffffffffffffffffffffffffffff191614915050612a42565b600190505b949350505050565b505050565b6008805490506009600083815260200190815260200160002081905550600881908060018154018082558091505060019003906000526020600020016000909190919091505550565b60006001612aa5846112c5565b612aaf9190613e35565b9050600060076000848152602001908152602001600020549050818114612b94576000600660008673ffffffffffffffffffffffffffffffffffffffff1673ffffffffffffffffffffffffffffffffffffffff168152602001908152602001600020600084815260200190815260200160002054905080600660008773ffffffffffffffffffffffffffffffffffffffff1673ffffffffffffffffffffffffffffffffffffffff168152602001908152602001600020600084815260200190815260200160002081905550816007600083815260200190815260200160002081905550505b6007600084815260200190815260200160002060009055600660008573ffffffffffffffffffffffffffffffffffffffff1673ffffffffffffffffffffffffffffffffffffffff16815260200190815260200160002060008381526020019081526020016000206000905550505050565b60006001600880549050612c199190613e35565b9050600060096000848152602001908152602001600020549050600060088381548110612c4957612c486140b8565b5b906000526020600020015490508060088381548110612c6b57612c6a6140b8565b5b906000526020600020018190555081600960008381526020019081526020016000208190555060096000858152602001908152602001600020600090556008805480612cba57612cb9614089565b5b6001900381819060005260206000200160009055905550505050565b6000612ce1836112c5565b905081600660008573ffffffffffffffffffffffffffffffffffffffff1673ffffffffffffffffffffffffffffffffffffffff168152602001908152602001600020600083815260200190815260200160002081905550806007600084815260200190815260200160002081905550505050565b600073ffffffffffffffffffffffffffffffffffffffff168273ffffffffffffffffffffffffffffffffffffffff161415612dc5576040517f08c379a0000000000000000000000000000000000000000000000000000000008152600401612dbc90613ba9565b60405180910390fd5b612dce81611c82565b15612e0e576040517f08c379a0000000000000000000000000000000000000000000000000000000008152600401612e0590613aa9565b60405180910390fd5b612e1a6000838361273f565b6001600360008473ffffffffffffffffffffffffffffffffffffffff1673ffffffffffffffffffffffffffffffffffffffff1681526020019081526020016000206000828254612e6a9190613dae565b92505081905550816002600083815260200190815260200160002060006101000a81548173ffffffffffffffffffffffffffffffffffffffff021916908373ffffffffffffffffffffffffffffffffffffffff160217905550808273ffffffffffffffffffffffffffffffffffffffff16600073ffffffffffffffffffffffffffffffffffffffff167fddf252ad1be2c89b69c2b068fc378daa952ba7f163c4a11628f55a4df523b3ef60405160405180910390a4612f2b60008383612853565b5050565b6000808273ffffffffffffffffffffffffffffffffffffffff163b119050919050565b828054612f5e90613f1f565b90600052602060002090601f016020900481019282612f805760008555612fc7565b82601f10612f9957805160ff1916838001178555612fc7565b82800160010185558215612fc7579182015b82811115612fc6578251825591602001919060010190612fab565b5b509050612fd49190612fd8565b5090565b5b80821115612ff1576000816000905550600101612fd9565b5090565b600061300861300384613d09565b613ce4565b9050828152602081018484840111156130245761302361411b565b5b61302f848285613edd565b509392505050565b600061304a61304584613d3a565b613ce4565b9050828152602081018484840111156130665761306561411b565b5b613071848285613edd565b509392505050565b600081359050613088816146d5565b92915050565b60008135905061309d816146ec565b92915050565b6000813590506130b281614703565b92915050565b6000815190506130c781614703565b92915050565b600082601f8301126130e2576130e1614116565b5b81356130f2848260208601612ff5565b91505092915050565b600082601f8301126131105761310f614116565b5b8135613120848260208601613037565b91505092915050565b6000813590506131388161471a565b92915050565b60006020828403121561315457613153614125565b5b600061316284828501613079565b91505092915050565b6000806040838503121561318257613181614125565b5b600061319085828601613079565b92505060206131a185828601613079565b9150509250929050565b6000806000606084860312156131c4576131c3614125565b5b60006131d286828701613079565b93505060206131e386828701613079565b92505060406131f486828701613129565b9150509250925092565b6000806000806080858703121561321857613217614125565b5b600061322687828801613079565b945050602061323787828801613079565b935050604061324887828801613129565b925050606085013567ffffffffffffffff81111561326957613268614120565b5b613275878288016130cd565b91505092959194509250565b6000806040838503121561329857613297614125565b5b60006132a685828601613079565b92505060206132b78582860161308e565b9150509250929050565b600080604083850312156132d8576132d7614125565b5b60006132e685828601613079565b92505060206132f785828601613129565b9150509250929050565b60006020828403121561331757613316614125565b5b6000613325848285016130a3565b91505092915050565b60006020828403121561334457613343614125565b5b6000613352848285016130b8565b91505092915050565b60008060006060848603121561337457613373614125565b5b600084013567ffffffffffffffff81111561339257613391614120565b5b61339e868287016130fb565b93505060206133af8682870161308e565b92505060406133c086828701613079565b9150509250925092565b600080600080608085870312156133e4576133e3614125565b5b600085013567ffffffffffffffff81111561340257613401614120565b5b61340e878288016130fb565b945050602085013567ffffffffffffffff81111561342f5761342e614120565b5b61343b878288016130fb565b935050604085013567ffffffffffffffff81111561345c5761345b614120565b5b613468878288016130fb565b925050606085013567ffffffffffffffff81111561348957613488614120565b5b613495878288016130fb565b91505092959194509250565b6000602082840312156134b7576134b6614125565b5b60006134c584828501613129565b91505092915050565b6134d781613e69565b82525050565b6134e681613e7b565b82525050565b60006134f782613d6b565b6135018185613d81565b9350613511818560208601613eec565b61351a8161412a565b840191505092915050565b600061353082613d76565b61353a8185613d92565b935061354a818560208601613eec565b6135538161412a565b840191505092915050565b600061356982613d76565b6135738185613da3565b9350613583818560208601613eec565b80840191505092915050565b600061359c601f83613d92565b91506135a78261413b565b602082019050919050565b60006135bf602b83613d92565b91506135ca82614164565b604082019050919050565b60006135e2603283613d92565b91506135ed826141b3565b604082019050919050565b6000613605602683613d92565b915061361082614202565b604082019050919050565b6000613628602583613d92565b915061363382614251565b604082019050919050565b600061364b601c83613d92565b9150613656826142a0565b602082019050919050565b600061366e602483613d92565b9150613679826142c9565b604082019050919050565b6000613691601983613d92565b915061369c82614318565b602082019050919050565b60006136b4601a83613d92565b91506136bf82614341565b602082019050919050565b60006136d7602c83613d92565b91506136e28261436a565b604082019050919050565b60006136fa603883613d92565b9150613705826143b9565b604082019050919050565b600061371d602a83613d92565b915061372882614408565b604082019050919050565b6000613740602983613d92565b915061374b82614457565b604082019050919050565b6000613763602083613d92565b915061376e826144a6565b602082019050919050565b6000613786602c83613d92565b9150613791826144cf565b604082019050919050565b60006137a9602083613d92565b91506137b48261451e565b602082019050919050565b60006137cc602f83613d92565b91506137d782614547565b604082019050919050565b60006137ef602183613d92565b91506137fa82614596565b604082019050919050565b6000613812603183613d92565b915061381d826145e5565b604082019050919050565b6000613835602c83613d92565b915061384082614634565b604082019050919050565b6000613858601e83613d92565b915061386382614683565b602082019050919050565b600061387b601c83613d92565b9150613886826146ac565b602082019050919050565b61389a81613ed3565b82525050565b60006138ac828561355e565b91506138b8828461355e565b91508190509392505050565b60006020820190506138d960008301846134ce565b92915050565b60006080820190506138f460008301876134ce565b61390160208301866134ce565b61390e6040830185613891565b818103606083015261392081846134ec565b905095945050505050565b600060208201905061394060008301846134dd565b92915050565b600060208201905081810360008301526139608184613525565b905092915050565b6000610100820190508181036000830152613983818b613525565b90508181036020830152613997818a613525565b905081810360408301526139ab8189613525565b905081810360608301526139bf8188613525565b905081810360808301526139d38187613525565b90506139e260a0830186613891565b6139ef60c0830185613891565b6139fc60e0830184613891565b9998505050505050505050565b60006020820190508181036000830152613a228161358f565b9050919050565b60006020820190508181036000830152613a42816135b2565b9050919050565b60006020820190508181036000830152613a62816135d5565b9050919050565b60006020820190508181036000830152613a82816135f8565b9050919050565b60006020820190508181036000830152613aa28161361b565b9050919050565b60006020820190508181036000830152613ac28161363e565b9050919050565b60006020820190508181036000830152613ae281613661565b9050919050565b60006020820190508181036000830152613b0281613684565b9050919050565b60006020820190508181036000830152613b22816136a7565b9050919050565b60006020820190508181036000830152613b42816136ca565b9050919050565b60006020820190508181036000830152613b62816136ed565b9050919050565b60006020820190508181036000830152613b8281613710565b9050919050565b60006020820190508181036000830152613ba281613733565b9050919050565b60006020820190508181036000830152613bc281613756565b9050919050565b60006020820190508181036000830152613be281613779565b9050919050565b60006020820190508181036000830152613c028161379c565b9050919050565b60006020820190508181036000830152613c22816137bf565b9050919050565b60006020820190508181036000830152613c42816137e2565b9050919050565b60006020820190508181036000830152613c6281613805565b9050919050565b60006020820190508181036000830152613c8281613828565b9050919050565b60006020820190508181036000830152613ca28161384b565b9050919050565b60006020820190508181036000830152613cc28161386e565b9050919050565b6000602082019050613cde6000830184613891565b92915050565b6000613cee613cff565b9050613cfa8282613f51565b919050565b6000604051905090565b600067ffffffffffffffff821115613d2457613d236140e7565b5b613d2d8261412a565b9050602081019050919050565b600067ffffffffffffffff821115613d5557613d546140e7565b5b613d5e8261412a565b9050602081019050919050565b600081519050919050565b600081519050919050565b600082825260208201905092915050565b600082825260208201905092915050565b600081905092915050565b6000613db982613ed3565b9150613dc483613ed3565b9250827fffffffffffffffffffffffffffffffffffffffffffffffffffffffffffffffff03821115613df957613df8613ffc565b5b828201905092915050565b6000613e0f82613ed3565b9150613e1a83613ed3565b925082613e2a57613e2961402b565b5b828204905092915050565b6000613e4082613ed3565b9150613e4b83613ed3565b925082821015613e5e57613e5d613ffc565b5b828203905092915050565b6000613e7482613eb3565b9050919050565b60008115159050919050565b60007fffffffff0000000000000000000000000000000000000000000000000000000082169050919050565b600073ffffffffffffffffffffffffffffffffffffffff82169050919050565b6000819050919050565b82818337600083830152505050565b60005b83811015613f0a578082015181840152602081019050613eef565b83811115613f19576000848401525b50505050565b60006002820490506001821680613f3757607f821691505b60208210811415613f4b57613f4a61405a565b5b50919050565b613f5a8261412a565b810181811067ffffffffffffffff82111715613f7957613f786140e7565b5b80604052505050565b6000613f8d82613ed3565b91507fffffffffffffffffffffffffffffffffffffffffffffffffffffffffffffffff821415613fc057613fbf613ffc565b5b600182019050919050565b6000613fd682613ed3565b9150613fe183613ed3565b925082613ff157613ff061402b565b5b828206905092915050565b7f4e487b7100000000000000000000000000000000000000000000000000000000600052601160045260246000fd5b7f4e487b7100000000000000000000000000000000000000000000000000000000600052601260045260246000fd5b7f4e487b7100000000000000000000000000000000000000000000000000000000600052602260045260246000fd5b7f4e487b7100000000000000000000000000000000000000000000000000000000600052603160045260246000fd5b7f4e487b7100000000000000000000000000000000000000000000000000000000600052603260045260246000fd5b7f4e487b7100000000000000000000000000000000000000000000000000000000600052604160045260246000fd5b600080fd5b600080fd5b600080fd5b600080fd5b6000601f19601f8301169050919050565b7f5375622055524973206861766520616c7265616479206265656e207365742e00600082015250565b7f455243373231456e756d657261626c653a206f776e657220696e646578206f7560008201527f74206f6620626f756e6473000000000000000000000000000000000000000000602082015250565b7f4552433732313a207472616e7366657220746f206e6f6e20455243373231526560008201527f63656976657220696d706c656d656e7465720000000000000000000000000000602082015250565b7f4f776e61626c653a206e6577206f776e657220697320746865207a65726f206160008201527f6464726573730000000000000000000000000000000000000000000000000000602082015250565b7f4552433732313a207472616e736665722066726f6d20696e636f72726563742060008201527f6f776e6572000000000000000000000000000000000000000000000000000000602082015250565b7f4552433732313a20746f6b656e20616c7265616479206d696e74656400000000600082015250565b7f4552433732313a207472616e7366657220746f20746865207a65726f2061646460008201527f7265737300000000000000000000000000000000000000000000000000000000602082015250565b7f4552433732313a20617070726f766520746f2063616c6c657200000000000000600082015250565b7f426173652055524920686173206e6f74206265656e207365742e000000000000600082015250565b7f4552433732313a206f70657261746f7220717565727920666f72206e6f6e657860008201527f697374656e7420746f6b656e0000000000000000000000000000000000000000602082015250565b7f4552433732313a20617070726f76652063616c6c6572206973206e6f74206f7760008201527f6e6572206e6f7220617070726f76656420666f7220616c6c0000000000000000602082015250565b7f4552433732313a2062616c616e636520717565727920666f7220746865207a6560008201527f726f206164647265737300000000000000000000000000000000000000000000602082015250565b7f4552433732313a206f776e657220717565727920666f72206e6f6e657869737460008201527f656e7420746f6b656e0000000000000000000000000000000000000000000000602082015250565b7f4552433732313a206d696e7420746f20746865207a65726f2061646472657373600082015250565b7f4552433732313a20617070726f76656420717565727920666f72206e6f6e657860008201527f697374656e7420746f6b656e0000000000000000000000000000000000000000602082015250565b7f4f776e61626c653a2063616c6c6572206973206e6f7420746865206f776e6572600082015250565b7f4552433732314d657461646174613a2055524920717565727920666f72206e6f60008201527f6e6578697374656e7420746f6b656e0000000000000000000000000000000000602082015250565b7f4552433732313a20617070726f76616c20746f2063757272656e74206f776e6560008201527f7200000000000000000000000000000000000000000000000000000000000000602082015250565b7f4552433732313a207472616e736665722063616c6c6572206973206e6f74206f60008201527f776e6572206e6f7220617070726f766564000000000000000000000000000000602082015250565b7f455243373231456e756d657261626c653a20676c6f62616c20696e646578206f60008201527f7574206f6620626f756e64730000000000000000000000000000000000000000602082015250565b7f42617365205552492068617320616c7265616479206265656e207365742e0000600082015250565b7f496e76616c6964206469737472696275746f7220616464726573732e00000000600082015250565b6146de81613e69565b81146146e957600080fd5b50565b6146f581613e7b565b811461470057600080fd5b50565b61470c81613e87565b811461471757600080fd5b50565b61472381613ed3565b811461472e57600080fd5b5056fea264697066735822122014366597916dde3a668b44fa2989302b0e37fef1f13b53817d9d872f0001ff9564736f6c63430008050033",
  "immutableReferences": {
    "1003": [
      {
        "length": 32,
        "start": 5396
      },
      {
        "length": 32,
        "start": 5910
      },
      {
        "length": 32,
        "start": 6136
      }
    ],
    "1005": [
      {
        "length": 32,
        "start": 3239
      },
      {
        "length": 32,
        "start": 6500
      }
    ],
    "1007": [
      {
        "length": 32,
        "start": 3272
      },
      {
        "length": 32,
        "start": 5127
      }
    ]
  },
  "source": "// SPDX-License-Identifier: BUSL-1.1\r\npragma solidity ^0.8.2;\r\n\r\nimport \"@openzeppelin/contracts/token/ERC721/ERC721.sol\";\r\n\r\nimport \"../Interfaces/Mintable.sol\";\r\n\r\nimport \"../../NFTProtocol/RatioSingleNFT.sol\";\r\n\r\ncontract PolyCard is RatioSingleNFT, Mintable, Ownable{\r\n\r\n    using Counters for Counters.Counter;\r\n    Counters.Counter private tokenIds;\r\n\r\n    uint256 MAX_INT = 2**256 - 1;\r\n\r\n    constructor(string memory _name, string memory _symbol )RatioSingleNFT(_name, _symbol, MAX_INT, 0){\r\n        \r\n    }\r\n\r\n    function mint(address _receiver) external override(RatioSingleNFT, Mintable) payable onlyOwner returns(uint _id){\r\n        tokenIds.increment();\r\n        _id = tokenIds.current();\r\n        _safeMint(_receiver, _id);\r\n    }\r\n\r\n    function burn(uint _tokenId) external override onlyOwner{\r\n        _burn(_tokenId);\r\n    }\r\n}",
  "sourcePath": "/home/stephenstb/Ratio/ratio/contracts/cryptoGame/NFTMints/PolyCard.sol",
  "compiler": {
    "name": "solc",
    "version": "0.8.5+commit.a4f2e591.Emscripten.clang"
  },
  "schemaVersion": "3.3.3",
  "updatedAt": "2022-05-06T01:45:47.306Z",
  "devdoc": {
    "kind": "dev",
    "methods": {
      "approve(address,uint256)": {
        "details": "See {IERC721-approve}."
      },
      "balanceOf(address)": {
        "details": "See {IERC721-balanceOf}."
      },
      "getApproved(uint256)": {
        "details": "See {IERC721-getApproved}."
      },
      "isApprovedForAll(address,address)": {
        "details": "See {IERC721-isApprovedForAll}."
      },
      "name()": {
        "details": "See {IERC721Metadata-name}."
      },
      "owner()": {
        "details": "Returns the address of the current owner."
      },
      "ownerOf(uint256)": {
        "details": "See {IERC721-ownerOf}."
      },
      "renounceOwnership()": {
        "details": "Leaves the contract without owner. It will not be possible to call `onlyOwner` functions anymore. Can only be called by the current owner. NOTE: Renouncing ownership will leave the contract without an owner, thereby removing any functionality that is only available to the owner."
      },
      "safeTransferFrom(address,address,uint256)": {
        "details": "See {IERC721-safeTransferFrom}."
      },
      "safeTransferFrom(address,address,uint256,bytes)": {
        "details": "See {IERC721-safeTransferFrom}."
      },
      "setApprovalForAll(address,bool)": {
        "details": "See {IERC721-setApprovalForAll}."
      },
      "supportsInterface(bytes4)": {
        "details": "See {IERC165-supportsInterface}."
      },
      "symbol()": {
        "details": "See {IERC721Metadata-symbol}."
      },
      "tokenByIndex(uint256)": {
        "details": "See {IERC721Enumerable-tokenByIndex}."
      },
      "tokenOfOwnerByIndex(address,uint256)": {
        "details": "See {IERC721Enumerable-tokenOfOwnerByIndex}."
      },
      "tokenURI(uint256)": {
        "details": "See {IERC721Metadata-tokenURI}."
      },
      "totalSupply()": {
        "details": "See {IERC721Enumerable-totalSupply}."
      },
      "transferFrom(address,address,uint256)": {
        "details": "See {IERC721-transferFrom}."
      },
      "transferOwnership(address)": {
        "details": "Transfers ownership of the contract to a new account (`newOwner`). Can only be called by the current owner."
      }
    },
    "version": 1
  },
  "userdoc": {
    "kind": "user",
    "methods": {},
    "version": 1
  }
}