{
  "contractName": "PolyCard",
  "abi": [
    {
      "inputs": [
        {
          "internalType": "string",
          "name": "_name",
          "type": "string"
        },
        {
          "internalType": "string",
          "name": "_symbol",
          "type": "string"
        }
      ],
      "stateMutability": "nonpayable",
      "type": "constructor"
    },
    {
      "anonymous": false,
      "inputs": [
        {
          "indexed": true,
          "internalType": "address",
          "name": "owner",
          "type": "address"
        },
        {
          "indexed": true,
          "internalType": "address",
          "name": "approved",
          "type": "address"
        },
        {
          "indexed": true,
          "internalType": "uint256",
          "name": "tokenId",
          "type": "uint256"
        }
      ],
      "name": "Approval",
      "type": "event"
    },
    {
      "anonymous": false,
      "inputs": [
        {
          "indexed": true,
          "internalType": "address",
          "name": "owner",
          "type": "address"
        },
        {
          "indexed": true,
          "internalType": "address",
          "name": "operator",
          "type": "address"
        },
        {
          "indexed": false,
          "internalType": "bool",
          "name": "approved",
          "type": "bool"
        }
      ],
      "name": "ApprovalForAll",
      "type": "event"
    },
    {
      "anonymous": false,
      "inputs": [
        {
          "indexed": true,
          "internalType": "address",
          "name": "previousOwner",
          "type": "address"
        },
        {
          "indexed": true,
          "internalType": "address",
          "name": "newOwner",
          "type": "address"
        }
      ],
      "name": "OwnershipTransferred",
      "type": "event"
    },
    {
      "anonymous": false,
      "inputs": [
        {
          "indexed": true,
          "internalType": "address",
          "name": "from",
          "type": "address"
        },
        {
          "indexed": true,
          "internalType": "address",
          "name": "to",
          "type": "address"
        },
        {
          "indexed": true,
          "internalType": "uint256",
          "name": "tokenId",
          "type": "uint256"
        }
      ],
      "name": "Transfer",
      "type": "event"
    },
    {
      "inputs": [
        {
          "internalType": "address",
          "name": "to",
          "type": "address"
        },
        {
          "internalType": "uint256",
          "name": "tokenId",
          "type": "uint256"
        }
      ],
      "name": "approve",
      "outputs": [],
      "stateMutability": "nonpayable",
      "type": "function"
    },
    {
      "inputs": [],
      "name": "audio",
      "outputs": [
        {
          "internalType": "string",
          "name": "",
          "type": "string"
        }
      ],
      "stateMutability": "view",
      "type": "function"
    },
    {
      "inputs": [
        {
          "internalType": "address",
          "name": "owner",
          "type": "address"
        }
      ],
      "name": "balanceOf",
      "outputs": [
        {
          "internalType": "uint256",
          "name": "",
          "type": "uint256"
        }
      ],
      "stateMutability": "view",
      "type": "function"
    },
    {
      "inputs": [],
      "name": "baseURI",
      "outputs": [
        {
          "internalType": "string",
          "name": "",
          "type": "string"
        }
      ],
      "stateMutability": "view",
      "type": "function"
    },
    {
      "inputs": [],
      "name": "distributor",
      "outputs": [
        {
          "internalType": "address",
          "name": "",
          "type": "address"
        }
      ],
      "stateMutability": "view",
      "type": "function"
    },
    {
      "inputs": [
        {
          "internalType": "uint256",
          "name": "tokenId",
          "type": "uint256"
        }
      ],
      "name": "getApproved",
      "outputs": [
        {
          "internalType": "address",
          "name": "",
          "type": "address"
        }
      ],
      "stateMutability": "view",
      "type": "function"
    },
    {
      "inputs": [],
      "name": "image",
      "outputs": [
        {
          "internalType": "string",
          "name": "",
          "type": "string"
        }
      ],
      "stateMutability": "view",
      "type": "function"
    },
    {
      "inputs": [
        {
          "internalType": "address",
          "name": "owner",
          "type": "address"
        },
        {
          "internalType": "address",
          "name": "operator",
          "type": "address"
        }
      ],
      "name": "isApprovedForAll",
      "outputs": [
        {
          "internalType": "bool",
          "name": "",
          "type": "bool"
        }
      ],
      "stateMutability": "view",
      "type": "function"
    },
    {
      "inputs": [],
      "name": "maxSupply",
      "outputs": [
        {
          "internalType": "uint256",
          "name": "",
          "type": "uint256"
        }
      ],
      "stateMutability": "view",
      "type": "function"
    },
    {
      "inputs": [],
      "name": "mintValue",
      "outputs": [
        {
          "internalType": "uint256",
          "name": "",
          "type": "uint256"
        }
      ],
      "stateMutability": "view",
      "type": "function"
    },
    {
      "inputs": [],
      "name": "model",
      "outputs": [
        {
          "internalType": "string",
          "name": "",
          "type": "string"
        }
      ],
      "stateMutability": "view",
      "type": "function"
    },
    {
      "inputs": [],
      "name": "name",
      "outputs": [
        {
          "internalType": "string",
          "name": "",
          "type": "string"
        }
      ],
      "stateMutability": "view",
      "type": "function"
    },
    {
      "inputs": [],
      "name": "owner",
      "outputs": [
        {
          "internalType": "address",
          "name": "",
          "type": "address"
        }
      ],
      "stateMutability": "view",
      "type": "function"
    },
    {
      "inputs": [
        {
          "internalType": "uint256",
          "name": "tokenId",
          "type": "uint256"
        }
      ],
      "name": "ownerOf",
      "outputs": [
        {
          "internalType": "address",
          "name": "",
          "type": "address"
        }
      ],
      "stateMutability": "view",
      "type": "function"
    },
    {
      "inputs": [],
      "name": "renounceOwnership",
      "outputs": [],
      "stateMutability": "nonpayable",
      "type": "function"
    },
    {
      "inputs": [
        {
          "internalType": "address",
          "name": "from",
          "type": "address"
        },
        {
          "internalType": "address",
          "name": "to",
          "type": "address"
        },
        {
          "internalType": "uint256",
          "name": "tokenId",
          "type": "uint256"
        }
      ],
      "name": "safeTransferFrom",
      "outputs": [],
      "stateMutability": "nonpayable",
      "type": "function"
    },
    {
      "inputs": [
        {
          "internalType": "address",
          "name": "from",
          "type": "address"
        },
        {
          "internalType": "address",
          "name": "to",
          "type": "address"
        },
        {
          "internalType": "uint256",
          "name": "tokenId",
          "type": "uint256"
        },
        {
          "internalType": "bytes",
          "name": "_data",
          "type": "bytes"
        }
      ],
      "name": "safeTransferFrom",
      "outputs": [],
      "stateMutability": "nonpayable",
      "type": "function"
    },
    {
      "inputs": [
        {
          "internalType": "address",
          "name": "operator",
          "type": "address"
        },
        {
          "internalType": "bool",
          "name": "approved",
          "type": "bool"
        }
      ],
      "name": "setApprovalForAll",
      "outputs": [],
      "stateMutability": "nonpayable",
      "type": "function"
    },
    {
      "inputs": [
        {
          "internalType": "string",
          "name": "_uri",
          "type": "string"
        },
        {
          "internalType": "bool",
          "name": "_ratioProtocol",
          "type": "bool"
        },
        {
          "internalType": "address",
          "name": "_protocolAddress",
          "type": "address"
        }
      ],
      "name": "setBaseURI",
      "outputs": [],
      "stateMutability": "payable",
      "type": "function"
    },
    {
      "inputs": [
        {
          "internalType": "string",
          "name": "_image",
          "type": "string"
        },
        {
          "internalType": "string",
          "name": "_audio",
          "type": "string"
        },
        {
          "internalType": "string",
          "name": "_video",
          "type": "string"
        },
        {
          "internalType": "string",
          "name": "_model",
          "type": "string"
        }
      ],
      "name": "setSubURIs",
      "outputs": [],
      "stateMutability": "nonpayable",
      "type": "function"
    },
    {
      "inputs": [
        {
          "internalType": "bytes4",
          "name": "interfaceId",
          "type": "bytes4"
        }
      ],
      "name": "supportsInterface",
      "outputs": [
        {
          "internalType": "bool",
          "name": "",
          "type": "bool"
        }
      ],
      "stateMutability": "view",
      "type": "function"
    },
    {
      "inputs": [],
      "name": "symbol",
      "outputs": [
        {
          "internalType": "string",
          "name": "",
          "type": "string"
        }
      ],
      "stateMutability": "view",
      "type": "function"
    },
    {
      "inputs": [
        {
          "internalType": "uint256",
          "name": "index",
          "type": "uint256"
        }
      ],
      "name": "tokenByIndex",
      "outputs": [
        {
          "internalType": "uint256",
          "name": "",
          "type": "uint256"
        }
      ],
      "stateMutability": "view",
      "type": "function"
    },
    {
      "inputs": [
        {
          "internalType": "address",
          "name": "owner",
          "type": "address"
        },
        {
          "internalType": "uint256",
          "name": "index",
          "type": "uint256"
        }
      ],
      "name": "tokenOfOwnerByIndex",
      "outputs": [
        {
          "internalType": "uint256",
          "name": "",
          "type": "uint256"
        }
      ],
      "stateMutability": "view",
      "type": "function"
    },
    {
      "inputs": [
        {
          "internalType": "uint256",
          "name": "tokenId",
          "type": "uint256"
        }
      ],
      "name": "tokenURI",
      "outputs": [
        {
          "internalType": "string",
          "name": "",
          "type": "string"
        }
      ],
      "stateMutability": "view",
      "type": "function"
    },
    {
      "inputs": [],
      "name": "totalSupply",
      "outputs": [
        {
          "internalType": "uint256",
          "name": "",
          "type": "uint256"
        }
      ],
      "stateMutability": "view",
      "type": "function"
    },
    {
      "inputs": [
        {
          "internalType": "address",
          "name": "from",
          "type": "address"
        },
        {
          "internalType": "address",
          "name": "to",
          "type": "address"
        },
        {
          "internalType": "uint256",
          "name": "tokenId",
          "type": "uint256"
        }
      ],
      "name": "transferFrom",
      "outputs": [],
      "stateMutability": "nonpayable",
      "type": "function"
    },
    {
      "inputs": [
        {
          "internalType": "address",
          "name": "newOwner",
          "type": "address"
        }
      ],
      "name": "transferOwnership",
      "outputs": [],
      "stateMutability": "nonpayable",
      "type": "function"
    },
    {
      "inputs": [],
      "name": "video",
      "outputs": [
        {
          "internalType": "string",
          "name": "",
          "type": "string"
        }
      ],
      "stateMutability": "view",
      "type": "function"
    },
    {
      "inputs": [
        {
          "internalType": "address",
          "name": "_receiver",
          "type": "address"
        }
      ],
      "name": "mint",
      "outputs": [
        {
          "internalType": "uint256",
          "name": "_id",
          "type": "uint256"
        }
      ],
      "stateMutability": "payable",
      "type": "function"
    },
    {
      "inputs": [
        {
          "internalType": "uint256",
          "name": "_tokenId",
          "type": "uint256"
        }
      ],
      "name": "burn",
      "outputs": [],
      "stateMutability": "nonpayable",
      "type": "function"
    }
  ],
  "bytecode": "0x60a06040526000600f60006101000a81548160ff0219169083151502179055506000600f60016101000a81548160ff0219169083151502179055507fffffffffffffffffffffffffffffffffffffffffffffffffffffffffffffffff6015553480156200006b57600080fd5b506040516200490b3803806200490b83398181016040528101906200009191906200033b565b8181601554600083838160009080519060200190620000b29291906200020d565b508060019080519060200190620000cb9291906200020d565b5050503373ffffffffffffffffffffffffffffffffffffffff1660808173ffffffffffffffffffffffffffffffffffffffff1660601b81525050816010819055508060118190555050505050620001376200012b6200013f60201b60201c565b6200014760201b60201c565b505062000544565b600033905090565b6000601360009054906101000a900473ffffffffffffffffffffffffffffffffffffffff16905081601360006101000a81548173ffffffffffffffffffffffffffffffffffffffff021916908373ffffffffffffffffffffffffffffffffffffffff1602179055508173ffffffffffffffffffffffffffffffffffffffff168173ffffffffffffffffffffffffffffffffffffffff167f8be0079c531659141344cd1fd0a4f28419497f9722a3daafe3b4186f6b6457e060405160405180910390a35050565b8280546200021b9062000455565b90600052602060002090601f0160209004810192826200023f57600085556200028b565b82601f106200025a57805160ff19168380011785556200028b565b828001600101855582156200028b579182015b828111156200028a5782518255916020019190600101906200026d565b5b5090506200029a91906200029e565b5090565b5b80821115620002b95760008160009055506001016200029f565b5090565b6000620002d4620002ce84620003e9565b620003c0565b905082815260208101848484011115620002f357620002f262000524565b5b620003008482856200041f565b509392505050565b600082601f83011262000320576200031f6200051f565b5b815162000332848260208601620002bd565b91505092915050565b600080604083850312156200035557620003546200052e565b5b600083015167ffffffffffffffff81111562000376576200037562000529565b5b620003848582860162000308565b925050602083015167ffffffffffffffff811115620003a857620003a762000529565b5b620003b68582860162000308565b9150509250929050565b6000620003cc620003df565b9050620003da82826200048b565b919050565b6000604051905090565b600067ffffffffffffffff821115620004075762000406620004f0565b5b620004128262000533565b9050602081019050919050565b60005b838110156200043f57808201518184015260208101905062000422565b838111156200044f576000848401525b50505050565b600060028204905060018216806200046e57607f821691505b60208210811415620004855762000484620004c1565b5b50919050565b620004968262000533565b810181811067ffffffffffffffff82111715620004b857620004b7620004f0565b5b80604052505050565b7f4e487b7100000000000000000000000000000000000000000000000000000000600052602260045260246000fd5b7f4e487b7100000000000000000000000000000000000000000000000000000000600052604160045260246000fd5b600080fd5b600080fd5b600080fd5b600080fd5b6000601f19601f8301169050919050565b60805160601c61439a62000571600039600081816112060152818161140801526114ea015261439a6000f3fe6080604052600436106101d85760003560e01c80636c0360eb11610102578063b88d4fde11610095578063d5abeb0111610064578063d5abeb01146106b8578063e985e9c5146106e3578063f2fde38b14610720578063f3ccaac014610749576101d8565b8063b88d4fde1461060b578063bfe1092814610634578063c87b56dd1461065f578063d52b1f531461069c576101d8565b80638da5cb5b116100d15780638da5cb5b1461056357806395d89b411461058e578063a22cb465146105b9578063b822fd2c146105e2576101d8565b80636c0360eb146104b957806370a08231146104e4578063715018a61461052157806389c77dfe14610538576101d8565b806323b872dd1161017a57806342966c681161014957806342966c68146103e65780634f6ccce71461040f5780636352211e1461044c5780636a62784214610489576101d8565b806323b872dd1461032c5780632f745c5914610355578063407d22361461039257806342842e0e146103bd576101d8565b8063095ea7b3116101b6578063095ea7b3146102825780630ad9d052146102ab57806311b00617146102d657806318160ddd14610301576101d8565b806301ffc9a7146101dd57806306fdde031461021a578063081812fc14610245575b600080fd5b3480156101e957600080fd5b5061020460048036038101906101ff9190612fd5565b610774565b60405161021191906135ff565b60405180910390f35b34801561022657600080fd5b5061022f6107ee565b60405161023c919061361a565b60405180910390f35b34801561025157600080fd5b5061026c60048036038101906102679190613175565b610880565b6040516102799190613598565b60405180910390f35b34801561028e57600080fd5b506102a960048036038101906102a49190612f95565b610905565b005b3480156102b757600080fd5b506102c0610a1d565b6040516102cd919061361a565b60405180910390f35b3480156102e257600080fd5b506102eb610aab565b6040516102f8919061361a565b60405180910390f35b34801561030d57600080fd5b50610316610b39565b60405161032391906138fc565b60405180910390f35b34801561033857600080fd5b50610353600480360381019061034e9190612e7f565b610b46565b005b34801561036157600080fd5b5061037c60048036038101906103779190612f95565b610ba6565b60405161038991906138fc565b60405180910390f35b34801561039e57600080fd5b506103a7610c4b565b6040516103b4919061361a565b60405180910390f35b3480156103c957600080fd5b506103e460048036038101906103df9190612e7f565b610cd9565b005b3480156103f257600080fd5b5061040d60048036038101906104089190613175565b610cf9565b005b34801561041b57600080fd5b5061043660048036038101906104319190613175565b610d81565b60405161044391906138fc565b60405180910390f35b34801561045857600080fd5b50610473600480360381019061046e9190613175565b610df2565b6040516104809190613598565b60405180910390f35b6104a3600480360381019061049e9190612e12565b610ea4565b6040516104b091906138fc565b60405180910390f35b3480156104c557600080fd5b506104ce610f47565b6040516104db919061361a565b60405180910390f35b3480156104f057600080fd5b5061050b60048036038101906105069190612e12565b610fd5565b60405161051891906138fc565b60405180910390f35b34801561052d57600080fd5b5061053661108d565b005b34801561054457600080fd5b5061054d611115565b60405161055a91906138fc565b60405180910390f35b34801561056f57600080fd5b5061057861111b565b6040516105859190613598565b60405180910390f35b34801561059a57600080fd5b506105a3611145565b6040516105b0919061361a565b60405180910390f35b3480156105c557600080fd5b506105e060048036038101906105db9190612f55565b6111d7565b005b3480156105ee57600080fd5b506106096004803603810190610604919061309e565b6111ed565b005b34801561061757600080fd5b50610632600480360381019061062d9190612ed2565b6113a4565b005b34801561064057600080fd5b50610649611406565b6040516106569190613598565b60405180910390f35b34801561066b57600080fd5b5061068660048036038101906106819190613175565b61142a565b604051610693919061361a565b60405180910390f35b6106b660048036038101906106b1919061302f565b6114d1565b005b3480156106c457600080fd5b506106cd611654565b6040516106da91906138fc565b60405180910390f35b3480156106ef57600080fd5b5061070a60048036038101906107059190612e3f565b61165a565b60405161071791906135ff565b60405180910390f35b34801561072c57600080fd5b5061074760048036038101906107429190612e12565b6116ee565b005b34801561075557600080fd5b5061075e6117e6565b60405161076b919061361a565b60405180910390f35b60007f780e9d63000000000000000000000000000000000000000000000000000000007bffffffffffffffffffffffffffffffffffffffffffffffffffffffff1916827bffffffffffffffffffffffffffffffffffffffffffffffffffffffff191614806107e757506107e682611874565b5b9050919050565b6060600080546107fd90613b52565b80601f016020809104026020016040519081016040528092919081815260200182805461082990613b52565b80156108765780601f1061084b57610100808354040283529160200191610876565b820191906000526020600020905b81548152906001019060200180831161085957829003601f168201915b5050505050905090565b600061088b82611956565b6108ca576040517f08c379a00000000000000000000000000000000000000000000000000000000081526004016108c1906137fc565b60405180910390fd5b6004600083815260200190815260200160002060009054906101000a900473ffffffffffffffffffffffffffffffffffffffff169050919050565b600061091082610df2565b90508073ffffffffffffffffffffffffffffffffffffffff168373ffffffffffffffffffffffffffffffffffffffff161415610981576040517f08c379a00000000000000000000000000000000000000000000000000000000081526004016109789061385c565b60405180910390fd5b8073ffffffffffffffffffffffffffffffffffffffff166109a06119c2565b73ffffffffffffffffffffffffffffffffffffffff1614806109cf57506109ce816109c96119c2565b61165a565b5b610a0e576040517f08c379a0000000000000000000000000000000000000000000000000000000008152600401610a059061377c565b60405180910390fd5b610a1883836119ca565b505050565b600e8054610a2a90613b52565b80601f0160208091040260200160405190810160405280929190818152602001828054610a5690613b52565b8015610aa35780601f10610a7857610100808354040283529160200191610aa3565b820191906000526020600020905b815481529060010190602001808311610a8657829003601f168201915b505050505081565b600d8054610ab890613b52565b80601f0160208091040260200160405190810160405280929190818152602001828054610ae490613b52565b8015610b315780601f10610b0657610100808354040283529160200191610b31565b820191906000526020600020905b815481529060010190602001808311610b1457829003601f168201915b505050505081565b6000600880549050905090565b610b57610b516119c2565b82611a83565b610b96576040517f08c379a0000000000000000000000000000000000000000000000000000000008152600401610b8d9061387c565b60405180910390fd5b610ba1838383611b61565b505050565b6000610bb183610fd5565b8210610bf2576040517f08c379a0000000000000000000000000000000000000000000000000000000008152600401610be99061365c565b60405180910390fd5b600660008473ffffffffffffffffffffffffffffffffffffffff1673ffffffffffffffffffffffffffffffffffffffff168152602001908152602001600020600083815260200190815260200160002054905092915050565b600c8054610c5890613b52565b80601f0160208091040260200160405190810160405280929190818152602001828054610c8490613b52565b8015610cd15780601f10610ca657610100808354040283529160200191610cd1565b820191906000526020600020905b815481529060010190602001808311610cb457829003601f168201915b505050505081565b610cf4838383604051806020016040528060008152506113a4565b505050565b610d016119c2565b73ffffffffffffffffffffffffffffffffffffffff16610d1f61111b565b73ffffffffffffffffffffffffffffffffffffffff1614610d75576040517f08c379a0000000000000000000000000000000000000000000000000000000008152600401610d6c9061381c565b60405180910390fd5b610d7e81611dc8565b50565b6000610d8b610b39565b8210610dcc576040517f08c379a0000000000000000000000000000000000000000000000000000000008152600401610dc39061389c565b60405180910390fd5b60088281548110610de057610ddf613ceb565b5b90600052602060002001549050919050565b6000806002600084815260200190815260200160002060009054906101000a900473ffffffffffffffffffffffffffffffffffffffff169050600073ffffffffffffffffffffffffffffffffffffffff168173ffffffffffffffffffffffffffffffffffffffff161415610e9b576040517f08c379a0000000000000000000000000000000000000000000000000000000008152600401610e92906137bc565b60405180910390fd5b80915050919050565b6000610eae6119c2565b73ffffffffffffffffffffffffffffffffffffffff16610ecc61111b565b73ffffffffffffffffffffffffffffffffffffffff1614610f22576040517f08c379a0000000000000000000000000000000000000000000000000000000008152600401610f199061381c565b60405180910390fd5b610f2c6014611ee5565b610f366014611efb565b9050610f428282611f09565b919050565b600a8054610f5490613b52565b80601f0160208091040260200160405190810160405280929190818152602001828054610f8090613b52565b8015610fcd5780601f10610fa257610100808354040283529160200191610fcd565b820191906000526020600020905b815481529060010190602001808311610fb057829003601f168201915b505050505081565b60008073ffffffffffffffffffffffffffffffffffffffff168273ffffffffffffffffffffffffffffffffffffffff161415611046576040517f08c379a000000000000000000000000000000000000000000000000000000000815260040161103d9061379c565b60405180910390fd5b600360008373ffffffffffffffffffffffffffffffffffffffff1673ffffffffffffffffffffffffffffffffffffffff168152602001908152602001600020549050919050565b6110956119c2565b73ffffffffffffffffffffffffffffffffffffffff166110b361111b565b73ffffffffffffffffffffffffffffffffffffffff1614611109576040517f08c379a00000000000000000000000000000000000000000000000000000000081526004016111009061381c565b60405180910390fd5b6111136000611f27565b565b60115481565b6000601360009054906101000a900473ffffffffffffffffffffffffffffffffffffffff16905090565b60606001805461115490613b52565b80601f016020809104026020016040519081016040528092919081815260200182805461118090613b52565b80156111cd5780601f106111a2576101008083540402835291602001916111cd565b820191906000526020600020905b8154815290600101906020018083116111b057829003601f168201915b5050505050905090565b6111e96111e26119c2565b8383611fed565b5050565b3373ffffffffffffffffffffffffffffffffffffffff167f000000000000000000000000000000000000000000000000000000000000000073ffffffffffffffffffffffffffffffffffffffff161461127b576040517f08c379a0000000000000000000000000000000000000000000000000000000008152600401611272906138dc565b60405180910390fd5b60011515600f60009054906101000a900460ff161515146112d1576040517f08c379a00000000000000000000000000000000000000000000000000000000081526004016112c89061373c565b60405180910390fd5b60001515600f60019054906101000a900460ff16151514611327576040517f08c379a000000000000000000000000000000000000000000000000000000000815260040161131e9061363c565b60405180910390fd5b83600b908051906020019061133d929190612c26565b5082600c9080519060200190611354929190612c26565b5081600d908051906020019061136b929190612c26565b5080600e9080519060200190611382929190612c26565b506001600f60016101000a81548160ff02191690831515021790555050505050565b6113b56113af6119c2565b83611a83565b6113f4576040517f08c379a00000000000000000000000000000000000000000000000000000000081526004016113eb9061387c565b60405180910390fd5b6114008484848461215a565b50505050565b7f000000000000000000000000000000000000000000000000000000000000000081565b606061143582611956565b611474576040517f08c379a000000000000000000000000000000000000000000000000000000000815260040161146b9061383c565b60405180910390fd5b600061147e6121b6565b9050600081511161149e57604051806020016040528060008152506114c9565b806114a884612248565b6040516020016114b9929190613574565b6040516020818303038152906040525b915050919050565b3373ffffffffffffffffffffffffffffffffffffffff167f000000000000000000000000000000000000000000000000000000000000000073ffffffffffffffffffffffffffffffffffffffff161461155f576040517f08c379a0000000000000000000000000000000000000000000000000000000008152600401611556906138dc565b60405180910390fd5b60001515600f60009054906101000a900460ff161515146115b5576040517f08c379a00000000000000000000000000000000000000000000000000000000081526004016115ac906138bc565b60405180910390fd5b82600a90805190602001906115cb929190612c26565b508115611634578073ffffffffffffffffffffffffffffffffffffffff166307ec3039346040518263ffffffff1660e01b81526004016000604051808303818588803b15801561161a57600080fd5b505af115801561162e573d6000803e3d6000fd5b50505050505b6001600f60006101000a81548160ff021916908315150217905550505050565b60105481565b6000600560008473ffffffffffffffffffffffffffffffffffffffff1673ffffffffffffffffffffffffffffffffffffffff16815260200190815260200160002060008373ffffffffffffffffffffffffffffffffffffffff1673ffffffffffffffffffffffffffffffffffffffff16815260200190815260200160002060009054906101000a900460ff16905092915050565b6116f66119c2565b73ffffffffffffffffffffffffffffffffffffffff1661171461111b565b73ffffffffffffffffffffffffffffffffffffffff161461176a576040517f08c379a00000000000000000000000000000000000000000000000000000000081526004016117619061381c565b60405180910390fd5b600073ffffffffffffffffffffffffffffffffffffffff168173ffffffffffffffffffffffffffffffffffffffff1614156117da576040517f08c379a00000000000000000000000000000000000000000000000000000000081526004016117d19061369c565b60405180910390fd5b6117e381611f27565b50565b600b80546117f390613b52565b80601f016020809104026020016040519081016040528092919081815260200182805461181f90613b52565b801561186c5780601f106118415761010080835404028352916020019161186c565b820191906000526020600020905b81548152906001019060200180831161184f57829003601f168201915b505050505081565b60007f80ac58cd000000000000000000000000000000000000000000000000000000007bffffffffffffffffffffffffffffffffffffffffffffffffffffffff1916827bffffffffffffffffffffffffffffffffffffffffffffffffffffffff1916148061193f57507f5b5e139f000000000000000000000000000000000000000000000000000000007bffffffffffffffffffffffffffffffffffffffffffffffffffffffff1916827bffffffffffffffffffffffffffffffffffffffffffffffffffffffff1916145b8061194f575061194e826123a9565b5b9050919050565b60008073ffffffffffffffffffffffffffffffffffffffff166002600084815260200190815260200160002060009054906101000a900473ffffffffffffffffffffffffffffffffffffffff1673ffffffffffffffffffffffffffffffffffffffff1614159050919050565b600033905090565b816004600083815260200190815260200160002060006101000a81548173ffffffffffffffffffffffffffffffffffffffff021916908373ffffffffffffffffffffffffffffffffffffffff160217905550808273ffffffffffffffffffffffffffffffffffffffff16611a3d83610df2565b73ffffffffffffffffffffffffffffffffffffffff167f8c5be1e5ebec7d5bd14f71427d1e84f3dd0314c0f7b2291e5b200ac8c7c3b92560405160405180910390a45050565b6000611a8e82611956565b611acd576040517f08c379a0000000000000000000000000000000000000000000000000000000008152600401611ac49061375c565b60405180910390fd5b6000611ad883610df2565b90508073ffffffffffffffffffffffffffffffffffffffff168473ffffffffffffffffffffffffffffffffffffffff161480611b4757508373ffffffffffffffffffffffffffffffffffffffff16611b2f84610880565b73ffffffffffffffffffffffffffffffffffffffff16145b80611b585750611b57818561165a565b5b91505092915050565b8273ffffffffffffffffffffffffffffffffffffffff16611b8182610df2565b73ffffffffffffffffffffffffffffffffffffffff1614611bd7576040517f08c379a0000000000000000000000000000000000000000000000000000000008152600401611bce906136bc565b60405180910390fd5b600073ffffffffffffffffffffffffffffffffffffffff168273ffffffffffffffffffffffffffffffffffffffff161415611c47576040517f08c379a0000000000000000000000000000000000000000000000000000000008152600401611c3e906136fc565b60405180910390fd5b611c52838383612413565b611c5d6000826119ca565b6001600360008573ffffffffffffffffffffffffffffffffffffffff1673ffffffffffffffffffffffffffffffffffffffff1681526020019081526020016000206000828254611cad9190613a68565b925050819055506001600360008473ffffffffffffffffffffffffffffffffffffffff1673ffffffffffffffffffffffffffffffffffffffff1681526020019081526020016000206000828254611d0491906139e1565b92505081905550816002600083815260200190815260200160002060006101000a81548173ffffffffffffffffffffffffffffffffffffffff021916908373ffffffffffffffffffffffffffffffffffffffff160217905550808273ffffffffffffffffffffffffffffffffffffffff168473ffffffffffffffffffffffffffffffffffffffff167fddf252ad1be2c89b69c2b068fc378daa952ba7f163c4a11628f55a4df523b3ef60405160405180910390a4611dc3838383612527565b505050565b6000611dd382610df2565b9050611de181600084612413565b611dec6000836119ca565b6001600360008373ffffffffffffffffffffffffffffffffffffffff1673ffffffffffffffffffffffffffffffffffffffff1681526020019081526020016000206000828254611e3c9190613a68565b925050819055506002600083815260200190815260200160002060006101000a81549073ffffffffffffffffffffffffffffffffffffffff021916905581600073ffffffffffffffffffffffffffffffffffffffff168273ffffffffffffffffffffffffffffffffffffffff167fddf252ad1be2c89b69c2b068fc378daa952ba7f163c4a11628f55a4df523b3ef60405160405180910390a4611ee181600084612527565b5050565b6001816000016000828254019250508190555050565b600081600001549050919050565b611f2382826040518060200160405280600081525061252c565b5050565b6000601360009054906101000a900473ffffffffffffffffffffffffffffffffffffffff16905081601360006101000a81548173ffffffffffffffffffffffffffffffffffffffff021916908373ffffffffffffffffffffffffffffffffffffffff1602179055508173ffffffffffffffffffffffffffffffffffffffff168173ffffffffffffffffffffffffffffffffffffffff167f8be0079c531659141344cd1fd0a4f28419497f9722a3daafe3b4186f6b6457e060405160405180910390a35050565b8173ffffffffffffffffffffffffffffffffffffffff168373ffffffffffffffffffffffffffffffffffffffff16141561205c576040517f08c379a00000000000000000000000000000000000000000000000000000000081526004016120539061371c565b60405180910390fd5b80600560008573ffffffffffffffffffffffffffffffffffffffff1673ffffffffffffffffffffffffffffffffffffffff16815260200190815260200160002060008473ffffffffffffffffffffffffffffffffffffffff1673ffffffffffffffffffffffffffffffffffffffff16815260200190815260200160002060006101000a81548160ff0219169083151502179055508173ffffffffffffffffffffffffffffffffffffffff168373ffffffffffffffffffffffffffffffffffffffff167f17307eab39ab6107e8899845ad3d59bd9653f200f220920489ca2b5937696c318360405161214d91906135ff565b60405180910390a3505050565b612165848484611b61565b61217184848484612587565b6121b0576040517f08c379a00000000000000000000000000000000000000000000000000000000081526004016121a79061367c565b60405180910390fd5b50505050565b6060600a80546121c590613b52565b80601f01602080910402602001604051908101604052809291908181526020018280546121f190613b52565b801561223e5780601f106122135761010080835404028352916020019161223e565b820191906000526020600020905b81548152906001019060200180831161222157829003601f168201915b5050505050905090565b60606000821415612290576040518060400160405280600181526020017f300000000000000000000000000000000000000000000000000000000000000081525090506123a4565b600082905060005b600082146122c25780806122ab90613bb5565b915050600a826122bb9190613a37565b9150612298565b60008167ffffffffffffffff8111156122de576122dd613d1a565b5b6040519080825280601f01601f1916602001820160405280156123105781602001600182028036833780820191505090505b5090505b6000851461239d576001826123299190613a68565b9150600a856123389190613bfe565b603061234491906139e1565b60f81b81838151811061235a57612359613ceb565b5b60200101907effffffffffffffffffffffffffffffffffffffffffffffffffffffffffffff1916908160001a905350600a856123969190613a37565b9450612314565b8093505050505b919050565b60007f01ffc9a7000000000000000000000000000000000000000000000000000000007bffffffffffffffffffffffffffffffffffffffffffffffffffffffff1916827bffffffffffffffffffffffffffffffffffffffffffffffffffffffff1916149050919050565b61241e83838361271e565b600073ffffffffffffffffffffffffffffffffffffffff168373ffffffffffffffffffffffffffffffffffffffff1614156124615761245c81612723565b6124a0565b8173ffffffffffffffffffffffffffffffffffffffff168373ffffffffffffffffffffffffffffffffffffffff161461249f5761249e838261276c565b5b5b600073ffffffffffffffffffffffffffffffffffffffff168273ffffffffffffffffffffffffffffffffffffffff1614156124e3576124de816128d9565b612522565b8273ffffffffffffffffffffffffffffffffffffffff168273ffffffffffffffffffffffffffffffffffffffff16146125215761252082826129aa565b5b5b505050565b505050565b6125368383612a29565b6125436000848484612587565b612582576040517f08c379a00000000000000000000000000000000000000000000000000000000081526004016125799061367c565b60405180910390fd5b505050565b60006125a88473ffffffffffffffffffffffffffffffffffffffff16612c03565b15612711578373ffffffffffffffffffffffffffffffffffffffff1663150b7a026125d16119c2565b8786866040518563ffffffff1660e01b81526004016125f394939291906135b3565b602060405180830381600087803b15801561260d57600080fd5b505af192505050801561263e57506040513d601f19601f8201168201806040525081019061263b9190613002565b60015b6126c1573d806000811461266e576040519150601f19603f3d011682016040523d82523d6000602084013e612673565b606091505b506000815114156126b9576040517f08c379a00000000000000000000000000000000000000000000000000000000081526004016126b09061367c565b60405180910390fd5b805181602001fd5b63150b7a0260e01b7bffffffffffffffffffffffffffffffffffffffffffffffffffffffff1916817bffffffffffffffffffffffffffffffffffffffffffffffffffffffff191614915050612716565b600190505b949350505050565b505050565b6008805490506009600083815260200190815260200160002081905550600881908060018154018082558091505060019003906000526020600020016000909190919091505550565b6000600161277984610fd5565b6127839190613a68565b9050600060076000848152602001908152602001600020549050818114612868576000600660008673ffffffffffffffffffffffffffffffffffffffff1673ffffffffffffffffffffffffffffffffffffffff168152602001908152602001600020600084815260200190815260200160002054905080600660008773ffffffffffffffffffffffffffffffffffffffff1673ffffffffffffffffffffffffffffffffffffffff168152602001908152602001600020600084815260200190815260200160002081905550816007600083815260200190815260200160002081905550505b6007600084815260200190815260200160002060009055600660008573ffffffffffffffffffffffffffffffffffffffff1673ffffffffffffffffffffffffffffffffffffffff16815260200190815260200160002060008381526020019081526020016000206000905550505050565b600060016008805490506128ed9190613a68565b905060006009600084815260200190815260200160002054905060006008838154811061291d5761291c613ceb565b5b90600052602060002001549050806008838154811061293f5761293e613ceb565b5b90600052602060002001819055508160096000838152602001908152602001600020819055506009600085815260200190815260200160002060009055600880548061298e5761298d613cbc565b5b6001900381819060005260206000200160009055905550505050565b60006129b583610fd5565b905081600660008573ffffffffffffffffffffffffffffffffffffffff1673ffffffffffffffffffffffffffffffffffffffff168152602001908152602001600020600083815260200190815260200160002081905550806007600084815260200190815260200160002081905550505050565b600073ffffffffffffffffffffffffffffffffffffffff168273ffffffffffffffffffffffffffffffffffffffff161415612a99576040517f08c379a0000000000000000000000000000000000000000000000000000000008152600401612a90906137dc565b60405180910390fd5b612aa281611956565b15612ae2576040517f08c379a0000000000000000000000000000000000000000000000000000000008152600401612ad9906136dc565b60405180910390fd5b612aee60008383612413565b6001600360008473ffffffffffffffffffffffffffffffffffffffff1673ffffffffffffffffffffffffffffffffffffffff1681526020019081526020016000206000828254612b3e91906139e1565b92505081905550816002600083815260200190815260200160002060006101000a81548173ffffffffffffffffffffffffffffffffffffffff021916908373ffffffffffffffffffffffffffffffffffffffff160217905550808273ffffffffffffffffffffffffffffffffffffffff16600073ffffffffffffffffffffffffffffffffffffffff167fddf252ad1be2c89b69c2b068fc378daa952ba7f163c4a11628f55a4df523b3ef60405160405180910390a4612bff60008383612527565b5050565b6000808273ffffffffffffffffffffffffffffffffffffffff163b119050919050565b828054612c3290613b52565b90600052602060002090601f016020900481019282612c545760008555612c9b565b82601f10612c6d57805160ff1916838001178555612c9b565b82800160010185558215612c9b579182015b82811115612c9a578251825591602001919060010190612c7f565b5b509050612ca89190612cac565b5090565b5b80821115612cc5576000816000905550600101612cad565b5090565b6000612cdc612cd78461393c565b613917565b905082815260208101848484011115612cf857612cf7613d4e565b5b612d03848285613b10565b509392505050565b6000612d1e612d198461396d565b613917565b905082815260208101848484011115612d3a57612d39613d4e565b5b612d45848285613b10565b509392505050565b600081359050612d5c81614308565b92915050565b600081359050612d718161431f565b92915050565b600081359050612d8681614336565b92915050565b600081519050612d9b81614336565b92915050565b600082601f830112612db657612db5613d49565b5b8135612dc6848260208601612cc9565b91505092915050565b600082601f830112612de457612de3613d49565b5b8135612df4848260208601612d0b565b91505092915050565b600081359050612e0c8161434d565b92915050565b600060208284031215612e2857612e27613d58565b5b6000612e3684828501612d4d565b91505092915050565b60008060408385031215612e5657612e55613d58565b5b6000612e6485828601612d4d565b9250506020612e7585828601612d4d565b9150509250929050565b600080600060608486031215612e9857612e97613d58565b5b6000612ea686828701612d4d565b9350506020612eb786828701612d4d565b9250506040612ec886828701612dfd565b9150509250925092565b60008060008060808587031215612eec57612eeb613d58565b5b6000612efa87828801612d4d565b9450506020612f0b87828801612d4d565b9350506040612f1c87828801612dfd565b925050606085013567ffffffffffffffff811115612f3d57612f3c613d53565b5b612f4987828801612da1565b91505092959194509250565b60008060408385031215612f6c57612f6b613d58565b5b6000612f7a85828601612d4d565b9250506020612f8b85828601612d62565b9150509250929050565b60008060408385031215612fac57612fab613d58565b5b6000612fba85828601612d4d565b9250506020612fcb85828601612dfd565b9150509250929050565b600060208284031215612feb57612fea613d58565b5b6000612ff984828501612d77565b91505092915050565b60006020828403121561301857613017613d58565b5b600061302684828501612d8c565b91505092915050565b60008060006060848603121561304857613047613d58565b5b600084013567ffffffffffffffff81111561306657613065613d53565b5b61307286828701612dcf565b935050602061308386828701612d62565b925050604061309486828701612d4d565b9150509250925092565b600080600080608085870312156130b8576130b7613d58565b5b600085013567ffffffffffffffff8111156130d6576130d5613d53565b5b6130e287828801612dcf565b945050602085013567ffffffffffffffff81111561310357613102613d53565b5b61310f87828801612dcf565b935050604085013567ffffffffffffffff8111156131305761312f613d53565b5b61313c87828801612dcf565b925050606085013567ffffffffffffffff81111561315d5761315c613d53565b5b61316987828801612dcf565b91505092959194509250565b60006020828403121561318b5761318a613d58565b5b600061319984828501612dfd565b91505092915050565b6131ab81613a9c565b82525050565b6131ba81613aae565b82525050565b60006131cb8261399e565b6131d581856139b4565b93506131e5818560208601613b1f565b6131ee81613d5d565b840191505092915050565b6000613204826139a9565b61320e81856139c5565b935061321e818560208601613b1f565b61322781613d5d565b840191505092915050565b600061323d826139a9565b61324781856139d6565b9350613257818560208601613b1f565b80840191505092915050565b6000613270601f836139c5565b915061327b82613d6e565b602082019050919050565b6000613293602b836139c5565b915061329e82613d97565b604082019050919050565b60006132b66032836139c5565b91506132c182613de6565b604082019050919050565b60006132d96026836139c5565b91506132e482613e35565b604082019050919050565b60006132fc6025836139c5565b915061330782613e84565b604082019050919050565b600061331f601c836139c5565b915061332a82613ed3565b602082019050919050565b60006133426024836139c5565b915061334d82613efc565b604082019050919050565b60006133656019836139c5565b915061337082613f4b565b602082019050919050565b6000613388601a836139c5565b915061339382613f74565b602082019050919050565b60006133ab602c836139c5565b91506133b682613f9d565b604082019050919050565b60006133ce6038836139c5565b91506133d982613fec565b604082019050919050565b60006133f1602a836139c5565b91506133fc8261403b565b604082019050919050565b60006134146029836139c5565b915061341f8261408a565b604082019050919050565b60006134376020836139c5565b9150613442826140d9565b602082019050919050565b600061345a602c836139c5565b915061346582614102565b604082019050919050565b600061347d6020836139c5565b915061348882614151565b602082019050919050565b60006134a0602f836139c5565b91506134ab8261417a565b604082019050919050565b60006134c36021836139c5565b91506134ce826141c9565b604082019050919050565b60006134e66031836139c5565b91506134f182614218565b604082019050919050565b6000613509602c836139c5565b915061351482614267565b604082019050919050565b600061352c601e836139c5565b9150613537826142b6565b602082019050919050565b600061354f601c836139c5565b915061355a826142df565b602082019050919050565b61356e81613b06565b82525050565b60006135808285613232565b915061358c8284613232565b91508190509392505050565b60006020820190506135ad60008301846131a2565b92915050565b60006080820190506135c860008301876131a2565b6135d560208301866131a2565b6135e26040830185613565565b81810360608301526135f481846131c0565b905095945050505050565b600060208201905061361460008301846131b1565b92915050565b6000602082019050818103600083015261363481846131f9565b905092915050565b6000602082019050818103600083015261365581613263565b9050919050565b6000602082019050818103600083015261367581613286565b9050919050565b60006020820190508181036000830152613695816132a9565b9050919050565b600060208201905081810360008301526136b5816132cc565b9050919050565b600060208201905081810360008301526136d5816132ef565b9050919050565b600060208201905081810360008301526136f581613312565b9050919050565b6000602082019050818103600083015261371581613335565b9050919050565b6000602082019050818103600083015261373581613358565b9050919050565b600060208201905081810360008301526137558161337b565b9050919050565b600060208201905081810360008301526137758161339e565b9050919050565b60006020820190508181036000830152613795816133c1565b9050919050565b600060208201905081810360008301526137b5816133e4565b9050919050565b600060208201905081810360008301526137d581613407565b9050919050565b600060208201905081810360008301526137f58161342a565b9050919050565b600060208201905081810360008301526138158161344d565b9050919050565b6000602082019050818103600083015261383581613470565b9050919050565b6000602082019050818103600083015261385581613493565b9050919050565b60006020820190508181036000830152613875816134b6565b9050919050565b60006020820190508181036000830152613895816134d9565b9050919050565b600060208201905081810360008301526138b5816134fc565b9050919050565b600060208201905081810360008301526138d58161351f565b9050919050565b600060208201905081810360008301526138f581613542565b9050919050565b60006020820190506139116000830184613565565b92915050565b6000613921613932565b905061392d8282613b84565b919050565b6000604051905090565b600067ffffffffffffffff82111561395757613956613d1a565b5b61396082613d5d565b9050602081019050919050565b600067ffffffffffffffff82111561398857613987613d1a565b5b61399182613d5d565b9050602081019050919050565b600081519050919050565b600081519050919050565b600082825260208201905092915050565b600082825260208201905092915050565b600081905092915050565b60006139ec82613b06565b91506139f783613b06565b9250827fffffffffffffffffffffffffffffffffffffffffffffffffffffffffffffffff03821115613a2c57613a2b613c2f565b5b828201905092915050565b6000613a4282613b06565b9150613a4d83613b06565b925082613a5d57613a5c613c5e565b5b828204905092915050565b6000613a7382613b06565b9150613a7e83613b06565b925082821015613a9157613a90613c2f565b5b828203905092915050565b6000613aa782613ae6565b9050919050565b60008115159050919050565b60007fffffffff0000000000000000000000000000000000000000000000000000000082169050919050565b600073ffffffffffffffffffffffffffffffffffffffff82169050919050565b6000819050919050565b82818337600083830152505050565b60005b83811015613b3d578082015181840152602081019050613b22565b83811115613b4c576000848401525b50505050565b60006002820490506001821680613b6a57607f821691505b60208210811415613b7e57613b7d613c8d565b5b50919050565b613b8d82613d5d565b810181811067ffffffffffffffff82111715613bac57613bab613d1a565b5b80604052505050565b6000613bc082613b06565b91507fffffffffffffffffffffffffffffffffffffffffffffffffffffffffffffffff821415613bf357613bf2613c2f565b5b600182019050919050565b6000613c0982613b06565b9150613c1483613b06565b925082613c2457613c23613c5e565b5b828206905092915050565b7f4e487b7100000000000000000000000000000000000000000000000000000000600052601160045260246000fd5b7f4e487b7100000000000000000000000000000000000000000000000000000000600052601260045260246000fd5b7f4e487b7100000000000000000000000000000000000000000000000000000000600052602260045260246000fd5b7f4e487b7100000000000000000000000000000000000000000000000000000000600052603160045260246000fd5b7f4e487b7100000000000000000000000000000000000000000000000000000000600052603260045260246000fd5b7f4e487b7100000000000000000000000000000000000000000000000000000000600052604160045260246000fd5b600080fd5b600080fd5b600080fd5b600080fd5b6000601f19601f8301169050919050565b7f5375622055524973206861766520616c7265616479206265656e207365742e00600082015250565b7f455243373231456e756d657261626c653a206f776e657220696e646578206f7560008201527f74206f6620626f756e6473000000000000000000000000000000000000000000602082015250565b7f4552433732313a207472616e7366657220746f206e6f6e20455243373231526560008201527f63656976657220696d706c656d656e7465720000000000000000000000000000602082015250565b7f4f776e61626c653a206e6577206f776e657220697320746865207a65726f206160008201527f6464726573730000000000000000000000000000000000000000000000000000602082015250565b7f4552433732313a207472616e736665722066726f6d20696e636f72726563742060008201527f6f776e6572000000000000000000000000000000000000000000000000000000602082015250565b7f4552433732313a20746f6b656e20616c7265616479206d696e74656400000000600082015250565b7f4552433732313a207472616e7366657220746f20746865207a65726f2061646460008201527f7265737300000000000000000000000000000000000000000000000000000000602082015250565b7f4552433732313a20617070726f766520746f2063616c6c657200000000000000600082015250565b7f426173652055524920686173206e6f74206265656e207365742e000000000000600082015250565b7f4552433732313a206f70657261746f7220717565727920666f72206e6f6e657860008201527f697374656e7420746f6b656e0000000000000000000000000000000000000000602082015250565b7f4552433732313a20617070726f76652063616c6c6572206973206e6f74206f7760008201527f6e6572206e6f7220617070726f76656420666f7220616c6c0000000000000000602082015250565b7f4552433732313a2062616c616e636520717565727920666f7220746865207a6560008201527f726f206164647265737300000000000000000000000000000000000000000000602082015250565b7f4552433732313a206f776e657220717565727920666f72206e6f6e657869737460008201527f656e7420746f6b656e0000000000000000000000000000000000000000000000602082015250565b7f4552433732313a206d696e7420746f20746865207a65726f2061646472657373600082015250565b7f4552433732313a20617070726f76656420717565727920666f72206e6f6e657860008201527f697374656e7420746f6b656e0000000000000000000000000000000000000000602082015250565b7f4f776e61626c653a2063616c6c6572206973206e6f7420746865206f776e6572600082015250565b7f4552433732314d657461646174613a2055524920717565727920666f72206e6f60008201527f6e6578697374656e7420746f6b656e0000000000000000000000000000000000602082015250565b7f4552433732313a20617070726f76616c20746f2063757272656e74206f776e6560008201527f7200000000000000000000000000000000000000000000000000000000000000602082015250565b7f4552433732313a207472616e736665722063616c6c6572206973206e6f74206f60008201527f776e6572206e6f7220617070726f766564000000000000000000000000000000602082015250565b7f455243373231456e756d657261626c653a20676c6f62616c20696e646578206f60008201527f7574206f6620626f756e64730000000000000000000000000000000000000000602082015250565b7f42617365205552492068617320616c7265616479206265656e207365742e0000600082015250565b7f496e76616c6964206469737472696275746f7220616464726573732e00000000600082015250565b61431181613a9c565b811461431c57600080fd5b50565b61432881613aae565b811461433357600080fd5b50565b61433f81613aba565b811461434a57600080fd5b50565b61435681613b06565b811461436157600080fd5b5056fea2646970667358221220e3b3c77a53f71e5d2057d5248ce3e4d311d91a2c61c45dac7be5f5f3310e25a164736f6c63430008050033",
  "immutableReferences": {
    "1072": [
      {
        "length": 32,
        "start": 4614
      },
      {
        "length": 32,
        "start": 5128
      },
      {
        "length": 32,
        "start": 5354
      }
    ]
  },
  "source": "// SPDX-License-Identifier: BUSL-1.1\r\npragma solidity ^0.8.2;\r\n\r\nimport \"@openzeppelin/contracts/token/ERC721/ERC721.sol\";\r\n\r\nimport \"../Interfaces/Mintable.sol\";\r\n\r\nimport \"../../ProtocolNFT/RatioSingleNFT.sol\";\r\n\r\ncontract PolyCard is RatioSingleNFT, Mintable, Ownable{\r\n\r\n    using Counters for Counters.Counter;\r\n    Counters.Counter private tokenIds;\r\n\r\n    uint256 MAX_INT = 2**256 - 1;\r\n\r\n    constructor(string memory _name, string memory _symbol )RatioSingleNFT(_name, _symbol, MAX_INT, 0){\r\n        \r\n    }\r\n\r\n    function mint(address _receiver) external override(RatioSingleNFT, Mintable) payable onlyOwner returns(uint _id){\r\n        tokenIds.increment();\r\n        _id = tokenIds.current();\r\n        _safeMint(_receiver, _id);\r\n    }\r\n\r\n    function burn(uint _tokenId) external override onlyOwner{\r\n        _burn(_tokenId);\r\n    }\r\n}",
  "sourcePath": "/home/stephenstb/Ratio/ratio/contracts/cryptoGame/NFTMints/PolyCard.sol",
  "compiler": {
    "name": "solc",
    "version": "0.8.5+commit.a4f2e591.Emscripten.clang"
  },
  "schemaVersion": "3.3.3",
  "updatedAt": "2022-04-23T03:26:15.043Z",
  "devdoc": {
    "kind": "dev",
    "methods": {
      "approve(address,uint256)": {
        "details": "See {IERC721-approve}."
      },
      "balanceOf(address)": {
        "details": "See {IERC721-balanceOf}."
      },
      "getApproved(uint256)": {
        "details": "See {IERC721-getApproved}."
      },
      "isApprovedForAll(address,address)": {
        "details": "See {IERC721-isApprovedForAll}."
      },
      "name()": {
        "details": "See {IERC721Metadata-name}."
      },
      "owner()": {
        "details": "Returns the address of the current owner."
      },
      "ownerOf(uint256)": {
        "details": "See {IERC721-ownerOf}."
      },
      "renounceOwnership()": {
        "details": "Leaves the contract without owner. It will not be possible to call `onlyOwner` functions anymore. Can only be called by the current owner. NOTE: Renouncing ownership will leave the contract without an owner, thereby removing any functionality that is only available to the owner."
      },
      "safeTransferFrom(address,address,uint256)": {
        "details": "See {IERC721-safeTransferFrom}."
      },
      "safeTransferFrom(address,address,uint256,bytes)": {
        "details": "See {IERC721-safeTransferFrom}."
      },
      "setApprovalForAll(address,bool)": {
        "details": "See {IERC721-setApprovalForAll}."
      },
      "supportsInterface(bytes4)": {
        "details": "See {IERC165-supportsInterface}."
      },
      "symbol()": {
        "details": "See {IERC721Metadata-symbol}."
      },
      "tokenByIndex(uint256)": {
        "details": "See {IERC721Enumerable-tokenByIndex}."
      },
      "tokenOfOwnerByIndex(address,uint256)": {
        "details": "See {IERC721Enumerable-tokenOfOwnerByIndex}."
      },
      "tokenURI(uint256)": {
        "details": "See {IERC721Metadata-tokenURI}."
      },
      "totalSupply()": {
        "details": "See {IERC721Enumerable-totalSupply}."
      },
      "transferFrom(address,address,uint256)": {
        "details": "See {IERC721-transferFrom}."
      },
      "transferOwnership(address)": {
        "details": "Transfers ownership of the contract to a new account (`newOwner`). Can only be called by the current owner."
      }
    },
    "version": 1
  },
  "userdoc": {
    "kind": "user",
    "methods": {},
    "version": 1
  }
}