{
  "contractName": "PolyCard",
  "abi": [
    {
      "inputs": [
        {
          "internalType": "address",
          "name": "_wMatic",
          "type": "address"
        },
        {
          "internalType": "string",
          "name": "_uri",
          "type": "string"
        },
        {
          "internalType": "string",
          "name": "_name",
          "type": "string"
        },
        {
          "internalType": "string",
          "name": "_symbol",
          "type": "string"
        }
      ],
      "stateMutability": "nonpayable",
      "type": "constructor"
    },
    {
      "anonymous": false,
      "inputs": [
        {
          "indexed": true,
          "internalType": "address",
          "name": "owner",
          "type": "address"
        },
        {
          "indexed": true,
          "internalType": "address",
          "name": "approved",
          "type": "address"
        },
        {
          "indexed": true,
          "internalType": "uint256",
          "name": "tokenId",
          "type": "uint256"
        }
      ],
      "name": "Approval",
      "type": "event"
    },
    {
      "anonymous": false,
      "inputs": [
        {
          "indexed": true,
          "internalType": "address",
          "name": "owner",
          "type": "address"
        },
        {
          "indexed": true,
          "internalType": "address",
          "name": "operator",
          "type": "address"
        },
        {
          "indexed": false,
          "internalType": "bool",
          "name": "approved",
          "type": "bool"
        }
      ],
      "name": "ApprovalForAll",
      "type": "event"
    },
    {
      "anonymous": false,
      "inputs": [
        {
          "indexed": true,
          "internalType": "address",
          "name": "previousOwner",
          "type": "address"
        },
        {
          "indexed": true,
          "internalType": "address",
          "name": "newOwner",
          "type": "address"
        }
      ],
      "name": "OwnershipTransferred",
      "type": "event"
    },
    {
      "anonymous": false,
      "inputs": [
        {
          "indexed": true,
          "internalType": "address",
          "name": "from",
          "type": "address"
        },
        {
          "indexed": true,
          "internalType": "address",
          "name": "to",
          "type": "address"
        },
        {
          "indexed": true,
          "internalType": "uint256",
          "name": "tokenId",
          "type": "uint256"
        }
      ],
      "name": "Transfer",
      "type": "event"
    },
    {
      "inputs": [],
      "name": "URI",
      "outputs": [
        {
          "internalType": "string",
          "name": "",
          "type": "string"
        }
      ],
      "stateMutability": "view",
      "type": "function"
    },
    {
      "inputs": [
        {
          "internalType": "address",
          "name": "to",
          "type": "address"
        },
        {
          "internalType": "uint256",
          "name": "tokenId",
          "type": "uint256"
        }
      ],
      "name": "approve",
      "outputs": [],
      "stateMutability": "nonpayable",
      "type": "function"
    },
    {
      "inputs": [
        {
          "internalType": "address",
          "name": "owner",
          "type": "address"
        }
      ],
      "name": "balanceOf",
      "outputs": [
        {
          "internalType": "uint256",
          "name": "",
          "type": "uint256"
        }
      ],
      "stateMutability": "view",
      "type": "function"
    },
    {
      "inputs": [
        {
          "internalType": "uint256",
          "name": "tokenId",
          "type": "uint256"
        }
      ],
      "name": "getApproved",
      "outputs": [
        {
          "internalType": "address",
          "name": "",
          "type": "address"
        }
      ],
      "stateMutability": "view",
      "type": "function"
    },
    {
      "inputs": [
        {
          "internalType": "address",
          "name": "owner",
          "type": "address"
        },
        {
          "internalType": "address",
          "name": "operator",
          "type": "address"
        }
      ],
      "name": "isApprovedForAll",
      "outputs": [
        {
          "internalType": "bool",
          "name": "",
          "type": "bool"
        }
      ],
      "stateMutability": "view",
      "type": "function"
    },
    {
      "inputs": [],
      "name": "name",
      "outputs": [
        {
          "internalType": "string",
          "name": "",
          "type": "string"
        }
      ],
      "stateMutability": "view",
      "type": "function"
    },
    {
      "inputs": [],
      "name": "owner",
      "outputs": [
        {
          "internalType": "address",
          "name": "",
          "type": "address"
        }
      ],
      "stateMutability": "view",
      "type": "function"
    },
    {
      "inputs": [
        {
          "internalType": "uint256",
          "name": "tokenId",
          "type": "uint256"
        }
      ],
      "name": "ownerOf",
      "outputs": [
        {
          "internalType": "address",
          "name": "",
          "type": "address"
        }
      ],
      "stateMutability": "view",
      "type": "function"
    },
    {
      "inputs": [],
      "name": "renounceOwnership",
      "outputs": [],
      "stateMutability": "nonpayable",
      "type": "function"
    },
    {
      "inputs": [
        {
          "internalType": "address",
          "name": "from",
          "type": "address"
        },
        {
          "internalType": "address",
          "name": "to",
          "type": "address"
        },
        {
          "internalType": "uint256",
          "name": "tokenId",
          "type": "uint256"
        }
      ],
      "name": "safeTransferFrom",
      "outputs": [],
      "stateMutability": "nonpayable",
      "type": "function"
    },
    {
      "inputs": [
        {
          "internalType": "address",
          "name": "from",
          "type": "address"
        },
        {
          "internalType": "address",
          "name": "to",
          "type": "address"
        },
        {
          "internalType": "uint256",
          "name": "tokenId",
          "type": "uint256"
        },
        {
          "internalType": "bytes",
          "name": "_data",
          "type": "bytes"
        }
      ],
      "name": "safeTransferFrom",
      "outputs": [],
      "stateMutability": "nonpayable",
      "type": "function"
    },
    {
      "inputs": [
        {
          "internalType": "address",
          "name": "operator",
          "type": "address"
        },
        {
          "internalType": "bool",
          "name": "approved",
          "type": "bool"
        }
      ],
      "name": "setApprovalForAll",
      "outputs": [],
      "stateMutability": "nonpayable",
      "type": "function"
    },
    {
      "inputs": [],
      "name": "symbol",
      "outputs": [
        {
          "internalType": "string",
          "name": "",
          "type": "string"
        }
      ],
      "stateMutability": "view",
      "type": "function"
    },
    {
      "inputs": [
        {
          "internalType": "uint256",
          "name": "index",
          "type": "uint256"
        }
      ],
      "name": "tokenByIndex",
      "outputs": [
        {
          "internalType": "uint256",
          "name": "",
          "type": "uint256"
        }
      ],
      "stateMutability": "view",
      "type": "function"
    },
    {
      "inputs": [
        {
          "internalType": "address",
          "name": "owner",
          "type": "address"
        },
        {
          "internalType": "uint256",
          "name": "index",
          "type": "uint256"
        }
      ],
      "name": "tokenOfOwnerByIndex",
      "outputs": [
        {
          "internalType": "uint256",
          "name": "",
          "type": "uint256"
        }
      ],
      "stateMutability": "view",
      "type": "function"
    },
    {
      "inputs": [],
      "name": "totalSupply",
      "outputs": [
        {
          "internalType": "uint256",
          "name": "",
          "type": "uint256"
        }
      ],
      "stateMutability": "view",
      "type": "function"
    },
    {
      "inputs": [
        {
          "internalType": "address",
          "name": "from",
          "type": "address"
        },
        {
          "internalType": "address",
          "name": "to",
          "type": "address"
        },
        {
          "internalType": "uint256",
          "name": "tokenId",
          "type": "uint256"
        }
      ],
      "name": "transferFrom",
      "outputs": [],
      "stateMutability": "nonpayable",
      "type": "function"
    },
    {
      "inputs": [
        {
          "internalType": "address",
          "name": "newOwner",
          "type": "address"
        }
      ],
      "name": "transferOwnership",
      "outputs": [],
      "stateMutability": "nonpayable",
      "type": "function"
    },
    {
      "inputs": [
        {
          "internalType": "address",
          "name": "_receiver",
          "type": "address"
        }
      ],
      "name": "mint",
      "outputs": [
        {
          "internalType": "uint256",
          "name": "_id",
          "type": "uint256"
        }
      ],
      "stateMutability": "nonpayable",
      "type": "function"
    },
    {
      "inputs": [
        {
          "internalType": "uint256",
          "name": "_tokenId",
          "type": "uint256"
        }
      ],
      "name": "burn",
      "outputs": [],
      "stateMutability": "nonpayable",
      "type": "function"
    },
    {
      "inputs": [
        {
          "internalType": "uint256",
          "name": "tokenId",
          "type": "uint256"
        },
        {
          "internalType": "string",
          "name": "_tokenURI",
          "type": "string"
        }
      ],
      "name": "setTokenURI",
      "outputs": [],
      "stateMutability": "nonpayable",
      "type": "function"
    },
    {
      "inputs": [
        {
          "internalType": "bytes4",
          "name": "interfaceId",
          "type": "bytes4"
        }
      ],
      "name": "supportsInterface",
      "outputs": [
        {
          "internalType": "bool",
          "name": "",
          "type": "bool"
        }
      ],
      "stateMutability": "view",
      "type": "function"
    },
    {
      "inputs": [
        {
          "internalType": "uint256",
          "name": "tokenId",
          "type": "uint256"
        }
      ],
      "name": "tokenURI",
      "outputs": [
        {
          "internalType": "string",
          "name": "",
          "type": "string"
        }
      ],
      "stateMutability": "view",
      "type": "function"
    }
  ],
  "bytecode": "0x60806040523480156200001157600080fd5b506040516200423138038062004231833981810160405281019062000037919062000304565b8181816000908051906020019062000051929190620001bf565b5080600190805190602001906200006a929190620001bf565b5050506200008d62000081620000f160201b60201c565b620000f960201b60201c565b83600c60006101000a81548173ffffffffffffffffffffffffffffffffffffffff021916908373ffffffffffffffffffffffffffffffffffffffff16021790555082600e9080519060200190620000e6929190620001bf565b5050505050620005a5565b600033905090565b6000600b60009054906101000a900473ffffffffffffffffffffffffffffffffffffffff16905081600b60006101000a81548173ffffffffffffffffffffffffffffffffffffffff021916908373ffffffffffffffffffffffffffffffffffffffff1602179055508173ffffffffffffffffffffffffffffffffffffffff168173ffffffffffffffffffffffffffffffffffffffff167f8be0079c531659141344cd1fd0a4f28419497f9722a3daafe3b4186f6b6457e060405160405180910390a35050565b828054620001cd906200049c565b90600052602060002090601f016020900481019282620001f157600085556200023d565b82601f106200020c57805160ff19168380011785556200023d565b828001600101855582156200023d579182015b828111156200023c5782518255916020019190600101906200021f565b5b5090506200024c919062000250565b5090565b5b808211156200026b57600081600090555060010162000251565b5090565b6000620002866200028084620003fc565b620003d3565b905082815260208101848484011115620002a557620002a46200056b565b5b620002b284828562000466565b509392505050565b600081519050620002cb816200058b565b92915050565b600082601f830112620002e957620002e862000566565b5b8151620002fb8482602086016200026f565b91505092915050565b6000806000806080858703121562000321576200032062000575565b5b60006200033187828801620002ba565b945050602085015167ffffffffffffffff81111562000355576200035462000570565b5b6200036387828801620002d1565b935050604085015167ffffffffffffffff81111562000387576200038662000570565b5b6200039587828801620002d1565b925050606085015167ffffffffffffffff811115620003b957620003b862000570565b5b620003c787828801620002d1565b91505092959194509250565b6000620003df620003f2565b9050620003ed8282620004d2565b919050565b6000604051905090565b600067ffffffffffffffff8211156200041a576200041962000537565b5b62000425826200057a565b9050602081019050919050565b60006200043f8262000446565b9050919050565b600073ffffffffffffffffffffffffffffffffffffffff82169050919050565b60005b838110156200048657808201518184015260208101905062000469565b8381111562000496576000848401525b50505050565b60006002820490506001821680620004b557607f821691505b60208210811415620004cc57620004cb62000508565b5b50919050565b620004dd826200057a565b810181811067ffffffffffffffff82111715620004ff57620004fe62000537565b5b80604052505050565b7f4e487b7100000000000000000000000000000000000000000000000000000000600052602260045260246000fd5b7f4e487b7100000000000000000000000000000000000000000000000000000000600052604160045260246000fd5b600080fd5b600080fd5b600080fd5b600080fd5b6000601f19601f8301169050919050565b620005968162000432565b8114620005a257600080fd5b50565b613c7c80620005b56000396000f3fe608060405234801561001057600080fd5b506004361061014d5760003560e01c80634f6ccce7116100c357806395d89b411161007c57806395d89b41146103b0578063a22cb465146103ce578063b88d4fde146103ea578063c87b56dd14610406578063e985e9c514610436578063f2fde38b146104665761014d565b80634f6ccce7146102c85780636352211e146102f85780636a6278421461032857806370a0823114610358578063715018a6146103885780638da5cb5b146103925761014d565b8063162094c411610115578063162094c41461020a57806318160ddd1461022657806323b872dd146102445780632f745c591461026057806342842e0e1461029057806342966c68146102ac5761014d565b806301ffc9a71461015257806306fdde0314610182578063081812fc146101a0578063095ea7b3146101d05780631141d7de146101ec575b600080fd5b61016c60048036038101906101679190612a2d565b610482565b6040516101799190612f27565b60405180910390f35b61018a610494565b6040516101979190612f42565b60405180910390f35b6101ba60048036038101906101b59190612a87565b610526565b6040516101c79190612ec0565b60405180910390f35b6101ea60048036038101906101e591906129ed565b6105ab565b005b6101f46106c3565b6040516102019190612f42565b60405180910390f35b610224600480360381019061021f9190612ab4565b610751565b005b61022e61079f565b60405161023b91906131e4565b60405180910390f35b61025e600480360381019061025991906128d7565b6107ac565b005b61027a600480360381019061027591906129ed565b61080c565b60405161028791906131e4565b60405180910390f35b6102aa60048036038101906102a591906128d7565b6108b1565b005b6102c660048036038101906102c19190612a87565b6108d1565b005b6102e260048036038101906102dd9190612a87565b610959565b6040516102ef91906131e4565b60405180910390f35b610312600480360381019061030d9190612a87565b6109ca565b60405161031f9190612ec0565b60405180910390f35b610342600480360381019061033d919061286a565b610a7c565b60405161034f91906131e4565b60405180910390f35b610372600480360381019061036d919061286a565b610bb3565b60405161037f91906131e4565b60405180910390f35b610390610c6b565b005b61039a610cf3565b6040516103a79190612ec0565b60405180910390f35b6103b8610d1d565b6040516103c59190612f42565b60405180910390f35b6103e860048036038101906103e391906129ad565b610daf565b005b61040460048036038101906103ff919061292a565b610f30565b005b610420600480360381019061041b9190612a87565b610f92565b60405161042d9190612f42565b60405180910390f35b610450600480360381019061044b9190612897565b610fa4565b60405161045d9190612f27565b60405180910390f35b610480600480360381019061047b919061286a565b611038565b005b600061048d82611130565b9050919050565b6060600080546104a39061343a565b80601f01602080910402602001604051908101604052809291908181526020018280546104cf9061343a565b801561051c5780601f106104f15761010080835404028352916020019161051c565b820191906000526020600020905b8154815290600101906020018083116104ff57829003601f168201915b5050505050905090565b6000610531826111aa565b610570576040517f08c379a000000000000000000000000000000000000000000000000000000000815260040161056790613104565b60405180910390fd5b6004600083815260200190815260200160002060009054906101000a900473ffffffffffffffffffffffffffffffffffffffff169050919050565b60006105b6826109ca565b90508073ffffffffffffffffffffffffffffffffffffffff168373ffffffffffffffffffffffffffffffffffffffff161415610627576040517f08c379a000000000000000000000000000000000000000000000000000000000815260040161061e90613184565b60405180910390fd5b8073ffffffffffffffffffffffffffffffffffffffff16610646611216565b73ffffffffffffffffffffffffffffffffffffffff16148061067557506106748161066f611216565b610fa4565b5b6106b4576040517f08c379a00000000000000000000000000000000000000000000000000000000081526004016106ab90613044565b60405180910390fd5b6106be838361121e565b505050565b600e80546106d09061343a565b80601f01602080910402602001604051908101604052809291908181526020018280546106fc9061343a565b80156107495780601f1061071e57610100808354040283529160200191610749565b820191906000526020600020905b81548152906001019060200180831161072c57829003601f168201915b505050505081565b61075a826109ca565b73ffffffffffffffffffffffffffffffffffffffff163373ffffffffffffffffffffffffffffffffffffffff161461079157600080fd5b61079b82826112d7565b5050565b6000600980549050905090565b6107bd6107b7611216565b8261134b565b6107fc576040517f08c379a00000000000000000000000000000000000000000000000000000000081526004016107f3906131a4565b60405180910390fd5b610807838383611429565b505050565b600061081783610bb3565b8210610858576040517f08c379a000000000000000000000000000000000000000000000000000000000815260040161084f90612f64565b60405180910390fd5b600760008473ffffffffffffffffffffffffffffffffffffffff1673ffffffffffffffffffffffffffffffffffffffff168152602001908152602001600020600083815260200190815260200160002054905092915050565b6108cc83838360405180602001604052806000815250610f30565b505050565b6108d9611216565b73ffffffffffffffffffffffffffffffffffffffff166108f7610cf3565b73ffffffffffffffffffffffffffffffffffffffff161461094d576040517f08c379a000000000000000000000000000000000000000000000000000000000815260040161094490613124565b60405180910390fd5b61095681611685565b50565b600061096361079f565b82106109a4576040517f08c379a000000000000000000000000000000000000000000000000000000000815260040161099b906131c4565b60405180910390fd5b600982815481106109b8576109b76135d3565b5b90600052602060002001549050919050565b6000806002600084815260200190815260200160002060009054906101000a900473ffffffffffffffffffffffffffffffffffffffff169050600073ffffffffffffffffffffffffffffffffffffffff168173ffffffffffffffffffffffffffffffffffffffff161415610a73576040517f08c379a0000000000000000000000000000000000000000000000000000000008152600401610a6a90613084565b60405180910390fd5b80915050919050565b6000610a86611216565b73ffffffffffffffffffffffffffffffffffffffff16610aa4610cf3565b73ffffffffffffffffffffffffffffffffffffffff1614610afa576040517f08c379a0000000000000000000000000000000000000000000000000000000008152600401610af190613124565b60405180910390fd5b610b04600d611691565b610b0e600d6116a7565b9050610b1a82826116b5565b610bae81600e8054610b2b9061343a565b80601f0160208091040260200160405190810160405280929190818152602001828054610b579061343a565b8015610ba45780601f10610b7957610100808354040283529160200191610ba4565b820191906000526020600020905b815481529060010190602001808311610b8757829003601f168201915b50505050506112d7565b919050565b60008073ffffffffffffffffffffffffffffffffffffffff168273ffffffffffffffffffffffffffffffffffffffff161415610c24576040517f08c379a0000000000000000000000000000000000000000000000000000000008152600401610c1b90613064565b60405180910390fd5b600360008373ffffffffffffffffffffffffffffffffffffffff1673ffffffffffffffffffffffffffffffffffffffff168152602001908152602001600020549050919050565b610c73611216565b73ffffffffffffffffffffffffffffffffffffffff16610c91610cf3565b73ffffffffffffffffffffffffffffffffffffffff1614610ce7576040517f08c379a0000000000000000000000000000000000000000000000000000000008152600401610cde90613124565b60405180910390fd5b610cf160006116d3565b565b6000600b60009054906101000a900473ffffffffffffffffffffffffffffffffffffffff16905090565b606060018054610d2c9061343a565b80601f0160208091040260200160405190810160405280929190818152602001828054610d589061343a565b8015610da55780601f10610d7a57610100808354040283529160200191610da5565b820191906000526020600020905b815481529060010190602001808311610d8857829003601f168201915b5050505050905090565b610db7611216565b73ffffffffffffffffffffffffffffffffffffffff168273ffffffffffffffffffffffffffffffffffffffff161415610e25576040517f08c379a0000000000000000000000000000000000000000000000000000000008152600401610e1c90613004565b60405180910390fd5b8060056000610e32611216565b73ffffffffffffffffffffffffffffffffffffffff1673ffffffffffffffffffffffffffffffffffffffff16815260200190815260200160002060008473ffffffffffffffffffffffffffffffffffffffff1673ffffffffffffffffffffffffffffffffffffffff16815260200190815260200160002060006101000a81548160ff0219169083151502179055508173ffffffffffffffffffffffffffffffffffffffff16610edf611216565b73ffffffffffffffffffffffffffffffffffffffff167f17307eab39ab6107e8899845ad3d59bd9653f200f220920489ca2b5937696c3183604051610f249190612f27565b60405180910390a35050565b610f41610f3b611216565b8361134b565b610f80576040517f08c379a0000000000000000000000000000000000000000000000000000000008152600401610f77906131a4565b60405180910390fd5b610f8c84848484611799565b50505050565b6060610f9d826117f5565b9050919050565b6000600560008473ffffffffffffffffffffffffffffffffffffffff1673ffffffffffffffffffffffffffffffffffffffff16815260200190815260200160002060008373ffffffffffffffffffffffffffffffffffffffff1673ffffffffffffffffffffffffffffffffffffffff16815260200190815260200160002060009054906101000a900460ff16905092915050565b611040611216565b73ffffffffffffffffffffffffffffffffffffffff1661105e610cf3565b73ffffffffffffffffffffffffffffffffffffffff16146110b4576040517f08c379a00000000000000000000000000000000000000000000000000000000081526004016110ab90613124565b60405180910390fd5b600073ffffffffffffffffffffffffffffffffffffffff168173ffffffffffffffffffffffffffffffffffffffff161415611124576040517f08c379a000000000000000000000000000000000000000000000000000000000815260040161111b90612fa4565b60405180910390fd5b61112d816116d3565b50565b60007f780e9d63000000000000000000000000000000000000000000000000000000007bffffffffffffffffffffffffffffffffffffffffffffffffffffffff1916827bffffffffffffffffffffffffffffffffffffffffffffffffffffffff191614806111a357506111a282611947565b5b9050919050565b60008073ffffffffffffffffffffffffffffffffffffffff166002600084815260200190815260200160002060009054906101000a900473ffffffffffffffffffffffffffffffffffffffff1673ffffffffffffffffffffffffffffffffffffffff1614159050919050565b600033905090565b816004600083815260200190815260200160002060006101000a81548173ffffffffffffffffffffffffffffffffffffffff021916908373ffffffffffffffffffffffffffffffffffffffff160217905550808273ffffffffffffffffffffffffffffffffffffffff16611291836109ca565b73ffffffffffffffffffffffffffffffffffffffff167f8c5be1e5ebec7d5bd14f71427d1e84f3dd0314c0f7b2291e5b200ac8c7c3b92560405160405180910390a45050565b6112e0826111aa565b61131f576040517f08c379a0000000000000000000000000000000000000000000000000000000008152600401611316906130a4565b60405180910390fd5b8060066000848152602001908152602001600020908051906020019061134692919061263e565b505050565b6000611356826111aa565b611395576040517f08c379a000000000000000000000000000000000000000000000000000000000815260040161138c90613024565b60405180910390fd5b60006113a0836109ca565b90508073ffffffffffffffffffffffffffffffffffffffff168473ffffffffffffffffffffffffffffffffffffffff16148061140f57508373ffffffffffffffffffffffffffffffffffffffff166113f784610526565b73ffffffffffffffffffffffffffffffffffffffff16145b80611420575061141f8185610fa4565b5b91505092915050565b8273ffffffffffffffffffffffffffffffffffffffff16611449826109ca565b73ffffffffffffffffffffffffffffffffffffffff161461149f576040517f08c379a000000000000000000000000000000000000000000000000000000000815260040161149690613144565b60405180910390fd5b600073ffffffffffffffffffffffffffffffffffffffff168273ffffffffffffffffffffffffffffffffffffffff16141561150f576040517f08c379a000000000000000000000000000000000000000000000000000000000815260040161150690612fe4565b60405180910390fd5b61151a838383611a29565b61152560008261121e565b6001600360008573ffffffffffffffffffffffffffffffffffffffff1673ffffffffffffffffffffffffffffffffffffffff16815260200190815260200160002060008282546115759190613350565b925050819055506001600360008473ffffffffffffffffffffffffffffffffffffffff1673ffffffffffffffffffffffffffffffffffffffff16815260200190815260200160002060008282546115cc91906132c9565b92505081905550816002600083815260200190815260200160002060006101000a81548173ffffffffffffffffffffffffffffffffffffffff021916908373ffffffffffffffffffffffffffffffffffffffff160217905550808273ffffffffffffffffffffffffffffffffffffffff168473ffffffffffffffffffffffffffffffffffffffff167fddf252ad1be2c89b69c2b068fc378daa952ba7f163c4a11628f55a4df523b3ef60405160405180910390a4505050565b61168e81611a39565b50565b6001816000016000828254019250508190555050565b600081600001549050919050565b6116cf828260405180602001604052806000815250611a8c565b5050565b6000600b60009054906101000a900473ffffffffffffffffffffffffffffffffffffffff16905081600b60006101000a81548173ffffffffffffffffffffffffffffffffffffffff021916908373ffffffffffffffffffffffffffffffffffffffff1602179055508173ffffffffffffffffffffffffffffffffffffffff168173ffffffffffffffffffffffffffffffffffffffff167f8be0079c531659141344cd1fd0a4f28419497f9722a3daafe3b4186f6b6457e060405160405180910390a35050565b6117a4848484611429565b6117b084848484611ae7565b6117ef576040517f08c379a00000000000000000000000000000000000000000000000000000000081526004016117e690612f84565b60405180910390fd5b50505050565b6060611800826111aa565b61183f576040517f08c379a0000000000000000000000000000000000000000000000000000000008152600401611836906130e4565b60405180910390fd5b600060066000848152602001908152602001600020805461185f9061343a565b80601f016020809104026020016040519081016040528092919081815260200182805461188b9061343a565b80156118d85780601f106118ad576101008083540402835291602001916118d8565b820191906000526020600020905b8154815290600101906020018083116118bb57829003601f168201915b5050505050905060006118e9611c7e565b90506000815114156118ff578192505050611942565b60008251111561193457808260405160200161191c929190612e9c565b60405160208183030381529060405292505050611942565b61193d84611cbb565b925050505b919050565b60007f80ac58cd000000000000000000000000000000000000000000000000000000007bffffffffffffffffffffffffffffffffffffffffffffffffffffffff1916827bffffffffffffffffffffffffffffffffffffffffffffffffffffffff19161480611a1257507f5b5e139f000000000000000000000000000000000000000000000000000000007bffffffffffffffffffffffffffffffffffffffffffffffffffffffff1916827bffffffffffffffffffffffffffffffffffffffffffffffffffffffff1916145b80611a225750611a2182611d62565b5b9050919050565b611a34838383611dcc565b505050565b611a4281611ee0565b6000600660008381526020019081526020016000208054611a629061343a565b905014611a8957600660008281526020019081526020016000206000611a8891906126c4565b5b50565b611a968383611ff1565b611aa36000848484611ae7565b611ae2576040517f08c379a0000000000000000000000000000000000000000000000000000000008152600401611ad990612f84565b60405180910390fd5b505050565b6000611b088473ffffffffffffffffffffffffffffffffffffffff166121bf565b15611c71578373ffffffffffffffffffffffffffffffffffffffff1663150b7a02611b31611216565b8786866040518563ffffffff1660e01b8152600401611b539493929190612edb565b602060405180830381600087803b158015611b6d57600080fd5b505af1925050508015611b9e57506040513d601f19601f82011682018060405250810190611b9b9190612a5a565b60015b611c21573d8060008114611bce576040519150601f19603f3d011682016040523d82523d6000602084013e611bd3565b606091505b50600081511415611c19576040517f08c379a0000000000000000000000000000000000000000000000000000000008152600401611c1090612f84565b60405180910390fd5b805181602001fd5b63150b7a0260e01b7bffffffffffffffffffffffffffffffffffffffffffffffffffffffff1916817bffffffffffffffffffffffffffffffffffffffffffffffffffffffff191614915050611c76565b600190505b949350505050565b60606040518060400160405280600781526020017f697066733a2f2f00000000000000000000000000000000000000000000000000815250905090565b6060611cc6826111aa565b611d05576040517f08c379a0000000000000000000000000000000000000000000000000000000008152600401611cfc90613164565b60405180910390fd5b6000611d0f611c7e565b90506000815111611d2f5760405180602001604052806000815250611d5a565b80611d39846121d2565b604051602001611d4a929190612e9c565b6040516020818303038152906040525b915050919050565b60007f01ffc9a7000000000000000000000000000000000000000000000000000000007bffffffffffffffffffffffffffffffffffffffffffffffffffffffff1916827bffffffffffffffffffffffffffffffffffffffffffffffffffffffff1916149050919050565b611dd7838383612333565b600073ffffffffffffffffffffffffffffffffffffffff168373ffffffffffffffffffffffffffffffffffffffff161415611e1a57611e1581612338565b611e59565b8173ffffffffffffffffffffffffffffffffffffffff168373ffffffffffffffffffffffffffffffffffffffff1614611e5857611e578382612381565b5b5b600073ffffffffffffffffffffffffffffffffffffffff168273ffffffffffffffffffffffffffffffffffffffff161415611e9c57611e97816124ee565b611edb565b8273ffffffffffffffffffffffffffffffffffffffff168273ffffffffffffffffffffffffffffffffffffffff1614611eda57611ed982826125bf565b5b5b505050565b6000611eeb826109ca565b9050611ef981600084611a29565b611f0460008361121e565b6001600360008373ffffffffffffffffffffffffffffffffffffffff1673ffffffffffffffffffffffffffffffffffffffff1681526020019081526020016000206000828254611f549190613350565b925050819055506002600083815260200190815260200160002060006101000a81549073ffffffffffffffffffffffffffffffffffffffff021916905581600073ffffffffffffffffffffffffffffffffffffffff168273ffffffffffffffffffffffffffffffffffffffff167fddf252ad1be2c89b69c2b068fc378daa952ba7f163c4a11628f55a4df523b3ef60405160405180910390a45050565b600073ffffffffffffffffffffffffffffffffffffffff168273ffffffffffffffffffffffffffffffffffffffff161415612061576040517f08c379a0000000000000000000000000000000000000000000000000000000008152600401612058906130c4565b60405180910390fd5b61206a816111aa565b156120aa576040517f08c379a00000000000000000000000000000000000000000000000000000000081526004016120a190612fc4565b60405180910390fd5b6120b660008383611a29565b6001600360008473ffffffffffffffffffffffffffffffffffffffff1673ffffffffffffffffffffffffffffffffffffffff168152602001908152602001600020600082825461210691906132c9565b92505081905550816002600083815260200190815260200160002060006101000a81548173ffffffffffffffffffffffffffffffffffffffff021916908373ffffffffffffffffffffffffffffffffffffffff160217905550808273ffffffffffffffffffffffffffffffffffffffff16600073ffffffffffffffffffffffffffffffffffffffff167fddf252ad1be2c89b69c2b068fc378daa952ba7f163c4a11628f55a4df523b3ef60405160405180910390a45050565b600080823b905060008111915050919050565b6060600082141561221a576040518060400160405280600181526020017f3000000000000000000000000000000000000000000000000000000000000000815250905061232e565b600082905060005b6000821461224c5780806122359061349d565b915050600a82612245919061331f565b9150612222565b60008167ffffffffffffffff81111561226857612267613602565b5b6040519080825280601f01601f19166020018201604052801561229a5781602001600182028036833780820191505090505b5090505b60008514612327576001826122b39190613350565b9150600a856122c291906134e6565b60306122ce91906132c9565b60f81b8183815181106122e4576122e36135d3565b5b60200101907effffffffffffffffffffffffffffffffffffffffffffffffffffffffffffff1916908160001a905350600a85612320919061331f565b945061229e565b8093505050505b919050565b505050565b600980549050600a600083815260200190815260200160002081905550600981908060018154018082558091505060019003906000526020600020016000909190919091505550565b6000600161238e84610bb3565b6123989190613350565b905060006008600084815260200190815260200160002054905081811461247d576000600760008673ffffffffffffffffffffffffffffffffffffffff1673ffffffffffffffffffffffffffffffffffffffff168152602001908152602001600020600084815260200190815260200160002054905080600760008773ffffffffffffffffffffffffffffffffffffffff1673ffffffffffffffffffffffffffffffffffffffff168152602001908152602001600020600084815260200190815260200160002081905550816008600083815260200190815260200160002081905550505b6008600084815260200190815260200160002060009055600760008573ffffffffffffffffffffffffffffffffffffffff1673ffffffffffffffffffffffffffffffffffffffff16815260200190815260200160002060008381526020019081526020016000206000905550505050565b600060016009805490506125029190613350565b90506000600a6000848152602001908152602001600020549050600060098381548110612532576125316135d3565b5b906000526020600020015490508060098381548110612554576125536135d3565b5b906000526020600020018190555081600a600083815260200190815260200160002081905550600a60008581526020019081526020016000206000905560098054806125a3576125a26135a4565b5b6001900381819060005260206000200160009055905550505050565b60006125ca83610bb3565b905081600760008573ffffffffffffffffffffffffffffffffffffffff1673ffffffffffffffffffffffffffffffffffffffff168152602001908152602001600020600083815260200190815260200160002081905550806008600084815260200190815260200160002081905550505050565b82805461264a9061343a565b90600052602060002090601f01602090048101928261266c57600085556126b3565b82601f1061268557805160ff19168380011785556126b3565b828001600101855582156126b3579182015b828111156126b2578251825591602001919060010190612697565b5b5090506126c09190612704565b5090565b5080546126d09061343a565b6000825580601f106126e25750612701565b601f0160209004906000526020600020908101906127009190612704565b5b50565b5b8082111561271d576000816000905550600101612705565b5090565b600061273461272f84613224565b6131ff565b9050828152602081018484840111156127505761274f613636565b5b61275b8482856133f8565b509392505050565b600061277661277184613255565b6131ff565b90508281526020810184848401111561279257612791613636565b5b61279d8482856133f8565b509392505050565b6000813590506127b481613bea565b92915050565b6000813590506127c981613c01565b92915050565b6000813590506127de81613c18565b92915050565b6000815190506127f381613c18565b92915050565b600082601f83011261280e5761280d613631565b5b813561281e848260208601612721565b91505092915050565b600082601f83011261283c5761283b613631565b5b813561284c848260208601612763565b91505092915050565b60008135905061286481613c2f565b92915050565b6000602082840312156128805761287f613640565b5b600061288e848285016127a5565b91505092915050565b600080604083850312156128ae576128ad613640565b5b60006128bc858286016127a5565b92505060206128cd858286016127a5565b9150509250929050565b6000806000606084860312156128f0576128ef613640565b5b60006128fe868287016127a5565b935050602061290f868287016127a5565b925050604061292086828701612855565b9150509250925092565b6000806000806080858703121561294457612943613640565b5b6000612952878288016127a5565b9450506020612963878288016127a5565b935050604061297487828801612855565b925050606085013567ffffffffffffffff8111156129955761299461363b565b5b6129a1878288016127f9565b91505092959194509250565b600080604083850312156129c4576129c3613640565b5b60006129d2858286016127a5565b92505060206129e3858286016127ba565b9150509250929050565b60008060408385031215612a0457612a03613640565b5b6000612a12858286016127a5565b9250506020612a2385828601612855565b9150509250929050565b600060208284031215612a4357612a42613640565b5b6000612a51848285016127cf565b91505092915050565b600060208284031215612a7057612a6f613640565b5b6000612a7e848285016127e4565b91505092915050565b600060208284031215612a9d57612a9c613640565b5b6000612aab84828501612855565b91505092915050565b60008060408385031215612acb57612aca613640565b5b6000612ad985828601612855565b925050602083013567ffffffffffffffff811115612afa57612af961363b565b5b612b0685828601612827565b9150509250929050565b612b1981613384565b82525050565b612b2881613396565b82525050565b6000612b3982613286565b612b43818561329c565b9350612b53818560208601613407565b612b5c81613645565b840191505092915050565b6000612b7282613291565b612b7c81856132ad565b9350612b8c818560208601613407565b612b9581613645565b840191505092915050565b6000612bab82613291565b612bb581856132be565b9350612bc5818560208601613407565b80840191505092915050565b6000612bde602b836132ad565b9150612be982613656565b604082019050919050565b6000612c016032836132ad565b9150612c0c826136a5565b604082019050919050565b6000612c246026836132ad565b9150612c2f826136f4565b604082019050919050565b6000612c47601c836132ad565b9150612c5282613743565b602082019050919050565b6000612c6a6024836132ad565b9150612c758261376c565b604082019050919050565b6000612c8d6019836132ad565b9150612c98826137bb565b602082019050919050565b6000612cb0602c836132ad565b9150612cbb826137e4565b604082019050919050565b6000612cd36038836132ad565b9150612cde82613833565b604082019050919050565b6000612cf6602a836132ad565b9150612d0182613882565b604082019050919050565b6000612d196029836132ad565b9150612d24826138d1565b604082019050919050565b6000612d3c602e836132ad565b9150612d4782613920565b604082019050919050565b6000612d5f6020836132ad565b9150612d6a8261396f565b602082019050919050565b6000612d826031836132ad565b9150612d8d82613998565b604082019050919050565b6000612da5602c836132ad565b9150612db0826139e7565b604082019050919050565b6000612dc86020836132ad565b9150612dd382613a36565b602082019050919050565b6000612deb6029836132ad565b9150612df682613a5f565b604082019050919050565b6000612e0e602f836132ad565b9150612e1982613aae565b604082019050919050565b6000612e316021836132ad565b9150612e3c82613afd565b604082019050919050565b6000612e546031836132ad565b9150612e5f82613b4c565b604082019050919050565b6000612e77602c836132ad565b9150612e8282613b9b565b604082019050919050565b612e96816133ee565b82525050565b6000612ea88285612ba0565b9150612eb48284612ba0565b91508190509392505050565b6000602082019050612ed56000830184612b10565b92915050565b6000608082019050612ef06000830187612b10565b612efd6020830186612b10565b612f0a6040830185612e8d565b8181036060830152612f1c8184612b2e565b905095945050505050565b6000602082019050612f3c6000830184612b1f565b92915050565b60006020820190508181036000830152612f5c8184612b67565b905092915050565b60006020820190508181036000830152612f7d81612bd1565b9050919050565b60006020820190508181036000830152612f9d81612bf4565b9050919050565b60006020820190508181036000830152612fbd81612c17565b9050919050565b60006020820190508181036000830152612fdd81612c3a565b9050919050565b60006020820190508181036000830152612ffd81612c5d565b9050919050565b6000602082019050818103600083015261301d81612c80565b9050919050565b6000602082019050818103600083015261303d81612ca3565b9050919050565b6000602082019050818103600083015261305d81612cc6565b9050919050565b6000602082019050818103600083015261307d81612ce9565b9050919050565b6000602082019050818103600083015261309d81612d0c565b9050919050565b600060208201905081810360008301526130bd81612d2f565b9050919050565b600060208201905081810360008301526130dd81612d52565b9050919050565b600060208201905081810360008301526130fd81612d75565b9050919050565b6000602082019050818103600083015261311d81612d98565b9050919050565b6000602082019050818103600083015261313d81612dbb565b9050919050565b6000602082019050818103600083015261315d81612dde565b9050919050565b6000602082019050818103600083015261317d81612e01565b9050919050565b6000602082019050818103600083015261319d81612e24565b9050919050565b600060208201905081810360008301526131bd81612e47565b9050919050565b600060208201905081810360008301526131dd81612e6a565b9050919050565b60006020820190506131f96000830184612e8d565b92915050565b600061320961321a565b9050613215828261346c565b919050565b6000604051905090565b600067ffffffffffffffff82111561323f5761323e613602565b5b61324882613645565b9050602081019050919050565b600067ffffffffffffffff8211156132705761326f613602565b5b61327982613645565b9050602081019050919050565b600081519050919050565b600081519050919050565b600082825260208201905092915050565b600082825260208201905092915050565b600081905092915050565b60006132d4826133ee565b91506132df836133ee565b9250827fffffffffffffffffffffffffffffffffffffffffffffffffffffffffffffffff0382111561331457613313613517565b5b828201905092915050565b600061332a826133ee565b9150613335836133ee565b92508261334557613344613546565b5b828204905092915050565b600061335b826133ee565b9150613366836133ee565b92508282101561337957613378613517565b5b828203905092915050565b600061338f826133ce565b9050919050565b60008115159050919050565b60007fffffffff0000000000000000000000000000000000000000000000000000000082169050919050565b600073ffffffffffffffffffffffffffffffffffffffff82169050919050565b6000819050919050565b82818337600083830152505050565b60005b8381101561342557808201518184015260208101905061340a565b83811115613434576000848401525b50505050565b6000600282049050600182168061345257607f821691505b6020821081141561346657613465613575565b5b50919050565b61347582613645565b810181811067ffffffffffffffff8211171561349457613493613602565b5b80604052505050565b60006134a8826133ee565b91507fffffffffffffffffffffffffffffffffffffffffffffffffffffffffffffffff8214156134db576134da613517565b5b600182019050919050565b60006134f1826133ee565b91506134fc836133ee565b92508261350c5761350b613546565b5b828206905092915050565b7f4e487b7100000000000000000000000000000000000000000000000000000000600052601160045260246000fd5b7f4e487b7100000000000000000000000000000000000000000000000000000000600052601260045260246000fd5b7f4e487b7100000000000000000000000000000000000000000000000000000000600052602260045260246000fd5b7f4e487b7100000000000000000000000000000000000000000000000000000000600052603160045260246000fd5b7f4e487b7100000000000000000000000000000000000000000000000000000000600052603260045260246000fd5b7f4e487b7100000000000000000000000000000000000000000000000000000000600052604160045260246000fd5b600080fd5b600080fd5b600080fd5b600080fd5b6000601f19601f8301169050919050565b7f455243373231456e756d657261626c653a206f776e657220696e646578206f7560008201527f74206f6620626f756e6473000000000000000000000000000000000000000000602082015250565b7f4552433732313a207472616e7366657220746f206e6f6e20455243373231526560008201527f63656976657220696d706c656d656e7465720000000000000000000000000000602082015250565b7f4f776e61626c653a206e6577206f776e657220697320746865207a65726f206160008201527f6464726573730000000000000000000000000000000000000000000000000000602082015250565b7f4552433732313a20746f6b656e20616c7265616479206d696e74656400000000600082015250565b7f4552433732313a207472616e7366657220746f20746865207a65726f2061646460008201527f7265737300000000000000000000000000000000000000000000000000000000602082015250565b7f4552433732313a20617070726f766520746f2063616c6c657200000000000000600082015250565b7f4552433732313a206f70657261746f7220717565727920666f72206e6f6e657860008201527f697374656e7420746f6b656e0000000000000000000000000000000000000000602082015250565b7f4552433732313a20617070726f76652063616c6c6572206973206e6f74206f7760008201527f6e6572206e6f7220617070726f76656420666f7220616c6c0000000000000000602082015250565b7f4552433732313a2062616c616e636520717565727920666f7220746865207a6560008201527f726f206164647265737300000000000000000000000000000000000000000000602082015250565b7f4552433732313a206f776e657220717565727920666f72206e6f6e657869737460008201527f656e7420746f6b656e0000000000000000000000000000000000000000000000602082015250565b7f45524337323155524953746f726167653a2055524920736574206f66206e6f6e60008201527f6578697374656e7420746f6b656e000000000000000000000000000000000000602082015250565b7f4552433732313a206d696e7420746f20746865207a65726f2061646472657373600082015250565b7f45524337323155524953746f726167653a2055524920717565727920666f722060008201527f6e6f6e6578697374656e7420746f6b656e000000000000000000000000000000602082015250565b7f4552433732313a20617070726f76656420717565727920666f72206e6f6e657860008201527f697374656e7420746f6b656e0000000000000000000000000000000000000000602082015250565b7f4f776e61626c653a2063616c6c6572206973206e6f7420746865206f776e6572600082015250565b7f4552433732313a207472616e73666572206f6620746f6b656e2074686174206960008201527f73206e6f74206f776e0000000000000000000000000000000000000000000000602082015250565b7f4552433732314d657461646174613a2055524920717565727920666f72206e6f60008201527f6e6578697374656e7420746f6b656e0000000000000000000000000000000000602082015250565b7f4552433732313a20617070726f76616c20746f2063757272656e74206f776e6560008201527f7200000000000000000000000000000000000000000000000000000000000000602082015250565b7f4552433732313a207472616e736665722063616c6c6572206973206e6f74206f60008201527f776e6572206e6f7220617070726f766564000000000000000000000000000000602082015250565b7f455243373231456e756d657261626c653a20676c6f62616c20696e646578206f60008201527f7574206f6620626f756e64730000000000000000000000000000000000000000602082015250565b613bf381613384565b8114613bfe57600080fd5b50565b613c0a81613396565b8114613c1557600080fd5b50565b613c21816133a2565b8114613c2c57600080fd5b50565b613c38816133ee565b8114613c4357600080fd5b5056fea26469706673582212208c06ff76aae607ce6e8fb1e43418822ac465fa10f65e4fcc87811f14fcd8053e64736f6c63430008050033",
  "immutableReferences": {},
  "source": "// SPDX-License-Identifier: BUSL-1.1\r\npragma solidity ^0.8.2;\r\n\r\nimport \"@openzeppelin/contracts/token/ERC721/ERC721.sol\";\r\n\r\nimport \"@openzeppelin/contracts/access/Ownable.sol\";\r\n\r\nimport \"@openzeppelin/contracts/token/ERC721/extensions/ERC721URIStorage.sol\";\r\nimport \"@openzeppelin/contracts/utils/Counters.sol\";\r\nimport \"@openzeppelin/contracts/token/ERC721/extensions/ERC721Enumerable.sol\";\r\n\r\nimport \"../WrappedTokens/WMatic.sol\";\r\n\r\nimport \"../Interfaces/Mintable.sol\";\r\n\r\ncontract PolyCard is ERC721URIStorage, ERC721Enumerable, Mintable, Ownable{\r\n\r\n    WMatic wMatic;\r\n\r\n    using Counters for Counters.Counter;\r\n    Counters.Counter private tokenIds;\r\n\r\n    string public URI;\r\n\r\n    constructor(address _wMatic, string memory _uri, string memory _name, string memory _symbol )ERC721(_name, _symbol){\r\n        wMatic = WMatic(_wMatic);\r\n        URI = _uri;\r\n    }\r\n\r\n    function mint(address _receiver) external override onlyOwner returns(uint _id){\r\n        tokenIds.increment();\r\n        _id = tokenIds.current();\r\n        _safeMint(_receiver, _id);\r\n        _setTokenURI(_id, URI);\r\n    }\r\n\r\n    function burn(uint _tokenId) external override onlyOwner{\r\n        _burn(_tokenId);\r\n    }\r\n\r\n    function setTokenURI(uint256 tokenId, string memory _tokenURI) public{\r\n        require(msg.sender == ownerOf(tokenId));\r\n        _setTokenURI(tokenId, _tokenURI);\r\n    }\r\n\r\n     function _baseURI() internal override pure returns (string memory){\r\n         return \"ipfs://\";\r\n     }\r\n\r\n    function _burn(uint _tokenId) internal override(ERC721, ERC721URIStorage){\r\n        super._burn(_tokenId);\r\n    }\r\n\r\n    function _beforeTokenTransfer(address from, address to, uint tokenId) internal override(ERC721, ERC721Enumerable){\r\n        super._beforeTokenTransfer(from, to, tokenId);\r\n    }\r\n\r\n    function supportsInterface(bytes4 interfaceId) public view override(ERC721, ERC721Enumerable) returns(bool){\r\n        return super.supportsInterface(interfaceId);\r\n    }\r\n\r\n     function tokenURI(uint256 tokenId) public view override(ERC721, ERC721URIStorage) returns (string memory){\r\n        return super.tokenURI(tokenId);\r\n    }\r\n}",
  "sourcePath": "/home/stephenstb/Ratio/ratio/contracts/cryptoGame/NFTMints/PolyCard.sol",
  "compiler": {
    "name": "solc",
    "version": "0.8.5+commit.a4f2e591.Emscripten.clang"
  },
  "schemaVersion": "3.4.3",
  "updatedAt": "2022-03-18T21:34:02.776Z",
  "devdoc": {
    "kind": "dev",
    "methods": {
      "approve(address,uint256)": {
        "details": "See {IERC721-approve}."
      },
      "balanceOf(address)": {
        "details": "See {IERC721-balanceOf}."
      },
      "getApproved(uint256)": {
        "details": "See {IERC721-getApproved}."
      },
      "isApprovedForAll(address,address)": {
        "details": "See {IERC721-isApprovedForAll}."
      },
      "name()": {
        "details": "See {IERC721Metadata-name}."
      },
      "owner()": {
        "details": "Returns the address of the current owner."
      },
      "ownerOf(uint256)": {
        "details": "See {IERC721-ownerOf}."
      },
      "renounceOwnership()": {
        "details": "Leaves the contract without owner. It will not be possible to call `onlyOwner` functions anymore. Can only be called by the current owner. NOTE: Renouncing ownership will leave the contract without an owner, thereby removing any functionality that is only available to the owner."
      },
      "safeTransferFrom(address,address,uint256)": {
        "details": "See {IERC721-safeTransferFrom}."
      },
      "safeTransferFrom(address,address,uint256,bytes)": {
        "details": "See {IERC721-safeTransferFrom}."
      },
      "setApprovalForAll(address,bool)": {
        "details": "See {IERC721-setApprovalForAll}."
      },
      "symbol()": {
        "details": "See {IERC721Metadata-symbol}."
      },
      "tokenByIndex(uint256)": {
        "details": "See {IERC721Enumerable-tokenByIndex}."
      },
      "tokenOfOwnerByIndex(address,uint256)": {
        "details": "See {IERC721Enumerable-tokenOfOwnerByIndex}."
      },
      "totalSupply()": {
        "details": "See {IERC721Enumerable-totalSupply}."
      },
      "transferFrom(address,address,uint256)": {
        "details": "See {IERC721-transferFrom}."
      },
      "transferOwnership(address)": {
        "details": "Transfers ownership of the contract to a new account (`newOwner`). Can only be called by the current owner."
      }
    },
    "version": 1
  },
  "userdoc": {
    "kind": "user",
    "methods": {},
    "version": 1
  }
}