{
  "contractName": "PolyCard",
  "abi": [
    {
      "inputs": [
        {
          "internalType": "string",
          "name": "_name",
          "type": "string"
        },
        {
          "internalType": "string",
          "name": "_symbol",
          "type": "string"
        }
      ],
      "stateMutability": "nonpayable",
      "type": "constructor"
    },
    {
      "anonymous": false,
      "inputs": [
        {
          "indexed": true,
          "internalType": "address",
          "name": "owner",
          "type": "address"
        },
        {
          "indexed": true,
          "internalType": "address",
          "name": "approved",
          "type": "address"
        },
        {
          "indexed": true,
          "internalType": "uint256",
          "name": "tokenId",
          "type": "uint256"
        }
      ],
      "name": "Approval",
      "type": "event"
    },
    {
      "anonymous": false,
      "inputs": [
        {
          "indexed": true,
          "internalType": "address",
          "name": "owner",
          "type": "address"
        },
        {
          "indexed": true,
          "internalType": "address",
          "name": "operator",
          "type": "address"
        },
        {
          "indexed": false,
          "internalType": "bool",
          "name": "approved",
          "type": "bool"
        }
      ],
      "name": "ApprovalForAll",
      "type": "event"
    },
    {
      "anonymous": false,
      "inputs": [
        {
          "indexed": true,
          "internalType": "address",
          "name": "previousOwner",
          "type": "address"
        },
        {
          "indexed": true,
          "internalType": "address",
          "name": "newOwner",
          "type": "address"
        }
      ],
      "name": "OwnershipTransferred",
      "type": "event"
    },
    {
      "anonymous": false,
      "inputs": [
        {
          "indexed": true,
          "internalType": "address",
          "name": "from",
          "type": "address"
        },
        {
          "indexed": true,
          "internalType": "address",
          "name": "to",
          "type": "address"
        },
        {
          "indexed": true,
          "internalType": "uint256",
          "name": "tokenId",
          "type": "uint256"
        }
      ],
      "name": "Transfer",
      "type": "event"
    },
    {
      "inputs": [
        {
          "internalType": "address",
          "name": "to",
          "type": "address"
        },
        {
          "internalType": "uint256",
          "name": "tokenId",
          "type": "uint256"
        }
      ],
      "name": "approve",
      "outputs": [],
      "stateMutability": "nonpayable",
      "type": "function"
    },
    {
      "inputs": [],
      "name": "audio",
      "outputs": [
        {
          "internalType": "string",
          "name": "",
          "type": "string"
        }
      ],
      "stateMutability": "view",
      "type": "function"
    },
    {
      "inputs": [
        {
          "internalType": "address",
          "name": "owner",
          "type": "address"
        }
      ],
      "name": "balanceOf",
      "outputs": [
        {
          "internalType": "uint256",
          "name": "",
          "type": "uint256"
        }
      ],
      "stateMutability": "view",
      "type": "function"
    },
    {
      "inputs": [],
      "name": "baseURI",
      "outputs": [
        {
          "internalType": "string",
          "name": "",
          "type": "string"
        }
      ],
      "stateMutability": "view",
      "type": "function"
    },
    {
      "inputs": [],
      "name": "distributor",
      "outputs": [
        {
          "internalType": "address",
          "name": "",
          "type": "address"
        }
      ],
      "stateMutability": "view",
      "type": "function"
    },
    {
      "inputs": [
        {
          "internalType": "uint256",
          "name": "tokenId",
          "type": "uint256"
        }
      ],
      "name": "getApproved",
      "outputs": [
        {
          "internalType": "address",
          "name": "",
          "type": "address"
        }
      ],
      "stateMutability": "view",
      "type": "function"
    },
    {
      "inputs": [],
      "name": "image",
      "outputs": [
        {
          "internalType": "string",
          "name": "",
          "type": "string"
        }
      ],
      "stateMutability": "view",
      "type": "function"
    },
    {
      "inputs": [],
      "name": "info",
      "outputs": [
        {
          "internalType": "uint256",
          "name": "_maxSupply",
          "type": "uint256"
        },
        {
          "internalType": "uint256",
          "name": "_mintValue",
          "type": "uint256"
        },
        {
          "internalType": "uint256",
          "name": "_minted",
          "type": "uint256"
        },
        {
          "internalType": "string",
          "name": "_name",
          "type": "string"
        },
        {
          "internalType": "string",
          "name": "_image",
          "type": "string"
        },
        {
          "internalType": "string",
          "name": "_audio",
          "type": "string"
        },
        {
          "internalType": "string",
          "name": "_video",
          "type": "string"
        },
        {
          "internalType": "string",
          "name": "_model",
          "type": "string"
        }
      ],
      "stateMutability": "view",
      "type": "function"
    },
    {
      "inputs": [
        {
          "internalType": "address",
          "name": "owner",
          "type": "address"
        },
        {
          "internalType": "address",
          "name": "operator",
          "type": "address"
        }
      ],
      "name": "isApprovedForAll",
      "outputs": [
        {
          "internalType": "bool",
          "name": "",
          "type": "bool"
        }
      ],
      "stateMutability": "view",
      "type": "function"
    },
    {
      "inputs": [],
      "name": "maxSupply",
      "outputs": [
        {
          "internalType": "uint256",
          "name": "",
          "type": "uint256"
        }
      ],
      "stateMutability": "view",
      "type": "function"
    },
    {
      "inputs": [],
      "name": "mintInfo",
      "outputs": [
        {
          "internalType": "uint256",
          "name": "_maxSupply",
          "type": "uint256"
        },
        {
          "internalType": "uint256",
          "name": "_mintValue",
          "type": "uint256"
        },
        {
          "internalType": "uint256",
          "name": "_minted",
          "type": "uint256"
        },
        {
          "internalType": "string",
          "name": "_name",
          "type": "string"
        }
      ],
      "stateMutability": "view",
      "type": "function"
    },
    {
      "inputs": [],
      "name": "mintValue",
      "outputs": [
        {
          "internalType": "uint256",
          "name": "",
          "type": "uint256"
        }
      ],
      "stateMutability": "view",
      "type": "function"
    },
    {
      "inputs": [],
      "name": "model",
      "outputs": [
        {
          "internalType": "string",
          "name": "",
          "type": "string"
        }
      ],
      "stateMutability": "view",
      "type": "function"
    },
    {
      "inputs": [],
      "name": "name",
      "outputs": [
        {
          "internalType": "string",
          "name": "",
          "type": "string"
        }
      ],
      "stateMutability": "view",
      "type": "function"
    },
    {
      "inputs": [],
      "name": "owner",
      "outputs": [
        {
          "internalType": "address",
          "name": "",
          "type": "address"
        }
      ],
      "stateMutability": "view",
      "type": "function"
    },
    {
      "inputs": [
        {
          "internalType": "uint256",
          "name": "tokenId",
          "type": "uint256"
        }
      ],
      "name": "ownerOf",
      "outputs": [
        {
          "internalType": "address",
          "name": "",
          "type": "address"
        }
      ],
      "stateMutability": "view",
      "type": "function"
    },
    {
      "inputs": [],
      "name": "renounceOwnership",
      "outputs": [],
      "stateMutability": "nonpayable",
      "type": "function"
    },
    {
      "inputs": [
        {
          "internalType": "address",
          "name": "from",
          "type": "address"
        },
        {
          "internalType": "address",
          "name": "to",
          "type": "address"
        },
        {
          "internalType": "uint256",
          "name": "tokenId",
          "type": "uint256"
        }
      ],
      "name": "safeTransferFrom",
      "outputs": [],
      "stateMutability": "nonpayable",
      "type": "function"
    },
    {
      "inputs": [
        {
          "internalType": "address",
          "name": "from",
          "type": "address"
        },
        {
          "internalType": "address",
          "name": "to",
          "type": "address"
        },
        {
          "internalType": "uint256",
          "name": "tokenId",
          "type": "uint256"
        },
        {
          "internalType": "bytes",
          "name": "_data",
          "type": "bytes"
        }
      ],
      "name": "safeTransferFrom",
      "outputs": [],
      "stateMutability": "nonpayable",
      "type": "function"
    },
    {
      "inputs": [
        {
          "internalType": "address",
          "name": "operator",
          "type": "address"
        },
        {
          "internalType": "bool",
          "name": "approved",
          "type": "bool"
        }
      ],
      "name": "setApprovalForAll",
      "outputs": [],
      "stateMutability": "nonpayable",
      "type": "function"
    },
    {
      "inputs": [
        {
          "internalType": "string",
          "name": "_uri",
          "type": "string"
        },
        {
          "internalType": "bool",
          "name": "_ratioProtocol",
          "type": "bool"
        },
        {
          "internalType": "address",
          "name": "_protocolAddress",
          "type": "address"
        }
      ],
      "name": "setBaseURI",
      "outputs": [],
      "stateMutability": "payable",
      "type": "function"
    },
    {
      "inputs": [
        {
          "internalType": "string",
          "name": "_image",
          "type": "string"
        },
        {
          "internalType": "string",
          "name": "_audio",
          "type": "string"
        },
        {
          "internalType": "string",
          "name": "_video",
          "type": "string"
        },
        {
          "internalType": "string",
          "name": "_model",
          "type": "string"
        }
      ],
      "name": "setSubURIs",
      "outputs": [],
      "stateMutability": "nonpayable",
      "type": "function"
    },
    {
      "inputs": [
        {
          "internalType": "bytes4",
          "name": "interfaceId",
          "type": "bytes4"
        }
      ],
      "name": "supportsInterface",
      "outputs": [
        {
          "internalType": "bool",
          "name": "",
          "type": "bool"
        }
      ],
      "stateMutability": "view",
      "type": "function"
    },
    {
      "inputs": [],
      "name": "symbol",
      "outputs": [
        {
          "internalType": "string",
          "name": "",
          "type": "string"
        }
      ],
      "stateMutability": "view",
      "type": "function"
    },
    {
      "inputs": [
        {
          "internalType": "uint256",
          "name": "index",
          "type": "uint256"
        }
      ],
      "name": "tokenByIndex",
      "outputs": [
        {
          "internalType": "uint256",
          "name": "",
          "type": "uint256"
        }
      ],
      "stateMutability": "view",
      "type": "function"
    },
    {
      "inputs": [
        {
          "internalType": "address",
          "name": "owner",
          "type": "address"
        },
        {
          "internalType": "uint256",
          "name": "index",
          "type": "uint256"
        }
      ],
      "name": "tokenOfOwnerByIndex",
      "outputs": [
        {
          "internalType": "uint256",
          "name": "",
          "type": "uint256"
        }
      ],
      "stateMutability": "view",
      "type": "function"
    },
    {
      "inputs": [
        {
          "internalType": "uint256",
          "name": "tokenId",
          "type": "uint256"
        }
      ],
      "name": "tokenURI",
      "outputs": [
        {
          "internalType": "string",
          "name": "",
          "type": "string"
        }
      ],
      "stateMutability": "view",
      "type": "function"
    },
    {
      "inputs": [],
      "name": "totalSupply",
      "outputs": [
        {
          "internalType": "uint256",
          "name": "",
          "type": "uint256"
        }
      ],
      "stateMutability": "view",
      "type": "function"
    },
    {
      "inputs": [
        {
          "internalType": "address",
          "name": "from",
          "type": "address"
        },
        {
          "internalType": "address",
          "name": "to",
          "type": "address"
        },
        {
          "internalType": "uint256",
          "name": "tokenId",
          "type": "uint256"
        }
      ],
      "name": "transferFrom",
      "outputs": [],
      "stateMutability": "nonpayable",
      "type": "function"
    },
    {
      "inputs": [
        {
          "internalType": "address",
          "name": "newOwner",
          "type": "address"
        }
      ],
      "name": "transferOwnership",
      "outputs": [],
      "stateMutability": "nonpayable",
      "type": "function"
    },
    {
      "inputs": [],
      "name": "video",
      "outputs": [
        {
          "internalType": "string",
          "name": "",
          "type": "string"
        }
      ],
      "stateMutability": "view",
      "type": "function"
    },
    {
      "inputs": [
        {
          "internalType": "address",
          "name": "_receiver",
          "type": "address"
        }
      ],
      "name": "mint",
      "outputs": [
        {
          "internalType": "uint256",
          "name": "_id",
          "type": "uint256"
        }
      ],
      "stateMutability": "payable",
      "type": "function"
    },
    {
      "inputs": [
        {
          "internalType": "uint256",
          "name": "_tokenId",
          "type": "uint256"
        }
      ],
      "name": "burn",
      "outputs": [],
      "stateMutability": "nonpayable",
      "type": "function"
    }
  ],
  "bytecode": "0x60e06040526000600f60006101000a81548160ff0219169083151502179055506000600f60016101000a81548160ff0219169083151502179055507fffffffffffffffffffffffffffffffffffffffffffffffffffffffffffffffff6013553480156200006b57600080fd5b5060405162004dec38038062004dec83398181016040528101906200009191906200033d565b8181601354600083838160009080519060200190620000b29291906200020f565b508060019080519060200190620000cb9291906200020f565b5050503373ffffffffffffffffffffffffffffffffffffffff1660808173ffffffffffffffffffffffffffffffffffffffff1660601b815250508160a081815250508060c0818152505050505050620001396200012d6200014160201b60201c565b6200014960201b60201c565b505062000546565b600033905090565b6000601160009054906101000a900473ffffffffffffffffffffffffffffffffffffffff16905081601160006101000a81548173ffffffffffffffffffffffffffffffffffffffff021916908373ffffffffffffffffffffffffffffffffffffffff1602179055508173ffffffffffffffffffffffffffffffffffffffff168173ffffffffffffffffffffffffffffffffffffffff167f8be0079c531659141344cd1fd0a4f28419497f9722a3daafe3b4186f6b6457e060405160405180910390a35050565b8280546200021d9062000457565b90600052602060002090601f0160209004810192826200024157600085556200028d565b82601f106200025c57805160ff19168380011785556200028d565b828001600101855582156200028d579182015b828111156200028c5782518255916020019190600101906200026f565b5b5090506200029c9190620002a0565b5090565b5b80821115620002bb576000816000905550600101620002a1565b5090565b6000620002d6620002d084620003eb565b620003c2565b905082815260208101848484011115620002f557620002f462000526565b5b6200030284828562000421565b509392505050565b600082601f83011262000322576200032162000521565b5b815162000334848260208601620002bf565b91505092915050565b6000806040838503121562000357576200035662000530565b5b600083015167ffffffffffffffff8111156200037857620003776200052b565b5b62000386858286016200030a565b925050602083015167ffffffffffffffff811115620003aa57620003a96200052b565b5b620003b8858286016200030a565b9150509250929050565b6000620003ce620003e1565b9050620003dc82826200048d565b919050565b6000604051905090565b600067ffffffffffffffff821115620004095762000408620004f2565b5b620004148262000535565b9050602081019050919050565b60005b838110156200044157808201518184015260208101905062000424565b8381111562000451576000848401525b50505050565b600060028204905060018216806200047057607f821691505b60208210811415620004875762000486620004c3565b5b50919050565b620004988262000535565b810181811067ffffffffffffffff82111715620004ba57620004b9620004f2565b5b80604052505050565b7f4e487b7100000000000000000000000000000000000000000000000000000000600052602260045260246000fd5b7f4e487b7100000000000000000000000000000000000000000000000000000000600052604160045260246000fd5b600080fd5b600080fd5b600080fd5b600080fd5b6000601f19601f8301169050919050565b60805160601c60a05160c051614849620005a360003960008181610c4601528181610fa4015261149d015260008181610c2501528181610f8301526119fa0152600081816115aa015281816117ac015261188e01526148496000f3fe6080604052600436106101ee5760003560e01c80636a6278421161010d578063b822fd2c116100a0578063d52b1f531161006f578063d52b1f5314610712578063d5abeb011461072e578063e985e9c514610759578063f2fde38b14610796578063f3ccaac0146107bf576101ee565b8063b822fd2c14610658578063b88d4fde14610681578063bfe10928146106aa578063c87b56dd146106d5576101ee565b806389c77dfe116100dc57806389c77dfe146105ae5780638da5cb5b146105d957806395d89b4114610604578063a22cb4651461062f576101ee565b80636a627842146104ff5780636c0360eb1461052f57806370a082311461055a578063715018a614610597576101ee565b80632b2910581161018557806342842e0e1161015457806342842e0e1461043357806342966c681461045c5780634f6ccce7146104855780636352211e146104c2576101ee565b80632b2910581461036b5780632f745c5914610399578063370158ea146103d6578063407d223614610408576101ee565b80630ad9d052116101c15780630ad9d052146102c157806311b00617146102ec57806318160ddd1461031757806323b872dd14610342576101ee565b806301ffc9a7146101f357806306fdde0314610230578063081812fc1461025b578063095ea7b314610298575b600080fd5b3480156101ff57600080fd5b5061021a60048036038101906102159190613397565b6107ea565b60405161022791906139c1565b60405180910390f35b34801561023c57600080fd5b50610245610864565b60405161025291906139dc565b60405180910390f35b34801561026757600080fd5b50610282600480360381019061027d9190613537565b6108f6565b60405161028f919061395a565b60405180910390f35b3480156102a457600080fd5b506102bf60048036038101906102ba9190613357565b61097b565b005b3480156102cd57600080fd5b506102d6610a93565b6040516102e391906139dc565b60405180910390f35b3480156102f857600080fd5b50610301610b21565b60405161030e91906139dc565b60405180910390f35b34801561032357600080fd5b5061032c610baf565b6040516103399190613cbe565b60405180910390f35b34801561034e57600080fd5b5061036960048036038101906103649190613241565b610bbc565b005b34801561037757600080fd5b50610380610c1c565b6040516103909493929190613cd9565b60405180910390f35b3480156103a557600080fd5b506103c060048036038101906103bb9190613357565b610c85565b6040516103cd9190613cbe565b60405180910390f35b3480156103e257600080fd5b506103eb610d2a565b6040516103ff989796959493929190613d25565b60405180910390f35b34801561041457600080fd5b5061041d610fd1565b60405161042a91906139dc565b60405180910390f35b34801561043f57600080fd5b5061045a60048036038101906104559190613241565b61105f565b005b34801561046857600080fd5b50610483600480360381019061047e9190613537565b61107f565b005b34801561049157600080fd5b506104ac60048036038101906104a79190613537565b611107565b6040516104b99190613cbe565b60405180910390f35b3480156104ce57600080fd5b506104e960048036038101906104e49190613537565b611178565b6040516104f6919061395a565b60405180910390f35b610519600480360381019061051491906131d4565b61122a565b6040516105269190613cbe565b60405180910390f35b34801561053b57600080fd5b506105446112cd565b60405161055191906139dc565b60405180910390f35b34801561056657600080fd5b50610581600480360381019061057c91906131d4565b61135b565b60405161058e9190613cbe565b60405180910390f35b3480156105a357600080fd5b506105ac611413565b005b3480156105ba57600080fd5b506105c361149b565b6040516105d09190613cbe565b60405180910390f35b3480156105e557600080fd5b506105ee6114bf565b6040516105fb919061395a565b60405180910390f35b34801561061057600080fd5b506106196114e9565b60405161062691906139dc565b60405180910390f35b34801561063b57600080fd5b5061065660048036038101906106519190613317565b61157b565b005b34801561066457600080fd5b5061067f600480360381019061067a9190613460565b611591565b005b34801561068d57600080fd5b506106a860048036038101906106a39190613294565b611748565b005b3480156106b657600080fd5b506106bf6117aa565b6040516106cc919061395a565b60405180910390f35b3480156106e157600080fd5b506106fc60048036038101906106f79190613537565b6117ce565b60405161070991906139dc565b60405180910390f35b61072c600480360381019061072791906133f1565b611875565b005b34801561073a57600080fd5b506107436119f8565b6040516107509190613cbe565b60405180910390f35b34801561076557600080fd5b50610780600480360381019061077b9190613201565b611a1c565b60405161078d91906139c1565b60405180910390f35b3480156107a257600080fd5b506107bd60048036038101906107b891906131d4565b611ab0565b005b3480156107cb57600080fd5b506107d4611ba8565b6040516107e191906139dc565b60405180910390f35b60007f780e9d63000000000000000000000000000000000000000000000000000000007bffffffffffffffffffffffffffffffffffffffffffffffffffffffff1916827bffffffffffffffffffffffffffffffffffffffffffffffffffffffff1916148061085d575061085c82611c36565b5b9050919050565b60606000805461087390614001565b80601f016020809104026020016040519081016040528092919081815260200182805461089f90614001565b80156108ec5780601f106108c1576101008083540402835291602001916108ec565b820191906000526020600020905b8154815290600101906020018083116108cf57829003601f168201915b5050505050905090565b600061090182611d18565b610940576040517f08c379a000000000000000000000000000000000000000000000000000000000815260040161093790613bbe565b60405180910390fd5b6004600083815260200190815260200160002060009054906101000a900473ffffffffffffffffffffffffffffffffffffffff169050919050565b600061098682611178565b90508073ffffffffffffffffffffffffffffffffffffffff168373ffffffffffffffffffffffffffffffffffffffff1614156109f7576040517f08c379a00000000000000000000000000000000000000000000000000000000081526004016109ee90613c1e565b60405180910390fd5b8073ffffffffffffffffffffffffffffffffffffffff16610a16611d84565b73ffffffffffffffffffffffffffffffffffffffff161480610a455750610a4481610a3f611d84565b611a1c565b5b610a84576040517f08c379a0000000000000000000000000000000000000000000000000000000008152600401610a7b90613b3e565b60405180910390fd5b610a8e8383611d8c565b505050565b600e8054610aa090614001565b80601f0160208091040260200160405190810160405280929190818152602001828054610acc90614001565b8015610b195780601f10610aee57610100808354040283529160200191610b19565b820191906000526020600020905b815481529060010190602001808311610afc57829003601f168201915b505050505081565b600d8054610b2e90614001565b80601f0160208091040260200160405190810160405280929190818152602001828054610b5a90614001565b8015610ba75780601f10610b7c57610100808354040283529160200191610ba7565b820191906000526020600020905b815481529060010190602001808311610b8a57829003601f168201915b505050505081565b6000600880549050905090565b610bcd610bc7611d84565b82611e45565b610c0c576040517f08c379a0000000000000000000000000000000000000000000000000000000008152600401610c0390613c3e565b60405180910390fd5b610c17838383611f23565b505050565b600080600060607f00000000000000000000000000000000000000000000000000000000000000007f0000000000000000000000000000000000000000000000000000000000000000610c6f601061218a565b610c77610864565b935093509350935090919293565b6000610c908361135b565b8210610cd1576040517f08c379a0000000000000000000000000000000000000000000000000000000008152600401610cc890613a1e565b60405180910390fd5b600660008473ffffffffffffffffffffffffffffffffffffffff1673ffffffffffffffffffffffffffffffffffffffff168152602001908152602001600020600083815260200190815260200160002054905092915050565b60008060006060806060806060610d41601061218a565b9550610d4b610864565b9450600b8054610d5a90614001565b80601f0160208091040260200160405190810160405280929190818152602001828054610d8690614001565b8015610dd35780601f10610da857610100808354040283529160200191610dd3565b820191906000526020600020905b815481529060010190602001808311610db657829003601f168201915b50505050509350600c8054610de790614001565b80601f0160208091040260200160405190810160405280929190818152602001828054610e1390614001565b8015610e605780601f10610e3557610100808354040283529160200191610e60565b820191906000526020600020905b815481529060010190602001808311610e4357829003601f168201915b50505050509250600d8054610e7490614001565b80601f0160208091040260200160405190810160405280929190818152602001828054610ea090614001565b8015610eed5780601f10610ec257610100808354040283529160200191610eed565b820191906000526020600020905b815481529060010190602001808311610ed057829003601f168201915b50505050509150600e8054610f0190614001565b80601f0160208091040260200160405190810160405280929190818152602001828054610f2d90614001565b8015610f7a5780601f10610f4f57610100808354040283529160200191610f7a565b820191906000526020600020905b815481529060010190602001808311610f5d57829003601f168201915b505050505090507f00000000000000000000000000000000000000000000000000000000000000007f0000000000000000000000000000000000000000000000000000000000000000975097509091929394959697565b600c8054610fde90614001565b80601f016020809104026020016040519081016040528092919081815260200182805461100a90614001565b80156110575780601f1061102c57610100808354040283529160200191611057565b820191906000526020600020905b81548152906001019060200180831161103a57829003601f168201915b505050505081565b61107a83838360405180602001604052806000815250611748565b505050565b611087611d84565b73ffffffffffffffffffffffffffffffffffffffff166110a56114bf565b73ffffffffffffffffffffffffffffffffffffffff16146110fb576040517f08c379a00000000000000000000000000000000000000000000000000000000081526004016110f290613bde565b60405180910390fd5b61110481612198565b50565b6000611111610baf565b8210611152576040517f08c379a000000000000000000000000000000000000000000000000000000000815260040161114990613c5e565b60405180910390fd5b600882815481106111665761116561419a565b5b90600052602060002001549050919050565b6000806002600084815260200190815260200160002060009054906101000a900473ffffffffffffffffffffffffffffffffffffffff169050600073ffffffffffffffffffffffffffffffffffffffff168173ffffffffffffffffffffffffffffffffffffffff161415611221576040517f08c379a000000000000000000000000000000000000000000000000000000000815260040161121890613b7e565b60405180910390fd5b80915050919050565b6000611234611d84565b73ffffffffffffffffffffffffffffffffffffffff166112526114bf565b73ffffffffffffffffffffffffffffffffffffffff16146112a8576040517f08c379a000000000000000000000000000000000000000000000000000000000815260040161129f90613bde565b60405180910390fd5b6112b260126122b5565b6112bc601261218a565b90506112c882826122cb565b919050565b600a80546112da90614001565b80601f016020809104026020016040519081016040528092919081815260200182805461130690614001565b80156113535780601f1061132857610100808354040283529160200191611353565b820191906000526020600020905b81548152906001019060200180831161133657829003601f168201915b505050505081565b60008073ffffffffffffffffffffffffffffffffffffffff168273ffffffffffffffffffffffffffffffffffffffff1614156113cc576040517f08c379a00000000000000000000000000000000000000000000000000000000081526004016113c390613b5e565b60405180910390fd5b600360008373ffffffffffffffffffffffffffffffffffffffff1673ffffffffffffffffffffffffffffffffffffffff168152602001908152602001600020549050919050565b61141b611d84565b73ffffffffffffffffffffffffffffffffffffffff166114396114bf565b73ffffffffffffffffffffffffffffffffffffffff161461148f576040517f08c379a000000000000000000000000000000000000000000000000000000000815260040161148690613bde565b60405180910390fd5b61149960006122e9565b565b7f000000000000000000000000000000000000000000000000000000000000000081565b6000601160009054906101000a900473ffffffffffffffffffffffffffffffffffffffff16905090565b6060600180546114f890614001565b80601f016020809104026020016040519081016040528092919081815260200182805461152490614001565b80156115715780601f1061154657610100808354040283529160200191611571565b820191906000526020600020905b81548152906001019060200180831161155457829003601f168201915b5050505050905090565b61158d611586611d84565b83836123af565b5050565b3373ffffffffffffffffffffffffffffffffffffffff167f000000000000000000000000000000000000000000000000000000000000000073ffffffffffffffffffffffffffffffffffffffff161461161f576040517f08c379a000000000000000000000000000000000000000000000000000000000815260040161161690613c9e565b60405180910390fd5b60011515600f60009054906101000a900460ff16151514611675576040517f08c379a000000000000000000000000000000000000000000000000000000000815260040161166c90613afe565b60405180910390fd5b60001515600f60019054906101000a900460ff161515146116cb576040517f08c379a00000000000000000000000000000000000000000000000000000000081526004016116c2906139fe565b60405180910390fd5b83600b90805190602001906116e1929190612fe8565b5082600c90805190602001906116f8929190612fe8565b5081600d908051906020019061170f929190612fe8565b5080600e9080519060200190611726929190612fe8565b506001600f60016101000a81548160ff02191690831515021790555050505050565b611759611753611d84565b83611e45565b611798576040517f08c379a000000000000000000000000000000000000000000000000000000000815260040161178f90613c3e565b60405180910390fd5b6117a48484848461251c565b50505050565b7f000000000000000000000000000000000000000000000000000000000000000081565b60606117d982611d18565b611818576040517f08c379a000000000000000000000000000000000000000000000000000000000815260040161180f90613bfe565b60405180910390fd5b6000611822612578565b90506000815111611842576040518060200160405280600081525061186d565b8061184c8461260a565b60405160200161185d929190613936565b6040516020818303038152906040525b915050919050565b3373ffffffffffffffffffffffffffffffffffffffff167f000000000000000000000000000000000000000000000000000000000000000073ffffffffffffffffffffffffffffffffffffffff1614611903576040517f08c379a00000000000000000000000000000000000000000000000000000000081526004016118fa90613c9e565b60405180910390fd5b60001515600f60009054906101000a900460ff16151514611959576040517f08c379a000000000000000000000000000000000000000000000000000000000815260040161195090613c7e565b60405180910390fd5b82600a908051906020019061196f929190612fe8565b5081156119d8578073ffffffffffffffffffffffffffffffffffffffff166307ec3039346040518263ffffffff1660e01b81526004016000604051808303818588803b1580156119be57600080fd5b505af11580156119d2573d6000803e3d6000fd5b50505050505b6001600f60006101000a81548160ff021916908315150217905550505050565b7f000000000000000000000000000000000000000000000000000000000000000081565b6000600560008473ffffffffffffffffffffffffffffffffffffffff1673ffffffffffffffffffffffffffffffffffffffff16815260200190815260200160002060008373ffffffffffffffffffffffffffffffffffffffff1673ffffffffffffffffffffffffffffffffffffffff16815260200190815260200160002060009054906101000a900460ff16905092915050565b611ab8611d84565b73ffffffffffffffffffffffffffffffffffffffff16611ad66114bf565b73ffffffffffffffffffffffffffffffffffffffff1614611b2c576040517f08c379a0000000000000000000000000000000000000000000000000000000008152600401611b2390613bde565b60405180910390fd5b600073ffffffffffffffffffffffffffffffffffffffff168173ffffffffffffffffffffffffffffffffffffffff161415611b9c576040517f08c379a0000000000000000000000000000000000000000000000000000000008152600401611b9390613a5e565b60405180910390fd5b611ba5816122e9565b50565b600b8054611bb590614001565b80601f0160208091040260200160405190810160405280929190818152602001828054611be190614001565b8015611c2e5780601f10611c0357610100808354040283529160200191611c2e565b820191906000526020600020905b815481529060010190602001808311611c1157829003601f168201915b505050505081565b60007f80ac58cd000000000000000000000000000000000000000000000000000000007bffffffffffffffffffffffffffffffffffffffffffffffffffffffff1916827bffffffffffffffffffffffffffffffffffffffffffffffffffffffff19161480611d0157507f5b5e139f000000000000000000000000000000000000000000000000000000007bffffffffffffffffffffffffffffffffffffffffffffffffffffffff1916827bffffffffffffffffffffffffffffffffffffffffffffffffffffffff1916145b80611d115750611d108261276b565b5b9050919050565b60008073ffffffffffffffffffffffffffffffffffffffff166002600084815260200190815260200160002060009054906101000a900473ffffffffffffffffffffffffffffffffffffffff1673ffffffffffffffffffffffffffffffffffffffff1614159050919050565b600033905090565b816004600083815260200190815260200160002060006101000a81548173ffffffffffffffffffffffffffffffffffffffff021916908373ffffffffffffffffffffffffffffffffffffffff160217905550808273ffffffffffffffffffffffffffffffffffffffff16611dff83611178565b73ffffffffffffffffffffffffffffffffffffffff167f8c5be1e5ebec7d5bd14f71427d1e84f3dd0314c0f7b2291e5b200ac8c7c3b92560405160405180910390a45050565b6000611e5082611d18565b611e8f576040517f08c379a0000000000000000000000000000000000000000000000000000000008152600401611e8690613b1e565b60405180910390fd5b6000611e9a83611178565b90508073ffffffffffffffffffffffffffffffffffffffff168473ffffffffffffffffffffffffffffffffffffffff161480611f0957508373ffffffffffffffffffffffffffffffffffffffff16611ef1846108f6565b73ffffffffffffffffffffffffffffffffffffffff16145b80611f1a5750611f198185611a1c565b5b91505092915050565b8273ffffffffffffffffffffffffffffffffffffffff16611f4382611178565b73ffffffffffffffffffffffffffffffffffffffff1614611f99576040517f08c379a0000000000000000000000000000000000000000000000000000000008152600401611f9090613a7e565b60405180910390fd5b600073ffffffffffffffffffffffffffffffffffffffff168273ffffffffffffffffffffffffffffffffffffffff161415612009576040517f08c379a000000000000000000000000000000000000000000000000000000000815260040161200090613abe565b60405180910390fd5b6120148383836127d5565b61201f600082611d8c565b6001600360008573ffffffffffffffffffffffffffffffffffffffff1673ffffffffffffffffffffffffffffffffffffffff168152602001908152602001600020600082825461206f9190613f17565b925050819055506001600360008473ffffffffffffffffffffffffffffffffffffffff1673ffffffffffffffffffffffffffffffffffffffff16815260200190815260200160002060008282546120c69190613e90565b92505081905550816002600083815260200190815260200160002060006101000a81548173ffffffffffffffffffffffffffffffffffffffff021916908373ffffffffffffffffffffffffffffffffffffffff160217905550808273ffffffffffffffffffffffffffffffffffffffff168473ffffffffffffffffffffffffffffffffffffffff167fddf252ad1be2c89b69c2b068fc378daa952ba7f163c4a11628f55a4df523b3ef60405160405180910390a46121858383836128e9565b505050565b600081600001549050919050565b60006121a382611178565b90506121b1816000846127d5565b6121bc600083611d8c565b6001600360008373ffffffffffffffffffffffffffffffffffffffff1673ffffffffffffffffffffffffffffffffffffffff168152602001908152602001600020600082825461220c9190613f17565b925050819055506002600083815260200190815260200160002060006101000a81549073ffffffffffffffffffffffffffffffffffffffff021916905581600073ffffffffffffffffffffffffffffffffffffffff168273ffffffffffffffffffffffffffffffffffffffff167fddf252ad1be2c89b69c2b068fc378daa952ba7f163c4a11628f55a4df523b3ef60405160405180910390a46122b1816000846128e9565b5050565b6001816000016000828254019250508190555050565b6122e58282604051806020016040528060008152506128ee565b5050565b6000601160009054906101000a900473ffffffffffffffffffffffffffffffffffffffff16905081601160006101000a81548173ffffffffffffffffffffffffffffffffffffffff021916908373ffffffffffffffffffffffffffffffffffffffff1602179055508173ffffffffffffffffffffffffffffffffffffffff168173ffffffffffffffffffffffffffffffffffffffff167f8be0079c531659141344cd1fd0a4f28419497f9722a3daafe3b4186f6b6457e060405160405180910390a35050565b8173ffffffffffffffffffffffffffffffffffffffff168373ffffffffffffffffffffffffffffffffffffffff16141561241e576040517f08c379a000000000000000000000000000000000000000000000000000000000815260040161241590613ade565b60405180910390fd5b80600560008573ffffffffffffffffffffffffffffffffffffffff1673ffffffffffffffffffffffffffffffffffffffff16815260200190815260200160002060008473ffffffffffffffffffffffffffffffffffffffff1673ffffffffffffffffffffffffffffffffffffffff16815260200190815260200160002060006101000a81548160ff0219169083151502179055508173ffffffffffffffffffffffffffffffffffffffff168373ffffffffffffffffffffffffffffffffffffffff167f17307eab39ab6107e8899845ad3d59bd9653f200f220920489ca2b5937696c318360405161250f91906139c1565b60405180910390a3505050565b612527848484611f23565b61253384848484612949565b612572576040517f08c379a000000000000000000000000000000000000000000000000000000000815260040161256990613a3e565b60405180910390fd5b50505050565b6060600a805461258790614001565b80601f01602080910402602001604051908101604052809291908181526020018280546125b390614001565b80156126005780601f106125d557610100808354040283529160200191612600565b820191906000526020600020905b8154815290600101906020018083116125e357829003601f168201915b5050505050905090565b60606000821415612652576040518060400160405280600181526020017f30000000000000000000000000000000000000000000000000000000000000008152509050612766565b600082905060005b6000821461268457808061266d90614064565b915050600a8261267d9190613ee6565b915061265a565b60008167ffffffffffffffff8111156126a05761269f6141c9565b5b6040519080825280601f01601f1916602001820160405280156126d25781602001600182028036833780820191505090505b5090505b6000851461275f576001826126eb9190613f17565b9150600a856126fa91906140ad565b60306127069190613e90565b60f81b81838151811061271c5761271b61419a565b5b60200101907effffffffffffffffffffffffffffffffffffffffffffffffffffffffffffff1916908160001a905350600a856127589190613ee6565b94506126d6565b8093505050505b919050565b60007f01ffc9a7000000000000000000000000000000000000000000000000000000007bffffffffffffffffffffffffffffffffffffffffffffffffffffffff1916827bffffffffffffffffffffffffffffffffffffffffffffffffffffffff1916149050919050565b6127e0838383612ae0565b600073ffffffffffffffffffffffffffffffffffffffff168373ffffffffffffffffffffffffffffffffffffffff1614156128235761281e81612ae5565b612862565b8173ffffffffffffffffffffffffffffffffffffffff168373ffffffffffffffffffffffffffffffffffffffff1614612861576128608382612b2e565b5b5b600073ffffffffffffffffffffffffffffffffffffffff168273ffffffffffffffffffffffffffffffffffffffff1614156128a5576128a081612c9b565b6128e4565b8273ffffffffffffffffffffffffffffffffffffffff168273ffffffffffffffffffffffffffffffffffffffff16146128e3576128e28282612d6c565b5b5b505050565b505050565b6128f88383612deb565b6129056000848484612949565b612944576040517f08c379a000000000000000000000000000000000000000000000000000000000815260040161293b90613a3e565b60405180910390fd5b505050565b600061296a8473ffffffffffffffffffffffffffffffffffffffff16612fc5565b15612ad3578373ffffffffffffffffffffffffffffffffffffffff1663150b7a02612993611d84565b8786866040518563ffffffff1660e01b81526004016129b59493929190613975565b602060405180830381600087803b1580156129cf57600080fd5b505af1925050508015612a0057506040513d601f19601f820116820180604052508101906129fd91906133c4565b60015b612a83573d8060008114612a30576040519150601f19603f3d011682016040523d82523d6000602084013e612a35565b606091505b50600081511415612a7b576040517f08c379a0000000000000000000000000000000000000000000000000000000008152600401612a7290613a3e565b60405180910390fd5b805181602001fd5b63150b7a0260e01b7bffffffffffffffffffffffffffffffffffffffffffffffffffffffff1916817bffffffffffffffffffffffffffffffffffffffffffffffffffffffff191614915050612ad8565b600190505b949350505050565b505050565b6008805490506009600083815260200190815260200160002081905550600881908060018154018082558091505060019003906000526020600020016000909190919091505550565b60006001612b3b8461135b565b612b459190613f17565b9050600060076000848152602001908152602001600020549050818114612c2a576000600660008673ffffffffffffffffffffffffffffffffffffffff1673ffffffffffffffffffffffffffffffffffffffff168152602001908152602001600020600084815260200190815260200160002054905080600660008773ffffffffffffffffffffffffffffffffffffffff1673ffffffffffffffffffffffffffffffffffffffff168152602001908152602001600020600084815260200190815260200160002081905550816007600083815260200190815260200160002081905550505b6007600084815260200190815260200160002060009055600660008573ffffffffffffffffffffffffffffffffffffffff1673ffffffffffffffffffffffffffffffffffffffff16815260200190815260200160002060008381526020019081526020016000206000905550505050565b60006001600880549050612caf9190613f17565b9050600060096000848152602001908152602001600020549050600060088381548110612cdf57612cde61419a565b5b906000526020600020015490508060088381548110612d0157612d0061419a565b5b906000526020600020018190555081600960008381526020019081526020016000208190555060096000858152602001908152602001600020600090556008805480612d5057612d4f61416b565b5b6001900381819060005260206000200160009055905550505050565b6000612d778361135b565b905081600660008573ffffffffffffffffffffffffffffffffffffffff1673ffffffffffffffffffffffffffffffffffffffff168152602001908152602001600020600083815260200190815260200160002081905550806007600084815260200190815260200160002081905550505050565b600073ffffffffffffffffffffffffffffffffffffffff168273ffffffffffffffffffffffffffffffffffffffff161415612e5b576040517f08c379a0000000000000000000000000000000000000000000000000000000008152600401612e5290613b9e565b60405180910390fd5b612e6481611d18565b15612ea4576040517f08c379a0000000000000000000000000000000000000000000000000000000008152600401612e9b90613a9e565b60405180910390fd5b612eb0600083836127d5565b6001600360008473ffffffffffffffffffffffffffffffffffffffff1673ffffffffffffffffffffffffffffffffffffffff1681526020019081526020016000206000828254612f009190613e90565b92505081905550816002600083815260200190815260200160002060006101000a81548173ffffffffffffffffffffffffffffffffffffffff021916908373ffffffffffffffffffffffffffffffffffffffff160217905550808273ffffffffffffffffffffffffffffffffffffffff16600073ffffffffffffffffffffffffffffffffffffffff167fddf252ad1be2c89b69c2b068fc378daa952ba7f163c4a11628f55a4df523b3ef60405160405180910390a4612fc1600083836128e9565b5050565b6000808273ffffffffffffffffffffffffffffffffffffffff163b119050919050565b828054612ff490614001565b90600052602060002090601f016020900481019282613016576000855561305d565b82601f1061302f57805160ff191683800117855561305d565b8280016001018555821561305d579182015b8281111561305c578251825591602001919060010190613041565b5b50905061306a919061306e565b5090565b5b8082111561308757600081600090555060010161306f565b5090565b600061309e61309984613deb565b613dc6565b9050828152602081018484840111156130ba576130b96141fd565b5b6130c5848285613fbf565b509392505050565b60006130e06130db84613e1c565b613dc6565b9050828152602081018484840111156130fc576130fb6141fd565b5b613107848285613fbf565b509392505050565b60008135905061311e816147b7565b92915050565b600081359050613133816147ce565b92915050565b600081359050613148816147e5565b92915050565b60008151905061315d816147e5565b92915050565b600082601f830112613178576131776141f8565b5b813561318884826020860161308b565b91505092915050565b600082601f8301126131a6576131a56141f8565b5b81356131b68482602086016130cd565b91505092915050565b6000813590506131ce816147fc565b92915050565b6000602082840312156131ea576131e9614207565b5b60006131f88482850161310f565b91505092915050565b6000806040838503121561321857613217614207565b5b60006132268582860161310f565b92505060206132378582860161310f565b9150509250929050565b60008060006060848603121561325a57613259614207565b5b60006132688682870161310f565b93505060206132798682870161310f565b925050604061328a868287016131bf565b9150509250925092565b600080600080608085870312156132ae576132ad614207565b5b60006132bc8782880161310f565b94505060206132cd8782880161310f565b93505060406132de878288016131bf565b925050606085013567ffffffffffffffff8111156132ff576132fe614202565b5b61330b87828801613163565b91505092959194509250565b6000806040838503121561332e5761332d614207565b5b600061333c8582860161310f565b925050602061334d85828601613124565b9150509250929050565b6000806040838503121561336e5761336d614207565b5b600061337c8582860161310f565b925050602061338d858286016131bf565b9150509250929050565b6000602082840312156133ad576133ac614207565b5b60006133bb84828501613139565b91505092915050565b6000602082840312156133da576133d9614207565b5b60006133e88482850161314e565b91505092915050565b60008060006060848603121561340a57613409614207565b5b600084013567ffffffffffffffff81111561342857613427614202565b5b61343486828701613191565b935050602061344586828701613124565b92505060406134568682870161310f565b9150509250925092565b6000806000806080858703121561347a57613479614207565b5b600085013567ffffffffffffffff81111561349857613497614202565b5b6134a487828801613191565b945050602085013567ffffffffffffffff8111156134c5576134c4614202565b5b6134d187828801613191565b935050604085013567ffffffffffffffff8111156134f2576134f1614202565b5b6134fe87828801613191565b925050606085013567ffffffffffffffff81111561351f5761351e614202565b5b61352b87828801613191565b91505092959194509250565b60006020828403121561354d5761354c614207565b5b600061355b848285016131bf565b91505092915050565b61356d81613f4b565b82525050565b61357c81613f5d565b82525050565b600061358d82613e4d565b6135978185613e63565b93506135a7818560208601613fce565b6135b08161420c565b840191505092915050565b60006135c682613e58565b6135d08185613e74565b93506135e0818560208601613fce565b6135e98161420c565b840191505092915050565b60006135ff82613e58565b6136098185613e85565b9350613619818560208601613fce565b80840191505092915050565b6000613632601f83613e74565b915061363d8261421d565b602082019050919050565b6000613655602b83613e74565b915061366082614246565b604082019050919050565b6000613678603283613e74565b915061368382614295565b604082019050919050565b600061369b602683613e74565b91506136a6826142e4565b604082019050919050565b60006136be602583613e74565b91506136c982614333565b604082019050919050565b60006136e1601c83613e74565b91506136ec82614382565b602082019050919050565b6000613704602483613e74565b915061370f826143ab565b604082019050919050565b6000613727601983613e74565b9150613732826143fa565b602082019050919050565b600061374a601a83613e74565b915061375582614423565b602082019050919050565b600061376d602c83613e74565b91506137788261444c565b604082019050919050565b6000613790603883613e74565b915061379b8261449b565b604082019050919050565b60006137b3602a83613e74565b91506137be826144ea565b604082019050919050565b60006137d6602983613e74565b91506137e182614539565b604082019050919050565b60006137f9602083613e74565b915061380482614588565b602082019050919050565b600061381c602c83613e74565b9150613827826145b1565b604082019050919050565b600061383f602083613e74565b915061384a82614600565b602082019050919050565b6000613862602f83613e74565b915061386d82614629565b604082019050919050565b6000613885602183613e74565b915061389082614678565b604082019050919050565b60006138a8603183613e74565b91506138b3826146c7565b604082019050919050565b60006138cb602c83613e74565b91506138d682614716565b604082019050919050565b60006138ee601e83613e74565b91506138f982614765565b602082019050919050565b6000613911601c83613e74565b915061391c8261478e565b602082019050919050565b61393081613fb5565b82525050565b600061394282856135f4565b915061394e82846135f4565b91508190509392505050565b600060208201905061396f6000830184613564565b92915050565b600060808201905061398a6000830187613564565b6139976020830186613564565b6139a46040830185613927565b81810360608301526139b68184613582565b905095945050505050565b60006020820190506139d66000830184613573565b92915050565b600060208201905081810360008301526139f681846135bb565b905092915050565b60006020820190508181036000830152613a1781613625565b9050919050565b60006020820190508181036000830152613a3781613648565b9050919050565b60006020820190508181036000830152613a578161366b565b9050919050565b60006020820190508181036000830152613a778161368e565b9050919050565b60006020820190508181036000830152613a97816136b1565b9050919050565b60006020820190508181036000830152613ab7816136d4565b9050919050565b60006020820190508181036000830152613ad7816136f7565b9050919050565b60006020820190508181036000830152613af78161371a565b9050919050565b60006020820190508181036000830152613b178161373d565b9050919050565b60006020820190508181036000830152613b3781613760565b9050919050565b60006020820190508181036000830152613b5781613783565b9050919050565b60006020820190508181036000830152613b77816137a6565b9050919050565b60006020820190508181036000830152613b97816137c9565b9050919050565b60006020820190508181036000830152613bb7816137ec565b9050919050565b60006020820190508181036000830152613bd78161380f565b9050919050565b60006020820190508181036000830152613bf781613832565b9050919050565b60006020820190508181036000830152613c1781613855565b9050919050565b60006020820190508181036000830152613c3781613878565b9050919050565b60006020820190508181036000830152613c578161389b565b9050919050565b60006020820190508181036000830152613c77816138be565b9050919050565b60006020820190508181036000830152613c97816138e1565b9050919050565b60006020820190508181036000830152613cb781613904565b9050919050565b6000602082019050613cd36000830184613927565b92915050565b6000608082019050613cee6000830187613927565b613cfb6020830186613927565b613d086040830185613927565b8181036060830152613d1a81846135bb565b905095945050505050565b600061010082019050613d3b600083018b613927565b613d48602083018a613927565b613d556040830189613927565b8181036060830152613d6781886135bb565b90508181036080830152613d7b81876135bb565b905081810360a0830152613d8f81866135bb565b905081810360c0830152613da381856135bb565b905081810360e0830152613db781846135bb565b90509998505050505050505050565b6000613dd0613de1565b9050613ddc8282614033565b919050565b6000604051905090565b600067ffffffffffffffff821115613e0657613e056141c9565b5b613e0f8261420c565b9050602081019050919050565b600067ffffffffffffffff821115613e3757613e366141c9565b5b613e408261420c565b9050602081019050919050565b600081519050919050565b600081519050919050565b600082825260208201905092915050565b600082825260208201905092915050565b600081905092915050565b6000613e9b82613fb5565b9150613ea683613fb5565b9250827fffffffffffffffffffffffffffffffffffffffffffffffffffffffffffffffff03821115613edb57613eda6140de565b5b828201905092915050565b6000613ef182613fb5565b9150613efc83613fb5565b925082613f0c57613f0b61410d565b5b828204905092915050565b6000613f2282613fb5565b9150613f2d83613fb5565b925082821015613f4057613f3f6140de565b5b828203905092915050565b6000613f5682613f95565b9050919050565b60008115159050919050565b60007fffffffff0000000000000000000000000000000000000000000000000000000082169050919050565b600073ffffffffffffffffffffffffffffffffffffffff82169050919050565b6000819050919050565b82818337600083830152505050565b60005b83811015613fec578082015181840152602081019050613fd1565b83811115613ffb576000848401525b50505050565b6000600282049050600182168061401957607f821691505b6020821081141561402d5761402c61413c565b5b50919050565b61403c8261420c565b810181811067ffffffffffffffff8211171561405b5761405a6141c9565b5b80604052505050565b600061406f82613fb5565b91507fffffffffffffffffffffffffffffffffffffffffffffffffffffffffffffffff8214156140a2576140a16140de565b5b600182019050919050565b60006140b882613fb5565b91506140c383613fb5565b9250826140d3576140d261410d565b5b828206905092915050565b7f4e487b7100000000000000000000000000000000000000000000000000000000600052601160045260246000fd5b7f4e487b7100000000000000000000000000000000000000000000000000000000600052601260045260246000fd5b7f4e487b7100000000000000000000000000000000000000000000000000000000600052602260045260246000fd5b7f4e487b7100000000000000000000000000000000000000000000000000000000600052603160045260246000fd5b7f4e487b7100000000000000000000000000000000000000000000000000000000600052603260045260246000fd5b7f4e487b7100000000000000000000000000000000000000000000000000000000600052604160045260246000fd5b600080fd5b600080fd5b600080fd5b600080fd5b6000601f19601f8301169050919050565b7f5375622055524973206861766520616c7265616479206265656e207365742e00600082015250565b7f455243373231456e756d657261626c653a206f776e657220696e646578206f7560008201527f74206f6620626f756e6473000000000000000000000000000000000000000000602082015250565b7f4552433732313a207472616e7366657220746f206e6f6e20455243373231526560008201527f63656976657220696d706c656d656e7465720000000000000000000000000000602082015250565b7f4f776e61626c653a206e6577206f776e657220697320746865207a65726f206160008201527f6464726573730000000000000000000000000000000000000000000000000000602082015250565b7f4552433732313a207472616e736665722066726f6d20696e636f72726563742060008201527f6f776e6572000000000000000000000000000000000000000000000000000000602082015250565b7f4552433732313a20746f6b656e20616c7265616479206d696e74656400000000600082015250565b7f4552433732313a207472616e7366657220746f20746865207a65726f2061646460008201527f7265737300000000000000000000000000000000000000000000000000000000602082015250565b7f4552433732313a20617070726f766520746f2063616c6c657200000000000000600082015250565b7f426173652055524920686173206e6f74206265656e207365742e000000000000600082015250565b7f4552433732313a206f70657261746f7220717565727920666f72206e6f6e657860008201527f697374656e7420746f6b656e0000000000000000000000000000000000000000602082015250565b7f4552433732313a20617070726f76652063616c6c6572206973206e6f74206f7760008201527f6e6572206e6f7220617070726f76656420666f7220616c6c0000000000000000602082015250565b7f4552433732313a2062616c616e636520717565727920666f7220746865207a6560008201527f726f206164647265737300000000000000000000000000000000000000000000602082015250565b7f4552433732313a206f776e657220717565727920666f72206e6f6e657869737460008201527f656e7420746f6b656e0000000000000000000000000000000000000000000000602082015250565b7f4552433732313a206d696e7420746f20746865207a65726f2061646472657373600082015250565b7f4552433732313a20617070726f76656420717565727920666f72206e6f6e657860008201527f697374656e7420746f6b656e0000000000000000000000000000000000000000602082015250565b7f4f776e61626c653a2063616c6c6572206973206e6f7420746865206f776e6572600082015250565b7f4552433732314d657461646174613a2055524920717565727920666f72206e6f60008201527f6e6578697374656e7420746f6b656e0000000000000000000000000000000000602082015250565b7f4552433732313a20617070726f76616c20746f2063757272656e74206f776e6560008201527f7200000000000000000000000000000000000000000000000000000000000000602082015250565b7f4552433732313a207472616e736665722063616c6c6572206973206e6f74206f60008201527f776e6572206e6f7220617070726f766564000000000000000000000000000000602082015250565b7f455243373231456e756d657261626c653a20676c6f62616c20696e646578206f60008201527f7574206f6620626f756e64730000000000000000000000000000000000000000602082015250565b7f42617365205552492068617320616c7265616479206265656e207365742e0000600082015250565b7f496e76616c6964206469737472696275746f7220616464726573732e00000000600082015250565b6147c081613f4b565b81146147cb57600080fd5b50565b6147d781613f5d565b81146147e257600080fd5b50565b6147ee81613f69565b81146147f957600080fd5b50565b61480581613fb5565b811461481057600080fd5b5056fea2646970667358221220455fed7aa7e39090a09dea1639883ab8e447d19252a2864cbe2e1b092fcb855964736f6c63430008050033",
  "immutableReferences": {
    "970": [
      {
        "length": 32,
        "start": 5546
      },
      {
        "length": 32,
        "start": 6060
      },
      {
        "length": 32,
        "start": 6286
      }
    ],
    "972": [
      {
        "length": 32,
        "start": 3109
      },
      {
        "length": 32,
        "start": 3971
      },
      {
        "length": 32,
        "start": 6650
      }
    ],
    "974": [
      {
        "length": 32,
        "start": 3142
      },
      {
        "length": 32,
        "start": 4004
      },
      {
        "length": 32,
        "start": 5277
      }
    ]
  },
  "source": "// SPDX-License-Identifier: BUSL-1.1\r\npragma solidity ^0.8.2;\r\n\r\nimport \"@openzeppelin/contracts/token/ERC721/ERC721.sol\";\r\n\r\nimport \"../Interfaces/Mintable.sol\";\r\n\r\nimport \"../../NFTProtocol/RatioSingleNFT.sol\";\r\n\r\ncontract PolyCard is RatioSingleNFT, Mintable, Ownable{\r\n\r\n    using Counters for Counters.Counter;\r\n    Counters.Counter private tokenIds;\r\n\r\n    uint256 MAX_INT = 2**256 - 1;\r\n\r\n    constructor(string memory _name, string memory _symbol )RatioSingleNFT(_name, _symbol, MAX_INT, 0){\r\n        \r\n    }\r\n\r\n    function mint(address _receiver) external override(RatioSingleNFT, Mintable) payable onlyOwner returns(uint _id){\r\n        tokenIds.increment();\r\n        _id = tokenIds.current();\r\n        _safeMint(_receiver, _id);\r\n    }\r\n\r\n    function burn(uint _tokenId) external override onlyOwner{\r\n        _burn(_tokenId);\r\n    }\r\n}",
  "sourcePath": "/home/stephenstb/Ratio/ratio/contracts/cryptoGame/NFTMints/PolyCard.sol",
  "compiler": {
    "name": "solc",
    "version": "0.8.5+commit.a4f2e591.Emscripten.clang"
  },
  "schemaVersion": "3.3.3",
  "updatedAt": "2022-05-06T21:20:38.672Z",
  "devdoc": {
    "kind": "dev",
    "methods": {
      "approve(address,uint256)": {
        "details": "See {IERC721-approve}."
      },
      "balanceOf(address)": {
        "details": "See {IERC721-balanceOf}."
      },
      "getApproved(uint256)": {
        "details": "See {IERC721-getApproved}."
      },
      "isApprovedForAll(address,address)": {
        "details": "See {IERC721-isApprovedForAll}."
      },
      "name()": {
        "details": "See {IERC721Metadata-name}."
      },
      "owner()": {
        "details": "Returns the address of the current owner."
      },
      "ownerOf(uint256)": {
        "details": "See {IERC721-ownerOf}."
      },
      "renounceOwnership()": {
        "details": "Leaves the contract without owner. It will not be possible to call `onlyOwner` functions anymore. Can only be called by the current owner. NOTE: Renouncing ownership will leave the contract without an owner, thereby removing any functionality that is only available to the owner."
      },
      "safeTransferFrom(address,address,uint256)": {
        "details": "See {IERC721-safeTransferFrom}."
      },
      "safeTransferFrom(address,address,uint256,bytes)": {
        "details": "See {IERC721-safeTransferFrom}."
      },
      "setApprovalForAll(address,bool)": {
        "details": "See {IERC721-setApprovalForAll}."
      },
      "supportsInterface(bytes4)": {
        "details": "See {IERC165-supportsInterface}."
      },
      "symbol()": {
        "details": "See {IERC721Metadata-symbol}."
      },
      "tokenByIndex(uint256)": {
        "details": "See {IERC721Enumerable-tokenByIndex}."
      },
      "tokenOfOwnerByIndex(address,uint256)": {
        "details": "See {IERC721Enumerable-tokenOfOwnerByIndex}."
      },
      "tokenURI(uint256)": {
        "details": "See {IERC721Metadata-tokenURI}."
      },
      "totalSupply()": {
        "details": "See {IERC721Enumerable-totalSupply}."
      },
      "transferFrom(address,address,uint256)": {
        "details": "See {IERC721-transferFrom}."
      },
      "transferOwnership(address)": {
        "details": "Transfers ownership of the contract to a new account (`newOwner`). Can only be called by the current owner."
      }
    },
    "version": 1
  },
  "userdoc": {
    "kind": "user",
    "methods": {},
    "version": 1
  }
}