{
  "contractName": "Profiles",
  "abi": [
    {
      "inputs": [
        {
          "internalType": "address",
          "name": "_ratio",
          "type": "address"
        }
      ],
      "stateMutability": "nonpayable",
      "type": "constructor"
    },
    {
      "inputs": [
        {
          "internalType": "address",
          "name": "",
          "type": "address"
        }
      ],
      "name": "ProfileMap",
      "outputs": [
        {
          "internalType": "contract Profile",
          "name": "",
          "type": "address"
        }
      ],
      "stateMutability": "view",
      "type": "function"
    },
    {
      "inputs": [],
      "name": "create",
      "outputs": [],
      "stateMutability": "payable",
      "type": "function"
    },
    {
      "inputs": [
        {
          "internalType": "address",
          "name": "_owner",
          "type": "address"
        }
      ],
      "name": "show",
      "outputs": [
        {
          "internalType": "address",
          "name": "_profile",
          "type": "address"
        }
      ],
      "stateMutability": "view",
      "type": "function"
    }
  ],
  "bytecode": "0x608060405234801561001057600080fd5b506040516103be3803806103be8339818101604052810190610032919061008d565b806000806101000a81548173ffffffffffffffffffffffffffffffffffffffff021916908373ffffffffffffffffffffffffffffffffffffffff16021790555050610108565b600081519050610087816100f1565b92915050565b6000602082840312156100a3576100a26100ec565b5b60006100b184828501610078565b91505092915050565b60006100c5826100cc565b9050919050565b600073ffffffffffffffffffffffffffffffffffffffff82169050919050565b600080fd5b6100fa816100ba565b811461010557600080fd5b50565b6102a7806101176000396000f3fe6080604052600436106100345760003560e01c8063287a61e4146100395780639c3a8e2e14610076578063efc81a8c146100b3575b600080fd5b34801561004557600080fd5b50610060600480360381019061005b919061017e565b6100bd565b60405161006d91906101c9565b60405180910390f35b34801561008257600080fd5b5061009d6004803603810190610098919061017e565b610126565b6040516100aa91906101e4565b60405180910390f35b6100bb610159565b005b6000600260008373ffffffffffffffffffffffffffffffffffffffff1673ffffffffffffffffffffffffffffffffffffffff16815260200190815260200160002060009054906101000a900473ffffffffffffffffffffffffffffffffffffffff169050919050565b60026020528060005260406000206000915054906101000a900473ffffffffffffffffffffffffffffffffffffffff1681565b600154341161016757600080fd5b565b6000813590506101788161025a565b92915050565b60006020828403121561019457610193610255565b5b60006101a284828501610169565b91505092915050565b6101b4816101ff565b82525050565b6101c381610231565b82525050565b60006020820190506101de60008301846101ab565b92915050565b60006020820190506101f960008301846101ba565b92915050565b600061020a82610211565b9050919050565b600073ffffffffffffffffffffffffffffffffffffffff82169050919050565b600061023c82610243565b9050919050565b600061024e82610211565b9050919050565b600080fd5b610263816101ff565b811461026e57600080fd5b5056fea2646970667358221220fea2ecc7b305c1eb97de1b0c88bd8ea6c3f18c51a9cb883b9610242676a824aa64736f6c63430008050033",
  "immutableReferences": {},
  "source": "pragma solidity ^0.8.0;\r\n\r\nimport \"../Ratio.sol\";\r\n\r\nimport \"./Profile.sol\";\r\n\r\ncontract Profiles{\r\n\r\n    // Ratio\r\n    Ratio ratio;\r\n\r\n    uint profileCost;\r\n\r\n    mapping(address => Profile) public ProfileMap;\r\n\r\n    constructor(address _ratio)\r\n    {\r\n        ratio = Ratio(_ratio);\r\n    }\r\n\r\n    function create() public payable{\r\n        require(msg.value > profileCost);\r\n\r\n    }\r\n\r\n    function show(address _owner) public view returns(address _profile){\r\n        return address(ProfileMap[_owner]);\r\n    }\r\n\r\n}",
  "sourcePath": "/home/stephenstb/Ratio/ratio/contracts/core/Profiles.sol",
  "compiler": {
    "name": "solc",
    "version": "0.8.5+commit.a4f2e591.Emscripten.clang"
  },
  "schemaVersion": "3.4.3",
  "updatedAt": "2022-03-18T21:34:02.737Z",
  "devdoc": {
    "kind": "dev",
    "methods": {},
    "version": 1
  },
  "userdoc": {
    "kind": "user",
    "methods": {},
    "version": 1
  }
}