{
  "contractName": "Profile",
  "abi": [
    {
      "inputs": [
        {
          "internalType": "address",
          "name": "_ratio",
          "type": "address"
        },
        {
          "internalType": "address",
          "name": "_owner",
          "type": "address"
        },
        {
          "internalType": "string",
          "name": "_name",
          "type": "string"
        },
        {
          "internalType": "string",
          "name": "_description",
          "type": "string"
        }
      ],
      "stateMutability": "nonpayable",
      "type": "constructor"
    },
    {
      "inputs": [],
      "name": "name",
      "outputs": [
        {
          "internalType": "string",
          "name": "",
          "type": "string"
        }
      ],
      "stateMutability": "view",
      "type": "function"
    },
    {
      "inputs": [],
      "name": "owner",
      "outputs": [
        {
          "internalType": "address",
          "name": "",
          "type": "address"
        }
      ],
      "stateMutability": "view",
      "type": "function"
    }
  ],
  "bytecode": "0x608060405234801561001057600080fd5b5060405161075138038061075183398181016040528101906100329190610212565b82600160006101000a81548173ffffffffffffffffffffffffffffffffffffffff021916908373ffffffffffffffffffffffffffffffffffffffff16021790555081600290805190602001906100899291906100ea565b5080600390805190602001906100a09291906100ea565b50836000806101000a81548173ffffffffffffffffffffffffffffffffffffffff021916908373ffffffffffffffffffffffffffffffffffffffff16021790555050505050610469565b8280546100f69061036c565b90600052602060002090601f016020900481019282610118576000855561015f565b82601f1061013157805160ff191683800117855561015f565b8280016001018555821561015f579182015b8281111561015e578251825591602001919060010190610143565b5b50905061016c9190610170565b5090565b5b80821115610189576000816000905550600101610171565b5090565b60006101a061019b846102d6565b6102b1565b9050828152602081018484840111156101bc576101bb610432565b5b6101c7848285610339565b509392505050565b6000815190506101de81610452565b92915050565b600082601f8301126101f9576101f861042d565b5b815161020984826020860161018d565b91505092915050565b6000806000806080858703121561022c5761022b61043c565b5b600061023a878288016101cf565b945050602061024b878288016101cf565b935050604085015167ffffffffffffffff81111561026c5761026b610437565b5b610278878288016101e4565b925050606085015167ffffffffffffffff81111561029957610298610437565b5b6102a5878288016101e4565b91505092959194509250565b60006102bb6102cc565b90506102c7828261039e565b919050565b6000604051905090565b600067ffffffffffffffff8211156102f1576102f06103fe565b5b6102fa82610441565b9050602081019050919050565b600061031282610319565b9050919050565b600073ffffffffffffffffffffffffffffffffffffffff82169050919050565b60005b8381101561035757808201518184015260208101905061033c565b83811115610366576000848401525b50505050565b6000600282049050600182168061038457607f821691505b60208210811415610398576103976103cf565b5b50919050565b6103a782610441565b810181811067ffffffffffffffff821117156103c6576103c56103fe565b5b80604052505050565b7f4e487b7100000000000000000000000000000000000000000000000000000000600052602260045260246000fd5b7f4e487b7100000000000000000000000000000000000000000000000000000000600052604160045260246000fd5b600080fd5b600080fd5b600080fd5b600080fd5b6000601f19601f8301169050919050565b61045b81610307565b811461046657600080fd5b50565b6102d9806104786000396000f3fe608060405234801561001057600080fd5b50600436106100365760003560e01c806306fdde031461003b5780638da5cb5b14610059575b600080fd5b610043610077565b604051610050919061018e565b60405180910390f35b610061610105565b60405161006e9190610173565b60405180910390f35b6002805461008490610231565b80601f01602080910402602001604051908101604052809291908181526020018280546100b090610231565b80156100fd5780601f106100d2576101008083540402835291602001916100fd565b820191906000526020600020905b8154815290600101906020018083116100e057829003601f168201915b505050505081565b600160009054906101000a900473ffffffffffffffffffffffffffffffffffffffff1681565b610134816101cc565b82525050565b6000610145826101b0565b61014f81856101bb565b935061015f8185602086016101fe565b61016881610292565b840191505092915050565b6000602082019050610188600083018461012b565b92915050565b600060208201905081810360008301526101a8818461013a565b905092915050565b600081519050919050565b600082825260208201905092915050565b60006101d7826101de565b9050919050565b600073ffffffffffffffffffffffffffffffffffffffff82169050919050565b60005b8381101561021c578082015181840152602081019050610201565b8381111561022b576000848401525b50505050565b6000600282049050600182168061024957607f821691505b6020821081141561025d5761025c610263565b5b50919050565b7f4e487b7100000000000000000000000000000000000000000000000000000000600052602260045260246000fd5b6000601f19601f830116905091905056fea26469706673582212200a640e5eb4f420cd8ce697fbc287436c94a065fcd41987997a681c0325f1c0d264736f6c63430008050033",
  "immutableReferences": {},
  "source": "pragma solidity ^0.8.0;\r\n\r\nimport \"../old_contracts/Ratio.sol\";\r\n\r\n// Contract to define a profile. (Profiles are NFT's used to identify ratio participants and perform actions in governance.)\r\ncontract Profile{\r\n\r\n    // Ratio contract.\r\n    Ratio ratio;\r\n\r\n    // owner of the profile.\r\n    address public owner;\r\n\r\n    // name.\r\n    string public name;\r\n\r\n    // description\r\n    string description;\r\n\r\n    // nfts owned by profile\r\n    address[] NFTs;\r\n\r\n    // voting weight of the profile.\r\n    uint weight;\r\n\r\n    constructor(address _ratio, address _owner, string memory _name, string memory _description){\r\n        owner = _owner;\r\n        name = _name;\r\n        description = _description;\r\n        ratio = Ratio(_ratio);\r\n    }\r\n\r\n}",
  "sourcePath": "/home/stephenstb/Ratio-Labs/ratio-labs/contracts/core/Profile.sol",
  "compiler": {
    "name": "solc",
    "version": "0.8.5+commit.a4f2e591.Emscripten.clang"
  },
  "schemaVersion": "3.3.3",
  "updatedAt": "2022-06-23T01:08:52.402Z",
  "devdoc": {
    "kind": "dev",
    "methods": {},
    "version": 1
  },
  "userdoc": {
    "kind": "user",
    "methods": {},
    "version": 1
  }
}