{
  "contractName": "Proposal",
  "abi": [
    {
      "inputs": [
        {
          "internalType": "address",
          "name": "_ratio",
          "type": "address"
        },
        {
          "internalType": "uint256",
          "name": "_epoch",
          "type": "uint256"
        },
        {
          "internalType": "string",
          "name": "_name",
          "type": "string"
        },
        {
          "internalType": "string",
          "name": "_description",
          "type": "string"
        },
        {
          "internalType": "address[]",
          "name": "_governed",
          "type": "address[]"
        }
      ],
      "stateMutability": "nonpayable",
      "type": "constructor"
    },
    {
      "inputs": [],
      "name": "approved",
      "outputs": [
        {
          "internalType": "bool",
          "name": "",
          "type": "bool"
        }
      ],
      "stateMutability": "view",
      "type": "function"
    },
    {
      "inputs": [],
      "name": "description",
      "outputs": [
        {
          "internalType": "string",
          "name": "",
          "type": "string"
        }
      ],
      "stateMutability": "view",
      "type": "function"
    },
    {
      "inputs": [],
      "name": "epoch",
      "outputs": [
        {
          "internalType": "uint256",
          "name": "",
          "type": "uint256"
        }
      ],
      "stateMutability": "view",
      "type": "function"
    },
    {
      "inputs": [
        {
          "internalType": "uint256",
          "name": "",
          "type": "uint256"
        }
      ],
      "name": "governed",
      "outputs": [
        {
          "internalType": "address",
          "name": "",
          "type": "address"
        }
      ],
      "stateMutability": "view",
      "type": "function"
    },
    {
      "inputs": [],
      "name": "name",
      "outputs": [
        {
          "internalType": "string",
          "name": "",
          "type": "string"
        }
      ],
      "stateMutability": "view",
      "type": "function"
    },
    {
      "inputs": [],
      "name": "open",
      "outputs": [
        {
          "internalType": "bool",
          "name": "",
          "type": "bool"
        }
      ],
      "stateMutability": "view",
      "type": "function"
    },
    {
      "inputs": [],
      "name": "proposer",
      "outputs": [
        {
          "internalType": "address",
          "name": "",
          "type": "address"
        }
      ],
      "stateMutability": "view",
      "type": "function"
    },
    {
      "inputs": [],
      "name": "ratio",
      "outputs": [
        {
          "internalType": "address",
          "name": "",
          "type": "address"
        }
      ],
      "stateMutability": "view",
      "type": "function"
    },
    {
      "inputs": [
        {
          "internalType": "bytes4",
          "name": "interfaceId",
          "type": "bytes4"
        }
      ],
      "name": "supportsInterface",
      "outputs": [
        {
          "internalType": "bool",
          "name": "",
          "type": "bool"
        }
      ],
      "stateMutability": "view",
      "type": "function"
    },
    {
      "inputs": [
        {
          "internalType": "enum IProposal.Vote",
          "name": "",
          "type": "uint8"
        }
      ],
      "name": "votes",
      "outputs": [
        {
          "internalType": "uint256",
          "name": "",
          "type": "uint256"
        }
      ],
      "stateMutability": "view",
      "type": "function"
    },
    {
      "inputs": [
        {
          "internalType": "enum IProposal.Vote",
          "name": "_vote",
          "type": "uint8"
        },
        {
          "internalType": "uint256",
          "name": "_weight",
          "type": "uint256"
        }
      ],
      "name": "vote",
      "outputs": [],
      "stateMutability": "nonpayable",
      "type": "function"
    },
    {
      "inputs": [
        {
          "internalType": "bool",
          "name": "_approved",
          "type": "bool"
        }
      ],
      "name": "setApproved",
      "outputs": [],
      "stateMutability": "nonpayable",
      "type": "function"
    },
    {
      "inputs": [
        {
          "internalType": "address[]",
          "name": "_governed",
          "type": "address[]"
        }
      ],
      "name": "setGoverned",
      "outputs": [],
      "stateMutability": "nonpayable",
      "type": "function"
    },
    {
      "inputs": [],
      "name": "governedLength",
      "outputs": [
        {
          "internalType": "uint256",
          "name": "_length",
          "type": "uint256"
        }
      ],
      "stateMutability": "view",
      "type": "function"
    }
  ],
  "bytecode": "0x60806040523480156200001157600080fd5b50604051620018c1380380620018c18339818101604052810190620000379190620004e9565b620000687f01ffc9a7000000000000000000000000000000000000000000000000000000006200017860201b60201c565b620000997f880b6916000000000000000000000000000000000000000000000000000000006200017860201b60201c565b84600160006101000a81548173ffffffffffffffffffffffffffffffffffffffff021916908373ffffffffffffffffffffffffffffffffffffffff160217905550836002819055508260039080519060200190620000f992919062000250565b50806004908051906020019062000112929190620002e1565b5081600590805190602001906200012b92919062000250565b5033600660016101000a81548173ffffffffffffffffffffffffffffffffffffffff021916908373ffffffffffffffffffffffffffffffffffffffff16021790555050505050506200087b565b63ffffffff60e01b817bffffffffffffffffffffffffffffffffffffffffffffffffffffffff19161415620001e4576040517f08c379a0000000000000000000000000000000000000000000000000000000008152600401620001db90620005f5565b60405180910390fd5b6001600080837bffffffffffffffffffffffffffffffffffffffffffffffffffffffff19167bffffffffffffffffffffffffffffffffffffffffffffffffffffffff1916815260200190815260200160002060006101000a81548160ff02191690831515021790555050565b8280546200025e906200072a565b90600052602060002090601f016020900481019282620002825760008555620002ce565b82601f106200029d57805160ff1916838001178555620002ce565b82800160010185558215620002ce579182015b82811115620002cd578251825591602001919060010190620002b0565b5b509050620002dd919062000370565b5090565b8280548282559060005260206000209081019282156200035d579160200282015b828111156200035c5782518260006101000a81548173ffffffffffffffffffffffffffffffffffffffff021916908373ffffffffffffffffffffffffffffffffffffffff1602179055509160200191906001019062000302565b5b5090506200036c919062000370565b5090565b5b808211156200038b57600081600090555060010162000371565b5090565b6000620003a6620003a08462000640565b62000617565b90508083825260208201905082856020860282011115620003cc57620003cb620007f9565b5b60005b85811015620004005781620003e5888262000455565b845260208401935060208301925050600181019050620003cf565b5050509392505050565b6000620004216200041b846200066f565b62000617565b90508281526020810184848401111562000440576200043f620007fe565b5b6200044d848285620006f4565b509392505050565b600081519050620004668162000847565b92915050565b600082601f830112620004845762000483620007f4565b5b8151620004968482602086016200038f565b91505092915050565b600082601f830112620004b757620004b6620007f4565b5b8151620004c98482602086016200040a565b91505092915050565b600081519050620004e38162000861565b92915050565b600080600080600060a0868803121562000508576200050762000808565b5b6000620005188882890162000455565b95505060206200052b88828901620004d2565b945050604086015167ffffffffffffffff8111156200054f576200054e62000803565b5b6200055d888289016200049f565b935050606086015167ffffffffffffffff81111562000581576200058062000803565b5b6200058f888289016200049f565b925050608086015167ffffffffffffffff811115620005b357620005b262000803565b5b620005c1888289016200046c565b9150509295509295909350565b6000620005dd601c83620006a5565b9150620005ea826200081e565b602082019050919050565b600060208201905081810360008301526200061081620005ce565b9050919050565b60006200062362000636565b905062000631828262000760565b919050565b6000604051905090565b600067ffffffffffffffff8211156200065e576200065d620007c5565b5b602082029050602081019050919050565b600067ffffffffffffffff8211156200068d576200068c620007c5565b5b62000698826200080d565b9050602081019050919050565b600082825260208201905092915050565b6000620006c382620006ca565b9050919050565b600073ffffffffffffffffffffffffffffffffffffffff82169050919050565b6000819050919050565b60005b8381101562000714578082015181840152602081019050620006f7565b8381111562000724576000848401525b50505050565b600060028204905060018216806200074357607f821691505b602082108114156200075a576200075962000796565b5b50919050565b6200076b826200080d565b810181811067ffffffffffffffff821117156200078d576200078c620007c5565b5b80604052505050565b7f4e487b7100000000000000000000000000000000000000000000000000000000600052602260045260246000fd5b7f4e487b7100000000000000000000000000000000000000000000000000000000600052604160045260246000fd5b600080fd5b600080fd5b600080fd5b600080fd5b600080fd5b6000601f19601f8301169050919050565b7f4552433136353a20696e76616c696420696e7465726661636520696400000000600082015250565b6200085281620006b6565b81146200085e57600080fd5b50565b6200086c81620006ea565b81146200087857600080fd5b50565b611036806200088b6000396000f3fe608060405234801561001057600080fd5b50600436106100ea5760003560e01c8063960664d11161008c578063b17aabe111610066578063b17aabe11461023b578063c1b4335714610259578063d3f29ace14610289578063fcfff16f146102a5576100ea565b8063960664d1146101d1578063a8e4fb9014610201578063ac56fd511461021f576100ea565b806346d5a568116100c857806346d5a5681461015b57806371ca337d146101775780637284e41614610195578063900cf0cf146101b3576100ea565b806301ffc9a7146100ef57806306fdde031461011f57806319d40b081461013d575b600080fd5b61010960048036038101906101049190610a48565b6102c3565b6040516101169190610bd6565b60405180910390f35b61012761033a565b6040516101349190610bf1565b60405180910390f35b6101456103c8565b6040516101529190610bd6565b60405180910390f35b61017560048036038101906101709190610a1b565b6103db565b005b61017f610488565b60405161018c9190610bbb565b60405180910390f35b61019d6104ae565b6040516101aa9190610bf1565b60405180910390f35b6101bb61053c565b6040516101c89190610c53565b60405180910390f35b6101eb60048036038101906101e69190610ae2565b610542565b6040516101f89190610bbb565b60405180910390f35b610209610581565b6040516102169190610bbb565b60405180910390f35b610239600480360381019061023491906109d2565b6105a7565b005b610243610651565b6040516102509190610c53565b60405180910390f35b610273600480360381019061026e9190610a75565b61065e565b6040516102809190610c53565b60405180910390f35b6102a3600480360381019061029e9190610aa2565b610676565b005b6102ad6107a7565b6040516102ba9190610bd6565b60405180910390f35b60006102ce826107ba565b806103335750600080837bffffffffffffffffffffffffffffffffffffffffffffffffffffffff19167bffffffffffffffffffffffffffffffffffffffffffffffffffffffff1916815260200190815260200160002060009054906101000a900460ff165b9050919050565b6003805461034790610dd8565b80601f016020809104026020016040519081016040528092919081815260200182805461037390610dd8565b80156103c05780601f10610395576101008083540402835291602001916103c0565b820191906000526020600020905b8154815290600101906020018083116103a357829003601f168201915b505050505081565b600660009054906101000a900460ff1681565b600160009054906101000a900473ffffffffffffffffffffffffffffffffffffffff1673ffffffffffffffffffffffffffffffffffffffff163373ffffffffffffffffffffffffffffffffffffffff161461046b576040517f08c379a000000000000000000000000000000000000000000000000000000000815260040161046290610c33565b60405180910390fd5b80600660006101000a81548160ff02191690831515021790555050565b600160009054906101000a900473ffffffffffffffffffffffffffffffffffffffff1681565b600580546104bb90610dd8565b80601f01602080910402602001604051908101604052809291908181526020018280546104e790610dd8565b80156105345780601f1061050957610100808354040283529160200191610534565b820191906000526020600020905b81548152906001019060200180831161051757829003601f168201915b505050505081565b60025481565b6004818154811061055257600080fd5b906000526020600020016000915054906101000a900473ffffffffffffffffffffffffffffffffffffffff1681565b600660019054906101000a900473ffffffffffffffffffffffffffffffffffffffff1681565b600160009054906101000a900473ffffffffffffffffffffffffffffffffffffffff1673ffffffffffffffffffffffffffffffffffffffff163373ffffffffffffffffffffffffffffffffffffffff1614610637576040517f08c379a000000000000000000000000000000000000000000000000000000000815260040161062e90610c33565b60405180910390fd5b806004908051906020019061064d929190610824565b5050565b6000600480549050905090565b60076020528060005260406000206000915090505481565b600160009054906101000a900473ffffffffffffffffffffffffffffffffffffffff1673ffffffffffffffffffffffffffffffffffffffff163373ffffffffffffffffffffffffffffffffffffffff1614610706576040517f08c379a00000000000000000000000000000000000000000000000000000000081526004016106fd90610c33565b60405180910390fd5b600660159054906101000a900460ff16610755576040517f08c379a000000000000000000000000000000000000000000000000000000000815260040161074c90610c13565b60405180910390fd5b806007600084600281111561076d5761076c610e6a565b5b600281111561077f5761077e610e6a565b5b8152602001908152602001600020600082825461079c9190610cdb565b925050819055505050565b600660159054906101000a900460ff1681565b60007f01ffc9a7000000000000000000000000000000000000000000000000000000007bffffffffffffffffffffffffffffffffffffffffffffffffffffffff1916827bffffffffffffffffffffffffffffffffffffffffffffffffffffffff1916149050919050565b82805482825590600052602060002090810192821561089d579160200282015b8281111561089c5782518260006101000a81548173ffffffffffffffffffffffffffffffffffffffff021916908373ffffffffffffffffffffffffffffffffffffffff16021790555091602001919060010190610844565b5b5090506108aa91906108ae565b5090565b5b808211156108c75760008160009055506001016108af565b5090565b60006108de6108d984610c93565b610c6e565b9050808382526020820190508285602086028201111561090157610900610efc565b5b60005b858110156109315781610917888261093b565b845260208401935060208301925050600181019050610904565b5050509392505050565b60008135905061094a81610f94565b92915050565b600082601f83011261096557610964610ef7565b5b81356109758482602086016108cb565b91505092915050565b60008135905061098d81610fab565b92915050565b6000813590506109a281610fc2565b92915050565b6000813590506109b781610fd9565b92915050565b6000813590506109cc81610fe9565b92915050565b6000602082840312156109e8576109e7610f06565b5b600082013567ffffffffffffffff811115610a0657610a05610f01565b5b610a1284828501610950565b91505092915050565b600060208284031215610a3157610a30610f06565b5b6000610a3f8482850161097e565b91505092915050565b600060208284031215610a5e57610a5d610f06565b5b6000610a6c84828501610993565b91505092915050565b600060208284031215610a8b57610a8a610f06565b5b6000610a99848285016109a8565b91505092915050565b60008060408385031215610ab957610ab8610f06565b5b6000610ac7858286016109a8565b9250506020610ad8858286016109bd565b9150509250929050565b600060208284031215610af857610af7610f06565b5b6000610b06848285016109bd565b91505092915050565b610b1881610d31565b82525050565b610b2781610d43565b82525050565b6000610b3882610cbf565b610b428185610cca565b9350610b52818560208601610da5565b610b5b81610f0b565b840191505092915050565b6000610b73602483610cca565b9150610b7e82610f1c565b604082019050919050565b6000610b96601883610cca565b9150610ba182610f6b565b602082019050919050565b610bb581610d9b565b82525050565b6000602082019050610bd06000830184610b0f565b92915050565b6000602082019050610beb6000830184610b1e565b92915050565b60006020820190508181036000830152610c0b8184610b2d565b905092915050565b60006020820190508181036000830152610c2c81610b66565b9050919050565b60006020820190508181036000830152610c4c81610b89565b9050919050565b6000602082019050610c686000830184610bac565b92915050565b6000610c78610c89565b9050610c848282610e0a565b919050565b6000604051905090565b600067ffffffffffffffff821115610cae57610cad610ec8565b5b602082029050602081019050919050565b600081519050919050565b600082825260208201905092915050565b6000610ce682610d9b565b9150610cf183610d9b565b9250827fffffffffffffffffffffffffffffffffffffffffffffffffffffffffffffffff03821115610d2657610d25610e3b565b5b828201905092915050565b6000610d3c82610d7b565b9050919050565b60008115159050919050565b60007fffffffff0000000000000000000000000000000000000000000000000000000082169050919050565b600073ffffffffffffffffffffffffffffffffffffffff82169050919050565b6000819050919050565b60005b83811015610dc3578082015181840152602081019050610da8565b83811115610dd2576000848401525b50505050565b60006002820490506001821680610df057607f821691505b60208210811415610e0457610e03610e99565b5b50919050565b610e1382610f0b565b810181811067ffffffffffffffff82111715610e3257610e31610ec8565b5b80604052505050565b7f4e487b7100000000000000000000000000000000000000000000000000000000600052601160045260246000fd5b7f4e487b7100000000000000000000000000000000000000000000000000000000600052602160045260246000fd5b7f4e487b7100000000000000000000000000000000000000000000000000000000600052602260045260246000fd5b7f4e487b7100000000000000000000000000000000000000000000000000000000600052604160045260246000fd5b600080fd5b600080fd5b600080fd5b600080fd5b6000601f19601f8301169050919050565b7f566f74696e6720666f7220746869732070726f706f73616c2068617320636c6f60008201527f7365642e00000000000000000000000000000000000000000000000000000000602082015250565b7f4d7573742062652063616c6c656420627920726174696f2e0000000000000000600082015250565b610f9d81610d31565b8114610fa857600080fd5b50565b610fb481610d43565b8114610fbf57600080fd5b50565b610fcb81610d4f565b8114610fd657600080fd5b50565b60038110610fe657600080fd5b50565b610ff281610d9b565b8114610ffd57600080fd5b5056fea26469706673582212209c6641a040ebc15edf2954a52e14ae9fe6a73dd453221efd2c1d5c3d4e5e05a064736f6c63430008050033",
  "immutableReferences": {},
  "source": "pragma solidity ^0.8.0;\r\n\r\nimport \"@openzeppelin/contracts/utils/introspection/ERC165Storage.sol\";\r\n\r\nimport \"@openzeppelin/contracts/utils/introspection/IERC165.sol\";\r\n\r\nimport \"../interfaces/IProposal.sol\";\r\n\r\nimport \"../interfaces/IGoverned.sol\";\r\n\r\n// Contract to handle the approval or removal of Governed contracts.\r\ncontract Proposal is IProposal, ERC165Storage{\r\n\r\n    // Ratio contract.\r\n    address public ratio;\r\n\r\n    // Epoch closing voting.\r\n    uint public epoch;\r\n\r\n    // Name of the Proposal.\r\n    string public name;\r\n\r\n    // Addresses of the Governed contracts proposed to be approved or removed.\r\n    address[] public governed;\r\n\r\n    // Description of the contracts to be added or why contracts should be removed.\r\n    string public description;\r\n\r\n    // Variable to represent if the Proposal was approved / executed.\r\n    bool public approved;\r\n\r\n    // Address of the sender who created the Proposal.\r\n    address public proposer;\r\n\r\n    // Varialbe to determine if voting is open.\r\n    bool public open;\r\n\r\n    mapping(Vote => uint) public votes;\r\n\r\n     // modifier to determine if sender is the ratio contract.\r\n    modifier isRatio{\r\n        require(msg.sender == ratio, \"Must be called by ratio.\");\r\n        _;\r\n    }\r\n\r\n    constructor(address _ratio, uint _epoch, string memory _name, string memory _description, address[] memory _governed){\r\n        _registerInterface(type(IERC165).interfaceId);\r\n        _registerInterface(type(IProposal).interfaceId);\r\n        ratio = _ratio;\r\n        epoch = _epoch;\r\n        name = _name;\r\n        governed = _governed;\r\n        description = _description;\r\n        proposer = msg.sender;\r\n\r\n    }\r\n\r\n    // Votes on the Proposal.\r\n    function vote(Vote _vote, uint _weight) external override isRatio{\r\n        require(open, \"Voting for this proposal has closed.\");\r\n        votes[_vote] += _weight;\r\n    }\r\n\r\n    //  Sets the Approved variable.\r\n    function setApproved(bool _approved) external override isRatio{\r\n        approved = _approved;\r\n    }\r\n\r\n    // Sets the governed contracts array.\r\n    function setGoverned(address[] memory _governed) external override isRatio{\r\n        governed = _governed;\r\n    }\r\n\r\n    // Returns the length of the governed array.\r\n    function governedLength() external override view returns(uint _length){\r\n        return governed.length;\r\n    }\r\n    \r\n}",
  "sourcePath": "/home/stephenstb/Ratio-Labs/ratio-labsV0/contracts/core/Proposal.sol",
  "compiler": {
    "name": "solc",
    "version": "0.8.5+commit.a4f2e591.Emscripten.clang"
  },
  "schemaVersion": "3.3.3",
  "updatedAt": "2022-07-15T04:56:39.342Z",
  "devdoc": {
    "kind": "dev",
    "methods": {
      "supportsInterface(bytes4)": {
        "details": "See {IERC165-supportsInterface}."
      }
    },
    "version": 1
  },
  "userdoc": {
    "kind": "user",
    "methods": {},
    "version": 1
  }
}