{
  "contractName": "ProtocolNFT",
  "abi": [
    {
      "inputs": [
        {
          "internalType": "uint256",
          "name": "_minimumRequestValue",
          "type": "uint256"
        }
      ],
      "stateMutability": "nonpayable",
      "type": "constructor"
    },
    {
      "anonymous": false,
      "inputs": [
        {
          "indexed": true,
          "internalType": "address",
          "name": "previousOwner",
          "type": "address"
        },
        {
          "indexed": true,
          "internalType": "address",
          "name": "newOwner",
          "type": "address"
        }
      ],
      "name": "OwnershipTransferred",
      "type": "event"
    },
    {
      "anonymous": false,
      "inputs": [
        {
          "components": [
            {
              "internalType": "bytes32",
              "name": "_prev",
              "type": "bytes32"
            },
            {
              "internalType": "bytes32",
              "name": "_root",
              "type": "bytes32"
            },
            {
              "internalType": "bytes32[]",
              "name": "_leaves",
              "type": "bytes32[]"
            },
            {
              "internalType": "uint256",
              "name": "_block",
              "type": "uint256"
            }
          ],
          "indexed": false,
          "internalType": "struct ProtocolNFT.nftBlock",
          "name": "_block",
          "type": "tuple"
        }
      ],
      "name": "blockSubmited",
      "type": "event"
    },
    {
      "anonymous": false,
      "inputs": [
        {
          "indexed": false,
          "internalType": "address",
          "name": "_contract",
          "type": "address"
        },
        {
          "indexed": false,
          "internalType": "address",
          "name": "_distributor",
          "type": "address"
        },
        {
          "indexed": false,
          "internalType": "string",
          "name": "_baseURI",
          "type": "string"
        },
        {
          "indexed": false,
          "internalType": "uint256",
          "name": "_block",
          "type": "uint256"
        },
        {
          "indexed": false,
          "internalType": "uint256",
          "name": "_value",
          "type": "uint256"
        }
      ],
      "name": "verificationRequest",
      "type": "event"
    },
    {
      "anonymous": false,
      "inputs": [
        {
          "components": [
            {
              "internalType": "address",
              "name": "_contract",
              "type": "address"
            },
            {
              "internalType": "address",
              "name": "_distributor",
              "type": "address"
            },
            {
              "internalType": "string",
              "name": "_baseURI",
              "type": "string"
            },
            {
              "internalType": "string[]",
              "name": "_subURIs",
              "type": "string[]"
            }
          ],
          "indexed": false,
          "internalType": "struct ProtocolNFT.nftStruct",
          "name": "_nft",
          "type": "tuple"
        }
      ],
      "name": "verified",
      "type": "event"
    },
    {
      "inputs": [
        {
          "internalType": "string",
          "name": "",
          "type": "string"
        }
      ],
      "name": "baseURIdistributor",
      "outputs": [
        {
          "internalType": "address",
          "name": "",
          "type": "address"
        }
      ],
      "stateMutability": "view",
      "type": "function"
    },
    {
      "inputs": [
        {
          "internalType": "bytes32",
          "name": "",
          "type": "bytes32"
        }
      ],
      "name": "blockMap",
      "outputs": [
        {
          "internalType": "bytes32",
          "name": "_prev",
          "type": "bytes32"
        },
        {
          "internalType": "bytes32",
          "name": "_root",
          "type": "bytes32"
        },
        {
          "internalType": "uint256",
          "name": "_block",
          "type": "uint256"
        }
      ],
      "stateMutability": "view",
      "type": "function"
    },
    {
      "inputs": [
        {
          "internalType": "address",
          "name": "",
          "type": "address"
        },
        {
          "internalType": "uint256",
          "name": "",
          "type": "uint256"
        }
      ],
      "name": "distributorContracts",
      "outputs": [
        {
          "internalType": "address",
          "name": "",
          "type": "address"
        }
      ],
      "stateMutability": "view",
      "type": "function"
    },
    {
      "inputs": [
        {
          "internalType": "address",
          "name": "",
          "type": "address"
        },
        {
          "internalType": "address",
          "name": "",
          "type": "address"
        }
      ],
      "name": "distributorNFT",
      "outputs": [
        {
          "internalType": "address",
          "name": "_contract",
          "type": "address"
        },
        {
          "internalType": "address",
          "name": "_distributor",
          "type": "address"
        },
        {
          "internalType": "string",
          "name": "_baseURI",
          "type": "string"
        }
      ],
      "stateMutability": "view",
      "type": "function"
    },
    {
      "inputs": [],
      "name": "minimumRequestValue",
      "outputs": [
        {
          "internalType": "uint256",
          "name": "",
          "type": "uint256"
        }
      ],
      "stateMutability": "view",
      "type": "function"
    },
    {
      "inputs": [
        {
          "internalType": "uint256",
          "name": "",
          "type": "uint256"
        }
      ],
      "name": "nftBlocks",
      "outputs": [
        {
          "internalType": "bytes32",
          "name": "_prev",
          "type": "bytes32"
        },
        {
          "internalType": "bytes32",
          "name": "_root",
          "type": "bytes32"
        },
        {
          "internalType": "uint256",
          "name": "_block",
          "type": "uint256"
        }
      ],
      "stateMutability": "view",
      "type": "function"
    },
    {
      "inputs": [
        {
          "internalType": "uint256",
          "name": "",
          "type": "uint256"
        }
      ],
      "name": "nftContracts",
      "outputs": [
        {
          "internalType": "address",
          "name": "",
          "type": "address"
        }
      ],
      "stateMutability": "view",
      "type": "function"
    },
    {
      "inputs": [],
      "name": "owner",
      "outputs": [
        {
          "internalType": "address",
          "name": "",
          "type": "address"
        }
      ],
      "stateMutability": "view",
      "type": "function"
    },
    {
      "inputs": [],
      "name": "renounceOwnership",
      "outputs": [],
      "stateMutability": "nonpayable",
      "type": "function"
    },
    {
      "inputs": [
        {
          "internalType": "string",
          "name": "",
          "type": "string"
        }
      ],
      "name": "subURIsBaseURI",
      "outputs": [
        {
          "internalType": "string",
          "name": "",
          "type": "string"
        }
      ],
      "stateMutability": "view",
      "type": "function"
    },
    {
      "inputs": [
        {
          "internalType": "address",
          "name": "newOwner",
          "type": "address"
        }
      ],
      "name": "transferOwnership",
      "outputs": [],
      "stateMutability": "nonpayable",
      "type": "function"
    },
    {
      "inputs": [],
      "name": "requestVerification",
      "outputs": [],
      "stateMutability": "payable",
      "type": "function"
    },
    {
      "inputs": [
        {
          "internalType": "bytes32[]",
          "name": "_proof",
          "type": "bytes32[]"
        },
        {
          "internalType": "bytes32",
          "name": "_root",
          "type": "bytes32"
        },
        {
          "internalType": "bytes32",
          "name": "_leaf",
          "type": "bytes32"
        },
        {
          "components": [
            {
              "internalType": "address",
              "name": "_contract",
              "type": "address"
            },
            {
              "internalType": "address",
              "name": "_distributor",
              "type": "address"
            },
            {
              "internalType": "string",
              "name": "_baseURI",
              "type": "string"
            },
            {
              "internalType": "string[]",
              "name": "_subURIs",
              "type": "string[]"
            }
          ],
          "internalType": "struct ProtocolNFT.nftStruct",
          "name": "_nft",
          "type": "tuple"
        }
      ],
      "name": "verifyNFT",
      "outputs": [],
      "stateMutability": "nonpayable",
      "type": "function"
    },
    {
      "inputs": [
        {
          "components": [
            {
              "internalType": "bytes32",
              "name": "_prev",
              "type": "bytes32"
            },
            {
              "internalType": "bytes32",
              "name": "_root",
              "type": "bytes32"
            },
            {
              "internalType": "bytes32[]",
              "name": "_leaves",
              "type": "bytes32[]"
            },
            {
              "internalType": "uint256",
              "name": "_block",
              "type": "uint256"
            }
          ],
          "internalType": "struct ProtocolNFT.nftBlock",
          "name": "_block",
          "type": "tuple"
        }
      ],
      "name": "submitBlock",
      "outputs": [],
      "stateMutability": "nonpayable",
      "type": "function"
    },
    {
      "inputs": [
        {
          "internalType": "address[]",
          "name": "_contracts",
          "type": "address[]"
        }
      ],
      "name": "_slashNFTs",
      "outputs": [],
      "stateMutability": "nonpayable",
      "type": "function"
    },
    {
      "inputs": [
        {
          "internalType": "address",
          "name": "_contract",
          "type": "address"
        }
      ],
      "name": "slashNFT",
      "outputs": [],
      "stateMutability": "nonpayable",
      "type": "function"
    },
    {
      "inputs": [],
      "name": "latestBlock",
      "outputs": [
        {
          "components": [
            {
              "internalType": "bytes32",
              "name": "_prev",
              "type": "bytes32"
            },
            {
              "internalType": "bytes32",
              "name": "_root",
              "type": "bytes32"
            },
            {
              "internalType": "bytes32[]",
              "name": "_leaves",
              "type": "bytes32[]"
            },
            {
              "internalType": "uint256",
              "name": "_block",
              "type": "uint256"
            }
          ],
          "internalType": "struct ProtocolNFT.nftBlock",
          "name": "_block",
          "type": "tuple"
        }
      ],
      "stateMutability": "view",
      "type": "function"
    },
    {
      "inputs": [
        {
          "internalType": "address",
          "name": "_contract",
          "type": "address"
        }
      ],
      "name": "getContractNFT",
      "outputs": [
        {
          "components": [
            {
              "internalType": "address",
              "name": "_contract",
              "type": "address"
            },
            {
              "internalType": "address",
              "name": "_distributor",
              "type": "address"
            },
            {
              "internalType": "string",
              "name": "_baseURI",
              "type": "string"
            },
            {
              "internalType": "string[]",
              "name": "_subURIs",
              "type": "string[]"
            }
          ],
          "internalType": "struct ProtocolNFT.nftStruct",
          "name": "_nft",
          "type": "tuple"
        }
      ],
      "stateMutability": "view",
      "type": "function"
    },
    {
      "inputs": [
        {
          "internalType": "string",
          "name": "_baseURI",
          "type": "string"
        }
      ],
      "name": "getBaseURIdistributor",
      "outputs": [
        {
          "internalType": "address",
          "name": "_distributor",
          "type": "address"
        }
      ],
      "stateMutability": "view",
      "type": "function"
    },
    {
      "inputs": [
        {
          "internalType": "string",
          "name": "_subURI",
          "type": "string"
        }
      ],
      "name": "getSubURIsBaseURI",
      "outputs": [
        {
          "internalType": "string",
          "name": "_baseURI",
          "type": "string"
        }
      ],
      "stateMutability": "view",
      "type": "function"
    },
    {
      "inputs": [
        {
          "internalType": "address",
          "name": "_distributor",
          "type": "address"
        }
      ],
      "name": "getDistributorContracts",
      "outputs": [
        {
          "internalType": "address[]",
          "name": "_contracts",
          "type": "address[]"
        }
      ],
      "stateMutability": "view",
      "type": "function"
    },
    {
      "inputs": [
        {
          "internalType": "address",
          "name": "_distributor",
          "type": "address"
        },
        {
          "internalType": "address",
          "name": "_contract",
          "type": "address"
        }
      ],
      "name": "getDistributorNFT",
      "outputs": [
        {
          "components": [
            {
              "internalType": "address",
              "name": "_contract",
              "type": "address"
            },
            {
              "internalType": "address",
              "name": "_distributor",
              "type": "address"
            },
            {
              "internalType": "string",
              "name": "_baseURI",
              "type": "string"
            },
            {
              "internalType": "string[]",
              "name": "_subURIs",
              "type": "string[]"
            }
          ],
          "internalType": "struct ProtocolNFT.nftStruct",
          "name": "_nft",
          "type": "tuple"
        }
      ],
      "stateMutability": "view",
      "type": "function"
    },
    {
      "inputs": [
        {
          "internalType": "uint256",
          "name": "_start",
          "type": "uint256"
        },
        {
          "internalType": "uint256",
          "name": "_end",
          "type": "uint256"
        }
      ],
      "name": "getContracts",
      "outputs": [
        {
          "internalType": "address[1000]",
          "name": "_contracts",
          "type": "address[1000]"
        }
      ],
      "stateMutability": "view",
      "type": "function"
    },
    {
      "inputs": [
        {
          "internalType": "uint256",
          "name": "_val",
          "type": "uint256"
        }
      ],
      "name": "modifyRequestValue",
      "outputs": [],
      "stateMutability": "nonpayable",
      "type": "function"
    },
    {
      "inputs": [],
      "name": "claim",
      "outputs": [],
      "stateMutability": "nonpayable",
      "type": "function"
    }
  ],
  "bytecode": "0x60806040523480156200001157600080fd5b50604051620054533803806200545383398181016040528101906200003791906200029d565b620000576200004b6200014960201b60201c565b6200015160201b60201c565b80600181905550600060405180608001604052806000801b81526020016000801b8152602001600067ffffffffffffffff8111156200009b576200009a620002d9565b5b604051908082528060200260200182016040528015620000ca5781602001602082028036833780820191505090505b5081526020014381525090506009819080600181540180825580915050600190039060005260206000209060040201600090919091909150600082015181600001556020820151816001015560408201518160020190805190602001906200013492919062000215565b50606082015181600301555050505062000327565b600033905090565b60008060009054906101000a900473ffffffffffffffffffffffffffffffffffffffff169050816000806101000a81548173ffffffffffffffffffffffffffffffffffffffff021916908373ffffffffffffffffffffffffffffffffffffffff1602179055508173ffffffffffffffffffffffffffffffffffffffff168173ffffffffffffffffffffffffffffffffffffffff167f8be0079c531659141344cd1fd0a4f28419497f9722a3daafe3b4186f6b6457e060405160405180910390a35050565b82805482825590600052602060002090810192821562000254579160200282015b828111156200025357825182559160200191906001019062000236565b5b50905062000263919062000267565b5090565b5b808211156200028257600081600090555060010162000268565b5090565b60008151905062000297816200030d565b92915050565b600060208284031215620002b657620002b562000308565b5b6000620002c68482850162000286565b91505092915050565b6000819050919050565b7f4e487b7100000000000000000000000000000000000000000000000000000000600052604160045260246000fd5b600080fd5b6200031881620002cf565b81146200032457600080fd5b50565b61511c80620003376000396000f3fe6080604052600436106101665760003560e01c8063699e0144116100d1578063b5555aba1161008a578063d2456c4311610064578063d2456c431461057f578063e33135c4146105a8578063eddebe62146105e7578063f2fde38b1461061057610166565b8063b5555aba146104ee578063bee03c7a14610517578063c0f1f8731461054257610166565b8063699e0144146103b85780636f1b31f0146103f5578063715018a6146104325780638da5cb5b146104495780638e83722514610474578063a6b8123c146104b157610166565b806332155fa51161012357806332155fa51461029457806339e9d061146102bd578063490a3fb8146102e65780634e71d92d14610325578063539975de1461033c5780636587e7ea1461037b57610166565b8063012a3bd31461016b57806307e2da96146101a857806307ec3039146101d35780630bb4d82a146101dd57806320c430751461021a57806328a83b6714610257575b600080fd5b34801561017757600080fd5b50610192600480360381019061018d9190613dd8565b610639565b60405161019f91906145f3565b60405180910390f35b3480156101b457600080fd5b506101bd610702565b6040516101ca919061484a565b60405180910390f35b6101db6107c3565b005b3480156101e957600080fd5b5061020460048036038101906101ff9190613dab565b610d26565b6040516102119190614540565b60405180910390f35b34801561022657600080fd5b50610241600480360381019061023c9190613b7b565b610d65565b60405161024e9190614540565b60405180910390f35b34801561026357600080fd5b5061027e60048036038101906102799190613cd0565b610db3565b60405161028b9190614668565b60405180910390f35b3480156102a057600080fd5b506102bb60048036038101906102b69190613c04565b610e63565b005b3480156102c957600080fd5b506102e460048036038101906102df9190613dab565b61151f565b005b3480156102f257600080fd5b5061030d60048036038101906103089190613dab565b6115a5565b60405161031c93929190614631565b60405180910390f35b34801561033157600080fd5b5061033a6115df565b005b34801561034857600080fd5b50610363600480360381019061035e9190613ca3565b61162f565b60405161037293929190614631565b60405180910390f35b34801561038757600080fd5b506103a2600480360381019061039d9190613cd0565b611659565b6040516103af9190614540565b60405180910390f35b3480156103c457600080fd5b506103df60048036038101906103da9190613b3b565b6116a2565b6040516103ec919061486c565b60405180910390f35b34801561040157600080fd5b5061041c60048036038101906104179190613ae1565b611950565b604051610429919061486c565b60405180910390f35b34801561043e57600080fd5b50610447611bc0565b005b34801561045557600080fd5b5061045e611c48565b60405161046b9190614540565b60405180910390f35b34801561048057600080fd5b5061049b60048036038101906104969190613cd0565b611c71565b6040516104a89190614668565b60405180910390f35b3480156104bd57600080fd5b506104d860048036038101906104d39190613cd0565b611d27565b6040516104e59190614540565b60405180910390f35b3480156104fa57600080fd5b5061051560048036038101906105109190613d62565b611d6f565b005b34801561052357600080fd5b5061052c611f61565b604051610539919061488e565b60405180910390f35b34801561054e57600080fd5b5061056960048036038101906105649190613ae1565b611f67565b604051610576919061460f565b60405180910390f35b34801561058b57600080fd5b506105a660048036038101906105a19190613bbb565b612034565b005b3480156105b457600080fd5b506105cf60048036038101906105ca9190613b3b565b6126ec565b6040516105de9392919061455b565b60405180910390f35b3480156105f357600080fd5b5061060e60048036038101906106099190613ae1565b6127eb565b005b34801561061c57600080fd5b5061063760048036038101906106329190613ae1565b613023565b005b610641613387565b6000808490505b8381116106fa576007818154811061066357610662614d56565b5b9060005260206000200160009054906101000a900473ffffffffffffffffffffffffffffffffffffffff1683836103e881106106a2576106a1614d56565b5b602002019073ffffffffffffffffffffffffffffffffffffffff16908173ffffffffffffffffffffffffffffffffffffffff168152505081806106e490614c81565b92505080806106f290614c81565b915050610648565b505092915050565b61070a6133ab565b6009600160098054905061071e9190614acf565b8154811061072f5761072e614d56565b5b90600052602060002090600402016040518060800160405290816000820154815260200160018201548152602001600282018054806020026020016040519081016040528092919081815260200182805480156107ab57602002820191906000526020600020905b815481526020019060010190808311610797575b50505050508152602001600382015481525050905090565b600033905060015434101561080d576040517f08c379a00000000000000000000000000000000000000000000000000000000081526004016108049061480a565b60405180910390fd5b6108163361311b565b610855576040517f08c379a000000000000000000000000000000000000000000000000000000000815260040161084c9061478a565b60405180910390fd5b600073ffffffffffffffffffffffffffffffffffffffff16600260003373ffffffffffffffffffffffffffffffffffffffff1673ffffffffffffffffffffffffffffffffffffffff16815260200190815260200160002060000160009054906101000a900473ffffffffffffffffffffffffffffffffffffffff1673ffffffffffffffffffffffffffffffffffffffff1614610926576040517f08c379a000000000000000000000000000000000000000000000000000000000815260040161091d9061472a565b60405180910390fd5b600073ffffffffffffffffffffffffffffffffffffffff1660038273ffffffffffffffffffffffffffffffffffffffff16636c0360eb6040518163ffffffff1660e01b815260040160006040518083038186803b15801561098657600080fd5b505afa15801561099a573d6000803e3d6000fd5b505050506040513d6000823e3d601f19601f820116820180604052508101906109c39190613d19565b6040516109d09190614512565b908152602001604051809103902060009054906101000a900473ffffffffffffffffffffffffffffffffffffffff1673ffffffffffffffffffffffffffffffffffffffff1614610a55576040517f08c379a0000000000000000000000000000000000000000000000000000000008152600401610a4c906147ca565b60405180910390fd5b60358173ffffffffffffffffffffffffffffffffffffffff16636c0360eb6040518163ffffffff1660e01b815260040160006040518083038186803b158015610a9d57600080fd5b505afa158015610ab1573d6000803e3d6000fd5b505050506040513d6000823e3d601f19601f82011682018060405250810190610ada9190613d19565b5114610b1b576040517f08c379a0000000000000000000000000000000000000000000000000000000008152600401610b129061476a565b60405180910390fd5b610ba68173ffffffffffffffffffffffffffffffffffffffff16636c0360eb6040518163ffffffff1660e01b815260040160006040518083038186803b158015610b6457600080fd5b505afa158015610b78573d6000803e3d6000fd5b505050506040513d6000823e3d601f19601f82011682018060405250810190610ba19190613d19565b61313e565b610be5576040517f08c379a0000000000000000000000000000000000000000000000000000000008152600401610bdc9061470a565b60405180910390fd5b7f6cc092d02e0110e7e73d678ffb5677ed15086310c26ac8fdbb48d2434e03bcf8338273ffffffffffffffffffffffffffffffffffffffff1663bfe109286040518163ffffffff1660e01b815260040160206040518083038186803b158015610c4d57600080fd5b505afa158015610c61573d6000803e3d6000fd5b505050506040513d601f19601f82011682018060405250810190610c859190613b0e565b8373ffffffffffffffffffffffffffffffffffffffff16636c0360eb6040518163ffffffff1660e01b815260040160006040518083038186803b158015610ccb57600080fd5b505afa158015610cdf573d6000803e3d6000fd5b505050506040513d6000823e3d601f19601f82011682018060405250810190610d089190613d19565b4334604051610d1b959493929190614599565b60405180910390a150565b60078181548110610d3657600080fd5b906000526020600020016000915054906101000a900473ffffffffffffffffffffffffffffffffffffffff1681565b60056020528160005260406000208181548110610d8157600080fd5b906000526020600020016000915091509054906101000a900473ffffffffffffffffffffffffffffffffffffffff1681565b6060600482604051610dc59190614512565b90815260200160405180910390208054610dde90614c1e565b80601f0160208091040260200160405190810160405280929190818152602001828054610e0a90614c1e565b8015610e575780601f10610e2c57610100808354040283529160200191610e57565b820191906000526020600020905b815481529060010190602001808311610e3a57829003601f168201915b50505050509050919050565b6000600a6000858152602001908152602001600020600301541415610ebd576040517f08c379a0000000000000000000000000000000000000000000000000000000008152600401610eb4906146aa565b60405180910390fd5b606060005b826060015151811015610f43578183606001518281518110610ee757610ee6614d56565b5b6020026020010151604051602001610eff9190614512565b604051602081830303815290604052604051602001610f1f9291906144ee565b60405160208183030381529060405291508080610f3b90614c81565b915050610ec2565b5081600001518260200151836040015183604051602001610f679493929190614476565b604051602081830303815290604052805190602001208314610fbe576040517f08c379a0000000000000000000000000000000000000000000000000000000008152600401610fb59061474a565b60405180910390fd5b6008600084815260200190815260200160002060009054906101000a900460ff161561101f576040517f08c379a00000000000000000000000000000000000000000000000000000000081526004016110169061468a565b60405180910390fd5b61102a8585856131bf565b611069576040517f08c379a00000000000000000000000000000000000000000000000000000000081526004016110609061482a565b60405180910390fd5b60016008600085815260200190815260200160002060006101000a81548160ff0219169083151502179055508160026000846000015173ffffffffffffffffffffffffffffffffffffffff1673ffffffffffffffffffffffffffffffffffffffff16815260200190815260200160002060008201518160000160006101000a81548173ffffffffffffffffffffffffffffffffffffffff021916908373ffffffffffffffffffffffffffffffffffffffff16021790555060208201518160010160006101000a81548173ffffffffffffffffffffffffffffffffffffffff021916908373ffffffffffffffffffffffffffffffffffffffff16021790555060408201518160020190805190602001906111839291906133d9565b5060608201518160030190805190602001906111a092919061345f565b50905050600782600001519080600181540180825580915050600190039060005260206000200160009091909190916101000a81548173ffffffffffffffffffffffffffffffffffffffff021916908373ffffffffffffffffffffffffffffffffffffffff16021790555060056000836020015173ffffffffffffffffffffffffffffffffffffffff1673ffffffffffffffffffffffffffffffffffffffff16815260200190815260200160002082600001519080600181540180825580915050600190039060005260206000200160009091909190916101000a81548173ffffffffffffffffffffffffffffffffffffffff021916908373ffffffffffffffffffffffffffffffffffffffff1602179055508160200151600383604001516040516112cc9190614512565b908152602001604051809103902060006101000a81548173ffffffffffffffffffffffffffffffffffffffff021916908373ffffffffffffffffffffffffffffffffffffffff16021790555060005b82606001515181101561139057826040015160048460600151838151811061134657611345614d56565b5b602002602001015160405161135b9190614512565b9081526020016040518091039020908051906020019061137c9291906133d9565b50808061138890614c81565b91505061131b565b508160066000846020015173ffffffffffffffffffffffffffffffffffffffff1673ffffffffffffffffffffffffffffffffffffffff1681526020019081526020016000206000846000015173ffffffffffffffffffffffffffffffffffffffff1673ffffffffffffffffffffffffffffffffffffffff16815260200190815260200160002060008201518160000160006101000a81548173ffffffffffffffffffffffffffffffffffffffff021916908373ffffffffffffffffffffffffffffffffffffffff16021790555060208201518160010160006101000a81548173ffffffffffffffffffffffffffffffffffffffff021916908373ffffffffffffffffffffffffffffffffffffffff16021790555060408201518160020190805190602001906114c09291906133d9565b5060608201518160030190805190602001906114dd92919061345f565b509050507fb4b14803e95431523b47ec9e1931eb7405e4c5059375a2af55a17bfa9673a33b82604051611510919061486c565b60405180910390a15050505050565b6115276131d6565b73ffffffffffffffffffffffffffffffffffffffff16611545611c48565b73ffffffffffffffffffffffffffffffffffffffff161461159b576040517f08c379a0000000000000000000000000000000000000000000000000000000008152600401611592906147ea565b60405180910390fd5b8060018190555050565b600981815481106115b557600080fd5b90600052602060002090600402016000915090508060000154908060010154908060030154905083565b6115e7611c48565b73ffffffffffffffffffffffffffffffffffffffff166108fc479081150290604051600060405180830381858888f1935050505015801561162c573d6000803e3d6000fd5b50565b600a6020528060005260406000206000915090508060000154908060010154908060030154905083565b6003818051602081018201805184825260208301602085012081835280955050505050506000915054906101000a900473ffffffffffffffffffffffffffffffffffffffff1681565b6116aa6134bf565b600660008473ffffffffffffffffffffffffffffffffffffffff1673ffffffffffffffffffffffffffffffffffffffff16815260200190815260200160002060008373ffffffffffffffffffffffffffffffffffffffff1673ffffffffffffffffffffffffffffffffffffffff1681526020019081526020016000206040518060800160405290816000820160009054906101000a900473ffffffffffffffffffffffffffffffffffffffff1673ffffffffffffffffffffffffffffffffffffffff1673ffffffffffffffffffffffffffffffffffffffff1681526020016001820160009054906101000a900473ffffffffffffffffffffffffffffffffffffffff1673ffffffffffffffffffffffffffffffffffffffff1673ffffffffffffffffffffffffffffffffffffffff1681526020016002820180546117ed90614c1e565b80601f016020809104026020016040519081016040528092919081815260200182805461181990614c1e565b80156118665780601f1061183b57610100808354040283529160200191611866565b820191906000526020600020905b81548152906001019060200180831161184957829003601f168201915b5050505050815260200160038201805480602002602001604051908101604052809291908181526020016000905b828210156119405783829060005260206000200180546118b390614c1e565b80601f01602080910402602001604051908101604052809291908181526020018280546118df90614c1e565b801561192c5780601f106119015761010080835404028352916020019161192c565b820191906000526020600020905b81548152906001019060200180831161190f57829003601f168201915b505050505081526020019060010190611894565b5050505081525050905092915050565b6119586134bf565b600260008373ffffffffffffffffffffffffffffffffffffffff1673ffffffffffffffffffffffffffffffffffffffff1681526020019081526020016000206040518060800160405290816000820160009054906101000a900473ffffffffffffffffffffffffffffffffffffffff1673ffffffffffffffffffffffffffffffffffffffff1673ffffffffffffffffffffffffffffffffffffffff1681526020016001820160009054906101000a900473ffffffffffffffffffffffffffffffffffffffff1673ffffffffffffffffffffffffffffffffffffffff1673ffffffffffffffffffffffffffffffffffffffff168152602001600282018054611a5e90614c1e565b80601f0160208091040260200160405190810160405280929190818152602001828054611a8a90614c1e565b8015611ad75780601f10611aac57610100808354040283529160200191611ad7565b820191906000526020600020905b815481529060010190602001808311611aba57829003601f168201915b5050505050815260200160038201805480602002602001604051908101604052809291908181526020016000905b82821015611bb1578382906000526020600020018054611b2490614c1e565b80601f0160208091040260200160405190810160405280929190818152602001828054611b5090614c1e565b8015611b9d5780601f10611b7257610100808354040283529160200191611b9d565b820191906000526020600020905b815481529060010190602001808311611b8057829003601f168201915b505050505081526020019060010190611b05565b50505050815250509050919050565b611bc86131d6565b73ffffffffffffffffffffffffffffffffffffffff16611be6611c48565b73ffffffffffffffffffffffffffffffffffffffff1614611c3c576040517f08c379a0000000000000000000000000000000000000000000000000000000008152600401611c33906147ea565b60405180910390fd5b611c4660006131de565b565b60008060009054906101000a900473ffffffffffffffffffffffffffffffffffffffff16905090565b6004818051602081018201805184825260208301602085012081835280955050505050506000915090508054611ca690614c1e565b80601f0160208091040260200160405190810160405280929190818152602001828054611cd290614c1e565b8015611d1f5780601f10611cf457610100808354040283529160200191611d1f565b820191906000526020600020905b815481529060010190602001808311611d0257829003601f168201915b505050505081565b6000600382604051611d399190614512565b908152602001604051809103902060009054906101000a900473ffffffffffffffffffffffffffffffffffffffff169050919050565b611d776131d6565b73ffffffffffffffffffffffffffffffffffffffff16611d95611c48565b73ffffffffffffffffffffffffffffffffffffffff1614611deb576040517f08c379a0000000000000000000000000000000000000000000000000000000008152600401611de2906147ea565b60405180910390fd5b6000816060015114611e32576040517f08c379a0000000000000000000000000000000000000000000000000000000008152600401611e29906146ea565b60405180910390fd5b43816060018181525050600981908060018154018082558091505060019003906000526020600020906004020160009091909190915060008201518160000155602082015181600101556040820151816002019080519060200190611e98929190613513565b5060608201518160030155505060096001600980549050611eb99190614acf565b81548110611eca57611ec9614d56565b5b9060005260206000209060040201600a60008360200151815260200190815260200160002060008201548160000155600182015481600101556002820181600201908054611f19929190613560565b50600382015481600301559050507f338c8da578445c5e2907713cfd371cd34bd90f5c862773caae569216670337d781604051611f56919061484a565b60405180910390a150565b60015481565b6060600560008373ffffffffffffffffffffffffffffffffffffffff1673ffffffffffffffffffffffffffffffffffffffff16815260200190815260200160002080548060200260200160405190810160405280929190818152602001828054801561202857602002820191906000526020600020905b8160009054906101000a900473ffffffffffffffffffffffffffffffffffffffff1673ffffffffffffffffffffffffffffffffffffffff1681526020019060010190808311611fde575b50505050509050919050565b61203c6131d6565b73ffffffffffffffffffffffffffffffffffffffff1661205a611c48565b73ffffffffffffffffffffffffffffffffffffffff16146120b0576040517f08c379a00000000000000000000000000000000000000000000000000000000081526004016120a7906147ea565b60405180910390fd5b60005b81518110156126e85760066000600260008585815181106120d7576120d6614d56565b5b602002602001015173ffffffffffffffffffffffffffffffffffffffff1673ffffffffffffffffffffffffffffffffffffffff16815260200190815260200160002060010160009054906101000a900473ffffffffffffffffffffffffffffffffffffffff1673ffffffffffffffffffffffffffffffffffffffff1673ffffffffffffffffffffffffffffffffffffffff168152602001908152602001600020600083838151811061218c5761218b614d56565b5b602002602001015173ffffffffffffffffffffffffffffffffffffffff1673ffffffffffffffffffffffffffffffffffffffff168152602001908152602001600020600080820160006101000a81549073ffffffffffffffffffffffffffffffffffffffff02191690556001820160006101000a81549073ffffffffffffffffffffffffffffffffffffffff021916905560028201600061222d91906135b2565b60038201600061223d91906135f2565b505060036002600084848151811061225857612257614d56565b5b602002602001015173ffffffffffffffffffffffffffffffffffffffff1673ffffffffffffffffffffffffffffffffffffffff1681526020019081526020016000206002016040516122aa9190614529565b908152602001604051809103902060006101000a81549073ffffffffffffffffffffffffffffffffffffffff021916905560005b600260008484815181106122f5576122f4614d56565b5b602002602001015173ffffffffffffffffffffffffffffffffffffffff1673ffffffffffffffffffffffffffffffffffffffff1681526020019081526020016000206003018054905081101561260a5761255060046002600086868151811061236157612360614d56565b5b602002602001015173ffffffffffffffffffffffffffffffffffffffff1673ffffffffffffffffffffffffffffffffffffffff16815260200190815260200160002060030184815481106123b8576123b7614d56565b5b906000526020600020016040516123cf9190614529565b908152602001604051809103902080546123e890614c1e565b80601f016020809104026020016040519081016040528092919081815260200182805461241490614c1e565b80156124615780601f1061243657610100808354040283529160200191612461565b820191906000526020600020905b81548152906001019060200180831161244457829003601f168201915b50505050506002600086868151811061247d5761247c614d56565b5b602002602001015173ffffffffffffffffffffffffffffffffffffffff1673ffffffffffffffffffffffffffffffffffffffff16815260200190815260200160002060020180546124cd90614c1e565b80601f01602080910402602001604051908101604052809291908181526020018280546124f990614c1e565b80156125465780601f1061251b57610100808354040283529160200191612546565b820191906000526020600020905b81548152906001019060200180831161252957829003601f168201915b50505050506132a2565b156125f75760046002600085858151811061256e5761256d614d56565b5b602002602001015173ffffffffffffffffffffffffffffffffffffffff1673ffffffffffffffffffffffffffffffffffffffff16815260200190815260200160002060030183815481106125c5576125c4614d56565b5b906000526020600020016040516125dc9190614529565b908152602001604051809103902060006125f691906135b2565b5b808061260290614c81565b9150506122de565b506002600083838151811061262257612621614d56565b5b602002602001015173ffffffffffffffffffffffffffffffffffffffff1673ffffffffffffffffffffffffffffffffffffffff168152602001908152602001600020600080820160006101000a81549073ffffffffffffffffffffffffffffffffffffffff02191690556001820160006101000a81549073ffffffffffffffffffffffffffffffffffffffff02191690556002820160006126c391906135b2565b6003820160006126d391906135f2565b505080806126e090614c81565b9150506120b3565b5050565b6006602052816000526040600020602052806000526040600020600091509150508060000160009054906101000a900473ffffffffffffffffffffffffffffffffffffffff16908060010160009054906101000a900473ffffffffffffffffffffffffffffffffffffffff169080600201805461276890614c1e565b80601f016020809104026020016040519081016040528092919081815260200182805461279490614c1e565b80156127e15780601f106127b6576101008083540402835291602001916127e1565b820191906000526020600020905b8154815290600101906020018083116127c457829003601f168201915b5050505050905083565b600073ffffffffffffffffffffffffffffffffffffffff16600260008373ffffffffffffffffffffffffffffffffffffffff1673ffffffffffffffffffffffffffffffffffffffff16815260200190815260200160002060000160009054906101000a900473ffffffffffffffffffffffffffffffffffffffff1673ffffffffffffffffffffffffffffffffffffffff1614156128bd576040517f08c379a00000000000000000000000000000000000000000000000000000000081526004016128b4906147aa565b60405180910390fd5b60008190506000600260008473ffffffffffffffffffffffffffffffffffffffff1673ffffffffffffffffffffffffffffffffffffffff1681526020019081526020016000206040518060800160405290816000820160009054906101000a900473ffffffffffffffffffffffffffffffffffffffff1673ffffffffffffffffffffffffffffffffffffffff1673ffffffffffffffffffffffffffffffffffffffff1681526020016001820160009054906101000a900473ffffffffffffffffffffffffffffffffffffffff1673ffffffffffffffffffffffffffffffffffffffff1673ffffffffffffffffffffffffffffffffffffffff1681526020016002820180546129ca90614c1e565b80601f01602080910402602001604051908101604052809291908181526020018280546129f690614c1e565b8015612a435780601f10612a1857610100808354040283529160200191612a43565b820191906000526020600020905b815481529060010190602001808311612a2657829003601f168201915b5050505050815260200160038201805480602002602001604051908101604052809291908181526020016000905b82821015612b1d578382906000526020600020018054612a9090614c1e565b80601f0160208091040260200160405190810160405280929190818152602001828054612abc90614c1e565b8015612b095780601f10612ade57610100808354040283529160200191612b09565b820191906000526020600020905b815481529060010190602001808311612aec57829003601f168201915b505050505081526020019060010190612a71565b50505050815250509050806020015173ffffffffffffffffffffffffffffffffffffffff168273ffffffffffffffffffffffffffffffffffffffff1663bfe109286040518163ffffffff1660e01b815260040160206040518083038186803b158015612b8857600080fd5b505afa158015612b9c573d6000803e3d6000fd5b505050506040513d601f19601f82011682018060405250810190612bc09190613b0e565b73ffffffffffffffffffffffffffffffffffffffff16141580612c6f5750612c6e8273ffffffffffffffffffffffffffffffffffffffff16636c0360eb6040518163ffffffff1660e01b815260040160006040518083038186803b158015612c2757600080fd5b505afa158015612c3b573d6000803e3d6000fd5b505050506040513d6000823e3d601f19601f82011682018060405250810190612c649190613d19565b82604001516132a2565b5b1561301e5760066000826020015173ffffffffffffffffffffffffffffffffffffffff1673ffffffffffffffffffffffffffffffffffffffff1681526020019081526020016000206000826000015173ffffffffffffffffffffffffffffffffffffffff1673ffffffffffffffffffffffffffffffffffffffff168152602001908152602001600020600080820160006101000a81549073ffffffffffffffffffffffffffffffffffffffff02191690556001820160006101000a81549073ffffffffffffffffffffffffffffffffffffffff0219169055600282016000612d5791906135b2565b600382016000612d6791906135f2565b5050806020015173ffffffffffffffffffffffffffffffffffffffff1660038260400151604051612d989190614512565b908152602001604051809103902060009054906101000a900473ffffffffffffffffffffffffffffffffffffffff1673ffffffffffffffffffffffffffffffffffffffff161415612f6d5760038160400151604051612df79190614512565b908152602001604051809103902060006101000a81549073ffffffffffffffffffffffffffffffffffffffff021916905560005b816060015151811015612f6b57612f0a600483606001518381518110612e5457612e53614d56565b5b6020026020010151604051612e699190614512565b90815260200160405180910390208054612e8290614c1e565b80601f0160208091040260200160405190810160405280929190818152602001828054612eae90614c1e565b8015612efb5780601f10612ed057610100808354040283529160200191612efb565b820191906000526020600020905b815481529060010190602001808311612ede57829003601f168201915b505050505083604001516132a2565b15612f5857600482606001518281518110612f2857612f27614d56565b5b6020026020010151604051612f3d9190614512565b90815260200160405180910390206000612f5791906135b2565b5b8080612f6390614c81565b915050612e2b565b505b600260008473ffffffffffffffffffffffffffffffffffffffff1673ffffffffffffffffffffffffffffffffffffffff168152602001908152602001600020600080820160006101000a81549073ffffffffffffffffffffffffffffffffffffffff02191690556001820160006101000a81549073ffffffffffffffffffffffffffffffffffffffff021916905560028201600061300b91906135b2565b60038201600061301b91906135f2565b50505b505050565b61302b6131d6565b73ffffffffffffffffffffffffffffffffffffffff16613049611c48565b73ffffffffffffffffffffffffffffffffffffffff161461309f576040517f08c379a0000000000000000000000000000000000000000000000000000000008152600401613096906147ea565b60405180910390fd5b600073ffffffffffffffffffffffffffffffffffffffff168173ffffffffffffffffffffffffffffffffffffffff16141561310f576040517f08c379a0000000000000000000000000000000000000000000000000000000008152600401613106906146ca565b60405180910390fd5b613118816131de565b50565b6000808273ffffffffffffffffffffffffffffffffffffffff163b119050919050565b60007f697066733a2f2f516d000000000000000000000000000000000000000000000060405160200161317191906144bc565b604051602081830303815290604052805190602001208261319190614b75565b6040516020016131a191906144bc565b60405160208183030381529060405280519060200120149050919050565b6000826131cc85846132fb565b1490509392505050565b600033905090565b60008060009054906101000a900473ffffffffffffffffffffffffffffffffffffffff169050816000806101000a81548173ffffffffffffffffffffffffffffffffffffffff021916908373ffffffffffffffffffffffffffffffffffffffff1602179055508173ffffffffffffffffffffffffffffffffffffffff168173ffffffffffffffffffffffffffffffffffffffff167f8be0079c531659141344cd1fd0a4f28419497f9722a3daafe3b4186f6b6457e060405160405180910390a35050565b6000816040516020016132b591906144d7565b60405160208183030381529060405280519060200120836040516020016132dc91906144d7565b6040516020818303038152906040528051906020012014905092915050565b60008082905060005b845181101561336557600085828151811061332257613321614d56565b5b602002602001015190508083116133445761333d8382613370565b9250613351565b61334e8184613370565b92505b50808061335d90614c81565b915050613304565b508091505092915050565b600082600052816020526040600020905092915050565b60405180617d0001604052806103e890602082028036833780820191505090505090565b6040518060800160405280600080191681526020016000801916815260200160608152602001600081525090565b8280546133e590614c1e565b90600052602060002090601f016020900481019282613407576000855561344e565b82601f1061342057805160ff191683800117855561344e565b8280016001018555821561344e579182015b8281111561344d578251825591602001919060010190613432565b5b50905061345b9190613613565b5090565b8280548282559060005260206000209081019282156134ae579160200282015b828111156134ad57825182908051906020019061349d9291906133d9565b509160200191906001019061347f565b5b5090506134bb9190613630565b5090565b6040518060800160405280600073ffffffffffffffffffffffffffffffffffffffff168152602001600073ffffffffffffffffffffffffffffffffffffffff16815260200160608152602001606081525090565b82805482825590600052602060002090810192821561354f579160200282015b8281111561354e578251825591602001919060010190613533565b5b50905061355c9190613654565b5090565b8280548282559060005260206000209081019282156135a15760005260206000209182015b828111156135a0578254825591600101919060010190613585565b5b5090506135ae9190613654565b5090565b5080546135be90614c1e565b6000825580601f106135d057506135ef565b601f0160209004906000526020600020908101906135ee9190613613565b5b50565b50805460008255906000526020600020908101906136109190613630565b50565b5b8082111561362c576000816000905550600101613614565b5090565b5b80821115613650576000818161364791906135b2565b50600101613631565b5090565b5b8082111561366d576000816000905550600101613655565b5090565b600061368461367f846148ce565b6148a9565b905080838252602082019050828560208602820111156136a7576136a6614dd8565b5b60005b858110156136d757816136bd8882613863565b8452602084019350602083019250506001810190506136aa565b5050509392505050565b60006136f46136ef846148fa565b6148a9565b9050808382526020820190508285602086028201111561371757613716614dd8565b5b60005b85811015613747578161372d8882613917565b84526020840193506020830192505060018101905061371a565b5050509392505050565b600061376461375f84614926565b6148a9565b9050808382526020820190508285602086028201111561378757613786614dd8565b5b60005b858110156137d557813567ffffffffffffffff8111156137ad576137ac614dc9565b5b8086016137ba898261392c565b8552602085019450602084019350505060018101905061378a565b5050509392505050565b60006137f26137ed84614952565b6148a9565b90508281526020810184848401111561380e5761380d614ddd565b5b613819848285614bdc565b509392505050565b600061383461382f84614952565b6148a9565b9050828152602081018484840111156138505761384f614ddd565b5b61385b848285614beb565b509392505050565b600081359050613872816150a1565b92915050565b600081519050613887816150a1565b92915050565b600082601f8301126138a2576138a1614dc9565b5b81356138b2848260208601613671565b91505092915050565b600082601f8301126138d0576138cf614dc9565b5b81356138e08482602086016136e1565b91505092915050565b600082601f8301126138fe576138fd614dc9565b5b813561390e848260208601613751565b91505092915050565b600081359050613926816150b8565b92915050565b600082601f83011261394157613940614dc9565b5b81356139518482602086016137df565b91505092915050565b600082601f83011261396f5761396e614dc9565b5b815161397f848260208601613821565b91505092915050565b60006080828403121561399e5761399d614dce565b5b6139a860806148a9565b905060006139b884828501613917565b60008301525060206139cc84828501613917565b602083015250604082013567ffffffffffffffff8111156139f0576139ef614dd3565b5b6139fc848285016138bb565b6040830152506060613a1084828501613acc565b60608301525092915050565b600060808284031215613a3257613a31614dce565b5b613a3c60806148a9565b90506000613a4c84828501613863565b6000830152506020613a6084828501613863565b602083015250604082013567ffffffffffffffff811115613a8457613a83614dd3565b5b613a908482850161392c565b604083015250606082013567ffffffffffffffff811115613ab457613ab3614dd3565b5b613ac0848285016138e9565b60608301525092915050565b600081359050613adb816150cf565b92915050565b600060208284031215613af757613af6614de7565b5b6000613b0584828501613863565b91505092915050565b600060208284031215613b2457613b23614de7565b5b6000613b3284828501613878565b91505092915050565b60008060408385031215613b5257613b51614de7565b5b6000613b6085828601613863565b9250506020613b7185828601613863565b9150509250929050565b60008060408385031215613b9257613b91614de7565b5b6000613ba085828601613863565b9250506020613bb185828601613acc565b9150509250929050565b600060208284031215613bd157613bd0614de7565b5b600082013567ffffffffffffffff811115613bef57613bee614de2565b5b613bfb8482850161388d565b91505092915050565b60008060008060808587031215613c1e57613c1d614de7565b5b600085013567ffffffffffffffff811115613c3c57613c3b614de2565b5b613c48878288016138bb565b9450506020613c5987828801613917565b9350506040613c6a87828801613917565b925050606085013567ffffffffffffffff811115613c8b57613c8a614de2565b5b613c9787828801613a1c565b91505092959194509250565b600060208284031215613cb957613cb8614de7565b5b6000613cc784828501613917565b91505092915050565b600060208284031215613ce657613ce5614de7565b5b600082013567ffffffffffffffff811115613d0457613d03614de2565b5b613d108482850161392c565b91505092915050565b600060208284031215613d2f57613d2e614de7565b5b600082015167ffffffffffffffff811115613d4d57613d4c614de2565b5b613d598482850161395a565b91505092915050565b600060208284031215613d7857613d77614de7565b5b600082013567ffffffffffffffff811115613d9657613d95614de2565b5b613da284828501613988565b91505092915050565b600060208284031215613dc157613dc0614de7565b5b6000613dcf84828501613acc565b91505092915050565b60008060408385031215613def57613dee614de7565b5b6000613dfd85828601613acc565b9250506020613e0e85828601613acc565b9150509250929050565b6000613e248383613e5c565b60208301905092915050565b6000613e3c8383614019565b60208301905092915050565b6000613e54838361407f565b905092915050565b613e6581614b03565b82525050565b613e7481614b03565b82525050565b613e8b613e8682614b03565b614cca565b82525050565b613e9a816149e2565b613ea48184614a59565b9250613eaf82614983565b8060005b83811015613ee0578151613ec78782613e18565b9650613ed283614a25565b925050600181019050613eb3565b505050505050565b6000613ef3826149ee565b613efd8185614a64565b9350613f088361498d565b8060005b83811015613f39578151613f208882613e18565b9750613f2b83614a32565b925050600181019050613f0c565b5085935050505092915050565b6000613f51826149f9565b613f5b8185614a75565b9350613f668361499d565b8060005b83811015613f97578151613f7e8882613e30565b9750613f8983614a3f565b925050600181019050613f6a565b5085935050505092915050565b6000613faf82614a04565b613fb98185614a86565b935083602082028501613fcb856149ad565b8060005b858110156140075784840389528151613fe88582613e48565b9450613ff383614a4c565b925060208a01995050600181019050613fcf565b50829750879550505050505092915050565b61402281614b15565b82525050565b61403181614b15565b82525050565b61404861404382614b1f565b614cdc565b82525050565b600061405982614a0f565b6140638185614a97565b9350614073818560208601614beb565b80840191505092915050565b600061408a82614a1a565b6140948185614aa2565b93506140a4818560208601614beb565b6140ad81614dec565b840191505092915050565b60006140c382614a1a565b6140cd8185614ab3565b93506140dd818560208601614beb565b6140e681614dec565b840191505092915050565b60006140fc82614a1a565b6141068185614ac4565b9350614116818560208601614beb565b80840191505092915050565b6000815461412f81614c1e565b6141398186614ac4565b94506001821660008114614154576001811461416557614198565b60ff19831686528186019350614198565b61416e856149cd565b60005b8381101561419057815481890152600182019150602081019050614171565b838801955050505b50505092915050565b60006141ae601983614ab3565b91506141b982614e17565b602082019050919050565b60006141d1601783614ab3565b91506141dc82614e40565b602082019050919050565b60006141f4602683614ab3565b91506141ff82614e69565b604082019050919050565b6000614217601e83614ab3565b915061422282614eb8565b602082019050919050565b600061423a601c83614ab3565b915061424582614ee1565b602082019050919050565b600061425d601e83614ab3565b915061426882614f0a565b602082019050919050565b6000614280602083614ab3565b915061428b82614f33565b602082019050919050565b60006142a3601983614ab3565b91506142ae82614f5c565b602082019050919050565b60006142c6601983614ab3565b91506142d182614f85565b602082019050919050565b60006142e9601883614ab3565b91506142f482614fae565b602082019050919050565b600061430c602283614ab3565b915061431782614fd7565b604082019050919050565b600061432f602083614ab3565b915061433a82615026565b602082019050919050565b6000614352601183614ab3565b915061435d8261504f565b602082019050919050565b6000614375600d83614ab3565b915061438082615078565b602082019050919050565b60006080830160008301516143a36000860182614019565b5060208301516143b66020860182614019565b50604083015184820360408601526143ce8282613f46565b91505060608301516143e36060860182614458565b508091505092915050565b60006080830160008301516144066000860182613e5c565b5060208301516144196020860182613e5c565b5060408301518482036040860152614431828261407f565b9150506060830151848203606086015261444b8282613fa4565b9150508091505092915050565b61446181614b6b565b82525050565b61447081614b6b565b82525050565b60006144828287613e7a565b6014820191506144928286613e7a565b6014820191506144a282856140f1565b91506144ae828461404e565b915081905095945050505050565b60006144c88284614037565b60098201915081905092915050565b60006144e3828461404e565b915081905092915050565b60006144fa828561404e565b9150614506828461404e565b91508190509392505050565b600061451e82846140f1565b915081905092915050565b60006145358284614122565b915081905092915050565b60006020820190506145556000830184613e6b565b92915050565b60006060820190506145706000830186613e6b565b61457d6020830185613e6b565b818103604083015261458f81846140b8565b9050949350505050565b600060a0820190506145ae6000830188613e6b565b6145bb6020830187613e6b565b81810360408301526145cd81866140b8565b90506145dc6060830185614467565b6145e96080830184614467565b9695505050505050565b6000617d00820190506146096000830184613e91565b92915050565b600060208201905081810360008301526146298184613ee8565b905092915050565b60006060820190506146466000830186614028565b6146536020830185614028565b6146606040830184614467565b949350505050565b6000602082019050818103600083015261468281846140b8565b905092915050565b600060208201905081810360008301526146a3816141a1565b9050919050565b600060208201905081810360008301526146c3816141c4565b9050919050565b600060208201905081810360008301526146e3816141e7565b9050919050565b600060208201905081810360008301526147038161420a565b9050919050565b600060208201905081810360008301526147238161422d565b9050919050565b6000602082019050818103600083015261474381614250565b9050919050565b6000602082019050818103600083015261476381614273565b9050919050565b6000602082019050818103600083015261478381614296565b9050919050565b600060208201905081810360008301526147a3816142b9565b9050919050565b600060208201905081810360008301526147c3816142dc565b9050919050565b600060208201905081810360008301526147e3816142ff565b9050919050565b6000602082019050818103600083015261480381614322565b9050919050565b6000602082019050818103600083015261482381614345565b9050919050565b6000602082019050818103600083015261484381614368565b9050919050565b60006020820190508181036000830152614864818461438b565b905092915050565b6000602082019050818103600083015261488681846143ee565b905092915050565b60006020820190506148a36000830184614467565b92915050565b60006148b36148c4565b90506148bf8282614c50565b919050565b6000604051905090565b600067ffffffffffffffff8211156148e9576148e8614d85565b5b602082029050602081019050919050565b600067ffffffffffffffff82111561491557614914614d85565b5b602082029050602081019050919050565b600067ffffffffffffffff82111561494157614940614d85565b5b602082029050602081019050919050565b600067ffffffffffffffff82111561496d5761496c614d85565b5b61497682614dec565b9050602081019050919050565b6000819050919050565b6000819050602082019050919050565b6000819050602082019050919050565b6000819050602082019050919050565b6000819050602082019050919050565b60008190508160005260206000209050919050565b60006103e89050919050565b600081519050919050565b600081519050919050565b600081519050919050565b600081519050919050565b600081519050919050565b6000602082019050919050565b6000602082019050919050565b6000602082019050919050565b6000602082019050919050565b600081905092915050565b600082825260208201905092915050565b600082825260208201905092915050565b600082825260208201905092915050565b600081905092915050565b600082825260208201905092915050565b600082825260208201905092915050565b600081905092915050565b6000614ada82614b6b565b9150614ae583614b6b565b925082821015614af857614af7614cf8565b5b828203905092915050565b6000614b0e82614b4b565b9050919050565b6000819050919050565b60007fffffffffffffffffff000000000000000000000000000000000000000000000082169050919050565b600073ffffffffffffffffffffffffffffffffffffffff82169050919050565b6000819050919050565b6000614b8082614a0f565b82614b8a846149bd565b9050614b9581614db4565b92506009821015614bd557614bd07fffffffffffffffffff000000000000000000000000000000000000000000000083600903600802614e0a565b831692505b5050919050565b82818337600083830152505050565b60005b83811015614c09578082015181840152602081019050614bee565b83811115614c18576000848401525b50505050565b60006002820490506001821680614c3657607f821691505b60208210811415614c4a57614c49614d27565b5b50919050565b614c5982614dec565b810181811067ffffffffffffffff82111715614c7857614c77614d85565b5b80604052505050565b6000614c8c82614b6b565b91507fffffffffffffffffffffffffffffffffffffffffffffffffffffffffffffffff821415614cbf57614cbe614cf8565b5b600182019050919050565b6000614cd582614ce6565b9050919050565b6000819050919050565b6000614cf182614dfd565b9050919050565b7f4e487b7100000000000000000000000000000000000000000000000000000000600052601160045260246000fd5b7f4e487b7100000000000000000000000000000000000000000000000000000000600052602260045260246000fd5b7f4e487b7100000000000000000000000000000000000000000000000000000000600052603260045260246000fd5b7f4e487b7100000000000000000000000000000000000000000000000000000000600052604160045260246000fd5b6000614dc08251614b1f565b80915050919050565b600080fd5b600080fd5b600080fd5b600080fd5b600080fd5b600080fd5b600080fd5b6000601f19601f8301169050919050565b60008160601b9050919050565b600082821b905092915050565b7f4e46542077617320616c72656164792076657269666965642e00000000000000600082015250565b7f496e76616c6964206e667420726f6f7420676976656e2e000000000000000000600082015250565b7f4f776e61626c653a206e6577206f776e657220697320746865207a65726f206160008201527f6464726573730000000000000000000000000000000000000000000000000000602082015250565b7f496e76616c6964205f626c6f636b20696e697469616c697a6174696f6e2e0000600082015250565b7f496e636f72726563742070726566697820696e205f6261736555524900000000600082015250565b7f4e465420636f6e747261637420616c72656164792076657269666965642e0000600082015250565b7f476976656e205f6c65616620646f6573206e6f74206d61746368205f6e66742e600082015250565b7f496e636f7272656374205f62617365555249206c656e67746800000000000000600082015250565b7f53656e646572206d757374206265206120636f6e747261637400000000000000600082015250565b7f436f6e74726163742069736e27742076657269666965642e0000000000000000600082015250565b7f42617365205552492068617320616c7265616479206265656e20636c61696d6560008201527f642e000000000000000000000000000000000000000000000000000000000000602082015250565b7f4f776e61626c653a2063616c6c6572206973206e6f7420746865206f776e6572600082015250565b7f496e76616c69642052657175657374202e000000000000000000000000000000600082015250565b7f496e76616c69642050726f6f6600000000000000000000000000000000000000600082015250565b6150aa81614b03565b81146150b557600080fd5b50565b6150c181614b15565b81146150cc57600080fd5b50565b6150d881614b6b565b81146150e357600080fd5b5056fea2646970667358221220df89bb2ca85e0e1b898dcd35d8d28d5cec8d59170b1415c89e1d84af81a5f97464736f6c63430008050033",
  "immutableReferences": {},
  "source": "// SPDX-License-Identifier: BUSL-1.1\npragma solidity ^0.8.5;\n\nimport \"@openzeppelin/contracts/access/Ownable.sol\";\n\nimport \"@openzeppelin/contracts/utils/cryptography/MerkleProof.sol\";\n\nimport \"./RatioSingleNFT.sol\";\n\nimport \"@openzeppelin/contracts/utils/Address.sol\";\n\n// Contract to verify nft contracts.\ncontract ProtocolNFT is Ownable {\n\n    // minimum amount to be paid for verificaiton/hosting.\n    uint public minimumRequestValue;\n\n    // mapping to determine NFT of contract.\n    mapping(address => nftStruct) contractNFT;\n\n    // mapping to determine distributor of a baseURI;\n    mapping(string => address) public baseURIdistributor;\n\n    // mapping to determine baseURI of a subURI;\n    mapping(string => string) public subURIsBaseURI;\n\n    // mapping to determine all contracts verified at one time to a distributor. \n    // WARNING! array may contain contracts containing subURIs not distributed by distributor. \n    // distributorNFT will determine if the distributor is the rightful distributor of the NFT!\n    mapping(address => address[]) public distributorContracts; \n\n    // mapping to return an nft given the distributor and baseURI;\n    mapping(address => mapping(address => nftStruct)) public distributorNFT;\n\n    // Array to hold all nfts contracts verified at one time.\n    // WARNING! array may contain contracts no longer verified.\n    address[] public nftContracts;\n\n    // mapping to hold nft leafs that have been verified.\n    mapping(bytes32 => bool) nftVerified;\n\n    // Structure to hold NFT data.\n    struct nftStruct{\n        address _contract;\n        address _distributor;\n        string _baseURI;\n        string[] _subURIs;\n    }\n\n    // struct to hold nftBlock variables.\n    struct nftBlock{\n        bytes32 _prev;\n        bytes32 _root;\n        bytes32[] _leaves;\n        uint _block;\n        //address _validator;\n        //address _next;\n    }\n\n    // NFT blockchain...\n    nftBlock[] public nftBlocks;\n\n    // Mapping of block roots to blocks.\n    mapping(bytes32 => nftBlock) public blockMap;\n\n    // Event emitted when a new nft block is submitted.\n    event blockSubmited(nftBlock _block);\n\n    // Event emitted when a verification request is submitted.\n    event verificationRequest(address _contract, address _distributor, string _baseURI, uint _block, uint _value);\n\n    // Event emitted when an nft has been verifed!\n    event verified(nftStruct _nft);\n\n    // Constructor\n    constructor(uint _minimumRequestValue){\n        minimumRequestValue = _minimumRequestValue;\n        nftBlock memory n = nftBlock(bytes32(0), bytes32(0) , new bytes32[](0), block.number);\n        nftBlocks.push(n);\n    }\n    \n    // Function to requets verificaition of NFT \n    function requestVerification() public payable{\n\n        // Creating RatioSingleNFT contract from requester.\n        RatioSingleNFT ratioNFT = RatioSingleNFT(msg.sender);\n\n        // \n        require(msg.value >= minimumRequestValue, \"Invalid Request .\");\n\n        require(Address.isContract(msg.sender), \"Sender must be a contract\");\n        \n        require(contractNFT[msg.sender]._contract == address(0), \"NFT contract already verified.\");\n\n        require(baseURIdistributor[ratioNFT.baseURI()] == address(0), \"Base URI has already been claimed.\");\n\n        require(bytes(ratioNFT.baseURI()).length == 53, \"Incorrect _baseURI length\");\n\n        require(uriPrefix(ratioNFT.baseURI()), \"Incorrect prefix in _baseURI\");\n\n        emit verificationRequest(msg.sender, ratioNFT.distributor() , ratioNFT.baseURI(), block.number, msg.value);\n    }\n\n    // Function to verify a nft of behalf of Ratio Labs.\n    function verifyNFT(bytes32[] memory _proof, bytes32 _root, bytes32 _leaf, nftStruct memory _nft) public{\n        // require the _root to exist.\n        require(blockMap[_root]._block != 0, \"Invalid nft root given.\");\n\n        // calculate sub URI encoding.\n        bytes memory encoded;\n        for (uint i = 0; i < _nft._subURIs.length; i++) {\n            encoded = bytes.concat(\n                encoded,\n                abi.encodePacked(_nft._subURIs[i])\n            );\n        }\n        // require _leaf hash to match _nft hash.\n        require(_leaf == keccak256(abi.encodePacked(_nft._contract, _nft._distributor, _nft._baseURI, encoded)), \"Given _leaf does not match _nft.\");\n        // require _nft is not already verified.\n        require(!nftVerified[_leaf], \"NFT was already verified.\");\n        // require _nft is within _root .\n        require(MerkleProof.verify(_proof, _root, _leaf), \"Invalid Proof\");\n\n        // Verify and Store NFT info.\n        nftVerified[_leaf] = true;\n\n        // Set contracts NFT;\n        contractNFT[_nft._contract] = _nft;\n\n        // Push nft contract address into nftContracts array.\n        nftContracts.push(_nft._contract);\n\n        // Push contract address into distributor distributorContracts.\n        distributorContracts[_nft._distributor].push(_nft._contract);\n\n        // Set baseURIs distributor.\n        baseURIdistributor[_nft._baseURI] = _nft._distributor;\n\n        // Set subURIs baseURI\n        for(uint i = 0; i < _nft._subURIs.length; i++){\n            subURIsBaseURI[_nft._subURIs[i]] = _nft._baseURI;\n        }\n\n        // Set contract nft;\n        distributorNFT[_nft._distributor][_nft._contract] = _nft;\n        \n        // Emit verified event.\n        emit verified(_nft);\n    }\n\n    // Function to submit nft blocks for verified NFTs.\n    function submitBlock(nftBlock memory _block) public onlyOwner{\n        require(_block._block == 0, \"Invalid _block initialization.\");\n        _block._block = block.number;\n        nftBlocks.push(_block);\n        blockMap[_block._root] = nftBlocks[nftBlocks.length-1];\n        emit blockSubmited(_block);\n    }\n\n    // Function to _slashNFTs via Oracle\n    function _slashNFTs(address[] memory _contracts) public onlyOwner{\n        for(uint i = 0; i < _contracts.length; i++){\n            delete distributorNFT[contractNFT[_contracts[i]]._distributor][_contracts[i]];\n            delete baseURIdistributor[contractNFT[_contracts[i]]._baseURI];\n            for(uint j = 0; j < contractNFT[_contracts[i]]._subURIs.length; j++){\n                // Condition to determine if the suburi has already been reset, if not reset delete.\n                if(compareStrings(subURIsBaseURI[contractNFT[_contracts[i]]._subURIs[i]], contractNFT[_contracts[i]]._baseURI) ){\n                    delete subURIsBaseURI[contractNFT[_contracts[i]]._subURIs[i]];\n                }  \n            }\n            delete contractNFT[_contracts[i]];\n        }\n    }\n\n    // Function to slashNFT via public\n    function slashNFT(address _contract) public{\n        require(contractNFT[_contract]._contract != address(0), \"Contract isn't verified.\");\n        RatioSingleNFT rNFT = RatioSingleNFT(_contract);\n        nftStruct memory nStruct = contractNFT[_contract];\n        if(rNFT.distributor() != nStruct._distributor || compareStrings(rNFT.baseURI(), nStruct._baseURI)){\n            delete distributorNFT[nStruct._distributor][nStruct._contract];\n            if(baseURIdistributor[nStruct._baseURI] == nStruct._distributor){\n                delete baseURIdistributor[nStruct._baseURI];\n                for(uint i = 0; i < nStruct._subURIs.length; i++){\n                    if(compareStrings(subURIsBaseURI[nStruct._subURIs[i]], nStruct._baseURI)){\n                        delete subURIsBaseURI[nStruct._subURIs[i]];\n                    }  \n                }\n            }\n            delete contractNFT[_contract];\n        }\n    }\n\n    /**  \n    *** User Helper Functions\n    **/\n    \n    // Function to return latestBlock\n    function latestBlock() public view returns(nftBlock memory _block){\n        return nftBlocks[nftBlocks.length - 1];\n    }\n\n    function getContractNFT(address _contract) public view returns( nftStruct memory _nft){\n        return contractNFT[_contract];\n    }\n\n    function getBaseURIdistributor(string memory _baseURI) public view returns(address _distributor){\n        return baseURIdistributor[_baseURI];\n    }\n\n    function getSubURIsBaseURI(string memory _subURI) public view returns(string memory _baseURI){\n        return subURIsBaseURI[_subURI];\n    }\n\n    function getDistributorContracts(address _distributor) public view returns(address[] memory _contracts){\n        return distributorContracts[_distributor];\n    }\n\n    function getDistributorNFT(address _distributor, address _contract) public view returns(nftStruct memory _nft){\n        return distributorNFT[_distributor][_contract];\n    }\n\n    /**  \n    *** Contract Helper Functions\n    **/\n\n    function uriPrefix(string memory _baseURI) internal pure returns(bool){\n        return  keccak256( abi.encodePacked( bytes9( bytes(_baseURI) ) ) ) == keccak256( abi.encodePacked( bytes9(\"ipfs://Qm\") ) ) ;\n    }\n\n    function compareStrings(string memory _a, string memory _b) internal pure returns(bool){\n        return keccak256( abi.encodePacked( bytes(_a) ) )  == keccak256( abi.encodePacked( bytes(_b) ) );\n    }\n\n    /**  \n    *** Owner Helper Functions\n    **/\n\n    function getContracts(uint _start, uint _end) public view returns(address[1000] memory _contracts){\n        uint n = 0;\n        for(uint i = _start; i <= _end; i++)\n        {\n            _contracts[n] = nftContracts[i];\n            n++;\n        }\n    }\n\n    function modifyRequestValue(uint _val) public onlyOwner{\n        minimumRequestValue = _val;\n    }\n\n    function claim() public{\n        payable(owner()).transfer(address(this).balance);\n    }\n \n}",
  "sourcePath": "/home/stephenstb/Ratio/ratio/contracts/ProtocolNFT/ProtocolNFT.sol",
  "compiler": {
    "name": "solc",
    "version": "0.8.5+commit.a4f2e591.Emscripten.clang"
  },
  "schemaVersion": "3.3.3",
  "updatedAt": "2022-04-23T03:26:14.988Z",
  "devdoc": {
    "kind": "dev",
    "methods": {
      "owner()": {
        "details": "Returns the address of the current owner."
      },
      "renounceOwnership()": {
        "details": "Leaves the contract without owner. It will not be possible to call `onlyOwner` functions anymore. Can only be called by the current owner. NOTE: Renouncing ownership will leave the contract without an owner, thereby removing any functionality that is only available to the owner."
      },
      "transferOwnership(address)": {
        "details": "Transfers ownership of the contract to a new account (`newOwner`). Can only be called by the current owner."
      }
    },
    "version": 1
  },
  "userdoc": {
    "kind": "user",
    "methods": {
      "getContracts(uint256,uint256)": {
        "notice": "*** Owner Helper Functions*"
      },
      "latestBlock()": {
        "notice": "*** User Helper Functions*"
      }
    },
    "version": 1
  }
}