{
  "contractName": "ProtocolNFT",
  "abi": [
    {
      "inputs": [
        {
          "internalType": "uint256",
          "name": "_minimumRequestValue",
          "type": "uint256"
        }
      ],
      "stateMutability": "nonpayable",
      "type": "constructor"
    },
    {
      "anonymous": false,
      "inputs": [
        {
          "indexed": true,
          "internalType": "address",
          "name": "previousOwner",
          "type": "address"
        },
        {
          "indexed": true,
          "internalType": "address",
          "name": "newOwner",
          "type": "address"
        }
      ],
      "name": "OwnershipTransferred",
      "type": "event"
    },
    {
      "anonymous": false,
      "inputs": [
        {
          "indexed": false,
          "internalType": "bool",
          "name": "_proof",
          "type": "bool"
        }
      ],
      "name": "proof",
      "type": "event"
    },
    {
      "anonymous": false,
      "inputs": [
        {
          "indexed": false,
          "internalType": "bytes32",
          "name": "_root",
          "type": "bytes32"
        },
        {
          "indexed": false,
          "internalType": "uint256",
          "name": "_block",
          "type": "uint256"
        }
      ],
      "name": "rootSubmited",
      "type": "event"
    },
    {
      "anonymous": false,
      "inputs": [
        {
          "indexed": false,
          "internalType": "address",
          "name": "_contract",
          "type": "address"
        },
        {
          "indexed": false,
          "internalType": "address",
          "name": "_distributor",
          "type": "address"
        },
        {
          "indexed": false,
          "internalType": "string",
          "name": "_baseURI",
          "type": "string"
        },
        {
          "indexed": false,
          "internalType": "uint256",
          "name": "_block",
          "type": "uint256"
        },
        {
          "indexed": false,
          "internalType": "uint256",
          "name": "_value",
          "type": "uint256"
        }
      ],
      "name": "verificationRequest",
      "type": "event"
    },
    {
      "anonymous": false,
      "inputs": [
        {
          "components": [
            {
              "internalType": "address",
              "name": "_contract",
              "type": "address"
            },
            {
              "internalType": "address",
              "name": "_distributor",
              "type": "address"
            },
            {
              "internalType": "string",
              "name": "_baseURI",
              "type": "string"
            },
            {
              "internalType": "string[]",
              "name": "_subURIs",
              "type": "string[]"
            }
          ],
          "indexed": false,
          "internalType": "struct ProtocolNFT.nftStruct",
          "name": "_nft",
          "type": "tuple"
        }
      ],
      "name": "verified",
      "type": "event"
    },
    {
      "inputs": [],
      "name": "minimumRequestValue",
      "outputs": [
        {
          "internalType": "uint256",
          "name": "",
          "type": "uint256"
        }
      ],
      "stateMutability": "view",
      "type": "function"
    },
    {
      "inputs": [],
      "name": "owner",
      "outputs": [
        {
          "internalType": "address",
          "name": "",
          "type": "address"
        }
      ],
      "stateMutability": "view",
      "type": "function"
    },
    {
      "inputs": [],
      "name": "renounceOwnership",
      "outputs": [],
      "stateMutability": "nonpayable",
      "type": "function"
    },
    {
      "inputs": [
        {
          "internalType": "address",
          "name": "newOwner",
          "type": "address"
        }
      ],
      "name": "transferOwnership",
      "outputs": [],
      "stateMutability": "nonpayable",
      "type": "function"
    },
    {
      "inputs": [
        {
          "internalType": "bytes32",
          "name": "_root",
          "type": "bytes32"
        }
      ],
      "name": "submitRoot",
      "outputs": [],
      "stateMutability": "nonpayable",
      "type": "function"
    },
    {
      "inputs": [
        {
          "internalType": "string",
          "name": "_baseURI",
          "type": "string"
        }
      ],
      "name": "requestVerification",
      "outputs": [],
      "stateMutability": "payable",
      "type": "function"
    },
    {
      "inputs": [
        {
          "internalType": "bytes32[]",
          "name": "_proof",
          "type": "bytes32[]"
        },
        {
          "internalType": "bytes32",
          "name": "_root",
          "type": "bytes32"
        },
        {
          "internalType": "bytes32",
          "name": "_leaf",
          "type": "bytes32"
        },
        {
          "components": [
            {
              "internalType": "address",
              "name": "_contract",
              "type": "address"
            },
            {
              "internalType": "address",
              "name": "_distributor",
              "type": "address"
            },
            {
              "internalType": "string",
              "name": "_baseURI",
              "type": "string"
            },
            {
              "internalType": "string[]",
              "name": "_subURIs",
              "type": "string[]"
            }
          ],
          "internalType": "struct ProtocolNFT.nftStruct",
          "name": "_nft",
          "type": "tuple"
        }
      ],
      "name": "verifyNFT",
      "outputs": [],
      "stateMutability": "nonpayable",
      "type": "function"
    },
    {
      "inputs": [
        {
          "internalType": "bytes32",
          "name": "_root",
          "type": "bytes32"
        },
        {
          "internalType": "bytes32",
          "name": "_leaf",
          "type": "bytes32"
        },
        {
          "internalType": "bytes32[]",
          "name": "_proof",
          "type": "bytes32[]"
        },
        {
          "components": [
            {
              "internalType": "address",
              "name": "_contract",
              "type": "address"
            },
            {
              "internalType": "address",
              "name": "_distributor",
              "type": "address"
            },
            {
              "internalType": "string",
              "name": "_baseURI",
              "type": "string"
            },
            {
              "internalType": "string[]",
              "name": "_subURIs",
              "type": "string[]"
            }
          ],
          "internalType": "struct ProtocolNFT.nftStruct",
          "name": "leaf",
          "type": "tuple"
        }
      ],
      "name": "verifyProofTest",
      "outputs": [],
      "stateMutability": "nonpayable",
      "type": "function"
    },
    {
      "inputs": [
        {
          "internalType": "string",
          "name": "_baseURI",
          "type": "string"
        }
      ],
      "name": "uriPrefix",
      "outputs": [
        {
          "internalType": "bool",
          "name": "",
          "type": "bool"
        }
      ],
      "stateMutability": "pure",
      "type": "function"
    },
    {
      "inputs": [],
      "name": "claimVerificationValue",
      "outputs": [],
      "stateMutability": "nonpayable",
      "type": "function"
    }
  ],
  "bytecode": "0x60806040523480156200001157600080fd5b50604051620023f6380380620023f6833981810160405281019062000037919062000148565b620000576200004b6200006560201b60201c565b6200006d60201b60201c565b8060018190555050620001a3565b600033905090565b60008060009054906101000a900473ffffffffffffffffffffffffffffffffffffffff169050816000806101000a81548173ffffffffffffffffffffffffffffffffffffffff021916908373ffffffffffffffffffffffffffffffffffffffff1602179055508173ffffffffffffffffffffffffffffffffffffffff168173ffffffffffffffffffffffffffffffffffffffff167f8be0079c531659141344cd1fd0a4f28419497f9722a3daafe3b4186f6b6457e060405160405180910390a35050565b600081519050620001428162000189565b92915050565b60006020828403121562000161576200016062000184565b5b6000620001718482850162000131565b91505092915050565b6000819050919050565b600080fd5b62000194816200017a565b8114620001a057600080fd5b50565b61224380620001b36000396000f3fe6080604052600436106100915760003560e01c8063bee03c7a11610059578063bee03c7a14610134578063bf5f6a201461015f578063c2f4007a14610188578063d33a28b2146101c5578063f2fde38b146101ee57610091565b80632616fa921461009657806332155fa5146100ad5780636cbff42a146100d6578063715018a6146100f25780638da5cb5b14610109575b600080fd5b3480156100a257600080fd5b506100ab610217565b005b3480156100b957600080fd5b506100d460048036038101906100cf9190611323565b610267565b005b6100f060048036038101906100eb919061148e565b61070b565b005b3480156100fe57600080fd5b506101076109b7565b005b34801561011557600080fd5b5061011e610a3f565b60405161012b9190611954565b60405180910390f35b34801561014057600080fd5b50610149610a68565b6040516101569190611b6f565b60405180910390f35b34801561016b57600080fd5b50610186600480360381019061018191906113ef565b610a6e565b005b34801561019457600080fd5b506101af60048036038101906101aa919061148e565b610ab5565b6040516101bc91906119c9565b60405180910390f35b3480156101d157600080fd5b506101ec60048036038101906101e791906113c2565b610b36565b005b3480156101fa57600080fd5b50610215600480360381019061021091906112c9565b610c2f565b005b61021f610a3f565b73ffffffffffffffffffffffffffffffffffffffff166108fc479081150290604051600060405180830381858888f19350505050158015610264573d6000803e3d6000fd5b50565b6000600560008581526020019081526020016000205414156102be576040517f08c379a00000000000000000000000000000000000000000000000000000000081526004016102b590611a2d565b60405180910390fd5b606060005b8260600151518110156103445781836060015182815181106102e8576102e7611f38565b5b6020026020010151604051602001610300919061193d565b604051602081830303815290604052604051602001610320929190611919565b6040516020818303038152906040529150808061033c90611e59565b9150506102c3565b5081600001518260200151836040015183604051602001610368949392919061188c565b6040516020818303038152906040528051906020012083146103bf576040517f08c379a00000000000000000000000000000000000000000000000000000000081526004016103b690611a8d565b60405180910390fd5b6004600084815260200190815260200160002060009054906101000a900460ff1615610420576040517f08c379a000000000000000000000000000000000000000000000000000000000815260040161041790611a0d565b60405180910390fd5b61042b858585610d27565b61046a576040517f08c379a000000000000000000000000000000000000000000000000000000000815260040161046190611b2d565b60405180910390fd5b60016004600085815260200190815260200160002060006101000a81548160ff0219169083151502179055508160200151600283604001516040516104af919061193d565b908152602001604051809103902060006101000a81548173ffffffffffffffffffffffffffffffffffffffff021916908373ffffffffffffffffffffffffffffffffffffffff16021790555060005b82606001515181101561059d57826020015160028460600151838151811061052957610528611f38565b5b602002602001015160405161053e919061193d565b908152602001604051809103902060006101000a81548173ffffffffffffffffffffffffffffffffffffffff021916908373ffffffffffffffffffffffffffffffffffffffff160217905550808061059590611e59565b9150506104fe565b508160036000846020015173ffffffffffffffffffffffffffffffffffffffff1673ffffffffffffffffffffffffffffffffffffffff16815260200190815260200160002083604001516040516105f4919061193d565b908152602001604051809103902060008201518160000160006101000a81548173ffffffffffffffffffffffffffffffffffffffff021916908373ffffffffffffffffffffffffffffffffffffffff16021790555060208201518160010160006101000a81548173ffffffffffffffffffffffffffffffffffffffff021916908373ffffffffffffffffffffffffffffffffffffffff16021790555060408201518160020190805190602001906106ac929190610ea9565b5060608201518160030190805190602001906106c9929190610f2f565b509050507fb4b14803e95431523b47ec9e1931eb7405e4c5059375a2af55a17bfa9673a33b826040516106fc9190611b4d565b60405180910390a15050505050565b600154341015610750576040517f08c379a000000000000000000000000000000000000000000000000000000000815260040161074790611b0d565b60405180910390fd5b600073ffffffffffffffffffffffffffffffffffffffff16600282604051610778919061193d565b908152602001604051809103902060009054906101000a900473ffffffffffffffffffffffffffffffffffffffff1673ffffffffffffffffffffffffffffffffffffffff16146107fd576040517f08c379a00000000000000000000000000000000000000000000000000000000081526004016107f490611acd565b60405180910390fd5b6035815114610841576040517f08c379a000000000000000000000000000000000000000000000000000000000815260040161083890611aad565b60405180910390fd5b7f697066733a2f2f516d000000000000000000000000000000000000000000000060405160200161087291906118fe565b604051602081830303815290604052805190602001208161089290611d4d565b6040516020016108a291906118fe565b60405160208183030381529060405280519060200120146108f8576040517f08c379a00000000000000000000000000000000000000000000000000000000081526004016108ef90611a6d565b60405180910390fd5b7f6cc092d02e0110e7e73d678ffb5677ed15086310c26ac8fdbb48d2434e03bcf8333373ffffffffffffffffffffffffffffffffffffffff16638da5cb5b6040518163ffffffff1660e01b815260040160206040518083038186803b15801561096057600080fd5b505afa158015610974573d6000803e3d6000fd5b505050506040513d601f19601f8201168201806040525081019061099891906112f6565b8343346040516109ac95949392919061196f565b60405180910390a150565b6109bf610ddd565b73ffffffffffffffffffffffffffffffffffffffff166109dd610a3f565b73ffffffffffffffffffffffffffffffffffffffff1614610a33576040517f08c379a0000000000000000000000000000000000000000000000000000000008152600401610a2a90611aed565b60405180910390fd5b610a3d6000610de5565b565b60008060009054906101000a900473ffffffffffffffffffffffffffffffffffffffff16905090565b60015481565b7f64b024aee43c89a3e80e5ec7e76618fc8bb25712d8d1e1fffd2e2ed345f114e7610a9a838686610d27565b604051610aa791906119c9565b60405180910390a150505050565b60007f697066733a2f2f516d0000000000000000000000000000000000000000000000604051602001610ae891906118fe565b6040516020818303038152906040528051906020012082610b0890611d4d565b604051602001610b1891906118fe565b60405160208183030381529060405280519060200120149050919050565b610b3e610ddd565b73ffffffffffffffffffffffffffffffffffffffff16610b5c610a3f565b73ffffffffffffffffffffffffffffffffffffffff1614610bb2576040517f08c379a0000000000000000000000000000000000000000000000000000000008152600401610ba990611aed565b60405180910390fd5b60068190806001815401808255809150506001900390600052602060002001600090919091909150554360056000838152602001908152602001600020819055507f1679ca859bb9cd302355469c984c89cf07cca45deea3b252032353e9baeb6d328143604051610c249291906119e4565b60405180910390a150565b610c37610ddd565b73ffffffffffffffffffffffffffffffffffffffff16610c55610a3f565b73ffffffffffffffffffffffffffffffffffffffff1614610cab576040517f08c379a0000000000000000000000000000000000000000000000000000000008152600401610ca290611aed565b60405180910390fd5b600073ffffffffffffffffffffffffffffffffffffffff168173ffffffffffffffffffffffffffffffffffffffff161415610d1b576040517f08c379a0000000000000000000000000000000000000000000000000000000008152600401610d1290611a4d565b60405180910390fd5b610d2481610de5565b50565b60008082905060005b8551811015610dcf576000868281518110610d4e57610d4d611f38565b5b60200260200101519050808311610d8f578281604051602001610d729291906118d2565b604051602081830303815290604052805190602001209250610dbb565b8083604051602001610da29291906118d2565b6040516020818303038152906040528051906020012092505b508080610dc790611e59565b915050610d30565b508381149150509392505050565b600033905090565b60008060009054906101000a900473ffffffffffffffffffffffffffffffffffffffff169050816000806101000a81548173ffffffffffffffffffffffffffffffffffffffff021916908373ffffffffffffffffffffffffffffffffffffffff1602179055508173ffffffffffffffffffffffffffffffffffffffff168173ffffffffffffffffffffffffffffffffffffffff167f8be0079c531659141344cd1fd0a4f28419497f9722a3daafe3b4186f6b6457e060405160405180910390a35050565b828054610eb590611df6565b90600052602060002090601f016020900481019282610ed75760008555610f1e565b82601f10610ef057805160ff1916838001178555610f1e565b82800160010185558215610f1e579182015b82811115610f1d578251825591602001919060010190610f02565b5b509050610f2b9190610f8f565b5090565b828054828255906000526020600020908101928215610f7e579160200282015b82811115610f7d578251829080519060200190610f6d929190610ea9565b5091602001919060010190610f4f565b5b509050610f8b9190610fac565b5090565b5b80821115610fa8576000816000905550600101610f90565b5090565b5b80821115610fcc5760008181610fc39190610fd0565b50600101610fad565b5090565b508054610fdc90611df6565b6000825580601f10610fee575061100d565b601f01602090049060005260206000209081019061100c9190610f8f565b5b50565b600061102361101e84611baf565b611b8a565b9050808382526020820190508285602086028201111561104657611045611fba565b5b60005b85811015611076578161105c88826111d6565b845260208401935060208301925050600181019050611049565b5050509392505050565b600061109361108e84611bdb565b611b8a565b905080838252602082019050828560208602820111156110b6576110b5611fba565b5b60005b8581101561110457813567ffffffffffffffff8111156110dc576110db611fab565b5b8086016110e989826111eb565b855260208501945060208401935050506001810190506110b9565b5050509392505050565b600061112161111c84611c07565b611b8a565b90508281526020810184848401111561113d5761113c611fbf565b5b611148848285611db4565b509392505050565b60008135905061115f816121df565b92915050565b600081519050611174816121df565b92915050565b600082601f83011261118f5761118e611fab565b5b813561119f848260208601611010565b91505092915050565b600082601f8301126111bd576111bc611fab565b5b81356111cd848260208601611080565b91505092915050565b6000813590506111e5816121f6565b92915050565b600082601f830112611200576111ff611fab565b5b813561121084826020860161110e565b91505092915050565b60006080828403121561122f5761122e611fb0565b5b6112396080611b8a565b9050600061124984828501611150565b600083015250602061125d84828501611150565b602083015250604082013567ffffffffffffffff81111561128157611280611fb5565b5b61128d848285016111eb565b604083015250606082013567ffffffffffffffff8111156112b1576112b0611fb5565b5b6112bd848285016111a8565b60608301525092915050565b6000602082840312156112df576112de611fc9565b5b60006112ed84828501611150565b91505092915050565b60006020828403121561130c5761130b611fc9565b5b600061131a84828501611165565b91505092915050565b6000806000806080858703121561133d5761133c611fc9565b5b600085013567ffffffffffffffff81111561135b5761135a611fc4565b5b6113678782880161117a565b9450506020611378878288016111d6565b9350506040611389878288016111d6565b925050606085013567ffffffffffffffff8111156113aa576113a9611fc4565b5b6113b687828801611219565b91505092959194509250565b6000602082840312156113d8576113d7611fc9565b5b60006113e6848285016111d6565b91505092915050565b6000806000806080858703121561140957611408611fc9565b5b6000611417878288016111d6565b9450506020611428878288016111d6565b935050604085013567ffffffffffffffff81111561144957611448611fc4565b5b6114558782880161117a565b925050606085013567ffffffffffffffff81111561147657611475611fc4565b5b61148287828801611219565b91505092959194509250565b6000602082840312156114a4576114a3611fc9565b5b600082013567ffffffffffffffff8111156114c2576114c1611fc4565b5b6114ce848285016111eb565b91505092915050565b60006114e38383611612565b905092915050565b6114f481611ccf565b82525050565b61150381611ccf565b82525050565b61151a61151582611ccf565b611ea2565b82525050565b600061152b82611c58565b6115358185611c86565b93508360208202850161154785611c38565b8060005b85811015611583578484038952815161156485826114d7565b945061156f83611c79565b925060208a0199505060018101905061154b565b50829750879550505050505092915050565b61159e81611ce1565b82525050565b6115ad81611ced565b82525050565b6115c46115bf82611ced565b611eb4565b82525050565b6115db6115d682611cf7565b611ebe565b82525050565b60006115ec82611c63565b6115f68185611c97565b9350611606818560208601611dc3565b80840191505092915050565b600061161d82611c6e565b6116278185611ca2565b9350611637818560208601611dc3565b61164081611fce565b840191505092915050565b600061165682611c6e565b6116608185611cb3565b9350611670818560208601611dc3565b61167981611fce565b840191505092915050565b600061168f82611c6e565b6116998185611cc4565b93506116a9818560208601611dc3565b80840191505092915050565b60006116c2601983611cb3565b91506116cd82611ff9565b602082019050919050565b60006116e5601783611cb3565b91506116f082612022565b602082019050919050565b6000611708602683611cb3565b91506117138261204b565b604082019050919050565b600061172b601c83611cb3565b91506117368261209a565b602082019050919050565b600061174e602083611cb3565b9150611759826120c3565b602082019050919050565b6000611771601983611cb3565b915061177c826120ec565b602082019050919050565b6000611794602283611cb3565b915061179f82612115565b604082019050919050565b60006117b7602083611cb3565b91506117c282612164565b602082019050919050565b60006117da601183611cb3565b91506117e58261218d565b602082019050919050565b60006117fd600d83611cb3565b9150611808826121b6565b602082019050919050565b600060808301600083015161182b60008601826114eb565b50602083015161183e60208601826114eb565b50604083015184820360408601526118568282611612565b915050606083015184820360608601526118708282611520565b9150508091505092915050565b61188681611d43565b82525050565b60006118988287611509565b6014820191506118a88286611509565b6014820191506118b88285611684565b91506118c482846115e1565b915081905095945050505050565b60006118de82856115b3565b6020820191506118ee82846115b3565b6020820191508190509392505050565b600061190a82846115ca565b60098201915081905092915050565b600061192582856115e1565b915061193182846115e1565b91508190509392505050565b60006119498284611684565b915081905092915050565b600060208201905061196960008301846114fa565b92915050565b600060a08201905061198460008301886114fa565b61199160208301876114fa565b81810360408301526119a3818661164b565b90506119b2606083018561187d565b6119bf608083018461187d565b9695505050505050565b60006020820190506119de6000830184611595565b92915050565b60006040820190506119f960008301856115a4565b611a06602083018461187d565b9392505050565b60006020820190508181036000830152611a26816116b5565b9050919050565b60006020820190508181036000830152611a46816116d8565b9050919050565b60006020820190508181036000830152611a66816116fb565b9050919050565b60006020820190508181036000830152611a868161171e565b9050919050565b60006020820190508181036000830152611aa681611741565b9050919050565b60006020820190508181036000830152611ac681611764565b9050919050565b60006020820190508181036000830152611ae681611787565b9050919050565b60006020820190508181036000830152611b06816117aa565b9050919050565b60006020820190508181036000830152611b26816117cd565b9050919050565b60006020820190508181036000830152611b46816117f0565b9050919050565b60006020820190508181036000830152611b678184611813565b905092915050565b6000602082019050611b84600083018461187d565b92915050565b6000611b94611ba5565b9050611ba08282611e28565b919050565b6000604051905090565b600067ffffffffffffffff821115611bca57611bc9611f67565b5b602082029050602081019050919050565b600067ffffffffffffffff821115611bf657611bf5611f67565b5b602082029050602081019050919050565b600067ffffffffffffffff821115611c2257611c21611f67565b5b611c2b82611fce565b9050602081019050919050565b6000819050602082019050919050565b6000819050602082019050919050565b600081519050919050565b600081519050919050565b600081519050919050565b6000602082019050919050565b600082825260208201905092915050565b600081905092915050565b600082825260208201905092915050565b600082825260208201905092915050565b600081905092915050565b6000611cda82611d23565b9050919050565b60008115159050919050565b6000819050919050565b60007fffffffffffffffffff000000000000000000000000000000000000000000000082169050919050565b600073ffffffffffffffffffffffffffffffffffffffff82169050919050565b6000819050919050565b6000611d5882611c63565b82611d6284611c48565b9050611d6d81611f96565b92506009821015611dad57611da87fffffffffffffffffff000000000000000000000000000000000000000000000083600903600802611fec565b831692505b5050919050565b82818337600083830152505050565b60005b83811015611de1578082015181840152602081019050611dc6565b83811115611df0576000848401525b50505050565b60006002820490506001821680611e0e57607f821691505b60208210811415611e2257611e21611f09565b5b50919050565b611e3182611fce565b810181811067ffffffffffffffff82111715611e5057611e4f611f67565b5b80604052505050565b6000611e6482611d43565b91507fffffffffffffffffffffffffffffffffffffffffffffffffffffffffffffffff821415611e9757611e96611eda565b5b600182019050919050565b6000611ead82611ec8565b9050919050565b6000819050919050565b6000819050919050565b6000611ed382611fdf565b9050919050565b7f4e487b7100000000000000000000000000000000000000000000000000000000600052601160045260246000fd5b7f4e487b7100000000000000000000000000000000000000000000000000000000600052602260045260246000fd5b7f4e487b7100000000000000000000000000000000000000000000000000000000600052603260045260246000fd5b7f4e487b7100000000000000000000000000000000000000000000000000000000600052604160045260246000fd5b6000611fa28251611cf7565b80915050919050565b600080fd5b600080fd5b600080fd5b600080fd5b600080fd5b600080fd5b600080fd5b6000601f19601f8301169050919050565b60008160601b9050919050565b600082821b905092915050565b7f4e46542077617320616c72656164792076657269666965642e00000000000000600082015250565b7f496e76616c6964206e667420726f6f7420676976656e2e000000000000000000600082015250565b7f4f776e61626c653a206e6577206f776e657220697320746865207a65726f206160008201527f6464726573730000000000000000000000000000000000000000000000000000602082015250565b7f496e636f72726563742070726566697820696e205f6261736555524900000000600082015250565b7f476976656e205f6c65616620646f6573206e6f74206d61746368205f6e66742e600082015250565b7f496e636f7272656374205f62617365555249206c656e67746800000000000000600082015250565b7f42617365205552492068617320616c7265616479206265656e20636c61696d6560008201527f642e000000000000000000000000000000000000000000000000000000000000602082015250565b7f4f776e61626c653a2063616c6c6572206973206e6f7420746865206f776e6572600082015250565b7f496e76616c69642052657175657374202e000000000000000000000000000000600082015250565b7f496e76616c69642050726f6f6600000000000000000000000000000000000000600082015250565b6121e881611ccf565b81146121f357600080fd5b50565b6121ff81611ced565b811461220a57600080fd5b5056fea26469706673582212209455987b1cd54d7f99fbb3f1c64159e326b1043f53f2f2d37c8e0bf4573e5e9a64736f6c63430008050033",
  "immutableReferences": {},
  "source": "// SPDX-License-Identifier: BUSL-1.1\npragma solidity ^0.8.5;\n\nimport \"@openzeppelin/contracts/access/Ownable.sol\";\n\nimport \"@openzeppelin/contracts/utils/cryptography/MerkleProof.sol\";\n\nimport \"./RatioNFT.sol\";\n\n// Contract to verify nft distributors.\ncontract ProtocolNFT is Ownable {\n\n    uint public minimumRequestValue;\n\n    mapping(string => address) uriDistributor;\n\n    mapping(address => mapping(string => nftStruct)) nftDistributor;\n\n    mapping(bytes32 => bool) nftVerified;\n\n    mapping(bytes32 => uint) nftRootsMap;\n\n    bytes32[] nftRoots;\n\n    //bytes public ipfsBytes = bytes(\"ipfs://\");   \n\n    //bytes public uriBytes = bytes(\"ipfs://QmcLZTfyPJxvmGQUKqpiMtVa2qTmPS2MvEPm4gyTkm6mrZ\");\n\n    event rootSubmited(bytes32 _root, uint _block);\n\n    event verificationRequest(address _contract, address _distributor, string _baseURI, uint _block, uint _value);\n\n    event verified(nftStruct _nft);\n\n    /*\n    event verifyStruct(address _contract, address _distributor, string _baseURI);\n\n    event verifyLeaf(bytes32 _given, bytes32 _hashed);*/\n\n    event proof(bool _proof);\n\n    // Structure to hold NFT data.\n    struct nftStruct{\n        address _contract;\n        address _distributor;\n        string _baseURI;\n        string[] _subURIs;\n    }\n\n    // Constructor\n    constructor(uint _minimumRequestValue){\n        minimumRequestValue = _minimumRequestValue;\n    }\n\n    // Function to submit transaction roots for verified NFTs.\n    function submitRoot(bytes32 _root) public onlyOwner{\n        nftRoots.push(_root);\n        nftRootsMap[_root] = block.number;\n        emit rootSubmited(_root, block.number);\n    }\n    \n    // Function to requets verificaition of NFT \n    function requestVerification(string  memory _baseURI) public payable{\n        require(msg.value >= minimumRequestValue, \"Invalid Request .\");\n\n        require(uriDistributor[_baseURI] == address(0), \"Base URI has already been claimed.\");\n\n        require(bytes(_baseURI).length == 53, \"Incorrect _baseURI length\");\n\n        require((keccak256(abi.encodePacked(bytes9( bytes(_baseURI) ) ) )  == keccak256(abi.encodePacked( bytes9(\"ipfs://Qm\") ) ) ), \"Incorrect prefix in _baseURI\");\n\n        emit verificationRequest(msg.sender, Ownable(msg.sender).owner(), _baseURI, block.number, msg.value);\n    }\n\n    // Function to verify a nft of behalf of Ratio Labs.\n    function verifyNFT(bytes32[] memory _proof, bytes32 _root, bytes32 _leaf, nftStruct memory _nft) public{\n        // require the _root to exist.\n        require(nftRootsMap[_root] != 0, \"Invalid nft root given.\");\n        // calculate sub URI encoding.\n        bytes memory encoded;\n        for (uint i = 0; i < _nft._subURIs.length; i++) {\n            encoded = bytes.concat(\n                encoded,\n                abi.encodePacked(_nft._subURIs[i])\n            );\n        }\n        // require _leaf hash to match _nft hash.\n        require(_leaf == keccak256(abi.encodePacked(_nft._contract, _nft._distributor, _nft._baseURI, encoded)), \"Given _leaf does not match _nft.\");\n        // require _nft is not already verified.\n        require(!nftVerified[_leaf], \"NFT was already verified.\");\n        // require _nft is within _root .\n        require(MerkleProof.verify(_proof, _root, _leaf), \"Invalid Proof\");\n\n        // Verify and Store NFT info.\n        nftVerified[_leaf] = true;\n        uriDistributor[_nft._baseURI] = _nft._distributor;\n        for(uint i = 0; i < _nft._subURIs.length; i++){\n            uriDistributor[_nft._subURIs[i]] = _nft._distributor;\n        }\n        nftDistributor[_nft._distributor][_nft._baseURI] = _nft;\n        emit verified(_nft);\n    }\n\n    \n    function verifyProofTest(bytes32 _root, bytes32 _leaf, bytes32[] memory _proof, nftStruct memory leaf) public {\n\n         emit proof(MerkleProof.verify(_proof, _root, _leaf));\n\n    }\n    /*\n    //\n    function structHashTest(bytes32 _leaf, verificationStruct memory leaf) public{\n\n        bytes memory encoded;\n        for (uint i = 0; i < leaf._subURIs.length; i++) {\n            encoded = bytes.concat(\n                encoded,\n                abi.encodePacked(leaf._subURIs[i])\n            );\n        }\n        emit verifyLeaf(_leaf, keccak256(abi.encodePacked(leaf._contract, leaf._distributor, leaf._baseURI, encoded)));\n    }\n\n    function structPassTest(verificationStruct memory v) public{\n        emit verifyStruct(v._contract, v._distributor, v._baseURI);\n    }*/\n\n\n    function uriPrefix(string memory _baseURI) public pure returns(bool){\n        return (keccak256(abi.encodePacked(bytes9( bytes(_baseURI) ) ) )  == keccak256(abi.encodePacked( bytes9(\"ipfs://Qm\") ) ) );\n    }\n\n    function claimVerificationValue() public{\n        payable(owner()).transfer(address(this).balance);\n    }\n\n}",
  "sourcePath": "/home/stephenstb/Ratio/ratio/contracts/nft/ProtocolNFT.sol",
  "compiler": {
    "name": "solc",
    "version": "0.8.5+commit.a4f2e591.Emscripten.clang"
  },
  "schemaVersion": "3.4.3",
  "updatedAt": "2022-03-27T03:30:54.578Z",
  "devdoc": {
    "kind": "dev",
    "methods": {
      "owner()": {
        "details": "Returns the address of the current owner."
      },
      "renounceOwnership()": {
        "details": "Leaves the contract without owner. It will not be possible to call `onlyOwner` functions anymore. Can only be called by the current owner. NOTE: Renouncing ownership will leave the contract without an owner, thereby removing any functionality that is only available to the owner."
      },
      "transferOwnership(address)": {
        "details": "Transfers ownership of the contract to a new account (`newOwner`). Can only be called by the current owner."
      }
    },
    "version": 1
  },
  "userdoc": {
    "kind": "user",
    "methods": {},
    "version": 1
  }
}