{
  "contractName": "ProtocolNFT",
  "abi": [
    {
      "inputs": [
        {
          "internalType": "uint256",
          "name": "_minimumRequestValue",
          "type": "uint256"
        }
      ],
      "stateMutability": "nonpayable",
      "type": "constructor"
    },
    {
      "anonymous": false,
      "inputs": [
        {
          "indexed": true,
          "internalType": "address",
          "name": "previousOwner",
          "type": "address"
        },
        {
          "indexed": true,
          "internalType": "address",
          "name": "newOwner",
          "type": "address"
        }
      ],
      "name": "OwnershipTransferred",
      "type": "event"
    },
    {
      "anonymous": false,
      "inputs": [
        {
          "indexed": false,
          "internalType": "bool",
          "name": "_proof",
          "type": "bool"
        }
      ],
      "name": "proof",
      "type": "event"
    },
    {
      "anonymous": false,
      "inputs": [
        {
          "indexed": false,
          "internalType": "bytes32",
          "name": "_root",
          "type": "bytes32"
        },
        {
          "indexed": false,
          "internalType": "uint256",
          "name": "_block",
          "type": "uint256"
        }
      ],
      "name": "rootSubmited",
      "type": "event"
    },
    {
      "anonymous": false,
      "inputs": [
        {
          "indexed": false,
          "internalType": "address",
          "name": "_contract",
          "type": "address"
        },
        {
          "indexed": false,
          "internalType": "address",
          "name": "_distributor",
          "type": "address"
        },
        {
          "indexed": false,
          "internalType": "string",
          "name": "_baseURI",
          "type": "string"
        },
        {
          "indexed": false,
          "internalType": "uint256",
          "name": "_block",
          "type": "uint256"
        },
        {
          "indexed": false,
          "internalType": "uint256",
          "name": "_value",
          "type": "uint256"
        }
      ],
      "name": "verificationRequest",
      "type": "event"
    },
    {
      "anonymous": false,
      "inputs": [
        {
          "components": [
            {
              "internalType": "address",
              "name": "_contract",
              "type": "address"
            },
            {
              "internalType": "address",
              "name": "_distributor",
              "type": "address"
            },
            {
              "internalType": "string",
              "name": "_baseURI",
              "type": "string"
            },
            {
              "internalType": "string[]",
              "name": "_subURIs",
              "type": "string[]"
            }
          ],
          "indexed": false,
          "internalType": "struct ProtocolNFT.nftStruct",
          "name": "_nft",
          "type": "tuple"
        }
      ],
      "name": "verified",
      "type": "event"
    },
    {
      "inputs": [
        {
          "internalType": "string",
          "name": "",
          "type": "string"
        }
      ],
      "name": "baseURIdistributor",
      "outputs": [
        {
          "internalType": "address",
          "name": "",
          "type": "address"
        }
      ],
      "stateMutability": "view",
      "type": "function"
    },
    {
      "inputs": [
        {
          "internalType": "uint256",
          "name": "",
          "type": "uint256"
        }
      ],
      "name": "baseURIs",
      "outputs": [
        {
          "internalType": "string",
          "name": "",
          "type": "string"
        }
      ],
      "stateMutability": "view",
      "type": "function"
    },
    {
      "inputs": [
        {
          "internalType": "address",
          "name": "",
          "type": "address"
        },
        {
          "internalType": "string",
          "name": "",
          "type": "string"
        }
      ],
      "name": "distributorNFT",
      "outputs": [
        {
          "internalType": "address",
          "name": "_contract",
          "type": "address"
        },
        {
          "internalType": "address",
          "name": "_distributor",
          "type": "address"
        },
        {
          "internalType": "string",
          "name": "_baseURI",
          "type": "string"
        }
      ],
      "stateMutability": "view",
      "type": "function"
    },
    {
      "inputs": [],
      "name": "minimumRequestValue",
      "outputs": [
        {
          "internalType": "uint256",
          "name": "",
          "type": "uint256"
        }
      ],
      "stateMutability": "view",
      "type": "function"
    },
    {
      "inputs": [
        {
          "internalType": "uint256",
          "name": "",
          "type": "uint256"
        }
      ],
      "name": "nftRoots",
      "outputs": [
        {
          "internalType": "bytes32",
          "name": "",
          "type": "bytes32"
        }
      ],
      "stateMutability": "view",
      "type": "function"
    },
    {
      "inputs": [],
      "name": "owner",
      "outputs": [
        {
          "internalType": "address",
          "name": "",
          "type": "address"
        }
      ],
      "stateMutability": "view",
      "type": "function"
    },
    {
      "inputs": [],
      "name": "renounceOwnership",
      "outputs": [],
      "stateMutability": "nonpayable",
      "type": "function"
    },
    {
      "inputs": [
        {
          "internalType": "string",
          "name": "",
          "type": "string"
        }
      ],
      "name": "subURIdistributor",
      "outputs": [
        {
          "internalType": "address",
          "name": "",
          "type": "address"
        }
      ],
      "stateMutability": "view",
      "type": "function"
    },
    {
      "inputs": [
        {
          "internalType": "address",
          "name": "newOwner",
          "type": "address"
        }
      ],
      "name": "transferOwnership",
      "outputs": [],
      "stateMutability": "nonpayable",
      "type": "function"
    },
    {
      "inputs": [
        {
          "internalType": "string",
          "name": "_baseURI",
          "type": "string"
        }
      ],
      "name": "requestVerification",
      "outputs": [],
      "stateMutability": "payable",
      "type": "function"
    },
    {
      "inputs": [
        {
          "internalType": "bytes32[]",
          "name": "_proof",
          "type": "bytes32[]"
        },
        {
          "internalType": "bytes32",
          "name": "_root",
          "type": "bytes32"
        },
        {
          "internalType": "bytes32",
          "name": "_leaf",
          "type": "bytes32"
        },
        {
          "components": [
            {
              "internalType": "address",
              "name": "_contract",
              "type": "address"
            },
            {
              "internalType": "address",
              "name": "_distributor",
              "type": "address"
            },
            {
              "internalType": "string",
              "name": "_baseURI",
              "type": "string"
            },
            {
              "internalType": "string[]",
              "name": "_subURIs",
              "type": "string[]"
            }
          ],
          "internalType": "struct ProtocolNFT.nftStruct",
          "name": "_nft",
          "type": "tuple"
        }
      ],
      "name": "verifyNFT",
      "outputs": [],
      "stateMutability": "nonpayable",
      "type": "function"
    },
    {
      "inputs": [
        {
          "internalType": "bytes32",
          "name": "_root",
          "type": "bytes32"
        }
      ],
      "name": "submitRoot",
      "outputs": [],
      "stateMutability": "nonpayable",
      "type": "function"
    },
    {
      "inputs": [
        {
          "internalType": "address[]",
          "name": "_distributors",
          "type": "address[]"
        },
        {
          "internalType": "string[]",
          "name": "_baseURIs",
          "type": "string[]"
        }
      ],
      "name": "slashNFTs",
      "outputs": [],
      "stateMutability": "nonpayable",
      "type": "function"
    },
    {
      "inputs": [
        {
          "internalType": "uint256",
          "name": "_val",
          "type": "uint256"
        }
      ],
      "name": "modifyRequestValue",
      "outputs": [],
      "stateMutability": "nonpayable",
      "type": "function"
    },
    {
      "inputs": [],
      "name": "claim",
      "outputs": [],
      "stateMutability": "nonpayable",
      "type": "function"
    },
    {
      "inputs": [
        {
          "internalType": "string",
          "name": "_baseURI",
          "type": "string"
        }
      ],
      "name": "uriPrefix",
      "outputs": [
        {
          "internalType": "bool",
          "name": "",
          "type": "bool"
        }
      ],
      "stateMutability": "pure",
      "type": "function"
    }
  ],
  "bytecode": "0x60806040523480156200001157600080fd5b5060405162002c4e38038062002c4e833981810160405281019062000037919062000148565b620000576200004b6200006560201b60201c565b6200006d60201b60201c565b8060018190555050620001a3565b600033905090565b60008060009054906101000a900473ffffffffffffffffffffffffffffffffffffffff169050816000806101000a81548173ffffffffffffffffffffffffffffffffffffffff021916908373ffffffffffffffffffffffffffffffffffffffff1602179055508173ffffffffffffffffffffffffffffffffffffffff168173ffffffffffffffffffffffffffffffffffffffff167f8be0079c531659141344cd1fd0a4f28419497f9722a3daafe3b4186f6b6457e060405160405180910390a35050565b600081519050620001428162000189565b92915050565b60006020828403121562000161576200016062000184565b5b6000620001718482850162000131565b91505092915050565b6000819050919050565b600080fd5b62000194816200017a565b8114620001a057600080fd5b50565b612a9b80620001b36000396000f3fe6080604052600436106100f35760003560e01c80636cbff42a1161008a578063bee03c7a11610059578063bee03c7a1461031b578063c2f4007a14610346578063d33a28b214610383578063f2fde38b146103ac576100f3565b80636cbff42a14610280578063715018a61461029c5780638da5cb5b146102b357806391564206146102de576100f3565b80633e9329e5116100c65780633e9329e5146101c45780634e71d92d146101ed5780636464833f146102045780636587e7ea14610243576100f3565b806327837aa3146100f857806332155fa514610135578063344e35ac1461015e57806339e9d0611461019b575b600080fd5b34801561010457600080fd5b5061011f600480360381019061011a9190611c91565b6103d5565b60405161012c91906121c6565b60405180910390f35b34801561014157600080fd5b5061015c60048036038101906101579190611b7c565b6103f9565b005b34801561016a57600080fd5b5061018560048036038101906101809190611c48565b61094d565b60405161019291906120f8565b60405180910390f35b3480156101a757600080fd5b506101c260048036038101906101bd9190611c91565b610996565b005b3480156101d057600080fd5b506101eb60048036038101906101e69190611b04565b610a1c565b005b3480156101f957600080fd5b50610202610bbc565b005b34801561021057600080fd5b5061022b60048036038101906102269190611aa8565b610c0c565b60405161023a93929190612113565b60405180910390f35b34801561024f57600080fd5b5061026a60048036038101906102659190611c48565b610d21565b60405161027791906120f8565b60405180910390f35b61029a60048036038101906102959190611c48565b610d6a565b005b3480156102a857600080fd5b506102b1611016565b005b3480156102bf57600080fd5b506102c861109e565b6040516102d591906120f8565b60405180910390f35b3480156102ea57600080fd5b5061030560048036038101906103009190611c91565b6110c7565b604051610312919061220a565b60405180910390f35b34801561032757600080fd5b50610330611173565b60405161033d919061238e565b60405180910390f35b34801561035257600080fd5b5061036d60048036038101906103689190611c48565b611179565b60405161037a91906121ab565b60405180910390f35b34801561038f57600080fd5b506103aa60048036038101906103a59190611c1b565b6111fa565b005b3480156103b857600080fd5b506103d360048036038101906103ce9190611a4e565b6112f3565b005b600981815481106103e557600080fd5b906000526020600020016000915090505481565b600060086000858152602001908152602001600020541415610450576040517f08c379a00000000000000000000000000000000000000000000000000000000081526004016104479061224c565b60405180910390fd5b606060005b8260600151518110156104d657818360600151828151811061047a57610479612779565b5b602002602001015160405160200161049291906120e1565b6040516020818303038152906040526040516020016104b29291906120bd565b604051602081830303815290604052915080806104ce906126a4565b915050610455565b50816000015182602001518360400151836040516020016104fa949392919061205c565b604051602081830303815290604052805190602001208314610551576040517f08c379a0000000000000000000000000000000000000000000000000000000008152600401610548906122ac565b60405180910390fd5b6007600084815260200190815260200160002060009054906101000a900460ff16156105b2576040517f08c379a00000000000000000000000000000000000000000000000000000000081526004016105a99061222c565b60405180910390fd5b6105bd8585856113eb565b6105fc576040517f08c379a00000000000000000000000000000000000000000000000000000000081526004016105f39061234c565b60405180910390fd5b60016007600085815260200190815260200160002060006101000a81548160ff02191690831515021790555081602001516002836040015160405161064191906120e1565b908152602001604051809103902060006101000a81548173ffffffffffffffffffffffffffffffffffffffff021916908373ffffffffffffffffffffffffffffffffffffffff16021790555060005b82606001515181101561072f5782602001516003846060015183815181106106bb576106ba612779565b5b60200260200101516040516106d091906120e1565b908152602001604051809103902060006101000a81548173ffffffffffffffffffffffffffffffffffffffff021916908373ffffffffffffffffffffffffffffffffffffffff1602179055508080610727906126a4565b915050610690565b508160046000846020015173ffffffffffffffffffffffffffffffffffffffff1673ffffffffffffffffffffffffffffffffffffffff168152602001908152602001600020836040015160405161078691906120e1565b908152602001604051809103902060008201518160000160006101000a81548173ffffffffffffffffffffffffffffffffffffffff021916908373ffffffffffffffffffffffffffffffffffffffff16021790555060208201518160010160006101000a81548173ffffffffffffffffffffffffffffffffffffffff021916908373ffffffffffffffffffffffffffffffffffffffff160217905550604082015181600201908051906020019061083e92919061155a565b50606082015181600301908051906020019061085b9291906115e0565b509050506005826040015160405161087391906120e1565b908152602001604051809103902060009054906101000a900460ff1661090f576001600583604001516040516108a991906120e1565b908152602001604051809103902060006101000a81548160ff0219169083151502179055506006826040015190806001815401808255809150506001900390600052602060002001600090919091909150908051906020019061090d92919061155a565b505b7fb4b14803e95431523b47ec9e1931eb7405e4c5059375a2af55a17bfa9673a33b8260405161093e919061236c565b60405180910390a15050505050565b6003818051602081018201805184825260208301602085012081835280955050505050506000915054906101000a900473ffffffffffffffffffffffffffffffffffffffff1681565b61099e611402565b73ffffffffffffffffffffffffffffffffffffffff166109bc61109e565b73ffffffffffffffffffffffffffffffffffffffff1614610a12576040517f08c379a0000000000000000000000000000000000000000000000000000000008152600401610a099061230c565b60405180910390fd5b8060018190555050565b610a24611402565b73ffffffffffffffffffffffffffffffffffffffff16610a4261109e565b73ffffffffffffffffffffffffffffffffffffffff1614610a98576040517f08c379a0000000000000000000000000000000000000000000000000000000008152600401610a8f9061230c565b60405180910390fd5b60005b8251811015610bb75760046000848381518110610abb57610aba612779565b5b602002602001015173ffffffffffffffffffffffffffffffffffffffff1673ffffffffffffffffffffffffffffffffffffffff168152602001908152602001600020828281518110610b1057610b0f612779565b5b6020026020010151604051610b2591906120e1565b9081526020016040518091039020600080820160006101000a81549073ffffffffffffffffffffffffffffffffffffffff02191690556001820160006101000a81549073ffffffffffffffffffffffffffffffffffffffff0219169055600282016000610b929190611640565b600382016000610ba29190611680565b50508080610baf906126a4565b915050610a9b565b505050565b610bc461109e565b73ffffffffffffffffffffffffffffffffffffffff166108fc479081150290604051600060405180830381858888f19350505050158015610c09573d6000803e3d6000fd5b50565b600460205281600052604060002081805160208101820180518482526020830160208501208183528095505050505050600091509150508060000160009054906101000a900473ffffffffffffffffffffffffffffffffffffffff16908060010160009054906101000a900473ffffffffffffffffffffffffffffffffffffffff1690806002018054610c9e90612641565b80601f0160208091040260200160405190810160405280929190818152602001828054610cca90612641565b8015610d175780601f10610cec57610100808354040283529160200191610d17565b820191906000526020600020905b815481529060010190602001808311610cfa57829003601f168201915b5050505050905083565b6002818051602081018201805184825260208301602085012081835280955050505050506000915054906101000a900473ffffffffffffffffffffffffffffffffffffffff1681565b600154341015610daf576040517f08c379a0000000000000000000000000000000000000000000000000000000008152600401610da69061232c565b60405180910390fd5b600073ffffffffffffffffffffffffffffffffffffffff16600282604051610dd791906120e1565b908152602001604051809103902060009054906101000a900473ffffffffffffffffffffffffffffffffffffffff1673ffffffffffffffffffffffffffffffffffffffff1614610e5c576040517f08c379a0000000000000000000000000000000000000000000000000000000008152600401610e53906122ec565b60405180910390fd5b6035815114610ea0576040517f08c379a0000000000000000000000000000000000000000000000000000000008152600401610e97906122cc565b60405180910390fd5b7f697066733a2f2f516d0000000000000000000000000000000000000000000000604051602001610ed191906120a2565b6040516020818303038152906040528051906020012081610ef190612598565b604051602001610f0191906120a2565b6040516020818303038152906040528051906020012014610f57576040517f08c379a0000000000000000000000000000000000000000000000000000000008152600401610f4e9061228c565b60405180910390fd5b7f6cc092d02e0110e7e73d678ffb5677ed15086310c26ac8fdbb48d2434e03bcf8333373ffffffffffffffffffffffffffffffffffffffff16638da5cb5b6040518163ffffffff1660e01b815260040160206040518083038186803b158015610fbf57600080fd5b505afa158015610fd3573d6000803e3d6000fd5b505050506040513d601f19601f82011682018060405250810190610ff79190611a7b565b83433460405161100b959493929190612151565b60405180910390a150565b61101e611402565b73ffffffffffffffffffffffffffffffffffffffff1661103c61109e565b73ffffffffffffffffffffffffffffffffffffffff1614611092576040517f08c379a00000000000000000000000000000000000000000000000000000000081526004016110899061230c565b60405180910390fd5b61109c600061140a565b565b60008060009054906101000a900473ffffffffffffffffffffffffffffffffffffffff16905090565b600681815481106110d757600080fd5b9060005260206000200160009150905080546110f290612641565b80601f016020809104026020016040519081016040528092919081815260200182805461111e90612641565b801561116b5780601f106111405761010080835404028352916020019161116b565b820191906000526020600020905b81548152906001019060200180831161114e57829003601f168201915b505050505081565b60015481565b60007f697066733a2f2f516d00000000000000000000000000000000000000000000006040516020016111ac91906120a2565b60405160208183030381529060405280519060200120826111cc90612598565b6040516020016111dc91906120a2565b60405160208183030381529060405280519060200120149050919050565b611202611402565b73ffffffffffffffffffffffffffffffffffffffff1661122061109e565b73ffffffffffffffffffffffffffffffffffffffff1614611276576040517f08c379a000000000000000000000000000000000000000000000000000000000815260040161126d9061230c565b60405180910390fd5b60098190806001815401808255809150506001900390600052602060002001600090919091909150554360086000838152602001908152602001600020819055507f1679ca859bb9cd302355469c984c89cf07cca45deea3b252032353e9baeb6d3281436040516112e89291906121e1565b60405180910390a150565b6112fb611402565b73ffffffffffffffffffffffffffffffffffffffff1661131961109e565b73ffffffffffffffffffffffffffffffffffffffff161461136f576040517f08c379a00000000000000000000000000000000000000000000000000000000081526004016113669061230c565b60405180910390fd5b600073ffffffffffffffffffffffffffffffffffffffff168173ffffffffffffffffffffffffffffffffffffffff1614156113df576040517f08c379a00000000000000000000000000000000000000000000000000000000081526004016113d69061226c565b60405180910390fd5b6113e88161140a565b50565b6000826113f885846114ce565b1490509392505050565b600033905090565b60008060009054906101000a900473ffffffffffffffffffffffffffffffffffffffff169050816000806101000a81548173ffffffffffffffffffffffffffffffffffffffff021916908373ffffffffffffffffffffffffffffffffffffffff1602179055508173ffffffffffffffffffffffffffffffffffffffff168173ffffffffffffffffffffffffffffffffffffffff167f8be0079c531659141344cd1fd0a4f28419497f9722a3daafe3b4186f6b6457e060405160405180910390a35050565b60008082905060005b84518110156115385760008582815181106114f5576114f4612779565b5b60200260200101519050808311611517576115108382611543565b9250611524565b6115218184611543565b92505b508080611530906126a4565b9150506114d7565b508091505092915050565b600082600052816020526040600020905092915050565b82805461156690612641565b90600052602060002090601f01602090048101928261158857600085556115cf565b82601f106115a157805160ff19168380011785556115cf565b828001600101855582156115cf579182015b828111156115ce5782518255916020019190600101906115b3565b5b5090506115dc91906116a1565b5090565b82805482825590600052602060002090810192821561162f579160200282015b8281111561162e57825182908051906020019061161e92919061155a565b5091602001919060010190611600565b5b50905061163c91906116be565b5090565b50805461164c90612641565b6000825580601f1061165e575061167d565b601f01602090049060005260206000209081019061167c91906116a1565b5b50565b508054600082559060005260206000209081019061169e91906116be565b50565b5b808211156116ba5760008160009055506001016116a2565b5090565b5b808211156116de57600081816116d59190611640565b506001016116bf565b5090565b60006116f56116f0846123ce565b6123a9565b90508083825260208201905082856020860282011115611718576117176127fb565b5b60005b85811015611748578161172e8882611892565b84526020840193506020830192505060018101905061171b565b5050509392505050565b6000611765611760846123fa565b6123a9565b90508083825260208201905082856020860282011115611788576117876127fb565b5b60005b858110156117b8578161179e8882611946565b84526020840193506020830192505060018101905061178b565b5050509392505050565b60006117d56117d084612426565b6123a9565b905080838252602082019050828560208602820111156117f8576117f76127fb565b5b60005b8581101561184657813567ffffffffffffffff81111561181e5761181d6127ec565b5b80860161182b898261195b565b855260208501945060208401935050506001810190506117fb565b5050509392505050565b600061186361185e84612452565b6123a9565b90508281526020810184848401111561187f5761187e612800565b5b61188a8482856125ff565b509392505050565b6000813590506118a181612a20565b92915050565b6000815190506118b681612a20565b92915050565b600082601f8301126118d1576118d06127ec565b5b81356118e18482602086016116e2565b91505092915050565b600082601f8301126118ff576118fe6127ec565b5b813561190f848260208601611752565b91505092915050565b600082601f83011261192d5761192c6127ec565b5b813561193d8482602086016117c2565b91505092915050565b60008135905061195581612a37565b92915050565b600082601f8301126119705761196f6127ec565b5b8135611980848260208601611850565b91505092915050565b60006080828403121561199f5761199e6127f1565b5b6119a960806123a9565b905060006119b984828501611892565b60008301525060206119cd84828501611892565b602083015250604082013567ffffffffffffffff8111156119f1576119f06127f6565b5b6119fd8482850161195b565b604083015250606082013567ffffffffffffffff811115611a2157611a206127f6565b5b611a2d84828501611918565b60608301525092915050565b600081359050611a4881612a4e565b92915050565b600060208284031215611a6457611a6361280a565b5b6000611a7284828501611892565b91505092915050565b600060208284031215611a9157611a9061280a565b5b6000611a9f848285016118a7565b91505092915050565b60008060408385031215611abf57611abe61280a565b5b6000611acd85828601611892565b925050602083013567ffffffffffffffff811115611aee57611aed612805565b5b611afa8582860161195b565b9150509250929050565b60008060408385031215611b1b57611b1a61280a565b5b600083013567ffffffffffffffff811115611b3957611b38612805565b5b611b45858286016118bc565b925050602083013567ffffffffffffffff811115611b6657611b65612805565b5b611b7285828601611918565b9150509250929050565b60008060008060808587031215611b9657611b9561280a565b5b600085013567ffffffffffffffff811115611bb457611bb3612805565b5b611bc0878288016118ea565b9450506020611bd187828801611946565b9350506040611be287828801611946565b925050606085013567ffffffffffffffff811115611c0357611c02612805565b5b611c0f87828801611989565b91505092959194509250565b600060208284031215611c3157611c3061280a565b5b6000611c3f84828501611946565b91505092915050565b600060208284031215611c5e57611c5d61280a565b5b600082013567ffffffffffffffff811115611c7c57611c7b612805565b5b611c888482850161195b565b91505092915050565b600060208284031215611ca757611ca661280a565b5b6000611cb584828501611a39565b91505092915050565b6000611cca8383611de2565b905092915050565b611cdb8161251a565b82525050565b611cea8161251a565b82525050565b611d01611cfc8261251a565b6126ed565b82525050565b6000611d12826124a3565b611d1c81856124d1565b935083602082028501611d2e85612483565b8060005b85811015611d6a5784840389528151611d4b8582611cbe565b9450611d56836124c4565b925060208a01995050600181019050611d32565b50829750879550505050505092915050565b611d858161252c565b82525050565b611d9481612538565b82525050565b611dab611da682612542565b6126ff565b82525050565b6000611dbc826124ae565b611dc681856124e2565b9350611dd681856020860161260e565b80840191505092915050565b6000611ded826124b9565b611df781856124ed565b9350611e0781856020860161260e565b611e108161280f565b840191505092915050565b6000611e26826124b9565b611e3081856124fe565b9350611e4081856020860161260e565b611e498161280f565b840191505092915050565b6000611e5f826124b9565b611e69818561250f565b9350611e7981856020860161260e565b80840191505092915050565b6000611e926019836124fe565b9150611e9d8261283a565b602082019050919050565b6000611eb56017836124fe565b9150611ec082612863565b602082019050919050565b6000611ed86026836124fe565b9150611ee38261288c565b604082019050919050565b6000611efb601c836124fe565b9150611f06826128db565b602082019050919050565b6000611f1e6020836124fe565b9150611f2982612904565b602082019050919050565b6000611f416019836124fe565b9150611f4c8261292d565b602082019050919050565b6000611f646022836124fe565b9150611f6f82612956565b604082019050919050565b6000611f876020836124fe565b9150611f92826129a5565b602082019050919050565b6000611faa6011836124fe565b9150611fb5826129ce565b602082019050919050565b6000611fcd600d836124fe565b9150611fd8826129f7565b602082019050919050565b6000608083016000830151611ffb6000860182611cd2565b50602083015161200e6020860182611cd2565b50604083015184820360408601526120268282611de2565b915050606083015184820360608601526120408282611d07565b9150508091505092915050565b6120568161258e565b82525050565b60006120688287611cf0565b6014820191506120788286611cf0565b6014820191506120888285611e54565b91506120948284611db1565b915081905095945050505050565b60006120ae8284611d9a565b60098201915081905092915050565b60006120c98285611db1565b91506120d58284611db1565b91508190509392505050565b60006120ed8284611e54565b915081905092915050565b600060208201905061210d6000830184611ce1565b92915050565b60006060820190506121286000830186611ce1565b6121356020830185611ce1565b81810360408301526121478184611e1b565b9050949350505050565b600060a0820190506121666000830188611ce1565b6121736020830187611ce1565b81810360408301526121858186611e1b565b9050612194606083018561204d565b6121a1608083018461204d565b9695505050505050565b60006020820190506121c06000830184611d7c565b92915050565b60006020820190506121db6000830184611d8b565b92915050565b60006040820190506121f66000830185611d8b565b612203602083018461204d565b9392505050565b600060208201905081810360008301526122248184611e1b565b905092915050565b6000602082019050818103600083015261224581611e85565b9050919050565b6000602082019050818103600083015261226581611ea8565b9050919050565b6000602082019050818103600083015261228581611ecb565b9050919050565b600060208201905081810360008301526122a581611eee565b9050919050565b600060208201905081810360008301526122c581611f11565b9050919050565b600060208201905081810360008301526122e581611f34565b9050919050565b6000602082019050818103600083015261230581611f57565b9050919050565b6000602082019050818103600083015261232581611f7a565b9050919050565b6000602082019050818103600083015261234581611f9d565b9050919050565b6000602082019050818103600083015261236581611fc0565b9050919050565b600060208201905081810360008301526123868184611fe3565b905092915050565b60006020820190506123a3600083018461204d565b92915050565b60006123b36123c4565b90506123bf8282612673565b919050565b6000604051905090565b600067ffffffffffffffff8211156123e9576123e86127a8565b5b602082029050602081019050919050565b600067ffffffffffffffff821115612415576124146127a8565b5b602082029050602081019050919050565b600067ffffffffffffffff821115612441576124406127a8565b5b602082029050602081019050919050565b600067ffffffffffffffff82111561246d5761246c6127a8565b5b6124768261280f565b9050602081019050919050565b6000819050602082019050919050565b6000819050602082019050919050565b600081519050919050565b600081519050919050565b600081519050919050565b6000602082019050919050565b600082825260208201905092915050565b600081905092915050565b600082825260208201905092915050565b600082825260208201905092915050565b600081905092915050565b60006125258261256e565b9050919050565b60008115159050919050565b6000819050919050565b60007fffffffffffffffffff000000000000000000000000000000000000000000000082169050919050565b600073ffffffffffffffffffffffffffffffffffffffff82169050919050565b6000819050919050565b60006125a3826124ae565b826125ad84612493565b90506125b8816127d7565b925060098210156125f8576125f37fffffffffffffffffff00000000000000000000000000000000000000000000008360090360080261282d565b831692505b5050919050565b82818337600083830152505050565b60005b8381101561262c578082015181840152602081019050612611565b8381111561263b576000848401525b50505050565b6000600282049050600182168061265957607f821691505b6020821081141561266d5761266c61274a565b5b50919050565b61267c8261280f565b810181811067ffffffffffffffff8211171561269b5761269a6127a8565b5b80604052505050565b60006126af8261258e565b91507fffffffffffffffffffffffffffffffffffffffffffffffffffffffffffffffff8214156126e2576126e161271b565b5b600182019050919050565b60006126f882612709565b9050919050565b6000819050919050565b600061271482612820565b9050919050565b7f4e487b7100000000000000000000000000000000000000000000000000000000600052601160045260246000fd5b7f4e487b7100000000000000000000000000000000000000000000000000000000600052602260045260246000fd5b7f4e487b7100000000000000000000000000000000000000000000000000000000600052603260045260246000fd5b7f4e487b7100000000000000000000000000000000000000000000000000000000600052604160045260246000fd5b60006127e38251612542565b80915050919050565b600080fd5b600080fd5b600080fd5b600080fd5b600080fd5b600080fd5b600080fd5b6000601f19601f8301169050919050565b60008160601b9050919050565b600082821b905092915050565b7f4e46542077617320616c72656164792076657269666965642e00000000000000600082015250565b7f496e76616c6964206e667420726f6f7420676976656e2e000000000000000000600082015250565b7f4f776e61626c653a206e6577206f776e657220697320746865207a65726f206160008201527f6464726573730000000000000000000000000000000000000000000000000000602082015250565b7f496e636f72726563742070726566697820696e205f6261736555524900000000600082015250565b7f476976656e205f6c65616620646f6573206e6f74206d61746368205f6e66742e600082015250565b7f496e636f7272656374205f62617365555249206c656e67746800000000000000600082015250565b7f42617365205552492068617320616c7265616479206265656e20636c61696d6560008201527f642e000000000000000000000000000000000000000000000000000000000000602082015250565b7f4f776e61626c653a2063616c6c6572206973206e6f7420746865206f776e6572600082015250565b7f496e76616c69642052657175657374202e000000000000000000000000000000600082015250565b7f496e76616c69642050726f6f6600000000000000000000000000000000000000600082015250565b612a298161251a565b8114612a3457600080fd5b50565b612a4081612538565b8114612a4b57600080fd5b50565b612a578161258e565b8114612a6257600080fd5b5056fea264697066735822122099ef5cd8f2689aa072fed2a0b8a805149867d7a3cc757c9e4c1040843706af2f64736f6c63430008050033",
  "immutableReferences": {},
  "source": "// SPDX-License-Identifier: BUSL-1.1\npragma solidity ^0.8.5;\n\nimport \"@openzeppelin/contracts/access/Ownable.sol\";\n\nimport \"@openzeppelin/contracts/utils/cryptography/MerkleProof.sol\";\n\nimport \"./RatioNFT.sol\";\n\n// Contract to verify nft distributors.\ncontract ProtocolNFT is Ownable {\n\n    // minimum amount to be paid for verificaiton/hosting.\n    uint public minimumRequestValue;\n\n    // mapping to determine distributor of a baseURI;\n    mapping(string => address) public baseURIdistributor;\n\n    // mapping to determine distributor of a subURI;\n    mapping(string => address) public subURIdistributor;\n\n    // mapping to return an nft given the distributor and baseURI;\n    mapping(address => mapping(string => nftStruct)) public distributorNFT;\n\n    // mapping to determine if a baseURI has been added.\n    mapping(string => bool) baseURIadded;\n\n    // mapping to hold all baseURIs\n    string[] public baseURIs;\n\n    // mapping to hold nft leafs that have been verified.\n    mapping(bytes32 => bool) nftVerified;\n\n    // mapping to hold block of submited root.\n    mapping(bytes32 => uint) nftRootsMap;\n\n    // array of nftRoots;\n    bytes32[] public nftRoots;\n\n    //bytes public ipfsBytes = bytes(\"ipfs://\");   \n\n    //bytes public uriBytes = bytes(\"ipfs://QmcLZTfyPJxvmGQUKqpiMtVa2qTmPS2MvEPm4gyTkm6mrZ\");\n\n\n    // Event emitted when a new nft root is submitted.\n    event rootSubmited(bytes32 _root, uint _block);\n\n    // Event emitted when a verification request is submitted.\n    event verificationRequest(address _contract, address _distributor, string _baseURI, uint _block, uint _value);\n\n    // Event emitted when an nft has been verifed!\n    event verified(nftStruct _nft);\n\n    /*\n    event verifyStruct(address _contract, address _distributor, string _baseURI);\n\n    event verifyLeaf(bytes32 _given, bytes32 _hashed);*/\n\n    event proof(bool _proof);\n\n    // Structure to hold NFT data.\n    struct nftStruct{\n        address _contract;\n        address _distributor;\n        string _baseURI;\n        string[] _subURIs;\n    }\n\n    // Constructor\n    constructor(uint _minimumRequestValue){\n        minimumRequestValue = _minimumRequestValue;\n    }\n    \n    // Function to requets verificaition of NFT \n    function requestVerification(string  memory _baseURI) public payable{\n        require(msg.value >= minimumRequestValue, \"Invalid Request .\");\n\n        require(baseURIdistributor[_baseURI] == address(0), \"Base URI has already been claimed.\");\n\n        require(bytes(_baseURI).length == 53, \"Incorrect _baseURI length\");\n\n        require((keccak256(abi.encodePacked(bytes9( bytes(_baseURI) ) ) )  == keccak256(abi.encodePacked( bytes9(\"ipfs://Qm\") ) ) ), \"Incorrect prefix in _baseURI\");\n\n        emit verificationRequest(msg.sender, Ownable(msg.sender).owner(), _baseURI, block.number, msg.value);\n    }\n\n    // Function to verify a nft of behalf of Ratio Labs.\n    function verifyNFT(bytes32[] memory _proof, bytes32 _root, bytes32 _leaf, nftStruct memory _nft) public{\n        // require the _root to exist.\n        require(nftRootsMap[_root] != 0, \"Invalid nft root given.\");\n        // calculate sub URI encoding.\n        bytes memory encoded;\n        for (uint i = 0; i < _nft._subURIs.length; i++) {\n            encoded = bytes.concat(\n                encoded,\n                abi.encodePacked(_nft._subURIs[i])\n            );\n        }\n        // require _leaf hash to match _nft hash.\n        require(_leaf == keccak256(abi.encodePacked(_nft._contract, _nft._distributor, _nft._baseURI, encoded)), \"Given _leaf does not match _nft.\");\n        // require _nft is not already verified.\n        require(!nftVerified[_leaf], \"NFT was already verified.\");\n        // require _nft is within _root .\n        require(MerkleProof.verify(_proof, _root, _leaf), \"Invalid Proof\");\n\n        // Verify and Store NFT info.\n        nftVerified[_leaf] = true;\n\n        // Set URIs distributor.\n        baseURIdistributor[_nft._baseURI] = _nft._distributor;\n        for(uint i = 0; i < _nft._subURIs.length; i++){\n            subURIdistributor[_nft._subURIs[i]] = _nft._distributor;\n        }\n        // Set distributor nft;\n        distributorNFT[_nft._distributor][_nft._baseURI] = _nft;\n\n        // Condition to determine if the baseURI should be added to baseURI array.\n        if(!baseURIadded[_nft._baseURI]){\n            baseURIadded[_nft._baseURI] = true;\n            baseURIs.push(_nft._baseURI);\n        }\n        emit verified(_nft);\n    }\n\n    // Function to submit transaction roots for verified NFTs.\n    function submitRoot(bytes32 _root) public onlyOwner{\n        nftRoots.push(_root);\n        nftRootsMap[_root] = block.number;\n        emit rootSubmited(_root, block.number);\n    }\n\n    function slashNFTs(address[] memory _distributors, string[] memory _baseURIs) public onlyOwner{\n        for(uint i = 0; i < _distributors.length; i++){\n            delete distributorNFT[_distributors[i]][_baseURIs[i]];\n        }\n    }\n\n    function modifyRequestValue(uint _val) public onlyOwner{\n        minimumRequestValue = _val;\n    }\n\n    function claim() public{\n        payable(owner()).transfer(address(this).balance);\n    }\n\n\n    /*\n    function verifyProofTest(bytes32 _root, bytes32 _leaf, bytes32[] memory _proof, nftStruct memory leaf) public {\n\n         emit proof(MerkleProof.verify(_proof, _root, _leaf));\n\n    }\n    \n    //\n    function structHashTest(bytes32 _leaf, verificationStruct memory leaf) public{\n\n        bytes memory encoded;\n        for (uint i = 0; i < leaf._subURIs.length; i++) {\n            encoded = bytes.concat(\n                encoded,\n                abi.encodePacked(leaf._subURIs[i])\n            );\n        }\n        emit verifyLeaf(_leaf, keccak256(abi.encodePacked(leaf._contract, leaf._distributor, leaf._baseURI, encoded)));\n    }\n\n    function structPassTest(verificationStruct memory v) public{\n        emit verifyStruct(v._contract, v._distributor, v._baseURI);\n    }*/\n\n\n    function uriPrefix(string memory _baseURI) public pure returns(bool){\n        return (keccak256(abi.encodePacked(bytes9( bytes(_baseURI) ) ) )  == keccak256(abi.encodePacked( bytes9(\"ipfs://Qm\") ) ) );\n    }\n\n    \n}",
  "sourcePath": "/home/stephenstb/Ratio/ratio/contracts/nft/ProtocolNFT.sol",
  "compiler": {
    "name": "solc",
    "version": "0.8.5+commit.a4f2e591.Emscripten.clang"
  },
  "schemaVersion": "3.4.3",
  "updatedAt": "2022-04-12T22:24:05.518Z",
  "devdoc": {
    "kind": "dev",
    "methods": {
      "owner()": {
        "details": "Returns the address of the current owner."
      },
      "renounceOwnership()": {
        "details": "Leaves the contract without owner. It will not be possible to call `onlyOwner` functions anymore. Can only be called by the current owner. NOTE: Renouncing ownership will leave the contract without an owner, thereby removing any functionality that is only available to the owner."
      },
      "transferOwnership(address)": {
        "details": "Transfers ownership of the contract to a new account (`newOwner`). Can only be called by the current owner."
      }
    },
    "version": 1
  },
  "userdoc": {
    "kind": "user",
    "methods": {},
    "version": 1
  }
}