{
  "contractName": "Ratio",
  "abi": [
    {
      "inputs": [
        {
          "internalType": "uint256[]",
          "name": "_allocationThresholds",
          "type": "uint256[]"
        },
        {
          "internalType": "uint256[]",
          "name": "_approvalThresholds",
          "type": "uint256[]"
        },
        {
          "internalType": "uint256[]",
          "name": "_removalThresholds",
          "type": "uint256[]"
        }
      ],
      "stateMutability": "nonpayable",
      "type": "constructor"
    },
    {
      "anonymous": false,
      "inputs": [
        {
          "indexed": true,
          "internalType": "address",
          "name": "owner",
          "type": "address"
        },
        {
          "indexed": true,
          "internalType": "address",
          "name": "spender",
          "type": "address"
        },
        {
          "indexed": false,
          "internalType": "uint256",
          "name": "value",
          "type": "uint256"
        }
      ],
      "name": "Approval",
      "type": "event"
    },
    {
      "anonymous": false,
      "inputs": [
        {
          "indexed": false,
          "internalType": "address",
          "name": "_proposal",
          "type": "address"
        }
      ],
      "name": "ApproveProposal",
      "type": "event"
    },
    {
      "anonymous": false,
      "inputs": [
        {
          "indexed": false,
          "internalType": "uint256",
          "name": "_epoch",
          "type": "uint256"
        },
        {
          "indexed": false,
          "internalType": "uint256",
          "name": "_block",
          "type": "uint256"
        }
      ],
      "name": "Epoch",
      "type": "event"
    },
    {
      "anonymous": false,
      "inputs": [
        {
          "indexed": true,
          "internalType": "address",
          "name": "from",
          "type": "address"
        },
        {
          "indexed": true,
          "internalType": "address",
          "name": "to",
          "type": "address"
        },
        {
          "indexed": false,
          "internalType": "uint256",
          "name": "value",
          "type": "uint256"
        }
      ],
      "name": "Transfer",
      "type": "event"
    },
    {
      "inputs": [
        {
          "internalType": "address",
          "name": "",
          "type": "address"
        }
      ],
      "name": "GovernedContracts",
      "outputs": [
        {
          "internalType": "bool",
          "name": "",
          "type": "bool"
        }
      ],
      "stateMutability": "view",
      "type": "function"
    },
    {
      "inputs": [
        {
          "internalType": "address",
          "name": "",
          "type": "address"
        }
      ],
      "name": "Proposals",
      "outputs": [
        {
          "internalType": "contract Proposal",
          "name": "",
          "type": "address"
        }
      ],
      "stateMutability": "view",
      "type": "function"
    },
    {
      "inputs": [
        {
          "internalType": "uint256",
          "name": "",
          "type": "uint256"
        }
      ],
      "name": "allocationThresholds",
      "outputs": [
        {
          "internalType": "uint256",
          "name": "",
          "type": "uint256"
        }
      ],
      "stateMutability": "view",
      "type": "function"
    },
    {
      "inputs": [
        {
          "internalType": "address",
          "name": "owner",
          "type": "address"
        },
        {
          "internalType": "address",
          "name": "spender",
          "type": "address"
        }
      ],
      "name": "allowance",
      "outputs": [
        {
          "internalType": "uint256",
          "name": "",
          "type": "uint256"
        }
      ],
      "stateMutability": "view",
      "type": "function"
    },
    {
      "inputs": [
        {
          "internalType": "uint256",
          "name": "",
          "type": "uint256"
        }
      ],
      "name": "approvalThresholds",
      "outputs": [
        {
          "internalType": "uint256",
          "name": "",
          "type": "uint256"
        }
      ],
      "stateMutability": "view",
      "type": "function"
    },
    {
      "inputs": [
        {
          "internalType": "address",
          "name": "spender",
          "type": "address"
        },
        {
          "internalType": "uint256",
          "name": "amount",
          "type": "uint256"
        }
      ],
      "name": "approve",
      "outputs": [
        {
          "internalType": "bool",
          "name": "",
          "type": "bool"
        }
      ],
      "stateMutability": "nonpayable",
      "type": "function"
    },
    {
      "inputs": [
        {
          "internalType": "address",
          "name": "account",
          "type": "address"
        }
      ],
      "name": "balanceOf",
      "outputs": [
        {
          "internalType": "uint256",
          "name": "",
          "type": "uint256"
        }
      ],
      "stateMutability": "view",
      "type": "function"
    },
    {
      "inputs": [],
      "name": "decimals",
      "outputs": [
        {
          "internalType": "uint8",
          "name": "",
          "type": "uint8"
        }
      ],
      "stateMutability": "view",
      "type": "function"
    },
    {
      "inputs": [
        {
          "internalType": "address",
          "name": "spender",
          "type": "address"
        },
        {
          "internalType": "uint256",
          "name": "subtractedValue",
          "type": "uint256"
        }
      ],
      "name": "decreaseAllowance",
      "outputs": [
        {
          "internalType": "bool",
          "name": "",
          "type": "bool"
        }
      ],
      "stateMutability": "nonpayable",
      "type": "function"
    },
    {
      "inputs": [],
      "name": "epoch",
      "outputs": [
        {
          "internalType": "uint256",
          "name": "",
          "type": "uint256"
        }
      ],
      "stateMutability": "view",
      "type": "function"
    },
    {
      "inputs": [],
      "name": "epochBlock",
      "outputs": [
        {
          "internalType": "uint256",
          "name": "",
          "type": "uint256"
        }
      ],
      "stateMutability": "view",
      "type": "function"
    },
    {
      "inputs": [],
      "name": "epochDuration",
      "outputs": [
        {
          "internalType": "uint256",
          "name": "",
          "type": "uint256"
        }
      ],
      "stateMutability": "view",
      "type": "function"
    },
    {
      "inputs": [
        {
          "internalType": "string",
          "name": "",
          "type": "string"
        }
      ],
      "name": "findGovernedContract",
      "outputs": [
        {
          "internalType": "address",
          "name": "",
          "type": "address"
        }
      ],
      "stateMutability": "view",
      "type": "function"
    },
    {
      "inputs": [
        {
          "internalType": "address",
          "name": "spender",
          "type": "address"
        },
        {
          "internalType": "uint256",
          "name": "addedValue",
          "type": "uint256"
        }
      ],
      "name": "increaseAllowance",
      "outputs": [
        {
          "internalType": "bool",
          "name": "",
          "type": "bool"
        }
      ],
      "stateMutability": "nonpayable",
      "type": "function"
    },
    {
      "inputs": [],
      "name": "name",
      "outputs": [
        {
          "internalType": "string",
          "name": "",
          "type": "string"
        }
      ],
      "stateMutability": "view",
      "type": "function"
    },
    {
      "inputs": [],
      "name": "proposalCost",
      "outputs": [
        {
          "internalType": "uint256",
          "name": "",
          "type": "uint256"
        }
      ],
      "stateMutability": "view",
      "type": "function"
    },
    {
      "inputs": [
        {
          "internalType": "uint256",
          "name": "",
          "type": "uint256"
        }
      ],
      "name": "removalThresholds",
      "outputs": [
        {
          "internalType": "uint256",
          "name": "",
          "type": "uint256"
        }
      ],
      "stateMutability": "view",
      "type": "function"
    },
    {
      "inputs": [],
      "name": "symbol",
      "outputs": [
        {
          "internalType": "string",
          "name": "",
          "type": "string"
        }
      ],
      "stateMutability": "view",
      "type": "function"
    },
    {
      "inputs": [],
      "name": "totalSupply",
      "outputs": [
        {
          "internalType": "uint256",
          "name": "",
          "type": "uint256"
        }
      ],
      "stateMutability": "view",
      "type": "function"
    },
    {
      "inputs": [
        {
          "internalType": "address",
          "name": "recipient",
          "type": "address"
        },
        {
          "internalType": "uint256",
          "name": "amount",
          "type": "uint256"
        }
      ],
      "name": "transfer",
      "outputs": [
        {
          "internalType": "bool",
          "name": "",
          "type": "bool"
        }
      ],
      "stateMutability": "nonpayable",
      "type": "function"
    },
    {
      "inputs": [
        {
          "internalType": "address",
          "name": "sender",
          "type": "address"
        },
        {
          "internalType": "address",
          "name": "recipient",
          "type": "address"
        },
        {
          "internalType": "uint256",
          "name": "amount",
          "type": "uint256"
        }
      ],
      "name": "transferFrom",
      "outputs": [
        {
          "internalType": "bool",
          "name": "",
          "type": "bool"
        }
      ],
      "stateMutability": "nonpayable",
      "type": "function"
    },
    {
      "inputs": [
        {
          "internalType": "address",
          "name": "_reciever",
          "type": "address"
        },
        {
          "internalType": "uint256",
          "name": "_amount",
          "type": "uint256"
        }
      ],
      "name": "mint",
      "outputs": [],
      "stateMutability": "nonpayable",
      "type": "function"
    },
    {
      "inputs": [
        {
          "internalType": "string",
          "name": "_name",
          "type": "string"
        },
        {
          "internalType": "string",
          "name": "_description",
          "type": "string"
        },
        {
          "internalType": "address[]",
          "name": "_governed",
          "type": "address[]"
        }
      ],
      "name": "approveProposal",
      "outputs": [],
      "stateMutability": "payable",
      "type": "function"
    },
    {
      "inputs": [],
      "name": "incrementEpoch",
      "outputs": [],
      "stateMutability": "nonpayable",
      "type": "function"
    },
    {
      "inputs": [
        {
          "internalType": "address",
          "name": "_proposal",
          "type": "address"
        }
      ],
      "name": "vote",
      "outputs": [],
      "stateMutability": "nonpayable",
      "type": "function"
    }
  ],
  "bytecode": "0x60806040527fffffffffffffffffffffffffffffffffffffffffffffffffffffffffffffffff6013553480156200003557600080fd5b5060405162005cdf38038062005cdf83398181016040528101906200005b9190620003d9565b6040518060400160405280600581526020017f526174696f0000000000000000000000000000000000000000000000000000008152506040518060400160405280600581526020017f524154494f0000000000000000000000000000000000000000000000000000008152508160039080519060200190620000df92919062000204565b508060049080519060200190620000f892919062000204565b505050306040516200010a9062000295565b620001169190620004a3565b604051809103906000f08015801562000133573d6000803e3d6000fd5b50600560006101000a81548173ffffffffffffffffffffffffffffffffffffffff021916908373ffffffffffffffffffffffffffffffffffffffff160217905550600060068190555043600781905550633b9aca0060088190555082600a9080519060200190620001a6929190620002a3565b5081600b9080519060200190620001bf929190620002a3565b5080600c9080519060200190620001d8929190620002a3565b506b033b2e3c9fd0803ce8000000600d8190555067016345785d8a00006009819055505050506200065f565b828054620002129062000556565b90600052602060002090601f01602090048101928262000236576000855562000282565b82601f106200025157805160ff191683800117855562000282565b8280016001018555821562000282579182015b828111156200028157825182559160200191906001019062000264565b5b509050620002919190620002f5565b5090565b6103be806200592183390190565b828054828255906000526020600020908101928215620002e2579160200282015b82811115620002e1578251825591602001919060010190620002c4565b5b509050620002f19190620002f5565b5090565b5b8082111562000310576000816000905550600101620002f6565b5090565b60006200032b6200032584620004e9565b620004c0565b9050808382526020820190508285602086028201111562000351576200035062000625565b5b60005b858110156200038557816200036a8882620003c2565b84526020840193506020830192505060018101905062000354565b5050509392505050565b600082601f830112620003a757620003a662000620565b5b8151620003b984826020860162000314565b91505092915050565b600081519050620003d38162000645565b92915050565b600080600060608486031215620003f557620003f46200062f565b5b600084015167ffffffffffffffff8111156200041657620004156200062a565b5b62000424868287016200038f565b935050602084015167ffffffffffffffff8111156200044857620004476200062a565b5b62000456868287016200038f565b925050604084015167ffffffffffffffff8111156200047a57620004796200062a565b5b62000488868287016200038f565b9150509250925092565b6200049d8162000518565b82525050565b6000602082019050620004ba600083018462000492565b92915050565b6000620004cc620004df565b9050620004da82826200058c565b919050565b6000604051905090565b600067ffffffffffffffff821115620005075762000506620005f1565b5b602082029050602081019050919050565b600062000525826200052c565b9050919050565b600073ffffffffffffffffffffffffffffffffffffffff82169050919050565b6000819050919050565b600060028204905060018216806200056f57607f821691505b60208210811415620005865762000585620005c2565b5b50919050565b620005978262000634565b810181811067ffffffffffffffff82111715620005b957620005b8620005f1565b5b80604052505050565b7f4e487b7100000000000000000000000000000000000000000000000000000000600052602260045260246000fd5b7f4e487b7100000000000000000000000000000000000000000000000000000000600052604160045260246000fd5b600080fd5b600080fd5b600080fd5b600080fd5b6000601f19601f8301169050919050565b62000650816200054c565b81146200065c57600080fd5b50565b6152b2806200066f6000396000f3fe608060405260043610620001885760003560e01c806370a0823111620000e5578063971b93de1162000097578063c1493a31116200006d578063c1493a31146200062f578063d579d85a146200065f578063dd62ed3e14620006a3578063e664f3b214620006e75762000188565b8063971b93de1462000563578063a457c2d714620005a7578063a9059cbb14620005eb5762000188565b806370a08231146200041d5780638694ae1b14620004615780638af4e06114620004a5578063900cf0cf14620004e9578063958efd7a146200051957806395d89b4114620005335762000188565b8063313ce567116200013f578063313ce56714620002d957806339509351146200030957806340c10f19146200034d578063482a031f146200037b5780634ff0876a14620003bf5780636dd7d8ea14620003ef5762000188565b806306fdde03146200018d578063095ea7b314620001bd57806318160ddd146200020157806323b872dd14620002315780632471d3de14620002755780632fa7b6841462000295575b600080fd5b3480156200019a57600080fd5b50620001a562000717565b604051620001b4919062002d79565b60405180910390f35b348015620001ca57600080fd5b50620001e96004803603810190620001e39190620025b6565b620007b1565b604051620001f8919062002d22565b60405180910390f35b3480156200020e57600080fd5b5062000219620007d3565b60405162000228919062002fdf565b60405180910390f35b3480156200023e57600080fd5b506200025d60048036038101906200025791906200255a565b620007dd565b6040516200026c919062002d22565b60405180910390f35b6200029360048036038101906200028d919062002703565b620008e0565b005b348015620002a257600080fd5b50620002c16004803603810190620002bb9190620024e1565b620012dc565b604051620002d0919062002d5c565b60405180910390f35b348015620002e657600080fd5b50620002f16200130f565b60405162000300919062003029565b60405180910390f35b3480156200031657600080fd5b506200033560048036038101906200032f9190620025b6565b62001318565b60405162000344919062002d22565b60405180910390f35b3480156200035a57600080fd5b50620003796004803603810190620003739190620025b6565b620013cc565b005b3480156200038857600080fd5b50620003a76004803603810190620003a1919062002661565b62001717565b604051620003b6919062002c93565b60405180910390f35b348015620003cc57600080fd5b50620003d762001760565b604051620003e6919062002fdf565b60405180910390f35b348015620003fc57600080fd5b506200041b6004803603810190620004159190620024e1565b62001766565b005b3480156200042a57600080fd5b50620004496004803603810190620004439190620024e1565b62001769565b60405162000458919062002fdf565b60405180910390f35b3480156200046e57600080fd5b506200048d6004803603810190620004879190620024e1565b620017b1565b6040516200049c919062002d22565b60405180910390f35b348015620004b257600080fd5b50620004d16004803603810190620004cb9190620027bc565b620017d1565b604051620004e0919062002fdf565b60405180910390f35b348015620004f657600080fd5b5062000501620017f6565b60405162000510919062002fdf565b60405180910390f35b3480156200052657600080fd5b5062000531620017fc565b005b3480156200054057600080fd5b506200054b62001893565b6040516200055a919062002d79565b60405180910390f35b3480156200057057600080fd5b506200058f6004803603810190620005899190620027bc565b6200192d565b6040516200059e919062002fdf565b60405180910390f35b348015620005b457600080fd5b50620005d36004803603810190620005cd9190620025b6565b62001952565b604051620005e2919062002d22565b60405180910390f35b348015620005f857600080fd5b50620006176004803603810190620006119190620025b6565b62001a46565b60405162000626919062002d22565b60405180910390f35b3480156200063c57600080fd5b506200064762001a68565b60405162000656919062002fdf565b60405180910390f35b3480156200066c57600080fd5b506200068b6004803603810190620006859190620027bc565b62001a6e565b6040516200069a919062002fdf565b60405180910390f35b348015620006b057600080fd5b50620006cf6004803603810190620006c9919062002513565b62001a93565b604051620006de919062002fdf565b60405180910390f35b348015620006f457600080fd5b50620006ff62001b1a565b6040516200070e919062002fdf565b60405180910390f35b6060600380546200072890620032e6565b80601f01602080910402602001604051908101604052809291908181526020018280546200075690620032e6565b8015620007a75780601f106200077b57610100808354040283529160200191620007a7565b820191906000526020600020905b8154815290600101906020018083116200078957829003601f168201915b5050505050905090565b6000620007c9620007c162001b20565b848462001b28565b6001905092915050565b6000600254905090565b6000620007ec84848462001cfb565b6000600160008673ffffffffffffffffffffffffffffffffffffffff1673ffffffffffffffffffffffffffffffffffffffff16815260200190815260200160002060006200083962001b20565b73ffffffffffffffffffffffffffffffffffffffff1673ffffffffffffffffffffffffffffffffffffffff16815260200190815260200160002054905082811015620008bc576040517f08c379a0000000000000000000000000000000000000000000000000000000008152600401620008b39062002ead565b60405180910390fd5b620008d485620008cb62001b20565b85840362001b28565b60019150509392505050565b60095434101562000928576040517f08c379a00000000000000000000000000000000000000000000000000000000081526004016200091f9062002e47565b60405180910390fd5b6000805b8251811015620012345760001515600f6000858481518110620009545762000953620033fe565b5b602002602001015173ffffffffffffffffffffffffffffffffffffffff1673ffffffffffffffffffffffffffffffffffffffff16815260200190815260200160002060009054906101000a900460ff16151514620009e9576040517f08c379a0000000000000000000000000000000000000000000000000000000008152600401620009e09062002f9b565b60405180910390fd5b62000a3283828151811062000a035762000a02620033fe565b5b60200260200101517fbe0a4afe0000000000000000000000000000000000000000000000000000000062001f8d565b62000a3c57600080fd5b600083828151811062000a545762000a53620033fe565b5b602002602001015190503073ffffffffffffffffffffffffffffffffffffffff168173ffffffffffffffffffffffffffffffffffffffff166371ca337d6040518163ffffffff1660e01b815260040160206040518083038186803b15801562000abc57600080fd5b505afa15801562000ad1573d6000803e3d6000fd5b505050506040513d601f19601f8201168201806040525081019062000af791906200262f565b73ffffffffffffffffffffffffffffffffffffffff161462000b50576040517f08c379a000000000000000000000000000000000000000000000000000000000815260040162000b479062002f57565b60405180910390fd5b600073ffffffffffffffffffffffffffffffffffffffff1660118273ffffffffffffffffffffffffffffffffffffffff166306fdde036040518163ffffffff1660e01b815260040160006040518083038186803b15801562000bb157600080fd5b505afa15801562000bc6573d6000803e3d6000fd5b505050506040513d6000823e3d601f19601f8201168201806040525081019062000bf19190620026b2565b60405162000c00919062002c7a565b908152602001604051809103902060009054906101000a900473ffffffffffffffffffffffffffffffffffffffff1673ffffffffffffffffffffffffffffffffffffffff161462000c88576040517f08c379a000000000000000000000000000000000000000000000000000000000815260040162000c7f9062002e8b565b60405180910390fd5b600d548173ffffffffffffffffffffffffffffffffffffffff166388a17bde6040518163ffffffff1660e01b815260040160206040518083038186803b15801562000cd257600080fd5b505afa15801562000ce7573d6000803e3d6000fd5b505050506040513d601f19601f8201168201806040525081019062000d0d9190620027ee565b1115801562000d9f5750600e548173ffffffffffffffffffffffffffffffffffffffff166388a17bde6040518163ffffffff1660e01b815260040160206040518083038186803b15801562000d6157600080fd5b505afa15801562000d76573d6000803e3d6000fd5b505050506040513d601f19601f8201168201806040525081019062000d9c9190620027ee565b10155b62000de1576040517f08c379a000000000000000000000000000000000000000000000000000000000815260040162000dd89062002f35565b60405180910390fd5b60008173ffffffffffffffffffffffffffffffffffffffff166339788bc86040518163ffffffff1660e01b815260040160206040518083038186803b15801562000e2a57600080fd5b505afa15801562000e3f573d6000803e3d6000fd5b505050506040513d601f19601f8201168201806040525081019062000e659190620027ee565b1462000ea8576040517f08c379a000000000000000000000000000000000000000000000000000000000815260040162000e9f9062002e03565b60405180910390fd5b60008173ffffffffffffffffffffffffffffffffffffffff16630f941d566040518163ffffffff1660e01b815260040160206040518083038186803b15801562000ef157600080fd5b505afa15801562000f06573d6000803e3d6000fd5b505050506040513d601f19601f8201168201806040525081019062000f2c9190620027ee565b1462000f6f576040517f08c379a000000000000000000000000000000000000000000000000000000000815260040162000f669062002de1565b60405180910390fd5b60005b600a805490508110156200121c57600a818154811062000f975762000f96620033fe565b5b90600052602060002001548273ffffffffffffffffffffffffffffffffffffffff166388a17bde6040518163ffffffff1660e01b815260040160206040518083038186803b15801562000fe957600080fd5b505afa15801562000ffe573d6000803e3d6000fd5b505050506040513d601f19601f82011682018060405250810190620010249190620027ee565b1162001216578173ffffffffffffffffffffffffffffffffffffffff166397541c32600b83815481106200105d576200105c620033fe565b5b90600052602060002001546040518263ffffffff1660e01b815260040162001086919062002fdf565b600060405180830381600087803b158015620010a157600080fd5b505af1158015620010b6573d6000803e3d6000fd5b505050508173ffffffffffffffffffffffffffffffffffffffff1663f8d3dea0600c8381548110620010ed57620010ec620033fe565b5b90600052602060002001546040518263ffffffff1660e01b815260040162001116919062002fdf565b600060405180830381600087803b1580156200113157600080fd5b505af115801562001146573d6000803e3d6000fd5b505050508173ffffffffffffffffffffffffffffffffffffffff16630ceb2cef6006546040518263ffffffff1660e01b815260040162001187919062002fdf565b600060405180830381600087803b158015620011a257600080fd5b505af1158015620011b7573d6000803e3d6000fd5b50505050600a8181548110620011d257620011d1620033fe565b5b90600052602060002001548410620011eb57836200120e565b600a8181548110620012025762001201620033fe565b5b90600052602060002001545b93506200121c565b62000f72565b505080806200122b9062003352565b9150506200092c565b506000811415620012465750620012d7565b60003060016006546200125a91906200314a565b8686866040516200126b90620022b6565b6200127b95949392919062002cb0565b604051809103906000f08015801562001298573d6000803e3d6000fd5b5090507fcaaa218e26c347dd8fe97b17c68eaf6aea438eb9148b85e84477e3050089ae8381604051620012cc919062002c93565b60405180910390a150505b505050565b60126020528060005260406000206000915054906101000a900473ffffffffffffffffffffffffffffffffffffffff1681565b60006012905090565b6000620013c26200132862001b20565b8484600160006200133862001b20565b73ffffffffffffffffffffffffffffffffffffffff1673ffffffffffffffffffffffffffffffffffffffff16815260200190815260200160002060008873ffffffffffffffffffffffffffffffffffffffff1673ffffffffffffffffffffffffffffffffffffffff16815260200190815260200160002054620013bc91906200314a565b62001b28565b6001905092915050565b600f60003373ffffffffffffffffffffffffffffffffffffffff1673ffffffffffffffffffffffffffffffffffffffff16815260200190815260200160002060009054906101000a900460ff1680620014725750600560009054906101000a900473ffffffffffffffffffffffffffffffffffffffff1673ffffffffffffffffffffffffffffffffffffffff163373ffffffffffffffffffffffffffffffffffffffff16145b620014b4576040517f08c379a0000000000000000000000000000000000000000000000000000000008152600401620014ab9062002ecf565b60405180910390fd5b803373ffffffffffffffffffffffffffffffffffffffff166388a17bde6040518163ffffffff1660e01b815260040160206040518083038186803b158015620014fc57600080fd5b505afa15801562001511573d6000803e3d6000fd5b505050506040513d601f19601f82011682018060405250810190620015379190620027ee565b10156200157b576040517f08c379a0000000000000000000000000000000000000000000000000000000008152600401620015729062002e69565b60405180910390fd5b433373ffffffffffffffffffffffffffffffffffffffff16630fb5a6b46040518163ffffffff1660e01b815260040160206040518083038186803b158015620015c357600080fd5b505afa158015620015d8573d6000803e3d6000fd5b505050506040513d601f19601f82011682018060405250810190620015fe9190620027ee565b10156200160a57600080fd5b3373ffffffffffffffffffffffffffffffffffffffff16632bd8d552823373ffffffffffffffffffffffffffffffffffffffff166388a17bde6040518163ffffffff1660e01b815260040160206040518083038186803b1580156200166e57600080fd5b505afa15801562001683573d6000803e3d6000fd5b505050506040513d601f19601f82011682018060405250810190620016a99190620027ee565b620016b59190620031a7565b6040518263ffffffff1660e01b8152600401620016d3919062002fdf565b600060405180830381600087803b158015620016ee57600080fd5b505af115801562001703573d6000803e3d6000fd5b5050505062001713828262001fb7565b5050565b6011818051602081018201805184825260208301602085012081835280955050505050506000915054906101000a900473ffffffffffffffffffffffffffffffffffffffff1681565b60085481565b50565b60008060008373ffffffffffffffffffffffffffffffffffffffff1673ffffffffffffffffffffffffffffffffffffffff168152602001908152602001600020549050919050565b600f6020528060005260406000206000915054906101000a900460ff1681565b600c8181548110620017e257600080fd5b906000526020600020016000915090505481565b60065481565b6008546007546200180e91906200314a565b4310156200181b57600080fd5b600854600760008282546200183191906200314a565b92505081905550600660008154809291906200184d9062003352565b91905055507f27d6c6200f2a93b4e2eb544130a14df1a48054c8ca67317d8a7ed5d03e2efe376006546007546040516200188992919062002ffc565b60405180910390a1565b606060048054620018a490620032e6565b80601f0160208091040260200160405190810160405280929190818152602001828054620018d290620032e6565b8015620019235780601f10620018f75761010080835404028352916020019162001923565b820191906000526020600020905b8154815290600101906020018083116200190557829003601f168201915b5050505050905090565b600b81815481106200193e57600080fd5b906000526020600020016000915090505481565b600080600160006200196362001b20565b73ffffffffffffffffffffffffffffffffffffffff1673ffffffffffffffffffffffffffffffffffffffff16815260200190815260200160002060008573ffffffffffffffffffffffffffffffffffffffff1673ffffffffffffffffffffffffffffffffffffffff1681526020019081526020016000205490508281101562001a23576040517f08c379a000000000000000000000000000000000000000000000000000000000815260040162001a1a9062002f79565b60405180910390fd5b62001a3b62001a3162001b20565b8585840362001b28565b600191505092915050565b600062001a5e62001a5662001b20565b848462001cfb565b6001905092915050565b60075481565b600a818154811062001a7f57600080fd5b906000526020600020016000915090505481565b6000600160008473ffffffffffffffffffffffffffffffffffffffff1673ffffffffffffffffffffffffffffffffffffffff16815260200190815260200160002060008373ffffffffffffffffffffffffffffffffffffffff1673ffffffffffffffffffffffffffffffffffffffff16815260200190815260200160002054905092915050565b60095481565b600033905090565b600073ffffffffffffffffffffffffffffffffffffffff168373ffffffffffffffffffffffffffffffffffffffff16141562001b9b576040517f08c379a000000000000000000000000000000000000000000000000000000000815260040162001b929062002f13565b60405180910390fd5b600073ffffffffffffffffffffffffffffffffffffffff168273ffffffffffffffffffffffffffffffffffffffff16141562001c0e576040517f08c379a000000000000000000000000000000000000000000000000000000000815260040162001c059062002dbf565b60405180910390fd5b80600160008573ffffffffffffffffffffffffffffffffffffffff1673ffffffffffffffffffffffffffffffffffffffff16815260200190815260200160002060008473ffffffffffffffffffffffffffffffffffffffff1673ffffffffffffffffffffffffffffffffffffffff168152602001908152602001600020819055508173ffffffffffffffffffffffffffffffffffffffff168373ffffffffffffffffffffffffffffffffffffffff167f8c5be1e5ebec7d5bd14f71427d1e84f3dd0314c0f7b2291e5b200ac8c7c3b9258360405162001cee919062002fdf565b60405180910390a3505050565b600073ffffffffffffffffffffffffffffffffffffffff168373ffffffffffffffffffffffffffffffffffffffff16141562001d6e576040517f08c379a000000000000000000000000000000000000000000000000000000000815260040162001d659062002ef1565b60405180910390fd5b600073ffffffffffffffffffffffffffffffffffffffff168273ffffffffffffffffffffffffffffffffffffffff16141562001de1576040517f08c379a000000000000000000000000000000000000000000000000000000000815260040162001dd89062002d9d565b60405180910390fd5b62001dee83838362002124565b60008060008573ffffffffffffffffffffffffffffffffffffffff1673ffffffffffffffffffffffffffffffffffffffff1681526020019081526020016000205490508181101562001e77576040517f08c379a000000000000000000000000000000000000000000000000000000000815260040162001e6e9062002e25565b60405180910390fd5b8181036000808673ffffffffffffffffffffffffffffffffffffffff1673ffffffffffffffffffffffffffffffffffffffff16815260200190815260200160002081905550816000808573ffffffffffffffffffffffffffffffffffffffff1673ffffffffffffffffffffffffffffffffffffffff168152602001908152602001600020600082825462001f0c91906200314a565b925050819055508273ffffffffffffffffffffffffffffffffffffffff168473ffffffffffffffffffffffffffffffffffffffff167fddf252ad1be2c89b69c2b068fc378daa952ba7f163c4a11628f55a4df523b3ef8460405162001f72919062002fdf565b60405180910390a362001f8784848462002129565b50505050565b600062001f9a836200212e565b801562001faf575062001fae838362002180565b5b905092915050565b600073ffffffffffffffffffffffffffffffffffffffff168273ffffffffffffffffffffffffffffffffffffffff1614156200202a576040517f08c379a0000000000000000000000000000000000000000000000000000000008152600401620020219062002fbd565b60405180910390fd5b620020386000838362002124565b80600260008282546200204c91906200314a565b92505081905550806000808473ffffffffffffffffffffffffffffffffffffffff1673ffffffffffffffffffffffffffffffffffffffff1681526020019081526020016000206000828254620020a391906200314a565b925050819055508173ffffffffffffffffffffffffffffffffffffffff16600073ffffffffffffffffffffffffffffffffffffffff167fddf252ad1be2c89b69c2b068fc378daa952ba7f163c4a11628f55a4df523b3ef836040516200210a919062002fdf565b60405180910390a3620021206000838362002129565b5050565b505050565b505050565b60006200215c827f01ffc9a70000000000000000000000000000000000000000000000000000000062002180565b8015620021795750620021778263ffffffff60e01b62002180565b155b9050919050565b6000806301ffc9a760e01b836040516024016200219e919062002d3f565b604051602081830303815290604052907bffffffffffffffffffffffffffffffffffffffffffffffffffffffff19166020820180517bffffffffffffffffffffffffffffffffffffffffffffffffffffffff838183161783525050505090506000808573ffffffffffffffffffffffffffffffffffffffff16617530846040516200222a919062002c61565b6000604051808303818686fa925050503d806000811462002268576040519150601f19603f3d011682016040523d82523d6000602084013e6200226d565b606091505b50915091506020815110156200228a5760009350505050620022b0565b818015620022aa575080806020019051810190620022a99190620025fd565b5b93505050505b92915050565b6118c180620039bc83390190565b6000620022db620022d5846200306f565b62003046565b9050808382526020820190508285602086028201111562002301576200230062003461565b5b60005b858110156200233557816200231a8882620023d5565b84526020840193506020830192505060018101905062002304565b5050509392505050565b60006200235662002350846200309e565b62003046565b90508281526020810184848401111562002375576200237462003466565b5b62002382848285620032a1565b509392505050565b6000620023a16200239b846200309e565b62003046565b905082815260208101848484011115620023c057620023bf62003466565b5b620023cd848285620032b0565b509392505050565b600081359050620023e68162003953565b92915050565b600082601f8301126200240457620024036200345c565b5b813562002416848260208601620022c4565b91505092915050565b60008151905062002430816200396d565b92915050565b600081519050620024478162003987565b92915050565b600082601f8301126200246557620024646200345c565b5b8135620024778482602086016200233f565b91505092915050565b600082601f8301126200249857620024976200345c565b5b8151620024aa8482602086016200238a565b91505092915050565b600081359050620024c481620039a1565b92915050565b600081519050620024db81620039a1565b92915050565b600060208284031215620024fa57620024f962003470565b5b60006200250a84828501620023d5565b91505092915050565b600080604083850312156200252d576200252c62003470565b5b60006200253d85828601620023d5565b92505060206200255085828601620023d5565b9150509250929050565b60008060006060848603121562002576576200257562003470565b5b60006200258686828701620023d5565b93505060206200259986828701620023d5565b9250506040620025ac86828701620024b3565b9150509250925092565b60008060408385031215620025d057620025cf62003470565b5b6000620025e085828601620023d5565b9250506020620025f385828601620024b3565b9150509250929050565b60006020828403121562002616576200261562003470565b5b600062002626848285016200241f565b91505092915050565b60006020828403121562002648576200264762003470565b5b6000620026588482850162002436565b91505092915050565b6000602082840312156200267a576200267962003470565b5b600082013567ffffffffffffffff8111156200269b576200269a6200346b565b5b620026a9848285016200244d565b91505092915050565b600060208284031215620026cb57620026ca62003470565b5b600082015167ffffffffffffffff811115620026ec57620026eb6200346b565b5b620026fa8482850162002480565b91505092915050565b6000806000606084860312156200271f576200271e62003470565b5b600084013567ffffffffffffffff81111562002740576200273f6200346b565b5b6200274e868287016200244d565b935050602084013567ffffffffffffffff8111156200277257620027716200346b565b5b62002780868287016200244d565b925050604084013567ffffffffffffffff811115620027a457620027a36200346b565b5b620027b286828701620023ec565b9150509250925092565b600060208284031215620027d557620027d462003470565b5b6000620027e584828501620024b3565b91505092915050565b60006020828403121562002807576200280662003470565b5b60006200281784828501620024ca565b91505092915050565b60006200282e83836200283a565b60208301905092915050565b6200284581620031e2565b82525050565b6200285681620031e2565b82525050565b60006200286982620030e4565b62002875818562003112565b93506200288283620030d4565b8060005b83811015620028b95781516200289d888262002820565b9750620028aa8362003105565b92505060018101905062002886565b5085935050505092915050565b620028d181620031f6565b82525050565b620028e28162003202565b82525050565b6000620028f582620030ef565b62002901818562003123565b935062002913818560208601620032b0565b80840191505092915050565b6200292a8162003279565b82525050565b60006200293d82620030fa565b6200294981856200312e565b93506200295b818560208601620032b0565b620029668162003475565b840191505092915050565b60006200297e82620030fa565b6200298a81856200313f565b93506200299c818560208601620032b0565b80840191505092915050565b6000620029b76023836200312e565b9150620029c48262003486565b604082019050919050565b6000620029de6022836200312e565b9150620029eb82620034d5565b604082019050919050565b600062002a056023836200312e565b915062002a128262003524565b604082019050919050565b600062002a2c6024836200312e565b915062002a398262003573565b604082019050919050565b600062002a536026836200312e565b915062002a6082620035c2565b604082019050919050565b600062002a7a6024836200312e565b915062002a878262003611565b604082019050919050565b600062002aa16033836200312e565b915062002aae8262003660565b604082019050919050565b600062002ac86014836200312e565b915062002ad582620036af565b602082019050919050565b600062002aef6028836200312e565b915062002afc82620036d8565b604082019050919050565b600062002b166030836200312e565b915062002b238262003727565b604082019050919050565b600062002b3d6025836200312e565b915062002b4a8262003776565b604082019050919050565b600062002b646024836200312e565b915062002b7182620037c5565b604082019050919050565b600062002b8b602a836200312e565b915062002b988262003814565b604082019050919050565b600062002bb2601b836200312e565b915062002bbf8262003863565b602082019050919050565b600062002bd96025836200312e565b915062002be6826200388c565b604082019050919050565b600062002c00602f836200312e565b915062002c0d82620038db565b604082019050919050565b600062002c27601f836200312e565b915062002c34826200392a565b602082019050919050565b62002c4a8162003262565b82525050565b62002c5b816200326c565b82525050565b600062002c6f8284620028e8565b915081905092915050565b600062002c88828462002971565b915081905092915050565b600060208201905062002caa60008301846200284b565b92915050565b600060a08201905062002cc760008301886200284b565b62002cd6602083018762002c3f565b818103604083015262002cea818662002930565b9050818103606083015262002d00818562002930565b9050818103608083015262002d1681846200285c565b90509695505050505050565b600060208201905062002d396000830184620028c6565b92915050565b600060208201905062002d566000830184620028d7565b92915050565b600060208201905062002d7360008301846200291f565b92915050565b6000602082019050818103600083015262002d95818462002930565b905092915050565b6000602082019050818103600083015262002db881620029a8565b9050919050565b6000602082019050818103600083015262002dda81620029cf565b9050919050565b6000602082019050818103600083015262002dfc81620029f6565b9050919050565b6000602082019050818103600083015262002e1e8162002a1d565b9050919050565b6000602082019050818103600083015262002e408162002a44565b9050919050565b6000602082019050818103600083015262002e628162002a6b565b9050919050565b6000602082019050818103600083015262002e848162002a92565b9050919050565b6000602082019050818103600083015262002ea68162002ab9565b9050919050565b6000602082019050818103600083015262002ec88162002ae0565b9050919050565b6000602082019050818103600083015262002eea8162002b07565b9050919050565b6000602082019050818103600083015262002f0c8162002b2e565b9050919050565b6000602082019050818103600083015262002f2e8162002b55565b9050919050565b6000602082019050818103600083015262002f508162002b7c565b9050919050565b6000602082019050818103600083015262002f728162002ba3565b9050919050565b6000602082019050818103600083015262002f948162002bca565b9050919050565b6000602082019050818103600083015262002fb68162002bf1565b9050919050565b6000602082019050818103600083015262002fd88162002c18565b9050919050565b600060208201905062002ff6600083018462002c3f565b92915050565b600060408201905062003013600083018562002c3f565b62003022602083018462002c3f565b9392505050565b600060208201905062003040600083018462002c50565b92915050565b60006200305262003065565b90506200306082826200331c565b919050565b6000604051905090565b600067ffffffffffffffff8211156200308d576200308c6200342d565b5b602082029050602081019050919050565b600067ffffffffffffffff821115620030bc57620030bb6200342d565b5b620030c78262003475565b9050602081019050919050565b6000819050602082019050919050565b600081519050919050565b600081519050919050565b600081519050919050565b6000602082019050919050565b600082825260208201905092915050565b600081905092915050565b600082825260208201905092915050565b600081905092915050565b6000620031578262003262565b9150620031648362003262565b9250827fffffffffffffffffffffffffffffffffffffffffffffffffffffffffffffffff038211156200319c576200319b620033a0565b5b828201905092915050565b6000620031b48262003262565b9150620031c18362003262565b925082821015620031d757620031d6620033a0565b5b828203905092915050565b6000620031ef8262003242565b9050919050565b60008115159050919050565b60007fffffffff0000000000000000000000000000000000000000000000000000000082169050919050565b60006200323b82620031e2565b9050919050565b600073ffffffffffffffffffffffffffffffffffffffff82169050919050565b6000819050919050565b600060ff82169050919050565b600062003286826200328d565b9050919050565b60006200329a8262003242565b9050919050565b82818337600083830152505050565b60005b83811015620032d0578082015181840152602081019050620032b3565b83811115620032e0576000848401525b50505050565b60006002820490506001821680620032ff57607f821691505b60208210811415620033165762003315620033cf565b5b50919050565b620033278262003475565b810181811067ffffffffffffffff821117156200334957620033486200342d565b5b80604052505050565b60006200335f8262003262565b91507fffffffffffffffffffffffffffffffffffffffffffffffffffffffffffffffff821415620033955762003394620033a0565b5b600182019050919050565b7f4e487b7100000000000000000000000000000000000000000000000000000000600052601160045260246000fd5b7f4e487b7100000000000000000000000000000000000000000000000000000000600052602260045260246000fd5b7f4e487b7100000000000000000000000000000000000000000000000000000000600052603260045260246000fd5b7f4e487b7100000000000000000000000000000000000000000000000000000000600052604160045260246000fd5b600080fd5b600080fd5b600080fd5b600080fd5b600080fd5b6000601f19601f8301169050919050565b7f45524332303a207472616e7366657220746f20746865207a65726f206164647260008201527f6573730000000000000000000000000000000000000000000000000000000000602082015250565b7f45524332303a20617070726f766520746f20746865207a65726f20616464726560008201527f7373000000000000000000000000000000000000000000000000000000000000602082015250565b7f476f7665726e65642072656d6f76616c207661726961626c65206e6f74207a6560008201527f726f2e0000000000000000000000000000000000000000000000000000000000602082015250565b7f476f7665726e656420617070726f76616c207661726961626c65206e6f74207a60008201527f65726f2e00000000000000000000000000000000000000000000000000000000602082015250565b7f45524332303a207472616e7366657220616d6f756e742065786365656473206260008201527f616c616e63650000000000000000000000000000000000000000000000000000602082015250565b7f496e737566666963656e742070726f706f73616c20636f7374207375626d697460008201527f7465642e00000000000000000000000000000000000000000000000000000000602082015250565b7f436f6e7472616374206e6f7420616c6c6f636174656420656e6f75676820746f60008201527f206d696e7420616d6f756e7420676976656e2e00000000000000000000000000602082015250565b7f436f6e7472616374206e616d652074616b656e2e000000000000000000000000600082015250565b7f45524332303a207472616e7366657220616d6f756e742065786365656473206160008201527f6c6c6f77616e6365000000000000000000000000000000000000000000000000602082015250565b7f4f6e6c79206120676f7665726e656420636f6e74726163742063616e2063616c60008201527f6c20746869732066756e6374696f6e2e00000000000000000000000000000000602082015250565b7f45524332303a207472616e736665722066726f6d20746865207a65726f20616460008201527f6472657373000000000000000000000000000000000000000000000000000000602082015250565b7f45524332303a20617070726f76652066726f6d20746865207a65726f2061646460008201527f7265737300000000000000000000000000000000000000000000000000000000602082015250565b7f476f7665726e656420636f6e747261637420616c6c6f636174696f6e206f757460008201527f206f662072616e67652e00000000000000000000000000000000000000000000602082015250565b7f526174696f206164647265737320697320696e636f72726563742e0000000000600082015250565b7f45524332303a2064656372656173656420616c6c6f77616e63652062656c6f7760008201527f207a65726f000000000000000000000000000000000000000000000000000000602082015250565b7f50726f706f73616c20636f6e7461696e7320616e20616c726561647920676f7660008201527f65726e656420636f6e74726163742e0000000000000000000000000000000000602082015250565b7f45524332303a206d696e7420746f20746865207a65726f206164647265737300600082015250565b6200395e81620031e2565b81146200396a57600080fd5b50565b6200397881620031f6565b81146200398457600080fd5b50565b62003992816200322e565b81146200399e57600080fd5b50565b620039ac8162003262565b8114620039b857600080fd5b5056fe60806040523480156200001157600080fd5b50604051620018c1380380620018c18339818101604052810190620000379190620004e9565b620000687f01ffc9a7000000000000000000000000000000000000000000000000000000006200017860201b60201c565b620000997f880b6916000000000000000000000000000000000000000000000000000000006200017860201b60201c565b84600160006101000a81548173ffffffffffffffffffffffffffffffffffffffff021916908373ffffffffffffffffffffffffffffffffffffffff160217905550836002819055508260039080519060200190620000f992919062000250565b50806004908051906020019062000112929190620002e1565b5081600590805190602001906200012b92919062000250565b5033600660016101000a81548173ffffffffffffffffffffffffffffffffffffffff021916908373ffffffffffffffffffffffffffffffffffffffff16021790555050505050506200087b565b63ffffffff60e01b817bffffffffffffffffffffffffffffffffffffffffffffffffffffffff19161415620001e4576040517f08c379a0000000000000000000000000000000000000000000000000000000008152600401620001db90620005f5565b60405180910390fd5b6001600080837bffffffffffffffffffffffffffffffffffffffffffffffffffffffff19167bffffffffffffffffffffffffffffffffffffffffffffffffffffffff1916815260200190815260200160002060006101000a81548160ff02191690831515021790555050565b8280546200025e906200072a565b90600052602060002090601f016020900481019282620002825760008555620002ce565b82601f106200029d57805160ff1916838001178555620002ce565b82800160010185558215620002ce579182015b82811115620002cd578251825591602001919060010190620002b0565b5b509050620002dd919062000370565b5090565b8280548282559060005260206000209081019282156200035d579160200282015b828111156200035c5782518260006101000a81548173ffffffffffffffffffffffffffffffffffffffff021916908373ffffffffffffffffffffffffffffffffffffffff1602179055509160200191906001019062000302565b5b5090506200036c919062000370565b5090565b5b808211156200038b57600081600090555060010162000371565b5090565b6000620003a6620003a08462000640565b62000617565b90508083825260208201905082856020860282011115620003cc57620003cb620007f9565b5b60005b85811015620004005781620003e5888262000455565b845260208401935060208301925050600181019050620003cf565b5050509392505050565b6000620004216200041b846200066f565b62000617565b90508281526020810184848401111562000440576200043f620007fe565b5b6200044d848285620006f4565b509392505050565b600081519050620004668162000847565b92915050565b600082601f830112620004845762000483620007f4565b5b8151620004968482602086016200038f565b91505092915050565b600082601f830112620004b757620004b6620007f4565b5b8151620004c98482602086016200040a565b91505092915050565b600081519050620004e38162000861565b92915050565b600080600080600060a0868803121562000508576200050762000808565b5b6000620005188882890162000455565b95505060206200052b88828901620004d2565b945050604086015167ffffffffffffffff8111156200054f576200054e62000803565b5b6200055d888289016200049f565b935050606086015167ffffffffffffffff81111562000581576200058062000803565b5b6200058f888289016200049f565b925050608086015167ffffffffffffffff811115620005b357620005b262000803565b5b620005c1888289016200046c565b9150509295509295909350565b6000620005dd601c83620006a5565b9150620005ea826200081e565b602082019050919050565b600060208201905081810360008301526200061081620005ce565b9050919050565b60006200062362000636565b905062000631828262000760565b919050565b6000604051905090565b600067ffffffffffffffff8211156200065e576200065d620007c5565b5b602082029050602081019050919050565b600067ffffffffffffffff8211156200068d576200068c620007c5565b5b62000698826200080d565b9050602081019050919050565b600082825260208201905092915050565b6000620006c382620006ca565b9050919050565b600073ffffffffffffffffffffffffffffffffffffffff82169050919050565b6000819050919050565b60005b8381101562000714578082015181840152602081019050620006f7565b8381111562000724576000848401525b50505050565b600060028204905060018216806200074357607f821691505b602082108114156200075a576200075962000796565b5b50919050565b6200076b826200080d565b810181811067ffffffffffffffff821117156200078d576200078c620007c5565b5b80604052505050565b7f4e487b7100000000000000000000000000000000000000000000000000000000600052602260045260246000fd5b7f4e487b7100000000000000000000000000000000000000000000000000000000600052604160045260246000fd5b600080fd5b600080fd5b600080fd5b600080fd5b600080fd5b6000601f19601f8301169050919050565b7f4552433136353a20696e76616c696420696e7465726661636520696400000000600082015250565b6200085281620006b6565b81146200085e57600080fd5b50565b6200086c81620006ea565b81146200087857600080fd5b50565b611036806200088b6000396000f3fe608060405234801561001057600080fd5b50600436106100ea5760003560e01c8063960664d11161008c578063b17aabe111610066578063b17aabe11461023b578063c1b4335714610259578063d3f29ace14610289578063fcfff16f146102a5576100ea565b8063960664d1146101d1578063a8e4fb9014610201578063ac56fd511461021f576100ea565b806346d5a568116100c857806346d5a5681461015b57806371ca337d146101775780637284e41614610195578063900cf0cf146101b3576100ea565b806301ffc9a7146100ef57806306fdde031461011f57806319d40b081461013d575b600080fd5b61010960048036038101906101049190610a48565b6102c3565b6040516101169190610bd6565b60405180910390f35b61012761033a565b6040516101349190610bf1565b60405180910390f35b6101456103c8565b6040516101529190610bd6565b60405180910390f35b61017560048036038101906101709190610a1b565b6103db565b005b61017f610488565b60405161018c9190610bbb565b60405180910390f35b61019d6104ae565b6040516101aa9190610bf1565b60405180910390f35b6101bb61053c565b6040516101c89190610c53565b60405180910390f35b6101eb60048036038101906101e69190610ae2565b610542565b6040516101f89190610bbb565b60405180910390f35b610209610581565b6040516102169190610bbb565b60405180910390f35b610239600480360381019061023491906109d2565b6105a7565b005b610243610651565b6040516102509190610c53565b60405180910390f35b610273600480360381019061026e9190610a75565b61065e565b6040516102809190610c53565b60405180910390f35b6102a3600480360381019061029e9190610aa2565b610676565b005b6102ad6107a7565b6040516102ba9190610bd6565b60405180910390f35b60006102ce826107ba565b806103335750600080837bffffffffffffffffffffffffffffffffffffffffffffffffffffffff19167bffffffffffffffffffffffffffffffffffffffffffffffffffffffff1916815260200190815260200160002060009054906101000a900460ff165b9050919050565b6003805461034790610dd8565b80601f016020809104026020016040519081016040528092919081815260200182805461037390610dd8565b80156103c05780601f10610395576101008083540402835291602001916103c0565b820191906000526020600020905b8154815290600101906020018083116103a357829003601f168201915b505050505081565b600660009054906101000a900460ff1681565b600160009054906101000a900473ffffffffffffffffffffffffffffffffffffffff1673ffffffffffffffffffffffffffffffffffffffff163373ffffffffffffffffffffffffffffffffffffffff161461046b576040517f08c379a000000000000000000000000000000000000000000000000000000000815260040161046290610c33565b60405180910390fd5b80600660006101000a81548160ff02191690831515021790555050565b600160009054906101000a900473ffffffffffffffffffffffffffffffffffffffff1681565b600580546104bb90610dd8565b80601f01602080910402602001604051908101604052809291908181526020018280546104e790610dd8565b80156105345780601f1061050957610100808354040283529160200191610534565b820191906000526020600020905b81548152906001019060200180831161051757829003601f168201915b505050505081565b60025481565b6004818154811061055257600080fd5b906000526020600020016000915054906101000a900473ffffffffffffffffffffffffffffffffffffffff1681565b600660019054906101000a900473ffffffffffffffffffffffffffffffffffffffff1681565b600160009054906101000a900473ffffffffffffffffffffffffffffffffffffffff1673ffffffffffffffffffffffffffffffffffffffff163373ffffffffffffffffffffffffffffffffffffffff1614610637576040517f08c379a000000000000000000000000000000000000000000000000000000000815260040161062e90610c33565b60405180910390fd5b806004908051906020019061064d929190610824565b5050565b6000600480549050905090565b60076020528060005260406000206000915090505481565b600160009054906101000a900473ffffffffffffffffffffffffffffffffffffffff1673ffffffffffffffffffffffffffffffffffffffff163373ffffffffffffffffffffffffffffffffffffffff1614610706576040517f08c379a00000000000000000000000000000000000000000000000000000000081526004016106fd90610c33565b60405180910390fd5b600660159054906101000a900460ff16610755576040517f08c379a000000000000000000000000000000000000000000000000000000000815260040161074c90610c13565b60405180910390fd5b806007600084600281111561076d5761076c610e6a565b5b600281111561077f5761077e610e6a565b5b8152602001908152602001600020600082825461079c9190610cdb565b925050819055505050565b600660159054906101000a900460ff1681565b60007f01ffc9a7000000000000000000000000000000000000000000000000000000007bffffffffffffffffffffffffffffffffffffffffffffffffffffffff1916827bffffffffffffffffffffffffffffffffffffffffffffffffffffffff1916149050919050565b82805482825590600052602060002090810192821561089d579160200282015b8281111561089c5782518260006101000a81548173ffffffffffffffffffffffffffffffffffffffff021916908373ffffffffffffffffffffffffffffffffffffffff16021790555091602001919060010190610844565b5b5090506108aa91906108ae565b5090565b5b808211156108c75760008160009055506001016108af565b5090565b60006108de6108d984610c93565b610c6e565b9050808382526020820190508285602086028201111561090157610900610efc565b5b60005b858110156109315781610917888261093b565b845260208401935060208301925050600181019050610904565b5050509392505050565b60008135905061094a81610f94565b92915050565b600082601f83011261096557610964610ef7565b5b81356109758482602086016108cb565b91505092915050565b60008135905061098d81610fab565b92915050565b6000813590506109a281610fc2565b92915050565b6000813590506109b781610fd9565b92915050565b6000813590506109cc81610fe9565b92915050565b6000602082840312156109e8576109e7610f06565b5b600082013567ffffffffffffffff811115610a0657610a05610f01565b5b610a1284828501610950565b91505092915050565b600060208284031215610a3157610a30610f06565b5b6000610a3f8482850161097e565b91505092915050565b600060208284031215610a5e57610a5d610f06565b5b6000610a6c84828501610993565b91505092915050565b600060208284031215610a8b57610a8a610f06565b5b6000610a99848285016109a8565b91505092915050565b60008060408385031215610ab957610ab8610f06565b5b6000610ac7858286016109a8565b9250506020610ad8858286016109bd565b9150509250929050565b600060208284031215610af857610af7610f06565b5b6000610b06848285016109bd565b91505092915050565b610b1881610d31565b82525050565b610b2781610d43565b82525050565b6000610b3882610cbf565b610b428185610cca565b9350610b52818560208601610da5565b610b5b81610f0b565b840191505092915050565b6000610b73602483610cca565b9150610b7e82610f1c565b604082019050919050565b6000610b96601883610cca565b9150610ba182610f6b565b602082019050919050565b610bb581610d9b565b82525050565b6000602082019050610bd06000830184610b0f565b92915050565b6000602082019050610beb6000830184610b1e565b92915050565b60006020820190508181036000830152610c0b8184610b2d565b905092915050565b60006020820190508181036000830152610c2c81610b66565b9050919050565b60006020820190508181036000830152610c4c81610b89565b9050919050565b6000602082019050610c686000830184610bac565b92915050565b6000610c78610c89565b9050610c848282610e0a565b919050565b6000604051905090565b600067ffffffffffffffff821115610cae57610cad610ec8565b5b602082029050602081019050919050565b600081519050919050565b600082825260208201905092915050565b6000610ce682610d9b565b9150610cf183610d9b565b9250827fffffffffffffffffffffffffffffffffffffffffffffffffffffffffffffffff03821115610d2657610d25610e3b565b5b828201905092915050565b6000610d3c82610d7b565b9050919050565b60008115159050919050565b60007fffffffff0000000000000000000000000000000000000000000000000000000082169050919050565b600073ffffffffffffffffffffffffffffffffffffffff82169050919050565b6000819050919050565b60005b83811015610dc3578082015181840152602081019050610da8565b83811115610dd2576000848401525b50505050565b60006002820490506001821680610df057607f821691505b60208210811415610e0457610e03610e99565b5b50919050565b610e1382610f0b565b810181811067ffffffffffffffff82111715610e3257610e31610ec8565b5b80604052505050565b7f4e487b7100000000000000000000000000000000000000000000000000000000600052601160045260246000fd5b7f4e487b7100000000000000000000000000000000000000000000000000000000600052602160045260246000fd5b7f4e487b7100000000000000000000000000000000000000000000000000000000600052602260045260246000fd5b7f4e487b7100000000000000000000000000000000000000000000000000000000600052604160045260246000fd5b600080fd5b600080fd5b600080fd5b600080fd5b6000601f19601f8301169050919050565b7f566f74696e6720666f7220746869732070726f706f73616c2068617320636c6f60008201527f7365642e00000000000000000000000000000000000000000000000000000000602082015250565b7f4d7573742062652063616c6c656420627920726174696f2e0000000000000000600082015250565b610f9d81610d31565b8114610fa857600080fd5b50565b610fb481610d43565b8114610fbf57600080fd5b50565b610fcb81610d4f565b8114610fd657600080fd5b50565b60038110610fe657600080fd5b50565b610ff281610d9b565b8114610ffd57600080fd5b5056fea264697066735822122066ad41cb772770617a6924983f8feef118ea284316ea9cb9322a474b20a2574964736f6c63430008050033a2646970667358221220fa1b6cebfdb4469e6c29254f057a451ed36b31b99c44f5f2a64ff11034e35f3964736f6c63430008050033608060405234801561001057600080fd5b506040516103be3803806103be8339818101604052810190610032919061008d565b806000806101000a81548173ffffffffffffffffffffffffffffffffffffffff021916908373ffffffffffffffffffffffffffffffffffffffff16021790555050610108565b600081519050610087816100f1565b92915050565b6000602082840312156100a3576100a26100ec565b5b60006100b184828501610078565b91505092915050565b60006100c5826100cc565b9050919050565b600073ffffffffffffffffffffffffffffffffffffffff82169050919050565b600080fd5b6100fa816100ba565b811461010557600080fd5b50565b6102a7806101176000396000f3fe6080604052600436106100345760003560e01c8063287a61e4146100395780639c3a8e2e14610076578063efc81a8c146100b3575b600080fd5b34801561004557600080fd5b50610060600480360381019061005b919061017e565b6100bd565b60405161006d91906101c9565b60405180910390f35b34801561008257600080fd5b5061009d6004803603810190610098919061017e565b610126565b6040516100aa91906101e4565b60405180910390f35b6100bb610159565b005b6000600260008373ffffffffffffffffffffffffffffffffffffffff1673ffffffffffffffffffffffffffffffffffffffff16815260200190815260200160002060009054906101000a900473ffffffffffffffffffffffffffffffffffffffff169050919050565b60026020528060005260406000206000915054906101000a900473ffffffffffffffffffffffffffffffffffffffff1681565b600154341161016757600080fd5b565b6000813590506101788161025a565b92915050565b60006020828403121561019457610193610255565b5b60006101a284828501610169565b91505092915050565b6101b4816101ff565b82525050565b6101c381610231565b82525050565b60006020820190506101de60008301846101ab565b92915050565b60006020820190506101f960008301846101ba565b92915050565b600061020a82610211565b9050919050565b600073ffffffffffffffffffffffffffffffffffffffff82169050919050565b600061023c82610243565b9050919050565b600061024e82610211565b9050919050565b600080fd5b610263816101ff565b811461026e57600080fd5b5056fea2646970667358221220fea2ecc7b305c1eb97de1b0c88bd8ea6c3f18c51a9cb883b9610242676a824aa64736f6c63430008050033",
  "immutableReferences": {},
  "source": "pragma solidity ^0.8.0;\r\n\r\nimport \"@openzeppelin/contracts/token/ERC20/ERC20.sol\";\r\n\r\nimport \"@openzeppelin/contracts/utils/introspection/ERC165Checker.sol\";\r\n\r\nimport \"./core/Profiles.sol\";\r\n\r\nimport \"./core/Governed.sol\";\r\n\r\nimport \"./core/Proposal.sol\";\r\n\r\nimport \"./interfaces/IGoverned.sol\";\r\n\r\nimport \"./interfaces/IProposal.sol\";\r\n\r\n// Ratio DAO contract to distribute governance tokens to smart contracts.\r\ncontract Ratio is ERC20{\r\n\r\n    /*\r\n     * Core Contracts.\r\n     */\r\n\r\n    // Profiles of Ratio.\r\n    Profiles profiles;\r\n\r\n    /* \r\n     * Core Variables.\r\n     */\r\n    \r\n    // The current ratio governance epoch.\r\n    uint public epoch;\r\n\r\n    // The block which starts the current epoch.\r\n    uint public epochBlock;\r\n\r\n    // The number of blocks that make up an epoch.\r\n    uint public epochDuration;\r\n\r\n    // The amount of ether required to make a proposal.\r\n    uint public proposalCost;\r\n\r\n    // Thresholds to determine what allocations should have what approval threshold.\r\n    uint[] public allocationThresholds; \r\n\r\n    // Thresholds to determine amount of positive voting needed to pass the proposal. (positiveVoting = (aproveVotingPower - disaproveVotingPower) * divisionConstant / totalVotingPower)\r\n    uint[] public approvalThresholds;\r\n\r\n    // Thresholds to determine amount of negative voting needed to remove the proposal. Inverse of above.\r\n    uint[] public removalThresholds;\r\n\r\n    // Maximum allocation a contract can be given.\r\n    uint maxAllocation;\r\n\r\n    // Minimum allocation a contract can be given.\r\n    uint minAllocation;\r\n\r\n    /* \r\n     * Governed contract variables.\r\n     */\r\n\r\n    // mapping to determine if the address is governed\r\n    mapping(address => bool) public GovernedContracts;\r\n\r\n    // array of the governed contracts\r\n    address[] GovernedContractsArray;\r\n\r\n    mapping(string => address) public findGovernedContract;\r\n\r\n    // Proposal contract variables.\r\n    mapping(address => Proposal) public Proposals;\r\n\r\n    // Max int declaration for core governed contracts.    \r\n    uint256 MAX_INT = 2**256 - 1;\r\n\r\n    // Event emited when an aprove proposal is created.\r\n    event ApproveProposal(address _proposal);\r\n\r\n    // Event emited when a new epoch begins.\r\n    event Epoch(uint _epoch, uint _block);\r\n\r\n    modifier isGoverned{\r\n        require(GovernedContracts[msg.sender]||  msg.sender == address(profiles), \"Only a governed contract can call this function.\");\r\n        _;\r\n    }\r\n\r\n    constructor(uint[] memory _allocationThresholds, uint[] memory _approvalThresholds, uint[] memory _removalThresholds)ERC20(\"Ratio\", \"RATIO\"){\r\n        // Initialize Profiles contract.\r\n        profiles = new Profiles(address(this));\r\n\r\n        epoch = 0;\r\n        epochBlock = block.number;\r\n        epochDuration = 1_000_000_000;\r\n\r\n        allocationThresholds = _allocationThresholds;\r\n        approvalThresholds = _approvalThresholds;\r\n        removalThresholds = _removalThresholds;\r\n\r\n        maxAllocation = 1_000_000_000 * (10 ** 18);\r\n\r\n        proposalCost = 10 ** 17;\r\n    }\r\n\r\n    // Core Functions\r\n    function mint(address _reciever, uint _amount) isGoverned external {\r\n        // instantiate a the governed contract to \r\n        require(Governed(msg.sender).allocation() >= _amount, \"Contract not allocated enough to mint amount given.\");\r\n        require(Governed(msg.sender).duration() >= block.number);\r\n        Governed(msg.sender).setAllocation(Governed(msg.sender).allocation() - _amount);\r\n        _mint(_reciever, _amount);\r\n    }\r\n\r\n    function approveProposal(string memory _name, string memory _description, address[] memory _governed) public payable{\r\n        // Determine Proposal Requirements Pass\r\n        require(msg.value >= proposalCost, \"Insufficent proposal cost submitted.\");\r\n\r\n        uint maxApproval = 0;\r\n        // Loop to Set governance variables.\r\n        for(uint i = 0; i < _governed.length; i++){\r\n\r\n            require(GovernedContracts[_governed[i]] == false, \"Proposal contains an already governed contract.\");\r\n            require(ERC165Checker.supportsInterface(_governed[i], type(IGoverned).interfaceId));\r\n\r\n            Governed governed = Governed(_governed[i]);\r\n            require(address(governed.ratio()) == address(this), \"Ratio address is incorrect.\");\r\n            require(findGovernedContract[governed.name()] == address(0), \"Contract name taken.\");\r\n            require(governed.allocation() <= maxAllocation && governed.allocation() >= minAllocation, \"Governed contract allocation out of range.\");\r\n            require(governed.approval() == 0, \"Governed approval variable not zero.\");\r\n            require(governed.removal() == 0, \"Governed removal variable not zero.\");\r\n\r\n            \r\n            for(uint j = 0; j < allocationThresholds.length; j){\r\n                if(governed.allocation() <= allocationThresholds[j]){\r\n                    governed.setApproval(approvalThresholds[j]);\r\n                    governed.setRemoval(removalThresholds[j]);\r\n                    governed.setEpoch(epoch);\r\n                    maxApproval = maxApproval < allocationThresholds[j] ? allocationThresholds[j] : maxApproval;\r\n                    break;\r\n                }\r\n            }\r\n        }\r\n        \r\n        if(maxApproval == 0){\r\n            return;\r\n        }\r\n\r\n        Proposal proposal = new Proposal(address(this), epoch + 1, _name, _description, _governed);\r\n\r\n        emit ApproveProposal(address(proposal));\r\n    }\r\n    /*\r\n    function removeProposal(string memory _name, string memory _description, address[] memory _governed) public payable returns(address _proposal){\r\n        return address(0);\r\n    }\r\n\r\n    function executeProposal(address _proposal) public returns (bool _executed){\r\n        return false;\r\n    }\r\n    */\r\n\r\n    function incrementEpoch() public{\r\n        require(block.number >= (epochBlock + epochDuration));\r\n        epochBlock += epochDuration;\r\n        epoch++;\r\n        emit Epoch(epoch, epochBlock);\r\n    }\r\n\r\n\r\n    function vote(address _proposal) external {\r\n\r\n    }\r\n}",
  "sourcePath": "/home/stephenstb/Ratio/ratio/contracts/Ratio.sol",
  "compiler": {
    "name": "solc",
    "version": "0.8.5+commit.a4f2e591.Emscripten.clang"
  },
  "schemaVersion": "3.4.3",
  "updatedAt": "2022-03-18T21:34:02.706Z",
  "devdoc": {
    "kind": "dev",
    "methods": {
      "allowance(address,address)": {
        "details": "See {IERC20-allowance}."
      },
      "approve(address,uint256)": {
        "details": "See {IERC20-approve}. Requirements: - `spender` cannot be the zero address."
      },
      "balanceOf(address)": {
        "details": "See {IERC20-balanceOf}."
      },
      "decimals()": {
        "details": "Returns the number of decimals used to get its user representation. For example, if `decimals` equals `2`, a balance of `505` tokens should be displayed to a user as `5.05` (`505 / 10 ** 2`). Tokens usually opt for a value of 18, imitating the relationship between Ether and Wei. This is the value {ERC20} uses, unless this function is overridden; NOTE: This information is only used for _display_ purposes: it in no way affects any of the arithmetic of the contract, including {IERC20-balanceOf} and {IERC20-transfer}."
      },
      "decreaseAllowance(address,uint256)": {
        "details": "Atomically decreases the allowance granted to `spender` by the caller. This is an alternative to {approve} that can be used as a mitigation for problems described in {IERC20-approve}. Emits an {Approval} event indicating the updated allowance. Requirements: - `spender` cannot be the zero address. - `spender` must have allowance for the caller of at least `subtractedValue`."
      },
      "increaseAllowance(address,uint256)": {
        "details": "Atomically increases the allowance granted to `spender` by the caller. This is an alternative to {approve} that can be used as a mitigation for problems described in {IERC20-approve}. Emits an {Approval} event indicating the updated allowance. Requirements: - `spender` cannot be the zero address."
      },
      "name()": {
        "details": "Returns the name of the token."
      },
      "symbol()": {
        "details": "Returns the symbol of the token, usually a shorter version of the name."
      },
      "totalSupply()": {
        "details": "See {IERC20-totalSupply}."
      },
      "transfer(address,uint256)": {
        "details": "See {IERC20-transfer}. Requirements: - `recipient` cannot be the zero address. - the caller must have a balance of at least `amount`."
      },
      "transferFrom(address,address,uint256)": {
        "details": "See {IERC20-transferFrom}. Emits an {Approval} event indicating the updated allowance. This is not required by the EIP. See the note at the beginning of {ERC20}. Requirements: - `sender` and `recipient` cannot be the zero address. - `sender` must have a balance of at least `amount`. - the caller must have allowance for ``sender``'s tokens of at least `amount`."
      }
    },
    "version": 1
  },
  "userdoc": {
    "kind": "user",
    "methods": {},
    "version": 1
  }
}