{
  "contractName": "RatioSingleNFT",
  "abi": [
    {
      "inputs": [
        {
          "internalType": "string",
          "name": "_name",
          "type": "string"
        },
        {
          "internalType": "string",
          "name": "_symbol",
          "type": "string"
        },
        {
          "internalType": "uint256",
          "name": "_supply",
          "type": "uint256"
        },
        {
          "internalType": "uint256",
          "name": "_mintValue",
          "type": "uint256"
        }
      ],
      "stateMutability": "payable",
      "type": "constructor"
    },
    {
      "anonymous": false,
      "inputs": [
        {
          "indexed": true,
          "internalType": "address",
          "name": "owner",
          "type": "address"
        },
        {
          "indexed": true,
          "internalType": "address",
          "name": "approved",
          "type": "address"
        },
        {
          "indexed": true,
          "internalType": "uint256",
          "name": "tokenId",
          "type": "uint256"
        }
      ],
      "name": "Approval",
      "type": "event"
    },
    {
      "anonymous": false,
      "inputs": [
        {
          "indexed": true,
          "internalType": "address",
          "name": "owner",
          "type": "address"
        },
        {
          "indexed": true,
          "internalType": "address",
          "name": "operator",
          "type": "address"
        },
        {
          "indexed": false,
          "internalType": "bool",
          "name": "approved",
          "type": "bool"
        }
      ],
      "name": "ApprovalForAll",
      "type": "event"
    },
    {
      "anonymous": false,
      "inputs": [
        {
          "indexed": true,
          "internalType": "address",
          "name": "from",
          "type": "address"
        },
        {
          "indexed": true,
          "internalType": "address",
          "name": "to",
          "type": "address"
        },
        {
          "indexed": true,
          "internalType": "uint256",
          "name": "tokenId",
          "type": "uint256"
        }
      ],
      "name": "Transfer",
      "type": "event"
    },
    {
      "inputs": [
        {
          "internalType": "address",
          "name": "to",
          "type": "address"
        },
        {
          "internalType": "uint256",
          "name": "tokenId",
          "type": "uint256"
        }
      ],
      "name": "approve",
      "outputs": [],
      "stateMutability": "nonpayable",
      "type": "function"
    },
    {
      "inputs": [],
      "name": "audio",
      "outputs": [
        {
          "internalType": "string",
          "name": "",
          "type": "string"
        }
      ],
      "stateMutability": "view",
      "type": "function"
    },
    {
      "inputs": [
        {
          "internalType": "address",
          "name": "owner",
          "type": "address"
        }
      ],
      "name": "balanceOf",
      "outputs": [
        {
          "internalType": "uint256",
          "name": "",
          "type": "uint256"
        }
      ],
      "stateMutability": "view",
      "type": "function"
    },
    {
      "inputs": [],
      "name": "baseURI",
      "outputs": [
        {
          "internalType": "string",
          "name": "",
          "type": "string"
        }
      ],
      "stateMutability": "view",
      "type": "function"
    },
    {
      "inputs": [],
      "name": "distributor",
      "outputs": [
        {
          "internalType": "address",
          "name": "",
          "type": "address"
        }
      ],
      "stateMutability": "view",
      "type": "function"
    },
    {
      "inputs": [
        {
          "internalType": "uint256",
          "name": "tokenId",
          "type": "uint256"
        }
      ],
      "name": "getApproved",
      "outputs": [
        {
          "internalType": "address",
          "name": "",
          "type": "address"
        }
      ],
      "stateMutability": "view",
      "type": "function"
    },
    {
      "inputs": [],
      "name": "image",
      "outputs": [
        {
          "internalType": "string",
          "name": "",
          "type": "string"
        }
      ],
      "stateMutability": "view",
      "type": "function"
    },
    {
      "inputs": [
        {
          "internalType": "address",
          "name": "owner",
          "type": "address"
        },
        {
          "internalType": "address",
          "name": "operator",
          "type": "address"
        }
      ],
      "name": "isApprovedForAll",
      "outputs": [
        {
          "internalType": "bool",
          "name": "",
          "type": "bool"
        }
      ],
      "stateMutability": "view",
      "type": "function"
    },
    {
      "inputs": [],
      "name": "maxSupply",
      "outputs": [
        {
          "internalType": "uint256",
          "name": "",
          "type": "uint256"
        }
      ],
      "stateMutability": "view",
      "type": "function"
    },
    {
      "inputs": [],
      "name": "mintValue",
      "outputs": [
        {
          "internalType": "uint256",
          "name": "",
          "type": "uint256"
        }
      ],
      "stateMutability": "view",
      "type": "function"
    },
    {
      "inputs": [],
      "name": "model",
      "outputs": [
        {
          "internalType": "string",
          "name": "",
          "type": "string"
        }
      ],
      "stateMutability": "view",
      "type": "function"
    },
    {
      "inputs": [],
      "name": "name",
      "outputs": [
        {
          "internalType": "string",
          "name": "",
          "type": "string"
        }
      ],
      "stateMutability": "view",
      "type": "function"
    },
    {
      "inputs": [
        {
          "internalType": "uint256",
          "name": "tokenId",
          "type": "uint256"
        }
      ],
      "name": "ownerOf",
      "outputs": [
        {
          "internalType": "address",
          "name": "",
          "type": "address"
        }
      ],
      "stateMutability": "view",
      "type": "function"
    },
    {
      "inputs": [
        {
          "internalType": "address",
          "name": "from",
          "type": "address"
        },
        {
          "internalType": "address",
          "name": "to",
          "type": "address"
        },
        {
          "internalType": "uint256",
          "name": "tokenId",
          "type": "uint256"
        }
      ],
      "name": "safeTransferFrom",
      "outputs": [],
      "stateMutability": "nonpayable",
      "type": "function"
    },
    {
      "inputs": [
        {
          "internalType": "address",
          "name": "from",
          "type": "address"
        },
        {
          "internalType": "address",
          "name": "to",
          "type": "address"
        },
        {
          "internalType": "uint256",
          "name": "tokenId",
          "type": "uint256"
        },
        {
          "internalType": "bytes",
          "name": "_data",
          "type": "bytes"
        }
      ],
      "name": "safeTransferFrom",
      "outputs": [],
      "stateMutability": "nonpayable",
      "type": "function"
    },
    {
      "inputs": [
        {
          "internalType": "address",
          "name": "operator",
          "type": "address"
        },
        {
          "internalType": "bool",
          "name": "approved",
          "type": "bool"
        }
      ],
      "name": "setApprovalForAll",
      "outputs": [],
      "stateMutability": "nonpayable",
      "type": "function"
    },
    {
      "inputs": [
        {
          "internalType": "bytes4",
          "name": "interfaceId",
          "type": "bytes4"
        }
      ],
      "name": "supportsInterface",
      "outputs": [
        {
          "internalType": "bool",
          "name": "",
          "type": "bool"
        }
      ],
      "stateMutability": "view",
      "type": "function"
    },
    {
      "inputs": [],
      "name": "symbol",
      "outputs": [
        {
          "internalType": "string",
          "name": "",
          "type": "string"
        }
      ],
      "stateMutability": "view",
      "type": "function"
    },
    {
      "inputs": [
        {
          "internalType": "uint256",
          "name": "index",
          "type": "uint256"
        }
      ],
      "name": "tokenByIndex",
      "outputs": [
        {
          "internalType": "uint256",
          "name": "",
          "type": "uint256"
        }
      ],
      "stateMutability": "view",
      "type": "function"
    },
    {
      "inputs": [
        {
          "internalType": "address",
          "name": "owner",
          "type": "address"
        },
        {
          "internalType": "uint256",
          "name": "index",
          "type": "uint256"
        }
      ],
      "name": "tokenOfOwnerByIndex",
      "outputs": [
        {
          "internalType": "uint256",
          "name": "",
          "type": "uint256"
        }
      ],
      "stateMutability": "view",
      "type": "function"
    },
    {
      "inputs": [
        {
          "internalType": "uint256",
          "name": "tokenId",
          "type": "uint256"
        }
      ],
      "name": "tokenURI",
      "outputs": [
        {
          "internalType": "string",
          "name": "",
          "type": "string"
        }
      ],
      "stateMutability": "view",
      "type": "function"
    },
    {
      "inputs": [],
      "name": "totalSupply",
      "outputs": [
        {
          "internalType": "uint256",
          "name": "",
          "type": "uint256"
        }
      ],
      "stateMutability": "view",
      "type": "function"
    },
    {
      "inputs": [
        {
          "internalType": "address",
          "name": "from",
          "type": "address"
        },
        {
          "internalType": "address",
          "name": "to",
          "type": "address"
        },
        {
          "internalType": "uint256",
          "name": "tokenId",
          "type": "uint256"
        }
      ],
      "name": "transferFrom",
      "outputs": [],
      "stateMutability": "nonpayable",
      "type": "function"
    },
    {
      "inputs": [],
      "name": "video",
      "outputs": [
        {
          "internalType": "string",
          "name": "",
          "type": "string"
        }
      ],
      "stateMutability": "view",
      "type": "function"
    },
    {
      "inputs": [
        {
          "internalType": "string",
          "name": "_uri",
          "type": "string"
        },
        {
          "internalType": "bool",
          "name": "_ratioProtocol",
          "type": "bool"
        },
        {
          "internalType": "address",
          "name": "_protocolAddress",
          "type": "address"
        }
      ],
      "name": "setBaseURI",
      "outputs": [],
      "stateMutability": "payable",
      "type": "function"
    },
    {
      "inputs": [
        {
          "internalType": "string",
          "name": "_image",
          "type": "string"
        },
        {
          "internalType": "string",
          "name": "_audio",
          "type": "string"
        },
        {
          "internalType": "string",
          "name": "_video",
          "type": "string"
        },
        {
          "internalType": "string",
          "name": "_model",
          "type": "string"
        }
      ],
      "name": "setSubURIs",
      "outputs": [],
      "stateMutability": "nonpayable",
      "type": "function"
    },
    {
      "inputs": [
        {
          "internalType": "address",
          "name": "_receiver",
          "type": "address"
        }
      ],
      "name": "mint",
      "outputs": [
        {
          "internalType": "uint256",
          "name": "_id",
          "type": "uint256"
        }
      ],
      "stateMutability": "payable",
      "type": "function"
    }
  ],
  "bytecode": "0x60a06040526000600f60006101000a81548160ff0219169083151502179055506000600f60016101000a81548160ff0219169083151502179055506040516200445d3803806200445d83398181016040528101906200005f919062000229565b8383816000908051906020019062000079929190620000e4565b50806001908051906020019062000092929190620000e4565b5050503373ffffffffffffffffffffffffffffffffffffffff1660808173ffffffffffffffffffffffffffffffffffffffff1660601b8152505081601081905550806011819055505050505062000481565b828054620000f29062000378565b90600052602060002090601f01602090048101928262000116576000855562000162565b82601f106200013157805160ff191683800117855562000162565b8280016001018555821562000162579182015b828111156200016157825182559160200191906001019062000144565b5b50905062000171919062000175565b5090565b5b808211156200019057600081600090555060010162000176565b5090565b6000620001ab620001a58462000302565b620002d9565b905082815260208101848484011115620001ca57620001c962000447565b5b620001d784828562000342565b509392505050565b600082601f830112620001f757620001f662000442565b5b81516200020984826020860162000194565b91505092915050565b600081519050620002238162000467565b92915050565b6000806000806080858703121562000246576200024562000451565b5b600085015167ffffffffffffffff8111156200026757620002666200044c565b5b6200027587828801620001df565b945050602085015167ffffffffffffffff8111156200029957620002986200044c565b5b620002a787828801620001df565b9350506040620002ba8782880162000212565b9250506060620002cd8782880162000212565b91505092959194509250565b6000620002e5620002f8565b9050620002f38282620003ae565b919050565b6000604051905090565b600067ffffffffffffffff82111562000320576200031f62000413565b5b6200032b8262000456565b9050602081019050919050565b6000819050919050565b60005b838110156200036257808201518184015260208101905062000345565b8381111562000372576000848401525b50505050565b600060028204905060018216806200039157607f821691505b60208210811415620003a857620003a7620003e4565b5b50919050565b620003b98262000456565b810181811067ffffffffffffffff82111715620003db57620003da62000413565b5b80604052505050565b7f4e487b7100000000000000000000000000000000000000000000000000000000600052602260045260246000fd5b7f4e487b7100000000000000000000000000000000000000000000000000000000600052604160045260246000fd5b600080fd5b600080fd5b600080fd5b600080fd5b6000601f19601f8301169050919050565b620004728162000338565b81146200047e57600080fd5b50565b60805160601c613faf620004ae600039600081816110b0015281816112b201526113940152613faf6000f3fe60806040526004361061019c5760003560e01c80636a627842116100ec578063b88d4fde1161008a578063d52b1f5311610064578063d52b1f53146105f5578063d5abeb0114610611578063e985e9c51461063c578063f3ccaac0146106795761019c565b8063b88d4fde14610564578063bfe109281461058d578063c87b56dd146105b85761019c565b806389c77dfe116100c657806389c77dfe146104bc57806395d89b41146104e7578063a22cb46514610512578063b822fd2c1461053b5761019c565b80636a627842146104245780636c0360eb1461045457806370a082311461047f5761019c565b806318160ddd11610159578063407d223611610133578063407d22361461035657806342842e0e146103815780634f6ccce7146103aa5780636352211e146103e75761019c565b806318160ddd146102c557806323b872dd146102f05780632f745c59146103195761019c565b806301ffc9a7146101a157806306fdde03146101de578063081812fc14610209578063095ea7b3146102465780630ad9d0521461026f57806311b006171461029a575b600080fd5b3480156101ad57600080fd5b506101c860048036038101906101c39190612ba4565b6106a4565b6040516101d591906131f1565b60405180910390f35b3480156101ea57600080fd5b506101f361071e565b604051610200919061320c565b60405180910390f35b34801561021557600080fd5b50610230600480360381019061022b9190612d44565b6107b0565b60405161023d919061318a565b60405180910390f35b34801561025257600080fd5b5061026d60048036038101906102689190612b64565b610835565b005b34801561027b57600080fd5b5061028461094d565b604051610291919061320c565b60405180910390f35b3480156102a657600080fd5b506102af6109db565b6040516102bc919061320c565b60405180910390f35b3480156102d157600080fd5b506102da610a69565b6040516102e7919061350e565b60405180910390f35b3480156102fc57600080fd5b5061031760048036038101906103129190612a4e565b610a76565b005b34801561032557600080fd5b50610340600480360381019061033b9190612b64565b610ad6565b60405161034d919061350e565b60405180910390f35b34801561036257600080fd5b5061036b610b7b565b604051610378919061320c565b60405180910390f35b34801561038d57600080fd5b506103a860048036038101906103a39190612a4e565b610c09565b005b3480156103b657600080fd5b506103d160048036038101906103cc9190612d44565b610c29565b6040516103de919061350e565b60405180910390f35b3480156103f357600080fd5b5061040e60048036038101906104099190612d44565b610c9a565b60405161041b919061318a565b60405180910390f35b61043e600480360381019061043991906129e1565b610d4c565b60405161044b919061350e565b60405180910390f35b34801561046057600080fd5b50610469610ea3565b604051610476919061320c565b60405180910390f35b34801561048b57600080fd5b506104a660048036038101906104a191906129e1565b610f31565b6040516104b3919061350e565b60405180910390f35b3480156104c857600080fd5b506104d1610fe9565b6040516104de919061350e565b60405180910390f35b3480156104f357600080fd5b506104fc610fef565b604051610509919061320c565b60405180910390f35b34801561051e57600080fd5b5061053960048036038101906105349190612b24565b611081565b005b34801561054757600080fd5b50610562600480360381019061055d9190612c6d565b611097565b005b34801561057057600080fd5b5061058b60048036038101906105869190612aa1565b61124e565b005b34801561059957600080fd5b506105a26112b0565b6040516105af919061318a565b60405180910390f35b3480156105c457600080fd5b506105df60048036038101906105da9190612d44565b6112d4565b6040516105ec919061320c565b60405180910390f35b61060f600480360381019061060a9190612bfe565b61137b565b005b34801561061d57600080fd5b506106266114fe565b604051610633919061350e565b60405180910390f35b34801561064857600080fd5b50610663600480360381019061065e9190612a0e565b611504565b60405161067091906131f1565b60405180910390f35b34801561068557600080fd5b5061068e611598565b60405161069b919061320c565b60405180910390f35b60007f780e9d63000000000000000000000000000000000000000000000000000000007bffffffffffffffffffffffffffffffffffffffffffffffffffffffff1916827bffffffffffffffffffffffffffffffffffffffffffffffffffffffff19161480610717575061071682611626565b5b9050919050565b60606000805461072d90613764565b80601f016020809104026020016040519081016040528092919081815260200182805461075990613764565b80156107a65780601f1061077b576101008083540402835291602001916107a6565b820191906000526020600020905b81548152906001019060200180831161078957829003601f168201915b5050505050905090565b60006107bb82611708565b6107fa576040517f08c379a00000000000000000000000000000000000000000000000000000000081526004016107f1906133ee565b60405180910390fd5b6004600083815260200190815260200160002060009054906101000a900473ffffffffffffffffffffffffffffffffffffffff169050919050565b600061084082610c9a565b90508073ffffffffffffffffffffffffffffffffffffffff168373ffffffffffffffffffffffffffffffffffffffff1614156108b1576040517f08c379a00000000000000000000000000000000000000000000000000000000081526004016108a89061344e565b60405180910390fd5b8073ffffffffffffffffffffffffffffffffffffffff166108d0611774565b73ffffffffffffffffffffffffffffffffffffffff1614806108ff57506108fe816108f9611774565b611504565b5b61093e576040517f08c379a00000000000000000000000000000000000000000000000000000000081526004016109359061334e565b60405180910390fd5b610948838361177c565b505050565b600e805461095a90613764565b80601f016020809104026020016040519081016040528092919081815260200182805461098690613764565b80156109d35780601f106109a8576101008083540402835291602001916109d3565b820191906000526020600020905b8154815290600101906020018083116109b657829003601f168201915b505050505081565b600d80546109e890613764565b80601f0160208091040260200160405190810160405280929190818152602001828054610a1490613764565b8015610a615780601f10610a3657610100808354040283529160200191610a61565b820191906000526020600020905b815481529060010190602001808311610a4457829003601f168201915b505050505081565b6000600880549050905090565b610a87610a81611774565b82611835565b610ac6576040517f08c379a0000000000000000000000000000000000000000000000000000000008152600401610abd9061348e565b60405180910390fd5b610ad1838383611913565b505050565b6000610ae183610f31565b8210610b22576040517f08c379a0000000000000000000000000000000000000000000000000000000008152600401610b199061324e565b60405180910390fd5b600660008473ffffffffffffffffffffffffffffffffffffffff1673ffffffffffffffffffffffffffffffffffffffff168152602001908152602001600020600083815260200190815260200160002054905092915050565b600c8054610b8890613764565b80601f0160208091040260200160405190810160405280929190818152602001828054610bb490613764565b8015610c015780601f10610bd657610100808354040283529160200191610c01565b820191906000526020600020905b815481529060010190602001808311610be457829003601f168201915b505050505081565b610c248383836040518060200160405280600081525061124e565b505050565b6000610c33610a69565b8210610c74576040517f08c379a0000000000000000000000000000000000000000000000000000000008152600401610c6b906134ae565b60405180910390fd5b60088281548110610c8857610c876138fd565b5b90600052602060002001549050919050565b6000806002600084815260200190815260200160002060009054906101000a900473ffffffffffffffffffffffffffffffffffffffff169050600073ffffffffffffffffffffffffffffffffffffffff168173ffffffffffffffffffffffffffffffffffffffff161415610d43576040517f08c379a0000000000000000000000000000000000000000000000000000000008152600401610d3a9061338e565b60405180910390fd5b80915050919050565b6000601154341015610d93576040517f08c379a0000000000000000000000000000000000000000000000000000000008152600401610d8a9061346e565b60405180910390fd5b600f60009054906101000a900460ff16610de2576040517f08c379a0000000000000000000000000000000000000000000000000000000008152600401610dd9906133ce565b60405180910390fd5b600f60019054906101000a900460ff16610e31576040517f08c379a0000000000000000000000000000000000000000000000000000000008152600401610e28906133ce565b60405180910390fd5b601054610e3e6012611b7a565b10610e7e576040517f08c379a0000000000000000000000000000000000000000000000000000000008152600401610e759061340e565b60405180910390fd5b610e886012611b88565b610e926012611b7a565b9050610e9e8282611b9e565b919050565b600a8054610eb090613764565b80601f0160208091040260200160405190810160405280929190818152602001828054610edc90613764565b8015610f295780601f10610efe57610100808354040283529160200191610f29565b820191906000526020600020905b815481529060010190602001808311610f0c57829003601f168201915b505050505081565b60008073ffffffffffffffffffffffffffffffffffffffff168273ffffffffffffffffffffffffffffffffffffffff161415610fa2576040517f08c379a0000000000000000000000000000000000000000000000000000000008152600401610f999061336e565b60405180910390fd5b600360008373ffffffffffffffffffffffffffffffffffffffff1673ffffffffffffffffffffffffffffffffffffffff168152602001908152602001600020549050919050565b60115481565b606060018054610ffe90613764565b80601f016020809104026020016040519081016040528092919081815260200182805461102a90613764565b80156110775780601f1061104c57610100808354040283529160200191611077565b820191906000526020600020905b81548152906001019060200180831161105a57829003601f168201915b5050505050905090565b61109361108c611774565b8383611bbc565b5050565b3373ffffffffffffffffffffffffffffffffffffffff167f000000000000000000000000000000000000000000000000000000000000000073ffffffffffffffffffffffffffffffffffffffff1614611125576040517f08c379a000000000000000000000000000000000000000000000000000000000815260040161111c906134ee565b60405180910390fd5b60011515600f60009054906101000a900460ff1615151461117b576040517f08c379a00000000000000000000000000000000000000000000000000000000081526004016111729061330e565b60405180910390fd5b60001515600f60019054906101000a900460ff161515146111d1576040517f08c379a00000000000000000000000000000000000000000000000000000000081526004016111c89061322e565b60405180910390fd5b83600b90805190602001906111e79291906127f5565b5082600c90805190602001906111fe9291906127f5565b5081600d90805190602001906112159291906127f5565b5080600e908051906020019061122c9291906127f5565b506001600f60016101000a81548160ff02191690831515021790555050505050565b61125f611259611774565b83611835565b61129e576040517f08c379a00000000000000000000000000000000000000000000000000000000081526004016112959061348e565b60405180910390fd5b6112aa84848484611d29565b50505050565b7f000000000000000000000000000000000000000000000000000000000000000081565b60606112df82611708565b61131e576040517f08c379a00000000000000000000000000000000000000000000000000000000081526004016113159061342e565b60405180910390fd5b6000611328611d85565b905060008151116113485760405180602001604052806000815250611373565b8061135284611e17565b604051602001611363929190613166565b6040516020818303038152906040525b915050919050565b3373ffffffffffffffffffffffffffffffffffffffff167f000000000000000000000000000000000000000000000000000000000000000073ffffffffffffffffffffffffffffffffffffffff1614611409576040517f08c379a0000000000000000000000000000000000000000000000000000000008152600401611400906134ee565b60405180910390fd5b60001515600f60009054906101000a900460ff1615151461145f576040517f08c379a0000000000000000000000000000000000000000000000000000000008152600401611456906134ce565b60405180910390fd5b82600a90805190602001906114759291906127f5565b5081156114de578073ffffffffffffffffffffffffffffffffffffffff166307ec3039346040518263ffffffff1660e01b81526004016000604051808303818588803b1580156114c457600080fd5b505af11580156114d8573d6000803e3d6000fd5b50505050505b6001600f60006101000a81548160ff021916908315150217905550505050565b60105481565b6000600560008473ffffffffffffffffffffffffffffffffffffffff1673ffffffffffffffffffffffffffffffffffffffff16815260200190815260200160002060008373ffffffffffffffffffffffffffffffffffffffff1673ffffffffffffffffffffffffffffffffffffffff16815260200190815260200160002060009054906101000a900460ff16905092915050565b600b80546115a590613764565b80601f01602080910402602001604051908101604052809291908181526020018280546115d190613764565b801561161e5780601f106115f35761010080835404028352916020019161161e565b820191906000526020600020905b81548152906001019060200180831161160157829003601f168201915b505050505081565b60007f80ac58cd000000000000000000000000000000000000000000000000000000007bffffffffffffffffffffffffffffffffffffffffffffffffffffffff1916827bffffffffffffffffffffffffffffffffffffffffffffffffffffffff191614806116f157507f5b5e139f000000000000000000000000000000000000000000000000000000007bffffffffffffffffffffffffffffffffffffffffffffffffffffffff1916827bffffffffffffffffffffffffffffffffffffffffffffffffffffffff1916145b80611701575061170082611f78565b5b9050919050565b60008073ffffffffffffffffffffffffffffffffffffffff166002600084815260200190815260200160002060009054906101000a900473ffffffffffffffffffffffffffffffffffffffff1673ffffffffffffffffffffffffffffffffffffffff1614159050919050565b600033905090565b816004600083815260200190815260200160002060006101000a81548173ffffffffffffffffffffffffffffffffffffffff021916908373ffffffffffffffffffffffffffffffffffffffff160217905550808273ffffffffffffffffffffffffffffffffffffffff166117ef83610c9a565b73ffffffffffffffffffffffffffffffffffffffff167f8c5be1e5ebec7d5bd14f71427d1e84f3dd0314c0f7b2291e5b200ac8c7c3b92560405160405180910390a45050565b600061184082611708565b61187f576040517f08c379a00000000000000000000000000000000000000000000000000000000081526004016118769061332e565b60405180910390fd5b600061188a83610c9a565b90508073ffffffffffffffffffffffffffffffffffffffff168473ffffffffffffffffffffffffffffffffffffffff1614806118f957508373ffffffffffffffffffffffffffffffffffffffff166118e1846107b0565b73ffffffffffffffffffffffffffffffffffffffff16145b8061190a57506119098185611504565b5b91505092915050565b8273ffffffffffffffffffffffffffffffffffffffff1661193382610c9a565b73ffffffffffffffffffffffffffffffffffffffff1614611989576040517f08c379a00000000000000000000000000000000000000000000000000000000081526004016119809061328e565b60405180910390fd5b600073ffffffffffffffffffffffffffffffffffffffff168273ffffffffffffffffffffffffffffffffffffffff1614156119f9576040517f08c379a00000000000000000000000000000000000000000000000000000000081526004016119f0906132ce565b60405180910390fd5b611a04838383611fe2565b611a0f60008261177c565b6001600360008573ffffffffffffffffffffffffffffffffffffffff1673ffffffffffffffffffffffffffffffffffffffff1681526020019081526020016000206000828254611a5f919061367a565b925050819055506001600360008473ffffffffffffffffffffffffffffffffffffffff1673ffffffffffffffffffffffffffffffffffffffff1681526020019081526020016000206000828254611ab691906135f3565b92505081905550816002600083815260200190815260200160002060006101000a81548173ffffffffffffffffffffffffffffffffffffffff021916908373ffffffffffffffffffffffffffffffffffffffff160217905550808273ffffffffffffffffffffffffffffffffffffffff168473ffffffffffffffffffffffffffffffffffffffff167fddf252ad1be2c89b69c2b068fc378daa952ba7f163c4a11628f55a4df523b3ef60405160405180910390a4611b758383836120f6565b505050565b600081600001549050919050565b6001816000016000828254019250508190555050565b611bb88282604051806020016040528060008152506120fb565b5050565b8173ffffffffffffffffffffffffffffffffffffffff168373ffffffffffffffffffffffffffffffffffffffff161415611c2b576040517f08c379a0000000000000000000000000000000000000000000000000000000008152600401611c22906132ee565b60405180910390fd5b80600560008573ffffffffffffffffffffffffffffffffffffffff1673ffffffffffffffffffffffffffffffffffffffff16815260200190815260200160002060008473ffffffffffffffffffffffffffffffffffffffff1673ffffffffffffffffffffffffffffffffffffffff16815260200190815260200160002060006101000a81548160ff0219169083151502179055508173ffffffffffffffffffffffffffffffffffffffff168373ffffffffffffffffffffffffffffffffffffffff167f17307eab39ab6107e8899845ad3d59bd9653f200f220920489ca2b5937696c3183604051611d1c91906131f1565b60405180910390a3505050565b611d34848484611913565b611d4084848484612156565b611d7f576040517f08c379a0000000000000000000000000000000000000000000000000000000008152600401611d769061326e565b60405180910390fd5b50505050565b6060600a8054611d9490613764565b80601f0160208091040260200160405190810160405280929190818152602001828054611dc090613764565b8015611e0d5780601f10611de257610100808354040283529160200191611e0d565b820191906000526020600020905b815481529060010190602001808311611df057829003601f168201915b5050505050905090565b60606000821415611e5f576040518060400160405280600181526020017f30000000000000000000000000000000000000000000000000000000000000008152509050611f73565b600082905060005b60008214611e91578080611e7a906137c7565b915050600a82611e8a9190613649565b9150611e67565b60008167ffffffffffffffff811115611ead57611eac61392c565b5b6040519080825280601f01601f191660200182016040528015611edf5781602001600182028036833780820191505090505b5090505b60008514611f6c57600182611ef8919061367a565b9150600a85611f079190613810565b6030611f1391906135f3565b60f81b818381518110611f2957611f286138fd565b5b60200101907effffffffffffffffffffffffffffffffffffffffffffffffffffffffffffff1916908160001a905350600a85611f659190613649565b9450611ee3565b8093505050505b919050565b60007f01ffc9a7000000000000000000000000000000000000000000000000000000007bffffffffffffffffffffffffffffffffffffffffffffffffffffffff1916827bffffffffffffffffffffffffffffffffffffffffffffffffffffffff1916149050919050565b611fed8383836122ed565b600073ffffffffffffffffffffffffffffffffffffffff168373ffffffffffffffffffffffffffffffffffffffff1614156120305761202b816122f2565b61206f565b8173ffffffffffffffffffffffffffffffffffffffff168373ffffffffffffffffffffffffffffffffffffffff161461206e5761206d838261233b565b5b5b600073ffffffffffffffffffffffffffffffffffffffff168273ffffffffffffffffffffffffffffffffffffffff1614156120b2576120ad816124a8565b6120f1565b8273ffffffffffffffffffffffffffffffffffffffff168273ffffffffffffffffffffffffffffffffffffffff16146120f0576120ef8282612579565b5b5b505050565b505050565b61210583836125f8565b6121126000848484612156565b612151576040517f08c379a00000000000000000000000000000000000000000000000000000000081526004016121489061326e565b60405180910390fd5b505050565b60006121778473ffffffffffffffffffffffffffffffffffffffff166127d2565b156122e0578373ffffffffffffffffffffffffffffffffffffffff1663150b7a026121a0611774565b8786866040518563ffffffff1660e01b81526004016121c294939291906131a5565b602060405180830381600087803b1580156121dc57600080fd5b505af192505050801561220d57506040513d601f19601f8201168201806040525081019061220a9190612bd1565b60015b612290573d806000811461223d576040519150601f19603f3d011682016040523d82523d6000602084013e612242565b606091505b50600081511415612288576040517f08c379a000000000000000000000000000000000000000000000000000000000815260040161227f9061326e565b60405180910390fd5b805181602001fd5b63150b7a0260e01b7bffffffffffffffffffffffffffffffffffffffffffffffffffffffff1916817bffffffffffffffffffffffffffffffffffffffffffffffffffffffff1916149150506122e5565b600190505b949350505050565b505050565b6008805490506009600083815260200190815260200160002081905550600881908060018154018082558091505060019003906000526020600020016000909190919091505550565b6000600161234884610f31565b612352919061367a565b9050600060076000848152602001908152602001600020549050818114612437576000600660008673ffffffffffffffffffffffffffffffffffffffff1673ffffffffffffffffffffffffffffffffffffffff168152602001908152602001600020600084815260200190815260200160002054905080600660008773ffffffffffffffffffffffffffffffffffffffff1673ffffffffffffffffffffffffffffffffffffffff168152602001908152602001600020600084815260200190815260200160002081905550816007600083815260200190815260200160002081905550505b6007600084815260200190815260200160002060009055600660008573ffffffffffffffffffffffffffffffffffffffff1673ffffffffffffffffffffffffffffffffffffffff16815260200190815260200160002060008381526020019081526020016000206000905550505050565b600060016008805490506124bc919061367a565b90506000600960008481526020019081526020016000205490506000600883815481106124ec576124eb6138fd565b5b90600052602060002001549050806008838154811061250e5761250d6138fd565b5b90600052602060002001819055508160096000838152602001908152602001600020819055506009600085815260200190815260200160002060009055600880548061255d5761255c6138ce565b5b6001900381819060005260206000200160009055905550505050565b600061258483610f31565b905081600660008573ffffffffffffffffffffffffffffffffffffffff1673ffffffffffffffffffffffffffffffffffffffff168152602001908152602001600020600083815260200190815260200160002081905550806007600084815260200190815260200160002081905550505050565b600073ffffffffffffffffffffffffffffffffffffffff168273ffffffffffffffffffffffffffffffffffffffff161415612668576040517f08c379a000000000000000000000000000000000000000000000000000000000815260040161265f906133ae565b60405180910390fd5b61267181611708565b156126b1576040517f08c379a00000000000000000000000000000000000000000000000000000000081526004016126a8906132ae565b60405180910390fd5b6126bd60008383611fe2565b6001600360008473ffffffffffffffffffffffffffffffffffffffff1673ffffffffffffffffffffffffffffffffffffffff168152602001908152602001600020600082825461270d91906135f3565b92505081905550816002600083815260200190815260200160002060006101000a81548173ffffffffffffffffffffffffffffffffffffffff021916908373ffffffffffffffffffffffffffffffffffffffff160217905550808273ffffffffffffffffffffffffffffffffffffffff16600073ffffffffffffffffffffffffffffffffffffffff167fddf252ad1be2c89b69c2b068fc378daa952ba7f163c4a11628f55a4df523b3ef60405160405180910390a46127ce600083836120f6565b5050565b6000808273ffffffffffffffffffffffffffffffffffffffff163b119050919050565b82805461280190613764565b90600052602060002090601f016020900481019282612823576000855561286a565b82601f1061283c57805160ff191683800117855561286a565b8280016001018555821561286a579182015b8281111561286957825182559160200191906001019061284e565b5b509050612877919061287b565b5090565b5b8082111561289457600081600090555060010161287c565b5090565b60006128ab6128a68461354e565b613529565b9050828152602081018484840111156128c7576128c6613960565b5b6128d2848285613722565b509392505050565b60006128ed6128e88461357f565b613529565b90508281526020810184848401111561290957612908613960565b5b612914848285613722565b509392505050565b60008135905061292b81613f1d565b92915050565b60008135905061294081613f34565b92915050565b60008135905061295581613f4b565b92915050565b60008151905061296a81613f4b565b92915050565b600082601f8301126129855761298461395b565b5b8135612995848260208601612898565b91505092915050565b600082601f8301126129b3576129b261395b565b5b81356129c38482602086016128da565b91505092915050565b6000813590506129db81613f62565b92915050565b6000602082840312156129f7576129f661396a565b5b6000612a058482850161291c565b91505092915050565b60008060408385031215612a2557612a2461396a565b5b6000612a338582860161291c565b9250506020612a448582860161291c565b9150509250929050565b600080600060608486031215612a6757612a6661396a565b5b6000612a758682870161291c565b9350506020612a868682870161291c565b9250506040612a97868287016129cc565b9150509250925092565b60008060008060808587031215612abb57612aba61396a565b5b6000612ac98782880161291c565b9450506020612ada8782880161291c565b9350506040612aeb878288016129cc565b925050606085013567ffffffffffffffff811115612b0c57612b0b613965565b5b612b1887828801612970565b91505092959194509250565b60008060408385031215612b3b57612b3a61396a565b5b6000612b498582860161291c565b9250506020612b5a85828601612931565b9150509250929050565b60008060408385031215612b7b57612b7a61396a565b5b6000612b898582860161291c565b9250506020612b9a858286016129cc565b9150509250929050565b600060208284031215612bba57612bb961396a565b5b6000612bc884828501612946565b91505092915050565b600060208284031215612be757612be661396a565b5b6000612bf58482850161295b565b91505092915050565b600080600060608486031215612c1757612c1661396a565b5b600084013567ffffffffffffffff811115612c3557612c34613965565b5b612c418682870161299e565b9350506020612c5286828701612931565b9250506040612c638682870161291c565b9150509250925092565b60008060008060808587031215612c8757612c8661396a565b5b600085013567ffffffffffffffff811115612ca557612ca4613965565b5b612cb18782880161299e565b945050602085013567ffffffffffffffff811115612cd257612cd1613965565b5b612cde8782880161299e565b935050604085013567ffffffffffffffff811115612cff57612cfe613965565b5b612d0b8782880161299e565b925050606085013567ffffffffffffffff811115612d2c57612d2b613965565b5b612d388782880161299e565b91505092959194509250565b600060208284031215612d5a57612d5961396a565b5b6000612d68848285016129cc565b91505092915050565b612d7a816136ae565b82525050565b612d89816136c0565b82525050565b6000612d9a826135b0565b612da481856135c6565b9350612db4818560208601613731565b612dbd8161396f565b840191505092915050565b6000612dd3826135bb565b612ddd81856135d7565b9350612ded818560208601613731565b612df68161396f565b840191505092915050565b6000612e0c826135bb565b612e1681856135e8565b9350612e26818560208601613731565b80840191505092915050565b6000612e3f601f836135d7565b9150612e4a82613980565b602082019050919050565b6000612e62602b836135d7565b9150612e6d826139a9565b604082019050919050565b6000612e856032836135d7565b9150612e90826139f8565b604082019050919050565b6000612ea86025836135d7565b9150612eb382613a47565b604082019050919050565b6000612ecb601c836135d7565b9150612ed682613a96565b602082019050919050565b6000612eee6024836135d7565b9150612ef982613abf565b604082019050919050565b6000612f116019836135d7565b9150612f1c82613b0e565b602082019050919050565b6000612f34601a836135d7565b9150612f3f82613b37565b602082019050919050565b6000612f57602c836135d7565b9150612f6282613b60565b604082019050919050565b6000612f7a6038836135d7565b9150612f8582613baf565b604082019050919050565b6000612f9d602a836135d7565b9150612fa882613bfe565b604082019050919050565b6000612fc06029836135d7565b9150612fcb82613c4d565b604082019050919050565b6000612fe36020836135d7565b9150612fee82613c9c565b602082019050919050565b60006130066017836135d7565b915061301182613cc5565b602082019050919050565b6000613029602c836135d7565b915061303482613cee565b604082019050919050565b600061304c6015836135d7565b915061305782613d3d565b602082019050919050565b600061306f602f836135d7565b915061307a82613d66565b604082019050919050565b60006130926021836135d7565b915061309d82613db5565b604082019050919050565b60006130b56019836135d7565b91506130c082613e04565b602082019050919050565b60006130d86031836135d7565b91506130e382613e2d565b604082019050919050565b60006130fb602c836135d7565b915061310682613e7c565b604082019050919050565b600061311e601e836135d7565b915061312982613ecb565b602082019050919050565b6000613141601c836135d7565b915061314c82613ef4565b602082019050919050565b61316081613718565b82525050565b60006131728285612e01565b915061317e8284612e01565b91508190509392505050565b600060208201905061319f6000830184612d71565b92915050565b60006080820190506131ba6000830187612d71565b6131c76020830186612d71565b6131d46040830185613157565b81810360608301526131e68184612d8f565b905095945050505050565b60006020820190506132066000830184612d80565b92915050565b600060208201905081810360008301526132268184612dc8565b905092915050565b6000602082019050818103600083015261324781612e32565b9050919050565b6000602082019050818103600083015261326781612e55565b9050919050565b6000602082019050818103600083015261328781612e78565b9050919050565b600060208201905081810360008301526132a781612e9b565b9050919050565b600060208201905081810360008301526132c781612ebe565b9050919050565b600060208201905081810360008301526132e781612ee1565b9050919050565b6000602082019050818103600083015261330781612f04565b9050919050565b6000602082019050818103600083015261332781612f27565b9050919050565b6000602082019050818103600083015261334781612f4a565b9050919050565b6000602082019050818103600083015261336781612f6d565b9050919050565b6000602082019050818103600083015261338781612f90565b9050919050565b600060208201905081810360008301526133a781612fb3565b9050919050565b600060208201905081810360008301526133c781612fd6565b9050919050565b600060208201905081810360008301526133e781612ff9565b9050919050565b600060208201905081810360008301526134078161301c565b9050919050565b600060208201905081810360008301526134278161303f565b9050919050565b6000602082019050818103600083015261344781613062565b9050919050565b6000602082019050818103600083015261346781613085565b9050919050565b60006020820190508181036000830152613487816130a8565b9050919050565b600060208201905081810360008301526134a7816130cb565b9050919050565b600060208201905081810360008301526134c7816130ee565b9050919050565b600060208201905081810360008301526134e781613111565b9050919050565b6000602082019050818103600083015261350781613134565b9050919050565b60006020820190506135236000830184613157565b92915050565b6000613533613544565b905061353f8282613796565b919050565b6000604051905090565b600067ffffffffffffffff8211156135695761356861392c565b5b6135728261396f565b9050602081019050919050565b600067ffffffffffffffff82111561359a5761359961392c565b5b6135a38261396f565b9050602081019050919050565b600081519050919050565b600081519050919050565b600082825260208201905092915050565b600082825260208201905092915050565b600081905092915050565b60006135fe82613718565b915061360983613718565b9250827fffffffffffffffffffffffffffffffffffffffffffffffffffffffffffffffff0382111561363e5761363d613841565b5b828201905092915050565b600061365482613718565b915061365f83613718565b92508261366f5761366e613870565b5b828204905092915050565b600061368582613718565b915061369083613718565b9250828210156136a3576136a2613841565b5b828203905092915050565b60006136b9826136f8565b9050919050565b60008115159050919050565b60007fffffffff0000000000000000000000000000000000000000000000000000000082169050919050565b600073ffffffffffffffffffffffffffffffffffffffff82169050919050565b6000819050919050565b82818337600083830152505050565b60005b8381101561374f578082015181840152602081019050613734565b8381111561375e576000848401525b50505050565b6000600282049050600182168061377c57607f821691505b602082108114156137905761378f61389f565b5b50919050565b61379f8261396f565b810181811067ffffffffffffffff821117156137be576137bd61392c565b5b80604052505050565b60006137d282613718565b91507fffffffffffffffffffffffffffffffffffffffffffffffffffffffffffffffff82141561380557613804613841565b5b600182019050919050565b600061381b82613718565b915061382683613718565b92508261383657613835613870565b5b828206905092915050565b7f4e487b7100000000000000000000000000000000000000000000000000000000600052601160045260246000fd5b7f4e487b7100000000000000000000000000000000000000000000000000000000600052601260045260246000fd5b7f4e487b7100000000000000000000000000000000000000000000000000000000600052602260045260246000fd5b7f4e487b7100000000000000000000000000000000000000000000000000000000600052603160045260246000fd5b7f4e487b7100000000000000000000000000000000000000000000000000000000600052603260045260246000fd5b7f4e487b7100000000000000000000000000000000000000000000000000000000600052604160045260246000fd5b600080fd5b600080fd5b600080fd5b600080fd5b6000601f19601f8301169050919050565b7f5375622055524973206861766520616c7265616479206265656e207365742e00600082015250565b7f455243373231456e756d657261626c653a206f776e657220696e646578206f7560008201527f74206f6620626f756e6473000000000000000000000000000000000000000000602082015250565b7f4552433732313a207472616e7366657220746f206e6f6e20455243373231526560008201527f63656976657220696d706c656d656e7465720000000000000000000000000000602082015250565b7f4552433732313a207472616e736665722066726f6d20696e636f72726563742060008201527f6f776e6572000000000000000000000000000000000000000000000000000000602082015250565b7f4552433732313a20746f6b656e20616c7265616479206d696e74656400000000600082015250565b7f4552433732313a207472616e7366657220746f20746865207a65726f2061646460008201527f7265737300000000000000000000000000000000000000000000000000000000602082015250565b7f4552433732313a20617070726f766520746f2063616c6c657200000000000000600082015250565b7f426173652055524920686173206e6f74206265656e207365742e000000000000600082015250565b7f4552433732313a206f70657261746f7220717565727920666f72206e6f6e657860008201527f697374656e7420746f6b656e0000000000000000000000000000000000000000602082015250565b7f4552433732313a20617070726f76652063616c6c6572206973206e6f74206f7760008201527f6e6572206e6f7220617070726f76656420666f7220616c6c0000000000000000602082015250565b7f4552433732313a2062616c616e636520717565727920666f7220746865207a6560008201527f726f206164647265737300000000000000000000000000000000000000000000602082015250565b7f4552433732313a206f776e657220717565727920666f72206e6f6e657869737460008201527f656e7420746f6b656e0000000000000000000000000000000000000000000000602082015250565b7f4552433732313a206d696e7420746f20746865207a65726f2061646472657373600082015250565b7f4e4654206973206e6f7420696e697469616c697a65642e000000000000000000600082015250565b7f4552433732313a20617070726f76656420717565727920666f72206e6f6e657860008201527f697374656e7420746f6b656e0000000000000000000000000000000000000000602082015250565b7f4d696e74696e67206861732066696e69736865642e0000000000000000000000600082015250565b7f4552433732314d657461646174613a2055524920717565727920666f72206e6f60008201527f6e6578697374656e7420746f6b656e0000000000000000000000000000000000602082015250565b7f4552433732313a20617070726f76616c20746f2063757272656e74206f776e6560008201527f7200000000000000000000000000000000000000000000000000000000000000602082015250565b7f496e76616c6964206d696e742076616c756520676976656e2e00000000000000600082015250565b7f4552433732313a207472616e736665722063616c6c6572206973206e6f74206f60008201527f776e6572206e6f7220617070726f766564000000000000000000000000000000602082015250565b7f455243373231456e756d657261626c653a20676c6f62616c20696e646578206f60008201527f7574206f6620626f756e64730000000000000000000000000000000000000000602082015250565b7f42617365205552492068617320616c7265616479206265656e207365742e0000600082015250565b7f496e76616c6964206469737472696275746f7220616464726573732e00000000600082015250565b613f26816136ae565b8114613f3157600080fd5b50565b613f3d816136c0565b8114613f4857600080fd5b50565b613f54816136cc565b8114613f5f57600080fd5b50565b613f6b81613718565b8114613f7657600080fd5b5056fea2646970667358221220c03059e4591c7d283d31147dbe18dd8e1670daf9bdd57c649733629e0713a6a064736f6c63430008050033",
  "immutableReferences": {
    "961": [
      {
        "length": 32,
        "start": 4272
      },
      {
        "length": 32,
        "start": 4786
      },
      {
        "length": 32,
        "start": 5012
      }
    ]
  },
  "source": "// SPDX-License-Identifier: BUSL-1.1\npragma solidity ^0.8.2;\n\nimport \"@openzeppelin/contracts/token/ERC721/extensions/ERC721Enumerable.sol\";\n\nimport \"@openzeppelin/contracts/access/Ownable.sol\";\n\nimport \"@openzeppelin/contracts/utils/Counters.sol\";\n\nimport \"./NFTProtocol.sol\";\n\ncontract RatioSingleNFT is ERC721Enumerable{\n\n    using Counters for Counters.Counter;\n\n    // Distributor.\n    address public immutable distributor;\n\n    // URI Variables.\n    string public baseURI;\n\n    string public image;\n\n    string public audio;\n\n    string public video;\n\n    string public model;\n\n    // URI limiters\n    bool baseURIset = false;\n\n    bool subURIset = false;\n\n    // NFT creation variables.\n    uint public maxSupply;\n\n    uint public mintValue;\n\n    Counters.Counter private tokenIds;\n\n    modifier onlyDistributor(){\n        require(distributor == msg.sender, \"Invalid distributor address.\");\n        _;\n    }\n\n    constructor(string memory _name, string memory _symbol, uint _supply, uint _mintValue)payable ERC721(_name, _symbol){\n        distributor = msg.sender;\n        maxSupply = _supply;\n        mintValue = _mintValue;\n    }\n\n    function _baseURI() internal override view returns (string memory){\n         return baseURI;\n    }\n\n    function setBaseURI(string memory _uri, bool _ratioProtocol, address _protocolAddress)public  payable onlyDistributor{\n        require(baseURIset == false, \"Base URI has already been set.\");\n        baseURI = _uri;\n        if(_ratioProtocol){\n            NFTProtocol(_protocolAddress).requestVerification{value: msg.value}();\n        }\n        baseURIset = true;\n    }\n\n    function setSubURIs(string memory _image, string memory _audio, string memory _video, string memory _model) public onlyDistributor{\n        require(baseURIset == true, \"Base URI has not been set.\");\n        require(subURIset == false, \"Sub URIs have already been set.\");\n        image = _image;\n        audio = _audio;\n        video = _video;\n        model = _model;\n        subURIset = true;\n    }\n\n    function mint(address _receiver) external virtual payable returns(uint _id){\n        require(msg.value >= mintValue, \"Invalid mint value given.\");\n        require(baseURIset, \"NFT is not initialized.\");\n        require(subURIset, \"NFT is not initialized.\");\n        require(tokenIds.current() < maxSupply, \"Minting has finished.\");\n        tokenIds.increment();\n        _id = tokenIds.current();\n        _safeMint(_receiver, _id);\n    }\n\n}\n\n",
  "sourcePath": "/home/stephenstb/Ratio/ratio/contracts/NFTProtocol/RatioSingleNFT.sol",
  "compiler": {
    "name": "solc",
    "version": "0.8.5+commit.a4f2e591.Emscripten.clang"
  },
  "schemaVersion": "3.3.3",
  "updatedAt": "2022-04-25T22:53:05.676Z",
  "devdoc": {
    "kind": "dev",
    "methods": {
      "approve(address,uint256)": {
        "details": "See {IERC721-approve}."
      },
      "balanceOf(address)": {
        "details": "See {IERC721-balanceOf}."
      },
      "getApproved(uint256)": {
        "details": "See {IERC721-getApproved}."
      },
      "isApprovedForAll(address,address)": {
        "details": "See {IERC721-isApprovedForAll}."
      },
      "name()": {
        "details": "See {IERC721Metadata-name}."
      },
      "ownerOf(uint256)": {
        "details": "See {IERC721-ownerOf}."
      },
      "safeTransferFrom(address,address,uint256)": {
        "details": "See {IERC721-safeTransferFrom}."
      },
      "safeTransferFrom(address,address,uint256,bytes)": {
        "details": "See {IERC721-safeTransferFrom}."
      },
      "setApprovalForAll(address,bool)": {
        "details": "See {IERC721-setApprovalForAll}."
      },
      "supportsInterface(bytes4)": {
        "details": "See {IERC165-supportsInterface}."
      },
      "symbol()": {
        "details": "See {IERC721Metadata-symbol}."
      },
      "tokenByIndex(uint256)": {
        "details": "See {IERC721Enumerable-tokenByIndex}."
      },
      "tokenOfOwnerByIndex(address,uint256)": {
        "details": "See {IERC721Enumerable-tokenOfOwnerByIndex}."
      },
      "tokenURI(uint256)": {
        "details": "See {IERC721Metadata-tokenURI}."
      },
      "totalSupply()": {
        "details": "See {IERC721Enumerable-totalSupply}."
      },
      "transferFrom(address,address,uint256)": {
        "details": "See {IERC721-transferFrom}."
      }
    },
    "version": 1
  },
  "userdoc": {
    "kind": "user",
    "methods": {},
    "version": 1
  }
}