{
  "contractName": "RatioNFT",
  "abi": [
    {
      "inputs": [
        {
          "internalType": "string",
          "name": "_name",
          "type": "string"
        },
        {
          "internalType": "string",
          "name": "_symbol",
          "type": "string"
        },
        {
          "internalType": "uint256",
          "name": "_supply",
          "type": "uint256"
        },
        {
          "internalType": "uint256",
          "name": "_mintValue",
          "type": "uint256"
        }
      ],
      "stateMutability": "payable",
      "type": "constructor"
    },
    {
      "anonymous": false,
      "inputs": [
        {
          "indexed": true,
          "internalType": "address",
          "name": "owner",
          "type": "address"
        },
        {
          "indexed": true,
          "internalType": "address",
          "name": "approved",
          "type": "address"
        },
        {
          "indexed": true,
          "internalType": "uint256",
          "name": "tokenId",
          "type": "uint256"
        }
      ],
      "name": "Approval",
      "type": "event"
    },
    {
      "anonymous": false,
      "inputs": [
        {
          "indexed": true,
          "internalType": "address",
          "name": "owner",
          "type": "address"
        },
        {
          "indexed": true,
          "internalType": "address",
          "name": "operator",
          "type": "address"
        },
        {
          "indexed": false,
          "internalType": "bool",
          "name": "approved",
          "type": "bool"
        }
      ],
      "name": "ApprovalForAll",
      "type": "event"
    },
    {
      "anonymous": false,
      "inputs": [
        {
          "indexed": true,
          "internalType": "address",
          "name": "previousOwner",
          "type": "address"
        },
        {
          "indexed": true,
          "internalType": "address",
          "name": "newOwner",
          "type": "address"
        }
      ],
      "name": "OwnershipTransferred",
      "type": "event"
    },
    {
      "anonymous": false,
      "inputs": [
        {
          "indexed": true,
          "internalType": "address",
          "name": "from",
          "type": "address"
        },
        {
          "indexed": true,
          "internalType": "address",
          "name": "to",
          "type": "address"
        },
        {
          "indexed": true,
          "internalType": "uint256",
          "name": "tokenId",
          "type": "uint256"
        }
      ],
      "name": "Transfer",
      "type": "event"
    },
    {
      "inputs": [
        {
          "internalType": "address",
          "name": "to",
          "type": "address"
        },
        {
          "internalType": "uint256",
          "name": "tokenId",
          "type": "uint256"
        }
      ],
      "name": "approve",
      "outputs": [],
      "stateMutability": "nonpayable",
      "type": "function"
    },
    {
      "inputs": [
        {
          "internalType": "address",
          "name": "owner",
          "type": "address"
        }
      ],
      "name": "balanceOf",
      "outputs": [
        {
          "internalType": "uint256",
          "name": "",
          "type": "uint256"
        }
      ],
      "stateMutability": "view",
      "type": "function"
    },
    {
      "inputs": [],
      "name": "baseURI",
      "outputs": [
        {
          "internalType": "string",
          "name": "",
          "type": "string"
        }
      ],
      "stateMutability": "view",
      "type": "function"
    },
    {
      "inputs": [
        {
          "internalType": "uint256",
          "name": "tokenId",
          "type": "uint256"
        }
      ],
      "name": "getApproved",
      "outputs": [
        {
          "internalType": "address",
          "name": "",
          "type": "address"
        }
      ],
      "stateMutability": "view",
      "type": "function"
    },
    {
      "inputs": [
        {
          "internalType": "address",
          "name": "owner",
          "type": "address"
        },
        {
          "internalType": "address",
          "name": "operator",
          "type": "address"
        }
      ],
      "name": "isApprovedForAll",
      "outputs": [
        {
          "internalType": "bool",
          "name": "",
          "type": "bool"
        }
      ],
      "stateMutability": "view",
      "type": "function"
    },
    {
      "inputs": [],
      "name": "name",
      "outputs": [
        {
          "internalType": "string",
          "name": "",
          "type": "string"
        }
      ],
      "stateMutability": "view",
      "type": "function"
    },
    {
      "inputs": [],
      "name": "owner",
      "outputs": [
        {
          "internalType": "address",
          "name": "",
          "type": "address"
        }
      ],
      "stateMutability": "view",
      "type": "function"
    },
    {
      "inputs": [
        {
          "internalType": "uint256",
          "name": "tokenId",
          "type": "uint256"
        }
      ],
      "name": "ownerOf",
      "outputs": [
        {
          "internalType": "address",
          "name": "",
          "type": "address"
        }
      ],
      "stateMutability": "view",
      "type": "function"
    },
    {
      "inputs": [],
      "name": "renounceOwnership",
      "outputs": [],
      "stateMutability": "nonpayable",
      "type": "function"
    },
    {
      "inputs": [
        {
          "internalType": "address",
          "name": "from",
          "type": "address"
        },
        {
          "internalType": "address",
          "name": "to",
          "type": "address"
        },
        {
          "internalType": "uint256",
          "name": "tokenId",
          "type": "uint256"
        }
      ],
      "name": "safeTransferFrom",
      "outputs": [],
      "stateMutability": "nonpayable",
      "type": "function"
    },
    {
      "inputs": [
        {
          "internalType": "address",
          "name": "from",
          "type": "address"
        },
        {
          "internalType": "address",
          "name": "to",
          "type": "address"
        },
        {
          "internalType": "uint256",
          "name": "tokenId",
          "type": "uint256"
        },
        {
          "internalType": "bytes",
          "name": "_data",
          "type": "bytes"
        }
      ],
      "name": "safeTransferFrom",
      "outputs": [],
      "stateMutability": "nonpayable",
      "type": "function"
    },
    {
      "inputs": [
        {
          "internalType": "address",
          "name": "operator",
          "type": "address"
        },
        {
          "internalType": "bool",
          "name": "approved",
          "type": "bool"
        }
      ],
      "name": "setApprovalForAll",
      "outputs": [],
      "stateMutability": "nonpayable",
      "type": "function"
    },
    {
      "inputs": [
        {
          "internalType": "uint256",
          "name": "",
          "type": "uint256"
        }
      ],
      "name": "subURI",
      "outputs": [
        {
          "internalType": "string",
          "name": "",
          "type": "string"
        }
      ],
      "stateMutability": "view",
      "type": "function"
    },
    {
      "inputs": [
        {
          "internalType": "bytes4",
          "name": "interfaceId",
          "type": "bytes4"
        }
      ],
      "name": "supportsInterface",
      "outputs": [
        {
          "internalType": "bool",
          "name": "",
          "type": "bool"
        }
      ],
      "stateMutability": "view",
      "type": "function"
    },
    {
      "inputs": [],
      "name": "symbol",
      "outputs": [
        {
          "internalType": "string",
          "name": "",
          "type": "string"
        }
      ],
      "stateMutability": "view",
      "type": "function"
    },
    {
      "inputs": [
        {
          "internalType": "uint256",
          "name": "index",
          "type": "uint256"
        }
      ],
      "name": "tokenByIndex",
      "outputs": [
        {
          "internalType": "uint256",
          "name": "",
          "type": "uint256"
        }
      ],
      "stateMutability": "view",
      "type": "function"
    },
    {
      "inputs": [
        {
          "internalType": "address",
          "name": "owner",
          "type": "address"
        },
        {
          "internalType": "uint256",
          "name": "index",
          "type": "uint256"
        }
      ],
      "name": "tokenOfOwnerByIndex",
      "outputs": [
        {
          "internalType": "uint256",
          "name": "",
          "type": "uint256"
        }
      ],
      "stateMutability": "view",
      "type": "function"
    },
    {
      "inputs": [
        {
          "internalType": "uint256",
          "name": "tokenId",
          "type": "uint256"
        }
      ],
      "name": "tokenURI",
      "outputs": [
        {
          "internalType": "string",
          "name": "",
          "type": "string"
        }
      ],
      "stateMutability": "view",
      "type": "function"
    },
    {
      "inputs": [],
      "name": "totalSupply",
      "outputs": [
        {
          "internalType": "uint256",
          "name": "",
          "type": "uint256"
        }
      ],
      "stateMutability": "view",
      "type": "function"
    },
    {
      "inputs": [
        {
          "internalType": "address",
          "name": "from",
          "type": "address"
        },
        {
          "internalType": "address",
          "name": "to",
          "type": "address"
        },
        {
          "internalType": "uint256",
          "name": "tokenId",
          "type": "uint256"
        }
      ],
      "name": "transferFrom",
      "outputs": [],
      "stateMutability": "nonpayable",
      "type": "function"
    },
    {
      "inputs": [
        {
          "internalType": "address",
          "name": "newOwner",
          "type": "address"
        }
      ],
      "name": "transferOwnership",
      "outputs": [],
      "stateMutability": "nonpayable",
      "type": "function"
    },
    {
      "inputs": [
        {
          "internalType": "string",
          "name": "_uri",
          "type": "string"
        },
        {
          "internalType": "bool",
          "name": "_ratioProtocol",
          "type": "bool"
        },
        {
          "internalType": "address",
          "name": "_protocolAddress",
          "type": "address"
        }
      ],
      "name": "setBaseURI",
      "outputs": [],
      "stateMutability": "payable",
      "type": "function"
    },
    {
      "inputs": [
        {
          "internalType": "address",
          "name": "_receiver",
          "type": "address"
        }
      ],
      "name": "mint",
      "outputs": [
        {
          "internalType": "uint256",
          "name": "_id",
          "type": "uint256"
        }
      ],
      "stateMutability": "payable",
      "type": "function"
    }
  ],
  "bytecode": "0x608060405260405162003fa938038062003fa98339818101604052810190620000299190620002aa565b838381600090805190602001906200004392919062000165565b5080600190805190602001906200005c92919062000165565b5050506200007f620000736200009760201b60201c565b6200009f60201b60201c565b81600d8190555080600e819055505050505062000502565b600033905090565b6000600a60009054906101000a900473ffffffffffffffffffffffffffffffffffffffff16905081600a60006101000a81548173ffffffffffffffffffffffffffffffffffffffff021916908373ffffffffffffffffffffffffffffffffffffffff1602179055508173ffffffffffffffffffffffffffffffffffffffff168173ffffffffffffffffffffffffffffffffffffffff167f8be0079c531659141344cd1fd0a4f28419497f9722a3daafe3b4186f6b6457e060405160405180910390a35050565b8280546200017390620003f9565b90600052602060002090601f016020900481019282620001975760008555620001e3565b82601f10620001b257805160ff1916838001178555620001e3565b82800160010185558215620001e3579182015b82811115620001e2578251825591602001919060010190620001c5565b5b509050620001f29190620001f6565b5090565b5b8082111562000211576000816000905550600101620001f7565b5090565b60006200022c620002268462000383565b6200035a565b9050828152602081018484840111156200024b576200024a620004c8565b5b62000258848285620003c3565b509392505050565b600082601f830112620002785762000277620004c3565b5b81516200028a84826020860162000215565b91505092915050565b600081519050620002a481620004e8565b92915050565b60008060008060808587031215620002c757620002c6620004d2565b5b600085015167ffffffffffffffff811115620002e857620002e7620004cd565b5b620002f68782880162000260565b945050602085015167ffffffffffffffff8111156200031a5762000319620004cd565b5b620003288782880162000260565b93505060406200033b8782880162000293565b92505060606200034e8782880162000293565b91505092959194509250565b60006200036662000379565b90506200037482826200042f565b919050565b6000604051905090565b600067ffffffffffffffff821115620003a157620003a062000494565b5b620003ac82620004d7565b9050602081019050919050565b6000819050919050565b60005b83811015620003e3578082015181840152602081019050620003c6565b83811115620003f3576000848401525b50505050565b600060028204905060018216806200041257607f821691505b6020821081141562000429576200042862000465565b5b50919050565b6200043a82620004d7565b810181811067ffffffffffffffff821117156200045c576200045b62000494565b5b80604052505050565b7f4e487b7100000000000000000000000000000000000000000000000000000000600052602260045260246000fd5b7f4e487b7100000000000000000000000000000000000000000000000000000000600052604160045260246000fd5b600080fd5b600080fd5b600080fd5b600080fd5b6000601f19601f8301169050919050565b620004f381620003b9565b8114620004ff57600080fd5b50565b613a9780620005126000396000f3fe6080604052600436106101405760003560e01c80636a627842116100b6578063a22cb4651161006f578063a22cb46514610489578063b88d4fde146104b2578063c87b56dd146104db578063d52b1f5314610518578063e985e9c514610534578063f2fde38b1461057157610140565b80636a627842146103845780636c0360eb146103b457806370a08231146103df578063715018a61461041c5780638da5cb5b1461043357806395d89b411461045e57610140565b806323b872dd1161010857806323b872dd1461023e5780632c105e55146102675780632f745c59146102a457806342842e0e146102e15780634f6ccce71461030a5780636352211e1461034757610140565b806301ffc9a71461014557806306fdde0314610182578063081812fc146101ad578063095ea7b3146101ea57806318160ddd14610213575b600080fd5b34801561015157600080fd5b5061016c60048036038101906101679190612881565b61059a565b6040516101799190612d8e565b60405180910390f35b34801561018e57600080fd5b50610197610614565b6040516101a49190612da9565b60405180910390f35b3480156101b957600080fd5b506101d460048036038101906101cf919061294a565b6106a6565b6040516101e19190612d27565b60405180910390f35b3480156101f657600080fd5b50610211600480360381019061020c9190612841565b61072b565b005b34801561021f57600080fd5b50610228610843565b604051610235919061304b565b60405180910390f35b34801561024a57600080fd5b506102656004803603810190610260919061272b565b610850565b005b34801561027357600080fd5b5061028e6004803603810190610289919061294a565b6108b0565b60405161029b9190612da9565b60405180910390f35b3480156102b057600080fd5b506102cb60048036038101906102c69190612841565b61095c565b6040516102d8919061304b565b60405180910390f35b3480156102ed57600080fd5b506103086004803603810190610303919061272b565b610a01565b005b34801561031657600080fd5b50610331600480360381019061032c919061294a565b610a21565b60405161033e919061304b565b60405180910390f35b34801561035357600080fd5b5061036e6004803603810190610369919061294a565b610a92565b60405161037b9190612d27565b60405180910390f35b61039e600480360381019061039991906126be565b610b44565b6040516103ab919061304b565b60405180910390f35b3480156103c057600080fd5b506103c9610bfd565b6040516103d69190612da9565b60405180910390f35b3480156103eb57600080fd5b50610406600480360381019061040191906126be565b610c8b565b604051610413919061304b565b60405180910390f35b34801561042857600080fd5b50610431610d43565b005b34801561043f57600080fd5b50610448610dcb565b6040516104559190612d27565b60405180910390f35b34801561046a57600080fd5b50610473610df5565b6040516104809190612da9565b60405180910390f35b34801561049557600080fd5b506104b060048036038101906104ab9190612801565b610e87565b005b3480156104be57600080fd5b506104d960048036038101906104d4919061277e565b610e9d565b005b3480156104e757600080fd5b5061050260048036038101906104fd919061294a565b610eff565b60405161050f9190612da9565b60405180910390f35b610532600480360381019061052d91906128db565b610fa6565b005b34801561054057600080fd5b5061055b600480360381019061055691906126eb565b6110b1565b6040516105689190612d8e565b60405180910390f35b34801561057d57600080fd5b50610598600480360381019061059391906126be565b611145565b005b60007f780e9d63000000000000000000000000000000000000000000000000000000007bffffffffffffffffffffffffffffffffffffffffffffffffffffffff1916827bffffffffffffffffffffffffffffffffffffffffffffffffffffffff1916148061060d575061060c8261123d565b5b9050919050565b606060008054610623906132a1565b80601f016020809104026020016040519081016040528092919081815260200182805461064f906132a1565b801561069c5780601f106106715761010080835404028352916020019161069c565b820191906000526020600020905b81548152906001019060200180831161067f57829003601f168201915b5050505050905090565b60006106b18261131f565b6106f0576040517f08c379a00000000000000000000000000000000000000000000000000000000081526004016106e790612f4b565b60405180910390fd5b6004600083815260200190815260200160002060009054906101000a900473ffffffffffffffffffffffffffffffffffffffff169050919050565b600061073682610a92565b90508073ffffffffffffffffffffffffffffffffffffffff168373ffffffffffffffffffffffffffffffffffffffff1614156107a7576040517f08c379a000000000000000000000000000000000000000000000000000000000815260040161079e90612fcb565b60405180910390fd5b8073ffffffffffffffffffffffffffffffffffffffff166107c661138b565b73ffffffffffffffffffffffffffffffffffffffff1614806107f557506107f4816107ef61138b565b6110b1565b5b610834576040517f08c379a000000000000000000000000000000000000000000000000000000000815260040161082b90612ecb565b60405180910390fd5b61083e8383611393565b505050565b6000600880549050905090565b61086161085b61138b565b8261144c565b6108a0576040517f08c379a00000000000000000000000000000000000000000000000000000000081526004016108979061300b565b60405180910390fd5b6108ab83838361152a565b505050565b600c81815481106108c057600080fd5b9060005260206000200160009150905080546108db906132a1565b80601f0160208091040260200160405190810160405280929190818152602001828054610907906132a1565b80156109545780601f1061092957610100808354040283529160200191610954565b820191906000526020600020905b81548152906001019060200180831161093757829003601f168201915b505050505081565b600061096783610c8b565b82106109a8576040517f08c379a000000000000000000000000000000000000000000000000000000000815260040161099f90612dcb565b60405180910390fd5b600660008473ffffffffffffffffffffffffffffffffffffffff1673ffffffffffffffffffffffffffffffffffffffff168152602001908152602001600020600083815260200190815260200160002054905092915050565b610a1c83838360405180602001604052806000815250610e9d565b505050565b6000610a2b610843565b8210610a6c576040517f08c379a0000000000000000000000000000000000000000000000000000000008152600401610a639061302b565b60405180910390fd5b60088281548110610a8057610a7f61343a565b5b90600052602060002001549050919050565b6000806002600084815260200190815260200160002060009054906101000a900473ffffffffffffffffffffffffffffffffffffffff169050600073ffffffffffffffffffffffffffffffffffffffff168173ffffffffffffffffffffffffffffffffffffffff161415610b3b576040517f08c379a0000000000000000000000000000000000000000000000000000000008152600401610b3290612f0b565b60405180910390fd5b80915050919050565b6000600e54341015610b8b576040517f08c379a0000000000000000000000000000000000000000000000000000000008152600401610b8290612feb565b60405180910390fd5b600d54610b98600f611791565b10610bd8576040517f08c379a0000000000000000000000000000000000000000000000000000000008152600401610bcf90612f8b565b60405180910390fd5b610be2600f61179f565b610bec600f611791565b9050610bf882826117b5565b919050565b600b8054610c0a906132a1565b80601f0160208091040260200160405190810160405280929190818152602001828054610c36906132a1565b8015610c835780601f10610c5857610100808354040283529160200191610c83565b820191906000526020600020905b815481529060010190602001808311610c6657829003601f168201915b505050505081565b60008073ffffffffffffffffffffffffffffffffffffffff168273ffffffffffffffffffffffffffffffffffffffff161415610cfc576040517f08c379a0000000000000000000000000000000000000000000000000000000008152600401610cf390612eeb565b60405180910390fd5b600360008373ffffffffffffffffffffffffffffffffffffffff1673ffffffffffffffffffffffffffffffffffffffff168152602001908152602001600020549050919050565b610d4b61138b565b73ffffffffffffffffffffffffffffffffffffffff16610d69610dcb565b73ffffffffffffffffffffffffffffffffffffffff1614610dbf576040517f08c379a0000000000000000000000000000000000000000000000000000000008152600401610db690612f6b565b60405180910390fd5b610dc960006117d3565b565b6000600a60009054906101000a900473ffffffffffffffffffffffffffffffffffffffff16905090565b606060018054610e04906132a1565b80601f0160208091040260200160405190810160405280929190818152602001828054610e30906132a1565b8015610e7d5780601f10610e5257610100808354040283529160200191610e7d565b820191906000526020600020905b815481529060010190602001808311610e6057829003601f168201915b5050505050905090565b610e99610e9261138b565b8383611899565b5050565b610eae610ea861138b565b8361144c565b610eed576040517f08c379a0000000000000000000000000000000000000000000000000000000008152600401610ee49061300b565b60405180910390fd5b610ef984848484611a06565b50505050565b6060610f0a8261131f565b610f49576040517f08c379a0000000000000000000000000000000000000000000000000000000008152600401610f4090612fab565b60405180910390fd5b6000610f53611a62565b90506000815111610f735760405180602001604052806000815250610f9e565b80610f7d84611af4565b604051602001610f8e929190612d03565b6040516020818303038152906040525b915050919050565b610fae61138b565b73ffffffffffffffffffffffffffffffffffffffff16610fcc610dcb565b73ffffffffffffffffffffffffffffffffffffffff1614611022576040517f08c379a000000000000000000000000000000000000000000000000000000000815260040161101990612f6b565b60405180910390fd5b82600b90805190602001906110389291906124d2565b5081156110ac578073ffffffffffffffffffffffffffffffffffffffff16636cbff42a34856040518363ffffffff1660e01b81526004016110799190612da9565b6000604051808303818588803b15801561109257600080fd5b505af11580156110a6573d6000803e3d6000fd5b50505050505b505050565b6000600560008473ffffffffffffffffffffffffffffffffffffffff1673ffffffffffffffffffffffffffffffffffffffff16815260200190815260200160002060008373ffffffffffffffffffffffffffffffffffffffff1673ffffffffffffffffffffffffffffffffffffffff16815260200190815260200160002060009054906101000a900460ff16905092915050565b61114d61138b565b73ffffffffffffffffffffffffffffffffffffffff1661116b610dcb565b73ffffffffffffffffffffffffffffffffffffffff16146111c1576040517f08c379a00000000000000000000000000000000000000000000000000000000081526004016111b890612f6b565b60405180910390fd5b600073ffffffffffffffffffffffffffffffffffffffff168173ffffffffffffffffffffffffffffffffffffffff161415611231576040517f08c379a000000000000000000000000000000000000000000000000000000000815260040161122890612e0b565b60405180910390fd5b61123a816117d3565b50565b60007f80ac58cd000000000000000000000000000000000000000000000000000000007bffffffffffffffffffffffffffffffffffffffffffffffffffffffff1916827bffffffffffffffffffffffffffffffffffffffffffffffffffffffff1916148061130857507f5b5e139f000000000000000000000000000000000000000000000000000000007bffffffffffffffffffffffffffffffffffffffffffffffffffffffff1916827bffffffffffffffffffffffffffffffffffffffffffffffffffffffff1916145b80611318575061131782611c55565b5b9050919050565b60008073ffffffffffffffffffffffffffffffffffffffff166002600084815260200190815260200160002060009054906101000a900473ffffffffffffffffffffffffffffffffffffffff1673ffffffffffffffffffffffffffffffffffffffff1614159050919050565b600033905090565b816004600083815260200190815260200160002060006101000a81548173ffffffffffffffffffffffffffffffffffffffff021916908373ffffffffffffffffffffffffffffffffffffffff160217905550808273ffffffffffffffffffffffffffffffffffffffff1661140683610a92565b73ffffffffffffffffffffffffffffffffffffffff167f8c5be1e5ebec7d5bd14f71427d1e84f3dd0314c0f7b2291e5b200ac8c7c3b92560405160405180910390a45050565b60006114578261131f565b611496576040517f08c379a000000000000000000000000000000000000000000000000000000000815260040161148d90612eab565b60405180910390fd5b60006114a183610a92565b90508073ffffffffffffffffffffffffffffffffffffffff168473ffffffffffffffffffffffffffffffffffffffff16148061151057508373ffffffffffffffffffffffffffffffffffffffff166114f8846106a6565b73ffffffffffffffffffffffffffffffffffffffff16145b80611521575061152081856110b1565b5b91505092915050565b8273ffffffffffffffffffffffffffffffffffffffff1661154a82610a92565b73ffffffffffffffffffffffffffffffffffffffff16146115a0576040517f08c379a000000000000000000000000000000000000000000000000000000000815260040161159790612e2b565b60405180910390fd5b600073ffffffffffffffffffffffffffffffffffffffff168273ffffffffffffffffffffffffffffffffffffffff161415611610576040517f08c379a000000000000000000000000000000000000000000000000000000000815260040161160790612e6b565b60405180910390fd5b61161b838383611cbf565b611626600082611393565b6001600360008573ffffffffffffffffffffffffffffffffffffffff1673ffffffffffffffffffffffffffffffffffffffff168152602001908152602001600020600082825461167691906131b7565b925050819055506001600360008473ffffffffffffffffffffffffffffffffffffffff1673ffffffffffffffffffffffffffffffffffffffff16815260200190815260200160002060008282546116cd9190613130565b92505081905550816002600083815260200190815260200160002060006101000a81548173ffffffffffffffffffffffffffffffffffffffff021916908373ffffffffffffffffffffffffffffffffffffffff160217905550808273ffffffffffffffffffffffffffffffffffffffff168473ffffffffffffffffffffffffffffffffffffffff167fddf252ad1be2c89b69c2b068fc378daa952ba7f163c4a11628f55a4df523b3ef60405160405180910390a461178c838383611dd3565b505050565b600081600001549050919050565b6001816000016000828254019250508190555050565b6117cf828260405180602001604052806000815250611dd8565b5050565b6000600a60009054906101000a900473ffffffffffffffffffffffffffffffffffffffff16905081600a60006101000a81548173ffffffffffffffffffffffffffffffffffffffff021916908373ffffffffffffffffffffffffffffffffffffffff1602179055508173ffffffffffffffffffffffffffffffffffffffff168173ffffffffffffffffffffffffffffffffffffffff167f8be0079c531659141344cd1fd0a4f28419497f9722a3daafe3b4186f6b6457e060405160405180910390a35050565b8173ffffffffffffffffffffffffffffffffffffffff168373ffffffffffffffffffffffffffffffffffffffff161415611908576040517f08c379a00000000000000000000000000000000000000000000000000000000081526004016118ff90612e8b565b60405180910390fd5b80600560008573ffffffffffffffffffffffffffffffffffffffff1673ffffffffffffffffffffffffffffffffffffffff16815260200190815260200160002060008473ffffffffffffffffffffffffffffffffffffffff1673ffffffffffffffffffffffffffffffffffffffff16815260200190815260200160002060006101000a81548160ff0219169083151502179055508173ffffffffffffffffffffffffffffffffffffffff168373ffffffffffffffffffffffffffffffffffffffff167f17307eab39ab6107e8899845ad3d59bd9653f200f220920489ca2b5937696c31836040516119f99190612d8e565b60405180910390a3505050565b611a1184848461152a565b611a1d84848484611e33565b611a5c576040517f08c379a0000000000000000000000000000000000000000000000000000000008152600401611a5390612deb565b60405180910390fd5b50505050565b6060600b8054611a71906132a1565b80601f0160208091040260200160405190810160405280929190818152602001828054611a9d906132a1565b8015611aea5780601f10611abf57610100808354040283529160200191611aea565b820191906000526020600020905b815481529060010190602001808311611acd57829003601f168201915b5050505050905090565b60606000821415611b3c576040518060400160405280600181526020017f30000000000000000000000000000000000000000000000000000000000000008152509050611c50565b600082905060005b60008214611b6e578080611b5790613304565b915050600a82611b679190613186565b9150611b44565b60008167ffffffffffffffff811115611b8a57611b89613469565b5b6040519080825280601f01601f191660200182016040528015611bbc5781602001600182028036833780820191505090505b5090505b60008514611c4957600182611bd591906131b7565b9150600a85611be4919061334d565b6030611bf09190613130565b60f81b818381518110611c0657611c0561343a565b5b60200101907effffffffffffffffffffffffffffffffffffffffffffffffffffffffffffff1916908160001a905350600a85611c429190613186565b9450611bc0565b8093505050505b919050565b60007f01ffc9a7000000000000000000000000000000000000000000000000000000007bffffffffffffffffffffffffffffffffffffffffffffffffffffffff1916827bffffffffffffffffffffffffffffffffffffffffffffffffffffffff1916149050919050565b611cca838383611fca565b600073ffffffffffffffffffffffffffffffffffffffff168373ffffffffffffffffffffffffffffffffffffffff161415611d0d57611d0881611fcf565b611d4c565b8173ffffffffffffffffffffffffffffffffffffffff168373ffffffffffffffffffffffffffffffffffffffff1614611d4b57611d4a8382612018565b5b5b600073ffffffffffffffffffffffffffffffffffffffff168273ffffffffffffffffffffffffffffffffffffffff161415611d8f57611d8a81612185565b611dce565b8273ffffffffffffffffffffffffffffffffffffffff168273ffffffffffffffffffffffffffffffffffffffff1614611dcd57611dcc8282612256565b5b5b505050565b505050565b611de283836122d5565b611def6000848484611e33565b611e2e576040517f08c379a0000000000000000000000000000000000000000000000000000000008152600401611e2590612deb565b60405180910390fd5b505050565b6000611e548473ffffffffffffffffffffffffffffffffffffffff166124af565b15611fbd578373ffffffffffffffffffffffffffffffffffffffff1663150b7a02611e7d61138b565b8786866040518563ffffffff1660e01b8152600401611e9f9493929190612d42565b602060405180830381600087803b158015611eb957600080fd5b505af1925050508015611eea57506040513d601f19601f82011682018060405250810190611ee791906128ae565b60015b611f6d573d8060008114611f1a576040519150601f19603f3d011682016040523d82523d6000602084013e611f1f565b606091505b50600081511415611f65576040517f08c379a0000000000000000000000000000000000000000000000000000000008152600401611f5c90612deb565b60405180910390fd5b805181602001fd5b63150b7a0260e01b7bffffffffffffffffffffffffffffffffffffffffffffffffffffffff1916817bffffffffffffffffffffffffffffffffffffffffffffffffffffffff191614915050611fc2565b600190505b949350505050565b505050565b6008805490506009600083815260200190815260200160002081905550600881908060018154018082558091505060019003906000526020600020016000909190919091505550565b6000600161202584610c8b565b61202f91906131b7565b9050600060076000848152602001908152602001600020549050818114612114576000600660008673ffffffffffffffffffffffffffffffffffffffff1673ffffffffffffffffffffffffffffffffffffffff168152602001908152602001600020600084815260200190815260200160002054905080600660008773ffffffffffffffffffffffffffffffffffffffff1673ffffffffffffffffffffffffffffffffffffffff168152602001908152602001600020600084815260200190815260200160002081905550816007600083815260200190815260200160002081905550505b6007600084815260200190815260200160002060009055600660008573ffffffffffffffffffffffffffffffffffffffff1673ffffffffffffffffffffffffffffffffffffffff16815260200190815260200160002060008381526020019081526020016000206000905550505050565b6000600160088054905061219991906131b7565b90506000600960008481526020019081526020016000205490506000600883815481106121c9576121c861343a565b5b9060005260206000200154905080600883815481106121eb576121ea61343a565b5b90600052602060002001819055508160096000838152602001908152602001600020819055506009600085815260200190815260200160002060009055600880548061223a5761223961340b565b5b6001900381819060005260206000200160009055905550505050565b600061226183610c8b565b905081600660008573ffffffffffffffffffffffffffffffffffffffff1673ffffffffffffffffffffffffffffffffffffffff168152602001908152602001600020600083815260200190815260200160002081905550806007600084815260200190815260200160002081905550505050565b600073ffffffffffffffffffffffffffffffffffffffff168273ffffffffffffffffffffffffffffffffffffffff161415612345576040517f08c379a000000000000000000000000000000000000000000000000000000000815260040161233c90612f2b565b60405180910390fd5b61234e8161131f565b1561238e576040517f08c379a000000000000000000000000000000000000000000000000000000000815260040161238590612e4b565b60405180910390fd5b61239a60008383611cbf565b6001600360008473ffffffffffffffffffffffffffffffffffffffff1673ffffffffffffffffffffffffffffffffffffffff16815260200190815260200160002060008282546123ea9190613130565b92505081905550816002600083815260200190815260200160002060006101000a81548173ffffffffffffffffffffffffffffffffffffffff021916908373ffffffffffffffffffffffffffffffffffffffff160217905550808273ffffffffffffffffffffffffffffffffffffffff16600073ffffffffffffffffffffffffffffffffffffffff167fddf252ad1be2c89b69c2b068fc378daa952ba7f163c4a11628f55a4df523b3ef60405160405180910390a46124ab60008383611dd3565b5050565b6000808273ffffffffffffffffffffffffffffffffffffffff163b119050919050565b8280546124de906132a1565b90600052602060002090601f0160209004810192826125005760008555612547565b82601f1061251957805160ff1916838001178555612547565b82800160010185558215612547579182015b8281111561254657825182559160200191906001019061252b565b5b5090506125549190612558565b5090565b5b80821115612571576000816000905550600101612559565b5090565b60006125886125838461308b565b613066565b9050828152602081018484840111156125a4576125a361349d565b5b6125af84828561325f565b509392505050565b60006125ca6125c5846130bc565b613066565b9050828152602081018484840111156125e6576125e561349d565b5b6125f184828561325f565b509392505050565b60008135905061260881613a05565b92915050565b60008135905061261d81613a1c565b92915050565b60008135905061263281613a33565b92915050565b60008151905061264781613a33565b92915050565b600082601f83011261266257612661613498565b5b8135612672848260208601612575565b91505092915050565b600082601f8301126126905761268f613498565b5b81356126a08482602086016125b7565b91505092915050565b6000813590506126b881613a4a565b92915050565b6000602082840312156126d4576126d36134a7565b5b60006126e2848285016125f9565b91505092915050565b60008060408385031215612702576127016134a7565b5b6000612710858286016125f9565b9250506020612721858286016125f9565b9150509250929050565b600080600060608486031215612744576127436134a7565b5b6000612752868287016125f9565b9350506020612763868287016125f9565b9250506040612774868287016126a9565b9150509250925092565b60008060008060808587031215612798576127976134a7565b5b60006127a6878288016125f9565b94505060206127b7878288016125f9565b93505060406127c8878288016126a9565b925050606085013567ffffffffffffffff8111156127e9576127e86134a2565b5b6127f58782880161264d565b91505092959194509250565b60008060408385031215612818576128176134a7565b5b6000612826858286016125f9565b92505060206128378582860161260e565b9150509250929050565b60008060408385031215612858576128576134a7565b5b6000612866858286016125f9565b9250506020612877858286016126a9565b9150509250929050565b600060208284031215612897576128966134a7565b5b60006128a584828501612623565b91505092915050565b6000602082840312156128c4576128c36134a7565b5b60006128d284828501612638565b91505092915050565b6000806000606084860312156128f4576128f36134a7565b5b600084013567ffffffffffffffff811115612912576129116134a2565b5b61291e8682870161267b565b935050602061292f8682870161260e565b9250506040612940868287016125f9565b9150509250925092565b6000602082840312156129605761295f6134a7565b5b600061296e848285016126a9565b91505092915050565b612980816131eb565b82525050565b61298f816131fd565b82525050565b60006129a0826130ed565b6129aa8185613103565b93506129ba81856020860161326e565b6129c3816134ac565b840191505092915050565b60006129d9826130f8565b6129e38185613114565b93506129f381856020860161326e565b6129fc816134ac565b840191505092915050565b6000612a12826130f8565b612a1c8185613125565b9350612a2c81856020860161326e565b80840191505092915050565b6000612a45602b83613114565b9150612a50826134bd565b604082019050919050565b6000612a68603283613114565b9150612a738261350c565b604082019050919050565b6000612a8b602683613114565b9150612a968261355b565b604082019050919050565b6000612aae602583613114565b9150612ab9826135aa565b604082019050919050565b6000612ad1601c83613114565b9150612adc826135f9565b602082019050919050565b6000612af4602483613114565b9150612aff82613622565b604082019050919050565b6000612b17601983613114565b9150612b2282613671565b602082019050919050565b6000612b3a602c83613114565b9150612b458261369a565b604082019050919050565b6000612b5d603883613114565b9150612b68826136e9565b604082019050919050565b6000612b80602a83613114565b9150612b8b82613738565b604082019050919050565b6000612ba3602983613114565b9150612bae82613787565b604082019050919050565b6000612bc6602083613114565b9150612bd1826137d6565b602082019050919050565b6000612be9602c83613114565b9150612bf4826137ff565b604082019050919050565b6000612c0c602083613114565b9150612c178261384e565b602082019050919050565b6000612c2f601583613114565b9150612c3a82613877565b602082019050919050565b6000612c52602f83613114565b9150612c5d826138a0565b604082019050919050565b6000612c75602183613114565b9150612c80826138ef565b604082019050919050565b6000612c98601983613114565b9150612ca38261393e565b602082019050919050565b6000612cbb603183613114565b9150612cc682613967565b604082019050919050565b6000612cde602c83613114565b9150612ce9826139b6565b604082019050919050565b612cfd81613255565b82525050565b6000612d0f8285612a07565b9150612d1b8284612a07565b91508190509392505050565b6000602082019050612d3c6000830184612977565b92915050565b6000608082019050612d576000830187612977565b612d646020830186612977565b612d716040830185612cf4565b8181036060830152612d838184612995565b905095945050505050565b6000602082019050612da36000830184612986565b92915050565b60006020820190508181036000830152612dc381846129ce565b905092915050565b60006020820190508181036000830152612de481612a38565b9050919050565b60006020820190508181036000830152612e0481612a5b565b9050919050565b60006020820190508181036000830152612e2481612a7e565b9050919050565b60006020820190508181036000830152612e4481612aa1565b9050919050565b60006020820190508181036000830152612e6481612ac4565b9050919050565b60006020820190508181036000830152612e8481612ae7565b9050919050565b60006020820190508181036000830152612ea481612b0a565b9050919050565b60006020820190508181036000830152612ec481612b2d565b9050919050565b60006020820190508181036000830152612ee481612b50565b9050919050565b60006020820190508181036000830152612f0481612b73565b9050919050565b60006020820190508181036000830152612f2481612b96565b9050919050565b60006020820190508181036000830152612f4481612bb9565b9050919050565b60006020820190508181036000830152612f6481612bdc565b9050919050565b60006020820190508181036000830152612f8481612bff565b9050919050565b60006020820190508181036000830152612fa481612c22565b9050919050565b60006020820190508181036000830152612fc481612c45565b9050919050565b60006020820190508181036000830152612fe481612c68565b9050919050565b6000602082019050818103600083015261300481612c8b565b9050919050565b6000602082019050818103600083015261302481612cae565b9050919050565b6000602082019050818103600083015261304481612cd1565b9050919050565b60006020820190506130606000830184612cf4565b92915050565b6000613070613081565b905061307c82826132d3565b919050565b6000604051905090565b600067ffffffffffffffff8211156130a6576130a5613469565b5b6130af826134ac565b9050602081019050919050565b600067ffffffffffffffff8211156130d7576130d6613469565b5b6130e0826134ac565b9050602081019050919050565b600081519050919050565b600081519050919050565b600082825260208201905092915050565b600082825260208201905092915050565b600081905092915050565b600061313b82613255565b915061314683613255565b9250827fffffffffffffffffffffffffffffffffffffffffffffffffffffffffffffffff0382111561317b5761317a61337e565b5b828201905092915050565b600061319182613255565b915061319c83613255565b9250826131ac576131ab6133ad565b5b828204905092915050565b60006131c282613255565b91506131cd83613255565b9250828210156131e0576131df61337e565b5b828203905092915050565b60006131f682613235565b9050919050565b60008115159050919050565b60007fffffffff0000000000000000000000000000000000000000000000000000000082169050919050565b600073ffffffffffffffffffffffffffffffffffffffff82169050919050565b6000819050919050565b82818337600083830152505050565b60005b8381101561328c578082015181840152602081019050613271565b8381111561329b576000848401525b50505050565b600060028204905060018216806132b957607f821691505b602082108114156132cd576132cc6133dc565b5b50919050565b6132dc826134ac565b810181811067ffffffffffffffff821117156132fb576132fa613469565b5b80604052505050565b600061330f82613255565b91507fffffffffffffffffffffffffffffffffffffffffffffffffffffffffffffffff8214156133425761334161337e565b5b600182019050919050565b600061335882613255565b915061336383613255565b925082613373576133726133ad565b5b828206905092915050565b7f4e487b7100000000000000000000000000000000000000000000000000000000600052601160045260246000fd5b7f4e487b7100000000000000000000000000000000000000000000000000000000600052601260045260246000fd5b7f4e487b7100000000000000000000000000000000000000000000000000000000600052602260045260246000fd5b7f4e487b7100000000000000000000000000000000000000000000000000000000600052603160045260246000fd5b7f4e487b7100000000000000000000000000000000000000000000000000000000600052603260045260246000fd5b7f4e487b7100000000000000000000000000000000000000000000000000000000600052604160045260246000fd5b600080fd5b600080fd5b600080fd5b600080fd5b6000601f19601f8301169050919050565b7f455243373231456e756d657261626c653a206f776e657220696e646578206f7560008201527f74206f6620626f756e6473000000000000000000000000000000000000000000602082015250565b7f4552433732313a207472616e7366657220746f206e6f6e20455243373231526560008201527f63656976657220696d706c656d656e7465720000000000000000000000000000602082015250565b7f4f776e61626c653a206e6577206f776e657220697320746865207a65726f206160008201527f6464726573730000000000000000000000000000000000000000000000000000602082015250565b7f4552433732313a207472616e736665722066726f6d20696e636f72726563742060008201527f6f776e6572000000000000000000000000000000000000000000000000000000602082015250565b7f4552433732313a20746f6b656e20616c7265616479206d696e74656400000000600082015250565b7f4552433732313a207472616e7366657220746f20746865207a65726f2061646460008201527f7265737300000000000000000000000000000000000000000000000000000000602082015250565b7f4552433732313a20617070726f766520746f2063616c6c657200000000000000600082015250565b7f4552433732313a206f70657261746f7220717565727920666f72206e6f6e657860008201527f697374656e7420746f6b656e0000000000000000000000000000000000000000602082015250565b7f4552433732313a20617070726f76652063616c6c6572206973206e6f74206f7760008201527f6e6572206e6f7220617070726f76656420666f7220616c6c0000000000000000602082015250565b7f4552433732313a2062616c616e636520717565727920666f7220746865207a6560008201527f726f206164647265737300000000000000000000000000000000000000000000602082015250565b7f4552433732313a206f776e657220717565727920666f72206e6f6e657869737460008201527f656e7420746f6b656e0000000000000000000000000000000000000000000000602082015250565b7f4552433732313a206d696e7420746f20746865207a65726f2061646472657373600082015250565b7f4552433732313a20617070726f76656420717565727920666f72206e6f6e657860008201527f697374656e7420746f6b656e0000000000000000000000000000000000000000602082015250565b7f4f776e61626c653a2063616c6c6572206973206e6f7420746865206f776e6572600082015250565b7f4d696e74696e67206861732066696e69736865642e0000000000000000000000600082015250565b7f4552433732314d657461646174613a2055524920717565727920666f72206e6f60008201527f6e6578697374656e7420746f6b656e0000000000000000000000000000000000602082015250565b7f4552433732313a20617070726f76616c20746f2063757272656e74206f776e6560008201527f7200000000000000000000000000000000000000000000000000000000000000602082015250565b7f496e76616c6964206d696e742076616c756520676976656e2e00000000000000600082015250565b7f4552433732313a207472616e736665722063616c6c6572206973206e6f74206f60008201527f776e6572206e6f7220617070726f766564000000000000000000000000000000602082015250565b7f455243373231456e756d657261626c653a20676c6f62616c20696e646578206f60008201527f7574206f6620626f756e64730000000000000000000000000000000000000000602082015250565b613a0e816131eb565b8114613a1957600080fd5b50565b613a25816131fd565b8114613a3057600080fd5b50565b613a3c81613209565b8114613a4757600080fd5b50565b613a5381613255565b8114613a5e57600080fd5b5056fea26469706673582212202bdb9f0f93e37ee786a0ea5170db2a1f6133a203c561a452ebb603c214c530e864736f6c63430008050033",
  "immutableReferences": {},
  "source": "// SPDX-License-Identifier: BUSL-1.1\npragma solidity ^0.8.2;\n\nimport \"@openzeppelin/contracts/token/ERC721/extensions/ERC721Enumerable.sol\";\n\nimport \"@openzeppelin/contracts/access/Ownable.sol\";\n\nimport \"@openzeppelin/contracts/utils/Counters.sol\";\n\nimport \"./ProtocolNFT.sol\";\n\ncontract RatioNFT is ERC721Enumerable, Ownable{\n\n    using Counters for Counters.Counter;\n\n    string public baseURI;\n\n    string[] public subURI;\n\n    uint maxSupply;\n\n    uint mintValue;\n\n    Counters.Counter private tokenIds;\n\n    constructor(string memory _name, string memory _symbol, uint _supply, uint _mintValue)payable ERC721(_name, _symbol){\n        maxSupply = _supply;\n        mintValue = _mintValue;\n    }\n\n    function setBaseURI(string memory _uri, bool _ratioProtocol, address _protocolAddress)public  payable onlyOwner{\n        baseURI = _uri;\n        if(_ratioProtocol){\n            ProtocolNFT(_protocolAddress).requestVerification{value: msg.value}(_uri);\n        }\n    }\n\n    function _baseURI() internal override view returns (string memory){\n         return baseURI;\n     }\n\n    function mint(address _receiver) public payable returns(uint _id){\n        require(msg.value >= mintValue, \"Invalid mint value given.\");\n        require(tokenIds.current() < maxSupply, \"Minting has finished.\");\n        tokenIds.increment();\n        _id = tokenIds.current();\n        _safeMint(_receiver, _id);\n    }\n}\n\n",
  "sourcePath": "/home/stephenstb/Ratio/ratio/contracts/nft/RatioNFT.sol",
  "compiler": {
    "name": "solc",
    "version": "0.8.5+commit.a4f2e591.Emscripten.clang"
  },
  "schemaVersion": "3.4.3",
  "updatedAt": "2022-04-12T22:24:05.541Z",
  "devdoc": {
    "kind": "dev",
    "methods": {
      "approve(address,uint256)": {
        "details": "See {IERC721-approve}."
      },
      "balanceOf(address)": {
        "details": "See {IERC721-balanceOf}."
      },
      "getApproved(uint256)": {
        "details": "See {IERC721-getApproved}."
      },
      "isApprovedForAll(address,address)": {
        "details": "See {IERC721-isApprovedForAll}."
      },
      "name()": {
        "details": "See {IERC721Metadata-name}."
      },
      "owner()": {
        "details": "Returns the address of the current owner."
      },
      "ownerOf(uint256)": {
        "details": "See {IERC721-ownerOf}."
      },
      "renounceOwnership()": {
        "details": "Leaves the contract without owner. It will not be possible to call `onlyOwner` functions anymore. Can only be called by the current owner. NOTE: Renouncing ownership will leave the contract without an owner, thereby removing any functionality that is only available to the owner."
      },
      "safeTransferFrom(address,address,uint256)": {
        "details": "See {IERC721-safeTransferFrom}."
      },
      "safeTransferFrom(address,address,uint256,bytes)": {
        "details": "See {IERC721-safeTransferFrom}."
      },
      "setApprovalForAll(address,bool)": {
        "details": "See {IERC721-setApprovalForAll}."
      },
      "supportsInterface(bytes4)": {
        "details": "See {IERC165-supportsInterface}."
      },
      "symbol()": {
        "details": "See {IERC721Metadata-symbol}."
      },
      "tokenByIndex(uint256)": {
        "details": "See {IERC721Enumerable-tokenByIndex}."
      },
      "tokenOfOwnerByIndex(address,uint256)": {
        "details": "See {IERC721Enumerable-tokenOfOwnerByIndex}."
      },
      "tokenURI(uint256)": {
        "details": "See {IERC721Metadata-tokenURI}."
      },
      "totalSupply()": {
        "details": "See {IERC721Enumerable-totalSupply}."
      },
      "transferFrom(address,address,uint256)": {
        "details": "See {IERC721-transferFrom}."
      },
      "transferOwnership(address)": {
        "details": "Transfers ownership of the contract to a new account (`newOwner`). Can only be called by the current owner."
      }
    },
    "version": 1
  },
  "userdoc": {
    "kind": "user",
    "methods": {},
    "version": 1
  }
}