{
  "contractName": "Ratio",
  "abi": [
    {
      "inputs": [
        {
          "internalType": "uint256[]",
          "name": "_allocationThresholds",
          "type": "uint256[]"
        },
        {
          "internalType": "uint256[]",
          "name": "_approvalThresholds",
          "type": "uint256[]"
        },
        {
          "internalType": "uint256[]",
          "name": "_removalThresholds",
          "type": "uint256[]"
        }
      ],
      "stateMutability": "nonpayable",
      "type": "constructor"
    },
    {
      "anonymous": false,
      "inputs": [
        {
          "indexed": true,
          "internalType": "address",
          "name": "owner",
          "type": "address"
        },
        {
          "indexed": true,
          "internalType": "address",
          "name": "spender",
          "type": "address"
        },
        {
          "indexed": false,
          "internalType": "uint256",
          "name": "value",
          "type": "uint256"
        }
      ],
      "name": "Approval",
      "type": "event"
    },
    {
      "anonymous": false,
      "inputs": [
        {
          "indexed": false,
          "internalType": "address",
          "name": "_proposal",
          "type": "address"
        }
      ],
      "name": "ApproveProposal",
      "type": "event"
    },
    {
      "anonymous": false,
      "inputs": [
        {
          "indexed": false,
          "internalType": "uint256",
          "name": "_epoch",
          "type": "uint256"
        },
        {
          "indexed": false,
          "internalType": "uint256",
          "name": "_block",
          "type": "uint256"
        }
      ],
      "name": "Epoch",
      "type": "event"
    },
    {
      "anonymous": false,
      "inputs": [
        {
          "indexed": true,
          "internalType": "address",
          "name": "from",
          "type": "address"
        },
        {
          "indexed": true,
          "internalType": "address",
          "name": "to",
          "type": "address"
        },
        {
          "indexed": false,
          "internalType": "uint256",
          "name": "value",
          "type": "uint256"
        }
      ],
      "name": "Transfer",
      "type": "event"
    },
    {
      "inputs": [
        {
          "internalType": "address",
          "name": "",
          "type": "address"
        }
      ],
      "name": "GovernedContracts",
      "outputs": [
        {
          "internalType": "bool",
          "name": "",
          "type": "bool"
        }
      ],
      "stateMutability": "view",
      "type": "function"
    },
    {
      "inputs": [
        {
          "internalType": "address",
          "name": "",
          "type": "address"
        }
      ],
      "name": "Proposals",
      "outputs": [
        {
          "internalType": "contract Proposal",
          "name": "",
          "type": "address"
        }
      ],
      "stateMutability": "view",
      "type": "function"
    },
    {
      "inputs": [
        {
          "internalType": "uint256",
          "name": "",
          "type": "uint256"
        }
      ],
      "name": "allocationThresholds",
      "outputs": [
        {
          "internalType": "uint256",
          "name": "",
          "type": "uint256"
        }
      ],
      "stateMutability": "view",
      "type": "function"
    },
    {
      "inputs": [
        {
          "internalType": "address",
          "name": "owner",
          "type": "address"
        },
        {
          "internalType": "address",
          "name": "spender",
          "type": "address"
        }
      ],
      "name": "allowance",
      "outputs": [
        {
          "internalType": "uint256",
          "name": "",
          "type": "uint256"
        }
      ],
      "stateMutability": "view",
      "type": "function"
    },
    {
      "inputs": [
        {
          "internalType": "uint256",
          "name": "",
          "type": "uint256"
        }
      ],
      "name": "approvalThresholds",
      "outputs": [
        {
          "internalType": "uint256",
          "name": "",
          "type": "uint256"
        }
      ],
      "stateMutability": "view",
      "type": "function"
    },
    {
      "inputs": [
        {
          "internalType": "address",
          "name": "spender",
          "type": "address"
        },
        {
          "internalType": "uint256",
          "name": "amount",
          "type": "uint256"
        }
      ],
      "name": "approve",
      "outputs": [
        {
          "internalType": "bool",
          "name": "",
          "type": "bool"
        }
      ],
      "stateMutability": "nonpayable",
      "type": "function"
    },
    {
      "inputs": [
        {
          "internalType": "address",
          "name": "account",
          "type": "address"
        }
      ],
      "name": "balanceOf",
      "outputs": [
        {
          "internalType": "uint256",
          "name": "",
          "type": "uint256"
        }
      ],
      "stateMutability": "view",
      "type": "function"
    },
    {
      "inputs": [],
      "name": "decimals",
      "outputs": [
        {
          "internalType": "uint8",
          "name": "",
          "type": "uint8"
        }
      ],
      "stateMutability": "view",
      "type": "function"
    },
    {
      "inputs": [
        {
          "internalType": "address",
          "name": "spender",
          "type": "address"
        },
        {
          "internalType": "uint256",
          "name": "subtractedValue",
          "type": "uint256"
        }
      ],
      "name": "decreaseAllowance",
      "outputs": [
        {
          "internalType": "bool",
          "name": "",
          "type": "bool"
        }
      ],
      "stateMutability": "nonpayable",
      "type": "function"
    },
    {
      "inputs": [],
      "name": "epoch",
      "outputs": [
        {
          "internalType": "uint256",
          "name": "",
          "type": "uint256"
        }
      ],
      "stateMutability": "view",
      "type": "function"
    },
    {
      "inputs": [],
      "name": "epochBlock",
      "outputs": [
        {
          "internalType": "uint256",
          "name": "",
          "type": "uint256"
        }
      ],
      "stateMutability": "view",
      "type": "function"
    },
    {
      "inputs": [],
      "name": "epochDuration",
      "outputs": [
        {
          "internalType": "uint256",
          "name": "",
          "type": "uint256"
        }
      ],
      "stateMutability": "view",
      "type": "function"
    },
    {
      "inputs": [
        {
          "internalType": "string",
          "name": "",
          "type": "string"
        }
      ],
      "name": "findGovernedContract",
      "outputs": [
        {
          "internalType": "address",
          "name": "",
          "type": "address"
        }
      ],
      "stateMutability": "view",
      "type": "function"
    },
    {
      "inputs": [
        {
          "internalType": "address",
          "name": "spender",
          "type": "address"
        },
        {
          "internalType": "uint256",
          "name": "addedValue",
          "type": "uint256"
        }
      ],
      "name": "increaseAllowance",
      "outputs": [
        {
          "internalType": "bool",
          "name": "",
          "type": "bool"
        }
      ],
      "stateMutability": "nonpayable",
      "type": "function"
    },
    {
      "inputs": [],
      "name": "name",
      "outputs": [
        {
          "internalType": "string",
          "name": "",
          "type": "string"
        }
      ],
      "stateMutability": "view",
      "type": "function"
    },
    {
      "inputs": [],
      "name": "proposalCost",
      "outputs": [
        {
          "internalType": "uint256",
          "name": "",
          "type": "uint256"
        }
      ],
      "stateMutability": "view",
      "type": "function"
    },
    {
      "inputs": [
        {
          "internalType": "uint256",
          "name": "",
          "type": "uint256"
        }
      ],
      "name": "removalThresholds",
      "outputs": [
        {
          "internalType": "uint256",
          "name": "",
          "type": "uint256"
        }
      ],
      "stateMutability": "view",
      "type": "function"
    },
    {
      "inputs": [],
      "name": "symbol",
      "outputs": [
        {
          "internalType": "string",
          "name": "",
          "type": "string"
        }
      ],
      "stateMutability": "view",
      "type": "function"
    },
    {
      "inputs": [],
      "name": "totalSupply",
      "outputs": [
        {
          "internalType": "uint256",
          "name": "",
          "type": "uint256"
        }
      ],
      "stateMutability": "view",
      "type": "function"
    },
    {
      "inputs": [
        {
          "internalType": "address",
          "name": "to",
          "type": "address"
        },
        {
          "internalType": "uint256",
          "name": "amount",
          "type": "uint256"
        }
      ],
      "name": "transfer",
      "outputs": [
        {
          "internalType": "bool",
          "name": "",
          "type": "bool"
        }
      ],
      "stateMutability": "nonpayable",
      "type": "function"
    },
    {
      "inputs": [
        {
          "internalType": "address",
          "name": "from",
          "type": "address"
        },
        {
          "internalType": "address",
          "name": "to",
          "type": "address"
        },
        {
          "internalType": "uint256",
          "name": "amount",
          "type": "uint256"
        }
      ],
      "name": "transferFrom",
      "outputs": [
        {
          "internalType": "bool",
          "name": "",
          "type": "bool"
        }
      ],
      "stateMutability": "nonpayable",
      "type": "function"
    },
    {
      "inputs": [
        {
          "internalType": "address",
          "name": "_reciever",
          "type": "address"
        },
        {
          "internalType": "uint256",
          "name": "_amount",
          "type": "uint256"
        }
      ],
      "name": "mint",
      "outputs": [],
      "stateMutability": "nonpayable",
      "type": "function"
    },
    {
      "inputs": [
        {
          "internalType": "string",
          "name": "_name",
          "type": "string"
        },
        {
          "internalType": "string",
          "name": "_description",
          "type": "string"
        },
        {
          "internalType": "address[]",
          "name": "_governed",
          "type": "address[]"
        }
      ],
      "name": "approveProposal",
      "outputs": [],
      "stateMutability": "payable",
      "type": "function"
    },
    {
      "inputs": [],
      "name": "incrementEpoch",
      "outputs": [],
      "stateMutability": "nonpayable",
      "type": "function"
    },
    {
      "inputs": [
        {
          "internalType": "address",
          "name": "_proposal",
          "type": "address"
        }
      ],
      "name": "vote",
      "outputs": [],
      "stateMutability": "nonpayable",
      "type": "function"
    }
  ],
  "bytecode": "0x60806040527fffffffffffffffffffffffffffffffffffffffffffffffffffffffffffffffff6013553480156200003557600080fd5b5060405162005ba038038062005ba083398181016040528101906200005b9190620003d9565b6040518060400160405280600581526020017f526174696f0000000000000000000000000000000000000000000000000000008152506040518060400160405280600581526020017f524154494f0000000000000000000000000000000000000000000000000000008152508160039080519060200190620000df92919062000204565b508060049080519060200190620000f892919062000204565b505050306040516200010a9062000295565b620001169190620004a3565b604051809103906000f08015801562000133573d6000803e3d6000fd5b50600560006101000a81548173ffffffffffffffffffffffffffffffffffffffff021916908373ffffffffffffffffffffffffffffffffffffffff160217905550600060068190555043600781905550633b9aca0060088190555082600a9080519060200190620001a6929190620002a3565b5081600b9080519060200190620001bf929190620002a3565b5080600c9080519060200190620001d8929190620002a3565b506b033b2e3c9fd0803ce8000000600d8190555067016345785d8a00006009819055505050506200065f565b828054620002129062000556565b90600052602060002090601f01602090048101928262000236576000855562000282565b82601f106200025157805160ff191683800117855562000282565b8280016001018555821562000282579182015b828111156200028157825182559160200191906001019062000264565b5b509050620002919190620002f5565b5090565b6103be80620057e283390190565b828054828255906000526020600020908101928215620002e2579160200282015b82811115620002e1578251825591602001919060010190620002c4565b5b509050620002f19190620002f5565b5090565b5b8082111562000310576000816000905550600101620002f6565b5090565b60006200032b6200032584620004e9565b620004c0565b9050808382526020820190508285602086028201111562000351576200035062000625565b5b60005b858110156200038557816200036a8882620003c2565b84526020840193506020830192505060018101905062000354565b5050509392505050565b600082601f830112620003a757620003a662000620565b5b8151620003b984826020860162000314565b91505092915050565b600081519050620003d38162000645565b92915050565b600080600060608486031215620003f557620003f46200062f565b5b600084015167ffffffffffffffff8111156200041657620004156200062a565b5b62000424868287016200038f565b935050602084015167ffffffffffffffff8111156200044857620004476200062a565b5b62000456868287016200038f565b925050604084015167ffffffffffffffff8111156200047a57620004796200062a565b5b62000488868287016200038f565b9150509250925092565b6200049d8162000518565b82525050565b6000602082019050620004ba600083018462000492565b92915050565b6000620004cc620004df565b9050620004da82826200058c565b919050565b6000604051905090565b600067ffffffffffffffff821115620005075762000506620005f1565b5b602082029050602081019050919050565b600062000525826200052c565b9050919050565b600073ffffffffffffffffffffffffffffffffffffffff82169050919050565b6000819050919050565b600060028204905060018216806200056f57607f821691505b60208210811415620005865762000585620005c2565b5b50919050565b620005978262000634565b810181811067ffffffffffffffff82111715620005b957620005b8620005f1565b5b80604052505050565b7f4e487b7100000000000000000000000000000000000000000000000000000000600052602260045260246000fd5b7f4e487b7100000000000000000000000000000000000000000000000000000000600052604160045260246000fd5b600080fd5b600080fd5b600080fd5b600080fd5b6000601f19601f8301169050919050565b62000650816200054c565b81146200065c57600080fd5b50565b615173806200066f6000396000f3fe608060405260043610620001885760003560e01c806370a0823111620000e5578063971b93de1162000097578063c1493a31116200006d578063c1493a31146200062f578063d579d85a146200065f578063dd62ed3e14620006a3578063e664f3b214620006e75762000188565b8063971b93de1462000563578063a457c2d714620005a7578063a9059cbb14620005eb5762000188565b806370a08231146200041d5780638694ae1b14620004615780638af4e06114620004a5578063900cf0cf14620004e9578063958efd7a146200051957806395d89b4114620005335762000188565b8063313ce567116200013f578063313ce56714620002d957806339509351146200030957806340c10f19146200034d578063482a031f146200037b5780634ff0876a14620003bf5780636dd7d8ea14620003ef5762000188565b806306fdde03146200018d578063095ea7b314620001bd57806318160ddd146200020157806323b872dd14620002315780632471d3de14620002755780632fa7b6841462000295575b600080fd5b3480156200019a57600080fd5b50620001a562000717565b604051620001b4919062002c60565b60405180910390f35b348015620001ca57600080fd5b50620001e96004803603810190620001e391906200249d565b620007b1565b604051620001f8919062002c09565b60405180910390f35b3480156200020e57600080fd5b5062000219620007d8565b60405162000228919062002ec6565b60405180910390f35b3480156200023e57600080fd5b506200025d600480360381019062000257919062002441565b620007e2565b6040516200026c919062002c09565b60405180910390f35b6200029360048036038101906200028d9190620025ea565b62000817565b005b348015620002a257600080fd5b50620002c16004803603810190620002bb9190620023c8565b62001213565b604051620002d0919062002c43565b60405180910390f35b348015620002e657600080fd5b50620002f162001246565b60405162000300919062002f10565b60405180910390f35b3480156200031657600080fd5b506200033560048036038101906200032f91906200249d565b6200124f565b60405162000344919062002c09565b60405180910390f35b3480156200035a57600080fd5b506200037960048036038101906200037391906200249d565b6200128e565b005b3480156200038857600080fd5b50620003a76004803603810190620003a1919062002548565b620015d9565b604051620003b6919062002b7a565b60405180910390f35b348015620003cc57600080fd5b50620003d762001622565b604051620003e6919062002ec6565b60405180910390f35b348015620003fc57600080fd5b506200041b6004803603810190620004159190620023c8565b62001628565b005b3480156200042a57600080fd5b50620004496004803603810190620004439190620023c8565b6200162b565b60405162000458919062002ec6565b60405180910390f35b3480156200046e57600080fd5b506200048d6004803603810190620004879190620023c8565b62001673565b6040516200049c919062002c09565b60405180910390f35b348015620004b257600080fd5b50620004d16004803603810190620004cb9190620026a3565b62001693565b604051620004e0919062002ec6565b60405180910390f35b348015620004f657600080fd5b5062000501620016b8565b60405162000510919062002ec6565b60405180910390f35b3480156200052657600080fd5b5062000531620016be565b005b3480156200054057600080fd5b506200054b62001755565b6040516200055a919062002c60565b60405180910390f35b3480156200057057600080fd5b506200058f6004803603810190620005899190620026a3565b620017ef565b6040516200059e919062002ec6565b60405180910390f35b348015620005b457600080fd5b50620005d36004803603810190620005cd91906200249d565b62001814565b604051620005e2919062002c09565b60405180910390f35b348015620005f857600080fd5b506200061760048036038101906200061191906200249d565b62001894565b60405162000626919062002c09565b60405180910390f35b3480156200063c57600080fd5b5062000647620018bb565b60405162000656919062002ec6565b60405180910390f35b3480156200066c57600080fd5b506200068b6004803603810190620006859190620026a3565b620018c1565b6040516200069a919062002ec6565b60405180910390f35b348015620006b057600080fd5b50620006cf6004803603810190620006c99190620023fa565b620018e6565b604051620006de919062002ec6565b60405180910390f35b348015620006f457600080fd5b50620006ff6200196d565b6040516200070e919062002ec6565b60405180910390f35b6060600380546200072890620031cd565b80601f01602080910402602001604051908101604052809291908181526020018280546200075690620031cd565b8015620007a75780601f106200077b57610100808354040283529160200191620007a7565b820191906000526020600020905b8154815290600101906020018083116200078957829003601f168201915b5050505050905090565b600080620007be62001973565b9050620007cd8185856200197b565b600191505092915050565b6000600254905090565b600080620007ef62001973565b9050620007fe85828562001b4e565b6200080b85858562001be2565b60019150509392505050565b6009543410156200085f576040517f08c379a0000000000000000000000000000000000000000000000000000000008152600401620008569062002d50565b60405180910390fd5b6000805b82518110156200116b5760001515600f60008584815181106200088b576200088a620032e5565b5b602002602001015173ffffffffffffffffffffffffffffffffffffffff1673ffffffffffffffffffffffffffffffffffffffff16815260200190815260200160002060009054906101000a900460ff1615151462000920576040517f08c379a0000000000000000000000000000000000000000000000000000000008152600401620009179062002e82565b60405180910390fd5b620009698382815181106200093a5762000939620032e5565b5b60200260200101517fbe0a4afe0000000000000000000000000000000000000000000000000000000062001e74565b6200097357600080fd5b60008382815181106200098b576200098a620032e5565b5b602002602001015190503073ffffffffffffffffffffffffffffffffffffffff168173ffffffffffffffffffffffffffffffffffffffff166371ca337d6040518163ffffffff1660e01b815260040160206040518083038186803b158015620009f357600080fd5b505afa15801562000a08573d6000803e3d6000fd5b505050506040513d601f19601f8201168201806040525081019062000a2e919062002516565b73ffffffffffffffffffffffffffffffffffffffff161462000a87576040517f08c379a000000000000000000000000000000000000000000000000000000000815260040162000a7e9062002e3e565b60405180910390fd5b600073ffffffffffffffffffffffffffffffffffffffff1660118273ffffffffffffffffffffffffffffffffffffffff166306fdde036040518163ffffffff1660e01b815260040160006040518083038186803b15801562000ae857600080fd5b505afa15801562000afd573d6000803e3d6000fd5b505050506040513d6000823e3d601f19601f8201168201806040525081019062000b28919062002599565b60405162000b37919062002b61565b908152602001604051809103902060009054906101000a900473ffffffffffffffffffffffffffffffffffffffff1673ffffffffffffffffffffffffffffffffffffffff161462000bbf576040517f08c379a000000000000000000000000000000000000000000000000000000000815260040162000bb69062002d94565b60405180910390fd5b600d548173ffffffffffffffffffffffffffffffffffffffff166388a17bde6040518163ffffffff1660e01b815260040160206040518083038186803b15801562000c0957600080fd5b505afa15801562000c1e573d6000803e3d6000fd5b505050506040513d601f19601f8201168201806040525081019062000c449190620026d5565b1115801562000cd65750600e548173ffffffffffffffffffffffffffffffffffffffff166388a17bde6040518163ffffffff1660e01b815260040160206040518083038186803b15801562000c9857600080fd5b505afa15801562000cad573d6000803e3d6000fd5b505050506040513d601f19601f8201168201806040525081019062000cd39190620026d5565b10155b62000d18576040517f08c379a000000000000000000000000000000000000000000000000000000000815260040162000d0f9062002e1c565b60405180910390fd5b60008173ffffffffffffffffffffffffffffffffffffffff166339788bc86040518163ffffffff1660e01b815260040160206040518083038186803b15801562000d6157600080fd5b505afa15801562000d76573d6000803e3d6000fd5b505050506040513d601f19601f8201168201806040525081019062000d9c9190620026d5565b1462000ddf576040517f08c379a000000000000000000000000000000000000000000000000000000000815260040162000dd69062002cea565b60405180910390fd5b60008173ffffffffffffffffffffffffffffffffffffffff16630f941d566040518163ffffffff1660e01b815260040160206040518083038186803b15801562000e2857600080fd5b505afa15801562000e3d573d6000803e3d6000fd5b505050506040513d601f19601f8201168201806040525081019062000e639190620026d5565b1462000ea6576040517f08c379a000000000000000000000000000000000000000000000000000000000815260040162000e9d9062002cc8565b60405180910390fd5b60005b600a805490508110156200115357600a818154811062000ece5762000ecd620032e5565b5b90600052602060002001548273ffffffffffffffffffffffffffffffffffffffff166388a17bde6040518163ffffffff1660e01b815260040160206040518083038186803b15801562000f2057600080fd5b505afa15801562000f35573d6000803e3d6000fd5b505050506040513d601f19601f8201168201806040525081019062000f5b9190620026d5565b116200114d578173ffffffffffffffffffffffffffffffffffffffff166397541c32600b838154811062000f945762000f93620032e5565b5b90600052602060002001546040518263ffffffff1660e01b815260040162000fbd919062002ec6565b600060405180830381600087803b15801562000fd857600080fd5b505af115801562000fed573d6000803e3d6000fd5b505050508173ffffffffffffffffffffffffffffffffffffffff1663f8d3dea0600c8381548110620010245762001023620032e5565b5b90600052602060002001546040518263ffffffff1660e01b81526004016200104d919062002ec6565b600060405180830381600087803b1580156200106857600080fd5b505af11580156200107d573d6000803e3d6000fd5b505050508173ffffffffffffffffffffffffffffffffffffffff16630ceb2cef6006546040518263ffffffff1660e01b8152600401620010be919062002ec6565b600060405180830381600087803b158015620010d957600080fd5b505af1158015620010ee573d6000803e3d6000fd5b50505050600a8181548110620011095762001108620032e5565b5b9060005260206000200154841062001122578362001145565b600a8181548110620011395762001138620032e5565b5b90600052602060002001545b935062001153565b62000ea9565b50508080620011629062003239565b91505062000863565b5060008114156200117d57506200120e565b600030600160065462001191919062003031565b868686604051620011a2906200219d565b620011b295949392919062002b97565b604051809103906000f080158015620011cf573d6000803e3d6000fd5b5090507fcaaa218e26c347dd8fe97b17c68eaf6aea438eb9148b85e84477e3050089ae838160405162001203919062002b7a565b60405180910390a150505b505050565b60126020528060005260406000206000915054906101000a900473ffffffffffffffffffffffffffffffffffffffff1681565b60006012905090565b6000806200125c62001973565b905062001283818585620012718589620018e6565b6200127d919062003031565b6200197b565b600191505092915050565b600f60003373ffffffffffffffffffffffffffffffffffffffff1673ffffffffffffffffffffffffffffffffffffffff16815260200190815260200160002060009054906101000a900460ff1680620013345750600560009054906101000a900473ffffffffffffffffffffffffffffffffffffffff1673ffffffffffffffffffffffffffffffffffffffff163373ffffffffffffffffffffffffffffffffffffffff16145b62001376576040517f08c379a00000000000000000000000000000000000000000000000000000000081526004016200136d9062002db6565b60405180910390fd5b803373ffffffffffffffffffffffffffffffffffffffff166388a17bde6040518163ffffffff1660e01b815260040160206040518083038186803b158015620013be57600080fd5b505afa158015620013d3573d6000803e3d6000fd5b505050506040513d601f19601f82011682018060405250810190620013f99190620026d5565b10156200143d576040517f08c379a0000000000000000000000000000000000000000000000000000000008152600401620014349062002d72565b60405180910390fd5b433373ffffffffffffffffffffffffffffffffffffffff16630fb5a6b46040518163ffffffff1660e01b815260040160206040518083038186803b1580156200148557600080fd5b505afa1580156200149a573d6000803e3d6000fd5b505050506040513d601f19601f82011682018060405250810190620014c09190620026d5565b1015620014cc57600080fd5b3373ffffffffffffffffffffffffffffffffffffffff16632bd8d552823373ffffffffffffffffffffffffffffffffffffffff166388a17bde6040518163ffffffff1660e01b815260040160206040518083038186803b1580156200153057600080fd5b505afa15801562001545573d6000803e3d6000fd5b505050506040513d601f19601f820116820180604052508101906200156b9190620026d5565b6200157791906200308e565b6040518263ffffffff1660e01b815260040162001595919062002ec6565b600060405180830381600087803b158015620015b057600080fd5b505af1158015620015c5573d6000803e3d6000fd5b50505050620015d5828262001e9e565b5050565b6011818051602081018201805184825260208301602085012081835280955050505050506000915054906101000a900473ffffffffffffffffffffffffffffffffffffffff1681565b60085481565b50565b60008060008373ffffffffffffffffffffffffffffffffffffffff1673ffffffffffffffffffffffffffffffffffffffff168152602001908152602001600020549050919050565b600f6020528060005260406000206000915054906101000a900460ff1681565b600c8181548110620016a457600080fd5b906000526020600020016000915090505481565b60065481565b600854600754620016d0919062003031565b431015620016dd57600080fd5b60085460076000828254620016f3919062003031565b92505081905550600660008154809291906200170f9062003239565b91905055507f27d6c6200f2a93b4e2eb544130a14df1a48054c8ca67317d8a7ed5d03e2efe376006546007546040516200174b92919062002ee3565b60405180910390a1565b6060600480546200176690620031cd565b80601f01602080910402602001604051908101604052809291908181526020018280546200179490620031cd565b8015620017e55780601f10620017b957610100808354040283529160200191620017e5565b820191906000526020600020905b815481529060010190602001808311620017c757829003601f168201915b5050505050905090565b600b81815481106200180057600080fd5b906000526020600020016000915090505481565b6000806200182162001973565b90506000620018318286620018e6565b90508381101562001879576040517f08c379a0000000000000000000000000000000000000000000000000000000008152600401620018709062002e60565b60405180910390fd5b6200188882868684036200197b565b60019250505092915050565b600080620018a162001973565b9050620018b081858562001be2565b600191505092915050565b60075481565b600a8181548110620018d257600080fd5b906000526020600020016000915090505481565b6000600160008473ffffffffffffffffffffffffffffffffffffffff1673ffffffffffffffffffffffffffffffffffffffff16815260200190815260200160002060008373ffffffffffffffffffffffffffffffffffffffff1673ffffffffffffffffffffffffffffffffffffffff16815260200190815260200160002054905092915050565b60095481565b600033905090565b600073ffffffffffffffffffffffffffffffffffffffff168373ffffffffffffffffffffffffffffffffffffffff161415620019ee576040517f08c379a0000000000000000000000000000000000000000000000000000000008152600401620019e59062002dfa565b60405180910390fd5b600073ffffffffffffffffffffffffffffffffffffffff168273ffffffffffffffffffffffffffffffffffffffff16141562001a61576040517f08c379a000000000000000000000000000000000000000000000000000000000815260040162001a589062002ca6565b60405180910390fd5b80600160008573ffffffffffffffffffffffffffffffffffffffff1673ffffffffffffffffffffffffffffffffffffffff16815260200190815260200160002060008473ffffffffffffffffffffffffffffffffffffffff1673ffffffffffffffffffffffffffffffffffffffff168152602001908152602001600020819055508173ffffffffffffffffffffffffffffffffffffffff168373ffffffffffffffffffffffffffffffffffffffff167f8c5be1e5ebec7d5bd14f71427d1e84f3dd0314c0f7b2291e5b200ac8c7c3b9258360405162001b41919062002ec6565b60405180910390a3505050565b600062001b5c8484620018e6565b90507fffffffffffffffffffffffffffffffffffffffffffffffffffffffffffffffff811462001bdc578181101562001bcc576040517f08c379a000000000000000000000000000000000000000000000000000000000815260040162001bc39062002d0c565b60405180910390fd5b62001bdb84848484036200197b565b5b50505050565b600073ffffffffffffffffffffffffffffffffffffffff168373ffffffffffffffffffffffffffffffffffffffff16141562001c55576040517f08c379a000000000000000000000000000000000000000000000000000000000815260040162001c4c9062002dd8565b60405180910390fd5b600073ffffffffffffffffffffffffffffffffffffffff168273ffffffffffffffffffffffffffffffffffffffff16141562001cc8576040517f08c379a000000000000000000000000000000000000000000000000000000000815260040162001cbf9062002c84565b60405180910390fd5b62001cd58383836200200b565b60008060008573ffffffffffffffffffffffffffffffffffffffff1673ffffffffffffffffffffffffffffffffffffffff1681526020019081526020016000205490508181101562001d5e576040517f08c379a000000000000000000000000000000000000000000000000000000000815260040162001d559062002d2e565b60405180910390fd5b8181036000808673ffffffffffffffffffffffffffffffffffffffff1673ffffffffffffffffffffffffffffffffffffffff16815260200190815260200160002081905550816000808573ffffffffffffffffffffffffffffffffffffffff1673ffffffffffffffffffffffffffffffffffffffff168152602001908152602001600020600082825462001df3919062003031565b925050819055508273ffffffffffffffffffffffffffffffffffffffff168473ffffffffffffffffffffffffffffffffffffffff167fddf252ad1be2c89b69c2b068fc378daa952ba7f163c4a11628f55a4df523b3ef8460405162001e59919062002ec6565b60405180910390a362001e6e84848462002010565b50505050565b600062001e818362002015565b801562001e96575062001e95838362002067565b5b905092915050565b600073ffffffffffffffffffffffffffffffffffffffff168273ffffffffffffffffffffffffffffffffffffffff16141562001f11576040517f08c379a000000000000000000000000000000000000000000000000000000000815260040162001f089062002ea4565b60405180910390fd5b62001f1f600083836200200b565b806002600082825462001f33919062003031565b92505081905550806000808473ffffffffffffffffffffffffffffffffffffffff1673ffffffffffffffffffffffffffffffffffffffff168152602001908152602001600020600082825462001f8a919062003031565b925050819055508173ffffffffffffffffffffffffffffffffffffffff16600073ffffffffffffffffffffffffffffffffffffffff167fddf252ad1be2c89b69c2b068fc378daa952ba7f163c4a11628f55a4df523b3ef8360405162001ff1919062002ec6565b60405180910390a3620020076000838362002010565b5050565b505050565b505050565b600062002043827f01ffc9a70000000000000000000000000000000000000000000000000000000062002067565b80156200206057506200205e8263ffffffff60e01b62002067565b155b9050919050565b6000806301ffc9a760e01b8360405160240162002085919062002c26565b604051602081830303815290604052907bffffffffffffffffffffffffffffffffffffffffffffffffffffffff19166020820180517bffffffffffffffffffffffffffffffffffffffffffffffffffffffff838183161783525050505090506000808573ffffffffffffffffffffffffffffffffffffffff166175308460405162002111919062002b48565b6000604051808303818686fa925050503d80600081146200214f576040519150601f19603f3d011682016040523d82523d6000602084013e62002154565b606091505b509150915060208151101562002171576000935050505062002197565b81801562002191575080806020019051810190620021909190620024e4565b5b93505050505b92915050565b6118c1806200387d83390190565b6000620021c2620021bc8462002f56565b62002f2d565b90508083825260208201905082856020860282011115620021e857620021e762003348565b5b60005b858110156200221c5781620022018882620022bc565b845260208401935060208301925050600181019050620021eb565b5050509392505050565b60006200223d620022378462002f85565b62002f2d565b9050828152602081018484840111156200225c576200225b6200334d565b5b6200226984828562003188565b509392505050565b600062002288620022828462002f85565b62002f2d565b905082815260208101848484011115620022a757620022a66200334d565b5b620022b484828562003197565b509392505050565b600081359050620022cd8162003814565b92915050565b600082601f830112620022eb57620022ea62003343565b5b8135620022fd848260208601620021ab565b91505092915050565b60008151905062002317816200382e565b92915050565b6000815190506200232e8162003848565b92915050565b600082601f8301126200234c576200234b62003343565b5b81356200235e84826020860162002226565b91505092915050565b600082601f8301126200237f576200237e62003343565b5b81516200239184826020860162002271565b91505092915050565b600081359050620023ab8162003862565b92915050565b600081519050620023c28162003862565b92915050565b600060208284031215620023e157620023e062003357565b5b6000620023f184828501620022bc565b91505092915050565b6000806040838503121562002414576200241362003357565b5b60006200242485828601620022bc565b92505060206200243785828601620022bc565b9150509250929050565b6000806000606084860312156200245d576200245c62003357565b5b60006200246d86828701620022bc565b93505060206200248086828701620022bc565b925050604062002493868287016200239a565b9150509250925092565b60008060408385031215620024b757620024b662003357565b5b6000620024c785828601620022bc565b9250506020620024da858286016200239a565b9150509250929050565b600060208284031215620024fd57620024fc62003357565b5b60006200250d8482850162002306565b91505092915050565b6000602082840312156200252f576200252e62003357565b5b60006200253f848285016200231d565b91505092915050565b60006020828403121562002561576200256062003357565b5b600082013567ffffffffffffffff81111562002582576200258162003352565b5b620025908482850162002334565b91505092915050565b600060208284031215620025b257620025b162003357565b5b600082015167ffffffffffffffff811115620025d357620025d262003352565b5b620025e18482850162002367565b91505092915050565b60008060006060848603121562002606576200260562003357565b5b600084013567ffffffffffffffff81111562002627576200262662003352565b5b620026358682870162002334565b935050602084013567ffffffffffffffff81111562002659576200265862003352565b5b620026678682870162002334565b925050604084013567ffffffffffffffff8111156200268b576200268a62003352565b5b6200269986828701620022d3565b9150509250925092565b600060208284031215620026bc57620026bb62003357565b5b6000620026cc848285016200239a565b91505092915050565b600060208284031215620026ee57620026ed62003357565b5b6000620026fe84828501620023b1565b91505092915050565b600062002715838362002721565b60208301905092915050565b6200272c81620030c9565b82525050565b6200273d81620030c9565b82525050565b6000620027508262002fcb565b6200275c818562002ff9565b9350620027698362002fbb565b8060005b83811015620027a057815162002784888262002707565b9750620027918362002fec565b9250506001810190506200276d565b5085935050505092915050565b620027b881620030dd565b82525050565b620027c981620030e9565b82525050565b6000620027dc8262002fd6565b620027e881856200300a565b9350620027fa81856020860162003197565b80840191505092915050565b620028118162003160565b82525050565b6000620028248262002fe1565b62002830818562003015565b93506200284281856020860162003197565b6200284d816200335c565b840191505092915050565b6000620028658262002fe1565b62002871818562003026565b93506200288381856020860162003197565b80840191505092915050565b60006200289e60238362003015565b9150620028ab826200336d565b604082019050919050565b6000620028c560228362003015565b9150620028d282620033bc565b604082019050919050565b6000620028ec60238362003015565b9150620028f9826200340b565b604082019050919050565b60006200291360248362003015565b915062002920826200345a565b604082019050919050565b60006200293a601d8362003015565b91506200294782620034a9565b602082019050919050565b60006200296160268362003015565b91506200296e82620034d2565b604082019050919050565b60006200298860248362003015565b9150620029958262003521565b604082019050919050565b6000620029af60338362003015565b9150620029bc8262003570565b604082019050919050565b6000620029d660148362003015565b9150620029e382620035bf565b602082019050919050565b6000620029fd60308362003015565b915062002a0a82620035e8565b604082019050919050565b600062002a2460258362003015565b915062002a318262003637565b604082019050919050565b600062002a4b60248362003015565b915062002a588262003686565b604082019050919050565b600062002a72602a8362003015565b915062002a7f82620036d5565b604082019050919050565b600062002a99601b8362003015565b915062002aa68262003724565b602082019050919050565b600062002ac060258362003015565b915062002acd826200374d565b604082019050919050565b600062002ae7602f8362003015565b915062002af4826200379c565b604082019050919050565b600062002b0e601f8362003015565b915062002b1b82620037eb565b602082019050919050565b62002b318162003149565b82525050565b62002b428162003153565b82525050565b600062002b568284620027cf565b915081905092915050565b600062002b6f828462002858565b915081905092915050565b600060208201905062002b91600083018462002732565b92915050565b600060a08201905062002bae600083018862002732565b62002bbd602083018762002b26565b818103604083015262002bd1818662002817565b9050818103606083015262002be7818562002817565b9050818103608083015262002bfd818462002743565b90509695505050505050565b600060208201905062002c206000830184620027ad565b92915050565b600060208201905062002c3d6000830184620027be565b92915050565b600060208201905062002c5a600083018462002806565b92915050565b6000602082019050818103600083015262002c7c818462002817565b905092915050565b6000602082019050818103600083015262002c9f816200288f565b9050919050565b6000602082019050818103600083015262002cc181620028b6565b9050919050565b6000602082019050818103600083015262002ce381620028dd565b9050919050565b6000602082019050818103600083015262002d058162002904565b9050919050565b6000602082019050818103600083015262002d27816200292b565b9050919050565b6000602082019050818103600083015262002d498162002952565b9050919050565b6000602082019050818103600083015262002d6b8162002979565b9050919050565b6000602082019050818103600083015262002d8d81620029a0565b9050919050565b6000602082019050818103600083015262002daf81620029c7565b9050919050565b6000602082019050818103600083015262002dd181620029ee565b9050919050565b6000602082019050818103600083015262002df38162002a15565b9050919050565b6000602082019050818103600083015262002e158162002a3c565b9050919050565b6000602082019050818103600083015262002e378162002a63565b9050919050565b6000602082019050818103600083015262002e598162002a8a565b9050919050565b6000602082019050818103600083015262002e7b8162002ab1565b9050919050565b6000602082019050818103600083015262002e9d8162002ad8565b9050919050565b6000602082019050818103600083015262002ebf8162002aff565b9050919050565b600060208201905062002edd600083018462002b26565b92915050565b600060408201905062002efa600083018562002b26565b62002f09602083018462002b26565b9392505050565b600060208201905062002f27600083018462002b37565b92915050565b600062002f3962002f4c565b905062002f47828262003203565b919050565b6000604051905090565b600067ffffffffffffffff82111562002f745762002f7362003314565b5b602082029050602081019050919050565b600067ffffffffffffffff82111562002fa35762002fa262003314565b5b62002fae826200335c565b9050602081019050919050565b6000819050602082019050919050565b600081519050919050565b600081519050919050565b600081519050919050565b6000602082019050919050565b600082825260208201905092915050565b600081905092915050565b600082825260208201905092915050565b600081905092915050565b60006200303e8262003149565b91506200304b8362003149565b9250827fffffffffffffffffffffffffffffffffffffffffffffffffffffffffffffffff0382111562003083576200308262003287565b5b828201905092915050565b60006200309b8262003149565b9150620030a88362003149565b925082821015620030be57620030bd62003287565b5b828203905092915050565b6000620030d68262003129565b9050919050565b60008115159050919050565b60007fffffffff0000000000000000000000000000000000000000000000000000000082169050919050565b60006200312282620030c9565b9050919050565b600073ffffffffffffffffffffffffffffffffffffffff82169050919050565b6000819050919050565b600060ff82169050919050565b60006200316d8262003174565b9050919050565b6000620031818262003129565b9050919050565b82818337600083830152505050565b60005b83811015620031b75780820151818401526020810190506200319a565b83811115620031c7576000848401525b50505050565b60006002820490506001821680620031e657607f821691505b60208210811415620031fd57620031fc620032b6565b5b50919050565b6200320e826200335c565b810181811067ffffffffffffffff8211171562003230576200322f62003314565b5b80604052505050565b6000620032468262003149565b91507fffffffffffffffffffffffffffffffffffffffffffffffffffffffffffffffff8214156200327c576200327b62003287565b5b600182019050919050565b7f4e487b7100000000000000000000000000000000000000000000000000000000600052601160045260246000fd5b7f4e487b7100000000000000000000000000000000000000000000000000000000600052602260045260246000fd5b7f4e487b7100000000000000000000000000000000000000000000000000000000600052603260045260246000fd5b7f4e487b7100000000000000000000000000000000000000000000000000000000600052604160045260246000fd5b600080fd5b600080fd5b600080fd5b600080fd5b600080fd5b6000601f19601f8301169050919050565b7f45524332303a207472616e7366657220746f20746865207a65726f206164647260008201527f6573730000000000000000000000000000000000000000000000000000000000602082015250565b7f45524332303a20617070726f766520746f20746865207a65726f20616464726560008201527f7373000000000000000000000000000000000000000000000000000000000000602082015250565b7f476f7665726e65642072656d6f76616c207661726961626c65206e6f74207a6560008201527f726f2e0000000000000000000000000000000000000000000000000000000000602082015250565b7f476f7665726e656420617070726f76616c207661726961626c65206e6f74207a60008201527f65726f2e00000000000000000000000000000000000000000000000000000000602082015250565b7f45524332303a20696e73756666696369656e7420616c6c6f77616e6365000000600082015250565b7f45524332303a207472616e7366657220616d6f756e742065786365656473206260008201527f616c616e63650000000000000000000000000000000000000000000000000000602082015250565b7f496e737566666963656e742070726f706f73616c20636f7374207375626d697460008201527f7465642e00000000000000000000000000000000000000000000000000000000602082015250565b7f436f6e7472616374206e6f7420616c6c6f636174656420656e6f75676820746f60008201527f206d696e7420616d6f756e7420676976656e2e00000000000000000000000000602082015250565b7f436f6e7472616374206e616d652074616b656e2e000000000000000000000000600082015250565b7f4f6e6c79206120676f7665726e656420636f6e74726163742063616e2063616c60008201527f6c20746869732066756e6374696f6e2e00000000000000000000000000000000602082015250565b7f45524332303a207472616e736665722066726f6d20746865207a65726f20616460008201527f6472657373000000000000000000000000000000000000000000000000000000602082015250565b7f45524332303a20617070726f76652066726f6d20746865207a65726f2061646460008201527f7265737300000000000000000000000000000000000000000000000000000000602082015250565b7f476f7665726e656420636f6e747261637420616c6c6f636174696f6e206f757460008201527f206f662072616e67652e00000000000000000000000000000000000000000000602082015250565b7f526174696f206164647265737320697320696e636f72726563742e0000000000600082015250565b7f45524332303a2064656372656173656420616c6c6f77616e63652062656c6f7760008201527f207a65726f000000000000000000000000000000000000000000000000000000602082015250565b7f50726f706f73616c20636f6e7461696e7320616e20616c726561647920676f7660008201527f65726e656420636f6e74726163742e0000000000000000000000000000000000602082015250565b7f45524332303a206d696e7420746f20746865207a65726f206164647265737300600082015250565b6200381f81620030c9565b81146200382b57600080fd5b50565b6200383981620030dd565b81146200384557600080fd5b50565b620038538162003115565b81146200385f57600080fd5b50565b6200386d8162003149565b81146200387957600080fd5b5056fe60806040523480156200001157600080fd5b50604051620018c1380380620018c18339818101604052810190620000379190620004e9565b620000687f01ffc9a7000000000000000000000000000000000000000000000000000000006200017860201b60201c565b620000997f880b6916000000000000000000000000000000000000000000000000000000006200017860201b60201c565b84600160006101000a81548173ffffffffffffffffffffffffffffffffffffffff021916908373ffffffffffffffffffffffffffffffffffffffff160217905550836002819055508260039080519060200190620000f992919062000250565b50806004908051906020019062000112929190620002e1565b5081600590805190602001906200012b92919062000250565b5033600660016101000a81548173ffffffffffffffffffffffffffffffffffffffff021916908373ffffffffffffffffffffffffffffffffffffffff16021790555050505050506200087b565b63ffffffff60e01b817bffffffffffffffffffffffffffffffffffffffffffffffffffffffff19161415620001e4576040517f08c379a0000000000000000000000000000000000000000000000000000000008152600401620001db90620005f5565b60405180910390fd5b6001600080837bffffffffffffffffffffffffffffffffffffffffffffffffffffffff19167bffffffffffffffffffffffffffffffffffffffffffffffffffffffff1916815260200190815260200160002060006101000a81548160ff02191690831515021790555050565b8280546200025e906200072a565b90600052602060002090601f016020900481019282620002825760008555620002ce565b82601f106200029d57805160ff1916838001178555620002ce565b82800160010185558215620002ce579182015b82811115620002cd578251825591602001919060010190620002b0565b5b509050620002dd919062000370565b5090565b8280548282559060005260206000209081019282156200035d579160200282015b828111156200035c5782518260006101000a81548173ffffffffffffffffffffffffffffffffffffffff021916908373ffffffffffffffffffffffffffffffffffffffff1602179055509160200191906001019062000302565b5b5090506200036c919062000370565b5090565b5b808211156200038b57600081600090555060010162000371565b5090565b6000620003a6620003a08462000640565b62000617565b90508083825260208201905082856020860282011115620003cc57620003cb620007f9565b5b60005b85811015620004005781620003e5888262000455565b845260208401935060208301925050600181019050620003cf565b5050509392505050565b6000620004216200041b846200066f565b62000617565b90508281526020810184848401111562000440576200043f620007fe565b5b6200044d848285620006f4565b509392505050565b600081519050620004668162000847565b92915050565b600082601f830112620004845762000483620007f4565b5b8151620004968482602086016200038f565b91505092915050565b600082601f830112620004b757620004b6620007f4565b5b8151620004c98482602086016200040a565b91505092915050565b600081519050620004e38162000861565b92915050565b600080600080600060a0868803121562000508576200050762000808565b5b6000620005188882890162000455565b95505060206200052b88828901620004d2565b945050604086015167ffffffffffffffff8111156200054f576200054e62000803565b5b6200055d888289016200049f565b935050606086015167ffffffffffffffff81111562000581576200058062000803565b5b6200058f888289016200049f565b925050608086015167ffffffffffffffff811115620005b357620005b262000803565b5b620005c1888289016200046c565b9150509295509295909350565b6000620005dd601c83620006a5565b9150620005ea826200081e565b602082019050919050565b600060208201905081810360008301526200061081620005ce565b9050919050565b60006200062362000636565b905062000631828262000760565b919050565b6000604051905090565b600067ffffffffffffffff8211156200065e576200065d620007c5565b5b602082029050602081019050919050565b600067ffffffffffffffff8211156200068d576200068c620007c5565b5b62000698826200080d565b9050602081019050919050565b600082825260208201905092915050565b6000620006c382620006ca565b9050919050565b600073ffffffffffffffffffffffffffffffffffffffff82169050919050565b6000819050919050565b60005b8381101562000714578082015181840152602081019050620006f7565b8381111562000724576000848401525b50505050565b600060028204905060018216806200074357607f821691505b602082108114156200075a576200075962000796565b5b50919050565b6200076b826200080d565b810181811067ffffffffffffffff821117156200078d576200078c620007c5565b5b80604052505050565b7f4e487b7100000000000000000000000000000000000000000000000000000000600052602260045260246000fd5b7f4e487b7100000000000000000000000000000000000000000000000000000000600052604160045260246000fd5b600080fd5b600080fd5b600080fd5b600080fd5b600080fd5b6000601f19601f8301169050919050565b7f4552433136353a20696e76616c696420696e7465726661636520696400000000600082015250565b6200085281620006b6565b81146200085e57600080fd5b50565b6200086c81620006ea565b81146200087857600080fd5b50565b611036806200088b6000396000f3fe608060405234801561001057600080fd5b50600436106100ea5760003560e01c8063960664d11161008c578063b17aabe111610066578063b17aabe11461023b578063c1b4335714610259578063d3f29ace14610289578063fcfff16f146102a5576100ea565b8063960664d1146101d1578063a8e4fb9014610201578063ac56fd511461021f576100ea565b806346d5a568116100c857806346d5a5681461015b57806371ca337d146101775780637284e41614610195578063900cf0cf146101b3576100ea565b806301ffc9a7146100ef57806306fdde031461011f57806319d40b081461013d575b600080fd5b61010960048036038101906101049190610a48565b6102c3565b6040516101169190610bd6565b60405180910390f35b61012761033a565b6040516101349190610bf1565b60405180910390f35b6101456103c8565b6040516101529190610bd6565b60405180910390f35b61017560048036038101906101709190610a1b565b6103db565b005b61017f610488565b60405161018c9190610bbb565b60405180910390f35b61019d6104ae565b6040516101aa9190610bf1565b60405180910390f35b6101bb61053c565b6040516101c89190610c53565b60405180910390f35b6101eb60048036038101906101e69190610ae2565b610542565b6040516101f89190610bbb565b60405180910390f35b610209610581565b6040516102169190610bbb565b60405180910390f35b610239600480360381019061023491906109d2565b6105a7565b005b610243610651565b6040516102509190610c53565b60405180910390f35b610273600480360381019061026e9190610a75565b61065e565b6040516102809190610c53565b60405180910390f35b6102a3600480360381019061029e9190610aa2565b610676565b005b6102ad6107a7565b6040516102ba9190610bd6565b60405180910390f35b60006102ce826107ba565b806103335750600080837bffffffffffffffffffffffffffffffffffffffffffffffffffffffff19167bffffffffffffffffffffffffffffffffffffffffffffffffffffffff1916815260200190815260200160002060009054906101000a900460ff165b9050919050565b6003805461034790610dd8565b80601f016020809104026020016040519081016040528092919081815260200182805461037390610dd8565b80156103c05780601f10610395576101008083540402835291602001916103c0565b820191906000526020600020905b8154815290600101906020018083116103a357829003601f168201915b505050505081565b600660009054906101000a900460ff1681565b600160009054906101000a900473ffffffffffffffffffffffffffffffffffffffff1673ffffffffffffffffffffffffffffffffffffffff163373ffffffffffffffffffffffffffffffffffffffff161461046b576040517f08c379a000000000000000000000000000000000000000000000000000000000815260040161046290610c33565b60405180910390fd5b80600660006101000a81548160ff02191690831515021790555050565b600160009054906101000a900473ffffffffffffffffffffffffffffffffffffffff1681565b600580546104bb90610dd8565b80601f01602080910402602001604051908101604052809291908181526020018280546104e790610dd8565b80156105345780601f1061050957610100808354040283529160200191610534565b820191906000526020600020905b81548152906001019060200180831161051757829003601f168201915b505050505081565b60025481565b6004818154811061055257600080fd5b906000526020600020016000915054906101000a900473ffffffffffffffffffffffffffffffffffffffff1681565b600660019054906101000a900473ffffffffffffffffffffffffffffffffffffffff1681565b600160009054906101000a900473ffffffffffffffffffffffffffffffffffffffff1673ffffffffffffffffffffffffffffffffffffffff163373ffffffffffffffffffffffffffffffffffffffff1614610637576040517f08c379a000000000000000000000000000000000000000000000000000000000815260040161062e90610c33565b60405180910390fd5b806004908051906020019061064d929190610824565b5050565b6000600480549050905090565b60076020528060005260406000206000915090505481565b600160009054906101000a900473ffffffffffffffffffffffffffffffffffffffff1673ffffffffffffffffffffffffffffffffffffffff163373ffffffffffffffffffffffffffffffffffffffff1614610706576040517f08c379a00000000000000000000000000000000000000000000000000000000081526004016106fd90610c33565b60405180910390fd5b600660159054906101000a900460ff16610755576040517f08c379a000000000000000000000000000000000000000000000000000000000815260040161074c90610c13565b60405180910390fd5b806007600084600281111561076d5761076c610e6a565b5b600281111561077f5761077e610e6a565b5b8152602001908152602001600020600082825461079c9190610cdb565b925050819055505050565b600660159054906101000a900460ff1681565b60007f01ffc9a7000000000000000000000000000000000000000000000000000000007bffffffffffffffffffffffffffffffffffffffffffffffffffffffff1916827bffffffffffffffffffffffffffffffffffffffffffffffffffffffff1916149050919050565b82805482825590600052602060002090810192821561089d579160200282015b8281111561089c5782518260006101000a81548173ffffffffffffffffffffffffffffffffffffffff021916908373ffffffffffffffffffffffffffffffffffffffff16021790555091602001919060010190610844565b5b5090506108aa91906108ae565b5090565b5b808211156108c75760008160009055506001016108af565b5090565b60006108de6108d984610c93565b610c6e565b9050808382526020820190508285602086028201111561090157610900610efc565b5b60005b858110156109315781610917888261093b565b845260208401935060208301925050600181019050610904565b5050509392505050565b60008135905061094a81610f94565b92915050565b600082601f83011261096557610964610ef7565b5b81356109758482602086016108cb565b91505092915050565b60008135905061098d81610fab565b92915050565b6000813590506109a281610fc2565b92915050565b6000813590506109b781610fd9565b92915050565b6000813590506109cc81610fe9565b92915050565b6000602082840312156109e8576109e7610f06565b5b600082013567ffffffffffffffff811115610a0657610a05610f01565b5b610a1284828501610950565b91505092915050565b600060208284031215610a3157610a30610f06565b5b6000610a3f8482850161097e565b91505092915050565b600060208284031215610a5e57610a5d610f06565b5b6000610a6c84828501610993565b91505092915050565b600060208284031215610a8b57610a8a610f06565b5b6000610a99848285016109a8565b91505092915050565b60008060408385031215610ab957610ab8610f06565b5b6000610ac7858286016109a8565b9250506020610ad8858286016109bd565b9150509250929050565b600060208284031215610af857610af7610f06565b5b6000610b06848285016109bd565b91505092915050565b610b1881610d31565b82525050565b610b2781610d43565b82525050565b6000610b3882610cbf565b610b428185610cca565b9350610b52818560208601610da5565b610b5b81610f0b565b840191505092915050565b6000610b73602483610cca565b9150610b7e82610f1c565b604082019050919050565b6000610b96601883610cca565b9150610ba182610f6b565b602082019050919050565b610bb581610d9b565b82525050565b6000602082019050610bd06000830184610b0f565b92915050565b6000602082019050610beb6000830184610b1e565b92915050565b60006020820190508181036000830152610c0b8184610b2d565b905092915050565b60006020820190508181036000830152610c2c81610b66565b9050919050565b60006020820190508181036000830152610c4c81610b89565b9050919050565b6000602082019050610c686000830184610bac565b92915050565b6000610c78610c89565b9050610c848282610e0a565b919050565b6000604051905090565b600067ffffffffffffffff821115610cae57610cad610ec8565b5b602082029050602081019050919050565b600081519050919050565b600082825260208201905092915050565b6000610ce682610d9b565b9150610cf183610d9b565b9250827fffffffffffffffffffffffffffffffffffffffffffffffffffffffffffffffff03821115610d2657610d25610e3b565b5b828201905092915050565b6000610d3c82610d7b565b9050919050565b60008115159050919050565b60007fffffffff0000000000000000000000000000000000000000000000000000000082169050919050565b600073ffffffffffffffffffffffffffffffffffffffff82169050919050565b6000819050919050565b60005b83811015610dc3578082015181840152602081019050610da8565b83811115610dd2576000848401525b50505050565b60006002820490506001821680610df057607f821691505b60208210811415610e0457610e03610e99565b5b50919050565b610e1382610f0b565b810181811067ffffffffffffffff82111715610e3257610e31610ec8565b5b80604052505050565b7f4e487b7100000000000000000000000000000000000000000000000000000000600052601160045260246000fd5b7f4e487b7100000000000000000000000000000000000000000000000000000000600052602160045260246000fd5b7f4e487b7100000000000000000000000000000000000000000000000000000000600052602260045260246000fd5b7f4e487b7100000000000000000000000000000000000000000000000000000000600052604160045260246000fd5b600080fd5b600080fd5b600080fd5b600080fd5b6000601f19601f8301169050919050565b7f566f74696e6720666f7220746869732070726f706f73616c2068617320636c6f60008201527f7365642e00000000000000000000000000000000000000000000000000000000602082015250565b7f4d7573742062652063616c6c656420627920726174696f2e0000000000000000600082015250565b610f9d81610d31565b8114610fa857600080fd5b50565b610fb481610d43565b8114610fbf57600080fd5b50565b610fcb81610d4f565b8114610fd657600080fd5b50565b60038110610fe657600080fd5b50565b610ff281610d9b565b8114610ffd57600080fd5b5056fea26469706673582212209c6641a040ebc15edf2954a52e14ae9fe6a73dd453221efd2c1d5c3d4e5e05a064736f6c63430008050033a264697066735822122018800ff2242fe1a0eddd7df95e7f9bb03f969a19ec8d488a0df64db6d8222c9064736f6c63430008050033608060405234801561001057600080fd5b506040516103be3803806103be8339818101604052810190610032919061008d565b806000806101000a81548173ffffffffffffffffffffffffffffffffffffffff021916908373ffffffffffffffffffffffffffffffffffffffff16021790555050610108565b600081519050610087816100f1565b92915050565b6000602082840312156100a3576100a26100ec565b5b60006100b184828501610078565b91505092915050565b60006100c5826100cc565b9050919050565b600073ffffffffffffffffffffffffffffffffffffffff82169050919050565b600080fd5b6100fa816100ba565b811461010557600080fd5b50565b6102a7806101176000396000f3fe6080604052600436106100345760003560e01c8063287a61e4146100395780639c3a8e2e14610076578063efc81a8c146100b3575b600080fd5b34801561004557600080fd5b50610060600480360381019061005b919061017e565b6100bd565b60405161006d91906101c9565b60405180910390f35b34801561008257600080fd5b5061009d6004803603810190610098919061017e565b610126565b6040516100aa91906101e4565b60405180910390f35b6100bb610159565b005b6000600260008373ffffffffffffffffffffffffffffffffffffffff1673ffffffffffffffffffffffffffffffffffffffff16815260200190815260200160002060009054906101000a900473ffffffffffffffffffffffffffffffffffffffff169050919050565b60026020528060005260406000206000915054906101000a900473ffffffffffffffffffffffffffffffffffffffff1681565b600154341161016757600080fd5b565b6000813590506101788161025a565b92915050565b60006020828403121561019457610193610255565b5b60006101a284828501610169565b91505092915050565b6101b4816101ff565b82525050565b6101c381610231565b82525050565b60006020820190506101de60008301846101ab565b92915050565b60006020820190506101f960008301846101ba565b92915050565b600061020a82610211565b9050919050565b600073ffffffffffffffffffffffffffffffffffffffff82169050919050565b600061023c82610243565b9050919050565b600061024e82610211565b9050919050565b600080fd5b610263816101ff565b811461026e57600080fd5b5056fea26469706673582212206e72f28ab960c57e11e0b249f7b0cb0904d0298ad494273b7580044678ef81d664736f6c63430008050033",
  "immutableReferences": {},
  "source": "pragma solidity ^0.8.0;\r\n\r\nimport \"@openzeppelin/contracts/token/ERC20/ERC20.sol\";\r\n\r\nimport \"@openzeppelin/contracts/utils/introspection/ERC165Checker.sol\";\r\n\r\nimport \"../core/Profiles.sol\";\r\n\r\nimport \"../core/Governed.sol\";\r\n\r\nimport \"../core/Proposal.sol\";\r\n\r\nimport \"../interfaces/IGoverned.sol\";\r\n\r\nimport \"../interfaces/IProposal.sol\";\r\n\r\n// Ratio DAO contract to distribute governance tokens to smart contracts.\r\ncontract Ratio is ERC20{\r\n\r\n    /*\r\n     * Core Contracts.\r\n     */\r\n\r\n    // Profiles of Ratio.\r\n    Profiles profiles;\r\n\r\n    /* \r\n     * Core Variables.\r\n     */\r\n    \r\n    // The current ratio governance epoch.\r\n    uint public epoch;\r\n\r\n    // The block which starts the current epoch.\r\n    uint public epochBlock;\r\n\r\n    // The number of blocks that make up an epoch.\r\n    uint public epochDuration;\r\n\r\n    // The amount of ether required to make a proposal.\r\n    uint public proposalCost;\r\n\r\n    // Thresholds to determine what allocations should have what approval threshold.\r\n    uint[] public allocationThresholds; \r\n\r\n    // Thresholds to determine amount of positive voting needed to pass the proposal. (positiveVoting = (aproveVotingPower - disaproveVotingPower) * divisionConstant / totalVotingPower)\r\n    uint[] public approvalThresholds;\r\n\r\n    // Thresholds to determine amount of negative voting needed to remove the proposal. Inverse of above.\r\n    uint[] public removalThresholds;\r\n\r\n    // Maximum allocation a contract can be given.\r\n    uint maxAllocation;\r\n\r\n    // Minimum allocation a contract can be given.\r\n    uint minAllocation;\r\n\r\n    /* \r\n     * Governed contract variables.\r\n     */\r\n\r\n    // mapping to determine if the address is governed\r\n    mapping(address => bool) public GovernedContracts;\r\n\r\n    // array of the governed contracts\r\n    address[] GovernedContractsArray;\r\n\r\n    mapping(string => address) public findGovernedContract;\r\n\r\n    // Proposal contract variables.\r\n    mapping(address => Proposal) public Proposals;\r\n\r\n    // Max int declaration for core governed contracts.    \r\n    uint256 MAX_INT = 2**256 - 1;\r\n\r\n    // Event emited when an aprove proposal is created.\r\n    event ApproveProposal(address _proposal);\r\n\r\n    // Event emited when a new epoch begins.\r\n    event Epoch(uint _epoch, uint _block);\r\n\r\n    modifier isGoverned{\r\n        require(GovernedContracts[msg.sender]||  msg.sender == address(profiles), \"Only a governed contract can call this function.\");\r\n        _;\r\n    }\r\n\r\n    constructor(uint[] memory _allocationThresholds, uint[] memory _approvalThresholds, uint[] memory _removalThresholds)ERC20(\"Ratio\", \"RATIO\"){\r\n        // Initialize Profiles contract.\r\n        profiles = new Profiles(address(this));\r\n\r\n        epoch = 0;\r\n        epochBlock = block.number;\r\n        epochDuration = 1_000_000_000;\r\n\r\n        allocationThresholds = _allocationThresholds;\r\n        approvalThresholds = _approvalThresholds;\r\n        removalThresholds = _removalThresholds;\r\n\r\n        maxAllocation = 1_000_000_000 * (10 ** 18);\r\n\r\n        proposalCost = 10 ** 17;\r\n    }\r\n\r\n    // Core Functions\r\n    function mint(address _reciever, uint _amount) isGoverned external {\r\n        // instantiate a the governed contract to \r\n        require(Governed(msg.sender).allocation() >= _amount, \"Contract not allocated enough to mint amount given.\");\r\n        require(Governed(msg.sender).duration() >= block.number);\r\n        Governed(msg.sender).setAllocation(Governed(msg.sender).allocation() - _amount);\r\n        _mint(_reciever, _amount);\r\n    }\r\n\r\n    function approveProposal(string memory _name, string memory _description, address[] memory _governed) public payable{\r\n        // Determine Proposal Requirements Pass\r\n        require(msg.value >= proposalCost, \"Insufficent proposal cost submitted.\");\r\n\r\n        uint maxApproval = 0;\r\n        // Loop to Set governance variables.\r\n        for(uint i = 0; i < _governed.length; i++){\r\n\r\n            require(GovernedContracts[_governed[i]] == false, \"Proposal contains an already governed contract.\");\r\n            require(ERC165Checker.supportsInterface(_governed[i], type(IGoverned).interfaceId));\r\n\r\n            Governed governed = Governed(_governed[i]);\r\n            require(address(governed.ratio()) == address(this), \"Ratio address is incorrect.\");\r\n            require(findGovernedContract[governed.name()] == address(0), \"Contract name taken.\");\r\n            require(governed.allocation() <= maxAllocation && governed.allocation() >= minAllocation, \"Governed contract allocation out of range.\");\r\n            require(governed.approval() == 0, \"Governed approval variable not zero.\");\r\n            require(governed.removal() == 0, \"Governed removal variable not zero.\");\r\n\r\n            \r\n            for(uint j = 0; j < allocationThresholds.length; j){\r\n                if(governed.allocation() <= allocationThresholds[j]){\r\n                    governed.setApproval(approvalThresholds[j]);\r\n                    governed.setRemoval(removalThresholds[j]);\r\n                    governed.setEpoch(epoch);\r\n                    maxApproval = maxApproval < allocationThresholds[j] ? allocationThresholds[j] : maxApproval;\r\n                    break;\r\n                }\r\n            }\r\n        }\r\n        \r\n        if(maxApproval == 0){\r\n            return;\r\n        }\r\n\r\n        Proposal proposal = new Proposal(address(this), epoch + 1, _name, _description, _governed);\r\n\r\n        emit ApproveProposal(address(proposal));\r\n    }\r\n    /*\r\n    function removeProposal(string memory _name, string memory _description, address[] memory _governed) public payable returns(address _proposal){\r\n        return address(0);\r\n    }\r\n\r\n    function executeProposal(address _proposal) public returns (bool _executed){\r\n        return false;\r\n    }\r\n    */\r\n\r\n    function incrementEpoch() public{\r\n        require(block.number >= (epochBlock + epochDuration));\r\n        epochBlock += epochDuration;\r\n        epoch++;\r\n        emit Epoch(epoch, epochBlock);\r\n    }\r\n\r\n\r\n    function vote(address _proposal) external {\r\n\r\n    }\r\n}",
  "sourcePath": "/home/stephenstb/Ratio-Labs/ratio-labsV0/contracts/old_contracts/Ratio.sol",
  "compiler": {
    "name": "solc",
    "version": "0.8.5+commit.a4f2e591.Emscripten.clang"
  },
  "schemaVersion": "3.3.3",
  "updatedAt": "2022-07-15T04:56:39.415Z",
  "devdoc": {
    "kind": "dev",
    "methods": {
      "allowance(address,address)": {
        "details": "See {IERC20-allowance}."
      },
      "approve(address,uint256)": {
        "details": "See {IERC20-approve}. NOTE: If `amount` is the maximum `uint256`, the allowance is not updated on `transferFrom`. This is semantically equivalent to an infinite approval. Requirements: - `spender` cannot be the zero address."
      },
      "balanceOf(address)": {
        "details": "See {IERC20-balanceOf}."
      },
      "decimals()": {
        "details": "Returns the number of decimals used to get its user representation. For example, if `decimals` equals `2`, a balance of `505` tokens should be displayed to a user as `5.05` (`505 / 10 ** 2`). Tokens usually opt for a value of 18, imitating the relationship between Ether and Wei. This is the value {ERC20} uses, unless this function is overridden; NOTE: This information is only used for _display_ purposes: it in no way affects any of the arithmetic of the contract, including {IERC20-balanceOf} and {IERC20-transfer}."
      },
      "decreaseAllowance(address,uint256)": {
        "details": "Atomically decreases the allowance granted to `spender` by the caller. This is an alternative to {approve} that can be used as a mitigation for problems described in {IERC20-approve}. Emits an {Approval} event indicating the updated allowance. Requirements: - `spender` cannot be the zero address. - `spender` must have allowance for the caller of at least `subtractedValue`."
      },
      "increaseAllowance(address,uint256)": {
        "details": "Atomically increases the allowance granted to `spender` by the caller. This is an alternative to {approve} that can be used as a mitigation for problems described in {IERC20-approve}. Emits an {Approval} event indicating the updated allowance. Requirements: - `spender` cannot be the zero address."
      },
      "name()": {
        "details": "Returns the name of the token."
      },
      "symbol()": {
        "details": "Returns the symbol of the token, usually a shorter version of the name."
      },
      "totalSupply()": {
        "details": "See {IERC20-totalSupply}."
      },
      "transfer(address,uint256)": {
        "details": "See {IERC20-transfer}. Requirements: - `to` cannot be the zero address. - the caller must have a balance of at least `amount`."
      },
      "transferFrom(address,address,uint256)": {
        "details": "See {IERC20-transferFrom}. Emits an {Approval} event indicating the updated allowance. This is not required by the EIP. See the note at the beginning of {ERC20}. NOTE: Does not update the allowance if the current allowance is the maximum `uint256`. Requirements: - `from` and `to` cannot be the zero address. - `from` must have a balance of at least `amount`. - the caller must have allowance for ``from``'s tokens of at least `amount`."
      }
    },
    "version": 1
  },
  "userdoc": {
    "kind": "user",
    "methods": {},
    "version": 1
  }
}