{
  "contractName": "RatioNFT",
  "abi": [
    {
      "inputs": [
        {
          "internalType": "string",
          "name": "_name",
          "type": "string"
        },
        {
          "internalType": "string",
          "name": "_symbol",
          "type": "string"
        },
        {
          "internalType": "uint256",
          "name": "_supply",
          "type": "uint256"
        },
        {
          "internalType": "uint256",
          "name": "_mintValue",
          "type": "uint256"
        }
      ],
      "stateMutability": "payable",
      "type": "constructor"
    },
    {
      "anonymous": false,
      "inputs": [
        {
          "indexed": true,
          "internalType": "address",
          "name": "owner",
          "type": "address"
        },
        {
          "indexed": true,
          "internalType": "address",
          "name": "approved",
          "type": "address"
        },
        {
          "indexed": true,
          "internalType": "uint256",
          "name": "tokenId",
          "type": "uint256"
        }
      ],
      "name": "Approval",
      "type": "event"
    },
    {
      "anonymous": false,
      "inputs": [
        {
          "indexed": true,
          "internalType": "address",
          "name": "owner",
          "type": "address"
        },
        {
          "indexed": true,
          "internalType": "address",
          "name": "operator",
          "type": "address"
        },
        {
          "indexed": false,
          "internalType": "bool",
          "name": "approved",
          "type": "bool"
        }
      ],
      "name": "ApprovalForAll",
      "type": "event"
    },
    {
      "anonymous": false,
      "inputs": [
        {
          "indexed": true,
          "internalType": "address",
          "name": "previousOwner",
          "type": "address"
        },
        {
          "indexed": true,
          "internalType": "address",
          "name": "newOwner",
          "type": "address"
        }
      ],
      "name": "OwnershipTransferred",
      "type": "event"
    },
    {
      "anonymous": false,
      "inputs": [
        {
          "indexed": true,
          "internalType": "address",
          "name": "from",
          "type": "address"
        },
        {
          "indexed": true,
          "internalType": "address",
          "name": "to",
          "type": "address"
        },
        {
          "indexed": true,
          "internalType": "uint256",
          "name": "tokenId",
          "type": "uint256"
        }
      ],
      "name": "Transfer",
      "type": "event"
    },
    {
      "inputs": [
        {
          "internalType": "address",
          "name": "to",
          "type": "address"
        },
        {
          "internalType": "uint256",
          "name": "tokenId",
          "type": "uint256"
        }
      ],
      "name": "approve",
      "outputs": [],
      "stateMutability": "nonpayable",
      "type": "function"
    },
    {
      "inputs": [
        {
          "internalType": "address",
          "name": "owner",
          "type": "address"
        }
      ],
      "name": "balanceOf",
      "outputs": [
        {
          "internalType": "uint256",
          "name": "",
          "type": "uint256"
        }
      ],
      "stateMutability": "view",
      "type": "function"
    },
    {
      "inputs": [],
      "name": "baseURI",
      "outputs": [
        {
          "internalType": "string",
          "name": "",
          "type": "string"
        }
      ],
      "stateMutability": "view",
      "type": "function"
    },
    {
      "inputs": [
        {
          "internalType": "uint256",
          "name": "tokenId",
          "type": "uint256"
        }
      ],
      "name": "getApproved",
      "outputs": [
        {
          "internalType": "address",
          "name": "",
          "type": "address"
        }
      ],
      "stateMutability": "view",
      "type": "function"
    },
    {
      "inputs": [
        {
          "internalType": "address",
          "name": "owner",
          "type": "address"
        },
        {
          "internalType": "address",
          "name": "operator",
          "type": "address"
        }
      ],
      "name": "isApprovedForAll",
      "outputs": [
        {
          "internalType": "bool",
          "name": "",
          "type": "bool"
        }
      ],
      "stateMutability": "view",
      "type": "function"
    },
    {
      "inputs": [],
      "name": "name",
      "outputs": [
        {
          "internalType": "string",
          "name": "",
          "type": "string"
        }
      ],
      "stateMutability": "view",
      "type": "function"
    },
    {
      "inputs": [],
      "name": "owner",
      "outputs": [
        {
          "internalType": "address",
          "name": "",
          "type": "address"
        }
      ],
      "stateMutability": "view",
      "type": "function"
    },
    {
      "inputs": [
        {
          "internalType": "uint256",
          "name": "tokenId",
          "type": "uint256"
        }
      ],
      "name": "ownerOf",
      "outputs": [
        {
          "internalType": "address",
          "name": "",
          "type": "address"
        }
      ],
      "stateMutability": "view",
      "type": "function"
    },
    {
      "inputs": [],
      "name": "renounceOwnership",
      "outputs": [],
      "stateMutability": "nonpayable",
      "type": "function"
    },
    {
      "inputs": [
        {
          "internalType": "address",
          "name": "from",
          "type": "address"
        },
        {
          "internalType": "address",
          "name": "to",
          "type": "address"
        },
        {
          "internalType": "uint256",
          "name": "tokenId",
          "type": "uint256"
        }
      ],
      "name": "safeTransferFrom",
      "outputs": [],
      "stateMutability": "nonpayable",
      "type": "function"
    },
    {
      "inputs": [
        {
          "internalType": "address",
          "name": "from",
          "type": "address"
        },
        {
          "internalType": "address",
          "name": "to",
          "type": "address"
        },
        {
          "internalType": "uint256",
          "name": "tokenId",
          "type": "uint256"
        },
        {
          "internalType": "bytes",
          "name": "_data",
          "type": "bytes"
        }
      ],
      "name": "safeTransferFrom",
      "outputs": [],
      "stateMutability": "nonpayable",
      "type": "function"
    },
    {
      "inputs": [
        {
          "internalType": "address",
          "name": "operator",
          "type": "address"
        },
        {
          "internalType": "bool",
          "name": "approved",
          "type": "bool"
        }
      ],
      "name": "setApprovalForAll",
      "outputs": [],
      "stateMutability": "nonpayable",
      "type": "function"
    },
    {
      "inputs": [
        {
          "internalType": "uint256",
          "name": "",
          "type": "uint256"
        }
      ],
      "name": "subURI",
      "outputs": [
        {
          "internalType": "string",
          "name": "",
          "type": "string"
        }
      ],
      "stateMutability": "view",
      "type": "function"
    },
    {
      "inputs": [
        {
          "internalType": "bytes4",
          "name": "interfaceId",
          "type": "bytes4"
        }
      ],
      "name": "supportsInterface",
      "outputs": [
        {
          "internalType": "bool",
          "name": "",
          "type": "bool"
        }
      ],
      "stateMutability": "view",
      "type": "function"
    },
    {
      "inputs": [],
      "name": "symbol",
      "outputs": [
        {
          "internalType": "string",
          "name": "",
          "type": "string"
        }
      ],
      "stateMutability": "view",
      "type": "function"
    },
    {
      "inputs": [
        {
          "internalType": "uint256",
          "name": "index",
          "type": "uint256"
        }
      ],
      "name": "tokenByIndex",
      "outputs": [
        {
          "internalType": "uint256",
          "name": "",
          "type": "uint256"
        }
      ],
      "stateMutability": "view",
      "type": "function"
    },
    {
      "inputs": [
        {
          "internalType": "address",
          "name": "owner",
          "type": "address"
        },
        {
          "internalType": "uint256",
          "name": "index",
          "type": "uint256"
        }
      ],
      "name": "tokenOfOwnerByIndex",
      "outputs": [
        {
          "internalType": "uint256",
          "name": "",
          "type": "uint256"
        }
      ],
      "stateMutability": "view",
      "type": "function"
    },
    {
      "inputs": [
        {
          "internalType": "uint256",
          "name": "tokenId",
          "type": "uint256"
        }
      ],
      "name": "tokenURI",
      "outputs": [
        {
          "internalType": "string",
          "name": "",
          "type": "string"
        }
      ],
      "stateMutability": "view",
      "type": "function"
    },
    {
      "inputs": [],
      "name": "totalSupply",
      "outputs": [
        {
          "internalType": "uint256",
          "name": "",
          "type": "uint256"
        }
      ],
      "stateMutability": "view",
      "type": "function"
    },
    {
      "inputs": [
        {
          "internalType": "address",
          "name": "from",
          "type": "address"
        },
        {
          "internalType": "address",
          "name": "to",
          "type": "address"
        },
        {
          "internalType": "uint256",
          "name": "tokenId",
          "type": "uint256"
        }
      ],
      "name": "transferFrom",
      "outputs": [],
      "stateMutability": "nonpayable",
      "type": "function"
    },
    {
      "inputs": [
        {
          "internalType": "address",
          "name": "newOwner",
          "type": "address"
        }
      ],
      "name": "transferOwnership",
      "outputs": [],
      "stateMutability": "nonpayable",
      "type": "function"
    },
    {
      "inputs": [
        {
          "internalType": "string",
          "name": "_uri",
          "type": "string"
        },
        {
          "internalType": "bool",
          "name": "_ratioProtocol",
          "type": "bool"
        },
        {
          "internalType": "address",
          "name": "_protocolAddress",
          "type": "address"
        }
      ],
      "name": "setBaseURI",
      "outputs": [],
      "stateMutability": "payable",
      "type": "function"
    },
    {
      "inputs": [
        {
          "internalType": "address",
          "name": "_receiver",
          "type": "address"
        }
      ],
      "name": "mint",
      "outputs": [
        {
          "internalType": "uint256",
          "name": "_id",
          "type": "uint256"
        }
      ],
      "stateMutability": "payable",
      "type": "function"
    }
  ],
  "bytecode": "0x608060405260405162003f7b38038062003f7b8339818101604052810190620000299190620002aa565b838381600090805190602001906200004392919062000165565b5080600190805190602001906200005c92919062000165565b5050506200007f620000736200009760201b60201c565b6200009f60201b60201c565b81600d8190555080600e819055505050505062000502565b600033905090565b6000600a60009054906101000a900473ffffffffffffffffffffffffffffffffffffffff16905081600a60006101000a81548173ffffffffffffffffffffffffffffffffffffffff021916908373ffffffffffffffffffffffffffffffffffffffff1602179055508173ffffffffffffffffffffffffffffffffffffffff168173ffffffffffffffffffffffffffffffffffffffff167f8be0079c531659141344cd1fd0a4f28419497f9722a3daafe3b4186f6b6457e060405160405180910390a35050565b8280546200017390620003f9565b90600052602060002090601f016020900481019282620001975760008555620001e3565b82601f10620001b257805160ff1916838001178555620001e3565b82800160010185558215620001e3579182015b82811115620001e2578251825591602001919060010190620001c5565b5b509050620001f29190620001f6565b5090565b5b8082111562000211576000816000905550600101620001f7565b5090565b60006200022c620002268462000383565b6200035a565b9050828152602081018484840111156200024b576200024a620004c8565b5b62000258848285620003c3565b509392505050565b600082601f830112620002785762000277620004c3565b5b81516200028a84826020860162000215565b91505092915050565b600081519050620002a481620004e8565b92915050565b60008060008060808587031215620002c757620002c6620004d2565b5b600085015167ffffffffffffffff811115620002e857620002e7620004cd565b5b620002f68782880162000260565b945050602085015167ffffffffffffffff8111156200031a5762000319620004cd565b5b620003288782880162000260565b93505060406200033b8782880162000293565b92505060606200034e8782880162000293565b91505092959194509250565b60006200036662000379565b90506200037482826200042f565b919050565b6000604051905090565b600067ffffffffffffffff821115620003a157620003a062000494565b5b620003ac82620004d7565b9050602081019050919050565b6000819050919050565b60005b83811015620003e3578082015181840152602081019050620003c6565b83811115620003f3576000848401525b50505050565b600060028204905060018216806200041257607f821691505b6020821081141562000429576200042862000465565b5b50919050565b6200043a82620004d7565b810181811067ffffffffffffffff821117156200045c576200045b62000494565b5b80604052505050565b7f4e487b7100000000000000000000000000000000000000000000000000000000600052602260045260246000fd5b7f4e487b7100000000000000000000000000000000000000000000000000000000600052604160045260246000fd5b600080fd5b600080fd5b600080fd5b600080fd5b6000601f19601f8301169050919050565b620004f381620003b9565b8114620004ff57600080fd5b50565b613a6980620005126000396000f3fe6080604052600436106101405760003560e01c80636a627842116100b6578063a22cb4651161006f578063a22cb46514610489578063b88d4fde146104b2578063c87b56dd146104db578063d52b1f5314610518578063e985e9c514610534578063f2fde38b1461057157610140565b80636a627842146103845780636c0360eb146103b457806370a08231146103df578063715018a61461041c5780638da5cb5b1461043357806395d89b411461045e57610140565b806323b872dd1161010857806323b872dd1461023e5780632c105e55146102675780632f745c59146102a457806342842e0e146102e15780634f6ccce71461030a5780636352211e1461034757610140565b806301ffc9a71461014557806306fdde0314610182578063081812fc146101ad578063095ea7b3146101ea57806318160ddd14610213575b600080fd5b34801561015157600080fd5b5061016c60048036038101906101679190612853565b61059a565b6040516101799190612d60565b60405180910390f35b34801561018e57600080fd5b50610197610614565b6040516101a49190612d7b565b60405180910390f35b3480156101b957600080fd5b506101d460048036038101906101cf919061291c565b6106a6565b6040516101e19190612cf9565b60405180910390f35b3480156101f657600080fd5b50610211600480360381019061020c9190612813565b61072b565b005b34801561021f57600080fd5b50610228610843565b604051610235919061301d565b60405180910390f35b34801561024a57600080fd5b50610265600480360381019061026091906126fd565b610850565b005b34801561027357600080fd5b5061028e6004803603810190610289919061291c565b6108b0565b60405161029b9190612d7b565b60405180910390f35b3480156102b057600080fd5b506102cb60048036038101906102c69190612813565b61095c565b6040516102d8919061301d565b60405180910390f35b3480156102ed57600080fd5b50610308600480360381019061030391906126fd565b610a01565b005b34801561031657600080fd5b50610331600480360381019061032c919061291c565b610a21565b60405161033e919061301d565b60405180910390f35b34801561035357600080fd5b5061036e6004803603810190610369919061291c565b610a92565b60405161037b9190612cf9565b60405180910390f35b61039e60048036038101906103999190612690565b610b44565b6040516103ab919061301d565b60405180910390f35b3480156103c057600080fd5b506103c9610bfd565b6040516103d69190612d7b565b60405180910390f35b3480156103eb57600080fd5b5061040660048036038101906104019190612690565b610c8b565b604051610413919061301d565b60405180910390f35b34801561042857600080fd5b50610431610d43565b005b34801561043f57600080fd5b50610448610dcb565b6040516104559190612cf9565b60405180910390f35b34801561046a57600080fd5b50610473610df5565b6040516104809190612d7b565b60405180910390f35b34801561049557600080fd5b506104b060048036038101906104ab91906127d3565b610e87565b005b3480156104be57600080fd5b506104d960048036038101906104d49190612750565b611008565b005b3480156104e757600080fd5b5061050260048036038101906104fd919061291c565b61106a565b60405161050f9190612d7b565b60405180910390f35b610532600480360381019061052d91906128ad565b611111565b005b34801561054057600080fd5b5061055b600480360381019061055691906126bd565b61121c565b6040516105689190612d60565b60405180910390f35b34801561057d57600080fd5b5061059860048036038101906105939190612690565b6112b0565b005b60007f780e9d63000000000000000000000000000000000000000000000000000000007bffffffffffffffffffffffffffffffffffffffffffffffffffffffff1916827bffffffffffffffffffffffffffffffffffffffffffffffffffffffff1916148061060d575061060c826113a8565b5b9050919050565b60606000805461062390613273565b80601f016020809104026020016040519081016040528092919081815260200182805461064f90613273565b801561069c5780601f106106715761010080835404028352916020019161069c565b820191906000526020600020905b81548152906001019060200180831161067f57829003601f168201915b5050505050905090565b60006106b18261148a565b6106f0576040517f08c379a00000000000000000000000000000000000000000000000000000000081526004016106e790612efd565b60405180910390fd5b6004600083815260200190815260200160002060009054906101000a900473ffffffffffffffffffffffffffffffffffffffff169050919050565b600061073682610a92565b90508073ffffffffffffffffffffffffffffffffffffffff168373ffffffffffffffffffffffffffffffffffffffff1614156107a7576040517f08c379a000000000000000000000000000000000000000000000000000000000815260040161079e90612f9d565b60405180910390fd5b8073ffffffffffffffffffffffffffffffffffffffff166107c66114f6565b73ffffffffffffffffffffffffffffffffffffffff1614806107f557506107f4816107ef6114f6565b61121c565b5b610834576040517f08c379a000000000000000000000000000000000000000000000000000000000815260040161082b90612e7d565b60405180910390fd5b61083e83836114fe565b505050565b6000600880549050905090565b61086161085b6114f6565b826115b7565b6108a0576040517f08c379a000000000000000000000000000000000000000000000000000000000815260040161089790612fdd565b60405180910390fd5b6108ab838383611695565b505050565b600c81815481106108c057600080fd5b9060005260206000200160009150905080546108db90613273565b80601f016020809104026020016040519081016040528092919081815260200182805461090790613273565b80156109545780601f1061092957610100808354040283529160200191610954565b820191906000526020600020905b81548152906001019060200180831161093757829003601f168201915b505050505081565b600061096783610c8b565b82106109a8576040517f08c379a000000000000000000000000000000000000000000000000000000000815260040161099f90612d9d565b60405180910390fd5b600660008473ffffffffffffffffffffffffffffffffffffffff1673ffffffffffffffffffffffffffffffffffffffff168152602001908152602001600020600083815260200190815260200160002054905092915050565b610a1c83838360405180602001604052806000815250611008565b505050565b6000610a2b610843565b8210610a6c576040517f08c379a0000000000000000000000000000000000000000000000000000000008152600401610a6390612ffd565b60405180910390fd5b60088281548110610a8057610a7f61340c565b5b90600052602060002001549050919050565b6000806002600084815260200190815260200160002060009054906101000a900473ffffffffffffffffffffffffffffffffffffffff169050600073ffffffffffffffffffffffffffffffffffffffff168173ffffffffffffffffffffffffffffffffffffffff161415610b3b576040517f08c379a0000000000000000000000000000000000000000000000000000000008152600401610b3290612ebd565b60405180910390fd5b80915050919050565b6000600e54341015610b8b576040517f08c379a0000000000000000000000000000000000000000000000000000000008152600401610b8290612fbd565b60405180910390fd5b600d54610b98600f6118f1565b10610bd8576040517f08c379a0000000000000000000000000000000000000000000000000000000008152600401610bcf90612f3d565b60405180910390fd5b610be2600f6118ff565b610bec600f6118f1565b9050610bf88282611915565b919050565b600b8054610c0a90613273565b80601f0160208091040260200160405190810160405280929190818152602001828054610c3690613273565b8015610c835780601f10610c5857610100808354040283529160200191610c83565b820191906000526020600020905b815481529060010190602001808311610c6657829003601f168201915b505050505081565b60008073ffffffffffffffffffffffffffffffffffffffff168273ffffffffffffffffffffffffffffffffffffffff161415610cfc576040517f08c379a0000000000000000000000000000000000000000000000000000000008152600401610cf390612e9d565b60405180910390fd5b600360008373ffffffffffffffffffffffffffffffffffffffff1673ffffffffffffffffffffffffffffffffffffffff168152602001908152602001600020549050919050565b610d4b6114f6565b73ffffffffffffffffffffffffffffffffffffffff16610d69610dcb565b73ffffffffffffffffffffffffffffffffffffffff1614610dbf576040517f08c379a0000000000000000000000000000000000000000000000000000000008152600401610db690612f1d565b60405180910390fd5b610dc96000611933565b565b6000600a60009054906101000a900473ffffffffffffffffffffffffffffffffffffffff16905090565b606060018054610e0490613273565b80601f0160208091040260200160405190810160405280929190818152602001828054610e3090613273565b8015610e7d5780601f10610e5257610100808354040283529160200191610e7d565b820191906000526020600020905b815481529060010190602001808311610e6057829003601f168201915b5050505050905090565b610e8f6114f6565b73ffffffffffffffffffffffffffffffffffffffff168273ffffffffffffffffffffffffffffffffffffffff161415610efd576040517f08c379a0000000000000000000000000000000000000000000000000000000008152600401610ef490612e3d565b60405180910390fd5b8060056000610f0a6114f6565b73ffffffffffffffffffffffffffffffffffffffff1673ffffffffffffffffffffffffffffffffffffffff16815260200190815260200160002060008473ffffffffffffffffffffffffffffffffffffffff1673ffffffffffffffffffffffffffffffffffffffff16815260200190815260200160002060006101000a81548160ff0219169083151502179055508173ffffffffffffffffffffffffffffffffffffffff16610fb76114f6565b73ffffffffffffffffffffffffffffffffffffffff167f17307eab39ab6107e8899845ad3d59bd9653f200f220920489ca2b5937696c3183604051610ffc9190612d60565b60405180910390a35050565b6110196110136114f6565b836115b7565b611058576040517f08c379a000000000000000000000000000000000000000000000000000000000815260040161104f90612fdd565b60405180910390fd5b611064848484846119f9565b50505050565b60606110758261148a565b6110b4576040517f08c379a00000000000000000000000000000000000000000000000000000000081526004016110ab90612f7d565b60405180910390fd5b60006110be611a55565b905060008151116110de5760405180602001604052806000815250611109565b806110e884611ae7565b6040516020016110f9929190612cd5565b6040516020818303038152906040525b915050919050565b6111196114f6565b73ffffffffffffffffffffffffffffffffffffffff16611137610dcb565b73ffffffffffffffffffffffffffffffffffffffff161461118d576040517f08c379a000000000000000000000000000000000000000000000000000000000815260040161118490612f1d565b60405180910390fd5b82600b90805190602001906111a39291906124a4565b508115611217578073ffffffffffffffffffffffffffffffffffffffff16636cbff42a34856040518363ffffffff1660e01b81526004016111e49190612d7b565b6000604051808303818588803b1580156111fd57600080fd5b505af1158015611211573d6000803e3d6000fd5b50505050505b505050565b6000600560008473ffffffffffffffffffffffffffffffffffffffff1673ffffffffffffffffffffffffffffffffffffffff16815260200190815260200160002060008373ffffffffffffffffffffffffffffffffffffffff1673ffffffffffffffffffffffffffffffffffffffff16815260200190815260200160002060009054906101000a900460ff16905092915050565b6112b86114f6565b73ffffffffffffffffffffffffffffffffffffffff166112d6610dcb565b73ffffffffffffffffffffffffffffffffffffffff161461132c576040517f08c379a000000000000000000000000000000000000000000000000000000000815260040161132390612f1d565b60405180910390fd5b600073ffffffffffffffffffffffffffffffffffffffff168173ffffffffffffffffffffffffffffffffffffffff16141561139c576040517f08c379a000000000000000000000000000000000000000000000000000000000815260040161139390612ddd565b60405180910390fd5b6113a581611933565b50565b60007f80ac58cd000000000000000000000000000000000000000000000000000000007bffffffffffffffffffffffffffffffffffffffffffffffffffffffff1916827bffffffffffffffffffffffffffffffffffffffffffffffffffffffff1916148061147357507f5b5e139f000000000000000000000000000000000000000000000000000000007bffffffffffffffffffffffffffffffffffffffffffffffffffffffff1916827bffffffffffffffffffffffffffffffffffffffffffffffffffffffff1916145b80611483575061148282611c48565b5b9050919050565b60008073ffffffffffffffffffffffffffffffffffffffff166002600084815260200190815260200160002060009054906101000a900473ffffffffffffffffffffffffffffffffffffffff1673ffffffffffffffffffffffffffffffffffffffff1614159050919050565b600033905090565b816004600083815260200190815260200160002060006101000a81548173ffffffffffffffffffffffffffffffffffffffff021916908373ffffffffffffffffffffffffffffffffffffffff160217905550808273ffffffffffffffffffffffffffffffffffffffff1661157183610a92565b73ffffffffffffffffffffffffffffffffffffffff167f8c5be1e5ebec7d5bd14f71427d1e84f3dd0314c0f7b2291e5b200ac8c7c3b92560405160405180910390a45050565b60006115c28261148a565b611601576040517f08c379a00000000000000000000000000000000000000000000000000000000081526004016115f890612e5d565b60405180910390fd5b600061160c83610a92565b90508073ffffffffffffffffffffffffffffffffffffffff168473ffffffffffffffffffffffffffffffffffffffff16148061167b57508373ffffffffffffffffffffffffffffffffffffffff16611663846106a6565b73ffffffffffffffffffffffffffffffffffffffff16145b8061168c575061168b818561121c565b5b91505092915050565b8273ffffffffffffffffffffffffffffffffffffffff166116b582610a92565b73ffffffffffffffffffffffffffffffffffffffff161461170b576040517f08c379a000000000000000000000000000000000000000000000000000000000815260040161170290612f5d565b60405180910390fd5b600073ffffffffffffffffffffffffffffffffffffffff168273ffffffffffffffffffffffffffffffffffffffff16141561177b576040517f08c379a000000000000000000000000000000000000000000000000000000000815260040161177290612e1d565b60405180910390fd5b611786838383611cb2565b6117916000826114fe565b6001600360008573ffffffffffffffffffffffffffffffffffffffff1673ffffffffffffffffffffffffffffffffffffffff16815260200190815260200160002060008282546117e19190613189565b925050819055506001600360008473ffffffffffffffffffffffffffffffffffffffff1673ffffffffffffffffffffffffffffffffffffffff16815260200190815260200160002060008282546118389190613102565b92505081905550816002600083815260200190815260200160002060006101000a81548173ffffffffffffffffffffffffffffffffffffffff021916908373ffffffffffffffffffffffffffffffffffffffff160217905550808273ffffffffffffffffffffffffffffffffffffffff168473ffffffffffffffffffffffffffffffffffffffff167fddf252ad1be2c89b69c2b068fc378daa952ba7f163c4a11628f55a4df523b3ef60405160405180910390a4505050565b600081600001549050919050565b6001816000016000828254019250508190555050565b61192f828260405180602001604052806000815250611dc6565b5050565b6000600a60009054906101000a900473ffffffffffffffffffffffffffffffffffffffff16905081600a60006101000a81548173ffffffffffffffffffffffffffffffffffffffff021916908373ffffffffffffffffffffffffffffffffffffffff1602179055508173ffffffffffffffffffffffffffffffffffffffff168173ffffffffffffffffffffffffffffffffffffffff167f8be0079c531659141344cd1fd0a4f28419497f9722a3daafe3b4186f6b6457e060405160405180910390a35050565b611a04848484611695565b611a1084848484611e21565b611a4f576040517f08c379a0000000000000000000000000000000000000000000000000000000008152600401611a4690612dbd565b60405180910390fd5b50505050565b6060600b8054611a6490613273565b80601f0160208091040260200160405190810160405280929190818152602001828054611a9090613273565b8015611add5780601f10611ab257610100808354040283529160200191611add565b820191906000526020600020905b815481529060010190602001808311611ac057829003601f168201915b5050505050905090565b60606000821415611b2f576040518060400160405280600181526020017f30000000000000000000000000000000000000000000000000000000000000008152509050611c43565b600082905060005b60008214611b61578080611b4a906132d6565b915050600a82611b5a9190613158565b9150611b37565b60008167ffffffffffffffff811115611b7d57611b7c61343b565b5b6040519080825280601f01601f191660200182016040528015611baf5781602001600182028036833780820191505090505b5090505b60008514611c3c57600182611bc89190613189565b9150600a85611bd7919061331f565b6030611be39190613102565b60f81b818381518110611bf957611bf861340c565b5b60200101907effffffffffffffffffffffffffffffffffffffffffffffffffffffffffffff1916908160001a905350600a85611c359190613158565b9450611bb3565b8093505050505b919050565b60007f01ffc9a7000000000000000000000000000000000000000000000000000000007bffffffffffffffffffffffffffffffffffffffffffffffffffffffff1916827bffffffffffffffffffffffffffffffffffffffffffffffffffffffff1916149050919050565b611cbd838383611fb8565b600073ffffffffffffffffffffffffffffffffffffffff168373ffffffffffffffffffffffffffffffffffffffff161415611d0057611cfb81611fbd565b611d3f565b8173ffffffffffffffffffffffffffffffffffffffff168373ffffffffffffffffffffffffffffffffffffffff1614611d3e57611d3d8382612006565b5b5b600073ffffffffffffffffffffffffffffffffffffffff168273ffffffffffffffffffffffffffffffffffffffff161415611d8257611d7d81612173565b611dc1565b8273ffffffffffffffffffffffffffffffffffffffff168273ffffffffffffffffffffffffffffffffffffffff1614611dc057611dbf8282612244565b5b5b505050565b611dd083836122c3565b611ddd6000848484611e21565b611e1c576040517f08c379a0000000000000000000000000000000000000000000000000000000008152600401611e1390612dbd565b60405180910390fd5b505050565b6000611e428473ffffffffffffffffffffffffffffffffffffffff16612491565b15611fab578373ffffffffffffffffffffffffffffffffffffffff1663150b7a02611e6b6114f6565b8786866040518563ffffffff1660e01b8152600401611e8d9493929190612d14565b602060405180830381600087803b158015611ea757600080fd5b505af1925050508015611ed857506040513d601f19601f82011682018060405250810190611ed59190612880565b60015b611f5b573d8060008114611f08576040519150601f19603f3d011682016040523d82523d6000602084013e611f0d565b606091505b50600081511415611f53576040517f08c379a0000000000000000000000000000000000000000000000000000000008152600401611f4a90612dbd565b60405180910390fd5b805181602001fd5b63150b7a0260e01b7bffffffffffffffffffffffffffffffffffffffffffffffffffffffff1916817bffffffffffffffffffffffffffffffffffffffffffffffffffffffff191614915050611fb0565b600190505b949350505050565b505050565b6008805490506009600083815260200190815260200160002081905550600881908060018154018082558091505060019003906000526020600020016000909190919091505550565b6000600161201384610c8b565b61201d9190613189565b9050600060076000848152602001908152602001600020549050818114612102576000600660008673ffffffffffffffffffffffffffffffffffffffff1673ffffffffffffffffffffffffffffffffffffffff168152602001908152602001600020600084815260200190815260200160002054905080600660008773ffffffffffffffffffffffffffffffffffffffff1673ffffffffffffffffffffffffffffffffffffffff168152602001908152602001600020600084815260200190815260200160002081905550816007600083815260200190815260200160002081905550505b6007600084815260200190815260200160002060009055600660008573ffffffffffffffffffffffffffffffffffffffff1673ffffffffffffffffffffffffffffffffffffffff16815260200190815260200160002060008381526020019081526020016000206000905550505050565b600060016008805490506121879190613189565b90506000600960008481526020019081526020016000205490506000600883815481106121b7576121b661340c565b5b9060005260206000200154905080600883815481106121d9576121d861340c565b5b906000526020600020018190555081600960008381526020019081526020016000208190555060096000858152602001908152602001600020600090556008805480612228576122276133dd565b5b6001900381819060005260206000200160009055905550505050565b600061224f83610c8b565b905081600660008573ffffffffffffffffffffffffffffffffffffffff1673ffffffffffffffffffffffffffffffffffffffff168152602001908152602001600020600083815260200190815260200160002081905550806007600084815260200190815260200160002081905550505050565b600073ffffffffffffffffffffffffffffffffffffffff168273ffffffffffffffffffffffffffffffffffffffff161415612333576040517f08c379a000000000000000000000000000000000000000000000000000000000815260040161232a90612edd565b60405180910390fd5b61233c8161148a565b1561237c576040517f08c379a000000000000000000000000000000000000000000000000000000000815260040161237390612dfd565b60405180910390fd5b61238860008383611cb2565b6001600360008473ffffffffffffffffffffffffffffffffffffffff1673ffffffffffffffffffffffffffffffffffffffff16815260200190815260200160002060008282546123d89190613102565b92505081905550816002600083815260200190815260200160002060006101000a81548173ffffffffffffffffffffffffffffffffffffffff021916908373ffffffffffffffffffffffffffffffffffffffff160217905550808273ffffffffffffffffffffffffffffffffffffffff16600073ffffffffffffffffffffffffffffffffffffffff167fddf252ad1be2c89b69c2b068fc378daa952ba7f163c4a11628f55a4df523b3ef60405160405180910390a45050565b600080823b905060008111915050919050565b8280546124b090613273565b90600052602060002090601f0160209004810192826124d25760008555612519565b82601f106124eb57805160ff1916838001178555612519565b82800160010185558215612519579182015b828111156125185782518255916020019190600101906124fd565b5b509050612526919061252a565b5090565b5b8082111561254357600081600090555060010161252b565b5090565b600061255a6125558461305d565b613038565b9050828152602081018484840111156125765761257561346f565b5b612581848285613231565b509392505050565b600061259c6125978461308e565b613038565b9050828152602081018484840111156125b8576125b761346f565b5b6125c3848285613231565b509392505050565b6000813590506125da816139d7565b92915050565b6000813590506125ef816139ee565b92915050565b60008135905061260481613a05565b92915050565b60008151905061261981613a05565b92915050565b600082601f8301126126345761263361346a565b5b8135612644848260208601612547565b91505092915050565b600082601f8301126126625761266161346a565b5b8135612672848260208601612589565b91505092915050565b60008135905061268a81613a1c565b92915050565b6000602082840312156126a6576126a5613479565b5b60006126b4848285016125cb565b91505092915050565b600080604083850312156126d4576126d3613479565b5b60006126e2858286016125cb565b92505060206126f3858286016125cb565b9150509250929050565b60008060006060848603121561271657612715613479565b5b6000612724868287016125cb565b9350506020612735868287016125cb565b92505060406127468682870161267b565b9150509250925092565b6000806000806080858703121561276a57612769613479565b5b6000612778878288016125cb565b9450506020612789878288016125cb565b935050604061279a8782880161267b565b925050606085013567ffffffffffffffff8111156127bb576127ba613474565b5b6127c78782880161261f565b91505092959194509250565b600080604083850312156127ea576127e9613479565b5b60006127f8858286016125cb565b9250506020612809858286016125e0565b9150509250929050565b6000806040838503121561282a57612829613479565b5b6000612838858286016125cb565b92505060206128498582860161267b565b9150509250929050565b60006020828403121561286957612868613479565b5b6000612877848285016125f5565b91505092915050565b60006020828403121561289657612895613479565b5b60006128a48482850161260a565b91505092915050565b6000806000606084860312156128c6576128c5613479565b5b600084013567ffffffffffffffff8111156128e4576128e3613474565b5b6128f08682870161264d565b9350506020612901868287016125e0565b9250506040612912868287016125cb565b9150509250925092565b60006020828403121561293257612931613479565b5b60006129408482850161267b565b91505092915050565b612952816131bd565b82525050565b612961816131cf565b82525050565b6000612972826130bf565b61297c81856130d5565b935061298c818560208601613240565b6129958161347e565b840191505092915050565b60006129ab826130ca565b6129b581856130e6565b93506129c5818560208601613240565b6129ce8161347e565b840191505092915050565b60006129e4826130ca565b6129ee81856130f7565b93506129fe818560208601613240565b80840191505092915050565b6000612a17602b836130e6565b9150612a228261348f565b604082019050919050565b6000612a3a6032836130e6565b9150612a45826134de565b604082019050919050565b6000612a5d6026836130e6565b9150612a688261352d565b604082019050919050565b6000612a80601c836130e6565b9150612a8b8261357c565b602082019050919050565b6000612aa36024836130e6565b9150612aae826135a5565b604082019050919050565b6000612ac66019836130e6565b9150612ad1826135f4565b602082019050919050565b6000612ae9602c836130e6565b9150612af48261361d565b604082019050919050565b6000612b0c6038836130e6565b9150612b178261366c565b604082019050919050565b6000612b2f602a836130e6565b9150612b3a826136bb565b604082019050919050565b6000612b526029836130e6565b9150612b5d8261370a565b604082019050919050565b6000612b756020836130e6565b9150612b8082613759565b602082019050919050565b6000612b98602c836130e6565b9150612ba382613782565b604082019050919050565b6000612bbb6020836130e6565b9150612bc6826137d1565b602082019050919050565b6000612bde6015836130e6565b9150612be9826137fa565b602082019050919050565b6000612c016029836130e6565b9150612c0c82613823565b604082019050919050565b6000612c24602f836130e6565b9150612c2f82613872565b604082019050919050565b6000612c476021836130e6565b9150612c52826138c1565b604082019050919050565b6000612c6a6019836130e6565b9150612c7582613910565b602082019050919050565b6000612c8d6031836130e6565b9150612c9882613939565b604082019050919050565b6000612cb0602c836130e6565b9150612cbb82613988565b604082019050919050565b612ccf81613227565b82525050565b6000612ce182856129d9565b9150612ced82846129d9565b91508190509392505050565b6000602082019050612d0e6000830184612949565b92915050565b6000608082019050612d296000830187612949565b612d366020830186612949565b612d436040830185612cc6565b8181036060830152612d558184612967565b905095945050505050565b6000602082019050612d756000830184612958565b92915050565b60006020820190508181036000830152612d9581846129a0565b905092915050565b60006020820190508181036000830152612db681612a0a565b9050919050565b60006020820190508181036000830152612dd681612a2d565b9050919050565b60006020820190508181036000830152612df681612a50565b9050919050565b60006020820190508181036000830152612e1681612a73565b9050919050565b60006020820190508181036000830152612e3681612a96565b9050919050565b60006020820190508181036000830152612e5681612ab9565b9050919050565b60006020820190508181036000830152612e7681612adc565b9050919050565b60006020820190508181036000830152612e9681612aff565b9050919050565b60006020820190508181036000830152612eb681612b22565b9050919050565b60006020820190508181036000830152612ed681612b45565b9050919050565b60006020820190508181036000830152612ef681612b68565b9050919050565b60006020820190508181036000830152612f1681612b8b565b9050919050565b60006020820190508181036000830152612f3681612bae565b9050919050565b60006020820190508181036000830152612f5681612bd1565b9050919050565b60006020820190508181036000830152612f7681612bf4565b9050919050565b60006020820190508181036000830152612f9681612c17565b9050919050565b60006020820190508181036000830152612fb681612c3a565b9050919050565b60006020820190508181036000830152612fd681612c5d565b9050919050565b60006020820190508181036000830152612ff681612c80565b9050919050565b6000602082019050818103600083015261301681612ca3565b9050919050565b60006020820190506130326000830184612cc6565b92915050565b6000613042613053565b905061304e82826132a5565b919050565b6000604051905090565b600067ffffffffffffffff8211156130785761307761343b565b5b6130818261347e565b9050602081019050919050565b600067ffffffffffffffff8211156130a9576130a861343b565b5b6130b28261347e565b9050602081019050919050565b600081519050919050565b600081519050919050565b600082825260208201905092915050565b600082825260208201905092915050565b600081905092915050565b600061310d82613227565b915061311883613227565b9250827fffffffffffffffffffffffffffffffffffffffffffffffffffffffffffffffff0382111561314d5761314c613350565b5b828201905092915050565b600061316382613227565b915061316e83613227565b92508261317e5761317d61337f565b5b828204905092915050565b600061319482613227565b915061319f83613227565b9250828210156131b2576131b1613350565b5b828203905092915050565b60006131c882613207565b9050919050565b60008115159050919050565b60007fffffffff0000000000000000000000000000000000000000000000000000000082169050919050565b600073ffffffffffffffffffffffffffffffffffffffff82169050919050565b6000819050919050565b82818337600083830152505050565b60005b8381101561325e578082015181840152602081019050613243565b8381111561326d576000848401525b50505050565b6000600282049050600182168061328b57607f821691505b6020821081141561329f5761329e6133ae565b5b50919050565b6132ae8261347e565b810181811067ffffffffffffffff821117156132cd576132cc61343b565b5b80604052505050565b60006132e182613227565b91507fffffffffffffffffffffffffffffffffffffffffffffffffffffffffffffffff82141561331457613313613350565b5b600182019050919050565b600061332a82613227565b915061333583613227565b9250826133455761334461337f565b5b828206905092915050565b7f4e487b7100000000000000000000000000000000000000000000000000000000600052601160045260246000fd5b7f4e487b7100000000000000000000000000000000000000000000000000000000600052601260045260246000fd5b7f4e487b7100000000000000000000000000000000000000000000000000000000600052602260045260246000fd5b7f4e487b7100000000000000000000000000000000000000000000000000000000600052603160045260246000fd5b7f4e487b7100000000000000000000000000000000000000000000000000000000600052603260045260246000fd5b7f4e487b7100000000000000000000000000000000000000000000000000000000600052604160045260246000fd5b600080fd5b600080fd5b600080fd5b600080fd5b6000601f19601f8301169050919050565b7f455243373231456e756d657261626c653a206f776e657220696e646578206f7560008201527f74206f6620626f756e6473000000000000000000000000000000000000000000602082015250565b7f4552433732313a207472616e7366657220746f206e6f6e20455243373231526560008201527f63656976657220696d706c656d656e7465720000000000000000000000000000602082015250565b7f4f776e61626c653a206e6577206f776e657220697320746865207a65726f206160008201527f6464726573730000000000000000000000000000000000000000000000000000602082015250565b7f4552433732313a20746f6b656e20616c7265616479206d696e74656400000000600082015250565b7f4552433732313a207472616e7366657220746f20746865207a65726f2061646460008201527f7265737300000000000000000000000000000000000000000000000000000000602082015250565b7f4552433732313a20617070726f766520746f2063616c6c657200000000000000600082015250565b7f4552433732313a206f70657261746f7220717565727920666f72206e6f6e657860008201527f697374656e7420746f6b656e0000000000000000000000000000000000000000602082015250565b7f4552433732313a20617070726f76652063616c6c6572206973206e6f74206f7760008201527f6e6572206e6f7220617070726f76656420666f7220616c6c0000000000000000602082015250565b7f4552433732313a2062616c616e636520717565727920666f7220746865207a6560008201527f726f206164647265737300000000000000000000000000000000000000000000602082015250565b7f4552433732313a206f776e657220717565727920666f72206e6f6e657869737460008201527f656e7420746f6b656e0000000000000000000000000000000000000000000000602082015250565b7f4552433732313a206d696e7420746f20746865207a65726f2061646472657373600082015250565b7f4552433732313a20617070726f76656420717565727920666f72206e6f6e657860008201527f697374656e7420746f6b656e0000000000000000000000000000000000000000602082015250565b7f4f776e61626c653a2063616c6c6572206973206e6f7420746865206f776e6572600082015250565b7f4d696e74696e67206861732066696e69736865642e0000000000000000000000600082015250565b7f4552433732313a207472616e73666572206f6620746f6b656e2074686174206960008201527f73206e6f74206f776e0000000000000000000000000000000000000000000000602082015250565b7f4552433732314d657461646174613a2055524920717565727920666f72206e6f60008201527f6e6578697374656e7420746f6b656e0000000000000000000000000000000000602082015250565b7f4552433732313a20617070726f76616c20746f2063757272656e74206f776e6560008201527f7200000000000000000000000000000000000000000000000000000000000000602082015250565b7f496e76616c6964206d696e742076616c756520676976656e2e00000000000000600082015250565b7f4552433732313a207472616e736665722063616c6c6572206973206e6f74206f60008201527f776e6572206e6f7220617070726f766564000000000000000000000000000000602082015250565b7f455243373231456e756d657261626c653a20676c6f62616c20696e646578206f60008201527f7574206f6620626f756e64730000000000000000000000000000000000000000602082015250565b6139e0816131bd565b81146139eb57600080fd5b50565b6139f7816131cf565b8114613a0257600080fd5b50565b613a0e816131db565b8114613a1957600080fd5b50565b613a2581613227565b8114613a3057600080fd5b5056fea26469706673582212205ccc9d31ff917b5dbc5f307c9e0bbb82b23727122ad27db94f1c1f033e5bbf4b64736f6c63430008050033",
  "immutableReferences": {},
  "source": "// SPDX-License-Identifier: BUSL-1.1\npragma solidity ^0.8.2;\n\nimport \"@openzeppelin/contracts/token/ERC721/extensions/ERC721Enumerable.sol\";\n\nimport \"@openzeppelin/contracts/access/Ownable.sol\";\n\nimport \"@openzeppelin/contracts/utils/Counters.sol\";\n\nimport \"./ProtocolNFT.sol\";\n\ncontract RatioNFT is ERC721Enumerable, Ownable{\n\n    using Counters for Counters.Counter;\n\n    string public baseURI;\n\n    string[] public subURI;\n\n    uint maxSupply;\n\n    uint mintValue;\n\n    Counters.Counter private tokenIds;\n\n    constructor(string memory _name, string memory _symbol, uint _supply, uint _mintValue)payable ERC721(_name, _symbol){\n        maxSupply = _supply;\n        mintValue = _mintValue;\n    }\n\n    function setBaseURI(string memory _uri, bool _ratioProtocol, address _protocolAddress)public  payable onlyOwner{\n        baseURI = _uri;\n        if(_ratioProtocol){\n            ProtocolNFT(_protocolAddress).requestVerification{value: msg.value}(_uri);\n        }\n    }\n\n    function _baseURI() internal override view returns (string memory){\n         return baseURI;\n     }\n\n    function mint(address _receiver) public payable returns(uint _id){\n        require(msg.value >= mintValue, \"Invalid mint value given.\");\n        require(tokenIds.current() < maxSupply, \"Minting has finished.\");\n        tokenIds.increment();\n        _id = tokenIds.current();\n        _safeMint(_receiver, _id);\n    }\n}\n\n",
  "sourcePath": "/home/stephenstb/Ratio/ratio/contracts/nft/RatioNFT.sol",
  "compiler": {
    "name": "solc",
    "version": "0.8.5+commit.a4f2e591.Emscripten.clang"
  },
  "schemaVersion": "3.4.3",
  "updatedAt": "2022-03-27T03:30:54.637Z",
  "devdoc": {
    "kind": "dev",
    "methods": {
      "approve(address,uint256)": {
        "details": "See {IERC721-approve}."
      },
      "balanceOf(address)": {
        "details": "See {IERC721-balanceOf}."
      },
      "getApproved(uint256)": {
        "details": "See {IERC721-getApproved}."
      },
      "isApprovedForAll(address,address)": {
        "details": "See {IERC721-isApprovedForAll}."
      },
      "name()": {
        "details": "See {IERC721Metadata-name}."
      },
      "owner()": {
        "details": "Returns the address of the current owner."
      },
      "ownerOf(uint256)": {
        "details": "See {IERC721-ownerOf}."
      },
      "renounceOwnership()": {
        "details": "Leaves the contract without owner. It will not be possible to call `onlyOwner` functions anymore. Can only be called by the current owner. NOTE: Renouncing ownership will leave the contract without an owner, thereby removing any functionality that is only available to the owner."
      },
      "safeTransferFrom(address,address,uint256)": {
        "details": "See {IERC721-safeTransferFrom}."
      },
      "safeTransferFrom(address,address,uint256,bytes)": {
        "details": "See {IERC721-safeTransferFrom}."
      },
      "setApprovalForAll(address,bool)": {
        "details": "See {IERC721-setApprovalForAll}."
      },
      "supportsInterface(bytes4)": {
        "details": "See {IERC165-supportsInterface}."
      },
      "symbol()": {
        "details": "See {IERC721Metadata-symbol}."
      },
      "tokenByIndex(uint256)": {
        "details": "See {IERC721Enumerable-tokenByIndex}."
      },
      "tokenOfOwnerByIndex(address,uint256)": {
        "details": "See {IERC721Enumerable-tokenOfOwnerByIndex}."
      },
      "tokenURI(uint256)": {
        "details": "See {IERC721Metadata-tokenURI}."
      },
      "totalSupply()": {
        "details": "See {IERC721Enumerable-totalSupply}."
      },
      "transferFrom(address,address,uint256)": {
        "details": "See {IERC721-transferFrom}."
      },
      "transferOwnership(address)": {
        "details": "Transfers ownership of the contract to a new account (`newOwner`). Can only be called by the current owner."
      }
    },
    "version": 1
  },
  "userdoc": {
    "kind": "user",
    "methods": {},
    "version": 1
  }
}