{
  "contractName": "RatioSingleNFT",
  "abi": [
    {
      "inputs": [
        {
          "internalType": "string",
          "name": "_name",
          "type": "string"
        },
        {
          "internalType": "string",
          "name": "_symbol",
          "type": "string"
        },
        {
          "internalType": "uint256",
          "name": "_supply",
          "type": "uint256"
        },
        {
          "internalType": "uint256",
          "name": "_mintValue",
          "type": "uint256"
        },
        {
          "internalType": "uint256",
          "name": "_claimValue",
          "type": "uint256"
        },
        {
          "internalType": "bool",
          "name": "_burnable",
          "type": "bool"
        }
      ],
      "stateMutability": "payable",
      "type": "constructor"
    },
    {
      "anonymous": false,
      "inputs": [
        {
          "indexed": true,
          "internalType": "address",
          "name": "owner",
          "type": "address"
        },
        {
          "indexed": true,
          "internalType": "address",
          "name": "approved",
          "type": "address"
        },
        {
          "indexed": true,
          "internalType": "uint256",
          "name": "tokenId",
          "type": "uint256"
        }
      ],
      "name": "Approval",
      "type": "event"
    },
    {
      "anonymous": false,
      "inputs": [
        {
          "indexed": true,
          "internalType": "address",
          "name": "owner",
          "type": "address"
        },
        {
          "indexed": true,
          "internalType": "address",
          "name": "operator",
          "type": "address"
        },
        {
          "indexed": false,
          "internalType": "bool",
          "name": "approved",
          "type": "bool"
        }
      ],
      "name": "ApprovalForAll",
      "type": "event"
    },
    {
      "anonymous": false,
      "inputs": [
        {
          "indexed": true,
          "internalType": "address",
          "name": "from",
          "type": "address"
        },
        {
          "indexed": true,
          "internalType": "address",
          "name": "to",
          "type": "address"
        },
        {
          "indexed": true,
          "internalType": "uint256",
          "name": "tokenId",
          "type": "uint256"
        }
      ],
      "name": "Transfer",
      "type": "event"
    },
    {
      "inputs": [
        {
          "internalType": "address",
          "name": "to",
          "type": "address"
        },
        {
          "internalType": "uint256",
          "name": "tokenId",
          "type": "uint256"
        }
      ],
      "name": "approve",
      "outputs": [],
      "stateMutability": "nonpayable",
      "type": "function"
    },
    {
      "inputs": [],
      "name": "audio",
      "outputs": [
        {
          "internalType": "string",
          "name": "",
          "type": "string"
        }
      ],
      "stateMutability": "view",
      "type": "function"
    },
    {
      "inputs": [
        {
          "internalType": "address",
          "name": "owner",
          "type": "address"
        }
      ],
      "name": "balanceOf",
      "outputs": [
        {
          "internalType": "uint256",
          "name": "",
          "type": "uint256"
        }
      ],
      "stateMutability": "view",
      "type": "function"
    },
    {
      "inputs": [],
      "name": "baseURI",
      "outputs": [
        {
          "internalType": "string",
          "name": "",
          "type": "string"
        }
      ],
      "stateMutability": "view",
      "type": "function"
    },
    {
      "inputs": [],
      "name": "burnValue",
      "outputs": [
        {
          "internalType": "uint256",
          "name": "",
          "type": "uint256"
        }
      ],
      "stateMutability": "view",
      "type": "function"
    },
    {
      "inputs": [],
      "name": "burnable",
      "outputs": [
        {
          "internalType": "bool",
          "name": "",
          "type": "bool"
        }
      ],
      "stateMutability": "view",
      "type": "function"
    },
    {
      "inputs": [],
      "name": "claimValue",
      "outputs": [
        {
          "internalType": "uint256",
          "name": "",
          "type": "uint256"
        }
      ],
      "stateMutability": "view",
      "type": "function"
    },
    {
      "inputs": [],
      "name": "distributor",
      "outputs": [
        {
          "internalType": "address",
          "name": "",
          "type": "address"
        }
      ],
      "stateMutability": "view",
      "type": "function"
    },
    {
      "inputs": [
        {
          "internalType": "uint256",
          "name": "tokenId",
          "type": "uint256"
        }
      ],
      "name": "getApproved",
      "outputs": [
        {
          "internalType": "address",
          "name": "",
          "type": "address"
        }
      ],
      "stateMutability": "view",
      "type": "function"
    },
    {
      "inputs": [],
      "name": "image",
      "outputs": [
        {
          "internalType": "string",
          "name": "",
          "type": "string"
        }
      ],
      "stateMutability": "view",
      "type": "function"
    },
    {
      "inputs": [
        {
          "internalType": "address",
          "name": "owner",
          "type": "address"
        },
        {
          "internalType": "address",
          "name": "operator",
          "type": "address"
        }
      ],
      "name": "isApprovedForAll",
      "outputs": [
        {
          "internalType": "bool",
          "name": "",
          "type": "bool"
        }
      ],
      "stateMutability": "view",
      "type": "function"
    },
    {
      "inputs": [],
      "name": "maxSupply",
      "outputs": [
        {
          "internalType": "uint256",
          "name": "",
          "type": "uint256"
        }
      ],
      "stateMutability": "view",
      "type": "function"
    },
    {
      "inputs": [],
      "name": "mintValue",
      "outputs": [
        {
          "internalType": "uint256",
          "name": "",
          "type": "uint256"
        }
      ],
      "stateMutability": "view",
      "type": "function"
    },
    {
      "inputs": [],
      "name": "model",
      "outputs": [
        {
          "internalType": "string",
          "name": "",
          "type": "string"
        }
      ],
      "stateMutability": "view",
      "type": "function"
    },
    {
      "inputs": [],
      "name": "name",
      "outputs": [
        {
          "internalType": "string",
          "name": "",
          "type": "string"
        }
      ],
      "stateMutability": "view",
      "type": "function"
    },
    {
      "inputs": [
        {
          "internalType": "uint256",
          "name": "tokenId",
          "type": "uint256"
        }
      ],
      "name": "ownerOf",
      "outputs": [
        {
          "internalType": "address",
          "name": "",
          "type": "address"
        }
      ],
      "stateMutability": "view",
      "type": "function"
    },
    {
      "inputs": [
        {
          "internalType": "address",
          "name": "from",
          "type": "address"
        },
        {
          "internalType": "address",
          "name": "to",
          "type": "address"
        },
        {
          "internalType": "uint256",
          "name": "tokenId",
          "type": "uint256"
        }
      ],
      "name": "safeTransferFrom",
      "outputs": [],
      "stateMutability": "nonpayable",
      "type": "function"
    },
    {
      "inputs": [
        {
          "internalType": "address",
          "name": "from",
          "type": "address"
        },
        {
          "internalType": "address",
          "name": "to",
          "type": "address"
        },
        {
          "internalType": "uint256",
          "name": "tokenId",
          "type": "uint256"
        },
        {
          "internalType": "bytes",
          "name": "_data",
          "type": "bytes"
        }
      ],
      "name": "safeTransferFrom",
      "outputs": [],
      "stateMutability": "nonpayable",
      "type": "function"
    },
    {
      "inputs": [
        {
          "internalType": "address",
          "name": "operator",
          "type": "address"
        },
        {
          "internalType": "bool",
          "name": "approved",
          "type": "bool"
        }
      ],
      "name": "setApprovalForAll",
      "outputs": [],
      "stateMutability": "nonpayable",
      "type": "function"
    },
    {
      "inputs": [
        {
          "internalType": "bytes4",
          "name": "interfaceId",
          "type": "bytes4"
        }
      ],
      "name": "supportsInterface",
      "outputs": [
        {
          "internalType": "bool",
          "name": "",
          "type": "bool"
        }
      ],
      "stateMutability": "view",
      "type": "function"
    },
    {
      "inputs": [],
      "name": "symbol",
      "outputs": [
        {
          "internalType": "string",
          "name": "",
          "type": "string"
        }
      ],
      "stateMutability": "view",
      "type": "function"
    },
    {
      "inputs": [
        {
          "internalType": "uint256",
          "name": "index",
          "type": "uint256"
        }
      ],
      "name": "tokenByIndex",
      "outputs": [
        {
          "internalType": "uint256",
          "name": "",
          "type": "uint256"
        }
      ],
      "stateMutability": "view",
      "type": "function"
    },
    {
      "inputs": [
        {
          "internalType": "address",
          "name": "owner",
          "type": "address"
        },
        {
          "internalType": "uint256",
          "name": "index",
          "type": "uint256"
        }
      ],
      "name": "tokenOfOwnerByIndex",
      "outputs": [
        {
          "internalType": "uint256",
          "name": "",
          "type": "uint256"
        }
      ],
      "stateMutability": "view",
      "type": "function"
    },
    {
      "inputs": [],
      "name": "totalSupply",
      "outputs": [
        {
          "internalType": "uint256",
          "name": "",
          "type": "uint256"
        }
      ],
      "stateMutability": "view",
      "type": "function"
    },
    {
      "inputs": [
        {
          "internalType": "address",
          "name": "from",
          "type": "address"
        },
        {
          "internalType": "address",
          "name": "to",
          "type": "address"
        },
        {
          "internalType": "uint256",
          "name": "tokenId",
          "type": "uint256"
        }
      ],
      "name": "transferFrom",
      "outputs": [],
      "stateMutability": "nonpayable",
      "type": "function"
    },
    {
      "inputs": [],
      "name": "unclaimed",
      "outputs": [
        {
          "internalType": "uint256",
          "name": "",
          "type": "uint256"
        }
      ],
      "stateMutability": "view",
      "type": "function"
    },
    {
      "inputs": [],
      "name": "video",
      "outputs": [
        {
          "internalType": "string",
          "name": "",
          "type": "string"
        }
      ],
      "stateMutability": "view",
      "type": "function"
    },
    {
      "inputs": [
        {
          "internalType": "uint256",
          "name": "tokenId",
          "type": "uint256"
        }
      ],
      "name": "tokenURI",
      "outputs": [
        {
          "internalType": "string",
          "name": "",
          "type": "string"
        }
      ],
      "stateMutability": "view",
      "type": "function"
    },
    {
      "inputs": [
        {
          "internalType": "string",
          "name": "_uri",
          "type": "string"
        },
        {
          "internalType": "bool",
          "name": "_ratioProtocol",
          "type": "bool"
        },
        {
          "internalType": "address",
          "name": "_protocolAddress",
          "type": "address"
        }
      ],
      "name": "setBaseURI",
      "outputs": [],
      "stateMutability": "payable",
      "type": "function"
    },
    {
      "inputs": [
        {
          "internalType": "string",
          "name": "_image",
          "type": "string"
        },
        {
          "internalType": "string",
          "name": "_audio",
          "type": "string"
        },
        {
          "internalType": "string",
          "name": "_video",
          "type": "string"
        },
        {
          "internalType": "string",
          "name": "_model",
          "type": "string"
        }
      ],
      "name": "setSubURIs",
      "outputs": [],
      "stateMutability": "nonpayable",
      "type": "function"
    },
    {
      "inputs": [],
      "name": "claim",
      "outputs": [],
      "stateMutability": "nonpayable",
      "type": "function"
    },
    {
      "inputs": [],
      "name": "info",
      "outputs": [
        {
          "components": [
            {
              "internalType": "address",
              "name": "_distributor",
              "type": "address"
            },
            {
              "internalType": "string",
              "name": "_name",
              "type": "string"
            },
            {
              "internalType": "string",
              "name": "_base",
              "type": "string"
            },
            {
              "internalType": "string",
              "name": "_image",
              "type": "string"
            },
            {
              "internalType": "string",
              "name": "_audio",
              "type": "string"
            },
            {
              "internalType": "string",
              "name": "_video",
              "type": "string"
            },
            {
              "internalType": "string",
              "name": "_model",
              "type": "string"
            },
            {
              "internalType": "uint256",
              "name": "_mintValue",
              "type": "uint256"
            },
            {
              "internalType": "uint256",
              "name": "_maxSupply",
              "type": "uint256"
            },
            {
              "internalType": "uint256",
              "name": "_minted",
              "type": "uint256"
            },
            {
              "internalType": "uint256",
              "name": "_claimValue",
              "type": "uint256"
            },
            {
              "internalType": "uint256",
              "name": "_unclaimed",
              "type": "uint256"
            },
            {
              "internalType": "bool",
              "name": "_burnable",
              "type": "bool"
            },
            {
              "internalType": "uint256",
              "name": "_burnValue",
              "type": "uint256"
            }
          ],
          "internalType": "struct RatioSingleNFT.infoStruct",
          "name": "_info",
          "type": "tuple"
        }
      ],
      "stateMutability": "view",
      "type": "function"
    },
    {
      "inputs": [
        {
          "internalType": "address",
          "name": "_receiver",
          "type": "address"
        }
      ],
      "name": "mint",
      "outputs": [
        {
          "internalType": "uint256",
          "name": "_id",
          "type": "uint256"
        }
      ],
      "stateMutability": "payable",
      "type": "function"
    },
    {
      "inputs": [
        {
          "internalType": "uint256",
          "name": "_tokenId",
          "type": "uint256"
        }
      ],
      "name": "burn",
      "outputs": [],
      "stateMutability": "nonpayable",
      "type": "function"
    }
  ],
  "bytecode": "0x6101406040526000601060006101000a81548160ff0219169083151502179055506000601060016101000a81548160ff0219169083151502179055506040516200507538038062005075833981810160405281019062000060919062000281565b858581600090805190602001906200007a92919062000125565b5080600190805190602001906200009392919062000125565b50505082821115620000a457600080fd5b3373ffffffffffffffffffffffffffffffffffffffff1660808173ffffffffffffffffffffffffffffffffffffffff1660601b815250508360a081815250508260c081815250508160e0818152505080151561012081151560f81b815250508183620001119190620003ba565b610100818152505050505050505062000593565b828054620001339062000441565b90600052602060002090601f016020900481019282620001575760008555620001a3565b82601f106200017257805160ff1916838001178555620001a3565b82800160010185558215620001a3579182015b82811115620001a257825182559160200191906001019062000185565b5b509050620001b29190620001b6565b5090565b5b80821115620001d1576000816000905550600101620001b7565b5090565b6000620001ec620001e68462000384565b6200035b565b9050828152602081018484840111156200020b576200020a6200053f565b5b620002188482856200040b565b509392505050565b60008151905062000231816200055f565b92915050565b600082601f8301126200024f576200024e6200053a565b5b815162000261848260208601620001d5565b91505092915050565b6000815190506200027b8162000579565b92915050565b60008060008060008060c08789031215620002a157620002a062000549565b5b600087015167ffffffffffffffff811115620002c257620002c162000544565b5b620002d089828a0162000237565b965050602087015167ffffffffffffffff811115620002f457620002f362000544565b5b6200030289828a0162000237565b95505060406200031589828a016200026a565b94505060606200032889828a016200026a565b93505060806200033b89828a016200026a565b92505060a06200034e89828a0162000220565b9150509295509295509295565b6000620003676200037a565b905062000375828262000477565b919050565b6000604051905090565b600067ffffffffffffffff821115620003a257620003a16200050b565b5b620003ad826200054e565b9050602081019050919050565b6000620003c78262000401565b9150620003d48362000401565b925082821015620003ea57620003e9620004ad565b5b828203905092915050565b60008115159050919050565b6000819050919050565b60005b838110156200042b5780820151818401526020810190506200040e565b838111156200043b576000848401525b50505050565b600060028204905060018216806200045a57607f821691505b60208210811415620004715762000470620004dc565b5b50919050565b62000482826200054e565b810181811067ffffffffffffffff82111715620004a457620004a36200050b565b5b80604052505050565b7f4e487b7100000000000000000000000000000000000000000000000000000000600052601160045260246000fd5b7f4e487b7100000000000000000000000000000000000000000000000000000000600052602260045260246000fd5b7f4e487b7100000000000000000000000000000000000000000000000000000000600052604160045260246000fd5b600080fd5b600080fd5b600080fd5b600080fd5b6000601f19601f8301169050919050565b6200056a81620003f5565b81146200057657600080fd5b50565b620005848162000401565b81146200059057600080fd5b50565b60805160601c60a05160c05160e051610100516101205160f81c614a2362000652600039600081816110a7015281816111a601526118dd0152600081816110cf01528181611269015261150c01526000818161107901528181611349015261191701526000818161101e015281816115380152611827015260008181611044015281816116390152611d54015260008181610d05015281816112d00152818161137f0152818161195201528181611b540152611be80152614a236000f3fe6080604052600436106101f95760003560e01c8063669416b81161010d578063ae686b5a116100a0578063c87b56dd1161006f578063c87b56dd1461072c578063d52b1f5314610769578063d5abeb0114610785578063e985e9c5146107b0578063f3ccaac0146107ed576101f9565b8063ae686b5a14610684578063b822fd2c146106af578063b88d4fde146106d8578063bfe1092814610701576101f9565b806389c77dfe116100dc57806389c77dfe146105da57806395d89b4114610605578063a07c7ce414610630578063a22cb4651461065b576101f9565b8063669416b8146105175780636a627842146105425780636c0360eb1461057257806370a082311461059d576101f9565b80632f745c591161019057806342966c681161015f57806342966c68146104325780634e71d92d1461045b5780634f6ccce7146104725780636352211e146104af57806365cb14bc146104ec576101f9565b80632f745c5914610376578063370158ea146103b3578063407d2236146103de57806342842e0e14610409576101f9565b80630ad9d052116101cc5780630ad9d052146102cc57806311b00617146102f757806318160ddd1461032257806323b872dd1461034d576101f9565b806301ffc9a7146101fe57806306fdde031461023b578063081812fc14610266578063095ea7b3146102a3575b600080fd5b34801561020a57600080fd5b5061022560048036038101906102209190613459565b610818565b6040516102329190613c2b565b60405180910390f35b34801561024757600080fd5b50610250610892565b60405161025d9190613c46565b60405180910390f35b34801561027257600080fd5b5061028d600480360381019061028891906135f9565b610924565b60405161029a9190613bc4565b60405180910390f35b3480156102af57600080fd5b506102ca60048036038101906102c59190613419565b6109a9565b005b3480156102d857600080fd5b506102e1610ac1565b6040516102ee9190613c46565b60405180910390f35b34801561030357600080fd5b5061030c610b4f565b6040516103199190613c46565b60405180910390f35b34801561032e57600080fd5b50610337610bdd565b6040516103449190613f8a565b60405180910390f35b34801561035957600080fd5b50610374600480360381019061036f9190613303565b610bea565b005b34801561038257600080fd5b5061039d60048036038101906103989190613419565b610c4a565b6040516103aa9190613f8a565b60405180910390f35b3480156103bf57600080fd5b506103c8610cef565b6040516103d59190613f68565b60405180910390f35b3480156103ea57600080fd5b506103f36110f6565b6040516104009190613c46565b60405180910390f35b34801561041557600080fd5b50610430600480360381019061042b9190613303565b611184565b005b34801561043e57600080fd5b50610459600480360381019061045491906135f9565b6111a4565b005b34801561046757600080fd5b506104706112b7565b005b34801561047e57600080fd5b50610499600480360381019061049491906135f9565b6113e7565b6040516104a69190613f8a565b60405180910390f35b3480156104bb57600080fd5b506104d660048036038101906104d191906135f9565b611458565b6040516104e39190613bc4565b60405180910390f35b3480156104f857600080fd5b5061050161150a565b60405161050e9190613f8a565b60405180910390f35b34801561052357600080fd5b5061052c61152e565b6040516105399190613f8a565b60405180910390f35b61055c60048036038101906105579190613296565b611534565b6040516105699190613f8a565b60405180910390f35b34801561057e57600080fd5b506105876116df565b6040516105949190613c46565b60405180910390f35b3480156105a957600080fd5b506105c460048036038101906105bf9190613296565b61176d565b6040516105d19190613f8a565b60405180910390f35b3480156105e657600080fd5b506105ef611825565b6040516105fc9190613f8a565b60405180910390f35b34801561061157600080fd5b5061061a611849565b6040516106279190613c46565b60405180910390f35b34801561063c57600080fd5b506106456118db565b6040516106529190613c2b565b60405180910390f35b34801561066757600080fd5b50610682600480360381019061067d91906133d9565b6118ff565b005b34801561069057600080fd5b50610699611915565b6040516106a69190613f8a565b60405180910390f35b3480156106bb57600080fd5b506106d660048036038101906106d19190613522565b611939565b005b3480156106e457600080fd5b506106ff60048036038101906106fa9190613356565b611af0565b005b34801561070d57600080fd5b50610716611b52565b6040516107239190613bc4565b60405180910390f35b34801561073857600080fd5b50610753600480360381019061074e91906135f9565b611b76565b6040516107609190613c46565b60405180910390f35b610783600480360381019061077e91906134b3565b611bcf565b005b34801561079157600080fd5b5061079a611d52565b6040516107a79190613f8a565b60405180910390f35b3480156107bc57600080fd5b506107d760048036038101906107d291906132c3565b611d76565b6040516107e49190613c2b565b60405180910390f35b3480156107f957600080fd5b50610802611e0a565b60405161080f9190613c46565b60405180910390f35b60007f780e9d63000000000000000000000000000000000000000000000000000000007bffffffffffffffffffffffffffffffffffffffffffffffffffffffff1916827bffffffffffffffffffffffffffffffffffffffffffffffffffffffff1916148061088b575061088a82611e98565b5b9050919050565b6060600080546108a19061420f565b80601f01602080910402602001604051908101604052809291908181526020018280546108cd9061420f565b801561091a5780601f106108ef5761010080835404028352916020019161091a565b820191906000526020600020905b8154815290600101906020018083116108fd57829003601f168201915b5050505050905090565b600061092f82611f7a565b61096e576040517f08c379a000000000000000000000000000000000000000000000000000000000815260040161096590613e28565b60405180910390fd5b6004600083815260200190815260200160002060009054906101000a900473ffffffffffffffffffffffffffffffffffffffff169050919050565b60006109b482611458565b90508073ffffffffffffffffffffffffffffffffffffffff168373ffffffffffffffffffffffffffffffffffffffff161415610a25576040517f08c379a0000000000000000000000000000000000000000000000000000000008152600401610a1c90613e88565b60405180910390fd5b8073ffffffffffffffffffffffffffffffffffffffff16610a44611fe6565b73ffffffffffffffffffffffffffffffffffffffff161480610a735750610a7281610a6d611fe6565b611d76565b5b610ab2576040517f08c379a0000000000000000000000000000000000000000000000000000000008152600401610aa990613d88565b60405180910390fd5b610abc8383611fee565b505050565b600f8054610ace9061420f565b80601f0160208091040260200160405190810160405280929190818152602001828054610afa9061420f565b8015610b475780601f10610b1c57610100808354040283529160200191610b47565b820191906000526020600020905b815481529060010190602001808311610b2a57829003601f168201915b505050505081565b600e8054610b5c9061420f565b80601f0160208091040260200160405190810160405280929190818152602001828054610b889061420f565b8015610bd55780601f10610baa57610100808354040283529160200191610bd5565b820191906000526020600020905b815481529060010190602001808311610bb857829003601f168201915b505050505081565b6000600880549050905090565b610bfb610bf5611fe6565b826120a7565b610c3a576040517f08c379a0000000000000000000000000000000000000000000000000000000008152600401610c3190613ec8565b60405180910390fd5b610c45838383612185565b505050565b6000610c558361176d565b8210610c96576040517f08c379a0000000000000000000000000000000000000000000000000000000008152600401610c8d90613c88565b60405180910390fd5b600660008473ffffffffffffffffffffffffffffffffffffffff1673ffffffffffffffffffffffffffffffffffffffff168152602001908152602001600020600083815260200190815260200160002054905092915050565b610cf7613023565b604051806101c001604052807f000000000000000000000000000000000000000000000000000000000000000073ffffffffffffffffffffffffffffffffffffffff168152602001610d47610892565b8152602001600b8054610d599061420f565b80601f0160208091040260200160405190810160405280929190818152602001828054610d859061420f565b8015610dd25780601f10610da757610100808354040283529160200191610dd2565b820191906000526020600020905b815481529060010190602001808311610db557829003601f168201915b50505050508152602001600c8054610de99061420f565b80601f0160208091040260200160405190810160405280929190818152602001828054610e159061420f565b8015610e625780601f10610e3757610100808354040283529160200191610e62565b820191906000526020600020905b815481529060010190602001808311610e4557829003601f168201915b50505050508152602001600d8054610e799061420f565b80601f0160208091040260200160405190810160405280929190818152602001828054610ea59061420f565b8015610ef25780601f10610ec757610100808354040283529160200191610ef2565b820191906000526020600020905b815481529060010190602001808311610ed557829003601f168201915b50505050508152602001600e8054610f099061420f565b80601f0160208091040260200160405190810160405280929190818152602001828054610f359061420f565b8015610f825780601f10610f5757610100808354040283529160200191610f82565b820191906000526020600020905b815481529060010190602001808311610f6557829003601f168201915b50505050508152602001600f8054610f999061420f565b80601f0160208091040260200160405190810160405280929190818152602001828054610fc59061420f565b80156110125780601f10610fe757610100808354040283529160200191611012565b820191906000526020600020905b815481529060010190602001808311610ff557829003601f168201915b505050505081526020017f000000000000000000000000000000000000000000000000000000000000000081526020017f0000000000000000000000000000000000000000000000000000000000000000815260200161107260116123ec565b81526020017f00000000000000000000000000000000000000000000000000000000000000008152602001600a5481526020017f0000000000000000000000000000000000000000000000000000000000000000151581526020017f0000000000000000000000000000000000000000000000000000000000000000815250905090565b600d80546111039061420f565b80601f016020809104026020016040519081016040528092919081815260200182805461112f9061420f565b801561117c5780601f106111515761010080835404028352916020019161117c565b820191906000526020600020905b81548152906001019060200180831161115f57829003601f168201915b505050505081565b61119f83838360405180602001604052806000815250611af0565b505050565b7f0000000000000000000000000000000000000000000000000000000000000000611204576040517f08c379a00000000000000000000000000000000000000000000000000000000081526004016111fb90613f28565b60405180910390fd5b3373ffffffffffffffffffffffffffffffffffffffff1661122482611458565b73ffffffffffffffffffffffffffffffffffffffff161461124457600080fd5b61124d816123fa565b3373ffffffffffffffffffffffffffffffffffffffff166108fc7f00000000000000000000000000000000000000000000000000000000000000009081150290604051600060405180830381858888f193505050501580156112b3573d6000803e3d6000fd5b5050565b3373ffffffffffffffffffffffffffffffffffffffff167f000000000000000000000000000000000000000000000000000000000000000073ffffffffffffffffffffffffffffffffffffffff1614611345576040517f08c379a000000000000000000000000000000000000000000000000000000000815260040161133c90613f48565b60405180910390fd5b60007f0000000000000000000000000000000000000000000000000000000000000000600a5461137591906140cb565b9050600a600090557f000000000000000000000000000000000000000000000000000000000000000073ffffffffffffffffffffffffffffffffffffffff166108fc829081150290604051600060405180830381858888f193505050501580156113e3573d6000803e3d6000fd5b5050565b60006113f1610bdd565b8210611432576040517f08c379a000000000000000000000000000000000000000000000000000000000815260040161142990613ee8565b60405180910390fd5b6008828154811061144657611445614348565b5b90600052602060002001549050919050565b6000806002600084815260200190815260200160002060009054906101000a900473ffffffffffffffffffffffffffffffffffffffff169050600073ffffffffffffffffffffffffffffffffffffffff168173ffffffffffffffffffffffffffffffffffffffff161415611501576040517f08c379a00000000000000000000000000000000000000000000000000000000081526004016114f890613dc8565b60405180910390fd5b80915050919050565b7f000000000000000000000000000000000000000000000000000000000000000081565b600a5481565b60007f0000000000000000000000000000000000000000000000000000000000000000341015611599576040517f08c379a000000000000000000000000000000000000000000000000000000000815260040161159090613ea8565b60405180910390fd5b601060009054906101000a900460ff166115e8576040517f08c379a00000000000000000000000000000000000000000000000000000000081526004016115df90613e08565b60405180910390fd5b601060019054906101000a900460ff16611637576040517f08c379a000000000000000000000000000000000000000000000000000000000815260040161162e90613e08565b60405180910390fd5b7f000000000000000000000000000000000000000000000000000000000000000061166260116123ec565b106116a2576040517f08c379a000000000000000000000000000000000000000000000000000000000815260040161169990613e48565b60405180910390fd5b600a60008154809291906116b590614272565b91905055506116c46011612517565b6116ce60116123ec565b90506116da828261252d565b919050565b600b80546116ec9061420f565b80601f01602080910402602001604051908101604052809291908181526020018280546117189061420f565b80156117655780601f1061173a57610100808354040283529160200191611765565b820191906000526020600020905b81548152906001019060200180831161174857829003601f168201915b505050505081565b60008073ffffffffffffffffffffffffffffffffffffffff168273ffffffffffffffffffffffffffffffffffffffff1614156117de576040517f08c379a00000000000000000000000000000000000000000000000000000000081526004016117d590613da8565b60405180910390fd5b600360008373ffffffffffffffffffffffffffffffffffffffff1673ffffffffffffffffffffffffffffffffffffffff168152602001908152602001600020549050919050565b7f000000000000000000000000000000000000000000000000000000000000000081565b6060600180546118589061420f565b80601f01602080910402602001604051908101604052809291908181526020018280546118849061420f565b80156118d15780601f106118a6576101008083540402835291602001916118d1565b820191906000526020600020905b8154815290600101906020018083116118b457829003601f168201915b5050505050905090565b7f000000000000000000000000000000000000000000000000000000000000000081565b61191161190a611fe6565b838361254b565b5050565b7f000000000000000000000000000000000000000000000000000000000000000081565b3373ffffffffffffffffffffffffffffffffffffffff167f000000000000000000000000000000000000000000000000000000000000000073ffffffffffffffffffffffffffffffffffffffff16146119c7576040517f08c379a00000000000000000000000000000000000000000000000000000000081526004016119be90613f48565b60405180910390fd5b60011515601060009054906101000a900460ff16151514611a1d576040517f08c379a0000000000000000000000000000000000000000000000000000000008152600401611a1490613d48565b60405180910390fd5b60001515601060019054906101000a900460ff16151514611a73576040517f08c379a0000000000000000000000000000000000000000000000000000000008152600401611a6a90613c68565b60405180910390fd5b83600c9080519060200190611a899291906130aa565b5082600d9080519060200190611aa09291906130aa565b5081600e9080519060200190611ab79291906130aa565b5080600f9080519060200190611ace9291906130aa565b506001601060016101000a81548160ff02191690831515021790555050505050565b611b01611afb611fe6565b836120a7565b611b40576040517f08c379a0000000000000000000000000000000000000000000000000000000008152600401611b3790613ec8565b60405180910390fd5b611b4c848484846126b8565b50505050565b7f000000000000000000000000000000000000000000000000000000000000000081565b6060611b8182611f7a565b611bc0576040517f08c379a0000000000000000000000000000000000000000000000000000000008152600401611bb790613e68565b60405180910390fd5b611bc8612714565b9050919050565b3373ffffffffffffffffffffffffffffffffffffffff167f000000000000000000000000000000000000000000000000000000000000000073ffffffffffffffffffffffffffffffffffffffff1614611c5d576040517f08c379a0000000000000000000000000000000000000000000000000000000008152600401611c5490613f48565b60405180910390fd5b60001515601060009054906101000a900460ff16151514611cb3576040517f08c379a0000000000000000000000000000000000000000000000000000000008152600401611caa90613f08565b60405180910390fd5b82600b9080519060200190611cc99291906130aa565b508115611d32578073ffffffffffffffffffffffffffffffffffffffff166307ec3039346040518263ffffffff1660e01b81526004016000604051808303818588803b158015611d1857600080fd5b505af1158015611d2c573d6000803e3d6000fd5b50505050505b6001601060006101000a81548160ff021916908315150217905550505050565b7f000000000000000000000000000000000000000000000000000000000000000081565b6000600560008473ffffffffffffffffffffffffffffffffffffffff1673ffffffffffffffffffffffffffffffffffffffff16815260200190815260200160002060008373ffffffffffffffffffffffffffffffffffffffff1673ffffffffffffffffffffffffffffffffffffffff16815260200190815260200160002060009054906101000a900460ff16905092915050565b600c8054611e179061420f565b80601f0160208091040260200160405190810160405280929190818152602001828054611e439061420f565b8015611e905780601f10611e6557610100808354040283529160200191611e90565b820191906000526020600020905b815481529060010190602001808311611e7357829003601f168201915b505050505081565b60007f80ac58cd000000000000000000000000000000000000000000000000000000007bffffffffffffffffffffffffffffffffffffffffffffffffffffffff1916827bffffffffffffffffffffffffffffffffffffffffffffffffffffffff19161480611f6357507f5b5e139f000000000000000000000000000000000000000000000000000000007bffffffffffffffffffffffffffffffffffffffffffffffffffffffff1916827bffffffffffffffffffffffffffffffffffffffffffffffffffffffff1916145b80611f735750611f72826127a6565b5b9050919050565b60008073ffffffffffffffffffffffffffffffffffffffff166002600084815260200190815260200160002060009054906101000a900473ffffffffffffffffffffffffffffffffffffffff1673ffffffffffffffffffffffffffffffffffffffff1614159050919050565b600033905090565b816004600083815260200190815260200160002060006101000a81548173ffffffffffffffffffffffffffffffffffffffff021916908373ffffffffffffffffffffffffffffffffffffffff160217905550808273ffffffffffffffffffffffffffffffffffffffff1661206183611458565b73ffffffffffffffffffffffffffffffffffffffff167f8c5be1e5ebec7d5bd14f71427d1e84f3dd0314c0f7b2291e5b200ac8c7c3b92560405160405180910390a45050565b60006120b282611f7a565b6120f1576040517f08c379a00000000000000000000000000000000000000000000000000000000081526004016120e890613d68565b60405180910390fd5b60006120fc83611458565b90508073ffffffffffffffffffffffffffffffffffffffff168473ffffffffffffffffffffffffffffffffffffffff16148061213e575061213d8185611d76565b5b8061217c57508373ffffffffffffffffffffffffffffffffffffffff1661216484610924565b73ffffffffffffffffffffffffffffffffffffffff16145b91505092915050565b8273ffffffffffffffffffffffffffffffffffffffff166121a582611458565b73ffffffffffffffffffffffffffffffffffffffff16146121fb576040517f08c379a00000000000000000000000000000000000000000000000000000000081526004016121f290613cc8565b60405180910390fd5b600073ffffffffffffffffffffffffffffffffffffffff168273ffffffffffffffffffffffffffffffffffffffff16141561226b576040517f08c379a000000000000000000000000000000000000000000000000000000000815260040161226290613d08565b60405180910390fd5b612276838383612810565b612281600082611fee565b6001600360008573ffffffffffffffffffffffffffffffffffffffff1673ffffffffffffffffffffffffffffffffffffffff16815260200190815260200160002060008282546122d19190614125565b925050819055506001600360008473ffffffffffffffffffffffffffffffffffffffff1673ffffffffffffffffffffffffffffffffffffffff16815260200190815260200160002060008282546123289190614075565b92505081905550816002600083815260200190815260200160002060006101000a81548173ffffffffffffffffffffffffffffffffffffffff021916908373ffffffffffffffffffffffffffffffffffffffff160217905550808273ffffffffffffffffffffffffffffffffffffffff168473ffffffffffffffffffffffffffffffffffffffff167fddf252ad1be2c89b69c2b068fc378daa952ba7f163c4a11628f55a4df523b3ef60405160405180910390a46123e7838383612924565b505050565b600081600001549050919050565b600061240582611458565b905061241381600084612810565b61241e600083611fee565b6001600360008373ffffffffffffffffffffffffffffffffffffffff1673ffffffffffffffffffffffffffffffffffffffff168152602001908152602001600020600082825461246e9190614125565b925050819055506002600083815260200190815260200160002060006101000a81549073ffffffffffffffffffffffffffffffffffffffff021916905581600073ffffffffffffffffffffffffffffffffffffffff168273ffffffffffffffffffffffffffffffffffffffff167fddf252ad1be2c89b69c2b068fc378daa952ba7f163c4a11628f55a4df523b3ef60405160405180910390a461251381600084612924565b5050565b6001816000016000828254019250508190555050565b612547828260405180602001604052806000815250612929565b5050565b8173ffffffffffffffffffffffffffffffffffffffff168373ffffffffffffffffffffffffffffffffffffffff1614156125ba576040517f08c379a00000000000000000000000000000000000000000000000000000000081526004016125b190613d28565b60405180910390fd5b80600560008573ffffffffffffffffffffffffffffffffffffffff1673ffffffffffffffffffffffffffffffffffffffff16815260200190815260200160002060008473ffffffffffffffffffffffffffffffffffffffff1673ffffffffffffffffffffffffffffffffffffffff16815260200190815260200160002060006101000a81548160ff0219169083151502179055508173ffffffffffffffffffffffffffffffffffffffff168373ffffffffffffffffffffffffffffffffffffffff167f17307eab39ab6107e8899845ad3d59bd9653f200f220920489ca2b5937696c31836040516126ab9190613c2b565b60405180910390a3505050565b6126c3848484612185565b6126cf84848484612984565b61270e576040517f08c379a000000000000000000000000000000000000000000000000000000000815260040161270590613ca8565b60405180910390fd5b50505050565b6060600b80546127239061420f565b80601f016020809104026020016040519081016040528092919081815260200182805461274f9061420f565b801561279c5780601f106127715761010080835404028352916020019161279c565b820191906000526020600020905b81548152906001019060200180831161277f57829003601f168201915b5050505050905090565b60007f01ffc9a7000000000000000000000000000000000000000000000000000000007bffffffffffffffffffffffffffffffffffffffffffffffffffffffff1916827bffffffffffffffffffffffffffffffffffffffffffffffffffffffff1916149050919050565b61281b838383612b1b565b600073ffffffffffffffffffffffffffffffffffffffff168373ffffffffffffffffffffffffffffffffffffffff16141561285e5761285981612b20565b61289d565b8173ffffffffffffffffffffffffffffffffffffffff168373ffffffffffffffffffffffffffffffffffffffff161461289c5761289b8382612b69565b5b5b600073ffffffffffffffffffffffffffffffffffffffff168273ffffffffffffffffffffffffffffffffffffffff1614156128e0576128db81612cd6565b61291f565b8273ffffffffffffffffffffffffffffffffffffffff168273ffffffffffffffffffffffffffffffffffffffff161461291e5761291d8282612da7565b5b5b505050565b505050565b6129338383612e26565b6129406000848484612984565b61297f576040517f08c379a000000000000000000000000000000000000000000000000000000000815260040161297690613ca8565b60405180910390fd5b505050565b60006129a58473ffffffffffffffffffffffffffffffffffffffff16613000565b15612b0e578373ffffffffffffffffffffffffffffffffffffffff1663150b7a026129ce611fe6565b8786866040518563ffffffff1660e01b81526004016129f09493929190613bdf565b602060405180830381600087803b158015612a0a57600080fd5b505af1925050508015612a3b57506040513d601f19601f82011682018060405250810190612a389190613486565b60015b612abe573d8060008114612a6b576040519150601f19603f3d011682016040523d82523d6000602084013e612a70565b606091505b50600081511415612ab6576040517f08c379a0000000000000000000000000000000000000000000000000000000008152600401612aad90613ca8565b60405180910390fd5b805181602001fd5b63150b7a0260e01b7bffffffffffffffffffffffffffffffffffffffffffffffffffffffff1916817bffffffffffffffffffffffffffffffffffffffffffffffffffffffff191614915050612b13565b600190505b949350505050565b505050565b6008805490506009600083815260200190815260200160002081905550600881908060018154018082558091505060019003906000526020600020016000909190919091505550565b60006001612b768461176d565b612b809190614125565b9050600060076000848152602001908152602001600020549050818114612c65576000600660008673ffffffffffffffffffffffffffffffffffffffff1673ffffffffffffffffffffffffffffffffffffffff168152602001908152602001600020600084815260200190815260200160002054905080600660008773ffffffffffffffffffffffffffffffffffffffff1673ffffffffffffffffffffffffffffffffffffffff168152602001908152602001600020600084815260200190815260200160002081905550816007600083815260200190815260200160002081905550505b6007600084815260200190815260200160002060009055600660008573ffffffffffffffffffffffffffffffffffffffff1673ffffffffffffffffffffffffffffffffffffffff16815260200190815260200160002060008381526020019081526020016000206000905550505050565b60006001600880549050612cea9190614125565b9050600060096000848152602001908152602001600020549050600060088381548110612d1a57612d19614348565b5b906000526020600020015490508060088381548110612d3c57612d3b614348565b5b906000526020600020018190555081600960008381526020019081526020016000208190555060096000858152602001908152602001600020600090556008805480612d8b57612d8a614319565b5b6001900381819060005260206000200160009055905550505050565b6000612db28361176d565b905081600660008573ffffffffffffffffffffffffffffffffffffffff1673ffffffffffffffffffffffffffffffffffffffff168152602001908152602001600020600083815260200190815260200160002081905550806007600084815260200190815260200160002081905550505050565b600073ffffffffffffffffffffffffffffffffffffffff168273ffffffffffffffffffffffffffffffffffffffff161415612e96576040517f08c379a0000000000000000000000000000000000000000000000000000000008152600401612e8d90613de8565b60405180910390fd5b612e9f81611f7a565b15612edf576040517f08c379a0000000000000000000000000000000000000000000000000000000008152600401612ed690613ce8565b60405180910390fd5b612eeb60008383612810565b6001600360008473ffffffffffffffffffffffffffffffffffffffff1673ffffffffffffffffffffffffffffffffffffffff1681526020019081526020016000206000828254612f3b9190614075565b92505081905550816002600083815260200190815260200160002060006101000a81548173ffffffffffffffffffffffffffffffffffffffff021916908373ffffffffffffffffffffffffffffffffffffffff160217905550808273ffffffffffffffffffffffffffffffffffffffff16600073ffffffffffffffffffffffffffffffffffffffff167fddf252ad1be2c89b69c2b068fc378daa952ba7f163c4a11628f55a4df523b3ef60405160405180910390a4612ffc60008383612924565b5050565b6000808273ffffffffffffffffffffffffffffffffffffffff163b119050919050565b604051806101c00160405280600073ffffffffffffffffffffffffffffffffffffffff1681526020016060815260200160608152602001606081526020016060815260200160608152602001606081526020016000815260200160008152602001600081526020016000815260200160008152602001600015158152602001600081525090565b8280546130b69061420f565b90600052602060002090601f0160209004810192826130d8576000855561311f565b82601f106130f157805160ff191683800117855561311f565b8280016001018555821561311f579182015b8281111561311e578251825591602001919060010190613103565b5b50905061312c9190613130565b5090565b5b80821115613149576000816000905550600101613131565b5090565b600061316061315b84613fca565b613fa5565b90508281526020810184848401111561317c5761317b6143ab565b5b6131878482856141cd565b509392505050565b60006131a261319d84613ffb565b613fa5565b9050828152602081018484840111156131be576131bd6143ab565b5b6131c98482856141cd565b509392505050565b6000813590506131e081614991565b92915050565b6000813590506131f5816149a8565b92915050565b60008135905061320a816149bf565b92915050565b60008151905061321f816149bf565b92915050565b600082601f83011261323a576132396143a6565b5b813561324a84826020860161314d565b91505092915050565b600082601f830112613268576132676143a6565b5b813561327884826020860161318f565b91505092915050565b600081359050613290816149d6565b92915050565b6000602082840312156132ac576132ab6143b5565b5b60006132ba848285016131d1565b91505092915050565b600080604083850312156132da576132d96143b5565b5b60006132e8858286016131d1565b92505060206132f9858286016131d1565b9150509250929050565b60008060006060848603121561331c5761331b6143b5565b5b600061332a868287016131d1565b935050602061333b868287016131d1565b925050604061334c86828701613281565b9150509250925092565b600080600080608085870312156133705761336f6143b5565b5b600061337e878288016131d1565b945050602061338f878288016131d1565b93505060406133a087828801613281565b925050606085013567ffffffffffffffff8111156133c1576133c06143b0565b5b6133cd87828801613225565b91505092959194509250565b600080604083850312156133f0576133ef6143b5565b5b60006133fe858286016131d1565b925050602061340f858286016131e6565b9150509250929050565b600080604083850312156134305761342f6143b5565b5b600061343e858286016131d1565b925050602061344f85828601613281565b9150509250929050565b60006020828403121561346f5761346e6143b5565b5b600061347d848285016131fb565b91505092915050565b60006020828403121561349c5761349b6143b5565b5b60006134aa84828501613210565b91505092915050565b6000806000606084860312156134cc576134cb6143b5565b5b600084013567ffffffffffffffff8111156134ea576134e96143b0565b5b6134f686828701613253565b9350506020613507868287016131e6565b9250506040613518868287016131d1565b9150509250925092565b6000806000806080858703121561353c5761353b6143b5565b5b600085013567ffffffffffffffff81111561355a576135596143b0565b5b61356687828801613253565b945050602085013567ffffffffffffffff811115613587576135866143b0565b5b61359387828801613253565b935050604085013567ffffffffffffffff8111156135b4576135b36143b0565b5b6135c087828801613253565b925050606085013567ffffffffffffffff8111156135e1576135e06143b0565b5b6135ed87828801613253565b91505092959194509250565b60006020828403121561360f5761360e6143b5565b5b600061361d84828501613281565b91505092915050565b61362f81614159565b82525050565b61363e81614159565b82525050565b61364d8161416b565b82525050565b61365c8161416b565b82525050565b600061366d8261402c565b6136778185614042565b93506136878185602086016141dc565b613690816143ba565b840191505092915050565b60006136a682614037565b6136b08185614053565b93506136c08185602086016141dc565b6136c9816143ba565b840191505092915050565b60006136df82614037565b6136e98185614064565b93506136f98185602086016141dc565b613702816143ba565b840191505092915050565b600061371a601f83614064565b9150613725826143cb565b602082019050919050565b600061373d602b83614064565b9150613748826143f4565b604082019050919050565b6000613760603283614064565b915061376b82614443565b604082019050919050565b6000613783602583614064565b915061378e82614492565b604082019050919050565b60006137a6601c83614064565b91506137b1826144e1565b602082019050919050565b60006137c9602483614064565b91506137d48261450a565b604082019050919050565b60006137ec601983614064565b91506137f782614559565b602082019050919050565b600061380f601a83614064565b915061381a82614582565b602082019050919050565b6000613832602c83614064565b915061383d826145ab565b604082019050919050565b6000613855603883614064565b9150613860826145fa565b604082019050919050565b6000613878602a83614064565b915061388382614649565b604082019050919050565b600061389b602983614064565b91506138a682614698565b604082019050919050565b60006138be602083614064565b91506138c9826146e7565b602082019050919050565b60006138e1601783614064565b91506138ec82614710565b602082019050919050565b6000613904602c83614064565b915061390f82614739565b604082019050919050565b6000613927601583614064565b915061393282614788565b602082019050919050565b600061394a602f83614064565b9150613955826147b1565b604082019050919050565b600061396d602183614064565b915061397882614800565b604082019050919050565b6000613990601983614064565b915061399b8261484f565b602082019050919050565b60006139b3603183614064565b91506139be82614878565b604082019050919050565b60006139d6602c83614064565b91506139e1826148c7565b604082019050919050565b60006139f9601e83614064565b9150613a0482614916565b602082019050919050565b6000613a1c601983614064565b9150613a278261493f565b602082019050919050565b6000613a3f601c83614064565b9150613a4a82614968565b602082019050919050565b60006101c083016000830151613a6e6000860182613626565b5060208301518482036020860152613a86828261369b565b91505060408301518482036040860152613aa0828261369b565b91505060608301518482036060860152613aba828261369b565b91505060808301518482036080860152613ad4828261369b565b91505060a083015184820360a0860152613aee828261369b565b91505060c083015184820360c0860152613b08828261369b565b91505060e0830151613b1d60e0860182613ba6565b50610100830151613b32610100860182613ba6565b50610120830151613b47610120860182613ba6565b50610140830151613b5c610140860182613ba6565b50610160830151613b71610160860182613ba6565b50610180830151613b86610180860182613644565b506101a0830151613b9b6101a0860182613ba6565b508091505092915050565b613baf816141c3565b82525050565b613bbe816141c3565b82525050565b6000602082019050613bd96000830184613635565b92915050565b6000608082019050613bf46000830187613635565b613c016020830186613635565b613c0e6040830185613bb5565b8181036060830152613c208184613662565b905095945050505050565b6000602082019050613c406000830184613653565b92915050565b60006020820190508181036000830152613c6081846136d4565b905092915050565b60006020820190508181036000830152613c818161370d565b9050919050565b60006020820190508181036000830152613ca181613730565b9050919050565b60006020820190508181036000830152613cc181613753565b9050919050565b60006020820190508181036000830152613ce181613776565b9050919050565b60006020820190508181036000830152613d0181613799565b9050919050565b60006020820190508181036000830152613d21816137bc565b9050919050565b60006020820190508181036000830152613d41816137df565b9050919050565b60006020820190508181036000830152613d6181613802565b9050919050565b60006020820190508181036000830152613d8181613825565b9050919050565b60006020820190508181036000830152613da181613848565b9050919050565b60006020820190508181036000830152613dc18161386b565b9050919050565b60006020820190508181036000830152613de18161388e565b9050919050565b60006020820190508181036000830152613e01816138b1565b9050919050565b60006020820190508181036000830152613e21816138d4565b9050919050565b60006020820190508181036000830152613e41816138f7565b9050919050565b60006020820190508181036000830152613e618161391a565b9050919050565b60006020820190508181036000830152613e818161393d565b9050919050565b60006020820190508181036000830152613ea181613960565b9050919050565b60006020820190508181036000830152613ec181613983565b9050919050565b60006020820190508181036000830152613ee1816139a6565b9050919050565b60006020820190508181036000830152613f01816139c9565b9050919050565b60006020820190508181036000830152613f21816139ec565b9050919050565b60006020820190508181036000830152613f4181613a0f565b9050919050565b60006020820190508181036000830152613f6181613a32565b9050919050565b60006020820190508181036000830152613f828184613a55565b905092915050565b6000602082019050613f9f6000830184613bb5565b92915050565b6000613faf613fc0565b9050613fbb8282614241565b919050565b6000604051905090565b600067ffffffffffffffff821115613fe557613fe4614377565b5b613fee826143ba565b9050602081019050919050565b600067ffffffffffffffff82111561401657614015614377565b5b61401f826143ba565b9050602081019050919050565b600081519050919050565b600081519050919050565b600082825260208201905092915050565b600082825260208201905092915050565b600082825260208201905092915050565b6000614080826141c3565b915061408b836141c3565b9250827fffffffffffffffffffffffffffffffffffffffffffffffffffffffffffffffff038211156140c0576140bf6142bb565b5b828201905092915050565b60006140d6826141c3565b91506140e1836141c3565b9250817fffffffffffffffffffffffffffffffffffffffffffffffffffffffffffffffff048311821515161561411a576141196142bb565b5b828202905092915050565b6000614130826141c3565b915061413b836141c3565b92508282101561414e5761414d6142bb565b5b828203905092915050565b6000614164826141a3565b9050919050565b60008115159050919050565b60007fffffffff0000000000000000000000000000000000000000000000000000000082169050919050565b600073ffffffffffffffffffffffffffffffffffffffff82169050919050565b6000819050919050565b82818337600083830152505050565b60005b838110156141fa5780820151818401526020810190506141df565b83811115614209576000848401525b50505050565b6000600282049050600182168061422757607f821691505b6020821081141561423b5761423a6142ea565b5b50919050565b61424a826143ba565b810181811067ffffffffffffffff8211171561426957614268614377565b5b80604052505050565b600061427d826141c3565b91507fffffffffffffffffffffffffffffffffffffffffffffffffffffffffffffffff8214156142b0576142af6142bb565b5b600182019050919050565b7f4e487b7100000000000000000000000000000000000000000000000000000000600052601160045260246000fd5b7f4e487b7100000000000000000000000000000000000000000000000000000000600052602260045260246000fd5b7f4e487b7100000000000000000000000000000000000000000000000000000000600052603160045260246000fd5b7f4e487b7100000000000000000000000000000000000000000000000000000000600052603260045260246000fd5b7f4e487b7100000000000000000000000000000000000000000000000000000000600052604160045260246000fd5b600080fd5b600080fd5b600080fd5b600080fd5b6000601f19601f8301169050919050565b7f5375622055524973206861766520616c7265616479206265656e207365742e00600082015250565b7f455243373231456e756d657261626c653a206f776e657220696e646578206f7560008201527f74206f6620626f756e6473000000000000000000000000000000000000000000602082015250565b7f4552433732313a207472616e7366657220746f206e6f6e20455243373231526560008201527f63656976657220696d706c656d656e7465720000000000000000000000000000602082015250565b7f4552433732313a207472616e736665722066726f6d20696e636f72726563742060008201527f6f776e6572000000000000000000000000000000000000000000000000000000602082015250565b7f4552433732313a20746f6b656e20616c7265616479206d696e74656400000000600082015250565b7f4552433732313a207472616e7366657220746f20746865207a65726f2061646460008201527f7265737300000000000000000000000000000000000000000000000000000000602082015250565b7f4552433732313a20617070726f766520746f2063616c6c657200000000000000600082015250565b7f426173652055524920686173206e6f74206265656e207365742e000000000000600082015250565b7f4552433732313a206f70657261746f7220717565727920666f72206e6f6e657860008201527f697374656e7420746f6b656e0000000000000000000000000000000000000000602082015250565b7f4552433732313a20617070726f76652063616c6c6572206973206e6f74206f7760008201527f6e6572206e6f7220617070726f76656420666f7220616c6c0000000000000000602082015250565b7f4552433732313a2062616c616e636520717565727920666f7220746865207a6560008201527f726f206164647265737300000000000000000000000000000000000000000000602082015250565b7f4552433732313a206f776e657220717565727920666f72206e6f6e657869737460008201527f656e7420746f6b656e0000000000000000000000000000000000000000000000602082015250565b7f4552433732313a206d696e7420746f20746865207a65726f2061646472657373600082015250565b7f4e4654206973206e6f7420696e697469616c697a65642e000000000000000000600082015250565b7f4552433732313a20617070726f76656420717565727920666f72206e6f6e657860008201527f697374656e7420746f6b656e0000000000000000000000000000000000000000602082015250565b7f4d696e74696e67206861732066696e69736865642e0000000000000000000000600082015250565b7f4552433732314d657461646174613a2055524920717565727920666f72206e6f60008201527f6e6578697374656e7420746f6b656e0000000000000000000000000000000000602082015250565b7f4552433732313a20617070726f76616c20746f2063757272656e74206f776e6560008201527f7200000000000000000000000000000000000000000000000000000000000000602082015250565b7f496e76616c6964206d696e742076616c756520676976656e2e00000000000000600082015250565b7f4552433732313a207472616e736665722063616c6c6572206973206e6f74206f60008201527f776e6572206e6f7220617070726f766564000000000000000000000000000000602082015250565b7f455243373231456e756d657261626c653a20676c6f62616c20696e646578206f60008201527f7574206f6620626f756e64730000000000000000000000000000000000000000602082015250565b7f42617365205552492068617320616c7265616479206265656e207365742e0000600082015250565b7f54686973204e4654206973206e6f74206275726e61626c652e00000000000000600082015250565b7f496e76616c6964206469737472696275746f7220616464726573732e00000000600082015250565b61499a81614159565b81146149a557600080fd5b50565b6149b18161416b565b81146149bc57600080fd5b50565b6149c881614177565b81146149d357600080fd5b50565b6149df816141c3565b81146149ea57600080fd5b5056fea26469706673582212207f241f5d46623ec4126db462ed0902e805420516c9bcbf8b4ae1ffef237eac8364736f6c63430008050033",
  "immutableReferences": {
    "1205": [
      {
        "length": 32,
        "start": 3333
      },
      {
        "length": 32,
        "start": 4816
      },
      {
        "length": 32,
        "start": 4991
      },
      {
        "length": 32,
        "start": 6482
      },
      {
        "length": 32,
        "start": 6996
      },
      {
        "length": 32,
        "start": 7144
      }
    ],
    "1207": [
      {
        "length": 32,
        "start": 4164
      },
      {
        "length": 32,
        "start": 5689
      },
      {
        "length": 32,
        "start": 7508
      }
    ],
    "1209": [
      {
        "length": 32,
        "start": 4126
      },
      {
        "length": 32,
        "start": 5432
      },
      {
        "length": 32,
        "start": 6183
      }
    ],
    "1211": [
      {
        "length": 32,
        "start": 4217
      },
      {
        "length": 32,
        "start": 4937
      },
      {
        "length": 32,
        "start": 6423
      }
    ],
    "1213": [
      {
        "length": 32,
        "start": 4303
      },
      {
        "length": 32,
        "start": 4713
      },
      {
        "length": 32,
        "start": 5388
      }
    ],
    "1215": [
      {
        "length": 32,
        "start": 4263
      },
      {
        "length": 32,
        "start": 4518
      },
      {
        "length": 32,
        "start": 6365
      }
    ]
  },
  "source": "// SPDX-License-Identifier: BUSL-1.1\npragma solidity ^0.8.5;\n\nimport \"@openzeppelin/contracts/token/ERC721/extensions/ERC721Enumerable.sol\";\n\nimport \"@openzeppelin/contracts/access/Ownable.sol\";\n\nimport \"@openzeppelin/contracts/utils/Counters.sol\";\n\nimport \"./NFTProtocol.sol\";\n\ncontract RatioSingleNFT is ERC721Enumerable{\n\n    using Counters for Counters.Counter;\n\n    // Distributor.\n    address public immutable distributor;\n\n    // NFT creation variables.\n    uint public immutable maxSupply;\n\n    uint public immutable mintValue;\n\n    uint public immutable claimValue;\n\n    uint public immutable burnValue;\n\n    bool public immutable burnable;\n\n    uint public unclaimed;\n\n    // URI Variables.\n    string public baseURI;\n\n    string public image;\n\n    string public audio;\n\n    string public video;\n\n    string public model;\n\n    // URI limiters\n    bool baseURIset = false;\n\n    bool subURIset = false;\n\n    Counters.Counter private tokenIds;\n\n    struct infoStruct{\n        address _distributor;\n        string _name; \n        string _base;\n        string _image;\n        string _audio;\n        string _video; \n        string _model; \n        uint _mintValue;\n        uint _maxSupply; \n        uint _minted;\n        uint _claimValue;\n        uint _unclaimed;\n        bool _burnable; \n        uint _burnValue;\n    }\n\n    modifier onlyDistributor(){\n        require(distributor == msg.sender, \"Invalid distributor address.\");\n        _;\n    }\n\n    constructor(string memory _name, string memory _symbol, uint _supply, uint _mintValue, uint _claimValue, bool _burnable)payable ERC721(_name, _symbol){\n        require(_claimValue <= _mintValue);\n        distributor = msg.sender;\n        maxSupply = _supply;\n        mintValue = _mintValue;\n        claimValue = _claimValue;\n        burnable = _burnable;\n        burnValue = _mintValue - _claimValue;\n    }\n\n    function _baseURI() internal override view returns (string memory){\n         return baseURI;\n    }\n\n    function tokenURI(uint tokenId) public override view returns(string memory){\n        require(_exists(tokenId), \"ERC721Metadata: URI query for nonexistent token\");\n        return _baseURI();\n    }\n\n    function setBaseURI(string memory _uri, bool _ratioProtocol, address _protocolAddress) public payable onlyDistributor{\n        require(baseURIset == false, \"Base URI has already been set.\");\n        baseURI = _uri;\n        if(_ratioProtocol){\n            NFTProtocol(_protocolAddress).requestVerification{value: msg.value}();\n        }\n        baseURIset = true;\n    }\n\n    function setSubURIs(string memory _image, string memory _audio, string memory _video, string memory _model) public onlyDistributor{\n        require(baseURIset == true, \"Base URI has not been set.\");\n        require(subURIset == false, \"Sub URIs have already been set.\");\n        image = _image;\n        audio = _audio;\n        video = _video;\n        model = _model;\n        subURIset = true;\n    }\n\n    function claim() public onlyDistributor{\n        uint _claim = unclaimed * claimValue;\n        delete unclaimed;\n        payable(distributor).transfer(_claim);\n    }\n\n    function info() public view returns(infoStruct memory _info){\n        return infoStruct(distributor, name(), baseURI, image, audio, video, model, mintValue, maxSupply, tokenIds.current(), claimValue, unclaimed, burnable, burnValue);\n    }\n\n    function mint(address _receiver) external virtual payable returns(uint _id){\n        require(msg.value >= mintValue, \"Invalid mint value given.\");\n        require(baseURIset, \"NFT is not initialized.\");\n        require(subURIset, \"NFT is not initialized.\");\n        require(tokenIds.current() < maxSupply, \"Minting has finished.\");\n        unclaimed++;\n        tokenIds.increment();\n        _id = tokenIds.current();\n        _safeMint(_receiver, _id);\n    }\n\n    function burn(uint _tokenId) external virtual {\n        require(burnable, \"This NFT is not burnable.\");\n        require(ownerOf(_tokenId) == msg.sender);\n        _burn(_tokenId);\n        payable(msg.sender).transfer(burnValue);\n    }\n}\n\n",
  "sourcePath": "/home/stephenstb/Ratio-Labs/ratio-labs/contracts/NFTProtocol/RatioSingleNFT.sol",
  "compiler": {
    "name": "solc",
    "version": "0.8.5+commit.a4f2e591.Emscripten.clang"
  },
  "schemaVersion": "3.3.3",
  "updatedAt": "2022-06-23T03:09:19.059Z",
  "devdoc": {
    "kind": "dev",
    "methods": {
      "approve(address,uint256)": {
        "details": "See {IERC721-approve}."
      },
      "balanceOf(address)": {
        "details": "See {IERC721-balanceOf}."
      },
      "getApproved(uint256)": {
        "details": "See {IERC721-getApproved}."
      },
      "isApprovedForAll(address,address)": {
        "details": "See {IERC721-isApprovedForAll}."
      },
      "name()": {
        "details": "See {IERC721Metadata-name}."
      },
      "ownerOf(uint256)": {
        "details": "See {IERC721-ownerOf}."
      },
      "safeTransferFrom(address,address,uint256)": {
        "details": "See {IERC721-safeTransferFrom}."
      },
      "safeTransferFrom(address,address,uint256,bytes)": {
        "details": "See {IERC721-safeTransferFrom}."
      },
      "setApprovalForAll(address,bool)": {
        "details": "See {IERC721-setApprovalForAll}."
      },
      "supportsInterface(bytes4)": {
        "details": "See {IERC165-supportsInterface}."
      },
      "symbol()": {
        "details": "See {IERC721Metadata-symbol}."
      },
      "tokenByIndex(uint256)": {
        "details": "See {IERC721Enumerable-tokenByIndex}."
      },
      "tokenOfOwnerByIndex(address,uint256)": {
        "details": "See {IERC721Enumerable-tokenOfOwnerByIndex}."
      },
      "tokenURI(uint256)": {
        "details": "See {IERC721Metadata-tokenURI}."
      },
      "totalSupply()": {
        "details": "See {IERC721Enumerable-totalSupply}."
      },
      "transferFrom(address,address,uint256)": {
        "details": "See {IERC721-transferFrom}."
      }
    },
    "version": 1
  },
  "userdoc": {
    "kind": "user",
    "methods": {},
    "version": 1
  }
}