{
  "contractName": "RatioSingleNFT",
  "abi": [
    {
      "inputs": [
        {
          "internalType": "string",
          "name": "_name",
          "type": "string"
        },
        {
          "internalType": "string",
          "name": "_symbol",
          "type": "string"
        },
        {
          "internalType": "uint256",
          "name": "_supply",
          "type": "uint256"
        },
        {
          "internalType": "uint256",
          "name": "_mintValue",
          "type": "uint256"
        }
      ],
      "stateMutability": "payable",
      "type": "constructor"
    },
    {
      "anonymous": false,
      "inputs": [
        {
          "indexed": true,
          "internalType": "address",
          "name": "owner",
          "type": "address"
        },
        {
          "indexed": true,
          "internalType": "address",
          "name": "approved",
          "type": "address"
        },
        {
          "indexed": true,
          "internalType": "uint256",
          "name": "tokenId",
          "type": "uint256"
        }
      ],
      "name": "Approval",
      "type": "event"
    },
    {
      "anonymous": false,
      "inputs": [
        {
          "indexed": true,
          "internalType": "address",
          "name": "owner",
          "type": "address"
        },
        {
          "indexed": true,
          "internalType": "address",
          "name": "operator",
          "type": "address"
        },
        {
          "indexed": false,
          "internalType": "bool",
          "name": "approved",
          "type": "bool"
        }
      ],
      "name": "ApprovalForAll",
      "type": "event"
    },
    {
      "anonymous": false,
      "inputs": [
        {
          "indexed": true,
          "internalType": "address",
          "name": "from",
          "type": "address"
        },
        {
          "indexed": true,
          "internalType": "address",
          "name": "to",
          "type": "address"
        },
        {
          "indexed": true,
          "internalType": "uint256",
          "name": "tokenId",
          "type": "uint256"
        }
      ],
      "name": "Transfer",
      "type": "event"
    },
    {
      "inputs": [
        {
          "internalType": "address",
          "name": "to",
          "type": "address"
        },
        {
          "internalType": "uint256",
          "name": "tokenId",
          "type": "uint256"
        }
      ],
      "name": "approve",
      "outputs": [],
      "stateMutability": "nonpayable",
      "type": "function"
    },
    {
      "inputs": [],
      "name": "audio",
      "outputs": [
        {
          "internalType": "string",
          "name": "",
          "type": "string"
        }
      ],
      "stateMutability": "view",
      "type": "function"
    },
    {
      "inputs": [
        {
          "internalType": "address",
          "name": "owner",
          "type": "address"
        }
      ],
      "name": "balanceOf",
      "outputs": [
        {
          "internalType": "uint256",
          "name": "",
          "type": "uint256"
        }
      ],
      "stateMutability": "view",
      "type": "function"
    },
    {
      "inputs": [],
      "name": "baseURI",
      "outputs": [
        {
          "internalType": "string",
          "name": "",
          "type": "string"
        }
      ],
      "stateMutability": "view",
      "type": "function"
    },
    {
      "inputs": [],
      "name": "distributor",
      "outputs": [
        {
          "internalType": "address",
          "name": "",
          "type": "address"
        }
      ],
      "stateMutability": "view",
      "type": "function"
    },
    {
      "inputs": [
        {
          "internalType": "uint256",
          "name": "tokenId",
          "type": "uint256"
        }
      ],
      "name": "getApproved",
      "outputs": [
        {
          "internalType": "address",
          "name": "",
          "type": "address"
        }
      ],
      "stateMutability": "view",
      "type": "function"
    },
    {
      "inputs": [],
      "name": "image",
      "outputs": [
        {
          "internalType": "string",
          "name": "",
          "type": "string"
        }
      ],
      "stateMutability": "view",
      "type": "function"
    },
    {
      "inputs": [
        {
          "internalType": "address",
          "name": "owner",
          "type": "address"
        },
        {
          "internalType": "address",
          "name": "operator",
          "type": "address"
        }
      ],
      "name": "isApprovedForAll",
      "outputs": [
        {
          "internalType": "bool",
          "name": "",
          "type": "bool"
        }
      ],
      "stateMutability": "view",
      "type": "function"
    },
    {
      "inputs": [],
      "name": "maxSupply",
      "outputs": [
        {
          "internalType": "uint256",
          "name": "",
          "type": "uint256"
        }
      ],
      "stateMutability": "view",
      "type": "function"
    },
    {
      "inputs": [],
      "name": "mintValue",
      "outputs": [
        {
          "internalType": "uint256",
          "name": "",
          "type": "uint256"
        }
      ],
      "stateMutability": "view",
      "type": "function"
    },
    {
      "inputs": [],
      "name": "model",
      "outputs": [
        {
          "internalType": "string",
          "name": "",
          "type": "string"
        }
      ],
      "stateMutability": "view",
      "type": "function"
    },
    {
      "inputs": [],
      "name": "name",
      "outputs": [
        {
          "internalType": "string",
          "name": "",
          "type": "string"
        }
      ],
      "stateMutability": "view",
      "type": "function"
    },
    {
      "inputs": [
        {
          "internalType": "uint256",
          "name": "tokenId",
          "type": "uint256"
        }
      ],
      "name": "ownerOf",
      "outputs": [
        {
          "internalType": "address",
          "name": "",
          "type": "address"
        }
      ],
      "stateMutability": "view",
      "type": "function"
    },
    {
      "inputs": [
        {
          "internalType": "address",
          "name": "from",
          "type": "address"
        },
        {
          "internalType": "address",
          "name": "to",
          "type": "address"
        },
        {
          "internalType": "uint256",
          "name": "tokenId",
          "type": "uint256"
        }
      ],
      "name": "safeTransferFrom",
      "outputs": [],
      "stateMutability": "nonpayable",
      "type": "function"
    },
    {
      "inputs": [
        {
          "internalType": "address",
          "name": "from",
          "type": "address"
        },
        {
          "internalType": "address",
          "name": "to",
          "type": "address"
        },
        {
          "internalType": "uint256",
          "name": "tokenId",
          "type": "uint256"
        },
        {
          "internalType": "bytes",
          "name": "_data",
          "type": "bytes"
        }
      ],
      "name": "safeTransferFrom",
      "outputs": [],
      "stateMutability": "nonpayable",
      "type": "function"
    },
    {
      "inputs": [
        {
          "internalType": "address",
          "name": "operator",
          "type": "address"
        },
        {
          "internalType": "bool",
          "name": "approved",
          "type": "bool"
        }
      ],
      "name": "setApprovalForAll",
      "outputs": [],
      "stateMutability": "nonpayable",
      "type": "function"
    },
    {
      "inputs": [
        {
          "internalType": "bytes4",
          "name": "interfaceId",
          "type": "bytes4"
        }
      ],
      "name": "supportsInterface",
      "outputs": [
        {
          "internalType": "bool",
          "name": "",
          "type": "bool"
        }
      ],
      "stateMutability": "view",
      "type": "function"
    },
    {
      "inputs": [],
      "name": "symbol",
      "outputs": [
        {
          "internalType": "string",
          "name": "",
          "type": "string"
        }
      ],
      "stateMutability": "view",
      "type": "function"
    },
    {
      "inputs": [
        {
          "internalType": "uint256",
          "name": "index",
          "type": "uint256"
        }
      ],
      "name": "tokenByIndex",
      "outputs": [
        {
          "internalType": "uint256",
          "name": "",
          "type": "uint256"
        }
      ],
      "stateMutability": "view",
      "type": "function"
    },
    {
      "inputs": [
        {
          "internalType": "address",
          "name": "owner",
          "type": "address"
        },
        {
          "internalType": "uint256",
          "name": "index",
          "type": "uint256"
        }
      ],
      "name": "tokenOfOwnerByIndex",
      "outputs": [
        {
          "internalType": "uint256",
          "name": "",
          "type": "uint256"
        }
      ],
      "stateMutability": "view",
      "type": "function"
    },
    {
      "inputs": [
        {
          "internalType": "uint256",
          "name": "tokenId",
          "type": "uint256"
        }
      ],
      "name": "tokenURI",
      "outputs": [
        {
          "internalType": "string",
          "name": "",
          "type": "string"
        }
      ],
      "stateMutability": "view",
      "type": "function"
    },
    {
      "inputs": [],
      "name": "totalSupply",
      "outputs": [
        {
          "internalType": "uint256",
          "name": "",
          "type": "uint256"
        }
      ],
      "stateMutability": "view",
      "type": "function"
    },
    {
      "inputs": [
        {
          "internalType": "address",
          "name": "from",
          "type": "address"
        },
        {
          "internalType": "address",
          "name": "to",
          "type": "address"
        },
        {
          "internalType": "uint256",
          "name": "tokenId",
          "type": "uint256"
        }
      ],
      "name": "transferFrom",
      "outputs": [],
      "stateMutability": "nonpayable",
      "type": "function"
    },
    {
      "inputs": [],
      "name": "video",
      "outputs": [
        {
          "internalType": "string",
          "name": "",
          "type": "string"
        }
      ],
      "stateMutability": "view",
      "type": "function"
    },
    {
      "inputs": [
        {
          "internalType": "string",
          "name": "_uri",
          "type": "string"
        },
        {
          "internalType": "bool",
          "name": "_ratioProtocol",
          "type": "bool"
        },
        {
          "internalType": "address",
          "name": "_protocolAddress",
          "type": "address"
        }
      ],
      "name": "setBaseURI",
      "outputs": [],
      "stateMutability": "payable",
      "type": "function"
    },
    {
      "inputs": [
        {
          "internalType": "string",
          "name": "_image",
          "type": "string"
        },
        {
          "internalType": "string",
          "name": "_audio",
          "type": "string"
        },
        {
          "internalType": "string",
          "name": "_video",
          "type": "string"
        },
        {
          "internalType": "string",
          "name": "_model",
          "type": "string"
        }
      ],
      "name": "setSubURIs",
      "outputs": [],
      "stateMutability": "nonpayable",
      "type": "function"
    },
    {
      "inputs": [],
      "name": "info",
      "outputs": [
        {
          "internalType": "string",
          "name": "_name",
          "type": "string"
        },
        {
          "internalType": "string",
          "name": "_image",
          "type": "string"
        },
        {
          "internalType": "string",
          "name": "_audio",
          "type": "string"
        },
        {
          "internalType": "string",
          "name": "_video",
          "type": "string"
        },
        {
          "internalType": "string",
          "name": "_model",
          "type": "string"
        },
        {
          "internalType": "uint256",
          "name": "_maxSupply",
          "type": "uint256"
        },
        {
          "internalType": "uint256",
          "name": "_mintValue",
          "type": "uint256"
        },
        {
          "internalType": "uint256",
          "name": "_minted",
          "type": "uint256"
        }
      ],
      "stateMutability": "view",
      "type": "function"
    },
    {
      "inputs": [
        {
          "internalType": "address",
          "name": "_receiver",
          "type": "address"
        }
      ],
      "name": "mint",
      "outputs": [
        {
          "internalType": "uint256",
          "name": "_id",
          "type": "uint256"
        }
      ],
      "stateMutability": "payable",
      "type": "function"
    }
  ],
  "bytecode": "0x60e06040526000600f60006101000a81548160ff0219169083151502179055506000600f60016101000a81548160ff021916908315150217905550604051620048a8380380620048a883398181016040528101906200005f91906200022b565b8383816000908051906020019062000079929190620000e6565b50806001908051906020019062000092929190620000e6565b5050503373ffffffffffffffffffffffffffffffffffffffff1660808173ffffffffffffffffffffffffffffffffffffffff1660601b815250508160a081815250508060c081815250505050505062000483565b828054620000f4906200037a565b90600052602060002090601f01602090048101928262000118576000855562000164565b82601f106200013357805160ff191683800117855562000164565b8280016001018555821562000164579182015b828111156200016357825182559160200191906001019062000146565b5b50905062000173919062000177565b5090565b5b808211156200019257600081600090555060010162000178565b5090565b6000620001ad620001a78462000304565b620002db565b905082815260208101848484011115620001cc57620001cb62000449565b5b620001d984828562000344565b509392505050565b600082601f830112620001f957620001f862000444565b5b81516200020b84826020860162000196565b91505092915050565b600081519050620002258162000469565b92915050565b6000806000806080858703121562000248576200024762000453565b5b600085015167ffffffffffffffff8111156200026957620002686200044e565b5b6200027787828801620001e1565b945050602085015167ffffffffffffffff8111156200029b576200029a6200044e565b5b620002a987828801620001e1565b9350506040620002bc8782880162000214565b9250506060620002cf8782880162000214565b91505092959194509250565b6000620002e7620002fa565b9050620002f58282620003b0565b919050565b6000604051905090565b600067ffffffffffffffff82111562000322576200032162000415565b5b6200032d8262000458565b9050602081019050919050565b6000819050919050565b60005b838110156200036457808201518184015260208101905062000347565b8381111562000374576000848401525b50505050565b600060028204905060018216806200039357607f821691505b60208210811415620003aa57620003a9620003e6565b5b50919050565b620003bb8262000458565b810181811067ffffffffffffffff82111715620003dd57620003dc62000415565b5b80604052505050565b7f4e487b7100000000000000000000000000000000000000000000000000000000600052602260045260246000fd5b7f4e487b7100000000000000000000000000000000000000000000000000000000600052604160045260246000fd5b600080fd5b600080fd5b600080fd5b600080fd5b6000601f19601f8301169050919050565b62000474816200033a565b81146200048057600080fd5b50565b60805160601c60a05160c0516143c8620004e060003960008181610c08015281816110500152611327015260008181610be701528181611151015261185a01526000818161140a0152818161160c01526116ee01526143c86000f3fe6080604052600436106101b75760003560e01c80636a627842116100ec578063b88d4fde1161008a578063d52b1f5311610064578063d52b1f5314610642578063d5abeb011461065e578063e985e9c514610689578063f3ccaac0146106c6576101b7565b8063b88d4fde146105b1578063bfe10928146105da578063c87b56dd14610605576101b7565b806389c77dfe116100c657806389c77dfe1461050957806395d89b4114610534578063a22cb4651461055f578063b822fd2c14610588576101b7565b80636a627842146104715780636c0360eb146104a157806370a08231146104cc576101b7565b806323b872dd11610159578063407d223611610133578063407d2236146103a357806342842e0e146103ce5780634f6ccce7146103f75780636352211e14610434576101b7565b806323b872dd1461030b5780632f745c5914610334578063370158ea14610371576101b7565b8063095ea7b311610195578063095ea7b3146102615780630ad9d0521461028a57806311b00617146102b557806318160ddd146102e0576101b7565b806301ffc9a7146101bc57806306fdde03146101f9578063081812fc14610224575b600080fd5b3480156101c857600080fd5b506101e360048036038101906101de9190612f1c565b6106f1565b6040516101f09190613569565b60405180910390f35b34801561020557600080fd5b5061020e61076b565b60405161021b9190613584565b60405180910390f35b34801561023057600080fd5b5061024b600480360381019061024691906130bc565b6107fd565b6040516102589190613502565b60405180910390f35b34801561026d57600080fd5b5061028860048036038101906102839190612edc565b610882565b005b34801561029657600080fd5b5061029f61099a565b6040516102ac9190613584565b60405180910390f35b3480156102c157600080fd5b506102ca610a28565b6040516102d79190613584565b60405180910390f35b3480156102ec57600080fd5b506102f5610ab6565b6040516103029190613927565b60405180910390f35b34801561031757600080fd5b50610332600480360381019061032d9190612dc6565b610ac3565b005b34801561034057600080fd5b5061035b60048036038101906103569190612edc565b610b23565b6040516103689190613927565b60405180910390f35b34801561037d57600080fd5b50610386610bc8565b60405161039a9897969594939291906135a6565b60405180910390f35b3480156103af57600080fd5b506103b8610e7b565b6040516103c59190613584565b60405180910390f35b3480156103da57600080fd5b506103f560048036038101906103f09190612dc6565b610f09565b005b34801561040357600080fd5b5061041e600480360381019061041991906130bc565b610f29565b60405161042b9190613927565b60405180910390f35b34801561044057600080fd5b5061045b600480360381019061045691906130bc565b610f9a565b6040516104689190613502565b60405180910390f35b61048b60048036038101906104869190612d59565b61104c565b6040516104989190613927565b60405180910390f35b3480156104ad57600080fd5b506104b66111df565b6040516104c39190613584565b60405180910390f35b3480156104d857600080fd5b506104f360048036038101906104ee9190612d59565b61126d565b6040516105009190613927565b60405180910390f35b34801561051557600080fd5b5061051e611325565b60405161052b9190613927565b60405180910390f35b34801561054057600080fd5b50610549611349565b6040516105569190613584565b60405180910390f35b34801561056b57600080fd5b5061058660048036038101906105819190612e9c565b6113db565b005b34801561059457600080fd5b506105af60048036038101906105aa9190612fe5565b6113f1565b005b3480156105bd57600080fd5b506105d860048036038101906105d39190612e19565b6115a8565b005b3480156105e657600080fd5b506105ef61160a565b6040516105fc9190613502565b60405180910390f35b34801561061157600080fd5b5061062c600480360381019061062791906130bc565b61162e565b6040516106399190613584565b60405180910390f35b61065c60048036038101906106579190612f76565b6116d5565b005b34801561066a57600080fd5b50610673611858565b6040516106809190613927565b60405180910390f35b34801561069557600080fd5b506106b060048036038101906106ab9190612d86565b61187c565b6040516106bd9190613569565b60405180910390f35b3480156106d257600080fd5b506106db611910565b6040516106e89190613584565b60405180910390f35b60007f780e9d63000000000000000000000000000000000000000000000000000000007bffffffffffffffffffffffffffffffffffffffffffffffffffffffff1916827bffffffffffffffffffffffffffffffffffffffffffffffffffffffff1916148061076457506107638261199e565b5b9050919050565b60606000805461077a90613b7d565b80601f01602080910402602001604051908101604052809291908181526020018280546107a690613b7d565b80156107f35780601f106107c8576101008083540402835291602001916107f3565b820191906000526020600020905b8154815290600101906020018083116107d657829003601f168201915b5050505050905090565b600061080882611a80565b610847576040517f08c379a000000000000000000000000000000000000000000000000000000000815260040161083e90613807565b60405180910390fd5b6004600083815260200190815260200160002060009054906101000a900473ffffffffffffffffffffffffffffffffffffffff169050919050565b600061088d82610f9a565b90508073ffffffffffffffffffffffffffffffffffffffff168373ffffffffffffffffffffffffffffffffffffffff1614156108fe576040517f08c379a00000000000000000000000000000000000000000000000000000000081526004016108f590613867565b60405180910390fd5b8073ffffffffffffffffffffffffffffffffffffffff1661091d611aec565b73ffffffffffffffffffffffffffffffffffffffff16148061094c575061094b81610946611aec565b61187c565b5b61098b576040517f08c379a000000000000000000000000000000000000000000000000000000000815260040161098290613767565b60405180910390fd5b6109958383611af4565b505050565b600e80546109a790613b7d565b80601f01602080910402602001604051908101604052809291908181526020018280546109d390613b7d565b8015610a205780601f106109f557610100808354040283529160200191610a20565b820191906000526020600020905b815481529060010190602001808311610a0357829003601f168201915b505050505081565b600d8054610a3590613b7d565b80601f0160208091040260200160405190810160405280929190818152602001828054610a6190613b7d565b8015610aae5780601f10610a8357610100808354040283529160200191610aae565b820191906000526020600020905b815481529060010190602001808311610a9157829003601f168201915b505050505081565b6000600880549050905090565b610ad4610ace611aec565b82611bad565b610b13576040517f08c379a0000000000000000000000000000000000000000000000000000000008152600401610b0a906138a7565b60405180910390fd5b610b1e838383611c8b565b505050565b6000610b2e8361126d565b8210610b6f576040517f08c379a0000000000000000000000000000000000000000000000000000000008152600401610b6690613667565b60405180910390fd5b600660008473ffffffffffffffffffffffffffffffffffffffff1673ffffffffffffffffffffffffffffffffffffffff168152602001908152602001600020600083815260200190815260200160002054905092915050565b60608060608060606000806000610bdd61076b565b600b600c600d600e7f00000000000000000000000000000000000000000000000000000000000000007f0000000000000000000000000000000000000000000000000000000000000000610c316010611ef2565b868054610c3d90613b7d565b80601f0160208091040260200160405190810160405280929190818152602001828054610c6990613b7d565b8015610cb65780601f10610c8b57610100808354040283529160200191610cb6565b820191906000526020600020905b815481529060010190602001808311610c9957829003601f168201915b50505050509650858054610cc990613b7d565b80601f0160208091040260200160405190810160405280929190818152602001828054610cf590613b7d565b8015610d425780601f10610d1757610100808354040283529160200191610d42565b820191906000526020600020905b815481529060010190602001808311610d2557829003601f168201915b50505050509550848054610d5590613b7d565b80601f0160208091040260200160405190810160405280929190818152602001828054610d8190613b7d565b8015610dce5780601f10610da357610100808354040283529160200191610dce565b820191906000526020600020905b815481529060010190602001808311610db157829003601f168201915b50505050509450838054610de190613b7d565b80601f0160208091040260200160405190810160405280929190818152602001828054610e0d90613b7d565b8015610e5a5780601f10610e2f57610100808354040283529160200191610e5a565b820191906000526020600020905b815481529060010190602001808311610e3d57829003601f168201915b50505050509350975097509750975097509750975097509091929394959697565b600c8054610e8890613b7d565b80601f0160208091040260200160405190810160405280929190818152602001828054610eb490613b7d565b8015610f015780601f10610ed657610100808354040283529160200191610f01565b820191906000526020600020905b815481529060010190602001808311610ee457829003601f168201915b505050505081565b610f24838383604051806020016040528060008152506115a8565b505050565b6000610f33610ab6565b8210610f74576040517f08c379a0000000000000000000000000000000000000000000000000000000008152600401610f6b906138c7565b60405180910390fd5b60088281548110610f8857610f87613d16565b5b90600052602060002001549050919050565b6000806002600084815260200190815260200160002060009054906101000a900473ffffffffffffffffffffffffffffffffffffffff169050600073ffffffffffffffffffffffffffffffffffffffff168173ffffffffffffffffffffffffffffffffffffffff161415611043576040517f08c379a000000000000000000000000000000000000000000000000000000000815260040161103a906137a7565b60405180910390fd5b80915050919050565b60007f00000000000000000000000000000000000000000000000000000000000000003410156110b1576040517f08c379a00000000000000000000000000000000000000000000000000000000081526004016110a890613887565b60405180910390fd5b600f60009054906101000a900460ff16611100576040517f08c379a00000000000000000000000000000000000000000000000000000000081526004016110f7906137e7565b60405180910390fd5b600f60019054906101000a900460ff1661114f576040517f08c379a0000000000000000000000000000000000000000000000000000000008152600401611146906137e7565b60405180910390fd5b7f000000000000000000000000000000000000000000000000000000000000000061117a6010611ef2565b106111ba576040517f08c379a00000000000000000000000000000000000000000000000000000000081526004016111b190613827565b60405180910390fd5b6111c46010611f00565b6111ce6010611ef2565b90506111da8282611f16565b919050565b600a80546111ec90613b7d565b80601f016020809104026020016040519081016040528092919081815260200182805461121890613b7d565b80156112655780601f1061123a57610100808354040283529160200191611265565b820191906000526020600020905b81548152906001019060200180831161124857829003601f168201915b505050505081565b60008073ffffffffffffffffffffffffffffffffffffffff168273ffffffffffffffffffffffffffffffffffffffff1614156112de576040517f08c379a00000000000000000000000000000000000000000000000000000000081526004016112d590613787565b60405180910390fd5b600360008373ffffffffffffffffffffffffffffffffffffffff1673ffffffffffffffffffffffffffffffffffffffff168152602001908152602001600020549050919050565b7f000000000000000000000000000000000000000000000000000000000000000081565b60606001805461135890613b7d565b80601f016020809104026020016040519081016040528092919081815260200182805461138490613b7d565b80156113d15780601f106113a6576101008083540402835291602001916113d1565b820191906000526020600020905b8154815290600101906020018083116113b457829003601f168201915b5050505050905090565b6113ed6113e6611aec565b8383611f34565b5050565b3373ffffffffffffffffffffffffffffffffffffffff167f000000000000000000000000000000000000000000000000000000000000000073ffffffffffffffffffffffffffffffffffffffff161461147f576040517f08c379a000000000000000000000000000000000000000000000000000000000815260040161147690613907565b60405180910390fd5b60011515600f60009054906101000a900460ff161515146114d5576040517f08c379a00000000000000000000000000000000000000000000000000000000081526004016114cc90613727565b60405180910390fd5b60001515600f60019054906101000a900460ff1615151461152b576040517f08c379a000000000000000000000000000000000000000000000000000000000815260040161152290613647565b60405180910390fd5b83600b9080519060200190611541929190612b6d565b5082600c9080519060200190611558929190612b6d565b5081600d908051906020019061156f929190612b6d565b5080600e9080519060200190611586929190612b6d565b506001600f60016101000a81548160ff02191690831515021790555050505050565b6115b96115b3611aec565b83611bad565b6115f8576040517f08c379a00000000000000000000000000000000000000000000000000000000081526004016115ef906138a7565b60405180910390fd5b611604848484846120a1565b50505050565b7f000000000000000000000000000000000000000000000000000000000000000081565b606061163982611a80565b611678576040517f08c379a000000000000000000000000000000000000000000000000000000000815260040161166f90613847565b60405180910390fd5b60006116826120fd565b905060008151116116a257604051806020016040528060008152506116cd565b806116ac8461218f565b6040516020016116bd9291906134de565b6040516020818303038152906040525b915050919050565b3373ffffffffffffffffffffffffffffffffffffffff167f000000000000000000000000000000000000000000000000000000000000000073ffffffffffffffffffffffffffffffffffffffff1614611763576040517f08c379a000000000000000000000000000000000000000000000000000000000815260040161175a90613907565b60405180910390fd5b60001515600f60009054906101000a900460ff161515146117b9576040517f08c379a00000000000000000000000000000000000000000000000000000000081526004016117b0906138e7565b60405180910390fd5b82600a90805190602001906117cf929190612b6d565b508115611838578073ffffffffffffffffffffffffffffffffffffffff166307ec3039346040518263ffffffff1660e01b81526004016000604051808303818588803b15801561181e57600080fd5b505af1158015611832573d6000803e3d6000fd5b50505050505b6001600f60006101000a81548160ff021916908315150217905550505050565b7f000000000000000000000000000000000000000000000000000000000000000081565b6000600560008473ffffffffffffffffffffffffffffffffffffffff1673ffffffffffffffffffffffffffffffffffffffff16815260200190815260200160002060008373ffffffffffffffffffffffffffffffffffffffff1673ffffffffffffffffffffffffffffffffffffffff16815260200190815260200160002060009054906101000a900460ff16905092915050565b600b805461191d90613b7d565b80601f016020809104026020016040519081016040528092919081815260200182805461194990613b7d565b80156119965780601f1061196b57610100808354040283529160200191611996565b820191906000526020600020905b81548152906001019060200180831161197957829003601f168201915b505050505081565b60007f80ac58cd000000000000000000000000000000000000000000000000000000007bffffffffffffffffffffffffffffffffffffffffffffffffffffffff1916827bffffffffffffffffffffffffffffffffffffffffffffffffffffffff19161480611a6957507f5b5e139f000000000000000000000000000000000000000000000000000000007bffffffffffffffffffffffffffffffffffffffffffffffffffffffff1916827bffffffffffffffffffffffffffffffffffffffffffffffffffffffff1916145b80611a795750611a78826122f0565b5b9050919050565b60008073ffffffffffffffffffffffffffffffffffffffff166002600084815260200190815260200160002060009054906101000a900473ffffffffffffffffffffffffffffffffffffffff1673ffffffffffffffffffffffffffffffffffffffff1614159050919050565b600033905090565b816004600083815260200190815260200160002060006101000a81548173ffffffffffffffffffffffffffffffffffffffff021916908373ffffffffffffffffffffffffffffffffffffffff160217905550808273ffffffffffffffffffffffffffffffffffffffff16611b6783610f9a565b73ffffffffffffffffffffffffffffffffffffffff167f8c5be1e5ebec7d5bd14f71427d1e84f3dd0314c0f7b2291e5b200ac8c7c3b92560405160405180910390a45050565b6000611bb882611a80565b611bf7576040517f08c379a0000000000000000000000000000000000000000000000000000000008152600401611bee90613747565b60405180910390fd5b6000611c0283610f9a565b90508073ffffffffffffffffffffffffffffffffffffffff168473ffffffffffffffffffffffffffffffffffffffff161480611c7157508373ffffffffffffffffffffffffffffffffffffffff16611c59846107fd565b73ffffffffffffffffffffffffffffffffffffffff16145b80611c825750611c81818561187c565b5b91505092915050565b8273ffffffffffffffffffffffffffffffffffffffff16611cab82610f9a565b73ffffffffffffffffffffffffffffffffffffffff1614611d01576040517f08c379a0000000000000000000000000000000000000000000000000000000008152600401611cf8906136a7565b60405180910390fd5b600073ffffffffffffffffffffffffffffffffffffffff168273ffffffffffffffffffffffffffffffffffffffff161415611d71576040517f08c379a0000000000000000000000000000000000000000000000000000000008152600401611d68906136e7565b60405180910390fd5b611d7c83838361235a565b611d87600082611af4565b6001600360008573ffffffffffffffffffffffffffffffffffffffff1673ffffffffffffffffffffffffffffffffffffffff1681526020019081526020016000206000828254611dd79190613a93565b925050819055506001600360008473ffffffffffffffffffffffffffffffffffffffff1673ffffffffffffffffffffffffffffffffffffffff1681526020019081526020016000206000828254611e2e9190613a0c565b92505081905550816002600083815260200190815260200160002060006101000a81548173ffffffffffffffffffffffffffffffffffffffff021916908373ffffffffffffffffffffffffffffffffffffffff160217905550808273ffffffffffffffffffffffffffffffffffffffff168473ffffffffffffffffffffffffffffffffffffffff167fddf252ad1be2c89b69c2b068fc378daa952ba7f163c4a11628f55a4df523b3ef60405160405180910390a4611eed83838361246e565b505050565b600081600001549050919050565b6001816000016000828254019250508190555050565b611f30828260405180602001604052806000815250612473565b5050565b8173ffffffffffffffffffffffffffffffffffffffff168373ffffffffffffffffffffffffffffffffffffffff161415611fa3576040517f08c379a0000000000000000000000000000000000000000000000000000000008152600401611f9a90613707565b60405180910390fd5b80600560008573ffffffffffffffffffffffffffffffffffffffff1673ffffffffffffffffffffffffffffffffffffffff16815260200190815260200160002060008473ffffffffffffffffffffffffffffffffffffffff1673ffffffffffffffffffffffffffffffffffffffff16815260200190815260200160002060006101000a81548160ff0219169083151502179055508173ffffffffffffffffffffffffffffffffffffffff168373ffffffffffffffffffffffffffffffffffffffff167f17307eab39ab6107e8899845ad3d59bd9653f200f220920489ca2b5937696c31836040516120949190613569565b60405180910390a3505050565b6120ac848484611c8b565b6120b8848484846124ce565b6120f7576040517f08c379a00000000000000000000000000000000000000000000000000000000081526004016120ee90613687565b60405180910390fd5b50505050565b6060600a805461210c90613b7d565b80601f016020809104026020016040519081016040528092919081815260200182805461213890613b7d565b80156121855780601f1061215a57610100808354040283529160200191612185565b820191906000526020600020905b81548152906001019060200180831161216857829003601f168201915b5050505050905090565b606060008214156121d7576040518060400160405280600181526020017f300000000000000000000000000000000000000000000000000000000000000081525090506122eb565b600082905060005b600082146122095780806121f290613be0565b915050600a826122029190613a62565b91506121df565b60008167ffffffffffffffff81111561222557612224613d45565b5b6040519080825280601f01601f1916602001820160405280156122575781602001600182028036833780820191505090505b5090505b600085146122e4576001826122709190613a93565b9150600a8561227f9190613c29565b603061228b9190613a0c565b60f81b8183815181106122a1576122a0613d16565b5b60200101907effffffffffffffffffffffffffffffffffffffffffffffffffffffffffffff1916908160001a905350600a856122dd9190613a62565b945061225b565b8093505050505b919050565b60007f01ffc9a7000000000000000000000000000000000000000000000000000000007bffffffffffffffffffffffffffffffffffffffffffffffffffffffff1916827bffffffffffffffffffffffffffffffffffffffffffffffffffffffff1916149050919050565b612365838383612665565b600073ffffffffffffffffffffffffffffffffffffffff168373ffffffffffffffffffffffffffffffffffffffff1614156123a8576123a38161266a565b6123e7565b8173ffffffffffffffffffffffffffffffffffffffff168373ffffffffffffffffffffffffffffffffffffffff16146123e6576123e583826126b3565b5b5b600073ffffffffffffffffffffffffffffffffffffffff168273ffffffffffffffffffffffffffffffffffffffff16141561242a5761242581612820565b612469565b8273ffffffffffffffffffffffffffffffffffffffff168273ffffffffffffffffffffffffffffffffffffffff16146124685761246782826128f1565b5b5b505050565b505050565b61247d8383612970565b61248a60008484846124ce565b6124c9576040517f08c379a00000000000000000000000000000000000000000000000000000000081526004016124c090613687565b60405180910390fd5b505050565b60006124ef8473ffffffffffffffffffffffffffffffffffffffff16612b4a565b15612658578373ffffffffffffffffffffffffffffffffffffffff1663150b7a02612518611aec565b8786866040518563ffffffff1660e01b815260040161253a949392919061351d565b602060405180830381600087803b15801561255457600080fd5b505af192505050801561258557506040513d601f19601f820116820180604052508101906125829190612f49565b60015b612608573d80600081146125b5576040519150601f19603f3d011682016040523d82523d6000602084013e6125ba565b606091505b50600081511415612600576040517f08c379a00000000000000000000000000000000000000000000000000000000081526004016125f790613687565b60405180910390fd5b805181602001fd5b63150b7a0260e01b7bffffffffffffffffffffffffffffffffffffffffffffffffffffffff1916817bffffffffffffffffffffffffffffffffffffffffffffffffffffffff19161491505061265d565b600190505b949350505050565b505050565b6008805490506009600083815260200190815260200160002081905550600881908060018154018082558091505060019003906000526020600020016000909190919091505550565b600060016126c08461126d565b6126ca9190613a93565b90506000600760008481526020019081526020016000205490508181146127af576000600660008673ffffffffffffffffffffffffffffffffffffffff1673ffffffffffffffffffffffffffffffffffffffff168152602001908152602001600020600084815260200190815260200160002054905080600660008773ffffffffffffffffffffffffffffffffffffffff1673ffffffffffffffffffffffffffffffffffffffff168152602001908152602001600020600084815260200190815260200160002081905550816007600083815260200190815260200160002081905550505b6007600084815260200190815260200160002060009055600660008573ffffffffffffffffffffffffffffffffffffffff1673ffffffffffffffffffffffffffffffffffffffff16815260200190815260200160002060008381526020019081526020016000206000905550505050565b600060016008805490506128349190613a93565b905060006009600084815260200190815260200160002054905060006008838154811061286457612863613d16565b5b90600052602060002001549050806008838154811061288657612885613d16565b5b9060005260206000200181905550816009600083815260200190815260200160002081905550600960008581526020019081526020016000206000905560088054806128d5576128d4613ce7565b5b6001900381819060005260206000200160009055905550505050565b60006128fc8361126d565b905081600660008573ffffffffffffffffffffffffffffffffffffffff1673ffffffffffffffffffffffffffffffffffffffff168152602001908152602001600020600083815260200190815260200160002081905550806007600084815260200190815260200160002081905550505050565b600073ffffffffffffffffffffffffffffffffffffffff168273ffffffffffffffffffffffffffffffffffffffff1614156129e0576040517f08c379a00000000000000000000000000000000000000000000000000000000081526004016129d7906137c7565b60405180910390fd5b6129e981611a80565b15612a29576040517f08c379a0000000000000000000000000000000000000000000000000000000008152600401612a20906136c7565b60405180910390fd5b612a356000838361235a565b6001600360008473ffffffffffffffffffffffffffffffffffffffff1673ffffffffffffffffffffffffffffffffffffffff1681526020019081526020016000206000828254612a859190613a0c565b92505081905550816002600083815260200190815260200160002060006101000a81548173ffffffffffffffffffffffffffffffffffffffff021916908373ffffffffffffffffffffffffffffffffffffffff160217905550808273ffffffffffffffffffffffffffffffffffffffff16600073ffffffffffffffffffffffffffffffffffffffff167fddf252ad1be2c89b69c2b068fc378daa952ba7f163c4a11628f55a4df523b3ef60405160405180910390a4612b466000838361246e565b5050565b6000808273ffffffffffffffffffffffffffffffffffffffff163b119050919050565b828054612b7990613b7d565b90600052602060002090601f016020900481019282612b9b5760008555612be2565b82601f10612bb457805160ff1916838001178555612be2565b82800160010185558215612be2579182015b82811115612be1578251825591602001919060010190612bc6565b5b509050612bef9190612bf3565b5090565b5b80821115612c0c576000816000905550600101612bf4565b5090565b6000612c23612c1e84613967565b613942565b905082815260208101848484011115612c3f57612c3e613d79565b5b612c4a848285613b3b565b509392505050565b6000612c65612c6084613998565b613942565b905082815260208101848484011115612c8157612c80613d79565b5b612c8c848285613b3b565b509392505050565b600081359050612ca381614336565b92915050565b600081359050612cb88161434d565b92915050565b600081359050612ccd81614364565b92915050565b600081519050612ce281614364565b92915050565b600082601f830112612cfd57612cfc613d74565b5b8135612d0d848260208601612c10565b91505092915050565b600082601f830112612d2b57612d2a613d74565b5b8135612d3b848260208601612c52565b91505092915050565b600081359050612d538161437b565b92915050565b600060208284031215612d6f57612d6e613d83565b5b6000612d7d84828501612c94565b91505092915050565b60008060408385031215612d9d57612d9c613d83565b5b6000612dab85828601612c94565b9250506020612dbc85828601612c94565b9150509250929050565b600080600060608486031215612ddf57612dde613d83565b5b6000612ded86828701612c94565b9350506020612dfe86828701612c94565b9250506040612e0f86828701612d44565b9150509250925092565b60008060008060808587031215612e3357612e32613d83565b5b6000612e4187828801612c94565b9450506020612e5287828801612c94565b9350506040612e6387828801612d44565b925050606085013567ffffffffffffffff811115612e8457612e83613d7e565b5b612e9087828801612ce8565b91505092959194509250565b60008060408385031215612eb357612eb2613d83565b5b6000612ec185828601612c94565b9250506020612ed285828601612ca9565b9150509250929050565b60008060408385031215612ef357612ef2613d83565b5b6000612f0185828601612c94565b9250506020612f1285828601612d44565b9150509250929050565b600060208284031215612f3257612f31613d83565b5b6000612f4084828501612cbe565b91505092915050565b600060208284031215612f5f57612f5e613d83565b5b6000612f6d84828501612cd3565b91505092915050565b600080600060608486031215612f8f57612f8e613d83565b5b600084013567ffffffffffffffff811115612fad57612fac613d7e565b5b612fb986828701612d16565b9350506020612fca86828701612ca9565b9250506040612fdb86828701612c94565b9150509250925092565b60008060008060808587031215612fff57612ffe613d83565b5b600085013567ffffffffffffffff81111561301d5761301c613d7e565b5b61302987828801612d16565b945050602085013567ffffffffffffffff81111561304a57613049613d7e565b5b61305687828801612d16565b935050604085013567ffffffffffffffff81111561307757613076613d7e565b5b61308387828801612d16565b925050606085013567ffffffffffffffff8111156130a4576130a3613d7e565b5b6130b087828801612d16565b91505092959194509250565b6000602082840312156130d2576130d1613d83565b5b60006130e084828501612d44565b91505092915050565b6130f281613ac7565b82525050565b61310181613ad9565b82525050565b6000613112826139c9565b61311c81856139df565b935061312c818560208601613b4a565b61313581613d88565b840191505092915050565b600061314b826139d4565b61315581856139f0565b9350613165818560208601613b4a565b61316e81613d88565b840191505092915050565b6000613184826139d4565b61318e8185613a01565b935061319e818560208601613b4a565b80840191505092915050565b60006131b7601f836139f0565b91506131c282613d99565b602082019050919050565b60006131da602b836139f0565b91506131e582613dc2565b604082019050919050565b60006131fd6032836139f0565b915061320882613e11565b604082019050919050565b60006132206025836139f0565b915061322b82613e60565b604082019050919050565b6000613243601c836139f0565b915061324e82613eaf565b602082019050919050565b60006132666024836139f0565b915061327182613ed8565b604082019050919050565b60006132896019836139f0565b915061329482613f27565b602082019050919050565b60006132ac601a836139f0565b91506132b782613f50565b602082019050919050565b60006132cf602c836139f0565b91506132da82613f79565b604082019050919050565b60006132f26038836139f0565b91506132fd82613fc8565b604082019050919050565b6000613315602a836139f0565b915061332082614017565b604082019050919050565b60006133386029836139f0565b915061334382614066565b604082019050919050565b600061335b6020836139f0565b9150613366826140b5565b602082019050919050565b600061337e6017836139f0565b9150613389826140de565b602082019050919050565b60006133a1602c836139f0565b91506133ac82614107565b604082019050919050565b60006133c46015836139f0565b91506133cf82614156565b602082019050919050565b60006133e7602f836139f0565b91506133f28261417f565b604082019050919050565b600061340a6021836139f0565b9150613415826141ce565b604082019050919050565b600061342d6019836139f0565b91506134388261421d565b602082019050919050565b60006134506031836139f0565b915061345b82614246565b604082019050919050565b6000613473602c836139f0565b915061347e82614295565b604082019050919050565b6000613496601e836139f0565b91506134a1826142e4565b602082019050919050565b60006134b9601c836139f0565b91506134c48261430d565b602082019050919050565b6134d881613b31565b82525050565b60006134ea8285613179565b91506134f68284613179565b91508190509392505050565b600060208201905061351760008301846130e9565b92915050565b600060808201905061353260008301876130e9565b61353f60208301866130e9565b61354c60408301856134cf565b818103606083015261355e8184613107565b905095945050505050565b600060208201905061357e60008301846130f8565b92915050565b6000602082019050818103600083015261359e8184613140565b905092915050565b60006101008201905081810360008301526135c1818b613140565b905081810360208301526135d5818a613140565b905081810360408301526135e98189613140565b905081810360608301526135fd8188613140565b905081810360808301526136118187613140565b905061362060a08301866134cf565b61362d60c08301856134cf565b61363a60e08301846134cf565b9998505050505050505050565b60006020820190508181036000830152613660816131aa565b9050919050565b60006020820190508181036000830152613680816131cd565b9050919050565b600060208201905081810360008301526136a0816131f0565b9050919050565b600060208201905081810360008301526136c081613213565b9050919050565b600060208201905081810360008301526136e081613236565b9050919050565b6000602082019050818103600083015261370081613259565b9050919050565b600060208201905081810360008301526137208161327c565b9050919050565b600060208201905081810360008301526137408161329f565b9050919050565b60006020820190508181036000830152613760816132c2565b9050919050565b60006020820190508181036000830152613780816132e5565b9050919050565b600060208201905081810360008301526137a081613308565b9050919050565b600060208201905081810360008301526137c08161332b565b9050919050565b600060208201905081810360008301526137e08161334e565b9050919050565b6000602082019050818103600083015261380081613371565b9050919050565b6000602082019050818103600083015261382081613394565b9050919050565b60006020820190508181036000830152613840816133b7565b9050919050565b60006020820190508181036000830152613860816133da565b9050919050565b60006020820190508181036000830152613880816133fd565b9050919050565b600060208201905081810360008301526138a081613420565b9050919050565b600060208201905081810360008301526138c081613443565b9050919050565b600060208201905081810360008301526138e081613466565b9050919050565b6000602082019050818103600083015261390081613489565b9050919050565b60006020820190508181036000830152613920816134ac565b9050919050565b600060208201905061393c60008301846134cf565b92915050565b600061394c61395d565b90506139588282613baf565b919050565b6000604051905090565b600067ffffffffffffffff82111561398257613981613d45565b5b61398b82613d88565b9050602081019050919050565b600067ffffffffffffffff8211156139b3576139b2613d45565b5b6139bc82613d88565b9050602081019050919050565b600081519050919050565b600081519050919050565b600082825260208201905092915050565b600082825260208201905092915050565b600081905092915050565b6000613a1782613b31565b9150613a2283613b31565b9250827fffffffffffffffffffffffffffffffffffffffffffffffffffffffffffffffff03821115613a5757613a56613c5a565b5b828201905092915050565b6000613a6d82613b31565b9150613a7883613b31565b925082613a8857613a87613c89565b5b828204905092915050565b6000613a9e82613b31565b9150613aa983613b31565b925082821015613abc57613abb613c5a565b5b828203905092915050565b6000613ad282613b11565b9050919050565b60008115159050919050565b60007fffffffff0000000000000000000000000000000000000000000000000000000082169050919050565b600073ffffffffffffffffffffffffffffffffffffffff82169050919050565b6000819050919050565b82818337600083830152505050565b60005b83811015613b68578082015181840152602081019050613b4d565b83811115613b77576000848401525b50505050565b60006002820490506001821680613b9557607f821691505b60208210811415613ba957613ba8613cb8565b5b50919050565b613bb882613d88565b810181811067ffffffffffffffff82111715613bd757613bd6613d45565b5b80604052505050565b6000613beb82613b31565b91507fffffffffffffffffffffffffffffffffffffffffffffffffffffffffffffffff821415613c1e57613c1d613c5a565b5b600182019050919050565b6000613c3482613b31565b9150613c3f83613b31565b925082613c4f57613c4e613c89565b5b828206905092915050565b7f4e487b7100000000000000000000000000000000000000000000000000000000600052601160045260246000fd5b7f4e487b7100000000000000000000000000000000000000000000000000000000600052601260045260246000fd5b7f4e487b7100000000000000000000000000000000000000000000000000000000600052602260045260246000fd5b7f4e487b7100000000000000000000000000000000000000000000000000000000600052603160045260246000fd5b7f4e487b7100000000000000000000000000000000000000000000000000000000600052603260045260246000fd5b7f4e487b7100000000000000000000000000000000000000000000000000000000600052604160045260246000fd5b600080fd5b600080fd5b600080fd5b600080fd5b6000601f19601f8301169050919050565b7f5375622055524973206861766520616c7265616479206265656e207365742e00600082015250565b7f455243373231456e756d657261626c653a206f776e657220696e646578206f7560008201527f74206f6620626f756e6473000000000000000000000000000000000000000000602082015250565b7f4552433732313a207472616e7366657220746f206e6f6e20455243373231526560008201527f63656976657220696d706c656d656e7465720000000000000000000000000000602082015250565b7f4552433732313a207472616e736665722066726f6d20696e636f72726563742060008201527f6f776e6572000000000000000000000000000000000000000000000000000000602082015250565b7f4552433732313a20746f6b656e20616c7265616479206d696e74656400000000600082015250565b7f4552433732313a207472616e7366657220746f20746865207a65726f2061646460008201527f7265737300000000000000000000000000000000000000000000000000000000602082015250565b7f4552433732313a20617070726f766520746f2063616c6c657200000000000000600082015250565b7f426173652055524920686173206e6f74206265656e207365742e000000000000600082015250565b7f4552433732313a206f70657261746f7220717565727920666f72206e6f6e657860008201527f697374656e7420746f6b656e0000000000000000000000000000000000000000602082015250565b7f4552433732313a20617070726f76652063616c6c6572206973206e6f74206f7760008201527f6e6572206e6f7220617070726f76656420666f7220616c6c0000000000000000602082015250565b7f4552433732313a2062616c616e636520717565727920666f7220746865207a6560008201527f726f206164647265737300000000000000000000000000000000000000000000602082015250565b7f4552433732313a206f776e657220717565727920666f72206e6f6e657869737460008201527f656e7420746f6b656e0000000000000000000000000000000000000000000000602082015250565b7f4552433732313a206d696e7420746f20746865207a65726f2061646472657373600082015250565b7f4e4654206973206e6f7420696e697469616c697a65642e000000000000000000600082015250565b7f4552433732313a20617070726f76656420717565727920666f72206e6f6e657860008201527f697374656e7420746f6b656e0000000000000000000000000000000000000000602082015250565b7f4d696e74696e67206861732066696e69736865642e0000000000000000000000600082015250565b7f4552433732314d657461646174613a2055524920717565727920666f72206e6f60008201527f6e6578697374656e7420746f6b656e0000000000000000000000000000000000602082015250565b7f4552433732313a20617070726f76616c20746f2063757272656e74206f776e6560008201527f7200000000000000000000000000000000000000000000000000000000000000602082015250565b7f496e76616c6964206d696e742076616c756520676976656e2e00000000000000600082015250565b7f4552433732313a207472616e736665722063616c6c6572206973206e6f74206f60008201527f776e6572206e6f7220617070726f766564000000000000000000000000000000602082015250565b7f455243373231456e756d657261626c653a20676c6f62616c20696e646578206f60008201527f7574206f6620626f756e64730000000000000000000000000000000000000000602082015250565b7f42617365205552492068617320616c7265616479206265656e207365742e0000600082015250565b7f496e76616c6964206469737472696275746f7220616464726573732e00000000600082015250565b61433f81613ac7565b811461434a57600080fd5b50565b61435681613ad9565b811461436157600080fd5b50565b61436d81613ae5565b811461437857600080fd5b50565b61438481613b31565b811461438f57600080fd5b5056fea264697066735822122031c31d2c916f40739c85f317cc8bf52c52c71d5c8a78227fe4e1c9369835124064736f6c63430008050033",
  "immutableReferences": {
    "1003": [
      {
        "length": 32,
        "start": 5130
      },
      {
        "length": 32,
        "start": 5644
      },
      {
        "length": 32,
        "start": 5870
      }
    ],
    "1005": [
      {
        "length": 32,
        "start": 3047
      },
      {
        "length": 32,
        "start": 4433
      },
      {
        "length": 32,
        "start": 6234
      }
    ],
    "1007": [
      {
        "length": 32,
        "start": 3080
      },
      {
        "length": 32,
        "start": 4176
      },
      {
        "length": 32,
        "start": 4903
      }
    ]
  },
  "source": "// SPDX-License-Identifier: BUSL-1.1\npragma solidity ^0.8.2;\n\nimport \"@openzeppelin/contracts/token/ERC721/extensions/ERC721Enumerable.sol\";\n\nimport \"@openzeppelin/contracts/access/Ownable.sol\";\n\nimport \"@openzeppelin/contracts/utils/Counters.sol\";\n\nimport \"./NFTProtocol.sol\";\n\ncontract RatioSingleNFT is ERC721Enumerable{\n\n    using Counters for Counters.Counter;\n\n    // Distributor.\n    address public immutable distributor;\n\n    // NFT creation variables.\n    uint public immutable maxSupply;\n\n    uint public immutable mintValue;\n\n    // URI Variables.\n    string public baseURI;\n\n    string public image;\n\n    string public audio;\n\n    string public video;\n\n    string public model;\n\n    // URI limiters\n    bool baseURIset = false;\n\n    bool subURIset = false;\n\n    Counters.Counter private tokenIds;\n\n    modifier onlyDistributor(){\n        require(distributor == msg.sender, \"Invalid distributor address.\");\n        _;\n    }\n\n    constructor(string memory _name, string memory _symbol, uint _supply, uint _mintValue)payable ERC721(_name, _symbol){\n        distributor = msg.sender;\n        maxSupply = _supply;\n        mintValue = _mintValue;\n    }\n\n    function _baseURI() internal override view returns (string memory){\n         return baseURI;\n    }\n\n    function setBaseURI(string memory _uri, bool _ratioProtocol, address _protocolAddress)public  payable onlyDistributor{\n        require(baseURIset == false, \"Base URI has already been set.\");\n        baseURI = _uri;\n        if(_ratioProtocol){\n            NFTProtocol(_protocolAddress).requestVerification{value: msg.value}();\n        }\n        baseURIset = true;\n    }\n\n    function setSubURIs(string memory _image, string memory _audio, string memory _video, string memory _model) public onlyDistributor{\n        require(baseURIset == true, \"Base URI has not been set.\");\n        require(subURIset == false, \"Sub URIs have already been set.\");\n        image = _image;\n        audio = _audio;\n        video = _video;\n        model = _model;\n        subURIset = true;\n    }\n\n    function info() public view returns(string memory _name, string memory _image, string memory _audio, string memory _video, string memory _model, uint _maxSupply, uint _mintValue, uint _minted){\n        return (name(), image, audio, video, model, maxSupply, mintValue, tokenIds.current());\n    }\n\n    function mint(address _receiver) external virtual payable returns(uint _id){\n        require(msg.value >= mintValue, \"Invalid mint value given.\");\n        require(baseURIset, \"NFT is not initialized.\");\n        require(subURIset, \"NFT is not initialized.\");\n        require(tokenIds.current() < maxSupply, \"Minting has finished.\");\n        tokenIds.increment();\n        _id = tokenIds.current();\n        _safeMint(_receiver, _id);\n    }\n\n}\n\n",
  "sourcePath": "/home/stephenstb/Ratio/ratio/contracts/NFTProtocol/RatioSingleNFT.sol",
  "compiler": {
    "name": "solc",
    "version": "0.8.5+commit.a4f2e591.Emscripten.clang"
  },
  "schemaVersion": "3.3.3",
  "updatedAt": "2022-05-06T01:45:47.278Z",
  "devdoc": {
    "kind": "dev",
    "methods": {
      "approve(address,uint256)": {
        "details": "See {IERC721-approve}."
      },
      "balanceOf(address)": {
        "details": "See {IERC721-balanceOf}."
      },
      "getApproved(uint256)": {
        "details": "See {IERC721-getApproved}."
      },
      "isApprovedForAll(address,address)": {
        "details": "See {IERC721-isApprovedForAll}."
      },
      "name()": {
        "details": "See {IERC721Metadata-name}."
      },
      "ownerOf(uint256)": {
        "details": "See {IERC721-ownerOf}."
      },
      "safeTransferFrom(address,address,uint256)": {
        "details": "See {IERC721-safeTransferFrom}."
      },
      "safeTransferFrom(address,address,uint256,bytes)": {
        "details": "See {IERC721-safeTransferFrom}."
      },
      "setApprovalForAll(address,bool)": {
        "details": "See {IERC721-setApprovalForAll}."
      },
      "supportsInterface(bytes4)": {
        "details": "See {IERC165-supportsInterface}."
      },
      "symbol()": {
        "details": "See {IERC721Metadata-symbol}."
      },
      "tokenByIndex(uint256)": {
        "details": "See {IERC721Enumerable-tokenByIndex}."
      },
      "tokenOfOwnerByIndex(address,uint256)": {
        "details": "See {IERC721Enumerable-tokenOfOwnerByIndex}."
      },
      "tokenURI(uint256)": {
        "details": "See {IERC721Metadata-tokenURI}."
      },
      "totalSupply()": {
        "details": "See {IERC721Enumerable-totalSupply}."
      },
      "transferFrom(address,address,uint256)": {
        "details": "See {IERC721-transferFrom}."
      }
    },
    "version": 1
  },
  "userdoc": {
    "kind": "user",
    "methods": {},
    "version": 1
  }
}