{
  "contractName": "RatioSingleNFT",
  "abi": [
    {
      "inputs": [
        {
          "internalType": "string",
          "name": "_name",
          "type": "string"
        },
        {
          "internalType": "string",
          "name": "_symbol",
          "type": "string"
        },
        {
          "internalType": "uint256",
          "name": "_supply",
          "type": "uint256"
        },
        {
          "internalType": "uint256",
          "name": "_mintValue",
          "type": "uint256"
        }
      ],
      "stateMutability": "payable",
      "type": "constructor"
    },
    {
      "anonymous": false,
      "inputs": [
        {
          "indexed": true,
          "internalType": "address",
          "name": "owner",
          "type": "address"
        },
        {
          "indexed": true,
          "internalType": "address",
          "name": "approved",
          "type": "address"
        },
        {
          "indexed": true,
          "internalType": "uint256",
          "name": "tokenId",
          "type": "uint256"
        }
      ],
      "name": "Approval",
      "type": "event"
    },
    {
      "anonymous": false,
      "inputs": [
        {
          "indexed": true,
          "internalType": "address",
          "name": "owner",
          "type": "address"
        },
        {
          "indexed": true,
          "internalType": "address",
          "name": "operator",
          "type": "address"
        },
        {
          "indexed": false,
          "internalType": "bool",
          "name": "approved",
          "type": "bool"
        }
      ],
      "name": "ApprovalForAll",
      "type": "event"
    },
    {
      "anonymous": false,
      "inputs": [
        {
          "indexed": true,
          "internalType": "address",
          "name": "from",
          "type": "address"
        },
        {
          "indexed": true,
          "internalType": "address",
          "name": "to",
          "type": "address"
        },
        {
          "indexed": true,
          "internalType": "uint256",
          "name": "tokenId",
          "type": "uint256"
        }
      ],
      "name": "Transfer",
      "type": "event"
    },
    {
      "inputs": [
        {
          "internalType": "address",
          "name": "to",
          "type": "address"
        },
        {
          "internalType": "uint256",
          "name": "tokenId",
          "type": "uint256"
        }
      ],
      "name": "approve",
      "outputs": [],
      "stateMutability": "nonpayable",
      "type": "function"
    },
    {
      "inputs": [],
      "name": "audio",
      "outputs": [
        {
          "internalType": "string",
          "name": "",
          "type": "string"
        }
      ],
      "stateMutability": "view",
      "type": "function"
    },
    {
      "inputs": [
        {
          "internalType": "address",
          "name": "owner",
          "type": "address"
        }
      ],
      "name": "balanceOf",
      "outputs": [
        {
          "internalType": "uint256",
          "name": "",
          "type": "uint256"
        }
      ],
      "stateMutability": "view",
      "type": "function"
    },
    {
      "inputs": [],
      "name": "baseURI",
      "outputs": [
        {
          "internalType": "string",
          "name": "",
          "type": "string"
        }
      ],
      "stateMutability": "view",
      "type": "function"
    },
    {
      "inputs": [],
      "name": "distributor",
      "outputs": [
        {
          "internalType": "address",
          "name": "",
          "type": "address"
        }
      ],
      "stateMutability": "view",
      "type": "function"
    },
    {
      "inputs": [
        {
          "internalType": "uint256",
          "name": "tokenId",
          "type": "uint256"
        }
      ],
      "name": "getApproved",
      "outputs": [
        {
          "internalType": "address",
          "name": "",
          "type": "address"
        }
      ],
      "stateMutability": "view",
      "type": "function"
    },
    {
      "inputs": [],
      "name": "image",
      "outputs": [
        {
          "internalType": "string",
          "name": "",
          "type": "string"
        }
      ],
      "stateMutability": "view",
      "type": "function"
    },
    {
      "inputs": [
        {
          "internalType": "address",
          "name": "owner",
          "type": "address"
        },
        {
          "internalType": "address",
          "name": "operator",
          "type": "address"
        }
      ],
      "name": "isApprovedForAll",
      "outputs": [
        {
          "internalType": "bool",
          "name": "",
          "type": "bool"
        }
      ],
      "stateMutability": "view",
      "type": "function"
    },
    {
      "inputs": [],
      "name": "maxSupply",
      "outputs": [
        {
          "internalType": "uint256",
          "name": "",
          "type": "uint256"
        }
      ],
      "stateMutability": "view",
      "type": "function"
    },
    {
      "inputs": [],
      "name": "mintValue",
      "outputs": [
        {
          "internalType": "uint256",
          "name": "",
          "type": "uint256"
        }
      ],
      "stateMutability": "view",
      "type": "function"
    },
    {
      "inputs": [],
      "name": "model",
      "outputs": [
        {
          "internalType": "string",
          "name": "",
          "type": "string"
        }
      ],
      "stateMutability": "view",
      "type": "function"
    },
    {
      "inputs": [],
      "name": "name",
      "outputs": [
        {
          "internalType": "string",
          "name": "",
          "type": "string"
        }
      ],
      "stateMutability": "view",
      "type": "function"
    },
    {
      "inputs": [
        {
          "internalType": "uint256",
          "name": "tokenId",
          "type": "uint256"
        }
      ],
      "name": "ownerOf",
      "outputs": [
        {
          "internalType": "address",
          "name": "",
          "type": "address"
        }
      ],
      "stateMutability": "view",
      "type": "function"
    },
    {
      "inputs": [
        {
          "internalType": "address",
          "name": "from",
          "type": "address"
        },
        {
          "internalType": "address",
          "name": "to",
          "type": "address"
        },
        {
          "internalType": "uint256",
          "name": "tokenId",
          "type": "uint256"
        }
      ],
      "name": "safeTransferFrom",
      "outputs": [],
      "stateMutability": "nonpayable",
      "type": "function"
    },
    {
      "inputs": [
        {
          "internalType": "address",
          "name": "from",
          "type": "address"
        },
        {
          "internalType": "address",
          "name": "to",
          "type": "address"
        },
        {
          "internalType": "uint256",
          "name": "tokenId",
          "type": "uint256"
        },
        {
          "internalType": "bytes",
          "name": "_data",
          "type": "bytes"
        }
      ],
      "name": "safeTransferFrom",
      "outputs": [],
      "stateMutability": "nonpayable",
      "type": "function"
    },
    {
      "inputs": [
        {
          "internalType": "address",
          "name": "operator",
          "type": "address"
        },
        {
          "internalType": "bool",
          "name": "approved",
          "type": "bool"
        }
      ],
      "name": "setApprovalForAll",
      "outputs": [],
      "stateMutability": "nonpayable",
      "type": "function"
    },
    {
      "inputs": [
        {
          "internalType": "bytes4",
          "name": "interfaceId",
          "type": "bytes4"
        }
      ],
      "name": "supportsInterface",
      "outputs": [
        {
          "internalType": "bool",
          "name": "",
          "type": "bool"
        }
      ],
      "stateMutability": "view",
      "type": "function"
    },
    {
      "inputs": [],
      "name": "symbol",
      "outputs": [
        {
          "internalType": "string",
          "name": "",
          "type": "string"
        }
      ],
      "stateMutability": "view",
      "type": "function"
    },
    {
      "inputs": [
        {
          "internalType": "uint256",
          "name": "index",
          "type": "uint256"
        }
      ],
      "name": "tokenByIndex",
      "outputs": [
        {
          "internalType": "uint256",
          "name": "",
          "type": "uint256"
        }
      ],
      "stateMutability": "view",
      "type": "function"
    },
    {
      "inputs": [
        {
          "internalType": "address",
          "name": "owner",
          "type": "address"
        },
        {
          "internalType": "uint256",
          "name": "index",
          "type": "uint256"
        }
      ],
      "name": "tokenOfOwnerByIndex",
      "outputs": [
        {
          "internalType": "uint256",
          "name": "",
          "type": "uint256"
        }
      ],
      "stateMutability": "view",
      "type": "function"
    },
    {
      "inputs": [
        {
          "internalType": "uint256",
          "name": "tokenId",
          "type": "uint256"
        }
      ],
      "name": "tokenURI",
      "outputs": [
        {
          "internalType": "string",
          "name": "",
          "type": "string"
        }
      ],
      "stateMutability": "view",
      "type": "function"
    },
    {
      "inputs": [],
      "name": "totalSupply",
      "outputs": [
        {
          "internalType": "uint256",
          "name": "",
          "type": "uint256"
        }
      ],
      "stateMutability": "view",
      "type": "function"
    },
    {
      "inputs": [
        {
          "internalType": "address",
          "name": "from",
          "type": "address"
        },
        {
          "internalType": "address",
          "name": "to",
          "type": "address"
        },
        {
          "internalType": "uint256",
          "name": "tokenId",
          "type": "uint256"
        }
      ],
      "name": "transferFrom",
      "outputs": [],
      "stateMutability": "nonpayable",
      "type": "function"
    },
    {
      "inputs": [],
      "name": "video",
      "outputs": [
        {
          "internalType": "string",
          "name": "",
          "type": "string"
        }
      ],
      "stateMutability": "view",
      "type": "function"
    },
    {
      "inputs": [
        {
          "internalType": "string",
          "name": "_uri",
          "type": "string"
        },
        {
          "internalType": "bool",
          "name": "_ratioProtocol",
          "type": "bool"
        },
        {
          "internalType": "address",
          "name": "_protocolAddress",
          "type": "address"
        }
      ],
      "name": "setBaseURI",
      "outputs": [],
      "stateMutability": "payable",
      "type": "function"
    },
    {
      "inputs": [
        {
          "internalType": "string",
          "name": "_image",
          "type": "string"
        },
        {
          "internalType": "string",
          "name": "_audio",
          "type": "string"
        },
        {
          "internalType": "string",
          "name": "_video",
          "type": "string"
        },
        {
          "internalType": "string",
          "name": "_model",
          "type": "string"
        }
      ],
      "name": "setSubURIs",
      "outputs": [],
      "stateMutability": "nonpayable",
      "type": "function"
    },
    {
      "inputs": [],
      "name": "mintInfo",
      "outputs": [
        {
          "internalType": "uint256",
          "name": "_maxSupply",
          "type": "uint256"
        },
        {
          "internalType": "uint256",
          "name": "_mintValue",
          "type": "uint256"
        },
        {
          "internalType": "uint256",
          "name": "_minted",
          "type": "uint256"
        },
        {
          "internalType": "string",
          "name": "_name",
          "type": "string"
        }
      ],
      "stateMutability": "view",
      "type": "function"
    },
    {
      "inputs": [],
      "name": "info",
      "outputs": [
        {
          "internalType": "uint256",
          "name": "_maxSupply",
          "type": "uint256"
        },
        {
          "internalType": "uint256",
          "name": "_mintValue",
          "type": "uint256"
        },
        {
          "internalType": "uint256",
          "name": "_minted",
          "type": "uint256"
        },
        {
          "internalType": "string",
          "name": "_name",
          "type": "string"
        },
        {
          "internalType": "string",
          "name": "_image",
          "type": "string"
        },
        {
          "internalType": "string",
          "name": "_audio",
          "type": "string"
        },
        {
          "internalType": "string",
          "name": "_video",
          "type": "string"
        },
        {
          "internalType": "string",
          "name": "_model",
          "type": "string"
        }
      ],
      "stateMutability": "view",
      "type": "function"
    },
    {
      "inputs": [
        {
          "internalType": "address",
          "name": "_receiver",
          "type": "address"
        }
      ],
      "name": "mint",
      "outputs": [
        {
          "internalType": "uint256",
          "name": "_id",
          "type": "uint256"
        }
      ],
      "stateMutability": "payable",
      "type": "function"
    }
  ],
  "bytecode": "0x60e06040526000600f60006101000a81548160ff0219169083151502179055506000600f60016101000a81548160ff021916908315150217905550604051620049983803806200499883398181016040528101906200005f91906200022b565b8383816000908051906020019062000079929190620000e6565b50806001908051906020019062000092929190620000e6565b5050503373ffffffffffffffffffffffffffffffffffffffff1660808173ffffffffffffffffffffffffffffffffffffffff1660601b815250508160a081815250508060c081815250505050505062000483565b828054620000f4906200037a565b90600052602060002090601f01602090048101928262000118576000855562000164565b82601f106200013357805160ff191683800117855562000164565b8280016001018555821562000164579182015b828111156200016357825182559160200191906001019062000146565b5b50905062000173919062000177565b5090565b5b808211156200019257600081600090555060010162000178565b5090565b6000620001ad620001a78462000304565b620002db565b905082815260208101848484011115620001cc57620001cb62000449565b5b620001d984828562000344565b509392505050565b600082601f830112620001f957620001f862000444565b5b81516200020b84826020860162000196565b91505092915050565b600081519050620002258162000469565b92915050565b6000806000806080858703121562000248576200024762000453565b5b600085015167ffffffffffffffff8111156200026957620002686200044e565b5b6200027787828801620001e1565b945050602085015167ffffffffffffffff8111156200029b576200029a6200044e565b5b620002a987828801620001e1565b9350506040620002bc8782880162000214565b9250506060620002cf8782880162000214565b91505092959194509250565b6000620002e7620002fa565b9050620002f58282620003b0565b919050565b6000604051905090565b600067ffffffffffffffff82111562000322576200032162000415565b5b6200032d8262000458565b9050602081019050919050565b6000819050919050565b60005b838110156200036457808201518184015260208101905062000347565b8381111562000374576000848401525b50505050565b600060028204905060018216806200039357607f821691505b60208210811415620003aa57620003a9620003e6565b5b50919050565b620003bb8262000458565b810181811067ffffffffffffffff82111715620003dd57620003dc62000415565b5b80604052505050565b7f4e487b7100000000000000000000000000000000000000000000000000000000600052602260045260246000fd5b7f4e487b7100000000000000000000000000000000000000000000000000000000600052604160045260246000fd5b600080fd5b600080fd5b600080fd5b600080fd5b6000601f19601f8301169050919050565b62000474816200033a565b81146200048057600080fd5b50565b60805160601c60a05160c0516144aa620004ee60003960008181610b8601528181610ee4015281816110e601526113bd015260008181610b6501528181610ec3015281816111e701526118f00152600081816114a0015281816116a2015261178401526144aa6000f3fe6080604052600436106101c25760003560e01c80636352211e116100f7578063b822fd2c11610095578063d52b1f5311610064578063d52b1f531461067b578063d5abeb0114610697578063e985e9c5146106c2578063f3ccaac0146106ff576101c2565b8063b822fd2c146105c1578063b88d4fde146105ea578063bfe1092814610613578063c87b56dd1461063e576101c2565b806370a08231116100d157806370a082311461050557806389c77dfe1461054257806395d89b411461056d578063a22cb46514610598576101c2565b80636352211e1461046d5780636a627842146104aa5780636c0360eb146104da576101c2565b806323b872dd11610164578063370158ea1161013e578063370158ea146103aa578063407d2236146103dc57806342842e0e146104075780634f6ccce714610430576101c2565b806323b872dd146103165780632b2910581461033f5780632f745c591461036d576101c2565b8063095ea7b3116101a0578063095ea7b31461026c5780630ad9d0521461029557806311b00617146102c057806318160ddd146102eb576101c2565b806301ffc9a7146101c757806306fdde0314610204578063081812fc1461022f575b600080fd5b3480156101d357600080fd5b506101ee60048036038101906101e99190612fb2565b61072a565b6040516101fb91906135ff565b60405180910390f35b34801561021057600080fd5b506102196107a4565b604051610226919061361a565b60405180910390f35b34801561023b57600080fd5b5061025660048036038101906102519190613152565b610836565b6040516102639190613598565b60405180910390f35b34801561027857600080fd5b50610293600480360381019061028e9190612f72565b6108bb565b005b3480156102a157600080fd5b506102aa6109d3565b6040516102b7919061361a565b60405180910390f35b3480156102cc57600080fd5b506102d5610a61565b6040516102e2919061361a565b60405180910390f35b3480156102f757600080fd5b50610300610aef565b60405161030d919061391c565b60405180910390f35b34801561032257600080fd5b5061033d60048036038101906103389190612e5c565b610afc565b005b34801561034b57600080fd5b50610354610b5c565b6040516103649493929190613937565b60405180910390f35b34801561037957600080fd5b50610394600480360381019061038f9190612f72565b610bc5565b6040516103a1919061391c565b60405180910390f35b3480156103b657600080fd5b506103bf610c6a565b6040516103d3989796959493929190613983565b60405180910390f35b3480156103e857600080fd5b506103f1610f11565b6040516103fe919061361a565b60405180910390f35b34801561041357600080fd5b5061042e60048036038101906104299190612e5c565b610f9f565b005b34801561043c57600080fd5b5061045760048036038101906104529190613152565b610fbf565b604051610464919061391c565b60405180910390f35b34801561047957600080fd5b50610494600480360381019061048f9190613152565b611030565b6040516104a19190613598565b60405180910390f35b6104c460048036038101906104bf9190612def565b6110e2565b6040516104d1919061391c565b60405180910390f35b3480156104e657600080fd5b506104ef611275565b6040516104fc919061361a565b60405180910390f35b34801561051157600080fd5b5061052c60048036038101906105279190612def565b611303565b604051610539919061391c565b60405180910390f35b34801561054e57600080fd5b506105576113bb565b604051610564919061391c565b60405180910390f35b34801561057957600080fd5b506105826113df565b60405161058f919061361a565b60405180910390f35b3480156105a457600080fd5b506105bf60048036038101906105ba9190612f32565b611471565b005b3480156105cd57600080fd5b506105e860048036038101906105e3919061307b565b611487565b005b3480156105f657600080fd5b50610611600480360381019061060c9190612eaf565b61163e565b005b34801561061f57600080fd5b506106286116a0565b6040516106359190613598565b60405180910390f35b34801561064a57600080fd5b5061066560048036038101906106609190613152565b6116c4565b604051610672919061361a565b60405180910390f35b6106956004803603810190610690919061300c565b61176b565b005b3480156106a357600080fd5b506106ac6118ee565b6040516106b9919061391c565b60405180910390f35b3480156106ce57600080fd5b506106e960048036038101906106e49190612e1c565b611912565b6040516106f691906135ff565b60405180910390f35b34801561070b57600080fd5b506107146119a6565b604051610721919061361a565b60405180910390f35b60007f780e9d63000000000000000000000000000000000000000000000000000000007bffffffffffffffffffffffffffffffffffffffffffffffffffffffff1916827bffffffffffffffffffffffffffffffffffffffffffffffffffffffff1916148061079d575061079c82611a34565b5b9050919050565b6060600080546107b390613c5f565b80601f01602080910402602001604051908101604052809291908181526020018280546107df90613c5f565b801561082c5780601f106108015761010080835404028352916020019161082c565b820191906000526020600020905b81548152906001019060200180831161080f57829003601f168201915b5050505050905090565b600061084182611b16565b610880576040517f08c379a0000000000000000000000000000000000000000000000000000000008152600401610877906137fc565b60405180910390fd5b6004600083815260200190815260200160002060009054906101000a900473ffffffffffffffffffffffffffffffffffffffff169050919050565b60006108c682611030565b90508073ffffffffffffffffffffffffffffffffffffffff168373ffffffffffffffffffffffffffffffffffffffff161415610937576040517f08c379a000000000000000000000000000000000000000000000000000000000815260040161092e9061385c565b60405180910390fd5b8073ffffffffffffffffffffffffffffffffffffffff16610956611b82565b73ffffffffffffffffffffffffffffffffffffffff16148061098557506109848161097f611b82565b611912565b5b6109c4576040517f08c379a00000000000000000000000000000000000000000000000000000000081526004016109bb9061375c565b60405180910390fd5b6109ce8383611b8a565b505050565b600e80546109e090613c5f565b80601f0160208091040260200160405190810160405280929190818152602001828054610a0c90613c5f565b8015610a595780601f10610a2e57610100808354040283529160200191610a59565b820191906000526020600020905b815481529060010190602001808311610a3c57829003601f168201915b505050505081565b600d8054610a6e90613c5f565b80601f0160208091040260200160405190810160405280929190818152602001828054610a9a90613c5f565b8015610ae75780601f10610abc57610100808354040283529160200191610ae7565b820191906000526020600020905b815481529060010190602001808311610aca57829003601f168201915b505050505081565b6000600880549050905090565b610b0d610b07611b82565b82611c43565b610b4c576040517f08c379a0000000000000000000000000000000000000000000000000000000008152600401610b439061389c565b60405180910390fd5b610b57838383611d21565b505050565b600080600060607f00000000000000000000000000000000000000000000000000000000000000007f0000000000000000000000000000000000000000000000000000000000000000610baf6010611f88565b610bb76107a4565b935093509350935090919293565b6000610bd083611303565b8210610c11576040517f08c379a0000000000000000000000000000000000000000000000000000000008152600401610c089061365c565b60405180910390fd5b600660008473ffffffffffffffffffffffffffffffffffffffff1673ffffffffffffffffffffffffffffffffffffffff168152602001908152602001600020600083815260200190815260200160002054905092915050565b60008060006060806060806060610c816010611f88565b9550610c8b6107a4565b9450600b8054610c9a90613c5f565b80601f0160208091040260200160405190810160405280929190818152602001828054610cc690613c5f565b8015610d135780601f10610ce857610100808354040283529160200191610d13565b820191906000526020600020905b815481529060010190602001808311610cf657829003601f168201915b50505050509350600c8054610d2790613c5f565b80601f0160208091040260200160405190810160405280929190818152602001828054610d5390613c5f565b8015610da05780601f10610d7557610100808354040283529160200191610da0565b820191906000526020600020905b815481529060010190602001808311610d8357829003601f168201915b50505050509250600d8054610db490613c5f565b80601f0160208091040260200160405190810160405280929190818152602001828054610de090613c5f565b8015610e2d5780601f10610e0257610100808354040283529160200191610e2d565b820191906000526020600020905b815481529060010190602001808311610e1057829003601f168201915b50505050509150600e8054610e4190613c5f565b80601f0160208091040260200160405190810160405280929190818152602001828054610e6d90613c5f565b8015610eba5780601f10610e8f57610100808354040283529160200191610eba565b820191906000526020600020905b815481529060010190602001808311610e9d57829003601f168201915b505050505090507f00000000000000000000000000000000000000000000000000000000000000007f0000000000000000000000000000000000000000000000000000000000000000975097509091929394959697565b600c8054610f1e90613c5f565b80601f0160208091040260200160405190810160405280929190818152602001828054610f4a90613c5f565b8015610f975780601f10610f6c57610100808354040283529160200191610f97565b820191906000526020600020905b815481529060010190602001808311610f7a57829003601f168201915b505050505081565b610fba8383836040518060200160405280600081525061163e565b505050565b6000610fc9610aef565b821061100a576040517f08c379a0000000000000000000000000000000000000000000000000000000008152600401611001906138bc565b60405180910390fd5b6008828154811061101e5761101d613df8565b5b90600052602060002001549050919050565b6000806002600084815260200190815260200160002060009054906101000a900473ffffffffffffffffffffffffffffffffffffffff169050600073ffffffffffffffffffffffffffffffffffffffff168173ffffffffffffffffffffffffffffffffffffffff1614156110d9576040517f08c379a00000000000000000000000000000000000000000000000000000000081526004016110d09061379c565b60405180910390fd5b80915050919050565b60007f0000000000000000000000000000000000000000000000000000000000000000341015611147576040517f08c379a000000000000000000000000000000000000000000000000000000000815260040161113e9061387c565b60405180910390fd5b600f60009054906101000a900460ff16611196576040517f08c379a000000000000000000000000000000000000000000000000000000000815260040161118d906137dc565b60405180910390fd5b600f60019054906101000a900460ff166111e5576040517f08c379a00000000000000000000000000000000000000000000000000000000081526004016111dc906137dc565b60405180910390fd5b7f00000000000000000000000000000000000000000000000000000000000000006112106010611f88565b10611250576040517f08c379a00000000000000000000000000000000000000000000000000000000081526004016112479061381c565b60405180910390fd5b61125a6010611f96565b6112646010611f88565b90506112708282611fac565b919050565b600a805461128290613c5f565b80601f01602080910402602001604051908101604052809291908181526020018280546112ae90613c5f565b80156112fb5780601f106112d0576101008083540402835291602001916112fb565b820191906000526020600020905b8154815290600101906020018083116112de57829003601f168201915b505050505081565b60008073ffffffffffffffffffffffffffffffffffffffff168273ffffffffffffffffffffffffffffffffffffffff161415611374576040517f08c379a000000000000000000000000000000000000000000000000000000000815260040161136b9061377c565b60405180910390fd5b600360008373ffffffffffffffffffffffffffffffffffffffff1673ffffffffffffffffffffffffffffffffffffffff168152602001908152602001600020549050919050565b7f000000000000000000000000000000000000000000000000000000000000000081565b6060600180546113ee90613c5f565b80601f016020809104026020016040519081016040528092919081815260200182805461141a90613c5f565b80156114675780601f1061143c57610100808354040283529160200191611467565b820191906000526020600020905b81548152906001019060200180831161144a57829003601f168201915b5050505050905090565b61148361147c611b82565b8383611fca565b5050565b3373ffffffffffffffffffffffffffffffffffffffff167f000000000000000000000000000000000000000000000000000000000000000073ffffffffffffffffffffffffffffffffffffffff1614611515576040517f08c379a000000000000000000000000000000000000000000000000000000000815260040161150c906138fc565b60405180910390fd5b60011515600f60009054906101000a900460ff1615151461156b576040517f08c379a00000000000000000000000000000000000000000000000000000000081526004016115629061371c565b60405180910390fd5b60001515600f60019054906101000a900460ff161515146115c1576040517f08c379a00000000000000000000000000000000000000000000000000000000081526004016115b89061363c565b60405180910390fd5b83600b90805190602001906115d7929190612c03565b5082600c90805190602001906115ee929190612c03565b5081600d9080519060200190611605929190612c03565b5080600e908051906020019061161c929190612c03565b506001600f60016101000a81548160ff02191690831515021790555050505050565b61164f611649611b82565b83611c43565b61168e576040517f08c379a00000000000000000000000000000000000000000000000000000000081526004016116859061389c565b60405180910390fd5b61169a84848484612137565b50505050565b7f000000000000000000000000000000000000000000000000000000000000000081565b60606116cf82611b16565b61170e576040517f08c379a00000000000000000000000000000000000000000000000000000000081526004016117059061383c565b60405180910390fd5b6000611718612193565b905060008151116117385760405180602001604052806000815250611763565b8061174284612225565b604051602001611753929190613574565b6040516020818303038152906040525b915050919050565b3373ffffffffffffffffffffffffffffffffffffffff167f000000000000000000000000000000000000000000000000000000000000000073ffffffffffffffffffffffffffffffffffffffff16146117f9576040517f08c379a00000000000000000000000000000000000000000000000000000000081526004016117f0906138fc565b60405180910390fd5b60001515600f60009054906101000a900460ff1615151461184f576040517f08c379a0000000000000000000000000000000000000000000000000000000008152600401611846906138dc565b60405180910390fd5b82600a9080519060200190611865929190612c03565b5081156118ce578073ffffffffffffffffffffffffffffffffffffffff166307ec3039346040518263ffffffff1660e01b81526004016000604051808303818588803b1580156118b457600080fd5b505af11580156118c8573d6000803e3d6000fd5b50505050505b6001600f60006101000a81548160ff021916908315150217905550505050565b7f000000000000000000000000000000000000000000000000000000000000000081565b6000600560008473ffffffffffffffffffffffffffffffffffffffff1673ffffffffffffffffffffffffffffffffffffffff16815260200190815260200160002060008373ffffffffffffffffffffffffffffffffffffffff1673ffffffffffffffffffffffffffffffffffffffff16815260200190815260200160002060009054906101000a900460ff16905092915050565b600b80546119b390613c5f565b80601f01602080910402602001604051908101604052809291908181526020018280546119df90613c5f565b8015611a2c5780601f10611a0157610100808354040283529160200191611a2c565b820191906000526020600020905b815481529060010190602001808311611a0f57829003601f168201915b505050505081565b60007f80ac58cd000000000000000000000000000000000000000000000000000000007bffffffffffffffffffffffffffffffffffffffffffffffffffffffff1916827bffffffffffffffffffffffffffffffffffffffffffffffffffffffff19161480611aff57507f5b5e139f000000000000000000000000000000000000000000000000000000007bffffffffffffffffffffffffffffffffffffffffffffffffffffffff1916827bffffffffffffffffffffffffffffffffffffffffffffffffffffffff1916145b80611b0f5750611b0e82612386565b5b9050919050565b60008073ffffffffffffffffffffffffffffffffffffffff166002600084815260200190815260200160002060009054906101000a900473ffffffffffffffffffffffffffffffffffffffff1673ffffffffffffffffffffffffffffffffffffffff1614159050919050565b600033905090565b816004600083815260200190815260200160002060006101000a81548173ffffffffffffffffffffffffffffffffffffffff021916908373ffffffffffffffffffffffffffffffffffffffff160217905550808273ffffffffffffffffffffffffffffffffffffffff16611bfd83611030565b73ffffffffffffffffffffffffffffffffffffffff167f8c5be1e5ebec7d5bd14f71427d1e84f3dd0314c0f7b2291e5b200ac8c7c3b92560405160405180910390a45050565b6000611c4e82611b16565b611c8d576040517f08c379a0000000000000000000000000000000000000000000000000000000008152600401611c849061373c565b60405180910390fd5b6000611c9883611030565b90508073ffffffffffffffffffffffffffffffffffffffff168473ffffffffffffffffffffffffffffffffffffffff161480611d0757508373ffffffffffffffffffffffffffffffffffffffff16611cef84610836565b73ffffffffffffffffffffffffffffffffffffffff16145b80611d185750611d178185611912565b5b91505092915050565b8273ffffffffffffffffffffffffffffffffffffffff16611d4182611030565b73ffffffffffffffffffffffffffffffffffffffff1614611d97576040517f08c379a0000000000000000000000000000000000000000000000000000000008152600401611d8e9061369c565b60405180910390fd5b600073ffffffffffffffffffffffffffffffffffffffff168273ffffffffffffffffffffffffffffffffffffffff161415611e07576040517f08c379a0000000000000000000000000000000000000000000000000000000008152600401611dfe906136dc565b60405180910390fd5b611e128383836123f0565b611e1d600082611b8a565b6001600360008573ffffffffffffffffffffffffffffffffffffffff1673ffffffffffffffffffffffffffffffffffffffff1681526020019081526020016000206000828254611e6d9190613b75565b925050819055506001600360008473ffffffffffffffffffffffffffffffffffffffff1673ffffffffffffffffffffffffffffffffffffffff1681526020019081526020016000206000828254611ec49190613aee565b92505081905550816002600083815260200190815260200160002060006101000a81548173ffffffffffffffffffffffffffffffffffffffff021916908373ffffffffffffffffffffffffffffffffffffffff160217905550808273ffffffffffffffffffffffffffffffffffffffff168473ffffffffffffffffffffffffffffffffffffffff167fddf252ad1be2c89b69c2b068fc378daa952ba7f163c4a11628f55a4df523b3ef60405160405180910390a4611f83838383612504565b505050565b600081600001549050919050565b6001816000016000828254019250508190555050565b611fc6828260405180602001604052806000815250612509565b5050565b8173ffffffffffffffffffffffffffffffffffffffff168373ffffffffffffffffffffffffffffffffffffffff161415612039576040517f08c379a0000000000000000000000000000000000000000000000000000000008152600401612030906136fc565b60405180910390fd5b80600560008573ffffffffffffffffffffffffffffffffffffffff1673ffffffffffffffffffffffffffffffffffffffff16815260200190815260200160002060008473ffffffffffffffffffffffffffffffffffffffff1673ffffffffffffffffffffffffffffffffffffffff16815260200190815260200160002060006101000a81548160ff0219169083151502179055508173ffffffffffffffffffffffffffffffffffffffff168373ffffffffffffffffffffffffffffffffffffffff167f17307eab39ab6107e8899845ad3d59bd9653f200f220920489ca2b5937696c318360405161212a91906135ff565b60405180910390a3505050565b612142848484611d21565b61214e84848484612564565b61218d576040517f08c379a00000000000000000000000000000000000000000000000000000000081526004016121849061367c565b60405180910390fd5b50505050565b6060600a80546121a290613c5f565b80601f01602080910402602001604051908101604052809291908181526020018280546121ce90613c5f565b801561221b5780601f106121f05761010080835404028352916020019161221b565b820191906000526020600020905b8154815290600101906020018083116121fe57829003601f168201915b5050505050905090565b6060600082141561226d576040518060400160405280600181526020017f30000000000000000000000000000000000000000000000000000000000000008152509050612381565b600082905060005b6000821461229f57808061228890613cc2565b915050600a826122989190613b44565b9150612275565b60008167ffffffffffffffff8111156122bb576122ba613e27565b5b6040519080825280601f01601f1916602001820160405280156122ed5781602001600182028036833780820191505090505b5090505b6000851461237a576001826123069190613b75565b9150600a856123159190613d0b565b60306123219190613aee565b60f81b81838151811061233757612336613df8565b5b60200101907effffffffffffffffffffffffffffffffffffffffffffffffffffffffffffff1916908160001a905350600a856123739190613b44565b94506122f1565b8093505050505b919050565b60007f01ffc9a7000000000000000000000000000000000000000000000000000000007bffffffffffffffffffffffffffffffffffffffffffffffffffffffff1916827bffffffffffffffffffffffffffffffffffffffffffffffffffffffff1916149050919050565b6123fb8383836126fb565b600073ffffffffffffffffffffffffffffffffffffffff168373ffffffffffffffffffffffffffffffffffffffff16141561243e5761243981612700565b61247d565b8173ffffffffffffffffffffffffffffffffffffffff168373ffffffffffffffffffffffffffffffffffffffff161461247c5761247b8382612749565b5b5b600073ffffffffffffffffffffffffffffffffffffffff168273ffffffffffffffffffffffffffffffffffffffff1614156124c0576124bb816128b6565b6124ff565b8273ffffffffffffffffffffffffffffffffffffffff168273ffffffffffffffffffffffffffffffffffffffff16146124fe576124fd8282612987565b5b5b505050565b505050565b6125138383612a06565b6125206000848484612564565b61255f576040517f08c379a00000000000000000000000000000000000000000000000000000000081526004016125569061367c565b60405180910390fd5b505050565b60006125858473ffffffffffffffffffffffffffffffffffffffff16612be0565b156126ee578373ffffffffffffffffffffffffffffffffffffffff1663150b7a026125ae611b82565b8786866040518563ffffffff1660e01b81526004016125d094939291906135b3565b602060405180830381600087803b1580156125ea57600080fd5b505af192505050801561261b57506040513d601f19601f820116820180604052508101906126189190612fdf565b60015b61269e573d806000811461264b576040519150601f19603f3d011682016040523d82523d6000602084013e612650565b606091505b50600081511415612696576040517f08c379a000000000000000000000000000000000000000000000000000000000815260040161268d9061367c565b60405180910390fd5b805181602001fd5b63150b7a0260e01b7bffffffffffffffffffffffffffffffffffffffffffffffffffffffff1916817bffffffffffffffffffffffffffffffffffffffffffffffffffffffff1916149150506126f3565b600190505b949350505050565b505050565b6008805490506009600083815260200190815260200160002081905550600881908060018154018082558091505060019003906000526020600020016000909190919091505550565b6000600161275684611303565b6127609190613b75565b9050600060076000848152602001908152602001600020549050818114612845576000600660008673ffffffffffffffffffffffffffffffffffffffff1673ffffffffffffffffffffffffffffffffffffffff168152602001908152602001600020600084815260200190815260200160002054905080600660008773ffffffffffffffffffffffffffffffffffffffff1673ffffffffffffffffffffffffffffffffffffffff168152602001908152602001600020600084815260200190815260200160002081905550816007600083815260200190815260200160002081905550505b6007600084815260200190815260200160002060009055600660008573ffffffffffffffffffffffffffffffffffffffff1673ffffffffffffffffffffffffffffffffffffffff16815260200190815260200160002060008381526020019081526020016000206000905550505050565b600060016008805490506128ca9190613b75565b90506000600960008481526020019081526020016000205490506000600883815481106128fa576128f9613df8565b5b90600052602060002001549050806008838154811061291c5761291b613df8565b5b90600052602060002001819055508160096000838152602001908152602001600020819055506009600085815260200190815260200160002060009055600880548061296b5761296a613dc9565b5b6001900381819060005260206000200160009055905550505050565b600061299283611303565b905081600660008573ffffffffffffffffffffffffffffffffffffffff1673ffffffffffffffffffffffffffffffffffffffff168152602001908152602001600020600083815260200190815260200160002081905550806007600084815260200190815260200160002081905550505050565b600073ffffffffffffffffffffffffffffffffffffffff168273ffffffffffffffffffffffffffffffffffffffff161415612a76576040517f08c379a0000000000000000000000000000000000000000000000000000000008152600401612a6d906137bc565b60405180910390fd5b612a7f81611b16565b15612abf576040517f08c379a0000000000000000000000000000000000000000000000000000000008152600401612ab6906136bc565b60405180910390fd5b612acb600083836123f0565b6001600360008473ffffffffffffffffffffffffffffffffffffffff1673ffffffffffffffffffffffffffffffffffffffff1681526020019081526020016000206000828254612b1b9190613aee565b92505081905550816002600083815260200190815260200160002060006101000a81548173ffffffffffffffffffffffffffffffffffffffff021916908373ffffffffffffffffffffffffffffffffffffffff160217905550808273ffffffffffffffffffffffffffffffffffffffff16600073ffffffffffffffffffffffffffffffffffffffff167fddf252ad1be2c89b69c2b068fc378daa952ba7f163c4a11628f55a4df523b3ef60405160405180910390a4612bdc60008383612504565b5050565b6000808273ffffffffffffffffffffffffffffffffffffffff163b119050919050565b828054612c0f90613c5f565b90600052602060002090601f016020900481019282612c315760008555612c78565b82601f10612c4a57805160ff1916838001178555612c78565b82800160010185558215612c78579182015b82811115612c77578251825591602001919060010190612c5c565b5b509050612c859190612c89565b5090565b5b80821115612ca2576000816000905550600101612c8a565b5090565b6000612cb9612cb484613a49565b613a24565b905082815260208101848484011115612cd557612cd4613e5b565b5b612ce0848285613c1d565b509392505050565b6000612cfb612cf684613a7a565b613a24565b905082815260208101848484011115612d1757612d16613e5b565b5b612d22848285613c1d565b509392505050565b600081359050612d3981614418565b92915050565b600081359050612d4e8161442f565b92915050565b600081359050612d6381614446565b92915050565b600081519050612d7881614446565b92915050565b600082601f830112612d9357612d92613e56565b5b8135612da3848260208601612ca6565b91505092915050565b600082601f830112612dc157612dc0613e56565b5b8135612dd1848260208601612ce8565b91505092915050565b600081359050612de98161445d565b92915050565b600060208284031215612e0557612e04613e65565b5b6000612e1384828501612d2a565b91505092915050565b60008060408385031215612e3357612e32613e65565b5b6000612e4185828601612d2a565b9250506020612e5285828601612d2a565b9150509250929050565b600080600060608486031215612e7557612e74613e65565b5b6000612e8386828701612d2a565b9350506020612e9486828701612d2a565b9250506040612ea586828701612dda565b9150509250925092565b60008060008060808587031215612ec957612ec8613e65565b5b6000612ed787828801612d2a565b9450506020612ee887828801612d2a565b9350506040612ef987828801612dda565b925050606085013567ffffffffffffffff811115612f1a57612f19613e60565b5b612f2687828801612d7e565b91505092959194509250565b60008060408385031215612f4957612f48613e65565b5b6000612f5785828601612d2a565b9250506020612f6885828601612d3f565b9150509250929050565b60008060408385031215612f8957612f88613e65565b5b6000612f9785828601612d2a565b9250506020612fa885828601612dda565b9150509250929050565b600060208284031215612fc857612fc7613e65565b5b6000612fd684828501612d54565b91505092915050565b600060208284031215612ff557612ff4613e65565b5b600061300384828501612d69565b91505092915050565b60008060006060848603121561302557613024613e65565b5b600084013567ffffffffffffffff81111561304357613042613e60565b5b61304f86828701612dac565b935050602061306086828701612d3f565b925050604061307186828701612d2a565b9150509250925092565b6000806000806080858703121561309557613094613e65565b5b600085013567ffffffffffffffff8111156130b3576130b2613e60565b5b6130bf87828801612dac565b945050602085013567ffffffffffffffff8111156130e0576130df613e60565b5b6130ec87828801612dac565b935050604085013567ffffffffffffffff81111561310d5761310c613e60565b5b61311987828801612dac565b925050606085013567ffffffffffffffff81111561313a57613139613e60565b5b61314687828801612dac565b91505092959194509250565b60006020828403121561316857613167613e65565b5b600061317684828501612dda565b91505092915050565b61318881613ba9565b82525050565b61319781613bbb565b82525050565b60006131a882613aab565b6131b28185613ac1565b93506131c2818560208601613c2c565b6131cb81613e6a565b840191505092915050565b60006131e182613ab6565b6131eb8185613ad2565b93506131fb818560208601613c2c565b61320481613e6a565b840191505092915050565b600061321a82613ab6565b6132248185613ae3565b9350613234818560208601613c2c565b80840191505092915050565b600061324d601f83613ad2565b915061325882613e7b565b602082019050919050565b6000613270602b83613ad2565b915061327b82613ea4565b604082019050919050565b6000613293603283613ad2565b915061329e82613ef3565b604082019050919050565b60006132b6602583613ad2565b91506132c182613f42565b604082019050919050565b60006132d9601c83613ad2565b91506132e482613f91565b602082019050919050565b60006132fc602483613ad2565b915061330782613fba565b604082019050919050565b600061331f601983613ad2565b915061332a82614009565b602082019050919050565b6000613342601a83613ad2565b915061334d82614032565b602082019050919050565b6000613365602c83613ad2565b91506133708261405b565b604082019050919050565b6000613388603883613ad2565b9150613393826140aa565b604082019050919050565b60006133ab602a83613ad2565b91506133b6826140f9565b604082019050919050565b60006133ce602983613ad2565b91506133d982614148565b604082019050919050565b60006133f1602083613ad2565b91506133fc82614197565b602082019050919050565b6000613414601783613ad2565b915061341f826141c0565b602082019050919050565b6000613437602c83613ad2565b9150613442826141e9565b604082019050919050565b600061345a601583613ad2565b915061346582614238565b602082019050919050565b600061347d602f83613ad2565b915061348882614261565b604082019050919050565b60006134a0602183613ad2565b91506134ab826142b0565b604082019050919050565b60006134c3601983613ad2565b91506134ce826142ff565b602082019050919050565b60006134e6603183613ad2565b91506134f182614328565b604082019050919050565b6000613509602c83613ad2565b915061351482614377565b604082019050919050565b600061352c601e83613ad2565b9150613537826143c6565b602082019050919050565b600061354f601c83613ad2565b915061355a826143ef565b602082019050919050565b61356e81613c13565b82525050565b6000613580828561320f565b915061358c828461320f565b91508190509392505050565b60006020820190506135ad600083018461317f565b92915050565b60006080820190506135c8600083018761317f565b6135d5602083018661317f565b6135e26040830185613565565b81810360608301526135f4818461319d565b905095945050505050565b6000602082019050613614600083018461318e565b92915050565b6000602082019050818103600083015261363481846131d6565b905092915050565b6000602082019050818103600083015261365581613240565b9050919050565b6000602082019050818103600083015261367581613263565b9050919050565b6000602082019050818103600083015261369581613286565b9050919050565b600060208201905081810360008301526136b5816132a9565b9050919050565b600060208201905081810360008301526136d5816132cc565b9050919050565b600060208201905081810360008301526136f5816132ef565b9050919050565b6000602082019050818103600083015261371581613312565b9050919050565b6000602082019050818103600083015261373581613335565b9050919050565b6000602082019050818103600083015261375581613358565b9050919050565b600060208201905081810360008301526137758161337b565b9050919050565b600060208201905081810360008301526137958161339e565b9050919050565b600060208201905081810360008301526137b5816133c1565b9050919050565b600060208201905081810360008301526137d5816133e4565b9050919050565b600060208201905081810360008301526137f581613407565b9050919050565b600060208201905081810360008301526138158161342a565b9050919050565b600060208201905081810360008301526138358161344d565b9050919050565b6000602082019050818103600083015261385581613470565b9050919050565b6000602082019050818103600083015261387581613493565b9050919050565b60006020820190508181036000830152613895816134b6565b9050919050565b600060208201905081810360008301526138b5816134d9565b9050919050565b600060208201905081810360008301526138d5816134fc565b9050919050565b600060208201905081810360008301526138f58161351f565b9050919050565b6000602082019050818103600083015261391581613542565b9050919050565b60006020820190506139316000830184613565565b92915050565b600060808201905061394c6000830187613565565b6139596020830186613565565b6139666040830185613565565b818103606083015261397881846131d6565b905095945050505050565b600061010082019050613999600083018b613565565b6139a6602083018a613565565b6139b36040830189613565565b81810360608301526139c581886131d6565b905081810360808301526139d981876131d6565b905081810360a08301526139ed81866131d6565b905081810360c0830152613a0181856131d6565b905081810360e0830152613a1581846131d6565b90509998505050505050505050565b6000613a2e613a3f565b9050613a3a8282613c91565b919050565b6000604051905090565b600067ffffffffffffffff821115613a6457613a63613e27565b5b613a6d82613e6a565b9050602081019050919050565b600067ffffffffffffffff821115613a9557613a94613e27565b5b613a9e82613e6a565b9050602081019050919050565b600081519050919050565b600081519050919050565b600082825260208201905092915050565b600082825260208201905092915050565b600081905092915050565b6000613af982613c13565b9150613b0483613c13565b9250827fffffffffffffffffffffffffffffffffffffffffffffffffffffffffffffffff03821115613b3957613b38613d3c565b5b828201905092915050565b6000613b4f82613c13565b9150613b5a83613c13565b925082613b6a57613b69613d6b565b5b828204905092915050565b6000613b8082613c13565b9150613b8b83613c13565b925082821015613b9e57613b9d613d3c565b5b828203905092915050565b6000613bb482613bf3565b9050919050565b60008115159050919050565b60007fffffffff0000000000000000000000000000000000000000000000000000000082169050919050565b600073ffffffffffffffffffffffffffffffffffffffff82169050919050565b6000819050919050565b82818337600083830152505050565b60005b83811015613c4a578082015181840152602081019050613c2f565b83811115613c59576000848401525b50505050565b60006002820490506001821680613c7757607f821691505b60208210811415613c8b57613c8a613d9a565b5b50919050565b613c9a82613e6a565b810181811067ffffffffffffffff82111715613cb957613cb8613e27565b5b80604052505050565b6000613ccd82613c13565b91507fffffffffffffffffffffffffffffffffffffffffffffffffffffffffffffffff821415613d0057613cff613d3c565b5b600182019050919050565b6000613d1682613c13565b9150613d2183613c13565b925082613d3157613d30613d6b565b5b828206905092915050565b7f4e487b7100000000000000000000000000000000000000000000000000000000600052601160045260246000fd5b7f4e487b7100000000000000000000000000000000000000000000000000000000600052601260045260246000fd5b7f4e487b7100000000000000000000000000000000000000000000000000000000600052602260045260246000fd5b7f4e487b7100000000000000000000000000000000000000000000000000000000600052603160045260246000fd5b7f4e487b7100000000000000000000000000000000000000000000000000000000600052603260045260246000fd5b7f4e487b7100000000000000000000000000000000000000000000000000000000600052604160045260246000fd5b600080fd5b600080fd5b600080fd5b600080fd5b6000601f19601f8301169050919050565b7f5375622055524973206861766520616c7265616479206265656e207365742e00600082015250565b7f455243373231456e756d657261626c653a206f776e657220696e646578206f7560008201527f74206f6620626f756e6473000000000000000000000000000000000000000000602082015250565b7f4552433732313a207472616e7366657220746f206e6f6e20455243373231526560008201527f63656976657220696d706c656d656e7465720000000000000000000000000000602082015250565b7f4552433732313a207472616e736665722066726f6d20696e636f72726563742060008201527f6f776e6572000000000000000000000000000000000000000000000000000000602082015250565b7f4552433732313a20746f6b656e20616c7265616479206d696e74656400000000600082015250565b7f4552433732313a207472616e7366657220746f20746865207a65726f2061646460008201527f7265737300000000000000000000000000000000000000000000000000000000602082015250565b7f4552433732313a20617070726f766520746f2063616c6c657200000000000000600082015250565b7f426173652055524920686173206e6f74206265656e207365742e000000000000600082015250565b7f4552433732313a206f70657261746f7220717565727920666f72206e6f6e657860008201527f697374656e7420746f6b656e0000000000000000000000000000000000000000602082015250565b7f4552433732313a20617070726f76652063616c6c6572206973206e6f74206f7760008201527f6e6572206e6f7220617070726f76656420666f7220616c6c0000000000000000602082015250565b7f4552433732313a2062616c616e636520717565727920666f7220746865207a6560008201527f726f206164647265737300000000000000000000000000000000000000000000602082015250565b7f4552433732313a206f776e657220717565727920666f72206e6f6e657869737460008201527f656e7420746f6b656e0000000000000000000000000000000000000000000000602082015250565b7f4552433732313a206d696e7420746f20746865207a65726f2061646472657373600082015250565b7f4e4654206973206e6f7420696e697469616c697a65642e000000000000000000600082015250565b7f4552433732313a20617070726f76656420717565727920666f72206e6f6e657860008201527f697374656e7420746f6b656e0000000000000000000000000000000000000000602082015250565b7f4d696e74696e67206861732066696e69736865642e0000000000000000000000600082015250565b7f4552433732314d657461646174613a2055524920717565727920666f72206e6f60008201527f6e6578697374656e7420746f6b656e0000000000000000000000000000000000602082015250565b7f4552433732313a20617070726f76616c20746f2063757272656e74206f776e6560008201527f7200000000000000000000000000000000000000000000000000000000000000602082015250565b7f496e76616c6964206d696e742076616c756520676976656e2e00000000000000600082015250565b7f4552433732313a207472616e736665722063616c6c6572206973206e6f74206f60008201527f776e6572206e6f7220617070726f766564000000000000000000000000000000602082015250565b7f455243373231456e756d657261626c653a20676c6f62616c20696e646578206f60008201527f7574206f6620626f756e64730000000000000000000000000000000000000000602082015250565b7f42617365205552492068617320616c7265616479206265656e207365742e0000600082015250565b7f496e76616c6964206469737472696275746f7220616464726573732e00000000600082015250565b61442181613ba9565b811461442c57600080fd5b50565b61443881613bbb565b811461444357600080fd5b50565b61444f81613bc7565b811461445a57600080fd5b50565b61446681613c13565b811461447157600080fd5b5056fea26469706673582212209e340e730fa202501e6d6582ca95a53da47f3fd5020f8e4ba204c1a67345617764736f6c63430008050033",
  "immutableReferences": {
    "970": [
      {
        "length": 32,
        "start": 5280
      },
      {
        "length": 32,
        "start": 5794
      },
      {
        "length": 32,
        "start": 6020
      }
    ],
    "972": [
      {
        "length": 32,
        "start": 2917
      },
      {
        "length": 32,
        "start": 3779
      },
      {
        "length": 32,
        "start": 4583
      },
      {
        "length": 32,
        "start": 6384
      }
    ],
    "974": [
      {
        "length": 32,
        "start": 2950
      },
      {
        "length": 32,
        "start": 3812
      },
      {
        "length": 32,
        "start": 4326
      },
      {
        "length": 32,
        "start": 5053
      }
    ]
  },
  "source": "// SPDX-License-Identifier: BUSL-1.1\npragma solidity ^0.8.5;\n\nimport \"@openzeppelin/contracts/token/ERC721/extensions/ERC721Enumerable.sol\";\n\nimport \"@openzeppelin/contracts/access/Ownable.sol\";\n\nimport \"@openzeppelin/contracts/utils/Counters.sol\";\n\nimport \"./NFTProtocol.sol\";\n\ncontract RatioSingleNFT is ERC721Enumerable{\n\n    using Counters for Counters.Counter;\n\n    // Distributor.\n    address public immutable distributor;\n\n    // NFT creation variables.\n    uint public immutable maxSupply;\n\n    uint public immutable mintValue;\n\n    // URI Variables.\n    string public baseURI;\n\n    string public image;\n\n    string public audio;\n\n    string public video;\n\n    string public model;\n\n    // URI limiters\n    bool baseURIset = false;\n\n    bool subURIset = false;\n\n    Counters.Counter private tokenIds;\n\n    modifier onlyDistributor(){\n        require(distributor == msg.sender, \"Invalid distributor address.\");\n        _;\n    }\n\n    constructor(string memory _name, string memory _symbol, uint _supply, uint _mintValue)payable ERC721(_name, _symbol){\n        distributor = msg.sender;\n        maxSupply = _supply;\n        mintValue = _mintValue;\n    }\n\n    function _baseURI() internal override view returns (string memory){\n         return baseURI;\n    }\n\n    function setBaseURI(string memory _uri, bool _ratioProtocol, address _protocolAddress)public  payable onlyDistributor{\n        require(baseURIset == false, \"Base URI has already been set.\");\n        baseURI = _uri;\n        if(_ratioProtocol){\n            NFTProtocol(_protocolAddress).requestVerification{value: msg.value}();\n        }\n        baseURIset = true;\n    }\n\n    function setSubURIs(string memory _image, string memory _audio, string memory _video, string memory _model) public onlyDistributor{\n        require(baseURIset == true, \"Base URI has not been set.\");\n        require(subURIset == false, \"Sub URIs have already been set.\");\n        image = _image;\n        audio = _audio;\n        video = _video;\n        model = _model;\n        subURIset = true;\n    }\n\n    function mintInfo() public view returns(uint _maxSupply, uint _mintValue, uint _minted, string memory _name){\n        return  (maxSupply, mintValue, tokenIds.current(), name());\n    }\n\n    function info() public view returns(uint _maxSupply, uint _mintValue, uint _minted, string memory _name, string memory _image, string memory _audio, string memory _video, string memory _model){\n        _minted = tokenIds.current();\n        _name = name();\n        _image = image;\n        _audio = audio;\n        _video = video;\n        _model = model;\n        return (maxSupply, mintValue, _minted, _name, _image, _audio, _video, _model);\n    }\n\n    function mint(address _receiver) external virtual payable returns(uint _id){\n        require(msg.value >= mintValue, \"Invalid mint value given.\");\n        require(baseURIset, \"NFT is not initialized.\");\n        require(subURIset, \"NFT is not initialized.\");\n        require(tokenIds.current() < maxSupply, \"Minting has finished.\");\n        tokenIds.increment();\n        _id = tokenIds.current();\n        _safeMint(_receiver, _id);\n    }\n\n}\n\n",
  "sourcePath": "/home/stephenstb/Ratio/ratio/contracts/NFTProtocol/RatioSingleNFT.sol",
  "compiler": {
    "name": "solc",
    "version": "0.8.5+commit.a4f2e591.Emscripten.clang"
  },
  "schemaVersion": "3.3.3",
  "updatedAt": "2022-05-06T21:20:38.642Z",
  "devdoc": {
    "kind": "dev",
    "methods": {
      "approve(address,uint256)": {
        "details": "See {IERC721-approve}."
      },
      "balanceOf(address)": {
        "details": "See {IERC721-balanceOf}."
      },
      "getApproved(uint256)": {
        "details": "See {IERC721-getApproved}."
      },
      "isApprovedForAll(address,address)": {
        "details": "See {IERC721-isApprovedForAll}."
      },
      "name()": {
        "details": "See {IERC721Metadata-name}."
      },
      "ownerOf(uint256)": {
        "details": "See {IERC721-ownerOf}."
      },
      "safeTransferFrom(address,address,uint256)": {
        "details": "See {IERC721-safeTransferFrom}."
      },
      "safeTransferFrom(address,address,uint256,bytes)": {
        "details": "See {IERC721-safeTransferFrom}."
      },
      "setApprovalForAll(address,bool)": {
        "details": "See {IERC721-setApprovalForAll}."
      },
      "supportsInterface(bytes4)": {
        "details": "See {IERC165-supportsInterface}."
      },
      "symbol()": {
        "details": "See {IERC721Metadata-symbol}."
      },
      "tokenByIndex(uint256)": {
        "details": "See {IERC721Enumerable-tokenByIndex}."
      },
      "tokenOfOwnerByIndex(address,uint256)": {
        "details": "See {IERC721Enumerable-tokenOfOwnerByIndex}."
      },
      "tokenURI(uint256)": {
        "details": "See {IERC721Metadata-tokenURI}."
      },
      "totalSupply()": {
        "details": "See {IERC721Enumerable-totalSupply}."
      },
      "transferFrom(address,address,uint256)": {
        "details": "See {IERC721-transferFrom}."
      }
    },
    "version": 1
  },
  "userdoc": {
    "kind": "user",
    "methods": {},
    "version": 1
  }
}